:020000040800F2
:1000000000800120296D0008796D0008796D0008D5
:10001000796D0008796D0008796D00080000000016
:10002000000000000000000000000000796D0008E2
:10003000796D00080000000093020008A158000834
:10004000796D0008796D0008796D0008796D0008F8
:10005000796D0008796D0008796D0008796D0008E8
:10006000796D0008796D0008796D0008796D0008D8
:10007000796D0008796D0008796D0008796D0008C8
:10008000796D0008796D0008796D000800000000A6
:10009000000000000000000000000000796D000872
:1000A000796D0008796D0008796D000845530008E6
:1000B000796D0008796D0008796D0008796D000888
:1000C000796D0008796D0008796D0008796D000878
:1000D000796D0008796D0008796D00080000000056
:1000E000796D0008796D0008796D00080000000046
:1000F000000000000000000000000000796D000812
:1001000000000000796D0008796D0008796D000825
:1001100000000000000000000000000000000000DF
:10012000796D0008796D0008796D0008796D000817
:10013000796D0008000000000000000000000000D1
:10014000000000000000000000000000796D0008C1
:10015000796D0008796D0008796D0008796D0008E7
:10016000796D0008796D00080000000000000000B3
:10017000000000000000000000000000000000007F
:1001800000000000796D0008000000000000000081
:04019000796D00087D
:1001C000EFF3098121B120ED108A4F490A681060D0
:1001D0007047B0EC108A4D490A681060704772B6DB
:1001E00002B4EFF3118180F31188BFF34F8FBFF397
:1001F0006F8F084602BC62B6704772B680F31188F2
:10020000BFF34F8FBFF36F8F62B6704772B64EF673
:100210002250CEF2000040F2FF01C0F20001017056
:10022000002080F3098848F2B860C2F2000001683B
:1002300081F3088836480121017048F61E20C2F279
:10024000000048F61F21C2F200010A78027048F649
:100250003440C2F2000048F63C41C2F200010A6894
:100260000260106880F30988EFF3148040F0020008
:1002700080F31488BFF36F8FBDE8F04F0FBCBDE86B
:10028000005006BC62B6084722484FF0805101601A
:10029000704772B648F2BC62C2F20002116881F384
:1002A0001188BFF34F8FBFF36F8F62B6EFF30980F2
:1002B00020E9F04F48F63445C2F20005296808608D
:1002C000744648F61E20C2F2000048F61F21C2F212
:1002D00000010A78027048F63C41C2F200010A6847
:1002E0002A6044F0040E1068B0E8F04F80F30988EB
:1002F0004FF0000272B682F31188BFF34F8FBFF345
:100300006F8F62B670470000348C00203C8C002058
:100310002C8A002004ED00E081F0004102E000BFE3
:1003200083F0004330B54FEA41044FEA430594EAB5
:10033000050F08BF90EA020F1FBF54EA000C55EAF0
:10034000020C7FEA645C7FEA655C00F0E2804FEAC1
:100350005454D4EB5555B8BF6D420CDD2C4480EAA3
:10036000020281EA030382EA000083EA010180EAD3
:10037000020281EA0303362D88BF30BD11F0004F21
:100380004FEA01314FF4801C4CEA113102D0404257
:1003900061EB410113F0004F4FEA03334CEA133392
:1003A00002D0524263EB430394EA050F00F0A780AA
:1003B000A4F10104D5F1200E0DDB02FA0EFC22FAA5
:1003C00005F2801841F1000103FA0EF2801843FA99
:1003D00005F359410EE0A5F120050EF1200E012A8A
:1003E00003FA0EFC28BF4CF0020C43FA05F3C018C8
:1003F00051EBE37101F0004507D54FF0000EDCF141
:10040000000C7EEB00006EEB0101B1F5801F1BD3E9
:10041000B1F5001F0CD349085FEA30004FEA3C0CED
:1004200004F101044FEA445212F5800F80F09A80E3
:10043000BCF1004F08BF5FEA500C50F1000041EBE7
:10044000045141EA050130BD5FEA4C0C404141EBEB
:100450000101013C28BFB1F5801FE9D291F0000FE6
:1004600004BF01460020B1FA81F308BF2033A3F195
:100470000B03B3F120020CDA0C3208DD02F1140C8C
:10048000C2F10C0201FA0CF021FA02F10CE002F1C7
:100490001402D8BFC2F1200C01FA02F120FA0CFCC0
:1004A000DCBF41EA0C019040E41AA2BF01EB045109
:1004B000294330BD6FEA04041F3C1CDA0C340EDC07
:1004C00004F11404C4F1200220FA04F001FA02F34A
:1004D00040EA030021FA04F345EA030130BDC4F108
:1004E0000C04C4F1200220FA02F001FA04F340EAFD
:1004F0000300294630BD21FA04F0294630BD94F0AE
:10050000000F83F4801306BF81F480110134013D94
:100510004EE77FEA645C18BF7FEA655C29D094EA05
:10052000050F08BF90EA020F05D054EA000C04BF83
:100530001946104630BD91EA030F1EBF002100206E
:1005400030BD5FEA545C05D14000494128BF41F00D
:10055000004130BD14F580043CBF01F5801130BD71
:1005600001F0004545F0FE4141F470014FF00000FC
:1005700030BD7FEA645C1ABF194610467FEA655CAD
:100580001CBF0B46024650EA013406BF52EA03354F
:1005900091EA030F41F4002130BD00BF90F0000F3D
:1005A00004BF0021704730B54FF4806404F1320479
:1005B0004FF000054FF0000150E700BF90F0000F32
:1005C00004BF0021704730B54FF4806404F1320459
:1005D00010F0004548BF40424FF000013EE700BF29
:1005E00042004FEAE2014FEA31014FEA02701FBFB9
:1005F00012F07F4393F07F4F81F06051704732F0EB
:100600007F4208BF704793F07F4F04BF41F4002141
:10061000704730B54FF4607401F0004521F000419F
:100620001CE700BF50EA010208BF704730B54FF029
:1006300000050AE050EA010208BF704730B511F02A
:10064000004502D5404261EB41014FF4806404F162
:1006500032045FEA915C3FF4D8AE4FF003025FEAE8
:10066000DC0C18BF03325FEADC0C18BF033202EB6C
:10067000DC02C2F1200300FA03FC20FA02F001FAC6
:1006800003FE40EA0E0021FA02F11444BDE600BF69
:1006900070B54FF0FF0C4CF4E06C1CEA11541DBF18
:1006A0001CEA135594EA0C0F95EA0C0F00F0DEF8E3
:1006B0002C4481EA030621EA4C5123EA4C5350EAC8
:1006C000013518BF52EA033541F4801143F4801319
:1006D00038D0A0FB02CE4FF00005E1FB02E506F0AA
:1006E0000042E0FB03E54FF00006E1FB03569CF0FF
:1006F000000F18BF4EF0010EA4F1FF04B6F5007F05
:1007000064F5407404D25FEA4E0E6D4146EB060676
:1007100042EAC62141EA55514FEAC52040EA5E50FF
:100720004FEACE2EB4F1FD0C88BFBCF5E06F1ED8A9
:10073000BEF1004F08BF5FEA500E50F1000041EBE0
:10074000045170BD06F0004646EA010140EA02008D
:1007500081EA0301B4EB5C04C2BFD4EB0C0541EAAF
:10076000045170BD41F480114FF0000E013C00F3C4
:10077000AB8014F1360FDEBF002001F0004170BDE8
:10078000C4F10004203C35DA0C341BDC04F1140401
:10079000C4F1200500FA05F320FA04F001FA05F28D
:1007A00040EA020001F0004221F0004110EBD3705A
:1007B00021FA04F642EB06015EEA430E08BF20EA86
:1007C000D37070BDC4F10C04C4F1200500FA04F329
:1007D00020FA05F001FA04F240EA020001F00041BB
:1007E00010EBD37041F100015EEA430E08BF20EA2E
:1007F000D37070BDC4F1200500FA05F24EEA020E76
:1008000020FA04F301FA05F243EA020321FA04F0A4
:1008100001F0004121FA04F220EA020000EBD3705B
:100820005EEA430E08BF20EAD37070BD94F0000F5B
:100830000FD101F00046400041EB010111F4801F8F
:1008400008BF013CF7D041EA060195F0000F18BF40
:10085000704703F00046520043EB030313F4801F7C
:1008600008BF013DF7D043EA0603704794EA0C0F36
:100870000CEA135518BF95EA0C0F0CD050EA41064C
:1008800018BF52EA4306D1D181EA030101F00041C9
:100890004FF0000070BD50EA410606BF10461946F1
:1008A00052EA430619D094EA0C0F02D150EA0136FD
:1008B00013D195EA0C0F05D152EA03361CBF10463E
:1008C00019460AD181EA030101F0004141F0FE41DD
:1008D00041F470014FF0000070BD41F0FE4141F461
:1008E000780170BD70B54FF0FF0C4CF4E06C1CEA61
:1008F00011541DBF1CEA135594EA0C0F95EA0C0F16
:1009000000F0A7F8A4EB050481EA030E52EA0335D0
:100910004FEA013100F088804FEA03334FF08055F1
:1009200045EA131343EA12634FEA022245EA11151E
:1009300045EA10654FEA00260EF000419D4208BFCF
:10094000964244F1FD0404F5407402D25B084FEA7C
:100950003202B61A65EB03055B084FEA32024FF428
:1009600080104FF4002CB6EB020E75EB030E22BF85
:10097000B61A754640EA0C005B084FEA3202B6EB45
:10098000020E75EB030E22BFB61A754640EA5C00F4
:100990005B084FEA3202B6EB020E75EB030E22BF84
:1009A000B61A754640EA9C005B084FEA3202B6EB85
:1009B000020E75EB030E22BFB61A754640EADC0044
:1009C00055EA060E18D04FEA051545EA16754FEAA6
:1009D00006164FEAC30343EA52734FEAC2025FEAC4
:1009E0001C1CC0D111F4801F0BD141EA00014FF053
:1009F00000004FF0004CB6E711F4801F04BF014324
:100A00000020B4F1FD0C88BFBCF5E06F3FF6AFAE3F
:100A1000B5EB030C04BFB6EB020C5FEA500C50F1CF
:100A2000000041EB045170BD0EF0004E4EEA113152
:100A300014EB5C04C2BFD4EB0C0541EA045170BD59
:100A400041F480114FF0000E013C90E645EA060E9D
:100A50008DE60CEA135594EA0C0F08BF95EA0C0FCB
:100A60003FF43BAF94EA0C0F0AD150EA01347FF413
:100A700034AF95EA0C0F7FF425AF104619462CE7EA
:100A800095EA0C0F06D152EA03353FF4FDAE10464D
:100A9000194622E750EA410618BF52EA43067FF49E
:100AA000C5AE50EA41047FF40DAF52EA43057FF42E
:100AB000EBAE12E74FF0FF3C06E000BF4FF0010C39
:100AC00002E000BF4FF0010C4DF804CD4FEA410C9D
:100AD0007FEA6C5C4FEA430C18BF7FEA6C5C1BD06A
:100AE00001B050EA410C0CBF52EA430C91EA030FEB
:100AF00002BF90EA020F0020704710F1000F91EA48
:100B0000030F58BF994208BF90422CBFD8176FEA15
:100B1000E37040F0010070474FEA410C7FEA6C5CE3
:100B200002D150EA013C07D14FEA430C7FEA6C5CEA
:100B3000D6D152EA033CD3D05DF8040B704700BF16
:100B40008446104662468C461946634600E000BF64
:100B500001B5FFF7B7FF002848BF10F1000F01BD36
:100B60004DF808EDFFF7F4FF0CBF012000205DF801
:100B700008FB00BF4DF808EDFFF7EAFF34BF012086
:100B800000205DF808FB00BF4DF808EDFFF7E0FF1F
:100B900094BF012000205DF808FB00BF4DF808ED70
:100BA000FFF7CEFF94BF012000205DF808FB00BFD7
:100BB0004DF808EDFFF7C4FF34BF012000205DF8B9
:100BC00008FB00BF4FEA4102B2F1E04324BFB3F596
:100BD000001CDCF1FE5C0DD901F0004C4FEAC002B4
:100BE0004CEA5070B2F1004F40EB830008BF20F098
:100BF0000100704711F0804F21D113F13872BCBF52
:100C000001F00040704741F480114FEA5252C2F1A6
:100C10001802C2F1200C10FA0CF320FA02F018BFEF
:100C200040F001004FEAC1234FEAD32303FA0CFC42
:100C300040EA0C0023FA02F34FEA4303CCE77FEAD1
:100C4000625307D150EA01331EBF4FF0FE4040F41B
:100C50004000704701F0004040F0FE4040F40000CA
:100C6000704700BF844641EA000313F003036DD1CF
:100C7000403A41D351F8043B40F8043B51F8043B5F
:100C800040F8043B51F8043B40F8043B51F8043B66
:100C900040F8043B51F8043B40F8043B51F8043B56
:100CA00040F8043B51F8043B40F8043B51F8043B46
:100CB00040F8043B51F8043B40F8043B51F8043B36
:100CC00040F8043B51F8043B40F8043B51F8043B26
:100CD00040F8043B51F8043B40F8043B51F8043B16
:100CE00040F8043B51F8043B40F8043B51F8043B06
:100CF00040F8043B403ABDD2303211D351F8043BA6
:100D000040F8043B51F8043B40F8043B51F8043BE5
:100D100040F8043B51F8043B40F8043B103AEDD254
:100D20000C3205D351F8043B40F8043B043AF9D2A5
:100D3000043208D0D2071CBF11F8013B00F8013B78
:100D400001D30B8803806046704700BF082A13D385
:100D50008B078DD010F003038AD0C3F10403D21A9D
:100D6000DB071CBF11F8013B00F8013B80D331F8D1
:100D7000023B20F8023B7BE7043AD9D3013A11F851
:100D8000013B00F8013BF9D20B7803704B784370BC
:100D90008B78837060467047000000000000000000
:100DA0000000000000000000000000000000000043
:100DB0000000000000000000000000000000000033
:100DC00030B490F800F020F007016FF0000C10F044
:100DD000070491F820F040F048804FF000046FF0D5
:100DE0000700D1E9002391F840F000F1080082FAF1
:100DF0004CF2A4FA8CF283FA4CF3A2FA8CF34BBBBC
:100E0000D1E9022382FA4CF200F10800A4FA8CF234
:100E100083FA4CF3A2FA8CF3E3B9D1E9042382FA02
:100E20004CF200F10800A4FA8CF283FA4CF3A2FA17
:100E30008CF37BB9D1E9062301F1200182FA4CF24F
:100E400000F10800A4FA8CF283FA4CF3A2FA8CF3B6
:100E5000002BC6D0002A04BF04301A4612BAB2FAD8
:100E600082F200EBD20030BC7047D1E9002304F0DD
:100E70000305C4F100004FEAC50514F0040F91F812
:100E800040F00CFA05F562EA05021CBF63EA0503AF
:100E900062464FF00004AAE70000000000000000D6
:100EA00001F0FF01102A2BDB10F0070F08D010F81B
:100EB000013B013A8B422DD010F0070F42B3F6D11F
:100EC000F0B441EA012141EA014122F007047FF038
:100ED00000070023F0E80256083C85EA010586EA8F
:100EE000010685FA47F5A3FA87F586FA47F6A5FACB
:100EF00087F68EB9EED1F0BC01F0FF0102F00702D7
:100F000032B110F8013B013A83EA010313B1F8D181
:100F10000020704701387047002D06BF3546033862
:100F2000073815F0010F07D1013015F4807F02BF9B
:100F3000013015F4C03F0130F0BC0138704700BFEC
:100F40004FEA410C7FEA6C5C02D150EA013C0AD1C5
:100F50004FEA430C7FEA6C5C02D152EA033C02D1B7
:100F60004FF0000070474FF0010070474FEA410218
:100F700012F5001215D211D56FF47873B3EB6252EB
:100F800012D94FEAC12343F0004343EA505311F012
:100F9000004F23FA02F018BF404270474FF00000A4
:100FA000704750EA013005D111F0004008BF6FF0E2
:100FB000004070474FF00000704700BF10B5054C6F
:100FC000237833B9044B13B10448AFF300800123F5
:100FD000237010BD4807002000000000FCC6000878
:100FE00008B5034B1BB103490348AFF3008008BDAC
:100FF000000000004C070020FCC60008002301464A
:101000001A46184600F024BA024A0349034800F081
:10101000C9B800BF000000201D1D000810000020FE
:101020000C4B4168994210B5044601D000F076FEA1
:10103000A168094B994202D0204600F06FFEE1689A
:10104000064B994204D02046BDE8104000F066BE31
:1010500010BD00BF64070020CC070020340800202A
:101060002DE9F843314C324B3248DFF8DC90DFF8A1
:10107000DC80314F1860002529460423082204F142
:101080005C002E4EE360C4E90055C4E90455A56038
:101090006566A56100F0F2F804F15800C4E907495B
:1010A000C4E90987E66200F0CBF92946244B63675F
:1010B000082204F1C400C4E91A55C4E91E55256785
:1010C000C4F8CC50C4F8805000F0D8F804F168039C
:1010D00004F1C000C4F88430C4E92298C4E924763D
:1010E00000F0AEF9174BC4F8DC30294604F59670D1
:1010F0000822C4E93455C4E93855C4F8D850C4F8B6
:101100003451C4F8E85000F0B9F804F1D003C4E950
:101110003D87C4F8F09004F59470C4F8FC60C4F8FE
:10112000EC30BDE8F84300F08BB900BF6407002045
:101130009C080020091000085112000875120008D0
:101140000900010012000200ED1100081112000850
:1011500010B504460A4800F077F9636B23B9094BD0
:10116000094A1B68626323B1BDE81040044800F0DF
:101170006DB9FFF775FFBDE81040014800F066B992
:10118000AC0800209C08002021100008014800F055
:101190005BB900BFAC080020014800F057B900BFA0
:1011A000AC0800202DE9F84380460F4616464FF064
:1011B0000009D6E90154013D11D4A389012B05F1A1
:1011C000FF3508D9B4F90E300133214603D040462B
:1011D000B84749EA00096B1C04F16804EDD1366890
:1011E000002EE6D14846BDE8F88300BF10B50C4696
:1011F000B1F90E1000F0BCF8002803DB236D0344A6
:10120000236510BDA38923F48053A38110BD00BFC3
:101210002DE9F0410C46B1F90C101F46CB050546EF
:1012200016460BD421F48051A1813B46B4F90E102F
:1012300032462846BDE8F04100F0B0B8B4F90E10CF
:101240000223002200F07EF8B4F90C10EAE700BF98
:1012500010B50C46B1F90E1000F074F8B4F90C306A
:10126000421C0EBF23F4805343F480532065A381B6
:1012700010BD00BFB1F90E1000F052B8830730B5B1
:1012800047D0541E002A3ED0CAB2034601E0013CBA
:1012900039D303F8012B9D07F9D1032C2CD9CDB2FA
:1012A00005EB05250F2C05EB054535D9A4F11002FA
:1012B00022F00F0C03F1100EE6444FEA121C1A46FE
:1012C000156055609560D56010327245F8D10CF10B
:1012D000010214F00C0F03EB021204F00F0C13D0F8
:1012E000ACF1040323F003030433134442F8045B1A
:1012F0009A42FBD10CF003042CB1C9B21C4403F890
:10130000011B9C42FBD130BD64461346002CF4D136
:10131000F9E703461446C0E71A46A446E0E700BFD3
:1013200038B5074D0022044608462A6005F0F1FD55
:10133000431C00D038BD2B68002BFBD0236038BD88
:10134000A008002038B50C46084D844611462046BA
:101350001A4600232B60644605F0E7FD431C00D0CD
:1013600038BD2B68002BFBD0236038BDA0080020BF
:1013700038B50C46084D8446114620461A460023CF
:101380002B60644605F0FAFD431C00D038BD2B6885
:10139000002BFBD0236038BDA008002038B50C46D8
:1013A000084D8446114620461A4600232B606446A9
:1013B00005F0C8FD431C00D038BD2B68002BFBD0C6
:1013C000236038BDA008002070B50F4B0F4DAB4215
:1013D000A3EB050607D0B610002455F8043B0134F2
:1013E0009847A642F9D80BF089F9094D094B5E1BC5
:1013F000AB424FEAA60606D0002455F8043B013460
:101400009847A642F9D870BDDCCD0008DCCD0008B5
:10141000DCCD0008E4CD000838B5074D074C2C1B87
:10142000A41005D0013C55F8043D9847002CF9D193
:10143000BDE838400BF068B9E8CD0008E4CD0008FD
:10144000704700BF704700BF704700BF704700BFC4
:101450002DE9F8431B4D0646286898460F469146ED
:10146000FFF7F2FF184B1C681CB3286865681F2D36
:1014700022DC4EB96B1C0235636044F82570FFF71F
:10148000E5FF0020BDE8F88304EB85010123C1F8E6
:101490008890D4F88821AB401A43022EC4F88821E2
:1014A000C1F80881E6D1D4F88C211A43C4F88C2104
:1014B000E0E7064C1C60D8E7FFF7C8FF4FF0FF30AD
:1014C000E0E700BF30010020400A0020B008002003
:1014D000024B13B10248FFF791BD704700000000B6
:1014E000191400082DE9F84306460820894600F043
:1014F0004DFDDFF8A4800546304600F003FCD8F827
:1015000008305F6827F00307A7F11104A4EB090472
:101510002C44B4FBF5F4013C05FB04F4A54208DCC3
:101520000021304600F020FDD8F808303B449842B6
:1015300005D0304600F0ECFB0020BDE8F8836142A6
:10154000304600F011FD01300FD0114AD8F80830B4
:101550003F1B47F001075F60136830461B1B136099
:1015600000F0D6FB0120BDE8F8830021304600F0F2
:10157000FBFCD8F80820831A0F2BDADD43F00103B7
:101580005360044B02491B68C01A0860D1E700BFD2
:10159000440A0020340100204001002000297CD0B2
:1015A0002DE9F0410C46804600F0ACFB54F8043CB9
:1015B000764FA4F1080523F001016818BE6842685F
:1015C000864222F0030200F08380DE07426000EBD7
:1015D000020C33D454F8084CDCF804302D1B2144A1
:1015E000AC6807F1080C644503F0010364D0D5F83A
:1015F0000CE0C4F80CE0CEF80840002B00F081802D
:1016000041F001036B600160B1F5007F22D2786880
:10161000CB080122490901338A40024357F83310AD
:101620007A6007EBC302083AC5E9021247F8335063
:10163000CD604046BDE8F04100F06ABBDCF8043004
:10164000DB072BD541F00103B1F5007F44F8043CE2
:101650000160DCD3B1F5206F4FEA512353D28B09DF
:1016600003F1390003F13802C300F818FB580838B9
:10167000984203D163E09B68984204D05A6822F0F4
:1016800003028A42F7D8D868C5E902308560DD6078
:101690004046BDE8F04100F03BBB7047114407F104
:1016A000080C836863453FD0C268DA60936041F0FC
:1016B00001036B606950A7E7002B61D10A44D0E9B0
:1016C0000213CB60996042F001036B60AA50B0E74F
:1016D000DB070A4407D454F8083CED1A1A44D5E94C
:1016E0000213CB60996042F001036B60284BBD6030
:1016F0001B6893429DD8274B40461968FFF7F2FEBE
:1017000097E71144CDE7142B08D9542B1FD80B0BA6
:1017100003F16F0003F16E02C300A6E703F15C0062
:1017200003F15B02C300A0E741F001033D617D616D
:10173000C5F808C0C5F80CC06B60695079E77968D6
:101740009210012404FA02F20A437A609CE7B3F58E
:10175000AA7F06D8CB0B03F1780003F17702C30010
:1017600083E740F25452934206D88B0C03F17D007C
:1017700003F17C02C30078E74FF47E737E2274E7A6
:1017800041F001036B60016053E700BF400100209E
:1017900038010020740A00202DE9F04F01F10B05FB
:1017A000162D85B0064623D8102900F2B08000F02F
:1017B000A9FA102518230220B74F3B44A3F10802D1
:1017C0005C68944200F01E816368E26823F00303C2
:1017D0002344A168CA6091605A6842F00102304611
:1017E0005A60083400F094FA204605B0BDE8F08F46
:1017F00035F0070500F18B80A94200F2888000F0E7
:1018000081FAB5F5FC7FC0F06E816B0A00F0838031
:10181000042B00F21D81AB0903F1390003F1380CF0
:10182000C3009D4F3B44A3F108015C68A14206D16F
:101830000CE0002A80F2E380E468A14206D06368ED
:1018400023F003035A1B0F2AF3DD6046DFF85CE246
:101850003C69744500F0C080636823F00308A8EB7E
:1018600005030F2B00F34381002BC7E904EE80F240
:101870002E81B8F5007FD7F804C080F0C9804FEA08
:10188000D80101314FEA5818012303FA08F357F839
:101890003120A2604CEA030C07EBC103083BE36074
:1018A000C7F804C047F83140D46083104FF00108F6
:1018B00008FA03F8E04534D818EA0C0F08D120F0F4
:1018C00003004FEA480818EA0C0F00F10400F8D0B2
:1018D00007EBC00A52468146D1680EE04B6823F000
:1018E0000303A3EB050CBCF10F0F0C46C96800F312
:1018F000BB80BCF1000F80F2DD808A42EED109F19D
:10190000010919F0030F02F10802E5D11AE10C23D5
:101910003360002468E74FF4007340204FF03F0C21
:101920007FE7BC68636823F00309A94503D3A9EBEB
:1019300005030F2B53DC594BDFF874B11B680820EB
:1019400003F1100800F022FBDBF8003001900133B6
:10195000A84404EB090205D008F1FF388044434253
:1019600003EA080841463046029200F0FDFAB0F161
:10197000FF3F029A824600F0D780824200F2D28076
:10198000474B01991868404401F1FF3118608446C3
:1019900040F0FB801AEA010F40F0F780D7F808A06A
:1019A000C84448F00102CAF804203E4B196881423D
:1019B00038BF18603C4B1968814238BF18605446E4
:1019C00022F00308A845A8EB050301D30F2B06DC82
:1019D000304600F09DF99CE7D7F804C065E762192E
:1019E00043F0010345F0010565603046BA6053607D
:1019F00000F08EF90834204605B0BDE8F08FE268AB
:101A00002344E6E6DC68A3427FF4DEAE02301DE745
:101A1000B8F5206F4FEA58227DD3142A00F21981BD
:101A200002F15C03DB005B32F918FB58083999427C
:101A300003D1F3E09B68994204D05A6822F0030274
:101A40004245F7D8D968C4E902318C60DC602CE7E4
:101A5000142B6CD9542B00F205812B0B03F16F0072
:101A600003F16E0CC300DCE63046A668621945F04F
:101A700001056560F1608E604CF00101C7E9042248
:101A8000C2F808E0C2F80CE0516044F803C000F06E
:101A90003FF90834A8E600BF40010020740A002086
:101AA000440A0020700A00206C0A0020480100202F
:101AB00034010020234430465A6842F001025A6043
:101AC00054F8083FD9608B6000F022F98CE6A044FE
:101AD0003046D8F8043043F00103C8F80430083425
:101AE00000F016F980E6E80805F1080364E66219DB
:101AF00043F0010145F0010565603046C7E9042265
:101B0000C2F808E0C2F80CE0516044F8083000F078
:101B1000FFF8083468E64FEA981202F13903DB0057
:101B2000383281E7BC4228D0BC68626848E703F1DC
:101B30005C0003F15B0CC30073E65AF808395345A7
:101B400040F0DB8010F0030F00F1FF30F5D17B682F
:101B500023EA08037B604FEA480898453FF6E1AE68
:101B6000B8F1000F04D1DCE64FEA480809F1040996
:101B700018EA030FF8D04846AAE6614B01991868A5
:101B800008EB000C0139C3F800C0DBF8000001309D
:101B90001BBFAAEB02026244CBF800A01A601AF045
:101BA0000702CDE9022343D0C2F10802019B92440F
:101BB000D044134408EA01001A1A02EA010B5946FC
:101BC000304600F0D1F9421C039B79D0A0EB0A000B
:101BD00000EB0B081868C7F808A048F00102584449
:101BE000BC42CAF8042018603FF4DFAEB9F10F0F11
:101BF00042D96168A9F10C0222F0070201F001014B
:101C000011436160A1184FF0050C0F2AC1F804C000
:101C1000C1F808C049D8DAF80420C6E692104FF09F
:101C2000010808FA02F24CEA020CC7F804C00AE7FD
:101C3000019B0AEB08020A409A1A02EA010B594674
:101C4000304600F091F9431C039BBFD1DDF808B08A
:101C5000C0E7542A14D84FEA183202F16F03DB00B0
:101C60006E32E1E6B3F5AA7F14D8EB0B03F17800EE
:101C700003F1770CC300D4E50123CAF80430A7E6CA
:101C8000B2F5AA7F24D84FEAD83202F17803DB00FC
:101C90007732C9E640F25452934224D8AB0C03F198
:101CA0007D0003F17C0CC300BBE5304604F1080164
:101CB0000193FFF773FC019BD7F808A01868AAE707
:101CC000029A083A9044A8EB0A084FF0000B81E70B
:101CD00040F254539A420CD84FEA984202F17D03E5
:101CE000DB007C32A0E64FF47E737F204FF07E0C49
:101CF00097E54FF47E737E2296E67B682BE700BF64
:101D0000440A00200148FFF79FBB00BFA408002041
:101D10000148FFF79BBB00BFA408002070B5002955
:101D20003FD005460C4610B1436B002B3CD0636E90
:101D3000B4F90C20DE0732D4900538D52146284668
:101D400000F04CF8E36A064633B1E169284698474B
:101D50000028B8BF4FF0FF36A3891A0639D4216B8B
:101D600041B104F14003994202D02846FFF716FC26
:101D700000232363616C21B12846FFF70FFC002389
:101D80006364FFF703FA636E0022DB07A2811CD5B0
:101D9000A06DFFF757FBFFF7FFF9304670BD002A33
:101DA000CCD10026304670BDFFF7D2F9BFE7A06D59
:101DB000FFF74AFBB4F90C30002BBFD1636ED90793
:101DC000EFD4A06DFFF742FBEBE7A06DFFF73EFB02
:101DD000DEE721692846FFF7E1FBC0E7B1F90C20F7
:101DE0002DE9F0410C46110780464BD4616842F45E
:101DF00000630029A38160DDA56A002D3FD000218A
:101E000012F48052D8F80060C8F80010E16961D17E
:101E100001234046A847431C02466BD0B4F90C305E
:101E2000A56AE1695F0705D56368D21A236B0BB118
:101E3000E36BD21A00234046A847451C4CD1D8F882
:101E400000101D293DD8324AB4F90C300A4112F075
:101E5000010238D162602269226023F40062A2810B
:101E6000DA0452D4216BC8F8006041B104F1400398
:101E7000994202D04046FFF791FB002323630020E4
:101E8000BDE8F0812669002EF9D02568266091070B
:101E90000CBF63690023AD1BA3600BE02B463246E9
:101EA000E169676A4046B847B0F1000CA5EB0C0544
:101EB000664406DD002DF1DCE1E7E16B00299BDCE7
:101EC000DDE7B4F90C3043F04003A3814FF0FF305D
:101ED000BDE8F081226DA5E7B4F90C3022692260DB
:101EE00023F40062A281DB044FF000026260B9D5E6
:101EF0002065B7E7D8F80030002B8FD01D2B01D01C
:101F0000162BDED1C8F80060B9E70029AAD1EFE7A7
:101F1000FEFFBFDF38B50C46054608B1436B03B37F
:101F2000B4F90C0088B1636EDB0701D481050FD5CD
:101F300028462146FFF752FF636EDA07054602D4B2
:101F4000A3899B0508D5284638BD0546284638BDD7
:101F5000A06DFFF779FAEBE7A06DFFF777FA284657
:101F600038BDFFF7F5F8DBE738B5074D002204462A
:101F700008462A6005F010F8431C00D038BD2B68D5
:101F8000002BFBD0236038BDA0080020082802D118
:101F90004FF48050704708B500F006F81623036030
:101FA0004FF0FF3008BD00BF014B1868704700BFFD
:101FB0000C00002080B483B000AF7860064A7B68D4
:101FC00043F0BF6343F40033D36000BF0C37BD461A
:101FD0005DF8047B704700BF00ED00E080B485B081
:101FE00000AF78600023FB730023BB730F237B7368
:101FF0007B68DB78002B39D0274BDB68DB431B0A7F
:10200000DBB203F00703FB73FB7BC3F10403BB7379
:102010007A7BFB7B42FA03F37B737B685B781A461F
:10202000BB7B02FA03F3FB737B689A787B7B1340DC
:10203000DAB2FB7B1343FB73FB7B1B01FB73174A79
:102040007B681B781344FA7B83F800237B681B783A
:1020500003F01F0311497A6812785209D2B2104670
:10206000012202FA03F341F820300FE07B681B786D
:1020700003F01F0309497A6812785209D2B2104658
:1020800001229A4000F1200341F8232000BF1437B9
:10209000BD465DF8047B704700ED00E000E100E024
:1020A00080B487B000AF7860396000237B61002383
:1020B0003B610023FB6000237B6176E001227B69AA
:1020C00002FA03F33B613B681B683A691340FB600B
:1020D000FA683B699A4265D17B681A687B695B0044
:1020E000032101FA03F3DB431A407B681A607B6823
:1020F0001A683B681B7919467B695B0001FA03F398
:102100001A437B681A603B681B79012B03D03B683C
:102110001B79022B2ED17B689A687B695B000321B7
:1021200001FA03F3DB431A407B689A607B689A6884
:102130003B685B7919467B695B0001FA03F31A433C
:102140007B689A607B685A687B699BB21946012359
:102150008B40DB431A407B685A607B685B683A6857
:10216000927911467A6992B201FA02F292B21A4356
:102170007B685A607B68DA687B699BB25B000321ED
:1021800001FA03F3DB431A407B68DA607B68DA68A4
:102190003B68DB7919467B695B0001FA03F31A435C
:1021A0007B68DA607B6901337B617B690F2B85D9A2
:1021B00000BF00BF1C37BD465DF8047B70470000C0
:1021C00080B483B000AF78600B46FB70FB78002BC7
:1021D00006D00A4B1A6B09497B6813430B6306E070
:1021E000064B1A6B7B68DB43044913400B6300BF4B
:1021F0000C37BD465DF8047B704700BF00380240D5
:1022000080B483B000AF78600B46FB70FB78002B86
:1022100006D00A4B1A6C09497B6813430B6406E02D
:10222000064B1A6C7B68DB43044913400B6400BF08
:102230000C37BD465DF8047B704700BF0038024094
:1022400080B485B000AF786039600023FB817B6883
:102250001B88FB817B68294A934213D07B68284AFC
:1022600093420FD07B68B3F1804F0BD07B68254A37
:10227000934207D07B68244A934203D07B68234A69
:10228000934208D1FB8923F07003FB813B685A8895
:10229000FB891343FB817B681D4A93420CD07B680A
:1022A0001C4A934208D0FB8923F44073FB813B68AE
:1022B0001A89FB891343FB817B68FA891A803B6882
:1022C0005A687B68DA623B681A887B681A857B6883
:1022D0000A4A934203D07B68094A934204D13B687F
:1022E0009B7A1A467B681A867B6801229A8200BF15
:1022F0001437BD465DF8047B704700BF0000014005
:10230000000401400004004000080040000C0040B0
:10231000001000400014004080B483B000AF78602B
:102320000B46FB70FB78002B08D07B681B889BB2A8
:1023300043F001039AB27B681A8007E07B681B8830
:102340009BB223F001039AB27B681A8000BF0C375E
:10235000BD465DF8047B704780B485B000AF7860FF
:10236000396000237B810023FB810023BB817B68D4
:102370001B8C9BB223F001039AB27B681A847B68A2
:102380001B8CFB817B689B88BB817B681B8B7B8163
:102390007B8923F070037B817B8923F003037B819E
:1023A0003B681A887B8913437B81FB8923F00203F6
:1023B000FB813B689A89FB891343FB813B685A8800
:1023C000FB891343FB817B681E4A934203D07B68E1
:1023D0001D4A934223D1FB8923F00803FB813B680C
:1023E000DA89FB891343FB81FB8923F00403FB811A
:1023F0003B689A88FB891343FB81BB8923F4807374
:10240000BB81BB8923F40073BB813B681A8ABB89FB
:102410001343BB813B685A8ABB891343BB817B68EA
:10242000BA899A807B687A891A833B689A687B6844
:102430005A637B68FA891A8400BF1437BD465DF879
:10244000047B7047000001400004014080B485B067
:1024500000AF78600B467B800023FB817B681B8B81
:10246000FB81FB8923F00803FB81FA897B881343F6
:10247000FB817B68FA891A8300BF1437BD465DF87B
:10248000047B704780B483B000AF78607B685B6B7F
:1024900018460C37BD465DF8047B704780B483B0A6
:1024A00000AF78600B467B8013467B707B78002BF7
:1024B00008D07B689B899AB27B8813439AB27B6869
:1024C0009A8109E07B689B899AB27B88DB439BB247
:1024D00013409AB27B689A8100BF0C37BD465DF805
:1024E000047B704780B485B000AF78600B467B807A
:1024F0000023FB730023BB8100237B817B681B8A45
:102500009AB27B881340BB817B689B899AB27B8897
:1025100013407B81BB89002B05D07B89002B02D027
:102520000123FB7301E00023FB73FB7B1846143788
:10253000BD465DF8047B704780B483B000AF78601F
:102540000B467B807B88DB439AB27B681A8200BF94
:102550000C37BD465DF8047B704780B485B000AF92
:1025600078600B467B800023FB737B681B889AB2E4
:102570007B8813409BB2002B02D00123FB7301E048
:102580000023FB73FB7B18461437BD465DF8047BC4
:1025900070470000000000002DE9B04FA0B000AF70
:1025A00078613961FA60BB6087ED000B7B69D3E924
:1025B00002017B69D3E90623FEF76AF802460B465F
:1025C00014461D467B69D3E900017B69D3E90423E6
:1025D000FEF75EF802460B4620462946FDF7A0FEB0
:1025E00002460B461046194602460B46FDF79AFE78
:1025F00002460B4610461946FB68D3E90023FDF757
:102600008FFE02460B46C7E90E237B69D3E9000122
:102610007B69D3E90223FEF73BF802460B461446DA
:102620001D467B69D3E904017B69D3E90623FEF7E4
:102630002FF802460B4620462946FDF773FE024658
:102640000B461046194602460B46FDF76BFE024646
:102650000B4610461946FB68D3E90223FDF760FEDE
:1026600002460B46C7E910237B69D3E902017B6967
:10267000D3E90223FEF70CF802460B464FF00000A8
:10268000C449FDF74DFE02460B4614461D467B69C4
:10269000D3E904017B69D3E90423FDF7F9FF02467E
:1026A0000B4620462946FDF73BFE02460B461046E8
:1026B000194602460B46FDF735FE02460B4610460C
:1026C0001946FB68D3E90423FDF72AFE02460B46B0
:1026D000C7E91223D7F8A430D3E9000102460B461C
:1026E000FDF720FE02460B4614461D467B69D3E9E2
:1026F00004017B69D3E90423FDF7CAFF02460B46B8
:102700004FF00000A349FDF70BFE02460B46904632
:1027100099467B69D3E906017B69D3E90623FDF776
:10272000B7FF02460B4640464946FDF7F9FD024613
:102730000B4620462946FDF7ABFF02460B461446E2
:102740001D46D7F8A430D3E9040102460B46FDF735
:10275000E9FD02460B46904699467B69D3E90201A2
:102760007B69D3E90623FDF793FF02460B469246A9
:102770009B467B69D3E900017B69D3E90423FDF71C
:1027800087FF02460B4650465946FDF7C9FD0246F3
:102790000B4640464946FDF77BFF02460B46204666
:1027A0002946FDF7BFFD02460B4610461946D7F8ED
:1027B000A030D3E90023FDF7B3FD02460B46C7E97D
:1027C0001423D7F8A430D3E9000102460B46FDF7E5
:1027D000A9FD02460B4614461D467B69D3E902015A
:1027E0007B69D3E90423FDF753FF02460B4690466D
:1027F00099467B69D3E900017B69D3E90623FDF79C
:1028000047FF02460B4640464946FDF789FD024612
:102810000B4620462946FDF73BFF02460B46144671
:102820001D46D7F8A430D3E9040102460B46FDF754
:1028300079FD02460B46904699467B69D3E9000133
:102840007B69D3E90223FDF723FF02460B4692463C
:102850009B467B69D3E904017B69D3E90623FDF735
:1028600017FF02460B4650465946FDF75BFD0246F0
:102870000B4640464946FDF70BFF02460B462046F5
:102880002946FDF74FFD02460B4610461946D7F87C
:10289000A030D3E90223FDF743FD02460B46C7E90A
:1028A0001623D7F8A430D3E9000102460B46FDF702
:1028B00039FD02460B4614461D467B69D3E90001EB
:1028C0007B69D3E90423FDF7E3FE02460B469046FD
:1028D00099467B69D3E902017B69D3E90623FDF7B9
:1028E000D7FE02460B4640464946FDF71BFD024611
:1028F0000B4620462946FDF7CBFE02460B46144602
:102900001D46D7F8A430D3E9040102460B46FDF773
:1029100009FD02460B46904699467B69D3E90201C0
:102920007B69D3E90223FDF7B3FE02460B464FF065
:1029300000001849FDF7F4FC02460B4692469B4600
:102940007B69D3E904017B69D3E90423FDF7A0FE89
:1029500002460B4650465946FDF7E2FC02460B463E
:1029600040464946FDF794FE02460B46204629465E
:10297000FDF7D8FC02460B4610461946D7F8A030A2
:10298000D3E90423FDF7CCFC02460B46C7E9182324
:102990007B6901E00000E03FD3E904014FF0000251
:1029A0004FF04043FDF774FE02460B4610461946B1
:1029B000D7E90E23FDF76CFE02460B4614461D4672
:1029C0007B69D3E9020102460B46FDF7ABFC0246E8
:1029D0000B4610461946D7E91023FDF759FE02466B
:1029E0000B4620462946FDF79DFC02460B46104645
:1029F00019464FF000024FF00003FDF793FC02462A
:102A00000B4614461D46D7F8A430D3E9040102460C
:102A10000B46FDF787FC02460B46104619467B69BC
:102A2000D3E90423FDF734FE02460B46104619464F
:102A3000D7E91423FDF72CFE02460B462046294613
:102A4000FDF76EFC02460B4614461D46D7F8A4302F
:102A5000D3E900014FF000024FF04043FDF718FEAC
:102A600002460B46104619467B69D3E90623FDF75B
:102A70000FFE02460B4690469946D7F8A430D3E99C
:102A8000040102460B46FDF74DFC02460B4610467C
:102A900019467B69D3E90223FDF7FAFD02460B468E
:102AA00040464946FDF73EFC02460B461046194695
:102AB000D7E91623FDF7ECFD02460B4620462946D2
:102AC000FDF730FC02460B4614461D46D7F8A430ED
:102AD000D3E9000102460B46FDF724FC02460B46F3
:102AE000104619467B69D3E90423FDF7D1FD024660
:102AF0000B4610461946D7E91823FDF7C9FD0246D3
:102B00000B4620462946FDF70DFC02460B46C7E959
:102B100006237B69D3E9060102460B46FDF702FC5A
:102B200002460B4610461946D7E90E23FDF7B0FDC5
:102B300002460B4614461D467B69D3E90001024656
:102B40000B46FDF7EFFB02460B4610461946D7E948
:102B50001023FDF79DFD02460B4620462946FDF752
:102B6000E1FB02460B4614461D467B69D3E9020190
:102B70004FF00002D04BFDF78BFD02460B4610468E
:102B80001946D7E91223FDF783FD02460B4620467E
:102B90002946FDF7C5FB02460B4614461D46D7F8ED
:102BA000A430D3E9040102460B46FDF7BBFB024605
:102BB0000B46104619467B69D3E90623FDF768FDED
:102BC00002460B4610461946D7E91423FDF760FD6F
:102BD00002460B4620462946FDF7A4FB02460B465B
:102BE00014461D46D7F8A430D3E9000102460B462F
:102BF000FDF798FB02460B46104619467B69D3E960
:102C00000423FDF745FD02460B4690469946D7F84A
:102C1000A430D3E9040102460B46FDF783FB0246CC
:102C20000B46104619467B69D3E90023FDF730FDBA
:102C300002460B4640464946FDF774FB02460B46EA
:102C400010461946D7E91623FDF722FD02460B462A
:102C500020462946FDF766FB02460B4614461D46F4
:102C6000D7F8A430D3E9000102460B46FDF75AFB22
:102C700002460B46104619467B69D3E90623FDF749
:102C800007FD02460B4690469946D7F8A430D3E993
:102C900004014FF00002884BFDF7FAFC02460B4698
:102CA000104619467B69D3E90223FDF7F1FC024681
:102CB0000B4640464946FDF733FB02460B4610469D
:102CC0001946D7E91823FDF7E3FC02460B462046D8
:102CD0002946FDF727FB02460B46C7E908237B6917
:102CE000D3E900014FF000024FF04043FDF7D0FC64
:102CF00002460B4610461946D7E90E23FDF7C8FCDD
:102D000002460B4614461D467B69D3E9060102467E
:102D10000B46FDF707FB02460B4610461946D7E95E
:102D20001023FDF7B5FC02460B4620462946FDF769
:102D3000F9FA02460B4614461D467B69D3E90401A5
:102D40004FF000025C4BFDF7A3FC02460B46104619
:102D50001946D7E91223FDF79BFC02460B46204695
:102D60002946FDF7DDFA02460B4614461D46D7F804
:102D7000A430D3E900014FF00002504BFDF788FC6E
:102D800002460B46104619467B69D3E90423FDF73A
:102D90007FFC02460B4690469946D7F8A430D3E90B
:102DA000040102460B46FDF7BDFA02460B461046EB
:102DB00019467B69D3E90023FDF76AFC02460B46FE
:102DC00040464946FDF7ACFA02460B461046194606
:102DD000D7E91423FDF75CFC02460B462046294642
:102DE000FDF7A0FA02460B4614461D46D7F8A4305C
:102DF000D3E9000102460B46FDF794FA02460B4662
:102E0000104619467B69D3E90223FDF741FC0246CF
:102E10000B4690469946D7F8A430D3E90401024600
:102E20000B46FDF77FFA02460B46104619467B69B2
:102E3000D3E90023FDF72CFC02460B4640464946E9
:102E4000FDF770FA02460B4610461946D7E91623DD
:102E5000FDF71EFC02460B4620462946FDF762FAA6
:102E600002460B4614461D46D7F8A430D3E90001AC
:102E700002460B46FDF756FA02460B461046194627
:102E80007B69D3E90023FDF703FC02460B4690461D
:102E90009946D7F8A430D3E904014FF00002064B5D
:102EA000FDF7F6FB02460B46104619467B69D3E94F
:102EB0000423FDF7EDFB03E000001040000010C00C
:102EC00002460B4640464946FDF72AFA02460B46A3
:102ED00010461946D7E91823FDF7DAFB02460B46E0
:102EE00020462946FDF71EFA02460B46C7E90A238B
:102EF0007B69D3E9020102460B46FDF713FA02464D
:102F00000B4610461946D7E90E23FDF7C1FB0246D2
:102F10000B4614461D467B69D3E9040102460B4665
:102F2000FDF700FA02460B4610461946D7E9102372
:102F3000FDF7AEFB02460B4620462946FDF7F2F9A7
:102F400002460B46104619464FF000024FF00003B0
:102F5000FDF7E8F902460B4614461D46D7F8A430A3
:102F6000D3E900014FF00002954BFDF791FB0246BB
:102F70000B46104619467B69D3E90623FDF788FB0B
:102F800002460B4690469946D7F8A430D3E904018F
:102F900002460B46FDF7C6F902460B461046194697
:102FA0007B69D3E90223FDF773FB02460B464046DB
:102FB0004946FDF7B7F902460B4610461946D7E9D0
:102FC0001423FDF765FB02460B4620462946FDF714
:102FD000A9F902460B4614461D46D7F8A430D3E99A
:102FE00000014FF000024FF04043FDF751FB024655
:102FF0000B46104619467B69D3E90023FDF748FBD1
:1030000002460B4690469946D7F8A430D3E904010E
:1030100002460B46FDF786F902460B461046194656
:103020007B69D3E90423FDF733FB02460B46404698
:103030004946FDF777F902460B4610461946D7E98F
:103040001623FDF725FB02460B4620462946FDF7D1
:1030500069F902460B4614461D46D7F8A430D3E959
:10306000000102460B46FDF75DF902460B4610468D
:1030700019467B69D3E90223FDF70AFB02460B469A
:1030800010461946D7E91823FDF702FB02460B4606
:1030900020462946FDF746F902460B46C7E90C23B0
:1030A00097ED064B97ED085B97ED0A6B97ED0C7B60
:1030B000B0EE440AF0EE640AB0EE451AF0EE651A7E
:1030C000B0EE462AF0EE662AB0EE473AF0EE673AE6
:1030D00001F06AF987ED1E0B37A3D3E90023C7E996
:1030E0001C234FF00002374BC7E91A23D7E900230E
:1030F000D7E91A01FDF7CCFA02460B4614461D46E5
:10310000BB6893ED005B93ED026B93ED047BB0EE37
:10311000450AF0EE650AB0EE461AF0EE661AB0EE19
:10312000472AF0EE672A01F0EFF853EC102B204607
:103130002946FDF7ADFA02460B4610461946D7E977
:103140001C23FDF7EFF802460B461F49C1E9002397
:10315000D7E90601D7E91E23FDF7C4FB02460B465B
:103160003969C1E90023D7E90801D7E91E23FDF732
:10317000B9FB02460B463969C1E90223D7E90A01C6
:10318000D7E91E23FDF7AEFB02460B463969C1E9BC
:103190000423D7E90C01D7E91E23FDF7A3FB024660
:1031A0000B463969C1E90623386901F063F900BFAC
:1031B0008037BD46BDE8B08F9A9999999999A93FF2
:1031C000000010C000000840780A00200000000045
:1031D0002DE9F04FADF54D7D02AF07F54A74A4F52A
:1031E0003374206007F54A70A0F53470016007F56C
:1031F0004A71A1F535710A6007F54A72A2F5367277
:10320000136007F1480383ED000B4FF000024FF00D
:103210000003C7E9A82307F54A73A3F535731B68B4
:10322000D3E90023904683F00049C7E9AA8907F54E
:103230004A73A3F535731B68D3E90223924683F0E2
:10324000004BC7E9ACAB07F54A73A3F535731B68B0
:10325000D3E90423154683F00046C7E9AE5607F5C7
:103260004A73A3F535731B68D3E90023C7E9B0237C
:103270004FF000024FF00003C7E9B22307F54A738D
:10328000A3F535731B68D3E90423C7E9B42307F515
:103290004A73A3F535731B68D3E902233A6483F0BC
:1032A00000437B6497ED107B87EDB67B07F54A738F
:1032B000A3F535731B68D3E90223C7E9B82307F5E3
:1032C0004A73A3F535731B68D3E90423BA6383F00B
:1032D0000043FB6397ED0E7B87EDBA7B4FF0000256
:1032E0004FF00003C7E9BC2307F54A73A3F5357314
:1032F0001B68D3E90023C7E9BE2307F54A73A3F58A
:1033000035731B68D3E90423C7E9C02307F54A7363
:10331000A3F535731B68D3E90223C7E9C22307F578
:103320004A73A3F535731B68D3E900233A6383F02E
:1033300000437B6397ED0C7B87EDC47B4FF000026D
:103340004FF00003C7E9C62307F54A73A3F584715C
:103350004FF000024FF00003C1E9002307F54A7364
:10336000A3F536731B68D3E90023BA6283F00043E8
:10337000FB6207F54A73A3F5847397ED0A7B83ED2F
:10338000027B07F54A73A3F536731B68D3E9022362
:103390003A6283F000437B6207F54A73A3F58473B6
:1033A00097ED087B83ED047B07F54A73A3F536732D
:1033B0001B68D3E90423BA6183F00043FB6107F57E
:1033C0004A73A3F5847397ED067B83ED067B07F5BF
:1033D0004A73A3F536731B68D3E9002307F54A71D6
:1033E000A1F58471C1E9082307F54A73A3F5847137
:1033F0004FF000024FF00003C1E90A2307F54A73BA
:10340000A3F536731B68D3E9042307F54A71A1F5C8
:103410008471C1E90C2307F54A73A3F536731B6861
:10342000D3E902233A6183F000437B6107F54A73D5
:10343000A3F5847397ED047B83ED0E7B07F54A7348
:10344000A3F536731B68D3E9022307F54A71A1F58A
:103450008471C1E9102307F54A73A3F536731B681D
:10346000D3E90423BA6083F00043FB6007F54A7395
:10347000A3F5847397ED027B83ED127B07F54A7306
:10348000A3F584714FF000024FF00003C1E914234B
:1034900007F54A73A3F536731B68D3E9002307F5D4
:1034A0004A71A1F58471C1E9162307F54A73A3F5A2
:1034B00036731B68D3E9042307F54A71A1F58471BB
:1034C000C1E9182307F54A73A3F536731B68D3E9DE
:1034D000022307F54A71A1F58471C1E91A2307F5A2
:1034E0004A73A3F536731B68D3E900233A6083F06F
:1034F00000437B6007F54A73A3F5847397ED007B67
:1035000083ED1C7B07F54A73A3F584714FF000022D
:103510004FF00003C1E91E23002387F827334AE058
:10352000002387F826333DE097F8272397F82633C2
:1035300092001344DB0003F5387307F1480213448B
:10354000883BD3E9000197F8274397F8263307F51E
:103550004A72A2F58472A4002344DB001344D3E929
:103560000023FCF7DFFE02460B461046194697F88B
:10357000275397F826434FF000024FF08043FDF7A2
:10358000B1F902460B4607F54A71A1F5C470A900CE
:103590002144C9000144C1E9002397F826330133CF
:1035A00087F8263397F82633032BBDD997F82733AE
:1035B000013387F8273397F82733032BB0D907F562
:1035C0004A73A3F533731B68D3E9002307F54A71E7
:1035D000A1F5D471C1E9002307F54A73A3F533734C
:1035E0001B68D3E9022307F54A71A1F5D471C1E93B
:1035F000022307F54A73A3F533731B68D3E9042349
:1036000007F54A71A1F5D471C1E9042307F54A739E
:10361000A3F533731B68D3E9062307F54A71A1F5B7
:10362000D471C1E9062307F5C07207F5287107F1C7
:10363000C0000123019304230093042301F00FF938
:1036400007F1C00107F5A070012304229FED9A0B3A
:1036500001F0C3F807F1480319464FF000024FF09C
:103660008043D1E90001FDF73DF902460B4643ECEA
:10367000172B07F5A07107F1C00001230422B0EE5B
:10368000470AF0EE670A01F0A8F807F1C00207F553
:10369000C07107F1A00001230093042301F054F846
:1036A00007F1A00207F5D07107F1C00001230193D3
:1036B00004230093042301F0D2F807F1C00107F5B9
:1036C0009070012304229FED7C0B01F086F807F136
:1036D000480319464FF000024FF08043D1E9000142
:1036E000FDF700F902460B4643EC172B07F59071E6
:1036F00007F1C00001230422B0EE470AF0EE670A8A
:1037000001F06BF807F1C00207F5C07107F1A000E6
:1037100001230093042301F017F807F1A00207F535
:10372000D07107F1C0000123019304230093042307
:1037300001F095F807F1C00107F58070012304221C
:103740009FED5D0B01F049F807F148031C4607F5B2
:10375000807107F1C0000123042294ED000B01F0F9
:103760003CF807F1C00207F5C07107F1A000012382
:103770000093042300F0E8FF07F1A00207F50871A9
:1037800007F1C0000123019304230093042301F0F7
:1037900066F807F1C00107F1E000012304229FED64
:1037A000460B01F01AF807F5907107F1C0000123EC
:1037B00004229FED430B01F010F807F5807107F12B
:1037C000A000012304229FED3E0B01F006F807F153
:1037D000A00207F1C00107F1800001230093042338
:1037E00000F0B2FF07F1E00207F5A07107F16000F9
:1037F00001230093042300F0A7FF07F1600207F103
:10380000800107F1C00001230093042300F09CFF16
:1038100007F1480319464FF000022B4BD1E9000194
:10382000FDF760F802460B4643EC172B07F1C00189
:1038300007F1A00001230422B0EE470AF0EE670A68
:1038400000F0CBFF07F54A73A3F5E473D3E9002337
:1038500007F54A71A1F534710968C1E9002307F53C
:103860004A73A3F5E473D3E9022307F54A71A1F57E
:1038700034710968C1E9022307F54A73A3F5E473BB
:10388000D3E9042307F54A71A1F534710968C1E948
:10389000042307F54A73A3F5E473D3E9062307F578
:1038A0004A71A1F534710968C1E9062300BF07F523
:1038B0004B77BD46BDE8F08F000000000000E03F00
:1038C0000000000000000040000018400000000060
:1038D0002DE9B043CAB002AF07F59073A3F58A7320
:1038E000186007F59073A3F58C7319603B4683ED60
:1038F000000B4FF000024FF00003C7E926234FF002
:1039000000024FF00003C7E928234FF000024FF0F8
:103910000003C7E92A230023C7F81C3103F0EEF99E
:10392000024607F59073A3F588731A6007F18003C8
:10393000184600F0E1FA07F16803184600F012FAA1
:1039400007F15003184600F01DFC03F0D7F90246BA
:1039500007F59073A3F588735A6007F1800407F1A7
:10396000680207F1D00107F10C0007F59073A3F589
:103970008C731B68019307F1500300939FED720B4A
:103980002346FEF709FE03F0B9F9024607F59073E6
:10399000A3F58873DA6007F1800307F1980207F155
:1039A000B00107F10C009FED680BFFF711FC07F168
:1039B000B003184600F05EFD07F1980407F180059A
:1039C0000FCD0FC495E8030084E8030003F096F9D7
:1039D000024607F59073A3F588739A605CA3D3E958
:1039E0000023C7E9442307F59073A3F58A731B6886
:1039F000D3E90001D7E92C23FCF794FC02460B46DF
:103A000090469946D7E93401D7E94423FCF740FEB4
:103A100002460B461046194607F59073A3F58A73C4
:103A20001C6802460B4640464946FCF77BFC0246B2
:103A30000B46C4E9002307F59073A3F58A731B684E
:103A4000D3E90201D7E92E23FCF76CFC02460B46B2
:103A500090469946D7E93601D7E94423FCF718FE8A
:103A600002460B461046194607F59073A3F58A7374
:103A70001C6802460B4640464946FCF753FC02468A
:103A80000B46C4E9022307F59073A3F58A731B68FC
:103A9000D3E90401D7E93023FCF744FC02460B4686
:103AA00090469946D7E93801D7E94423FCF7F0FD61
:103AB00002460B461046194607F59073A3F58A7324
:103AC0001C6802460B4640464946FCF72BFC024662
:103AD0000B46C4E9042307F59073A3F58A731B68AA
:103AE000D3E90601D7E93223FCF71CFC02460B465A
:103AF00090469946D7E93A01D7E94423FCF7C8FD37
:103B000002460B461046194607F59073A3F58A73D3
:103B10001C6802460B4640464946FCF703FC024639
:103B20000B46C4E9062303F0E9F8024607F5907353
:103B3000A3F588731A6100BF07F59077BD46BDE80D
:103B4000B08300BFAFF30080FCA9F1D24D62503FBB
:103B50007B14AE47E17A843F80B400AF384B1B6BD7
:103B6000374A43F002031363354B5B6C344A43F02E
:103B700010035364334B1B68324A23F440531360E1
:103B8000304B1B682F4A23F4404313602D4B1B68B6
:103B90002C4A43F4005313602A4B1B68294A43F410
:103BA00000431360274B5B68264A43F04003536091
:103BB000244B5B68234A43F080035360214B9B688E
:103BC000204A23F4405393601E4B9B681D4A23F404
:103BD000404393601B4B9B681A4A43F40053936025
:103BE000184B9B68174A43F400439360154BDB68FE
:103BF000144A23F44053D360124BDB68114A23F478
:103C00004043D3600F4B1B6A0E4A23F0606313627C
:103C10000C4B1B6A0B4A23F060431362094B1B6A6F
:103C2000084A43F0E0631362064B1B6A054A43F0FF
:103C3000E043136200BFBD465DF8047B704700BFE0
:103C4000003802400004024080B400AF1C4B9B8946
:103C50009BB21B4A43F400539BB29381184B42F230
:103C60002E221A81164B9B899BB2154A23F480534E
:103C70009BB29381124B9B899BB2114A23F48063C0
:103C80009BB293810E4B9B899BB20D4A43F020035C
:103C90009BB293810A4B9B899BB2094A43F008036C
:103CA0009BB29381064B9B899BB2054A43F0040368
:103CB0009BB2938100BFBD465DF8047B704700BF97
:103CC0000010014080B582B000AF0346FB71084B85
:103CD000FA7992B29A8000BF80210548FEF73DFC38
:103CE0000346002BF8D000BF00BF0837BD4680BD9B
:103CF0000010014080B500AFFFF72EFFFFF7A4FFD3
:103D000000BF80BD80B500AF00F004F800F026FAD7
:103D100000BF80BD80B500AF01226B21D02001F033
:103D200047F909221921D02001F042F906221A216F
:103D3000D02001F03DF918221B21D02001F038F9E4
:103D400018221C21D02001F033F902223721D02083
:103D500001F02EF900226A21D02001F029F900BFDC
:103D600080BD0000B0B586B000AF78604FF08343EF
:103D70007B6107F10C0206233B21D02001F0AEF855
:103D80003B7B1B029BB27A7B13449BB21BB218464F
:103D9000FCF714FC04460D467869FCF721FC02464A
:103DA0000B4620462946FCF773FC02460B4610469C
:103DB00019464FF000024C4BFCF794FD02460B46AF
:103DC0007968C1E90023BB7B1B029BB2FA7B1344D9
:103DD0009BB21BB21846FCF7F1FB04460D4678690E
:103DE000FCF7FEFB02460B4620462946FCF750FC3A
:103DF00002460B46104619464FF000023A4BFCF7BC
:103E000071FD02460B467968C1E902233B7C1B0227
:103E10009BB27A7C13449BB21BB21846FCF7CEFBD4
:103E200004460D467869FCF7DBFB02460B4620464C
:103E30002946FCF72DFC02460B46104619464FF06A
:103E40000002294BFCF74EFD02460B467968C1E99A
:103E50000423264B1B78002B42D07B68D3E900015A
:103E6000234BD3E90023FCF75BFA02460B461046CE
:103E70001946204BD3E90023FCF70AFC02460B4607
:103E80007968C1E900237B68D3E90201184BD3E9C3
:103E90000223FCF745FA02460B4610461946154B1D
:103EA000D3E90223FCF7F4FB02460B467968C1E92B
:103EB00002237B68D3E904010D4BD3E90423FCF70B
:103EC0002FFA02460B46104619460A4BD3E9042343
:103ED000FCF7DEFB02460B467968C1E9042300E0EB
:103EE00000BF1837BD46B0BD0000E0407805002097
:103EF0004805002060050020B0B586B000AF7860AE
:103F0000914B7B6107F10C0206234321D02000F086
:103F1000E5FF3B7B1B029BB27A7B13449BB21BB237
:103F20001846FCF74BFB04460D467869FCF758FB36
:103F300002460B4620462946FCF7AAFB02460B46E2
:103F4000104619464FF00002804BFCF7CBFC0246AE
:103F50000B467968C1E90023BB7B1B029BB2FA7B4D
:103F600013449BB21BB21846FCF728FB04460D46CF
:103F70007869FCF735FB02460B4620462946FCF7DC
:103F800087FB02460B46104619464FF000026F4B66
:103F9000FCF7A8FC02460B467968C1E902233B7C8A
:103FA0001B029BB27A7C13449BB21BB21846FCF7EF
:103FB00005FB04460D467869FCF712FB02460B46EA
:103FC00020462946FCF764FB02460B46104619467C
:103FD0004FF000025D4BFCF785FC02460B4679680A
:103FE000C1E904237B68D3E9000155A3D3E9002389
:103FF000FCF74EFB02460B467968C1E900237B685B
:10400000D3E902014EA3D3E90023FCF741FB0246AA
:104010000B467968C1E902237B68D3E9040148A310
:10402000D3E90023FCF734FB02460B467968C1E96B
:104030000423474B1B78002B7ED07B68D3E900011B
:10404000444BD3E90023FCF76BF902460B46796831
:10405000C1E900237B68D3E902013E4BD3E9022387
:10406000FCF75EF902460B467968C1E902237B68DA
:10407000D3E90401374BD3E90423FCF751F9024695
:104080000B467968C1E904237B68D3E90001324B10
:10409000D3E90023FCF78CFD0346002B11D07B688D
:1040A000D3E900012C4BD3E90623FCF763FD03465B
:1040B000002B06D079684FF000024FF00003C1E9F1
:1040C00000237B68D3E90201234BD3E90223FCF7E9
:1040D0006FFD0346002B11D07B68D3E902011E4B14
:1040E000D3E90823FCF746FD0346002B06D0796888
:1040F0004FF000024FF00003C1E902237B68D3E9CF
:104100000401154BD3E90423FCF752FD0346002BB1
:1041100013D07B68D3E904010F4BD3E90A23FCF7E2
:1041200029FD0346002B08D079684FF000024FF0BC
:104130000003C1E9042300E000BF1837BD46B0BD4D
:10414000399D52A246DF913F0000FA440000E04052
:1041500079050020800500209805002080B500AF7B
:10416000702200213C2000F061FF202201213C2030
:1041700000F05CFF002202213C2000F057FF00BF4E
:1041800080BD0000B0B586B000AF78604FF07E53C0
:104190007B61414B3B6107F10802062303213C2070
:1041A00000F09CFE3B7A1B029BB27A7A13449BB2CE
:1041B0001BB21846FCF702FA04460D467869FCF774
:1041C0000FFA02460B4620462946FCF761FA0246E2
:1041D0000B4614461D463869FCF702FA02460B46A8
:1041E00020462946FCF77EFB02460B467968C1E96A
:1041F0000023BB7A1B029BB2FA7A13449BB21BB218
:104200001846FCF7DBF904460D467869FCF7E8F937
:1042100002460B4620462946FCF73AFA02460B4670
:1042200014461D463869FCF7DBF902460B4620466A
:104230002946FCF757FB02460B467968C1E9022381
:104240003B7B1B029BB27A7B13449BB21BB218468A
:10425000FCF7B4F904460D467869FCF7C1F902464B
:104260000B4620462946FCF713FA02460B46144635
:104270001D463869FCF7B4F902460B46204629462C
:10428000FCF730FB02460B467968C1E9042300BF06
:104290001837BD46B0BD00BF0040884480B400AFB1
:1042A000174B1B6B164A43F001031363154B1B6836
:1042B000144A23F440631360124B1B68114A43F401
:1042C000806313600F4B5B680E4A23F0200353603A
:1042D0000C4B9B680B4A23F440639360094B9B682B
:1042E000084A43F480639360064BDB68054A23F475
:1042F0004063D36000BFBD465DF8047B704700BFDC
:104300000038024000000240B0B586B000AFB0EE09
:10431000405AF0EE605AB0EE416AF0EE616AB0EEDB
:10432000427AF0EE627A87ED005B87ED026B87EDF3
:10433000047BD7E90001D7E90023FCF7A9F902467D
:104340000B4614461D46D7E90201D7E90223FCF7C4
:104350009FF902460B4620462946FBF7E3FF02463B
:104360000B4614461D46D7E90401D7E90423FCF7A0
:104370008FF902460B4620462946FBF7D3FF02463B
:104380000B4643EC172BB0EE470AF0EE670A07F036
:10439000CBFDB0EE407AF0EE607AB0EE470AF0EE78
:1043A000670A1837BD46B0BDB0B588B000AFB0EEF3
:1043B000404AF0EE604AB0EE415AF0EE615AB0EE7B
:1043C000426AF0EE626AB0EE437AF0EE637A87ED0D
:1043D000004B87ED025B87ED046B87ED067BD7E929
:1043E0000001D7E90023FCF753F902460B461446B7
:1043F0001D46D7E90201D7E90223FCF749F9024635
:104400000B4620462946FBF78DFF02460B46144615
:104410001D46D7E90401D7E90423FCF739F9024620
:104420000B4620462946FBF77DFF02460B46144605
:104430001D46D7E90601D7E90623FCF729F902460C
:104440000B4620462946FBF76DFF02460B4643EC20
:10445000172BB0EE470AF0EE670A07F065FDB0EEE5
:10446000407AF0EE607AB0EE470AF0EE670A203745
:10447000BD46B0BD80B584B000AF78607B6893ED79
:10448000004B93ED025B93ED046B93ED067BB0EE76
:10449000440AF0EE640AB0EE451AF0EE651AB0EE8A
:1044A000462AF0EE662AB0EE473AF0EE673AFFF79A
:1044B0007BFF87ED020B7B68D3E90001D7E902237C
:1044C000FCF710FA02460B467968C1E900237B68C5
:1044D000D3E90201D7E90223FCF704FA02460B46AE
:1044E0007968C1E902237B68D3E90401D7E9022393
:1044F000FCF7F8F902460B467968C1E904237B68AA
:10450000D3E90601D7E90223FCF7ECF902460B4692
:104510007968C1E9062300BF1037BD4680BD0000A1
:10452000F0B583B000AF786039607B68D3E90001F3
:104530007B68D3E90223FCF7ABF802460B4614462E
:104540001D467B68D3E904017B68D3E90623FCF7A9
:104550009FF802460B4620462946FBF7E3FE02463B
:104560000B461046194602460B46FBF7DBFE024699
:104570000B4610461946FCF725FB06467B68D3E937
:1045800002017B68D3E90223FCF782F802460B465E
:1045900014461D467B68D3E904017B68D3E90423F4
:1045A000FCF776F802460B4620462946FBF7BAFE92
:1045B00002460B461046194602460B46FBF7B2FE72
:1045C00002460B464FF000005E49FBF7A9FE02468B
:1045D0000B4610461946FCF7F5FA034600EE903AF2
:1045E00000EE106A07F000FD10EE103A1846FBF7D7
:1045F000F7FF02460B463968C1E900237B68D3E91F
:1046000000017B68D3E90423FCF742F802460B461D
:1046100014461D467B68D3E906017B68D3E9022373
:10462000FCF736F802460B4620462946FBF778FE93
:1046300002460B461046194602460B46FBF772FE31
:1046400002460B4610461946FCF7BCFA034600EE3C
:10465000103A07F09DFC10EE103A1846FBF7C0FF29
:1046600002460B463968C1E902237B68D3E90001A1
:104670007B68D3E90623FCF70BF802460B46144689
:104680001D467B68D3E902017B68D3E90423FBF76D
:10469000FFFF02460B4620462946FBF743FE024633
:1046A0000B461046194602460B46FBF73BFE0246F8
:1046B0000B4610461946FCF785FA06467B68D3E997
:1046C00004017B68D3E90423FBF7E2FF02460B46B3
:1046D00014461D467B68D3E906017B68D3E90623AF
:1046E000FBF7D6FF02460B4620462946FBF71AFE8B
:1046F00002460B461046194602460B46FBF712FED1
:1047000002460B464FF000000E49FBF709FE024639
:104710000B4610461946FCF755FA034600EE903A50
:1047200000EE106A07F060FC10EE103A1846FBF736
:1047300057FF02460B463968C1E9042300BF0C3716
:10474000BD46F0BD0000F03FB0B586B000AFF860E8
:10475000B9607A60FB700023FB7535E00023BB7500
:104760002AE0FB7D97F8282003FB02F2BB7D13446F
:10477000DB00BA681344D3E90001FB7D97F82820D9
:1047800003FB02F2BB7D1344DB007A681344D3E9D8
:104790000023FC7D97F8285004FB05F5BC7D2C44D4
:1047A000E400FD682C44FBF7BDFD02460B46C4E95E
:1047B0000023BB7D0133BB75BA7D97F828309A4240
:1047C000CFD3FB7D0133FB75FA7DFB789A42C5D3CD
:1047D00000BF00BF1837BD46B0BD90B589B000AF6F
:1047E0007861396187ED020B11461A460B46FB7161
:1047F0001346BB710023FB7728E00023BB771EE044
:10480000FB7FBA7903FB02F2BB7F1344DB003A69FA
:104810001344D3E90001FB7FBA7903FB02F2BB7FAB
:104820001344DB007A69D418D7E90223FBF730FF81
:1048300002460B46C4E90023BB7F0133BB77BA7F36
:10484000BB799A42DCD3FB7F0133FB77FA7FFB799C
:104850009A42D2D300BF00BF2437BD4690BDF0B509
:1048600087B000AFF860B9607A60FB700023FB7519
:1048700066E00023BB755BE0FB7D97F8342003FB0B
:1048800002F2BB7D1344DB00FA68D1184FF000023E
:104890004FF00003C1E9002300237B7540E0FB7D5E
:1048A00097F8342003FB02F2BB7D1344DB00FA6867
:1048B0001344D3E90045FB7D97F8302003FB02F257
:1048C0007B7D1344DB00BA681344D3E900017B7D90
:1048D00097F8342003FB02F2BB7D1344DB007A68B7
:1048E0001344D3E90023FBF7D3FE02460B461046E0
:1048F0001946FB7D97F8342003FB02F2BB7D13447D
:10490000DB00FA68D61802460B4620462946FBF71C
:1049100009FD02460B46C6E900237B7D01337B750A
:104920007A7D97F830309A42B9D3BB7D0133BB759D
:10493000BA7D97F834309A429ED3FB7D0133FB75E4
:10494000FA7DFB789A4294D300BF00BF1C37BD4666
:10495000F0BD000080B58AB000AF01210420FDF752
:104960002FFC01210220FDF74BFC40233B62022378
:1049700087F82530022387F8243007F120031946F1
:104980001B48FDF78DFB1A4B1B6A194A43F0007355
:10499000136244F61F63BB615323BB820023BB83B6
:1049A0000023FB8207F1140319461248FDF748FC67
:1049B00060233B8001237B800023BB813B4619465B
:1049C0000C48FDF7C9FC08210A48FDF73FFD01210D
:1049D0000848FDF7A1FC074B1B889BB2054A43F032
:1049E00080039BB2138000BF2837BD4680BD00BF47
:1049F000000802400004004080B400AF2A4B1B684E
:104A0000294A23F440331360274B1B68264A23F4BA
:104A100040231360244B1B68234A43F40033136084
:104A2000214B1B68204A43F4002313601E4B5B6834
:104A30001D4A43F4807353601B4B5B681A4A43F46E
:104A400000735360184B4FF440329A60164B4FF48A
:104A500040229A60144BDB68134A23F44033D3603E
:104A6000114BDB68104A23F44023D3600E4BDB6804
:104A70000D4A43F48033D3600B4BDB680A4A43F49E
:104A80008023D360084B5B6A074A43F004035362F8
:104A9000054B5B6A044A43F04003536200BFBD46C6
:104AA0005DF8047B704700BF0004024080B400AF93
:104AB000314B9B889BB2304A23F03F039BB29380DB
:104AC0002D4B9B889BB22C4A43F004039BB29380EE
:104AD000294B1B8C9BB2284A23F03F039BB21384C3
:104AE000254B1B8C9BB2244A43F4805343F00103B3
:104AF0009BB21384204B1B889BB21F4A43F00103D7
:104B00009BB213801C4B1B889BB21B4A23F02003D3
:104B10009BB21380184B1B899BB2174A23F07F036B
:104B20009BB21381144B1B899BB2134A43F00103C0
:104B30009BB21381104B9B8B9BB20F4AC3F30E03A6
:104B40009BB293830C4B9B8B9BB20B4A23F47F63EA
:104B500023F00F039BB29383074B9B8B9BB2064AB8
:104B600043F42B5343F038039BB2938300BFBD46FD
:104B70005DF8047B704700BF0054004080B483B0F0
:104B800000AF0346FB71FB79012B08D10B4B1B884F
:104B90009BB20A4A43F480739BB2138007E0074B31
:104BA0001B889BB2054A23F480739BB2138000BF1D
:104BB0000C37BD465DF8047B704700BF00540040D1
:104BC00080B483B000AF0346FB71FB79012B08D1A1
:104BD0000B4B1B889BB20A4A43F400739BB21380B1
:104BE00007E0074B1B889BB2054A23F400739BB276
:104BF000138000BF0C37BD465DF8047B704700BFD3
:104C00000054004080B483B000AF0346FB71FB79D1
:104C1000012B08D10B4B1B889BB20A4A43F48063DB
:104C20009BB2138007E0074B1B889BB2054A23F415
:104C300080639BB2138000BF0C37BD465DF8047BD8
:104C4000704700BF0054004080B483B000AF0346FB
:104C5000FB71054BFA7992B21A8200BF0C37BD4640
:104C60005DF8047B704700BF0054004080B400AF83
:104C7000044B1B8A9BB2DBB21846BD465DF8047B31
:104C8000704700BF0054004080B483B000AF0346BB
:104C90000A46FB711346BB71BB79012B04D1FB792A
:104CA00043F00103FB7103E0FB7923F00103FB7187
:104CB000044BFA7992B21A8200BF0C37BD465DF8F8
:104CC000047B70470054004080B483B000AF094BB0
:104CD0001B8BFB80FB885B089BB203F00103002B5E
:104CE00001D0002300E0012318460C37BD465DF8D3
:104CF000047B70470054004080B400AF0F4B9B8A88
:104D00009BB203F00103012B11D10C4B1B8B9BB207
:104D100003F00103012B0AD1084B1B8B9BB25B08EC
:104D20009BB203F00103012B01D1012300E000231A
:104D30001846BD465DF8047B704700BF0054004034
:104D400080B483B000AF1F4B9B8AFB801D4B1B8B35
:104D5000BB80FB885B089BB203F00103002B2AD0C9
:104D6000FB88DB099BB203F00103002B23D0BB8837
:104D700003F00103002B1ED0BB885B089BB203F03D
:104D80000103002B17D0BB889B089BB203F00103E3
:104D9000002B10D0FB885B0A9BB203F00103002BB1
:104DA00007D0084B9B8A9BB2064A43F480639BB2B0
:104DB0009382012300E0002318460C37BD465DF8BE
:104DC000047B70470054004080B400AF194B9B8AAD
:104DD0009BB29B089BB203F00103012B23D1154B1F
:104DE0009B8A9BB2DB099BB203F00103012B1AD112
:104DF000104B1B8B9BB203F00103012B13D10D4B06
:104E00001B8B9BB25B089BB203F00103012B0AD101
:104E1000084B1B8B9BB29B089BB203F00103012B39
:104E200001D1012300E000231846BD465DF8047B54
:104E3000704700BF0054004080B400AF104B9B8A05
:104E40009BB25B089BB203F00103012B11D10C4B09
:104E50001B8B9BB203F00103012B0AD1084B1B8B68
:104E60009BB25B089BB203F00103012B01D101232C
:104E700000E000231846BD465DF8047B704700BF84
:104E80000054004080B400AF084B9B8A9BB29B0942
:104E90009BB203F00103012B01D1012300E00023A9
:104EA0001846BD465DF8047B704700BF00540040C3
:104EB00080B400AF084B9B8A9BB2DB099BB203F026
:104EC0000103012B01D1012300E000231846BD4658
:104ED0005DF8047B704700BF0054004090B585B07A
:104EE00000AF3A601A460346FB710B46BB7113468E
:104EF0007B7100BFFFF7E8FE0346002BFAD00120CC
:104F0000FFF73CFE00BFFFF7F7FE0346002BFAD089
:104F1000FB7900211846FFF7B7FE00BFFFF710FF2F
:104F20000346002BFAD0BB791846FFF78DFE00BF71
:104F3000FFF74AFF0346002BFAD00120FFF71EFEC1
:104F400000BFFFF7D9FE0346002BFAD0FB79012101
:104F50001846FFF799FE00BFFFF76EFF0346002BD0
:104F6000FAD00020FFF72CFE0120FFF74BFE0023B4
:104F7000FB730FE000BFFFF785FF0346002BFAD05D
:104F8000FB7B3A68D418FFF771FE03462370FB7B66
:104F90000133FB73FA7B7B799A42EBD30020FFF756
:104FA00031FE0120FFF70CFE00BF1437BD4690BD57
:104FB00080B582B000AF0346FB710B46BB71134650
:104FC0007B7100BFFFF780FE0346002BFAD0012063
:104FD000FFF7D4FD00BFFFF78FFE0346002BFAD08A
:104FE000FB7900211846FFF74FFE00BFFFF7A8FE30
:104FF0000346002BFAD0BB791846FFF725FE00BF09
:10500000FFF7E2FE0346002BFAD07B791846FFF744
:105010001BFE00BFFFF7D8FE0346002BFAD001208D
:10502000FFF7CEFD00BF0837BD4680BD80B582B01A
:1050300000AF0346FB710B46BB7113467B71012029
:10504000FFF7E0FD00BFFFF73FFE0346002BFAD05D
:105050000120FFF793FD00BFFFF74EFE0346002B34
:10506000FAD0FB7900211846FFF70EFE00BFFFF7CC
:1050700067FE0346002BFAD0BB791846FFF7E4FD24
:1050800000BFFFF715FF0346002BFAD07B791846C7
:10509000FFF7DAFD00BFFFF797FE0346002BFAD0BB
:1050A0000120FFF78DFD0020FFF7ACFD00BF0837A2
:1050B000BD4680BD80B500AF084B1B6B074A43F06F
:1050C00002031363054B1B6C044A43F4001313647F
:1050D000FFF792FCFFF7EAFC00BF80BD00380240FA
:1050E00080B582B000AF864B5B6C854A43F001030C
:1050F0005364844B0022DA62824B1B889BB2814A44
:1051000023F010039BB213807E4B1B8D9BB27D4A14
:1051100043F053039BB213857A4BDB6A794A43F41D
:105120009C4343F01F03D362764B9B8A9BB2754A24
:1051300043F002039BB29382724B1B889BB2714A6D
:1051400043F080039BB213806D4B1B6B6C4A43F0A2
:10515000010313636C4B5B6A6B4A43F001035362B8
:10516000694B1B68684A23F440331360664B1B6825
:10517000654A43F400331360634B5B68624A23F46F
:1051800080735360604B9B685F4A43F400339360C5
:105190005D4BDB685C4A23F44033D360594B1B8B77
:1051A0009BB2584A43F001039BB21383554B1B8BB0
:1051B0009BB2544A23F00C039BB21383514B1B8BBD
:1051C0009BB2504A23F0F0039BB213834D4B1B8CD0
:1051D0009BB24C4A43F001039BB21384494B1B8C96
:1051E0009BB2484A23F002039BB21384454B1B8CAD
:1051F0009BB2444A23F008039BB21384414B1B8BA0
:105200009BB2404A43F400739BB213833D4B1B8B0C
:105210009BB23C4A23F440639BB21383394B1B8BF4
:105220009BB2384AC3F30B039BB21383354B1B8CE1
:105230009BB2344A43F010039BB21384314B1B8C56
:105240009BB2304A43F020039BB213842D4B1B8C3E
:105250009BB22C4A43F080039BB21384294B1B89D9
:105260009BB2284A23F00A039BB21381254B1B896A
:105270009BB2244A43F004039BB21381214B1B8948
:105280009BB2204A23F070039BB213811D4B1B89F4
:105290009BB21C4A43F050039BB21381194B1B89EC
:1052A0009BB2184A43F080039BB213810122022172
:1052B0001448FDF7F3F84FF4A060FCF77BFE1B23C6
:1052C0003B710123FB7102237B710123BB713B1DE9
:1052D0001846FCF783FE0B4B9B899BB2094A43F0AF
:1052E00002039BB29381074B1B889BB2054A43F094
:1052F00001039BB2138000BF0837BD4680BD00BFCD
:1053000000380240000001400000024080B400AFBD
:105310000A4BDB684FF47A7202FB03F3A3F57423A4
:10532000A3F5C563064AA2FB03239B0903F57A7321
:105330001846BD465DF8047B704700BF840A002014
:10534000D34D621080B582B000AF02211D48FDF739
:10535000C9F80346012B2BD11A48FDF793F80346F1
:1053600001337B607B68B3F5805F02D9164B012265
:105370001A60154B1B68012B16D11248FDF782F8F5
:105380000146124B1B685A1C104802604A1C104907
:1053900041F823200D4B1B68082B05D90B4B00222D
:1053A0001A60094B00221A6002210648FDF7C4F872
:1053B000FFF7ACFF0346074A136000BF0837BD463E
:1053C00080BD00BF00000140B00A0020AC0A0020F0
:1053D000840A0020800A002080B582B000AF786087
:1053E000FEF788FC164801F07BFE164B1B88013344
:1053F0009AB2144B1A80FFF75DFE134801F070FE5D
:10540000104B1B8801339AB20E4B1A80FEF77AFCC0
:105410000E4801F065FE0B4B1B8801339AB2094B15
:105420001A80FFF75DFEFFF795FA094801F058FE74
:10543000FF2001F0D1F900BF0837BD4680BD00BF95
:1054400018C70008B482002034C7000848C7000805
:105450005CC70008B0B598B004AF786007F10803E6
:105460001846FEF78FFED7E90245D7E90423D7E9AE
:105470000601CDE90201CDE9002322462B4604486E
:1054800001F0CEFD642001F0DDFB00BFE6E700BFC8
:1054900074C7000800000000B0B59AB004AF78608F
:1054A0004FF00002204BC7E90E234FF000024FF0EF
:1054B0000003C7E910234FF000024FF00003C7E9D3
:1054C00012234FF000024FF00003C7E9142307F145
:1054D00020031846FEF756FE07F1200207F13803B5
:1054E0009FED0F0B11461846FEF7F2F907F108027F
:1054F00007F1380311461846FFF712F8D7E90245BD
:10550000D7E90423D7E90601CDE90201CDE900235B
:1055100022462B46054801F083FD00BFDCE700BFB3
:10552000FCA9F1D24D62503F0000F03FD0C7000807
:1055300080B588B006AF7860284800F08BF8FEF799
:10554000ADFE00230493002303934FF40063029302
:10555000234B0193082300930823224A0021224869
:1055600001F0D4F8214A2249082001F01BFA40F644
:10557000B83001F067FB00230493002303934FF43A
:10558000C06302931B4B01930923009309231A4A1A
:1055900000211A4801F0BAF8194A1A49092001F005
:1055A00001FA00230493002303934FF40063029352
:1055B000154B01930C2300930C23144A002114482B
:1055C00001F0A4F8134A14490C2001F0EBF9FF2074
:1055D00001F002F900BF0837BD4680BD40D10C0084
:1055E000B42A0020B04A0020D953000818C8000887
:1055F0002CC80008B44A0020B062002055540008AE
:105600003CC8000848C80008B4620020B0820020EE
:105610009954000850C8000860C8000880B500AF61
:1056200000F052F90223074A0021074801F00EF862
:10563000064A0749022001F0B5F900F0CDF9002330
:10564000184680BDB02A0020315500086CC80008FB
:105650007CC8000880B483B000AF7860124B5A68F1
:105660007B68013B104913434B600F4B5A680E4B4C
:105670009B680D4913438B600B4B1B680A4A43F030
:1056800004031360084B1B68074A43F002031360CE
:10569000054B1B68044A43F00103136000BF0C373D
:1056A000BD465DF8047B704710E000E080B483B035
:1056B00000AF124B3B604FF480737B6007E07B6868
:1056C000013B7B603B681A1D3A6000221A607B68D0
:1056D000002BF4D10A4B0B4A1A60094B1B6823F0CC
:1056E00007031A46064B1A60074B40221A6000BF98
:1056F0000C37BD465DF8047B704700BFB8820020C0
:10570000B8860020B8860020BC86002080B400AF98
:1057100000BFBD465DF8047B704780B483B000AF26
:10572000786000BF0C37BD465DF8047B704780B4DD
:1057300083B000AF786000BF0C37BD465DF8047BD6
:10574000704780B400AF00BFBD465DF8047B704772
:1057500080B483B000AF786000BF0C37BD465DF801
:10576000047B704780B400AF00BFBD465DF8047B8A
:105770007047000080B487B000AFF860B9607A600D
:105780007B807B6804337B617B6923F007037B614B
:105790007B69043B7B617B694FF080721A607B6997
:1057A000043B7B61FA687B691A607B69043B7B611F
:1057B000354A7B691A607B69043B7B617B694FF0EA
:1057C00012321A607B69043B7B617B694FF00332C4
:1057D0001A607B69043B7B617B694FF002321A607F
:1057E0007B69043B7B617B694FF001321A607B6906
:1057F000043B7B61BA687B691A607B69043B7B610F
:105800007B696FF002021A607B69043B7B617B69F4
:105810004FF011321A607B69043B7B617B694FF06A
:1058200010321A607B69043B7B617B694FF009325F
:105830001A607B69043B7B617B694FF008321A6018
:105840007B69043B7B617B694FF007321A607B699F
:10585000043B7B617B694FF006321A607B69043B35
:105860007B617B694FF005321A607B69043B7B6189
:105870007B694FF004321A607B6918461C37BD46BD
:105880005DF8047B704700BFE16B000880B483B013
:1058900000AF786000BF0C37BD465DF8047B7047F1
:1058A00080B582B000AF4020FAF799FC786000F034
:1058B00027F87868FAF7A1FC00F0B6F800F03AF89B
:1058C00000BF0837BD4680BD80B500AFFFF7EEFED4
:1058D00000F0CEF900F00AFA00F086FA00F07EF946
:1058E00000F0C6FD00F036FE00F074FE00F030FA65
:1058F00000F054FAFFF70AFF00F0F8FC00BF80BD8B
:1059000080B400AF094B1B78012B09D1084B1B78E1
:10591000FF2B05D0064B1B780133DAB2044B1A700B
:1059200000BFBD465DF8047B704700BF2C8A002095
:105930001C8A002080B582B000AF00237B601E4B24
:105940001B78012B34D14020FAF749FC78601B4BBF
:105950001B78002B05D0194B1B78013BDAB2174B93
:105960001A70164B1B78002B1FD1154B1B78002B80
:105970001BD100F0E3FA134B1B781A46124B53F875
:105980002230124A13600F4B1A78114B1B789A423F
:105990000BD00E4B1B689A6B01329A630D4B1B6840
:1059A00001330C4A1360FAF76FFC7868FAF725FCAC
:1059B00000BF0837BD4680BD2C8A00201C8A00200D
:1059C0001D8A00201F8A0020448C00203C8C00206F
:1059D0001E8A0020C086002080B500AF0C4B1B78CB
:1059E000002B13D100F0AAFA0A4B1A780A4B1A704E
:1059F000084B1B781A46094B53F82230084A1360AB
:105A0000074B1B68074A1360FAF700FC00BF80BD14
:105A10002C8A00201F8A00201E8A0020448C00202F
:105A20003C8C0020348C002080B584B000AF002373
:105A30007B604020FAF7D3FB7860454B1B6801334D
:105A4000434A13607868FAF7D8FB424B1B78012B66
:105A50007AD1414B1B78022B0CD0022B10DC002B8F
:105A600002D0012B03D00BE00123FB720EE00023D8
:105A7000FB720BE00123FB72374B01221A7005E029
:105A80000123FB72344B00221A7000BFFB7A002BFB
:105A900059D0324B1B68FB604FE04020FAF79FFB68
:105AA0007860FB68DB6A002B41D0FB68DB6A5A1E1A
:105AB000FB68DA62FB68DB6A002B38D1FB6893F87D
:105AC000303003F03703002B0DD0FB6893F83030F3
:105AD00023F03703DAB2FB6883F83020FB68012239
:105AE00083F8312003E0FB68002283F83120FB6853
:105AF00093F8303003F00803002B18D1FB6893F8BB
