:020000040800F2
:1000000000800120F1190008411A0008411A000877
:10001000411A0008411A0008411A000800000000B7
:10002000000000000000000000000000411A00086D
:10003000411A00080000000067020008A70F00082E
:10004000411A0008411A0008411A0008411A000824
:10005000411A0008411A0008411A0008411A000814
:10006000411A0008411A0008411A0008411A000804
:10007000411A0008411A0008411A0008411A0008F4
:10008000411A0008411A0008411A00080000000047
:10009000000000000000000000000000411A0008FD
:1000A000411A0008411A0008411A00081D0D0008F5
:1000B000411A0008411A0008411A0008411A0008B4
:1000C000411A0008411A0008411A0008411A0008A4
:1000D000411A0008411A0008411A000800000000F7
:1000E000411A0008411A0008411A000800000000E7
:1000F000000000000000000000000000411A00089D
:1001000000000000411A0008411A0008411A0008C6
:1001100000000000000000000000000000000000DF
:10012000411A0008411A0008411A0008411A000843
:10013000411A00080000000000000000000000005C
:10014000000000000000000000000000411A00084C
:10015000411A0008411A0008411A0008411A000813
:10016000411A0008411A00080000000000000000C9
:10017000000000000000000000000000000000007F
:1001800000000000411A000800000000000000000C
:04019000411A000808
:10019400EFF3098121B120ED108A4F490A681060FC
:1001A4007047B0EC108A4D490A681060704772B607
:1001B40002B4EFF3118180F31188BFF34F8FBFF3C3
:1001C4006F8F084602BC62B6704772B680F311881E
:1001D400BFF34F8FBFF36F8F62B6704772B64EF6A0
:1001E4002250CEF2000040F2FF01C0F20001017083
:1001F400002080F3098846F26000C2F20000016822
:1002040081F3088836480121017046F65670C2F21F
:10021400000046F65571C2F200010A78027046F6F3
:100224004050C2F2000046F63851C2F200010A689A
:100234000260106880F30988EFF3148040F0020034
:1002440080F31488BFF36F8FBDE8F04F0FBCBDE897
:10025400005006BC62B6084722484FF08051016046
:10026400704772B646F25C02C2F20002116881F372
:100274001188BFF34F8FBFF36F8F62B6EFF309801E
:1002840020E9F04F46F64055C2F20005296808609F
:10029400744646F65670C2F2000046F65571C2F234
:1002A40000010A78027046F63851C2F200010A6869
:1002B4002A6044F0040E1068B0E8F04F80F3098817
:1002C4004FF0000272B682F31188BFF34F8FBFF371
:1002D4006F8F62B670470000406D0020386D0020BB
:1002E400496F002004ED00E010B5054C237833B9C4
:1002F400044B13B10448AFF300800123237010BDF5
:100304000000002000000000541B000808B5034B47
:100314001BB103490348AFF3008008BD000000008F
:1003240004000020541B000870B50D4D0D4C641BD7
:10033400A4100026A64209D10B4D0C4C01F008FC78
:10034400641BA4100026A64205D170BD55F8043BD9
:1003540098470136EEE755F8043B98470136F2E733
:10036400E01C0008E01C0008E01C0008E41C000875
:1003740040F0BF6040F40030014BD860704700BFCC
:1003840000ED00E0C378FBB1154BDA68D243C2F349
:100394000222C2F10401C9B20F23134142788A40F8
:1003A400D2B281780B4013431B01DBB202780D49B2
:1003B4000A4482F80033037803F01F005B0901222A
:1003C400824041F823207047037803F01F015B0942
:1003D40001228A402033034941F82320704700BF9B
:1003E40000ED00E000E100E000220F2A4DD810B536
:1003F40014E0C36894B264004FF0030E0EFA04FED6
:1004040023EA0E03C360C36891F807E00EFA0CFCFC
:1004140043EA0C03C36001320F2A35D80123934009
:100424000C68A343F7D104684FEA420C032303FA90
:100434000CF36FEA030E24EA0303036003680C79E8
:1004440004FA0CF4234303600B79013BDBB2012B68
:10045400CFD883680EEA0303836083684C7904FA77
:100464000CF42343836043681FFA82FE012404FAD8
:100474000EF423EA0403436044688B7903FA0EF311
:100484009BB223434360B4E710BD704721B1054AD2
:10049400136B034313637047024A136B23EA00038D
:1004A400136370470038024021B1054A136C0343BB
:1004B40013647047024A136C23EA00031364704701
:1004C4000038024003889BB21B4A904212D002F5C6
:1004D400806290420ED0B0F1804F0BD0A2F58032F2
:1004E400904207D002F58062904203D002F5806208
:1004F400904203D123F070034A8813430F4A904279
:1005040008D002F58062904204D023F440739BB279
:100514000A89134303804B68C3620B880385064B27
:10052400984203D003F58063984201D18B7A038605
:1005340001238382704700BF000001400010004087
:1005440029B103889BB243F00103038070470388F9
:100554009BB223F001039BB20380704710B5038C58
:100564009BB223F001039BB20384B0F820C01FFAAE
:100574008CFCB0F804E01FFA8EFE028B92B222F0DB
:1005840073020B881A432CF0020C8B894CEA030C7F
:100594004B8843EA0C030F4CA04203D004F580645B
:1005A400A0420FD123F00803CC89234323F0040392
:1005B4008C8823432EF4407E0C8A4EEA040E4C8A27
:1005C40044EA0E0EA0F804E002838A6842630384BE
:1005D40010BD00BF00000140038B9BB223F0080351
:1005E4000B4303837047406B704722B183899BB2EE
:1005F4000B43838170478389C94389B21940818140
:100604007047028A83890B40114202D01BB9002033
:1006140070470020704701207047C94389B20182A6
:1006240070470388194201D00120704700207047A9
:10063400254B1A6B42F002021A635A6C42F0100204
:100644005A64A3F550531A6822F440521A601A6887
:1006540022F440421A601A6842F400521A601A687E
:1006640042F400421A605A6842F040025A605A68E2
:1006740042F080025A609A6822F440529A609A6862
:1006840022F440429A609A6842F400529A609A684E
:1006940042F400429A60DA6822F44052DA60DA687E
:1006A40022F44042DA601A6A22F060621A621A6A1C
:1006B40022F060421A621A6A42F0E0621A621A6A0E
:1006C40042F0E0421A62704700380240124B9A89A5
:1006D40092B242F400529A8142F22E221A819A89ED
:1006E40092B222F4805292B29A819A8992B222F4FE
:1006F400806292B29A819A8992B242F020029A81DF
:100704009A8992B242F008029A819A8992B242F08E
:1007140004029A81704700BF0010014008B5044BE1
:10072400988080210248FFF77CFF0028F9D008BD9B
:100734000010014038B50546002403E0FFF7EEFF42
:100744000134E4B2285D0028F8D138BD08B5FFF7BC
:100754006FFFFFF7BBFF08BD08B501226B21D02056
:1007640000F0C2F909221921D02000F0BDF90622B7
:100774001A21D02000F0B8F918221B21D02000F053
:10078400B3F918221C21D02000F0AEF908BD0000F6
:100794000F4A136B43F0010313630E4B1A6822F4E0
:1007A40040621A601A6842F480621A605A6822F041
:1007B40020025A609A6822F440629A609A6842F46D
:1007C40080629A60DA6822F44062DA60704700BF9F
:1007D4000038024000000240024A536943F02003FB
:1007E4005361704700000240024B5A6900225A616B
:1007F400704700BF0000024070B58AB00121042098
:10080400FFF744FE01210220FFF74EFE4023089328
:1008140002238DF825308DF824301A4C08A920467F
:10082400FFF7E2FD236A43F00073236244F61F637B
:1008340006935323ADF814300025ADF81C50ADF8E1
:100844001650A4F5013405A92046FFF73BFE6023AA
:10085400ADF800300126ADF80260ADF80C506946E1
:100864002046FFF77BFE08212046FFF7B5FE314600
:100874002046FFF765FE23889BB243F08003238064
:100884000AB070BD000802401B4B1A6822F44032C3
:100894001A601A6822F440221A601A6842F400327C
:1008A4001A601A6842F400221A605A6842F480728C
:1008B4005A605A6842F400725A604FF440329A60A7
:1008C4004FF440229A60DA6822F44032DA60DA683F
:1008D40022F44022DA60DA6842F48032DA60DA68BC
:1008E40042F48022DA605A6A42F004025A625A6A76
:1008F40042F040025A627047000402401F4B9A883B
:1009040092B222F03F0292B29A809A8892B242F056
:1009140004029A801A8C92B222F03F0292B21A8494
:100924001A8C92B242F4805242F001021A841A885C
:1009340092B242F001021A801A8892B222F0200286
:1009440092B21A801A8992B222F07F0292B21A816C
:100954001A8992B242F001021A819A8BC2F30E02F2
:100964009A839A8B02F470429A839A8B92B242F4DD
:100974002B5242F038029A83704700BF0054004063
:10098400012807D0074A13889BB223F480739BB2D3
:1009940013807047034A13889BB243F48073138017
:1009A400704700BF00540040012807D0074A13884D
:1009B4009BB223F400739BB213807047034A1388DD
:1009C4009BB243F400731380704700BF005400408F
:1009D400014B1882704700BF00540040012904D025
:1009E40000F0FE00024B1882704740F00100F9E766
:1009F40000540040044B1B8B13F0020F01D1012063
:100A040070470020704700BF005400400B4B9B8A86
:100A140013F0010F0BD0094B1B8B13F0010F08D0FF
:100A2400064B1B8B13F0020F05D1002070470020EA
:100A34007047002070470120704700BF00540040F9
:100A4400144B9A8A91B21B8B9BB212F0020F18D0EE
:100A540011F0800F17D013F0010F16D013F0020F0E
:100A640015D013F0040F01D10020704711F4007F5A
:100A740005D0084A938A9BB243F480639382012091
:100A84007047002070470020704700207047002006
:100A9400704700BF00540040124B9B8A13F0040FB0
:100AA40015D0104B9B8A13F0800F12D00D4B1B8B6B
:100AB40013F0010F0FD00B4B1B8B13F0020F0CD054
:100AC400084B1B8B13F0040F09D100207047002042
:100AD40070470020704700207047002070470120B5
:100AE400704700BF0054004070B506460D461446DA
:100AF400FFF780FF0028FBD00120FFF741FFFFF73D
:100B040085FF0028FBD000213046FFF767FFFFF781
:100B140097FF0028FBD02846FFF75AFFFFF7BCFFDA
:100B24000028FBD02046FFF753FFFFF7B5FF00284E
:100B3400FBD00120FFF738FF70BD000008B5074B5C
:100B44001A6B42F002021A631A6C42F400121A641D
:100B5400FFF79AFEFFF7D2FE08BD00BF003802403F
:100B640010B582B05E4A536C43F0010353645D4C8C
:100B74000023E36223889BB223F010039BB22380FB
:100B8400238D9BB243F053032385E36A43F49C43D0
:100B940043F01F03E362A38A9BB243F00203A382E0
:100BA40023889BB243F080032380136B43F001033B
:100BB40013634D4B5A6A42F001025A621A6822F4D6
:100BC40040321A601A6842F400321A605A6822F4F9
:100BD40080725A609A6842F400329A60DA6822F4A9
:100BE4004032DA60238B9BB243F001032383238BCF
:100BF4009BB223F00C039BB22383238B9BB223F081
:100C0400F0039BB22383238C9BB243F00103238420
:100C1400238C9BB223F002039BB22384238C9BB2CC
:100C240023F008039BB22384238B9BB243F4007309
:100C34002383238B9BB223F440639BB22383238BB4
:100C4400C3F30B032383238C9BB243F0100323844D
:100C5400238C9BB243F020032384238C9BB243F068
:100C64008003238423899BB223F00A039BB223814C
:100C740023899BB243F00403238123899BB223F08D
:100C840070039BB2238123899BB243F050032381D9
:100C940023899BB243F08003238101220221204651
:100CA400FFF7A3FC4FF4A060FFF762FB1B238DF852
:100CB400043001238DF8073002228DF805208DF8C9
:100CC400063001A8FFF75EFBA3899BB243F0020341
:100CD400A38123889BB243F00103238002B010BD9B
:100CE400003802400000014000000240084BD86870
:100CF4004FF47A7303FB00F0A0F57420A0F5C560EF
:100D0400044BA3FB0030800900F57A70704700BFE4
:100D140024000020D34D621008B502211748FFF7C4
:100D240070FC012804D0FFF7E1FF154B186008BDE3
:100D34001248FFF758FC0130B0F5805F02D9114B1F
:100D440001221A600F4B1B68012B04D002210B48AF
:100D5400FFF763FCE7E70948FFF745FC0A490A681F
:100D6400531C0B600130094941F82200082BEDD9CE
:100D74000023054A1360034A1360E7E700000140BB
:100D84004C0000201C000020200000202400002033
:100D940008B5FFF721FD044A1368013313604FF4CB
:100DA4007A7000F0EDFDF4E75800002008B5FFF775
:100DB4001BFD044A1368013313604FF4FA6000F01A
:100DC400DFFDF4E75400002010B51C4800F066F87D
:100DD400FFF7DEFCFFF7B2FE194C238801332380B2
:100DE400FFF7BAFC23885A1C228002332380FFF7C2
:100DF400ADFCFFF7B5FEFFF7FFFC4FF47A7000F08F
:100E0400BFFD1048FFF796FC06230F4A00210F4848
:100E140000F02AFC0E4A0F49062000F011FD0723BA
:100E24000D4A00210D4800F01FFC0D4A0D49072012
:100E340000F006FDFF2000F05FFC10BD40D10C0067
:100E4400500000206C1B000858400020950D00083D
:100E5400881B0008941B000858200020B10D0008CE
:100E64009C1B0008A81B000808B500F08FFA022399
:100E7400064A0021064800F0F7FB064A064902200C
:100E840000F0DEFC00F07CF9002008BD5860002072
:100E9400CD0D0008B01B0008C01B00084FF0E02374
:100EA4005A69013802435A6159699A690A439A6135
:100EB4001A6942F004021A611A6942F002021A61C4
:100EC4001A6942F001021A6170470000094B4FF49D
:100ED400807203E0013A002143F8041B002AF9D18F
:100EE400054A064B136023F007031360044B4022AA
:100EF4001A60704764600020606000206464002011
:100F04005C6000207047704770477047704700006E
:100F1400131D23F007034FF0807243F8042C43F8A9
:100F2400080C1E4A43F80C2C4FF0123243F8102CD4
:100F34004FF0033243F8142C4FF0023243F8182CCC
:100F44004FF0013243F81C2C43F8201C6FF00202CE
:100F540043F8242C4FF0113243F8282C4FF0103270
:100F640043F82C2C4FF0093243F8302C4FF0083260
:100F740043F8342C4FF0073243F8382C4FF0063244
:100F840043F83C2C4FF0053243F8402C4FF0043228
:100F940043F8442CA3F14400704700BFA51800088F
:100FA400704710B54020FFF702F9044600F094F8AA
:100FB4002046FFF70AF900F005F900F09FF810BD8C
:100FC4000023084A1360084A1370084A1370084A39
:100FD4001370084A1370084A1360084A1360084AD9
:100FE4001370704764640020586F0020576F00200E
:100FF400486F0020496F0020A4700020446F002037
:101004006864002000230A4A137004E0094A00219E
:10101400D1540133DBB2072BF8D90023064A1370ED
:10102400064A1370064A1360064A1360704700BFED
:10103400546F00204C6F0020566F0020556F002025
:10104400386D0020406D0020064B1B78064AD15CA9
:10105400CB00DBB20548415C525C1344044A137074
:10106400704700BF546F0020E01B00084C6F002045
:10107400556F002000B589B00C4A03230493002166
:10108400039180230293A2F5FE7301934FF6FF733D
:1010940000933F23064800F01DFC0DF11F02054993
:1010A4003F2000F0CDFB09B05DF804FB406F002049
:1010B400BD100008CC1B000808B54020FFF777F8E6
:1010C400044A136801331360FFF77FF8FFF71DFF2D
:1010D400F3E700BF446F0020064B1B78012B00D0C0
:1010E4007047054B1B78FF2BFAD00133024A13706B
:1010F400F6E700BF496F0020586F0020184B1B789B
:10110400012B00D0704710B54020FFF750F804467B
:10111400144B1B7813B1013B124A1370114B1B780B
:1011240013B9114B1B781BB12046FFF74EF810BDC5
:10113400FFF78AFF0D4B1B780D4A52F823200D4907
:101144000A600D4909788B42EED0936B01339363A7
:101154000A4A136801331360FFF77EF8E4E700BF1F
:10116400496F0020586F0020576F0020556F0020F2
:10117400346C0020386D0020566F0020A4700020CD
:1011840008B50A4B1B7803B108BDFFF75DFF084B98
:101194001B78084A1370084A52F82330074A136030
:1011A400074A1360FFF71AF8EEE700BF496F002003
:1011B400556F0020566F0020346C0020386D0020DD
:1011C400406D002010B54020FEF7F1FF284A136857
:1011D40001331360FEF7F9FF264B1B78012B00D077
:1011E40010BD254B1B78012BFAD0022B04D033B150
:1011F400214B00221A7002E01F4B01221A701F4B70
:101204001C6806E0002384F831301CE06469FEF7B2
:10121400DCFF94F832303F2BE2D04020FEF7C7FFCA
:10122400E36A002BF2D0013BE362002BEED194F889
:10123400303013F0370FE5D023F0370384F8303023
:10124400012384F8313094F8303013F0080FDDD1E5
:1012540094F836300A4A11780B43137094F834200A
:1012640008498B5C94F835C043EA0C038B54CDE7F2
:1012740064640020496F00204C650020346D002018
:10128400546F00204C6F0020704790F834200A44BB
:10129400D37A90F835C023EA0C03D3722BB98B7A36
:1012A40090F8362023EA02038B720023C36170474F
:1012B40004E0002300F8013B013989B20029F8D188
:1012C4007047000010B540F2E4611248FFF7F0FFE8
:1012D4004FF480711048FFF7EBFF00210BE04A1C2C
:1012E400D2B254200B4B00FB023400FB01335C618F
:1012F4000A49D96411461329F1D9064B542202FB39
:10130400013100224A610548C86405490A60054A5A
:10131400136010BD50650020346C0020DC1B0008F5
:10132400346D00203C6D002010B5F0211448FFF707
:10133400BFFF002315E0591C89B201EB4102D00024
:101344000F4A104403EB430E4FEACE0C02EB0C0E93
:10135400002402F80C40CEF804000A4BCEF81430F6
:101364000B46082BE7D9064A03EB4300C100541887
:10137400002050546060034B6361034B1A6010BD3E
:10138400B06F0020DC1B0008A070002008B5FFF738
:101394009DFDFFF715FEFFF735FEFFF793FFFFF7FF
:1013A400C3FF00F0CDF800F009F900F03BF9FFF7B6
:1013B40061FEFFF7A7FD00F0C1F808BD10B540209D
:1013C400FEF7F5FE0446104B1B7813B90F4B1B7840
:1013D4001BB12046FEF7F9FE10BDFFF735FE0C4B9E
:1013E4001B780C4A52F823200B490A600B490978F0
:1013F4008B42EED0936B01339363094A1368013334
:101404001360FEF729FFE4E7586F0020576F0020B0
:10141400556F0020346C0020386D0020566F00207A
:10142400A47000202DE9F0410546884617461E4663
:101434004020FEF7BCFE3A4B1C68002C6BD062695E
:101444001A60FEF7C2FEC4F8008084F8325000210E
:1014540084F8301084F83110E162079B6360069BC6
:10146400E360A760BDF820302382668284F83710D9
:10147400EA0884F8342005F0070084F833000123D7
:1014840003FA02F284F83620834084F83530E161AF
:1014940061622162A1632164E1636164A164214BFF
:1014A400E36481B32046FFF77BFD4020FEF77FFE17
:1014B4001D4B43F82540FEF788FE2046FFF723FD29
:1014C4004020FEF774FE194B1B6863610022A26181
:1014D40003B19C61154B1C6094F83630144A1178A2
:1014E4000B43137094F8342012498B5C94F8354004
:1014F40023438B54104A137801331370FEF765FEAF
:101504000020BDE8F08101F11403002244F82320F7
:101514000131C9B2C5E7FEF758FE4220F1E700BF2A
:101524003C6D0020DC1B0008346C0020346D00206E
:10153400546F00204C6F0020486F0020704700005B
:1015440008B550211148FFF7B3FE002310E05A1CE0
:1015540092B20E4901EB02104FEA031C01EB031394
:101564004FF0000E01F80CE058600949D9601346A9
:10157400032BECD9054A180102EB03130021115483
:1015840059600349D960034B1A6008BD606F00209D
:10159400DC1B00085C6F00204268036832B11360F2
:1015A40003B15A60836800225A627047C26853606C
:1015B400002BF7D000225A60F4E7000008B5782128
:1015C4001548FFF775FE002313E003F1010C0CEB43
:1015D4004C02D100104A881803EB430E4FEACE01A7
:1015E400114448607346D9000A440C4B53611FFAF6
:1015F4008CF3032BE9D9084903EB4300C2000A44E6
:101604000020506003EB4303DA000A44034B5361A8
:10161400034B196008BD00BFD0640020DC1B000828
:101624004865002010B560210D48FFF741FE0023F6
:101634000BE05A1C92B202EB4200C100084C214458
:1016440003EB4303D80021501346022BF1D9044A7B
:1016540003EB4303D90000235350024B1A6010BD1F
:101664006C640020CC640020F0B585B005460E46BD
:1016740017461C464020FEF79AFD1C4B1B784BB9BD
:101684001B4B53F824304BB1FEF79FFD2825284609
:1016940005B0F0BDFEF799FD3C25F8E7144B012297
:1016A40043F82420FEF791FD00233A4631462846AC
:1016B400FFF72EFC0146002202920192009213468B
:1016C4002046FFF7AFFE054630B90A4B1B78012BC5
:1016D400DDD1FFF773FEDAE74020FEF768FD044B27
:1016E400002243F82420FEF770FDD0E7586F002055
:1016F400346C0020496F0020F8B5464B1D78002D4E
:1017040040F0838004463F2800F081804020FEF7AB
:101714004EFD0646FF2C60D027463F4B53F824402D
:10172400002C5FD0012C62D094F834103B4B5A5CEF
:1017340094F8350022EA00025A5494F834209B5C51
:1017440033B994F83610364A137823EA0103137038
:10175400E16911B12046FFF798FD606A08B1FFF70F
:101764001BFF0023E36284F8303084F831302D4BC2
:101774001B78FF2B02D001332A4A13703046FEF740
:1017840024FDFFF781FD4020FEF711FD0646254BA1
:101794001B7813B1013B234A13702046FFF7B4FBB7
:1017A400214A1378013B13701B4B002243F8272076
:1017B400A3690BB362695A61A36993611B4B1A68ED
:1017C40062611C601A4BE3643046FEF7FEFC194B61
:1017D4001B78012B16D02846F8BD174B1B6893F8CD
:1017E400324099E73046FEF7F0FC4325F3E73046F4
:1017F400FEF7EBFC3D25EEE763699A6162690F4BE6
:101804001A60DBE7FFF7DAFDE5E74025E3E73E256D
:10181400E1E700BF586F0020346C00204C6F0020BB
:10182400546F0020576F0020486F00203C6D00204B
:10183400DC1B0008496F0020406D0020346D00203F
:1018440070B51546134B1B7813B11223137070BD7A
:1018540004460E464020FEF7AAFCFF2C0BD00E4B8C
:1018640053F8243063B1012B0FD0DE64FEF7ADFCD6
:1018740000232B70EBE7094B1B6893F83240EEE72B
:10188400FEF7A3FC43232B70E1E7FEF79EFC432302
:101894002B70DCE7586F0020346C0020406D002072
:1018A40008B5044B1868FFF731FBFF20FFF724FF4E
:1018B40008BD00BF406D002012F0010F09D012F0E6
:1018C400020F04D170470139002340F8043B00297A
:1018D400F9D170472DE9F04184B005460E4617460C
:1018E4001C46BDF838804020FEF761FC214B1B7874
:1018F40053B9214B53F8243053B1FEF766FC282525
:10190400284604B0BDE8F081FEF75FFC3C25F7E70C
:10191400194B012243F82420FEF757FC42460C9948
:101924000B98FFF7C9FF43463A4631462846FFF76E
:10193400EFFA0146CDF808800D9B01930C9B0093B0
:10194400BDF828300B9A2046FFF76CFD054630B9E8
:101954000A4B1B78012BD3D1FFF730FDD0E7402091
:10196400FEF725FC044B002243F82420FEF72DFC4F
:10197400C6E700BF586F0020346C0020496F002078
:1019840038B5144BA3FB0023DC08134B1B7823B995
:10199400124B1B780BB9092800D838BD4020FEF73C
:1019A40006FC0F4B1A6892F834100E4D6B5C92F8DB
:1019B40035C023EA0C036B5433B992F836500A4904
:1019C4000B7823EA05030B70D462FEF7FEFBFFF7E6
:1019D400F5FCE2E7CDCCCCCC586F0020576F00204B
:1019E400406D00204C6F0020546F0020DFF834D08D
:1019F4000D480E490E4A002302E0D458C450043363
:101A0400C4188C42F9D30B4A0B4C002301E0136039
:101A14000432A242FBD300F073F8FEF785FCFFF713
:101A240023FA7047008001200000002000000020FD
:101A3400E81C000800000020A8700020FEE7000059
:101A440082B0002301930093294A136843F480333E
:101A54001360274B1B6803F400330093019B01338D
:101A64000193009B1BB9019BB3F5A04FF1D1204B0F
:101A74001B6813F4003F06D001230093009B012B45
:101A840004D002B0704700230093F7E7184B1A6C98
:101A940042F080521A6417490A6842F440420A60CC
:101AA4009A689A609A689A609A6842F480529A6036
:101AB400114A5A601A6842F080721A600C4B1B6813
:101AC40013F0007FFAD00D4B40F205721A60A3F5B3
:101AD40080639A6822F003029A609A6842F00202D4
:101AE4009A60034B9B6803F00C03082BF9D1C8E7F9
:101AF400003802400070004008544107003C024096
:101B040010B5104CD4F8883043F47003C4F888300E
:101B14000D4B1A6842F001021A60002199601A689C
:101B240022F0847222F480321A60084A5A601A68D9
:101B340022F480221A60D960FFF782FF4FF000631D
:101B4400A36010BD00ED00E0003802401030002416
:101B5400F8B500BFF8BC08BC9E467047F8B500BF96
:081B6400F8BC08BC9E46704766
:101B6C00496E6974696C697A6174696F6E20666913
:101B7C006E6973686564210A000000004C45445F7F
:101B8C004F4E5F45525200004C45445F4F4E000093
:101B9C004C45445F4F46465F455252004C45445FAE
:101BAC004F46460046495253545F5441534B5F4590
:101BBC005252000046495253545F5441534B00005B
:101BCC0075432F4F532D49492049646C6500000023
:101BDC003F000000000001000200010003000100B2
:101BEC0002000100040001000200010003000100DA
:101BFC0002000100050001000200010003000100C9
:101C0C0002000100040001000200010003000100B9
:101C1C0002000100060001000200010003000100A7
:101C2C000200010004000100020001000300010099
:101C3C000200010005000100020001000300010088
:101C4C000200010004000100020001000300010079
:101C5C000200010007000100020001000300010066
:101C6C000200010004000100020001000300010059
:101C7C000200010005000100020001000300010048
:101C8C000200010004000100020001000300010039
:101C9C000200010006000100020001000300010027
:101CAC000200010004000100020001000300010019
:101CBC000200010005000100020001000300010008
:101CCC0002000100040001000200010003000100F9
:041CDC000200010001
:041CE00011030008E4
:041CE400ED02000805
:04000005080019F1E5
:00000001FF
