:020000040800F2
:1000000000800120596B0008A96B0008A96B00084B
:10001000A96B0008A96B0008A96B0008000000008C
:10002000000000000000000000000000A96B0008B4
:10003000A96B00080000000093020008D1560008D8
:10004000A96B0008A96B0008A96B0008A96B000840
:10005000A96B0008A96B0008A96B0008A96B000830
:10006000A96B0008A96B0008A96B0008A96B000820
:10007000A96B0008A96B0008A96B0008A96B000810
:10008000A96B0008A96B0008A96B0008000000001C
:10009000000000000000000000000000A96B000844
:1000A000A96B0008A96B0008A96B0008F94C0008AF
:1000B000A96B0008A96B0008A96B0008A96B0008D0
:1000C000A96B0008A96B0008A96B0008A96B0008C0
:1000D000A96B0008A96B0008A96B000800000000CC
:1000E000A96B0008A96B0008A96B000800000000BC
:1000F000000000000000000000000000A96B0008E4
:1001000000000000A96B0008A96B0008A96B00089B
:1001100000000000000000000000000000000000DF
:10012000A96B0008A96B0008A96B0008A96B00085F
:10013000A96B0008000000000000000000000000A3
:10014000000000000000000000000000A96B000893
:10015000A96B0008A96B0008A96B0008A96B00082F
:10016000A96B0008A96B0008000000000000000057
:10017000000000000000000000000000000000007F
:1001800000000000A96B0008000000000000000053
:04019000A96B00084F
:1001C000EFF3098121B120ED108A4F490A681060D0
:1001D0007047B0EC108A4D490A681060704772B6DB
:1001E00002B4EFF3118180F31188BFF34F8FBFF397
:1001F0006F8F084602BC62B6704772B680F31188F2
:10020000BFF34F8FBFF36F8F62B6704772B64EF673
:100210002250CEF2000040F2FF01C0F20001017056
:10022000002080F3098846F61C50C2F200000168E5
:1002300081F3088836480121017047F28200C2F23A
:10024000000047F28301C2F200010A78027047F20F
:100250009820C2F2000047F2A021C2F200010A6811
:100260000260106880F30988EFF3148040F0020008
:1002700080F31488BFF36F8FBDE8F04F0FBCBDE86B
:10028000005006BC62B6084722484FF0805101601A
:10029000704772B646F62052C2F20002116881F32E
:1002A0001188BFF34F8FBFF36F8F62B6EFF30980F2
:1002B00020E9F04F47F29825C2F20005296808604E
:1002C000744647F28200C2F2000047F28301C2F294
:1002D00000010A78027047F2A021C2F200010A6808
:1002E0002A6044F0040E1068B0E8F04F80F30988EB
:1002F0004FF0000272B682F31188BFF34F8FBFF345
:100300006F8F62B67047000098720020A0720020C4
:100310009070002004ED00E081F0004102E000BF99
:1003200083F0004330B54FEA41044FEA430594EAB5
:10033000050F08BF90EA020F1FBF54EA000C55EAF0
:10034000020C7FEA645C7FEA655C00F0E2804FEAC1
:100350005454D4EB5555B8BF6D420CDD2C4480EAA3
:10036000020281EA030382EA000083EA010180EAD3
:10037000020281EA0303362D88BF30BD11F0004F21
:100380004FEA01314FF4801C4CEA113102D0404257
:1003900061EB410113F0004F4FEA03334CEA133392
:1003A00002D0524263EB430394EA050F00F0A780AA
:1003B000A4F10104D5F1200E0DDB02FA0EFC22FAA5
:1003C00005F2801841F1000103FA0EF2801843FA99
:1003D00005F359410EE0A5F120050EF1200E012A8A
:1003E00003FA0EFC28BF4CF0020C43FA05F3C018C8
:1003F00051EBE37101F0004507D54FF0000EDCF141
:10040000000C7EEB00006EEB0101B1F5801F1BD3E9
:10041000B1F5001F0CD349085FEA30004FEA3C0CED
:1004200004F101044FEA445212F5800F80F09A80E3
:10043000BCF1004F08BF5FEA500C50F1000041EBE7
:10044000045141EA050130BD5FEA4C0C404141EBEB
:100450000101013C28BFB1F5801FE9D291F0000FE6
:1004600004BF01460020B1FA81F308BF2033A3F195
:100470000B03B3F120020CDA0C3208DD02F1140C8C
:10048000C2F10C0201FA0CF021FA02F10CE002F1C7
:100490001402D8BFC2F1200C01FA02F120FA0CFCC0
:1004A000DCBF41EA0C019040E41AA2BF01EB045109
:1004B000294330BD6FEA04041F3C1CDA0C340EDC07
:1004C00004F11404C4F1200220FA04F001FA02F34A
:1004D00040EA030021FA04F345EA030130BDC4F108
:1004E0000C04C4F1200220FA02F001FA04F340EAFD
:1004F0000300294630BD21FA04F0294630BD94F0AE
:10050000000F83F4801306BF81F480110134013D94
:100510004EE77FEA645C18BF7FEA655C29D094EA05
:10052000050F08BF90EA020F05D054EA000C04BF83
:100530001946104630BD91EA030F1EBF002100206E
:1005400030BD5FEA545C05D14000494128BF41F00D
:10055000004130BD14F580043CBF01F5801130BD71
:1005600001F0004545F0FE4141F470014FF00000FC
:1005700030BD7FEA645C1ABF194610467FEA655CAD
:100580001CBF0B46024650EA013406BF52EA03354F
:1005900091EA030F41F4002130BD00BF90F0000F3D
:1005A00004BF0021704730B54FF4806404F1320479
:1005B0004FF000054FF0000150E700BF90F0000F32
:1005C00004BF0021704730B54FF4806404F1320459
:1005D00010F0004548BF40424FF000013EE700BF29
:1005E00042004FEAE2014FEA31014FEA02701FBFB9
:1005F00012F07F4393F07F4F81F06051704732F0EB
:100600007F4208BF704793F07F4F04BF41F4002141
:10061000704730B54FF4607401F0004521F000419F
:100620001CE700BF50EA010208BF704730B54FF029
:1006300000050AE050EA010208BF704730B511F02A
:10064000004502D5404261EB41014FF4806404F162
:1006500032045FEA915C3FF4D8AE4FF003025FEAE8
:10066000DC0C18BF03325FEADC0C18BF033202EB6C
:10067000DC02C2F1200300FA03FC20FA02F001FAC6
:1006800003FE40EA0E0021FA02F11444BDE600BF69
:1006900070B54FF0FF0C4CF4E06C1CEA11541DBF18
:1006A0001CEA135594EA0C0F95EA0C0F00F0DEF8E3
:1006B0002C4481EA030621EA4C5123EA4C5350EAC8
:1006C000013518BF52EA033541F4801143F4801319
:1006D00038D0A0FB02CE4FF00005E1FB02E506F0AA
:1006E0000042E0FB03E54FF00006E1FB03569CF0FF
:1006F000000F18BF4EF0010EA4F1FF04B6F5007F05
:1007000064F5407404D25FEA4E0E6D4146EB060676
:1007100042EAC62141EA55514FEAC52040EA5E50FF
:100720004FEACE2EB4F1FD0C88BFBCF5E06F1ED8A9
:10073000BEF1004F08BF5FEA500E50F1000041EBE0
:10074000045170BD06F0004646EA010140EA02008D
:1007500081EA0301B4EB5C04C2BFD4EB0C0541EAAF
:10076000045170BD41F480114FF0000E013C00F3C4
:10077000AB8014F1360FDEBF002001F0004170BDE8
:10078000C4F10004203C35DA0C341BDC04F1140401
:10079000C4F1200500FA05F320FA04F001FA05F28D
:1007A00040EA020001F0004221F0004110EBD3705A
:1007B00021FA04F642EB06015EEA430E08BF20EA86
:1007C000D37070BDC4F10C04C4F1200500FA04F329
:1007D00020FA05F001FA04F240EA020001F00041BB
:1007E00010EBD37041F100015EEA430E08BF20EA2E
:1007F000D37070BDC4F1200500FA05F24EEA020E76
:1008000020FA04F301FA05F243EA020321FA04F0A4
:1008100001F0004121FA04F220EA020000EBD3705B
:100820005EEA430E08BF20EAD37070BD94F0000F5B
:100830000FD101F00046400041EB010111F4801F8F
:1008400008BF013CF7D041EA060195F0000F18BF40
:10085000704703F00046520043EB030313F4801F7C
:1008600008BF013DF7D043EA0603704794EA0C0F36
:100870000CEA135518BF95EA0C0F0CD050EA41064C
:1008800018BF52EA4306D1D181EA030101F00041C9
:100890004FF0000070BD50EA410606BF10461946F1
:1008A00052EA430619D094EA0C0F02D150EA0136FD
:1008B00013D195EA0C0F05D152EA03361CBF10463E
:1008C00019460AD181EA030101F0004141F0FE41DD
:1008D00041F470014FF0000070BD41F0FE4141F461
:1008E000780170BD70B54FF0FF0C4CF4E06C1CEA61
:1008F00011541DBF1CEA135594EA0C0F95EA0C0F16
:1009000000F0A7F8A4EB050481EA030E52EA0335D0
:100910004FEA013100F088804FEA03334FF08055F1
:1009200045EA131343EA12634FEA022245EA11151E
:1009300045EA10654FEA00260EF000419D4208BFCF
:10094000964244F1FD0404F5407402D25B084FEA7C
:100950003202B61A65EB03055B084FEA32024FF428
:1009600080104FF4002CB6EB020E75EB030E22BF85
:10097000B61A754640EA0C005B084FEA3202B6EB45
:10098000020E75EB030E22BFB61A754640EA5C00F4
:100990005B084FEA3202B6EB020E75EB030E22BF84
:1009A000B61A754640EA9C005B084FEA3202B6EB85
:1009B000020E75EB030E22BFB61A754640EADC0044
:1009C00055EA060E18D04FEA051545EA16754FEAA6
:1009D00006164FEAC30343EA52734FEAC2025FEAC4
:1009E0001C1CC0D111F4801F0BD141EA00014FF053
:1009F00000004FF0004CB6E711F4801F04BF014324
:100A00000020B4F1FD0C88BFBCF5E06F3FF6AFAE3F
:100A1000B5EB030C04BFB6EB020C5FEA500C50F1CF
:100A2000000041EB045170BD0EF0004E4EEA113152
:100A300014EB5C04C2BFD4EB0C0541EA045170BD59
:100A400041F480114FF0000E013C90E645EA060E9D
:100A50008DE60CEA135594EA0C0F08BF95EA0C0FCB
:100A60003FF43BAF94EA0C0F0AD150EA01347FF413
:100A700034AF95EA0C0F7FF425AF104619462CE7EA
:100A800095EA0C0F06D152EA03353FF4FDAE10464D
:100A9000194622E750EA410618BF52EA43067FF49E
:100AA000C5AE50EA41047FF40DAF52EA43057FF42E
:100AB000EBAE12E74FEA4102B2F1E04324BFB3F5D7
:100AC000001CDCF1FE5C0DD901F0004C4FEAC002C5
:100AD0004CEA5070B2F1004F40EB830008BF20F0A9
:100AE0000100704711F0804F21D113F13872BCBF63
:100AF00001F00040704741F480114FEA5252C2F1B8
:100B00001802C2F1200C10FA0CF320FA02F018BF00
:100B100040F001004FEAC1234FEAD32303FA0CFC53
:100B200040EA0C0023FA02F34FEA4303CCE77FEAE2
:100B3000625307D150EA01331EBF4FF0FE4040F42C
:100B40004000704701F0004040F0FE4040F40000DB
:100B5000704700BF844641EA000313F003036DD1E0
:100B6000403A41D351F8043B40F8043B51F8043B70
:100B700040F8043B51F8043B40F8043B51F8043B77
:100B800040F8043B51F8043B40F8043B51F8043B67
:100B900040F8043B51F8043B40F8043B51F8043B57
:100BA00040F8043B51F8043B40F8043B51F8043B47
:100BB00040F8043B51F8043B40F8043B51F8043B37
:100BC00040F8043B51F8043B40F8043B51F8043B27
:100BD00040F8043B51F8043B40F8043B51F8043B17
:100BE00040F8043B403ABDD2303211D351F8043BB7
:100BF00040F8043B51F8043B40F8043B51F8043BF7
:100C000040F8043B51F8043B40F8043B103AEDD265
:100C10000C3205D351F8043B40F8043B043AF9D2B6
:100C2000043208D0D2071CBF11F8013B00F8013B89
:100C300001D30B8803806046704700BF082A13D396
:100C40008B078DD010F003038AD0C3F10403D21AAE
:100C5000DB071CBF11F8013B00F8013B80D331F8E2
:100C6000023B20F8023B7BE7043AD9D3013A11F862
:100C7000013B00F8013BF9D20B7803704B784370CD
:100C80008B78837060467047000000000000000011
:100C90000000000000000000000000000000000054
:100CA0000000000000000000000000000000000044
:100CB0000000000000000000000000000000000034
:100CC00030B490F800F020F007016FF0000C10F045
:100CD000070491F820F040F048804FF000046FF0D6
:100CE0000700D1E9002391F840F000F1080082FAF2
:100CF0004CF2A4FA8CF283FA4CF3A2FA8CF34BBBBD
:100D0000D1E9022382FA4CF200F10800A4FA8CF235
:100D100083FA4CF3A2FA8CF3E3B9D1E9042382FA03
:100D20004CF200F10800A4FA8CF283FA4CF3A2FA18
:100D30008CF37BB9D1E9062301F1200182FA4CF250
:100D400000F10800A4FA8CF283FA4CF3A2FA8CF3B7
:100D5000002BC6D0002A04BF04301A4612BAB2FAD9
:100D600082F200EBD20030BC7047D1E9002304F0DE
:100D70000305C4F100004FEAC50514F0040F91F813
:100D800040F00CFA05F562EA05021CBF63EA0503B0
:100D900062464FF00004AAE70000000000000000D7
:100DA00001F0FF01102A2BDB10F0070F08D010F81C
:100DB000013B013A8B422DD010F0070F42B3F6D120
:100DC000F0B441EA012141EA014122F007047FF039
:100DD00000070023F0E80256083C85EA010586EA90
:100DE000010685FA47F5A3FA87F586FA47F6A5FACC
:100DF00087F68EB9EED1F0BC01F0FF0102F00702D8
:100E000032B110F8013B013A83EA010313B1F8D182
:100E10000020704701387047002D06BF3546033863
:100E2000073815F0010F07D1013015F4807F02BF9C
:100E3000013015F4C03F0130F0BC0138704700BFED
:100E40004FF0FF3C06E000BF4FF0010C02E000BF96
:100E50004FF0010C4DF804CD4FEA410C7FEA6C5C79
:100E60004FEA430C18BF7FEA6C5C1BD001B050EA1C
:100E7000410C0CBF52EA430C91EA030F02BF90EA07
:100E8000020F0020704710F1000F91EA030F58BFC6
:100E9000994208BF90422CBFD8176FEAE37040F028
:100EA000010070474FEA410C7FEA6C5C02D150EAC6
:100EB000013C07D14FEA430C7FEA6C5CD6D152EA81
:100EC000033CD3D05DF8040B704700BF8446104646
:100ED00062468C461946634600E000BF01B5FFF745
:100EE000B7FF002848BF10F1000F01BD4DF808ED15
:100EF000FFF7F4FF0CBF012000205DF808FB00BFE6
:100F00004DF808EDFFF7EAFF34BF012000205DF83F
:100F100008FB00BF4DF808EDFFF7E0FF94BF01208C
:100F200000205DF808FB00BF4DF808EDFFF7CEFF8D
:100F300094BF012000205DF808FB00BF4DF808EDCC
:100F4000FFF7C4FF34BF012000205DF808FB00BF9D
:100F50004FEA410C7FEA6C5C02D150EA013C0AD1B5
:100F60004FEA430C7FEA6C5C02D152EA033C02D1A7
:100F70004FF0000070474FF00100704710B5054C6E
:100F8000237833B9044B13B10448AFF30080012335
:100F9000237010BDB0050020000000004C7D00084B
:100FA00008B5034B1BB103490348AFF3008008BDEC
:100FB00000000000B40500204C7D0008002301461D
:100FC0001A46184600F024BA024A0349034800F0C2
:100FD000C9B800BF00000020DD1C00081000002080
:100FE0000C4B4168994210B5044601D000F076FEE2
:100FF000A168094B994202D0204600F06FFEE168DB
:10100000064B994204D02046BDE8104000F066BE71
:1010100010BD00BFCC050020340600209C06002037
:101020002DE9F843314C324B3248DFF8DC90DFF8E1
:10103000DC80314F1860002529460423082204F182
:101040005C002E4EE360C4E90055C4E90455A56078
:101050006566A56100F0F2F804F15800C4E907499B
:10106000C4E90987E66200F0CBF92946244B63679F
:10107000082204F1C400C4E91A55C4E91E552567C5
:10108000C4F8CC50C4F8805000F0D8F804F16803DC
:1010900004F1C000C4F88430C4E92298C4E924767D
:1010A00000F0AEF9174BC4F8DC30294604F5967011
:1010B0000822C4E93455C4E93855C4F8D850C4F8F6
:1010C0003451C4F8E85000F0B9F804F1D003C4E991
:1010D0003D87C4F8F09004F59470C4F8FC60C4F83F
:1010E000EC30BDE8F84300F08BB900BFCC05002020
:1010F00004070020C90F000811120008351200086B
:101100000900010012000200AD110008D111000811
:1011100010B504460A4800F077F9636B23B9094B10
:10112000094A1B68626323B1BDE81040044800F01F
:101130006DB9FFF775FFBDE81040014800F066B9D2
:101140001407002004070020E10F0008014800F008
:101150005BB900BF14070020014800F057B900BF79
:10116000140700202DE9F84380460F4616464FF03D
:101170000009D6E90154013D11D4A389012B05F1E1
:10118000FF3508D9B4F90E300133214603D040466B
:10119000B84749EA00096B1C04F16804EDD13668D0
:1011A000002EE6D14846BDE8F88300BF10B50C46D6
:1011B000B1F90E1000F0BCF8002803DB236D0344E6
:1011C000236510BDA38923F48053A38110BD00BF04
:1011D0002DE9F0410C46B1F90C101F46CB05054630
:1011E00016460BD421F48051A1813B46B4F90E1070
:1011F00032462846BDE8F04100F0B0B8B4F90E1010
:101200000223002200F07EF8B4F90C10EAE700BFD8
:1012100010B50C46B1F90E1000F074F8B4F90C30AA
:10122000421C0EBF23F4805343F480532065A381F6
:1012300010BD00BFB1F90E1000F052B8830730B5F1
:1012400047D0541E002A3ED0CAB2034601E0013CFA
:1012500039D303F8012B9D07F9D1032C2CD9CDB23A
:1012600005EB05250F2C05EB054535D9A4F110023A
:1012700022F00F0C03F1100EE6444FEA121C1A463E
:10128000156055609560D56010327245F8D10CF14B
:10129000010214F00C0F03EB021204F00F0C13D038
:1012A000ACF1040323F003030433134442F8045B5A
:1012B0009A42FBD10CF003042CB1C9B21C4403F8D0
:1012C000011B9C42FBD130BD64461346002CF4D177
:1012D000F9E703461446C0E71A46A446E0E700BF14
:1012E00038B5074D0022044608462A6005F029FD5E
:1012F000431C00D038BD2B68002BFBD0236038BDC9
:101300000807002038B50C46084D84461146204693
:101310001A4600232B60644605F01FFD431C00D0D5
:1013200038BD2B68002BFBD0236038BD0807002098
:1013300038B50C46084D8446114620461A4600230F
:101340002B60644605F032FD431C00D038BD2B688D
:10135000002BFBD0236038BD0807002038B50C46B1
:10136000084D8446114620461A4600232B606446E9
:1013700005F000FD431C00D038BD2B68002BFBD0CE
:10138000236038BD0807002070B50F4B0F4DAB42EE
:10139000A3EB050607D0B610002455F8043B013432
:1013A0009847A642F9D806F0D1FC094D094B5E1BBF
:1013B000AB424FEAA60606D0002455F8043B0134A0
:1013C0009847A642F9D870BD6C8000086C80000870
:1013D0006C8000087480000838B5074D074C2C1B42
:1013E000A41005D0013C55F8043D9847002CF9D1D4
:1013F000BDE8384006F0B0BC788000087480000872
:10140000704700BF704700BF704700BF704700BF04
:101410002DE9F8431B4D0646286898460F4691462D
:10142000FFF7F2FF184B1C681CB3286865681F2D76
:1014300022DC4EB96B1C0235636044F82570FFF75F
:10144000E5FF0020BDE8F88304EB85010123C1F826
:101450008890D4F88821AB401A43022EC4F8882122
:10146000C1F80881E6D1D4F88C211A43C4F88C2144
:10147000E0E7064C1C60D8E7FFF7C8FF4FF0FF30ED
:10148000E0E700BF30010020A80800201807002076
:10149000024B13B10248FFF791BD704700000000F6
:1014A000D91300082DE9F84306460820894600F0C4
:1014B0004DFDDFF8A4800546304600F003FCD8F867
:1014C00008305F6827F00307A7F11104A4EB0904B3
:1014D0002C44B4FBF5F4013C05FB04F4A54208DC04
:1014E0000021304600F020FDD8F808303B449842F7
:1014F00005D0304600F0ECFB0020BDE8F8836142E7
:10150000304600F011FD01300FD0114AD8F80830F4
:101510003F1B47F001075F60136830461B1B1360D9
:1015200000F0D6FB0120BDE8F8830021304600F032
:10153000FBFCD8F80820831A0F2BDADD43F00103F7
:101540005360044B02491B68C01A0860D1E700BF12
:10155000AC080020340100204001002000297CD08C
:101560002DE9F0410C46804600F0ACFB54F8043CF9
:10157000764FA4F1080523F001016818BE6842689F
:10158000864222F0030200F08380DE07426000EB17
:10159000020C33D454F8084CDCF804302D1B2144E1
:1015A000AC6807F1080C644503F0010364D0D5F87A
:1015B0000CE0C4F80CE0CEF80840002B00F081806D
:1015C00041F001036B600160B1F5007F22D27868C1
:1015D000CB080122490901338A40024357F83310EE
:1015E0007A6007EBC302083AC5E9021247F83350A4
:1015F000CD604046BDE8F04100F06ABBDCF8043045
:10160000DB072BD541F00103B1F5007F44F8043C22
:101610000160DCD3B1F5206F4FEA512353D28B091F
:1016200003F1390003F13802C300F818FB580838F9
:10163000984203D163E09B68984204D05A6822F034
:1016400003028A42F7D8D868C5E902308560DD60B8
:101650004046BDE8F04100F03BBB7047114407F144
:10166000080C836863453FD0C268DA60936041F03C
:1016700001036B606950A7E7002B61D10A44D0E9F0
:101680000213CB60996042F001036B60AA50B0E78F
:10169000DB070A4407D454F8083CED1A1A44D5E98C
:1016A0000213CB60996042F001036B60284BBD6070
:1016B0001B6893429DD8274B40461968FFF7F2FEFE
:1016C00097E71144CDE7142B08D9542B1FD80B0BE7
:1016D00003F16F0003F16E02C300A6E703F15C00A3
:1016E00003F15B02C300A0E741F001033D617D61AE
:1016F000C5F808C0C5F80CC06B60695079E7796817
:101700009210012404FA02F20A437A609CE7B3F5CE
:10171000AA7F06D8CB0B03F1780003F17702C30050
:1017200083E740F25452934206D88B0C03F17D00BC
:1017300003F17C02C30078E74FF47E737E2274E7E6
:1017400041F001036B60016053E700BF40010020DE
:1017500038010020DC0800202DE9F04F01F10B05D5
:10176000162D85B0064623D8102900F2B08000F06F
:10177000A9FA102518230220B74F3B44A3F1080211
:101780005C68944200F01E816368E26823F0030302
:101790002344A168CA6091605A6842F00102304651
:1017A0005A60083400F094FA204605B0BDE8F08F86
:1017B00035F0070500F18B80A94200F2888000F027
:1017C00081FAB5F5FC7FC0F06E816B0A00F0838072
:1017D000042B00F21D81AB0903F1390003F1380C31
:1017E000C3009D4F3B44A3F108015C68A14206D1B0
:1017F0000CE0002A80F2E380E468A14206D063682E
:1018000023F003035A1B0F2AF3DD6046DFF85CE286
:101810003C69744500F0C080636823F00308A8EBBE
:1018200005030F2B00F34381002BC7E904EE80F280
:101830002E81B8F5007FD7F804C080F0C9804FEA48
:10184000D80101314FEA5818012303FA08F357F879
:101850003120A2604CEA030C07EBC103083BE360B4
:10186000C7F804C047F83140D46083104FF0010836
:1018700008FA03F8E04534D818EA0C0F08D120F034
:1018800003004FEA480818EA0C0F00F10400F8D0F2
:1018900007EBC00A52468146D1680EE04B6823F040
:1018A0000303A3EB050CBCF10F0F0C46C96800F352
:1018B000BB80BCF1000F80F2DD808A42EED109F1DD
:1018C000010919F0030F02F10802E5D11AE10C2316
:1018D0003360002468E74FF4007340204FF03F0C62
:1018E0007FE7BC68636823F00309A94503D3A9EB2C
:1018F00005030F2B53DC594BDFF874B11B6808202C
:1019000003F1100800F022FBDBF8003001900133F6
:10191000A84404EB090205D008F1FF388044434293
:1019200003EA080841463046029200F0FDFAB0F1A1
:10193000FF3F029A824600F0D780824200F2D280B6
:10194000474B01991868404401F1FF311860844603
:1019500040F0FB801AEA010F40F0F780D7F808A0AA
:10196000C84448F00102CAF804203E4B196881427D
:1019700038BF18603C4B1968814238BF1860544624
:1019800022F00308A845A8EB050301D30F2B06DCC2
:10199000304600F09DF99CE7D7F804C065E762196E
:1019A00043F0010345F0010565603046BA605360BD
:1019B00000F08EF90834204605B0BDE8F08FE268EB
:1019C0002344E6E6DC68A3427FF4DEAE02301DE786
:1019D000B8F5206F4FEA58227DD3142A00F21981FE
:1019E00002F15C03DB005B32F918FB5808399942BD
:1019F00003D1F3E09B68994204D05A6822F00302B5
:101A00004245F7D8D968C4E902318C60DC602CE724
:101A1000142B6CD9542B00F205812B0B03F16F00B2
:101A200003F16E0CC300DCE63046A668621945F08F
:101A300001056560F1608E604CF00101C7E9042288
:101A4000C2F808E0C2F80CE0516044F803C000F0AE
:101A50003FF90834A8E600BF40010020DC08002060
:101A6000AC080020D8080020D4080020480100203D
:101A700034010020234430465A6842F001025A6083
:101A800054F8083FD9608B6000F022F98CE6A0443E
:101A90003046D8F8043043F00103C8F80430083465
:101AA00000F016F980E6E80805F1080364E662191B
:101AB00043F0010145F0010565603046C7E90422A5
:101AC000C2F808E0C2F80CE0516044F8083000F0B9
:101AD000FFF8083468E64FEA981202F13903DB0098
:101AE000383281E7BC4228D0BC68626848E703F11D
:101AF0005C0003F15B0CC30073E65AF808395345E8
:101B000040F0DB8010F0030F00F1FF30F5D17B686F
:101B100023EA08037B604FEA480898453FF6E1AEA8
:101B2000B8F1000F04D1DCE64FEA480809F10409D6
:101B300018EA030FF8D04846AAE6614B01991868E5
:101B400008EB000C0139C3F800C0DBF800000130DD
:101B50001BBFAAEB02026244CBF800A01A601AF085
:101B60000702CDE9022343D0C2F10802019B92444F
:101B7000D044134408EA01001A1A02EA010B59463C
:101B8000304600F0D1F9421C039B79D0A0EB0A004B
:101B900000EB0B081868C7F808A048F00102584489
:101BA000BC42CAF8042018603FF4DFAEB9F10F0F51
:101BB00042D96168A9F10C0222F0070201F001018B
:101BC00011436160A1184FF0050C0F2AC1F804C041
:101BD000C1F808C049D8DAF80420C6E692104FF0E0
:101BE000010808FA02F24CEA020CC7F804C00AE73E
:101BF000019B0AEB08020A409A1A02EA010B5946B5
:101C0000304600F091F9431C039BBFD1DDF808B0CA
:101C1000C0E7542A14D84FEA183202F16F03DB00F0
:101C20006E32E1E6B3F5AA7F14D8EB0B03F178002E
:101C300003F1770CC300D4E50123CAF80430A7E60A
:101C4000B2F5AA7F24D84FEAD83202F17803DB003C
:101C50007732C9E640F25452934224D8AB0C03F1D8
:101C60007D0003F17C0CC300BBE5304604F10801A4
:101C70000193FFF773FC019BD7F808A01868AAE747
:101C8000029A083A9044A8EB0A084FF0000B81E74B
:101C900040F254539A420CD84FEA984202F17D0325
:101CA000DB007C32A0E64FF47E737F204FF07E0C89
:101CB00097E54FF47E737E2296E67B682BE700BFA4
:101CC000AC0800200148FFF79FBB00BF0C070020B5
:101CD0000148FFF79BBB00BF0C07002070B500292F
:101CE0003FD005460C4610B1436B002B3CD0636ED1
:101CF000B4F90C20DE0732D4900538D521462846A9
:101D000000F04CF8E36A064633B1E169284698478B
:101D10000028B8BF4FF0FF36A3891A0639D4216BCB
:101D200041B104F14003994202D02846FFF716FC66
:101D300000232363616C21B12846FFF70FFC0023C9
:101D40006364FFF703FA636E0022DB07A2811CD5F0
:101D5000A06DFFF757FBFFF7FFF9304670BD002A73
:101D6000CCD10026304670BDFFF7D2F9BFE7A06D99
:101D7000FFF74AFBB4F90C30002BBFD1636ED907D3
:101D8000EFD4A06DFFF742FBEBE7A06DFFF73EFB42
:101D9000DEE721692846FFF7E1FBC0E7B1F90C2037
:101DA0002DE9F0410C46110780464BD4616842F49E
:101DB00000630029A38160DDA56A002D3FD00021CA
:101DC00012F48052D8F80060C8F80010E16961D1BF
:101DD00001234046A847431C02466BD0B4F90C309F
:101DE000A56AE1695F0705D56368D21A236B0BB159
:101DF000E36BD21A00234046A847451C4CD1D8F8C3
:101E000000101D293DD8324AB4F90C300A4112F0B5
:101E1000010238D162602269226023F40062A2814B
:101E2000DA0452D4216BC8F8006041B104F14003D8
:101E3000994202D04046FFF791FB00232363002024
:101E4000BDE8F0812669002EF9D02568266091074B
:101E50000CBF63690023AD1BA3600BE02B46324629
:101E6000E169676A4046B847B0F1000CA5EB0C0584
:101E7000664406DD002DF1DCE1E7E16B00299BDC27
:101E8000DDE7B4F90C3043F04003A3814FF0FF309D
:101E9000BDE8F081226DA5E7B4F90C30226922601B
:101EA00023F40062A281DB044FF000026260B9D526
:101EB0002065B7E7D8F80030002B8FD01D2B01D05C
:101EC000162BDED1C8F80060B9E70029AAD1EFE7E8
:101ED000FEFFBFDF38B50C46054608B1436B03B3C0
:101EE000B4F90C0088B1636EDB0701D481050FD50E
:101EF00028462146FFF752FF636EDA07054602D4F3
:101F0000A3899B0508D5284638BD0546284638BD17
:101F1000A06DFFF779FAEBE7A06DFFF777FA284697
:101F200038BDFFF7F5F8DBE738B5074D002204466A
:101F300008462A6004F048FF431C00D038BD2B68D7
:101F4000002BFBD0236038BD08070020082802D1F1
:101F50004FF48050704708B500F006F81623036070
:101F60004FF0FF3008BD00BF014B1868704700BF3D
:101F70000C00002080B483B000AF7860064A7B6814
:101F800043F0BF6343F40033D36000BF0C37BD465A
:101F90005DF8047B704700BF00ED00E080B485B0C1
:101FA00000AF78600023FB730023BB730F237B73A8
:101FB0007B68DB78002B39D0274BDB68DB431B0ABF
:101FC000DBB203F00703FB73FB7BC3F10403BB73BA
:101FD0007A7BFB7B42FA03F37B737B685B781A4660
:101FE000BB7B02FA03F3FB737B689A787B7B13401D
:101FF000DAB2FB7B1343FB73FB7B1B01FB73174ABA
:102000007B681B781344FA7B83F800237B681B787A
:1020100003F01F0311497A6812785209D2B21046B0
:10202000012202FA03F341F820300FE07B681B78AD
:1020300003F01F0309497A6812785209D2B2104698
:1020400001229A4000F1200341F8232000BF1437F9
:10205000BD465DF8047B704700ED00E000E100E064
:1020600080B487B000AF7860396000237B610023C3
:102070003B610023FB6000237B6176E001227B69EA
:1020800002FA03F33B613B681B683A691340FB604B
:10209000FA683B699A4265D17B681A687B695B0084
:1020A000032101FA03F3DB431A407B681A607B6863
:1020B0001A683B681B7919467B695B0001FA03F3D8
:1020C0001A437B681A603B681B79012B03D03B687D
:1020D0001B79022B2ED17B689A687B695B000321F8
:1020E00001FA03F3DB431A407B689A607B689A68C5
:1020F0003B685B7919467B695B0001FA03F31A437D
:102100007B689A607B685A687B699BB21946012399
:102110008B40DB431A407B685A607B685B683A6897
:10212000927911467A6992B201FA02F292B21A4396
:102130007B685A607B68DA687B699BB25B0003212D
:1021400001FA03F3DB431A407B68DA607B68DA68E4
:102150003B68DB7919467B695B0001FA03F31A439C
:102160007B68DA607B6901337B617B690F2B85D9E2
:1021700000BF00BF1C37BD465DF8047B7047000000
:1021800080B483B000AF78600B46FB70FB78002B07
:1021900006D00A4B1A6B09497B6813430B6306E0B0
:1021A000064B1A6B7B68DB43044913400B6300BF8B
:1021B0000C37BD465DF8047B704700BF0038024015
:1021C00080B483B000AF78600B46FB70FB78002BC7
:1021D00006D00A4B1A6C09497B6813430B6406E06E
:1021E000064B1A6C7B68DB43044913400B6400BF49
:1021F0000C37BD465DF8047B704700BF00380240D5
:1022000080B485B000AF786039600023FB817B68C3
:102210001B88FB817B68294A934213D07B68284A3C
:1022200093420FD07B68B3F1804F0BD07B68254A77
:10223000934207D07B68244A934203D07B68234AA9
:10224000934208D1FB8923F07003FB813B685A88D5
:10225000FB891343FB817B681D4A93420CD07B684A
:102260001C4A934208D0FB8923F44073FB813B68EE
:102270001A89FB891343FB817B68FA891A803B68C2
:102280005A687B68DA623B681A887B681A857B68C3
:102290000A4A934203D07B68094A934204D13B68BF
:1022A0009B7A1A467B681A867B6801229A8200BF55
:1022B0001437BD465DF8047B704700BF0000014045
:1022C000000401400004004000080040000C0040F1
:1022D000001000400014004080B483B000AF78606C
:1022E0000B46FB70FB78002B08D07B681B889BB2E9
:1022F00043F001039AB27B681A8007E07B681B8871
:102300009BB223F001039AB27B681A8000BF0C379E
:10231000BD465DF8047B704780B485B000AF78603F
:10232000396000237B810023FB810023BB817B6814
:102330001B8C9BB223F001039AB27B681A847B68E2
:102340001B8CFB817B689B88BB817B681B8B7B81A3
:102350007B8923F070037B817B8923F003037B81DE
:102360003B681A887B8913437B81FB8923F0020336
:10237000FB813B689A89FB891343FB813B685A8840
:10238000FB891343FB817B681E4A934203D07B6821
:102390001D4A934223D1FB8923F00803FB813B684C
:1023A000DA89FB891343FB81FB8923F00403FB815A
:1023B0003B689A88FB891343FB81BB8923F48073B4
:1023C000BB81BB8923F40073BB813B681A8ABB893C
:1023D0001343BB813B685A8ABB891343BB817B682B
:1023E000BA899A807B687A891A833B689A687B6885
:1023F0005A637B68FA891A8400BF1437BD465DF8BA
:10240000047B7047000001400004014080B485B0A7
:1024100000AF78600B467B800023FB817B681B8BC1
:10242000FB81FB8923F00803FB81FA897B88134336
:10243000FB817B68FA891A8300BF1437BD465DF8BB
:10244000047B704780B483B000AF78607B685B6BBF
:1024500018460C37BD465DF8047B704780B483B0E6
:1024600000AF78600B467B8013467B707B78002B37
:1024700008D07B689B899AB27B8813439AB27B68A9
:102480009A8109E07B689B899AB27B88DB439BB287
:1024900013409AB27B689A8100BF0C37BD465DF845
:1024A000047B704780B485B000AF78600B467B80BA
:1024B0000023FB730023BB8100237B817B681B8A85
:1024C0009AB27B881340BB817B689B899AB27B88D8
:1024D00013407B81BB89002B05D07B89002B02D068
:1024E0000123FB7301E00023FB73FB7B18461437C9
:1024F000BD465DF8047B704780B483B000AF786060
:102500000B467B807B88DB439AB27B681A8200BFD4
:102510000C37BD465DF8047B704780B485B000AFD2
:1025200078600B467B800023FB737B681B889AB224
:102530007B8813409BB2002B02D00123FB7301E088
:102540000023FB73FB7B18461437BD465DF8047B04
:10255000704700002DE9B04F98B000AF7861396145
:10256000FA60BB6087ED010A7B6993ED027A7B69B3
:10257000D3ED027A67EE277A17EE900AFEF730F86D
:1025800002460B464FF00000E349FDF7C9FE024644
:102590000B4614461D467B6993ED037A7B69D3EDA8
:1025A000037A67EE277A17EE900AFEF719F80246CB
:1025B0000B4620462946FDF7B3FE02460B46104661
:1025C000194602460B46FDF7ADFE02460B46144681
:1025D0001D46D7F880301B681846FEF701F8024602
:1025E0000B4620462946FEF753F802460B46144692
:1025F0001D467B6993ED017A7B69D3ED027A27EE64
:10260000277A7B69D3ED006A7B69D3ED037A66EEA6
:10261000A77A77EE677A37EEA77AD7F88030D3EDCE
:10262000017A67EE277A17EE900AFDF7D9FF024686
:102630000B4620462946FDF775FE02460B4614461A
:102640001D467B6993ED007A7B69D3ED027A27EE14
:10265000277A7B69D3ED016A7B69D3ED037A66EE55
:10266000A77A77EE277A37EEA77AD7F88030D3EDBE
:10267000027A67EE277A17EE900AFDF7B1FF02465D
:102680000B4620462946FDF74DFE02460B461046F6
:102690001946FEF70FFA0346BB637B6993ED017A97
:1026A0007B69D3ED027A27EE277A7B69D3ED006A46
:1026B0007B69D3ED037A66EEA77A77EE277A37EE59
:1026C000A77AD7F88030D3ED007A67EE277A17EE35
:1026D000900AFDF785FF04460D467B6993ED017A6C
:1026E0007B69D3ED017A67EE277A17EE900AFDF742
:1026F00077FF02460B464FF000008749FDF710FEBA
:1027000002460B46904699467B6993ED037A7B69B6
:10271000D3ED037A67EE277A17EE900AFDF760FF94
:1027200002460B4640464946FDF7FAFD02460B4677
:102730001046194602460B46FDF7F4FD02460B46CD
:1027400090469946D7F880305B681846FDF748FFF9
:1027500002460B4640464946FDF79AFF02460B46A5
:1027600020462946FDF7DEFD02460B4614461D466F
:102770007B6993ED027A7B69D3ED037A27EE277AA2
:102780007B69D3ED006A7B69D3ED017A66EEA77AA7
:1027900077EE677A37EEA77AD7F88030D3ED027AF2
:1027A00067EE277A17EE900AFDF71AFF02460B46EE
:1027B00020462946FDF7B6FD02460B46104619464F
:1027C000FEF778F90346FB637B6993ED017A7B6939
:1027D000D3ED037A27EE277A7B69D3ED006A7B6914
:1027E000D3ED027A66EEA77A77EE677A37EEA77AAC
:1027F000D7F88030D3ED007A27EE277A7B69D3EDC6
:10280000006A7B69D3ED017A66EEA76A7B6993ED76
:10281000026A7B69D3ED037A66EE277A76EEA77AB1
:1028200077EEA76AD7F88030D3ED017A66EEA77A03
:1028300077EE277A17EE900AFDF7D2FE04460D4692
:102840007B6993ED017A7B69D3ED017A67EE277A94
:1028500017EE900AFDF7C4FE02460B464FF000004B
:102860002D49FDF75DFD02460B46904699467B6972
:1028700093ED027A7B69D3ED027A67EE277A17EE41
:10288000900AFDF7ADFE02460B4640464946FDF76D
:1028900047FD02460B461046194602460B46FDF719
:1028A00041FD02460B4690469946D7F880309B681A
:1028B0001846FDF795FE02460B4640464946FDF791
:1028C000E7FE02460B4620462946FDF72BFD024651
:1028D0000B4610461946FEF7EDF803463B647B694C
:1028E00093ED027A7B69D3ED027A67EE277A17EED1
:1028F000900AFDF775FE02460B464FF000000649B0
:10290000FDF70EFD02460B4614461D467B6993ED0E
:10291000037A7B6902E000BF0000E03FD3ED037A59
:1029200067EE277A17EE900AFDF75AFE02460B462D
:1029300020462946FDF7F4FC02460B461046194690
:1029400002460B46FDF7EEFC02460B4614461D46BA
:10295000D7F880301B681846FDF742FE02460B464A
:1029600020462946FDF794FE02460B4614461D46B6
:102970007B6993ED017A7B69D3ED027A27EE277AA2
:102980007B69D3ED006A7B69D3ED037A66EEA77AA3
:1029900077EE677A37EEA77AD7F88030D3ED017AF1
:1029A00067EE277A17EE900AFDF71AFE02460B46ED
:1029B00020462946FDF7B6FC02460B4614461D4646
:1029C0007B6993ED007A7B69D3ED027A27EE277A53
:1029D0007B69D3ED016A7B69D3ED037A66EEA77A52
:1029E00077EE277A37EEA77AD7F88030D3ED027AE0
:1029F00067EE277A17EE900AFDF7F2FD02460B46C6
:102A000020462946FDF78EFC02460B461046194625
:102A1000FEF750F80346BB637B6993ED017A7B694F
:102A2000D3ED027A27EE277A7B69D3ED006A7B69C2
:102A3000D3ED037A66EEA77A77EE277A37EEA77A98
:102A4000D7F88030D3ED007A67EE277A17EE900A38
:102A5000FDF7C6FD04460D467B6993ED017A7B695F
:102A6000D3ED017A67EE277A17EE900AFDF7B8FDED
:102A700002460B464FF00000E149FDF751FC0246CB
:102A80000B46904699467B6993ED037A7B69D3EDBB
:102A9000037A67EE277A17EE900AFDF7A1FD02464A
:102AA0000B4640464946FDF73BFC02460B461046A6
:102AB000194602460B46FDF735FC02460B4690468A
:102AC0009946D7F880305B681846FDF789FD0246C5
:102AD0000B4640464946FDF7DBFD02460B462046C5
:102AE0002946FDF71FFC02460B4614461D467B692E
:102AF00093ED027A7B69D3ED037A27EE277A7B691F
:102B0000D3ED006A7B69D3ED017A66EEA77A77EEA2
:102B1000677A37EEA77AD7F88030D3ED027A67EE7E
:102B2000277A17EE900AFDF75BFD02460B4620461A
:102B30002946FDF7F7FB02460B4610461946FDF7FE
:102B4000B9FF0346FB637B6993ED017A7B69D3EDA3
:102B5000037A27EE277A7B69D3ED006A7B69D3ED90
:102B6000027A66EEA77A77EE677A37EEA77AD7F819
:102B70008030D3ED007A27EE277A7B69D3ED006AA7
:102B80007B69D3ED017A66EEA76A7B6993ED026AF1
:102B90007B69D3ED037A66EE277A76EEA77A77EE35
:102BA000A76AD7F88030D3ED017A66EEA77A77EE80
:102BB000277A17EE900AFDF713FD04460D467B6950
:102BC00093ED017A7B69D3ED017A67EE277A17EEF0
:102BD000900AFDF705FD02460B464FF000008849BC
:102BE000FDF79EFB02460B46904699467B6993EDA6
:102BF000027A7B69D3ED027A67EE277A17EE900AA4
:102C0000FDF7EEFC02460B4640464946FDF788FBC1
:102C100002460B461046194602460B46FDF782FB5C
:102C200002460B4690469946D7F880309B68184676
:102C3000FDF7D6FC02460B4640464946FDF728FD07
:102C400002460B4620462946FDF76CFB02460B4622
:102C500010461946FDF72EFF03463B6497ED0E7AAA
:102C6000D7ED0E7A27EE277AD7ED0F6AD7ED0F7AD8
:102C700066EEA77A77EE277A17EE900AFDF7B0FC9A
:102C800002460B4643EC102B04F0AAFD53EC102B2C
:102C900010461946FDF70EFF0346FB624FF0000396
:102CA0003B633B6C7B637B6993ED017A7B69D3ED7E
:102CB000037A27EE277A7B69D3ED006A7B69D3ED2F
:102CC000027A66EEA77A77EE677A37EEA77AFB6824
:102CD000D3ED007A77EE677AC7ED117A7B6993EDD1
:102CE000007A7B69D3ED017A27EE277A7B69D3EDF1
:102CF000026A7B69D3ED037A66EEA77A77EE277ACC
:102D000037EEA77AFB68D3ED017A77EE677AC7EDE5
:102D1000127A7B6993ED017A7B69D3ED017A67EED4
:102D2000277A17EE900AFDF75BFC02460B464FF040
:102D300000003349FDF7F4FA02460B4614461D46DF
:102D40007B6993ED027A7B69D3ED027A67EE277A8D
:102D500017EE900AFDF744FC02460B462046294632
:102D6000FDF7DEFA02460B461046194602460B46B0
:102D7000FDF7D8FA02460B4614461D46FB689B68D1
:102D80001846FDF72DFC02460B4620462946FDF766
:102D9000C7FA02460B4610461946FDF78BFE03465E
:102DA000FB64D7ED0B7A77EEA77A17EE900AFDF762
:102DB00017FC04460D467B6993ED027A7B69D3EDDF
:102DC000027A67EE277A17EE900AFDF709FC0246B1
:102DD0000B464FF000000A49FDF7A2FA02460B46E7
:102DE000904699467B6993ED037A7B69D3ED037A2C
:102DF00067EE277A17EE900AFDF7F2FB02E000BFBC
:102E00000000E03F02460B4640464946FDF788FA7F
:102E100002460B4620462946FDF73AFC02460B4681
:102E200014461D46D7ED0D7A37EEA77A7B69D3EDB0
:102E3000016A7B69D3ED037A66EEA76A7B6993ED3D
:102E4000006A7B69D3ED027A66EE277A76EEE77A3E
:102E500067EE277A17EE900AFDF7C2FB02460B4693
:102E600020462946FDF75EFA02460B4614461D46EB
:102E7000D7F880301B681846FDF7B2FB02460B46B8
:102E800020462946FDF74CFA02460B4610461946E5
:102E9000FDF710FE03463B65D7ED0B7A37EEA77AB8
:102EA0007B69D3ED016A7B69D3ED027A66EEA76A8E
:102EB0007B6993ED006A7B69D3ED037A66EE277A2E
:102EC00076EEE77A27EE277AD7ED0D7A77EEA76AC6
:102ED0007B6993ED006A7B69D3ED017A26EE276A60
:102EE0007B69D3ED025A7B69D3ED037A65EEA77A4D
:102EF00076EE277A66EEA77A37EE277AD7F8803013
:102F0000D3ED017A77EE677AC7ED157AD7ED0B7AB4
:102F100037EEA77A7B69D3ED006A7B69D3ED027A3D
:102F200066EEA76A7B6993ED016A7B69D3ED037A4C
:102F300066EE277A76EEA77A67EE277A17EE900A82
:102F4000FDF74EFB04460D46D7ED0D7A77EEA77AD6
:102F500017EE900AFDF744FB804689467B6993EDA6
:102F6000017A7B69D3ED017A67EE277A17EE900A32
:102F7000FDF736FB02460B464FF00000EB49FDF72C
:102F8000CFF902460B4692469B467B6993ED027A47
:102F90007B69D3ED027A67EE277A17EE900AFDF788
:102FA0001FFB02460B4650465946FDF7B9F902464B
:102FB0000B4640464946FDF76BFB02460B46204652
:102FC0002946FDF7AFF902460B4614461D46D7F8D1
:102FD00080309B681846FDF703FB02460B462046EF
:102FE0002946FDF79DF902460B4610461946FDF7A6
:102FF00061FD0346BB657B69D3ED027AB8EE007ACA
:1030000027EE877AD7ED117A27EE277A7B69D3ED01
:10301000017A77EEA76AD7ED127A66EEA77A77EE95
:10302000277A9FEDC37A37EE877AD7ED0D7A77EE60
:10303000A76A7B69D3ED027A66EEA76AD7ED147AA8
:1030400066EEA77A37EE677AD7ED0B7AF8EE006A6C
:1030500067EEA66A7B69D3ED037A66EEA76AD7EDC1
:103060000D7A37EEA76A7B69D3ED017A66EE277A8F
:1030700076EEA76AD7ED157A66EEA77A37EE277A4D
:10308000D7ED0B7A77EEA76A7B69D3ED027A66EE0D
:10309000A76AD7ED167A66EEA77A77EE277AC7ED9C
:1030A000077A7B69D3ED037A37EEA77AD7ED117AE9
:1030B00027EE277A7B69D3ED007A77EEA76AD7ED02
:1030C000127A66EEA77A37EE277A7B69D3ED017A1A
:1030D000F1EE006A67EEA66AD7ED137A66EEA77A7C
:1030E00037EE677AD7ED0D7A77EEA76A7B69D3ED75
:1030F000037A66EEA76AD7ED147A66EEA77A37EE02
:10310000277AD7ED0B7A77EEA76A7B69D3ED027A3F
:1031100066EEA76AD7ED0D7A37EEA76A7B69D3ED25
:10312000007A66EE277A76EEA76AD7ED157A66EE14
:10313000A77A37EE277AD7ED0B7A77EEA76A7B6905
:10314000D3ED037A66EEA76AD7ED0D7AB1EE006A89
:1031500027EE866A7B69D3ED017A66EE277A76EEF2
:10316000E76AD7ED167A66EEA77A77EE277AC7ED8B
:10317000087A7B69D3ED007AB8EE007A27EE877A79
:10318000D7ED117A27EE277A7B69D3ED037A77EEB4
:10319000A76AD7ED127A66EEA77A37EE277A7B69AF
:1031A000D3ED027AF1EE006A67EEA66AD7ED137AE4
:1031B00066EEA77A37EE677AD7ED0B7AF9EE006AFA
:1031C00067EEA66A7B69D3ED027A66EEA76AD7ED51
:1031D0000D7A37EEA76A7B69D3ED007A66EE277A1F
:1031E00076EEE76AD7ED147A66EEA77A37EE277A9D
:1031F000D7ED0B7A77EEA76A7B69D3ED017A66EE9D
:10320000A76AD7ED0D7A37EEA76A7B69D3ED037A0B
:1032100066EE277A76EEA76AD7ED157A66EEA77A7C
:1032200037EE277AD7ED0B7A77EEA76A7B69D3ED75
:10323000007A66EEA76AD7ED0D7AB1EE006A27EE46
:10324000866A7B69D3ED027A66EE277A76EEE76AC4
:10325000D7ED167A66EEA77A77EE277AC7ED097A68
:103260007B69D3ED017A37EEA77AD7ED117A27EE95
:10327000277A7B69D3ED027A77EEA76AD7ED127AC7
:1032800066EEA77A77EE277A9FED297A37EE877A6E
:10329000D7ED0B7AF9EE006A67EEA66A7B69D3ED8B
:1032A000037A66EEA76AD7ED0D7A37EEA76A7B69D7
:1032B000D3ED017A66EE277A76EEA76AD7ED147A17
:1032C00066EEA77A37EE277AD7ED0B7AF8EE006A2A
:1032D00067EEA66A7B69D3ED007A66EEA76AD7ED42
:1032E0000D7A37EEA76A7B69D3ED027A66EE277A0C
:1032F00076EEA76AD7ED157A66EEA77A37EE277ACB
:10330000D7ED0B7A77EEA76A7B69D3ED017A66EE8B
:10331000A76AD7ED167A66EEA77A77EE277AC7ED19
:103320000A7A97ED076AD7ED086A03E00000E03FEC
:103330000000000097ED097AD7ED0A7AB0EE460A50
:10334000F0EE660AB0EE471AF0EE671A00F0D3FD11
:1033500087ED170AFA693B691A603A6A3B695A6055
:103360007A6A3B699A60BA6A3B69DA6000BF603783
:10337000BD46BDE8B08F00BF80B52DED028B8AB091
:1033800002AF78613961FA60BB6087ED010A3B6B7F
:10339000009397ED010ABB68FA6839697869FFF70D
:1033A000D9F8364BFB61364BBB6197ED067AD7ED0A
:1033B000017A27EE278ABB68D3ED006A93ED017A84
:1033C000D3ED027AB0EE660AF0EE470AB0EE671A65
:1033D00000F054FDF0EE407A28EE277AD7ED077A18
:1033E00077EE277A274BC3ED007A7B6993ED007A5D
:1033F0003B69D3ED006A234BD3ED007A66EEA77AE2
:1034000077EE677A3B69C3ED007A7B6993ED017AC9
:103410003B69D3ED016A1B4BD3ED007A66EEA77AC8
:1034200077EE677A3B69C3ED017A7B6993ED027AA7
:103430003B69D3ED026A134BD3ED007A66EEA77AAF
:1034400077EE677A3B69C3ED027A7B6993ED037A85
:103450003B69D3ED036A0B4BD3ED007A66EEA77A96
:1034600077EE677A3B69C3ED037A386900F0CBFDEC
:1034700000BF2037BD46BDEC028B80BD9A99993EB6
:103480000AD7233CE0080020B0B5A4B002AFF86230
:10349000B0EE615AF0EE425AB0EE626AF0EE436A64
:1034A000B0EE637AF0EE447AC7ED014A87ED080A80
:1034B000C7ED090A87ED0A1A87ED055AC7ED065AC6
:1034C00087ED076AC7ED026A87ED037AC7ED047AD4
:1034D00003F02CFB03463B6307F1140007F12002C5
:1034E00007F1680107F10803009397ED010A03460D
:1034F000F86AFFF72FF8FB6AD3ED017AB1EE677A2D
:10350000D7ED057A27EE277AFB6AD3ED026AD7ED6D
:10351000067A66EEA77A37EE677AFB6AD3ED036A1E
:10352000D7ED077A66EEA77A77EE677A17EE900AFC
:10353000FDF756F84FF00002B14BFDF7A9F802462F
:103540000B4614461D467868FDF74AF802460B46BE
:1035500020462946FDF79CF802460B4610461946C0
:10356000FDF7A8FA0346BB65FB6A93ED007AD7ED39
:10357000057A27EE277AFB6AD3ED026AD7ED077A40
:1035800066EEA77A37EE277AFB6AD3ED036AD7EDAA
:10359000067A66EEA77A77EE677A17EE900AFDF75D
:1035A0001FF84FF00002964BFDF772F802460B46EB
:1035B00014461D467868FDF713F802460B46204670
:1035C0002946FDF765F802460B4610461946FDF7F9
:1035D00071FA0346FB65FB6A93ED007AD7ED067A34
:1035E00027EE277AFB6AD3ED016AD7ED077A66EEFC
:1035F000A77A37EE677AFB6AD3ED036AD7ED057ACF
:1036000066EEA77A77EE277A17EE900AFCF7E8FFC6
:103610004FF000027A4BFDF73BF802460B4614468A
:103620001D467868FCF7DCFF02460B46204629461B
:10363000FDF72EF802460B4610461946FDF73AFAFA
:1036400003463B66FB6A93ED007AD7ED077A27EED7
:10365000277AFB6AD3ED016AD7ED067A66EEA77A80
:1036600037EE277AFB6AD3ED026AD7ED057A66EE6C
:10367000A77A77EE677A17EE900AFCF7B1FF4FF062
:1036800000025F4BFDF704F802460B4614461D4648
:103690007868FCF7A5FF02460B4620462946FCF752
:1036A000F7FF02460B4610461946FDF703FA03469C
:1036B0007B66544BC7F8843097ED1A6AD7ED1B6AC6
:1036C00097ED1C7AD7ED1D7AB0EE460AF0EE660A49
:1036D000B0EE471AF0EE671A00F00DFC87ED200AF5
:1036E00097ED166AD7ED176A97ED187AD7ED197A24
:1036F000B0EE460AF0EE660AB0EE471AF0EE671A30
:1037000000F0F9FB87ED1F0AD7ED216AD7ED207A8B
:1037100086EEA77AD7ED1F7ADFED3B6A67EEA67AD1
:10372000F7EE006A77EEA67A67EE277A9FED377A92
:1037300067EE877AC7ED1E7AFB6A93ED007AD7EDC4
:10374000167A37EE277AD7ED1A6AD7ED1E7A66EE2B
:10375000A76AD7ED017A66EEA77A77EE677AFB6AF9
:10376000C3ED007AFB6A93ED017AD7ED177A37EE55
:10377000277AD7ED1B6AD7ED1E7A66EEA76AD7EDDA
:10378000017A66EEA77A77EE677AFB6AC3ED017A73
:10379000FB6A93ED027AD7ED187A37EE277AD7EDE8
:1037A0001C6AD7ED1E7A66EEA76AD7ED017A66EE3F
:1037B000A77A77EE677AFB6AC3ED027AFB6A93ED2C
:1037C000037AD7ED197A37EE277AD7ED1D6AD7ED50
:1037D0001E7A66EEA76AD7ED017A66EEA77A77EED3
:1037E000677AFB6AC3ED037AF86A00F00CFC03F019
:1037F0009DF903463B6400BF8837BD46B0BD00BF9E
:103800000000E03F022B073D0000C8420000484393
:1038100080B400AF384B1B6B374A43F0020313638D
:10382000354B5B6C344A43F010035364334B1B68D5
:10383000324A23F440531360304B1B682F4A23F461
:10384000404313602D4B1B682C4A43F40053136014
:103850002A4B1B68294A43F400431360274B5B68DB
:10386000264A43F040035360244B5B68234A43F0ED
:1038700080035360214B9B68204A23F4405393609C
:103880001E4B9B681D4A23F4404393601B4B9B686F
:103890001A4A43F400539360184B9B68174A43F449
:1038A00000439360154BDB68144A23F44053D36004
:1038B000124BDB68114A23F44043D3600F4B1B6A61
:1038C0000E4A23F0606313620C4B1B6A0B4A23F011
:1038D00060431362094B1B6A084A43F0E0631362BA
:1038E000064B1B6A054A43F0E043136200BFBD4626
:1038F0005DF8047B704700BF0038024000040240BE
:1039000080B400AF1C4B9B899BB21B4A43F400530D
:103910009BB29381184B42F22E221A81164B9B893F
:103920009BB2154A23F480539BB29381124B9B891F
:103930009BB2114A23F480639BB293810E4B9B8907
:103940009BB20D4A43F020039BB293810A4B9B89A3
:103950009BB2094A43F008039BB29381064B9B89B3
:103960009BB2054A43F004039BB2938100BFBD465E
:103970005DF8047B704700BF0010014080B582B045
:1039800000AF0346FB71084BFA7992B29A8000BFF0
:1039900080210548FEF7C1FD0346002BF8D000BF8B
:1039A00000BF0837BD4680BD0010014080B500AFA4
:1039B000FFF72EFFFFF7A4FF00BF80BD80B500AF6B
:1039C00000F004F800F086F900BF80BD80B500AFBC
:1039D00001226B21D02000F0C5FF09221921D0203F
:1039E00000F0C0FF06221A21D02000F0BBFF1822F1
:1039F0001B21D02000F0B6FF18221C21D02000F09F
:103A0000B1FF02223721D02000F0ACFF00226A2152
:103A1000D02000F0A7FF00BF80BD000080B588B0B7
:103A200000AF78604FF083433B6107F10802062343
:103A30003B21D02000F02CFF3B7A1B029BB27A7A0C
:103A400013449BB21BB207EE903AB8EEE77AD7ED7B
:103A5000047A27EE277ADFED366AC7EE267AC7EDBD
:103A6000077ABB7A1B029BB2FA7A13449BB21BB251
:103A700007EE903AB8EEE77AD7ED047A27EE277A88
:103A8000DFED2B6AC7EE267AC7ED067A3B7B1B0279
:103A90009BB27A7B13449BB21BB207EE903AB8EE0E
:103AA000E77AD7ED047A27EE277ADFED216AC7EEB1
:103AB000267AC7ED057A1F4B1B78002B2AD01E4BA8
:103AC000D3ED007A97ED077A37EE677A1B4BD3ED8B
:103AD000007A67EE277AC7ED077A174BD3ED017AA4
:103AE00097ED067A37EE677A144BD3ED017A67EEDD
:103AF000277AC7ED067A104BD3ED027A97ED057A57
:103B000037EE677A0D4BD3ED027A67EE277AC7ED71
:103B1000057A00E000BF7B68FA691A607B68BA69C1
:103B20005A607B687A699A6000BF2037BD4680BDC5
:103B300000000047600500204805002054050020D3
:103B400080B588B000AF78605D4B3B6107F108023B
:103B500006234321D02000F09BFE3B7A1B029BB240
:103B60007A7A13449BB21BB207EE903AB8EEE77A2A
:103B7000D7ED047A27EE277ADFED526AC7EE267A70
:103B8000C7ED077ABB7A1B029BB2FA7A13449BB249
:103B90001BB207EE903AB8EEE77AD7ED047A27EE3B
:103BA000277ADFED486AC7EE267AC7ED067A3B7BB7
:103BB0001B029BB27A7B13449BB21BB207EE903A76
:103BC000B8EEE77AD7ED047A27EE277ADFED3D6A83
:103BD000C7EE267AC7ED057A3B4B1B78002B60D0E9
:103BE0003A4BD3ED007A97ED077A77EE677AC7ED17
:103BF000077A364BD3ED017A97ED067A77EE677A3E
:103C0000C7ED067A314BD3ED027A97ED057A77EE60
:103C1000677AC7ED057A2E4BD3ED007A97ED077AD8
:103C2000B4EEE77AF1EE10FA0CDB294BD3ED037A10
:103C300097ED077AB4EEE77AF1EE10FA02D84FF07A
:103C40000003FB61224BD3ED017A97ED067AB4EEC7
:103C5000E77AF1EE10FA0CDB1D4BD3ED047A97ED09
:103C6000067AB4EEE77AF1EE10FA02D84FF00003CC
:103C7000BB61174BD3ED027A97ED057AB4EEE77A84
:103C8000F1EE10FA0EDB124BD3ED057A97ED057AC3
:103C9000B4EEE77AF1EE10FA04D84FF000037B613E
:103CA00000E000BF7B68FA691A607B68BA695A60F5
:103CB0007B687A699A6000BF2037BD4680BD00BF2F
:103CC0000000FA4400000047610500206405002060
:103CD0007005002080B500AF702200213C2000F06C
:103CE0007FFE202201213C2000F07AFE00220221EA
:103CF0003C2000F075FE00BF80BD000080B58AB09A
:103D000000AF78604FF07E537B623E4B3B6207F121
:103D10000C02062303213C2000F0BAFD3B7B1B0272
:103D20009BB27A7B13449BB21BB207EE903AB8EE7B
:103D3000E77AD7ED097A67EE276A97ED087AC6EE3B
:103D4000877AC7ED077ABB7B1B029BB2FA7B1344D1
:103D50009BB21BB207EE903AB8EEE77AD7ED097A3C
:103D600067EE276A97ED087AC6EE877AC7ED067A7E
:103D70003B7C1B029BB27A7C13449BB21BB207EEC6
:103D8000903AB8EEE77AD7ED097A67EE276A97EDB1
:103D9000087AC6EE877AC7ED057A1B4BD3ED007A19
:103DA00097ED077A77EE676A184B93ED007AC6EEC7
:103DB000877A7B68C3ED007A134BD3ED017A97EDD8
:103DC000057A77EE676A114B93ED017AC6EE877A32
:103DD0007B68C3ED017A0C4BD3ED027A97ED067A3E
:103DE00077EE676A094B93ED027AC6EE877A7B68B5
:103DF000C3ED027A786800F0C7F800BF2837BD46E7
:103E000080BD00BF00408844880500209405002044
:103E100080B400AF174B1B6B164A43F001031363CA
:103E2000154B1B68144A23F440631360124B1B6844
:103E3000114A43F4806313600F4B5B680E4A23F012
:103E4000200353600C4B9B680B4A23F44063936040
:103E5000094B9B68084A43F480639360064BDB6818
:103E6000054A23F44063D36000BFBD465DF8047B80
:103E7000704700BF003802400000024080B584B0A7
:103E800000AFF0EE406AB0EE607AF0EE417AC7ED36
:103E9000016A87ED027AC7ED037A97ED017AD7EDD3
:103EA000017A27EE277AD7ED026AD7ED027A66EE1D
:103EB000A77A37EE277AD7ED036AD7ED037A66EE55
:103EC000A77A77EE277A17EE900AFCF789FB02466D
:103ED0000B4643EC102B03F083FC53EC102B1046E5
:103EE0001946FCF7E7FD034607EE903AB0EE670A85
:103EF0001037BD4680BD80B584B000AFB0EE406ADB
:103F0000F0EE606AB0EE417AF0EE617A87ED006A19
:103F1000C7ED016A87ED027AC7ED037A97ED007A63
:103F2000D7ED007A27EE277AD7ED016AD7ED017A2F
:103F300066EEA77A37EE277AD7ED026AD7ED027AD6
:103F400066EEA77A37EE277AD7ED036AD7ED037AC4
:103F500066EEA77A77EE277A17EE900AFCF740FB19
:103F600002460B4643EC102B03F03AFC53EC102BAB
:103F700010461946FCF79EFD034607EE903AB0EE58
:103F8000670A1037BD4680BD80B584B000AF786049
:103F90007B68D3ED006A93ED017AD3ED027AB0EE3F
:103FA000660AF0EE470AB0EE671AFFF767FF87ED83
:103FB000030AD7ED037AF5EE407AF1EE10FA1ED03F
:103FC0007B68D3ED006A97ED037AC6EE877A7B684B
:103FD000C3ED007A7B68D3ED016A97ED037AC6EEF4
:103FE000877A7B68C3ED017A7B68D3ED026A97ED2F
:103FF000037AC6EE877A7B68C3ED027A00E000BFE1
:104000001037BD4680BD80B584B000AF78607B6856
:1040100093ED006AD3ED016A93ED027AD3ED037A52
:10402000B0EE460AF0EE660AB0EE471AF0EE671AF6
:10403000FFF761FF87ED030AD7ED037AF5EE407ACB
:10404000F1EE10FA28D07B68D3ED006A97ED037A81
:10405000C6EE877A7B68C3ED007A7B68D3ED016A90
:1040600097ED037AC6EE877A7B68C3ED017A7B68A9
:10407000D3ED026A97ED037AC6EE877A7B68C3EDCB
:10408000027A7B68D3ED036A97ED037AC6EE877AEE
:104090007B68C3ED037A00E000BF1037BD4680BDEA
:1040A00080B582B000AF78607B681B681846FCF76B
:1040B00097FA1DA3D3E90023FCF7EAFA02460B4660
:1040C00010461946FCF7F6FC02467B681A607B68CE
:1040D0005B681846FCF784FA13A3D3E90023FCF7C6
:1040E000D7FA02460B4610461946FCF7E3FC024697
:1040F0007B685A607B689B681846FCF771FA0AA3D4
:10410000D3E90023FCF7C4FA02460B4610461946D1
:10411000FCF7D0FC02467B689A6000BF0837BD46BA
:1041200080BD00BFAFF30080F8C1631ADCA54C402E
:1041300090B583B000AF786039607B6893ED007A0A
:104140007B68D3ED017A27EE277A7B68D3ED026A8C
:104150007B68D3ED037A66EEA77A77EE277A37EE9F
:10416000A76A7B6893ED017A7B68D3ED017A27EE2D
:10417000277A7B68D3ED026A7B68D3ED027A66EE1C
:10418000A77A77EE277A77EEA77AB7EE007A77EEFE
:10419000677AF0EE670AB0EE460A03F055FBF0EEE0
:1041A000407A3B68C3ED007A7B6893ED007A7B68C8
:1041B000D3ED027A27EE277A7B68D3ED036A7B681A
:1041C000D3ED017A66EEA77A77EE677A77EEA77A73
:1041D000B7EE007A77EE877A17EE900AFCF700FACE
:1041E00002460B4643EC102B03F0FAFA53EC102B6B
:1041F00010461946FCF75EFC04467B6893ED007A96
:104200007B68D3ED027A27EE277A7B68D3ED036AC9
:104210007B68D3ED017A66EEA77A77EE677A77EE60
:10422000A77AB7EE007A77EE677A17EE900AFCF776
:10423000D7F902460B4643EC102B03F0D1FA53ECAE
:10424000102B10461946FCF735FC034600EE903A59
:1042500000EE104A03F0F8FAF0EE407A77EEA77A13
:1042600017EE900AFCF7BCF925A3D3E90023FCF76D
:1042700057F802460B4610461946FCF71BFC02464F
:104280003B685A607B6893ED007A7B68D3ED037AD4
:1042900027EE277A7B68D3ED016A7B68D3ED027A3B
:1042A00066EEA77A77EE277A37EEA76A7B6893EDFA
:1042B000027A7B68D3ED027A27EE277A7B68D3ED0A
:1042C000036A7B68D3ED037A66EEA77A77EE277AE6
:1042D00077EEA77AB7EE007A77EE677AF0EE670AA4
:1042E000B0EE460A03F0B0FAF0EE407A3B68C3ED58
:1042F000027A00BF0C37BD4690BD00BFAFF300800F
:10430000182D4454FB21F93F80B58AB000AF01213C
:104310000420FDF735FF01210220FDF751FF402366
:104320003B62022387F82530022387F8243007F107
:10433000200319461B48FDF793FE1A4B1B6A194AC6
:1043400043F00073136244F61F63BB615323BB82C7
:104350000023BB830023FB8207F114031946124894
:10436000FDF74EFF60233B8001237B800023BB8150
:104370003B4619460C48FDF7CFFF08210A48FEF7D7
:1043800045F801210848FDF7A7FF074B1B889BB2A2
:10439000054A43F080039BB2138000BF2837BD4617
:1043A00080BD00BF000802400004004080B400AFA0
:1043B0002A4B1B68294A23F440331360274B1B68A0
:1043C000264A23F440231360244B1B68234A43F4FA
:1043D00000331360214B1B68204A43F40023136011
:1043E0001E4B5B681D4A43F4807353601B4B5B6834
:1043F0001A4A43F400735360184B4FF440329A60EA
:10440000164B4FF440229A60144BDB68134A23F496
:104410004033D360114BDB68104A23F44023D36050
:104420000E4BDB680D4A43F48033D3600B4BDB68E3
:104430000A4A43F48023D360084B5B6A074A43F07F
:1044400004035362054B5B6A044A43F04003536222
:1044500000BFBD465DF8047B704700BF000402400A
:1044600080B400AF314B9B889BB2304A23F03F03AE
:104470009BB293802D4B9B889BB22C4A43F0040344
:104480009BB29380294B1B8C9BB2284A23F03F039D
:104490009BB21384254B1B8C9BB2244A43F480535C
:1044A00043F001039BB21384204B1B889BB21F4A2D
:1044B00043F001039BB213801C4B1B889BB21B4A29
:1044C00023F020039BB21380184B1B899BB2174A21
:1044D00023F07F039BB21381144B1B899BB2134AB9
:1044E00043F001039BB21381104B9B8B9BB20F4A8D
:1044F000C3F30E039BB293830C4B9B8B9BB20B4A73
:1045000023F47F6323F00F039BB29383074B9B8BB2
:104510009BB2064A43F42B5343F038039BB2938378
:1045200000BFBD465DF8047B704700BF00540040EB
:1045300080B483B000AF0346FB71FB79012B08D137
:104540000B4B1B889BB20A4A43F480739BB21380C7
:1045500007E0074B1B889BB2054A23F480739BB28C
:10456000138000BF0C37BD465DF8047B704700BF69
:104570000054004080B483B000AF0346FB71FB7968
:10458000012B08D10B4B1B889BB20A4A43F40073E2
:104590009BB2138007E0074B1B889BB2054A23F4AC
:1045A00000739BB2138000BF0C37BD465DF8047BDF
:1045B000704700BF0054004080B483B000AF034692
:1045C000FB71FB79012B08D10B4B1B889BB20A4A6C
:1045D00043F480639BB2138007E0074B1B889BB2B8
:1045E000054A23F480639BB2138000BF0C37BD469D
:1045F0005DF8047B704700BF0054004080B483B076
:1046000000AF0346FB71054BFA7992B21A8200BFE4
:104610000C37BD465DF8047B704700BF0054004076
:1046200080B400AF044B1B8A9BB2DBB21846BD4678
:104630005DF8047B704700BF0054004080B483B035
:1046400000AF03460A46FB711346BB71BB79012BD1
:1046500004D1FB7943F00103FB7103E0FB7923F004
:104660000103FB71044BFA7992B21A8200BF0C3736
:10467000BD465DF8047B70470054004080B483B0B1
:1046800000AF094B1B8BFB80FB885B089BB203F0E0
:104690000103002B01D0002300E0012318460C3752
:1046A000BD465DF8047B70470054004080B400AF05
:1046B0000F4B9B8A9BB203F00103012B11D10C4BD2
:1046C0001B8B9BB203F00103012B0AD1084B1B8B00
:1046D0009BB25B089BB203F00103012B01D10123C4
:1046E00000E000231846BD465DF8047B704700BF1C
:1046F0000054004080B483B000AF1F4B9B8AFB8006
:104700001D4B1B8BBB80FB885B089BB203F0010336
:10471000002B2AD0FB88DB099BB203F00103002B9E
:1047200023D0BB8803F00103002B1ED0BB885B089D
:104730009BB203F00103002B17D0BB889B089BB2F0
:1047400003F00103002B10D0FB885B0A9BB203F03F
:104750000103002B07D0084B9B8A9BB2064A43F407
:1047600080639BB29382012300E0002318460C373C
:10477000BD465DF8047B70470054004080B400AF34
:10478000194B9B8A9BB29B089BB203F00103012B40
:1047900023D1154B9B8A9BB2DB099BB203F001032B
:1047A000012B1AD1104B1B8B9BB203F00103012B81
:1047B00013D10D4B1B8B9BB25B089BB203F0010323
:1047C000012B0AD1084B1B8B9BB29B089BB203F0B9
:1047D0000103012B01D1012300E000231846BD464F
:1047E0005DF8047B704700BF0054004080B400AF08
:1047F000104B9B8A9BB25B089BB203F00103012B19
:1048000011D10C4B1B8B9BB203F00103012B0AD17E
:10481000084B1B8B9BB25B089BB203F00103012B7F
:1048200001D1012300E000231846BD465DF8047B5A
:10483000704700BF0054004080B400AF084B9B8A13
:104840009BB29B099BB203F00103012B01D1012311
:1048500000E000231846BD465DF8047B704700BFAA
:104860000054004080B400AF084B9B8A9BB2DB0928
:104870009BB203F00103012B01D1012300E00023CF
:104880001846BD465DF8047B704700BF00540040E9
:1048900090B585B000AF3A601A460346FB710B46EF
:1048A000BB7113467B7100BFFFF7E8FE0346002B88
:1048B000FAD00120FFF73CFE00BFFFF7F7FE0346EA
:1048C000002BFAD0FB7900211846FFF7B7FE00BF96
:1048D000FFF710FF0346002BFAD0BB791846FFF70D
:1048E0008DFE00BFFFF74AFF0346002BFAD00120E0
:1048F000FFF71EFE00BFFFF7D9FE0346002BFAD0DC
:10490000FB7901211846FFF799FE00BFFFF76EFF04
:104910000346002BFAD00020FFF72CFE0120FFF702
:104920004BFE0023FB730FE000BFFFF785FF03463C
:10493000002BFAD0FB7B3A68D418FFF771FE0346D0
:104940002370FB7B0133FB73FA7B7B799A42EBD3B9
:104950000020FFF731FE0120FFF70CFE00BF1437E7
:10496000BD4690BD80B582B000AF0346FB710B46DB
:10497000BB7113467B7100BFFFF780FE0346002B1F
:10498000FAD00120FFF7D4FD00BFFFF78FFE0346EA
:10499000002BFAD0FB7900211846FFF74FFE00BF2D
:1049A000FFF7A8FE0346002BFAD0BB791846FFF7A5
:1049B00025FE00BFFFF7E2FE0346002BFAD07B790D
:1049C0001846FFF71BFE00BFFFF7D8FE0346002B7B
:1049D000FAD00120FFF7CEFD00BF0837BD4680BDED
:1049E00080B582B000AF0346FB710B46BB71134626
:1049F0007B710120FFF7E0FD00BFFFF73FFE03469C
:104A0000002BFAD00120FFF793FD00BFFFF74EFE09
:104A10000346002BFAD0FB7900211846FFF70EFE63
:104A200000BFFFF767FE0346002BFAD0BB7918469C
:104A3000FFF7E4FD00BFFFF715FF0346002BFAD098
:104A40007B791846FFF7DAFD00BFFFF797FE0346B4
:104A5000002BFAD00120FFF78DFD0020FFF7ACFD01
:104A600000BF0837BD4680BD80B500AF084B1B6B4B
:104A7000074A43F002031363054B1B6C044A43F4DB
:104A800000131364FFF792FCFFF7EAFC00BF80BD40
:104A90000038024080B582B000AF864B5B6C854A1F
:104AA00043F001035364844B0022DA62824B1B887B
:104AB0009BB2814A23F010039BB213807E4B1B8D67
:104AC0009BB27D4A43F053039BB213857A4BDB6A5A
:104AD000794A43F49C4343F01F03D362764B9B8A8D
:104AE0009BB2754A43F002039BB29382724B1B88C0
:104AF0009BB2714A43F080039BB213806D4B1B6BDA
:104B00006C4A43F0010313636C4B5B6A6B4A43F0DE
:104B100001035362694B1B68684A23F440331360F6
:104B2000664B1B68654A43F400331360634B5B6854
:104B3000624A23F480735360604B9B685F4A43F47E
:104B4000003393605D4BDB685C4A23F44033D360F1
:104B5000594B1B8B9BB2584A43F001039BB2138302
:104B6000554B1B8B9BB2544A23F00C039BB213830F
:104B7000514B1B8B9BB2504A23F0F0039BB2138323
:104B80004D4B1B8C9BB24C4A43F001039BB21384E8
:104B9000494B1B8C9BB2484A23F002039BB21384FF
:104BA000454B1B8C9BB2444A23F008039BB21384F1
:104BB000414B1B8B9BB2404A43F400739BB213835F
:104BC0003D4B1B8B9BB23C4A23F440639BB2138347
:104BD000394B1B8B9BB2384AC3F30B039BB2138335
:104BE000354B1B8C9BB2344A43F010039BB21384A9
:104BF000314B1B8C9BB2304A43F020039BB2138491
:104C00002D4B1B8C9BB22C4A43F080039BB2138428
:104C1000294B1B899BB2284A23F00A039BB21381BC
:104C2000254B1B899BB2244A43F004039BB213819A
:104C3000214B1B899BB2204A23F070039BB2138146
:104C40001D4B1B899BB21C4A43F050039BB213813E
:104C5000194B1B899BB2184A43F080039BB2138106
:104C6000012202211448FDF7F9FB4FF4A060FDF783
:104C700081F91B233B710123FB7102237B7101230B
:104C8000BB713B1D1846FDF789F90B4B9B899BB205
:104C9000094A43F002039BB29381074B1B889BB2E6
:104CA000054A43F001039BB2138000BF0837BD469D
:104CB00080BD00BF003802400000014000000240FB
:104CC00080B400AF0A4BDB684FF47A7202FB03F347
:104CD000A3F57423A3F5C563064AA2FB03239B092E
:104CE00003F57A731846BD465DF8047B704700BF34
:104CF000E8080020D34D621080B582B000AF0221D9
:104D00001D48FDF7CFFB0346012B2BD11A48FDF7B9
:104D100099FB034601337B607B68B3F5805F02D962
:104D2000164B01221A60154B1B68012B16D1124835
:104D3000FDF788FB0146124B1B685A1C10480260A5
:104D40004A1C104941F823200D4B1B68082B05D93C
:104D50000B4B00221A60094B00221A600221064800
:104D6000FDF7CAFBFFF7ACFF0346074A136000BF1D
:104D70000837BD4680BD00BF000001401409002077
:104D800010090020E8080020E408002080B582B067
:104D900000AF7860FEF70AFE164802F081F8164B65
:104DA0001B8801339AB2144B1A80FFF75DFE13483B
:104DB00002F076F8104B1B8801339AB20E4B1A8022
:104DC000FEF7FCFD0E4802F06BF80B4B1B8801331D
:104DD0009AB2094B1A80FFF75DFEFFF795FA094872
:104DE00002F05EF8FF2001F00FFC00BF0837BD465F
:104DF00080BD00BF647D000818690020807D000828
:104E0000947D0008A87D000880B598B000AFB0EE92
:104E1000446AF0EE646AB0EE457AF0EE657A87EDAA
:104E2000090AC7ED0A0A87ED0B1AC7ED061A87EDC6
:104E3000072AC7ED082A87ED033AC7ED043A87ED44
:104E4000056AC7ED006A87ED017AC7ED027A002393
:104E500087F85F3007F13403202200211846FCF761
:104E6000EDF9882387F83430AF2387F835301C23D9
:104E700087F83630D7ED097A9FEDD17A67EE877AD9
:104E8000FDEEE77A17EE903A1BB21B121BB25BB233
:104E900087F83730D7ED097A9FEDC97A67EE877AC0
:104EA000FDEEE77A17EE903A1BB25BB287F8383026
:104EB000D7ED0A7A9FEDC27A67EE877AFDEEE77A40
:104EC00017EE903A1BB21B121BB25BB287F8393057
:104ED000D7ED0A7A9FEDBA7A67EE877AFDEEE77A28
:104EE00017EE903A1BB25BB287F83A30D7ED0B7AE7
:104EF0009FEDB37A67EE877AFDEEE77A17EE903A88
:104F00001BB21B121BB25BB287F83B30D7ED0B7A9A
:104F10009FEDAB7A67EE877AFDEEE77A17EE903A6F
:104F20001BB25BB287F83C30D7ED067A9FEDA47ACE
:104F300067EE877AFDEEE77A17EE903A1BB21B1206
:104F40001BB25BB287F83D30D7ED067A9FED9C7AB5
:104F500067EE877AFDEEE77A17EE903A1BB25BB206
:104F600087F83E30D7ED077A9FED957A67EE877A1E
:104F7000FDEEE77A17EE903A1BB21B121BB25BB242
:104F800087F83F30D7ED077A9FED8D7A67EE877A05
:104F9000FDEEE77A17EE903A1BB25BB287F840302D
:104FA000D7ED087A9FED867A67EE877AFDEEE77A8D
:104FB00017EE903A1BB21B121BB25BB287F841305E
:104FC000D7ED087A9FED7E7A67EE877AFDEEE77A75
:104FD00017EE903A1BB25BB287F84230D7ED037AF6
:104FE0009FED777A67EE877AFDEEE77A17EE903AD3
:104FF0001BB21B121BB25BB287F84330D7ED037AAA
:105000009FED6F7A67EE877AFDEEE77A17EE903ABA
:105010001BB25BB287F84430D7ED047A9FED687A13
:1050200067EE877AFDEEE77A17EE903A1BB21B1215
:105030001BB25BB287F84530D7ED047A9FED607AFA
:1050400067EE877AFDEEE77A17EE903A1BB25BB215
:1050500087F84630D7ED057A9FED597A67EE877A63
:10506000FDEEE77A17EE903A1BB21B121BB25BB251
:1050700087F84730D7ED057A9FED517A67EE877A4A
:10508000FDEEE77A17EE903A1BB25BB287F8483034
:10509000D7ED007A9FED4A7A67EE877AFDEEE77AE0
:1050A00017EE903A1BB21B121BB25BB287F8493065
:1050B000D7ED007A9FED427A67EE877AFDEEE77AC8
:1050C00017EE903A1BB25BB287F84A30D7ED017AFF
:1050D0009FED3B7A67EE877AFDEEE77A17EE903A1E
:1050E0001BB21B121BB25BB287F84B30D7ED017AB3
:1050F0009FED337A67EE877AFDEEE77A17EE903A06
:105100001BB25BB287F84C30D7ED027AB2EE047A6C
:1051100067EE877AFDEEE77A17EE903A1BB21B1224
:105120001BB25BB287F84D30D7ED027AB2EE047A4B
:1051300067EE877AFDEEE77A17EE903A1BB25BB224
:1051400087F84E30002387F84F30002387F850301F
:10515000002387F85130002387F852300023BB65C5
:105160000EE007F13402BB6D134493F90030DAB25C
:1051700097F85F30134487F85F30BB6D0133BB6530
:10518000BB6D1E2BEDDD97F95F3087F853300023A0
:105190007B650CE007F134027B6D134493F900301A
:1051A000DBB21846FEF7EAFB7B6D01337B657B6D56
:1051B0001F2BEFDD00BF00BF6037BD4680BD00BFC5
:1051C0000000C84290B5A5B002AF78604FF07E53A2
:1051D0007B674FF00003BB674FF00003FB674FF0A6
:1051E0000003C7F88030002387F887305DE007F1BF
:1051F00058031846FEF712FC07F140031846FEF765
:105200009FFC07F14C031846FEF778FD07F14004B8
:1052100007F1580207F1640107F1740007F14C032C
:1052200000939FED5E0A2346FEF7A6F807F174048B
:1052300007F164030FCB84E80F0007F1340207F194
:10524000740311461846FEF773FF07F1340318463E
:10525000FEF726FFD7ED0D4A97ED0E5AD7ED0F5A00
:1052600097ED133AD7ED143A97ED154A97ED102ABA
:10527000D7ED112A97ED126AD7ED166A97ED177AD6
:10528000D7ED187AF0EE421AB0EE622AF0EE462A16
:10529000B0EE660AF0EE470AB0EE671AFFF7B4FD0B
:1052A00097F88730013387F8873097F88730312BAC
:1052B0009DD907F140031846FEF742FC01F036FC89
:1052C00003463B6107F158031846FEF7A7FB01F0C0
:1052D0002DFC03467B6107F14C031846FEF70EFDDB
:1052E00001F024FC0346BB6197ED133AD7ED143A65
:1052F00097ED154A97ED105AD7ED115A97ED126AAE
:10530000D7ED166A97ED177AD7ED187A07F174037F
:10531000DFED224AF0EE451AB0EE652AF0EE462A9D
:10532000B0EE660AF0EE470AB0EE671A1846FEF7CE
:10533000ABF807F1340207F1740311461846FEF783
:10534000F7FE07F134031846FEF7AAFED7ED0D4A23
:1053500097ED0E5AD7ED0F5A97ED133AD7ED143A51
:1053600097ED154A97ED102AD7ED112A97ED126A9D
:10537000D7ED166A97ED177AD7ED187AF0EE421A44
:10538000B0EE622AF0EE462AB0EE660AF0EE470A68
:10539000B0EE671AFFF738FD00BF8AE76F12833A55
:1053A00080B588B006AF78601D4800F06BF8FEF756
:1053B0002FFD00230493002303934FF40063029313
:1053C000184B0193082300930823174A002117481C
:1053D00001F0B4F8164A1749082001F0FBF940F62D
:1053E000B83001F047FB00230493002303934FF4EC
:1053F00000630293104B01930C2300930C230F4A7C
:1054000000210F4801F09AF80E4A0F490C2001F0D4
:10541000E1F9FF2001F0F8F800BF0837BD4680BD74
:1054200040D10C0018290020144900208D4D00089F
:105430003C7E0008507E00081849002014690020B6
:10544000C5510008607E0008707E000880B500AF7E
:1054500000F052F90223074A0021074801F00EF834
:10546000064A0749022001F0B5F900F0CDF9002302
:10547000184680BD14290020A15300087C7E000836
:105480008C7E000880B483B000AF7860124B5A68FD
:105490007B68013B104913434B600F4B5A680E4B1E
:1054A0009B680D4913438B600B4B1B680A4A43F002
:1054B00004031360084B1B68074A43F002031360A0
:1054C000054B1B68044A43F00103136000BF0C370F
:1054D000BD465DF8047B704710E000E080B483B007
:1054E00000AF124B3B604FF480737B6007E07B683A
:1054F000013B7B603B681A1D3A6000221A607B68A2
:10550000002BF4D10A4B0B4A1A60094B1B6823F09D
:1055100007031A46064B1A60074B40221A6000BF69
:105520000C37BD465DF8047B704700BF1C69002046
:105530001C6D00201C6D0020206D002080B400AF89
:1055400000BFBD465DF8047B704780B483B000AFF8
:10555000786000BF0C37BD465DF8047B704780B4AF
:1055600083B000AF786000BF0C37BD465DF8047BA8
:10557000704780B400AF00BFBD465DF8047B704744
:1055800080B483B000AF786000BF0C37BD465DF8D3
:10559000047B704780B400AF00BFBD465DF8047B5C
:1055A0007047000080B487B000AFF860B9607A60DF
:1055B0007B807B6804337B617B6923F007037B611D
:1055C0007B69043B7B617B694FF080721A607B6969
:1055D000043B7B61FA687B691A607B69043B7B61F1
:1055E000354A7B691A607B69043B7B617B694FF0BC
:1055F00012321A607B69043B7B617B694FF0033296
:105600001A607B69043B7B617B694FF002321A6050
:105610007B69043B7B617B694FF001321A607B69D7
:10562000043B7B61BA687B691A607B69043B7B61E0
:105630007B696FF002021A607B69043B7B617B69C6
:105640004FF011321A607B69043B7B617B694FF03C
:1056500010321A607B69043B7B617B694FF0093231
:105660001A607B69043B7B617B694FF008321A60EA
:105670007B69043B7B617B694FF007321A607B6971
:10568000043B7B617B694FF006321A607B69043B07
:105690007B617B694FF005321A607B69043B7B615B
:1056A0007B694FF004321A607B6918461C37BD468F
:1056B0005DF8047B704700BF116A000880B483B0B6
:1056C00000AF786000BF0C37BD465DF8047B7047C3
:1056D00080B582B000AF4020FAF781FD786000F01D
:1056E00027F87868FAF789FD00F0B6F800F03AF884
:1056F00000BF0837BD4680BD80B500AFFFF7EEFEA6
:1057000000F0CEF900F00AFA00F086FA00F07EF917
:1057100000F0C6FD00F036FE00F074FE00F030FA36
:1057200000F054FAFFF70AFF00F0F8FC00BF80BD5C
:1057300080B400AF094B1B78012B09D1084B1B78B3
:10574000FF2B05D0064B1B780133DAB2044B1A70DD
:1057500000BFBD465DF8047B704700BF907000201D
:105760008070002080B582B000AF00237B601E4BAC
:105770001B78012B34D14020FAF731FD78601B4BA8
:105780001B78002B05D0194B1B78013BDAB2174B65
:105790001A70164B1B78002B1FD1154B1B78002B52
:1057A0001BD100F0E3FA134B1B781A46124B53F847
:1057B0002230124A13600F4B1A78114B1B789A4211
:1057C0000BD00E4B1B689A6B01329A630D4B1B6812
:1057D00001330C4A1360FAF757FD7868FAF70DFDAC
:1057E00000BF0837BD4680BD90700020807000204B
:1057F0008170002083700020A8720020A072002019
:1058000082700020246D002080B500AF0C4B1B7807
:10581000002B13D100F0AAFA0A4B1A780A4B1A701F
:10582000084B1B781A46094B53F82230084A13607C
:10583000074B1B68074A1360FAF7E8FC00BF80BDFE
:10584000907000208370002082700020A8720020D9
:10585000A07200209872002080B584B000AF0023B1
:105860007B604020FAF7BBFC7860454B1B68013336
:10587000434A13607868FAF7C0FC424B1B78012B4F
:105880007AD1414B1B78022B0CD0022B10DC002B61
:1058900002D0012B03D00BE00123FB720EE00023AA
:1058A000FB720BE00123FB72374B01221A7005E0FB
:1058B0000123FB72344B00221A7000BFFB7A002BCD
:1058C00059D0324B1B68FB604FE04020FAF787FC51
:1058D0007860FB68DB6A002B41D0FB68DB6A5A1EEC
:1058E000FB68DA62FB68DB6A002B38D1FB6893F84F
:1058F000303003F03703002B0DD0FB6893F83030C5
:1059000023F03703DAB2FB6883F83020FB6801220A
:1059100083F8312003E0FB68002283F83120FB6824
:1059200093F8303003F00803002B18D1FB6893F88C
:105930003620174B1B781343DAB2154B1A70FB68ED
:1059400093F834301A46134B9A5CFB6893F8353061
:10595000F96891F834101343DAB20E4B5A54FB68CD
:105960005B69FB607868FAF748FCFB6893F83230B3
:105970003F2BAAD100E000BF1037BD4680BD00BF5D
:10598000C87B002090700020E07A0020A4720020E4
:10599000847000208870002080B400AF00BFBD4636
:1059A0005DF8047B704780B485B000AF78603960E3
:1059B0007B6893F83430FB73FB7B3A681344D97AE5
:1059C0007B6893F83530DB43DAB2FB7B0A40D1B217
:1059D0003A6813440A46DA72FB7B3A681344DB7A6E
:1059E000002B0AD13B689A7A7B6893F83630DB4308
:1059F000DBB21340DAB23B689A727B680022DA614C
:105A000000BF1437BD465DF8047B704780B584B095
:105A100000AFF0211F4800F04DF90023FB811EE08C
:105A2000FB890133FB80FA8913465B001344DB00DA
:105A3000184A1344BB60FA8813465B001344DB002A
:105A4000144A13443B60BB6800221A70BB683A6872
:105A50005A60BB68104A5A61FB890133FB81FB899C
:105A6000082BDDD9FA8913465B001344DB00094A91
:105A70001344BB60BB6800221A70BB6800225A60E6
:105A8000BB68054A5A61054B024A1A6000BF1037CD
:105A9000BD4680BD2C6D0020987E0008286D00203A
:105AA00080B400AF124B00221A60124B00221A7011
:105AB000114B00221A70114B00221A70104B002259
:105AC0001A70104B00221A600F4B00221A600F4B05
:105AD00000221A600E4B00221A600E4B00221A7030
:105AE0000D4B00221A7000BFBD465DF8047B704765
:105AF000C87B002080700020817000209170002001
