:020000040800F2
:1000000000800120AD3D0008FD3D0008FD3D0008D9
:10001000FD3D0008FD3D0008FD3D0008000000001A
:10002000000000000000000000000000FD3D00088E
:10003000FD3D000800000000930200086333000843
:10004000FD3D0008FD3D0008FD3D0008FD3D0008A8
:10005000FD3D0008FD3D0008FD3D0008FD3D000898
:10006000FD3D0008FD3D0008FD3D0008FD3D000888
:10007000FD3D0008FD3D0008FD3D0008FD3D000878
:10008000FD3D0008FD3D0008FD3D000800000000AA
:10009000000000000000000000000000FD3D00081E
:1000A000FD3D0008FD3D0008FD3D0008C52F00088E
:1000B000FD3D0008FD3D0008FD3D0008FD3D000838
:1000C000FD3D0008FD3D0008FD3D0008FD3D000828
:1000D000FD3D0008FD3D0008FD3D0008000000005A
:1000E000FD3D0008FD3D0008FD3D0008000000004A
:1000F000000000000000000000000000FD3D0008BE
:1001000000000000FD3D0008FD3D0008FD3D000829
:1001100000000000000000000000000000000000DF
:10012000FD3D0008FD3D0008FD3D0008FD3D0008C7
:10013000FD3D00080000000000000000000000007D
:10014000000000000000000000000000FD3D00086D
:10015000FD3D0008FD3D0008FD3D0008FD3D000897
:10016000FD3D0008FD3D000800000000000000000B
:10017000000000000000000000000000000000007F
:1001800000000000FD3D000800000000000000002D
:04019000FD3D000829
:1001C000EFF3098121B120ED108A4F490A681060D0
:1001D0007047B0EC108A4D490A681060704772B6DB
:1001E00002B4EFF3118180F31188BFF34F8FBFF397
:1001F0006F8F084602BC62B6704772B680F31188F2
:10020000BFF34F8FBFF36F8F62B6704772B64EF673
:100210002250CEF2000040F2FF01C0F20001017056
:10022000002080F309884AF63C20C2F200000168F1
:1002300081F308883648012101704BF63210C2F272
:1002400000004BF63111C2F200010A7802704BF245
:100250001C70C2F200004BF21471C2F200010A6875
:100260000260106880F30988EFF3148040F0020008
:1002700080F31488BFF36F8FBDE8F04F0FBCBDE86B
:10028000005006BC62B6084722484FF0805101601A
:10029000704772B64AF63822C2F20002116881F342
:1002A0001188BFF34F8FBFF36F8F62B6EFF30980F2
:1002B00020E9F04F4BF21C75C2F200052968086076
:1002C00074464BF63210C2F200004BF63111C2F206
:1002D00000010A7802704BF21471C2F200010A6840
:1002E0002A6044F0040E1068B0E8F04F80F30988EB
:1002F0004FF0000272B682F31188BFF34F8FBFF345
:100300006F8F62B6704700001CB7002014B7002042
:1003100025B9002004ED00E081F0004102E000BFBB
:1003200083F0004330B54FEA41044FEA430594EAB5
:10033000050F08BF90EA020F1FBF54EA000C55EAF0
:10034000020C7FEA645C7FEA655C00F0E2804FEAC1
:100350005454D4EB5555B8BF6D420CDD2C4480EAA3
:10036000020281EA030382EA000083EA010180EAD3
:10037000020281EA0303362D88BF30BD11F0004F21
:100380004FEA01314FF4801C4CEA113102D0404257
:1003900061EB410113F0004F4FEA03334CEA133392
:1003A00002D0524263EB430394EA050F00F0A780AA
:1003B000A4F10104D5F1200E0DDB02FA0EFC22FAA5
:1003C00005F2801841F1000103FA0EF2801843FA99
:1003D00005F359410EE0A5F120050EF1200E012A8A
:1003E00003FA0EFC28BF4CF0020C43FA05F3C018C8
:1003F00051EBE37101F0004507D54FF0000EDCF141
:10040000000C7EEB00006EEB0101B1F5801F1BD3E9
:10041000B1F5001F0CD349085FEA30004FEA3C0CED
:1004200004F101044FEA445212F5800F80F09A80E3
:10043000BCF1004F08BF5FEA500C50F1000041EBE7
:10044000045141EA050130BD5FEA4C0C404141EBEB
:100450000101013C28BFB1F5801FE9D291F0000FE6
:1004600004BF01460020B1FA81F308BF2033A3F195
:100470000B03B3F120020CDA0C3208DD02F1140C8C
:10048000C2F10C0201FA0CF021FA02F10CE002F1C7
:100490001402D8BFC2F1200C01FA02F120FA0CFCC0
:1004A000DCBF41EA0C019040E41AA2BF01EB045109
:1004B000294330BD6FEA04041F3C1CDA0C340EDC07
:1004C00004F11404C4F1200220FA04F001FA02F34A
:1004D00040EA030021FA04F345EA030130BDC4F108
:1004E0000C04C4F1200220FA02F001FA04F340EAFD
:1004F0000300294630BD21FA04F0294630BD94F0AE
:10050000000F83F4801306BF81F480110134013D94
:100510004EE77FEA645C18BF7FEA655C29D094EA05
:10052000050F08BF90EA020F05D054EA000C04BF83
:100530001946104630BD91EA030F1EBF002100206E
:1005400030BD5FEA545C05D14000494128BF41F00D
:10055000004130BD14F580043CBF01F5801130BD71
:1005600001F0004545F0FE4141F470014FF00000FC
:1005700030BD7FEA645C1ABF194610467FEA655CAD
:100580001CBF0B46024650EA013406BF52EA03354F
:1005900091EA030F41F4002130BD00BF90F0000F3D
:1005A00004BF0021704730B54FF4806404F1320479
:1005B0004FF000054FF0000150E700BF90F0000F32
:1005C00004BF0021704730B54FF4806404F1320459
:1005D00010F0004548BF40424FF000013EE700BF29
:1005E00042004FEAE2014FEA31014FEA02701FBFB9
:1005F00012F07F4393F07F4F81F06051704732F0EB
:100600007F4208BF704793F07F4F04BF41F4002141
:10061000704730B54FF4607401F0004521F000419F
:100620001CE700BF50EA010208BF704730B54FF029
:1006300000050AE050EA010208BF704730B511F02A
:10064000004502D5404261EB41014FF4806404F162
:1006500032045FEA915C3FF4D8AE4FF003025FEAE8
:10066000DC0C18BF03325FEADC0C18BF033202EB6C
:10067000DC02C2F1200300FA03FC20FA02F001FAC6
:1006800003FE40EA0E0021FA02F11444BDE600BF69
:1006900070B54FF0FF0C4CF4E06C1CEA11541DBF18
:1006A0001CEA135594EA0C0F95EA0C0F00F0DEF8E3
:1006B0002C4481EA030621EA4C5123EA4C5350EAC8
:1006C000013518BF52EA033541F4801143F4801319
:1006D00038D0A0FB02CE4FF00005E1FB02E506F0AA
:1006E0000042E0FB03E54FF00006E1FB03569CF0FF
:1006F000000F18BF4EF0010EA4F1FF04B6F5007F05
:1007000064F5407404D25FEA4E0E6D4146EB060676
:1007100042EAC62141EA55514FEAC52040EA5E50FF
:100720004FEACE2EB4F1FD0C88BFBCF5E06F1ED8A9
:10073000BEF1004F08BF5FEA500E50F1000041EBE0
:10074000045170BD06F0004646EA010140EA02008D
:1007500081EA0301B4EB5C04C2BFD4EB0C0541EAAF
:10076000045170BD41F480114FF0000E013C00F3C4
:10077000AB8014F1360FDEBF002001F0004170BDE8
:10078000C4F10004203C35DA0C341BDC04F1140401
:10079000C4F1200500FA05F320FA04F001FA05F28D
:1007A00040EA020001F0004221F0004110EBD3705A
:1007B00021FA04F642EB06015EEA430E08BF20EA86
:1007C000D37070BDC4F10C04C4F1200500FA04F329
:1007D00020FA05F001FA04F240EA020001F00041BB
:1007E00010EBD37041F100015EEA430E08BF20EA2E
:1007F000D37070BDC4F1200500FA05F24EEA020E76
:1008000020FA04F301FA05F243EA020321FA04F0A4
:1008100001F0004121FA04F220EA020000EBD3705B
:100820005EEA430E08BF20EAD37070BD94F0000F5B
:100830000FD101F00046400041EB010111F4801F8F
:1008400008BF013CF7D041EA060195F0000F18BF40
:10085000704703F00046520043EB030313F4801F7C
:1008600008BF013DF7D043EA0603704794EA0C0F36
:100870000CEA135518BF95EA0C0F0CD050EA41064C
:1008800018BF52EA4306D1D181EA030101F00041C9
:100890004FF0000070BD50EA410606BF10461946F1
:1008A00052EA430619D094EA0C0F02D150EA0136FD
:1008B00013D195EA0C0F05D152EA03361CBF10463E
:1008C00019460AD181EA030101F0004141F0FE41DD
:1008D00041F470014FF0000070BD41F0FE4141F461
:1008E000780170BD70B54FF0FF0C4CF4E06C1CEA61
:1008F00011541DBF1CEA135594EA0C0F95EA0C0F16
:1009000000F0A7F8A4EB050481EA030E52EA0335D0
:100910004FEA013100F088804FEA03334FF08055F1
:1009200045EA131343EA12634FEA022245EA11151E
:1009300045EA10654FEA00260EF000419D4208BFCF
:10094000964244F1FD0404F5407402D25B084FEA7C
:100950003202B61A65EB03055B084FEA32024FF428
:1009600080104FF4002CB6EB020E75EB030E22BF85
:10097000B61A754640EA0C005B084FEA3202B6EB45
:10098000020E75EB030E22BFB61A754640EA5C00F4
:100990005B084FEA3202B6EB020E75EB030E22BF84
:1009A000B61A754640EA9C005B084FEA3202B6EB85
:1009B000020E75EB030E22BFB61A754640EADC0044
:1009C00055EA060E18D04FEA051545EA16754FEAA6
:1009D00006164FEAC30343EA52734FEAC2025FEAC4
:1009E0001C1CC0D111F4801F0BD141EA00014FF053
:1009F00000004FF0004CB6E711F4801F04BF014324
:100A00000020B4F1FD0C88BFBCF5E06F3FF6AFAE3F
:100A1000B5EB030C04BFB6EB020C5FEA500C50F1CF
:100A2000000041EB045170BD0EF0004E4EEA113152
:100A300014EB5C04C2BFD4EB0C0541EA045170BD59
:100A400041F480114FF0000E013C90E645EA060E9D
:100A50008DE60CEA135594EA0C0F08BF95EA0C0FCB
:100A60003FF43BAF94EA0C0F0AD150EA01347FF413
:100A700034AF95EA0C0F7FF425AF104619462CE7EA
:100A800095EA0C0F06D152EA03353FF4FDAE10464D
:100A9000194622E750EA410618BF52EA43067FF49E
:100AA000C5AE50EA41047FF40DAF52EA43057FF42E
:100AB000EBAE12E74FF0FF3C06E000BF4FF0010C39
:100AC00002E000BF4FF0010C4DF804CD4FEA410C9D
:100AD0007FEA6C5C4FEA430C18BF7FEA6C5C1BD06A
:100AE00001B050EA410C0CBF52EA430C91EA030FEB
:100AF00002BF90EA020F0020704710F1000F91EA48
:100B0000030F58BF994208BF90422CBFD8176FEA15
:100B1000E37040F0010070474FEA410C7FEA6C5CE3
:100B200002D150EA013C07D14FEA430C7FEA6C5CEA
:100B3000D6D152EA033CD3D05DF8040B704700BF16
:100B40008446104662468C461946634600E000BF64
:100B500001B5FFF7B7FF002848BF10F1000F01BD36
:100B60004DF808EDFFF7F4FF0CBF012000205DF801
:100B700008FB00BF4DF808EDFFF7EAFF34BF012086
:100B800000205DF808FB00BF4DF808EDFFF7E0FF1F
:100B900094BF012000205DF808FB00BF4DF808ED70
:100BA000FFF7CEFF94BF012000205DF808FB00BFD7
:100BB0004DF808EDFFF7C4FF34BF012000205DF8B9
:100BC00008FB00BF844641EA000313F003036DD124
:100BD000403A41D351F8043B40F8043B51F8043B00
:100BE00040F8043B51F8043B40F8043B51F8043B07
:100BF00040F8043B51F8043B40F8043B51F8043BF7
:100C000040F8043B51F8043B40F8043B51F8043BE6
:100C100040F8043B51F8043B40F8043B51F8043BD6
:100C200040F8043B51F8043B40F8043B51F8043BC6
:100C300040F8043B51F8043B40F8043B51F8043BB6
:100C400040F8043B51F8043B40F8043B51F8043BA6
:100C500040F8043B403ABDD2303211D351F8043B46
:100C600040F8043B51F8043B40F8043B51F8043B86
:100C700040F8043B51F8043B40F8043B103AEDD2F5
:100C80000C3205D351F8043B40F8043B043AF9D246
:100C9000043208D0D2071CBF11F8013B00F8013B19
:100CA00001D30B8803806046704700BF082A13D326
:100CB0008B078DD010F003038AD0C3F10403D21A3E
:100CC000DB071CBF11F8013B00F8013B80D331F872
:100CD000023B20F8023B7BE7043AD9D3013A11F8F2
:100CE000013B00F8013BF9D20B7803704B7843705D
:100CF0008B788370604670470000000000000000A1
:100D000030B490F800F020F007016FF0000C10F004
:100D1000070491F820F040F048804FF000046FF095
:100D20000700D1E9002391F840F000F1080082FAB1
:100D30004CF2A4FA8CF283FA4CF3A2FA8CF34BBB7C
:100D4000D1E9022382FA4CF200F10800A4FA8CF2F5
:100D500083FA4CF3A2FA8CF3E3B9D1E9042382FAC3
:100D60004CF200F10800A4FA8CF283FA4CF3A2FAD8
:100D70008CF37BB9D1E9062301F1200182FA4CF210
:100D800000F10800A4FA8CF283FA4CF3A2FA8CF377
:100D9000002BC6D0002A04BF04301A4612BAB2FA99
:100DA00082F200EBD20030BC7047D1E9002304F09E
:100DB0000305C4F100004FEAC50514F0040F91F8D3
:100DC00040F00CFA05F562EA05021CBF63EA050370
:100DD00062464FF00004AAE7000000000000000097
:100DE00001F0FF01102A2BDB10F0070F08D010F8DC
:100DF000013B013A8B422DD010F0070F42B3F6D1E0
:100E0000F0B441EA012141EA014122F007047FF0F8
:100E100000070023F0E80256083C85EA010586EA4F
:100E2000010685FA47F5A3FA87F586FA47F6A5FA8B
:100E300087F68EB9EED1F0BC01F0FF0102F0070297
:100E400032B110F8013B013A83EA010313B1F8D142
:100E50000020704701387047002D06BF3546033823
:100E6000073815F0010F07D1013015F4807F02BF5C
:100E7000013015F4C03F0130F0BC0138704700BFAD
:100E80004FEA410C7FEA6C5C02D150EA013C0AD186
:100E90004FEA430C7FEA6C5C02D152EA033C02D178
:100EA0004FF0000070474FF0010070474FEA4102D9
:100EB00012F5001215D211D56FF47873B3EB6252AC
:100EC00012D94FEAC12343F0004343EA505311F0D3
:100ED000004F23FA02F018BF404270474FF0000065
:100EE000704750EA013005D111F0004008BF6FF0A3
:100EF000004070474FF00000704700BF10B5054C30
:100F0000237833B9044B13B10448AFF300800123B5
:100F1000237010BDB806002000000000908E00086D
:100F200008B5034B1BB103490348AFF3008008BD6C
:100F300000000000BC060020908E0008002301463F
:100F40001A46184600F024BA024A0349034800F042
:100F5000C9B800BF000000205D1C00081000002080
:100F60000C4B4168994210B5044601D000F076FE62
:100F7000A168094B994202D0204600F06FFEE1685B
:100F8000064B994204D02046BDE8104000F066BEF2
:100F900010BD00BFD40600203C070020A40700209D
:100FA0002DE9F843314C324B3248DFF8DC90DFF862
:100FB000DC80314F1860002529460423082204F103
:100FC0005C002E4EE360C4E90055C4E90455A560F9
:100FD0006566A56100F0F2F804F15800C4E907491C
:100FE000C4E90987E66200F0CBF92946244B636720
:100FF000082204F1C400C4E91A55C4E91E55256746
:10100000C4F8CC50C4F8805000F0D8F804F168035C
:1010100004F1C000C4F88430C4E92298C4E92476FD
:1010200000F0AEF9174BC4F8DC30294604F5967091
:101030000822C4E93455C4E93855C4F8D850C4F876
:101040003451C4F8E85000F0B9F804F1D003C4E911
:101050003D87C4F8F09004F59470C4F8FC60C4F8BF
:10106000EC30BDE8F84300F08BB900BFD406002097
:101070000C080020490F000891110008B511000864
:1010800009000100120002002D1100085111000892
:1010900010B504460A4800F077F9636B23B9094B91
:1010A000094A1B68626323B1BDE81040044800F0A0
:1010B0006DB9FFF775FFBDE81040014800F066B953
:1010C0001C0800200C080020610F0008014800F0F7
:1010D0005BB900BF1C080020014800F057B900BFF1
:1010E0001C0800202DE9F84380460F4616464FF0B5
:1010F0000009D6E90154013D11D4A389012B05F162
:10110000FF3508D9B4F90E300133214603D04046EB
:10111000B84749EA00096B1C04F16804EDD1366850
:10112000002EE6D14846BDE8F88300BF10B50C4656
:10113000B1F90E1000F0BCF8002803DB236D034466
:10114000236510BDA38923F48053A38110BD00BF84
:101150002DE9F0410C46B1F90C101F46CB050546B0
:1011600016460BD421F48051A1813B46B4F90E10F0
:1011700032462846BDE8F04100F0B0B8B4F90E1090
:101180000223002200F07EF8B4F90C10EAE700BF59
:1011900010B50C46B1F90E1000F074F8B4F90C302B
:1011A000421C0EBF23F4805343F480532065A38177
:1011B00010BD00BFB1F90E1000F052B8830730B572
:1011C00047D0541E002A3ED0CAB2034601E0013C7B
:1011D00039D303F8012B9D07F9D1032C2CD9CDB2BB
:1011E00005EB05250F2C05EB054535D9A4F11002BB
:1011F00022F00F0C03F1100EE6444FEA121C1A46BF
:10120000156055609560D56010327245F8D10CF1CB
:10121000010214F00C0F03EB021204F00F0C13D0B8
:10122000ACF1040323F003030433134442F8045BDA
:101230009A42FBD10CF003042CB1C9B21C4403F850
:10124000011B9C42FBD130BD64461346002CF4D1F7
:10125000F9E703461446C0E71A46A446E0E700BF94
:1012600038B5074D0022044608462A6002F057FEB2
:10127000431C00D038BD2B68002BFBD0236038BD49
:101280001008002038B50C46084D8446114620460B
:101290001A4600232B60644602F044FE431C00D033
:1012A00038BD2B68002BFBD0236038BD1008002010
:1012B00038B50C46084D8446114620461A46002390
:1012C0002B60644602F03EFE431C00D038BD2B6804
:1012D000002BFBD0236038BD1008002038B50C4629
:1012E000084D8446114620461A4600232B6064466A
:1012F00002F01AFE431C00D038BD2B68002BFBD037
:10130000236038BD1008002070B50F4B0F4DAB4265
:10131000A3EB050607D0B610002455F8043B0134B2
:101320009847A642F9D807F0B3FD094D094B5E1B5B
:10133000AB424FEAA60606D0002455F8043B013420
:101340009847A642F9D870BD3C9400083C94000828
:101350003C9400084494000838B5074D074C2C1BFA
:10136000A41005D0013C55F8043D9847002CF9D154
:10137000BDE8384007F092BD489400084494000846
:10138000704700BF704700BF704700BF704700BF85
:101390002DE9F8431B4D0646286898460F469146AE
:1013A000FFF7F2FF184B1C681CB3286865681F2DF7
:1013B00022DC4EB96B1C0235636044F82570FFF7E0
:1013C000E5FF0020BDE8F88304EB85010123C1F8A7
:1013D0008890D4F88821AB401A43022EC4F88821A3
:1013E000C1F80881E6D1D4F88C211A43C4F88C21C5
:1013F000E0E7064C1C60D8E7FFF7C8FF4FF0FF306E
:10140000E0E700BF30010020B009002020080020E4
:10141000024B13B10248FFF791BD70470000000076
:10142000591300082DE9F84306460820894600F0C4
:101430004DFDDFF8A4800546304600F003FCD8F8E7
:1014400008305F6827F00307A7F11104A4EB090433
:101450002C44B4FBF5F4013C05FB04F4A54208DC84
:101460000021304600F020FDD8F808303B44984277
:1014700005D0304600F0ECFB0020BDE8F883614267
:10148000304600F011FD01300FD0114AD8F8083075
:101490003F1B47F001075F60136830461B1B13605A
:1014A00000F0D6FB0120BDE8F8830021304600F0B3
:1014B000FBFCD8F80820831A0F2BDADD43F0010378
:1014C0005360044B02491B68C01A0860D1E700BF93
:1014D000B4090020340100204001002000297CD004
:1014E0002DE9F0410C46804600F0ACFB54F8043C7A
:1014F000764FA4F1080523F001016818BE68426820
:10150000864222F0030200F08380DE07426000EB97
:10151000020C33D454F8084CDCF804302D1B214461
:10152000AC6807F1080C644503F0010364D0D5F8FA
:101530000CE0C4F80CE0CEF80840002B00F08180ED
:1015400041F001036B600160B1F5007F22D2786841
:10155000CB080122490901338A40024357F833106E
:101560007A6007EBC302083AC5E9021247F8335024
:10157000CD604046BDE8F04100F06ABBDCF80430C5
:10158000DB072BD541F00103B1F5007F44F8043CA3
:101590000160DCD3B1F5206F4FEA512353D28B09A0
:1015A00003F1390003F13802C300F818FB5808387A
:1015B000984203D163E09B68984204D05A6822F0B5
:1015C00003028A42F7D8D868C5E902308560DD6039
:1015D0004046BDE8F04100F03BBB7047114407F1C5
:1015E000080C836863453FD0C268DA60936041F0BD
:1015F00001036B606950A7E7002B61D10A44D0E971
:101600000213CB60996042F001036B60AA50B0E70F
:10161000DB070A4407D454F8083CED1A1A44D5E90C
:101620000213CB60996042F001036B60284BBD60F0
:101630001B6893429DD8274B40461968FFF7F2FE7E
:1016400097E71144CDE7142B08D9542B1FD80B0B67
:1016500003F16F0003F16E02C300A6E703F15C0023
:1016600003F15B02C300A0E741F001033D617D612E
:10167000C5F808C0C5F80CC06B60695079E7796897
:101680009210012404FA02F20A437A609CE7B3F54F
:10169000AA7F06D8CB0B03F1780003F17702C300D1
:1016A00083E740F25452934206D88B0C03F17D003D
:1016B00003F17C02C30078E74FF47E737E2274E767
:1016C00041F001036B60016053E700BF400100205F
:1016D00038010020E40900202DE9F04F01F10B054D
:1016E000162D85B0064623D8102900F2B08000F0F0
:1016F000A9FA102518230220B74F3B44A3F1080292
:101700005C68944200F01E816368E26823F0030382
:101710002344A168CA6091605A6842F001023046D1
:101720005A60083400F094FA204605B0BDE8F08F06
:1017300035F0070500F18B80A94200F2888000F0A7
:1017400081FAB5F5FC7FC0F06E816B0A00F08380F2
:10175000042B00F21D81AB0903F1390003F1380CB1
:10176000C3009D4F3B44A3F108015C68A14206D130
:101770000CE0002A80F2E380E468A14206D06368AE
:1017800023F003035A1B0F2AF3DD6046DFF85CE207
:101790003C69744500F0C080636823F00308A8EB3F
:1017A00005030F2B00F34381002BC7E904EE80F201
:1017B0002E81B8F5007FD7F804C080F0C9804FEAC9
:1017C000D80101314FEA5818012303FA08F357F8FA
:1017D0003120A2604CEA030C07EBC103083BE36035
:1017E000C7F804C047F83140D46083104FF00108B7
:1017F00008FA03F8E04534D818EA0C0F08D120F0B5
:1018000003004FEA480818EA0C0F00F10400F8D072
:1018100007EBC00A52468146D1680EE04B6823F0C0
:101820000303A3EB050CBCF10F0F0C46C96800F3D2
:10183000BB80BCF1000F80F2DD808A42EED109F15D
:10184000010919F0030F02F10802E5D11AE10C2396
:101850003360002468E74FF4007340204FF03F0CE2
:101860007FE7BC68636823F00309A94503D3A9EBAC
:1018700005030F2B53DC594BDFF874B11B680820AC
:1018800003F1100800F022FBDBF800300190013377
:10189000A84404EB090205D008F1FF388044434214
:1018A00003EA080841463046029200F0FDFAB0F122
:1018B000FF3F029A824600F0D780824200F2D28037
:1018C000474B01991868404401F1FF311860844684
:1018D00040F0FB801AEA010F40F0F780D7F808A02B
:1018E000C84448F00102CAF804203E4B19688142FE
:1018F00038BF18603C4B1968814238BF18605446A5
:1019000022F00308A845A8EB050301D30F2B06DC42
:10191000304600F09DF99CE7D7F804C065E76219EE
:1019200043F0010345F0010565603046BA6053603D
:1019300000F08EF90834204605B0BDE8F08FE2686B
:101940002344E6E6DC68A3427FF4DEAE02301DE706
:10195000B8F5206F4FEA58227DD3142A00F219817E
:1019600002F15C03DB005B32F918FB58083999423D
:1019700003D1F3E09B68994204D05A6822F0030235
:101980004245F7D8D968C4E902318C60DC602CE7A5
:10199000142B6CD9542B00F205812B0B03F16F0033
:1019A00003F16E0CC300DCE63046A668621945F010
:1019B00001056560F1608E604CF00101C7E9042209
:1019C000C2F808E0C2F80CE0516044F803C000F02F
:1019D0003FF90834A8E600BF40010020E4090020D8
:1019E000B4090020E0090020DC09002048010020A3
:1019F00034010020234430465A6842F001025A6004
:101A000054F8083FD9608B6000F022F98CE6A044BE
:101A10003046D8F8043043F00103C8F804300834E5
:101A200000F016F980E6E80805F1080364E662199B
:101A300043F0010145F0010565603046C7E9042225
:101A4000C2F808E0C2F80CE0516044F8083000F039
:101A5000FFF8083468E64FEA981202F13903DB0018
:101A6000383281E7BC4228D0BC68626848E703F19D
:101A70005C0003F15B0CC30073E65AF80839534568
:101A800040F0DB8010F0030F00F1FF30F5D17B68F0
:101A900023EA08037B604FEA480898453FF6E1AE29
:101AA000B8F1000F04D1DCE64FEA480809F1040957
:101AB00018EA030FF8D04846AAE6614B0199186866
:101AC00008EB000C0139C3F800C0DBF8000001305E
:101AD0001BBFAAEB02026244CBF800A01A601AF006
:101AE0000702CDE9022343D0C2F10802019B9244D0
:101AF000D044134408EA01001A1A02EA010B5946BD
:101B0000304600F0D1F9421C039B79D0A0EB0A00CB
:101B100000EB0B081868C7F808A048F00102584409
:101B2000BC42CAF8042018603FF4DFAEB9F10F0FD1
:101B300042D96168A9F10C0222F0070201F001010B
:101B400011436160A1184FF0050C0F2AC1F804C0C1
:101B5000C1F808C049D8DAF80420C6E692104FF060
:101B6000010808FA02F24CEA020CC7F804C00AE7BE
:101B7000019B0AEB08020A409A1A02EA010B594635
:101B8000304600F091F9431C039BBFD1DDF808B04B
:101B9000C0E7542A14D84FEA183202F16F03DB0071
:101BA0006E32E1E6B3F5AA7F14D8EB0B03F17800AF
:101BB00003F1770CC300D4E50123CAF80430A7E68B
:101BC000B2F5AA7F24D84FEAD83202F17803DB00BD
:101BD0007732C9E640F25452934224D8AB0C03F159
:101BE0007D0003F17C0CC300BBE5304604F1080125
:101BF0000193FFF773FC019BD7F808A01868AAE7C8
:101C0000029A083A9044A8EB0A084FF0000B81E7CB
:101C100040F254539A420CD84FEA984202F17D03A5
:101C2000DB007C32A0E64FF47E737F204FF07E0C09
:101C300097E54FF47E737E2296E67B682BE700BF24
:101C4000B40900200148FFF79FBB00BF1408002023
:101C50000148FFF79BBB00BF1408002070B50029A6
:101C60003FD005460C4610B1436B002B3CD0636E51
:101C7000B4F90C20DE0732D4900538D52146284629
:101C800000F04CF8E36A064633B1E169284698470C
:101C90000028B8BF4FF0FF36A3891A0639D4216B4C
:101CA00041B104F14003994202D02846FFF716FCE7
:101CB00000232363616C21B12846FFF70FFC00234A
:101CC0006364FFF703FA636E0022DB07A2811CD571
:101CD000A06DFFF757FBFFF7FFF9304670BD002AF4
:101CE000CCD10026304670BDFFF7D2F9BFE7A06D1A
:101CF000FFF74AFBB4F90C30002BBFD1636ED90754
:101D0000EFD4A06DFFF742FBEBE7A06DFFF73EFBC2
:101D1000DEE721692846FFF7E1FBC0E7B1F90C20B7
:101D20002DE9F0410C46110780464BD4616842F41E
:101D300000630029A38160DDA56A002D3FD000214A
:101D400012F48052D8F80060C8F80010E16961D13F
:101D500001234046A847431C02466BD0B4F90C301F
:101D6000A56AE1695F0705D56368D21A236B0BB1D9
:101D7000E36BD21A00234046A847451C4CD1D8F843
:101D800000101D293DD8324AB4F90C300A4112F036
:101D9000010238D162602269226023F40062A281CC
:101DA000DA0452D4216BC8F8006041B104F1400359
:101DB000994202D04046FFF791FB002323630020A5
:101DC000BDE8F0812669002EF9D0256826609107CC
:101DD0000CBF63690023AD1BA3600BE02B463246AA
:101DE000E169676A4046B847B0F1000CA5EB0C0505
:101DF000664406DD002DF1DCE1E7E16B00299BDCA8
:101E0000DDE7B4F90C3043F04003A3814FF0FF301D
:101E1000BDE8F081226DA5E7B4F90C30226922609B
:101E200023F40062A281DB044FF000026260B9D5A6
:101E30002065B7E7D8F80030002B8FD01D2B01D0DC
:101E4000162BDED1C8F80060B9E70029AAD1EFE768
:101E5000FEFFBFDF38B50C46054608B1436B03B340
:101E6000B4F90C0088B1636EDB0701D481050FD58E
:101E700028462146FFF752FF636EDA07054602D473
:101E8000A3899B0508D5284638BD0546284638BD98
:101E9000A06DFFF779FAEBE7A06DFFF777FA284618
:101EA00038BDFFF7F5F8DBE738B5074D00220446EB
:101EB00008462A6002F048F8431C00D038BD2B6861
:101EC000002BFBD0236038BD10080020082802D169
:101ED0004FF48050704708B500F006F816230360F1
:101EE0004FF0FF3008BD00BF014B1868704700BFBE
:101EF0000C00002040F0BF6040F40030014BD8607F
:101F0000704700BF00ED00E0C378FBB1154BDA6805
:101F1000D243C2F30222C2F10401C9B20F2313411A
:101F200042788A40D2B281780B4013431B01DBB266
:101F300002780D490A4482F80033037803F01F0049
:101F40005B090122824041F823207047037803F0A7
:101F50001F015B0901228A402033034941F82320F5
:101F6000704700BF00ED00E000E100E000220F2A12
:101F70004DD810B514E0C36894B264004FF0030E5E
:101F80000EFA04FE23EA0E03C360C36891F807E06B
:101F90000EFA0CFC43EA0C03C36001320F2A35D859
:101FA000012393400C68A343F7D104684FEA420C25
:101FB000032303FA0CF36FEA030E24EA030303601E
:101FC00003680C7904FA0CF4234303600B79013B9A
:101FD000DBB2012BCFD883680EEA030383608368EA
:101FE0004C7904FA0CF42343836043681FFA82FEA1
:101FF000012404FA0EF423EA0403436044688B7955
:1020000003FA0EF39BB223434360B4E710BD70475D
:1020100021B1054A136B034313637047024A136BE4
:1020200023EA0003136370470038024021B1054AD8
:10203000136C034313647047024A136C23EA0003D2
:10204000136470470038024003889BB21B4A9042D9
:1020500012D002F5806290420ED0B0F1804F0BD0CA
:10206000A2F58032904207D002F58062904203D000
:1020700002F58062904203D123F070034A88134333
:102080000F4A904208D002F58062904204D023F4B7
:1020900040739BB20A89134303804B68C3620B8869
:1020A0000385064B984203D003F58063984201D123
:1020B0008B7A038601238382704700BF00000140B2
:1020C0000010004029B103889BB243F00103038054
:1020D000704703889BB223F001039BB203807047D3
:1020E00010B5038C9BB223F001039BB20384B0F8BC
:1020F00020C01FFA8CFCB0F804E01FFA8EFE028BA1
:1021000092B222F073020B881A432CF0020C8B89D6
:102110004CEA030C4B8843EA0C030F4CA04203D05B
:1021200004F58064A0420FD123F00803CC89234337
:1021300023F004038C8823432EF4407E0C8A4EEA5D
:10214000040E4C8A44EA0E0EA0F804E002838A686A
:102150004263038410BD00BF00000140038B9BB2AB
:1021600023F008030B4303837047406B704722B191
:1021700083899BB20B43838170478389C94389B2AA
:10218000194081817047028A83890B40114202D035
:102190001BB9002070470020704701207047C943D9
:1021A00089B2018270470388194201D0012070472B
:1021B00000207047000000002DE9F04F2DED048B4A
:1021C000ADF5357D814688469C468DED020B00209D
:1021D0000021CDE99401D2E90045A24605F1004B6A
:1021E000CDE996ABD2E902AB56460BF10047CDE9FB
:1021F0009867D2E90423164603F10047CDE99A67B0
:10220000CDE99C45CDE99E01CDE9A02356460BF1D1
:102210000047CDE9A267CDE9A4AB164603F100471C
:10222000CDE9A667CDE9A801CDE9AA45CDE9AC2362
:10223000CDE9AEAB224605F10043CDE9B023CDE9AF
:10224000B201CDE97401DCE90045224605F1004305
:10225000CDE97623DCE902AB52460BF10043CDE930
:102260007823DCE90423164603F10047CDE97A67B9
:10227000CDE97C45CDE97E01CDE9802356460BF1C1
:102280000047CDE98267CDE984AB164603F10047EC
:10229000CDE98667CDE98801CDE98A45CDE98C2372
:1022A000CDE98EAB224605F10043CDE99023CDE97F
:1022B000920100251CE004EB8503DE00B4AA02EBCA
:1022C000C30174AA02EBC303D3E9002351E920013F
:1022D000FEF728F800228C4BFEF7DAF954AB3344B2
:1022E000C3E900010134E4B2032CE4D90135EDB2B5
:1022F000032D01D80024F7E7D9E90023CDE94C23C9
:10230000D9E90223CDE94E23D9E90423CDE95023AD
:10231000D9E90623CDE95223D8E90023CDE94423A6
:10232000D8E90223CDE94623D8E90423CDE948239F
:10233000D8E90623CDE94A23012501950424009418
:1023400023464CAA94A91CA800F048FA9FED6A8B7A
:102350002B462246B0EE480AF0EE680A1CA93CA8BB
:1023600000F0B3FA53EC182BDDE90267304639462A
:10237000FEF78EF941EC190B2B462246B0EE490AC6
:10238000F0EE690A3CA91CA800F09FFA00952346CC
:102390001CAA4CA914A800F072FA019500942346D7
:1023A00014AA54A91CA800F019FA2B462246B0EE34
:1023B000480AF0EE680A1CA934A800F086FA2B46F9
:1023C0002246B0EE490AF0EE690A34A91CA800F0D2
:1023D0007CFA009523461CAA4CA914A800F04FFAD9
:1023E00001950094234614AA54A91CA800F0F6F9FC
:1023F0002B462246B0EE480AF0EE680A1CA92CA82B
:1024000000F063FA2B46224647EC106B2CA91CA85F
:1024100000F05BFA009523461CAA4CA914A800F012
:102420002EFA01950094234614AA74A91CA800F062
:10243000D5F92B462246B0EE480AF0EE680A1CA9F0
:1024400024A800F042FA9FED2E8B2B462246B0EED8
:10245000480AF0EE680A34A91CA800F036FA2B46A8
:102460002246B0EE480AF0EE680A2CA914A800F043
:102470002CFA0095234614AA1CA90CA800F0FFF919
:102480000095234624AA3CA904A800F0F8F9009579
:10249000234604AA0CA91CA800F0F1F900221B4B4A
:1024A00030463946FEF71EFA2B46224641EC100B09
:1024B0001CA914A800F009FA0095234614AA4CA9F7
:1024C00044A800F0DCF9DDE94423C8E90023DDE994
:1024D0004623C8E90223DDE94823C8E90423DDE9EE
:1024E0004A23C8E906230DF5357DBDEC048BBDE814
:1024F000F08F00BFAFF30080000000000000E03F5D
:1025000000000000000000400000E03F0000184014
:10251000254B1A6B42F002021A635A6C42F0100209
:102520005A64A3F550531A6822F440521A601A688C
:1025300022F440421A601A6842F400521A601A6883
:1025400042F400421A605A6842F040025A605A68E7
:1025500042F080025A609A6822F440529A609A6867
:1025600022F440429A609A6842F400529A609A6853
:1025700042F400429A60DA6822F44052DA60DA6883
:1025800022F44042DA601A6A22F060621A621A6A21
:1025900022F060421A621A6A42F0E0621A621A6A13
:1025A00042F0E0421A62704700380240124B9A89AA
:1025B00092B242F400529A8142F22E221A819A89F2
:1025C00092B222F4805292B29A819A8992B222F403
:1025D000806292B29A819A8992B242F020029A81E4
:1025E0009A8992B242F008029A819A8992B242F094
:1025F00004029A81704700BF0010014008B5044BE7
:10260000988080210248FFF7CEFD0028F9D008BD50
:102610000010014008B5FFF77BFFFFF7C7FF08BDBB
:1026200008B501226B21D02000F086FB0922192178
:10263000D02000F081FB06221A21D02000F07CFB84
:1026400018221B21D02000F077FB18221C21D0205B
:1026500000F072FB02223721D02000F06DFB002237
:102660006A21D02000F068FB08BD00002DE9F04F82
:1026700083B0044606236A464321D02000F014FBB1
:102680009DF800309DF8010000EB032000B2FDF73B
:1026900095FF0022294BFDF7FBFF00224FF07C53F2
:1026A000FDF7F6FF82468B46C4E900AB9DF8023089
:1026B0009DF8030000EB032000B2FDF77FFF00222E
:1026C0001E4BFDF7E5FF00224FF07C53FDF7E0FFC6
:1026D00080468946C4E902899DF804309DF80500CA
:1026E00000EB032000B2FDF769FF0022134BFDF75A
:1026F000CFFF00224FF07C53FDF7CAFF06460F467E
:10270000C4E904670E4DD5E9002350465946FDF74C
:1027100007FEC4E90001D5E9022340464946FDF71A
:10272000FFFDC4E90201D5E9042330463946FDF72F
:10273000F7FDC4E9040103B0BDE8F08F00409F40FD
:10274000E809002008B5702200213C2000F01DFBA4
:10275000202201213C2000F018FB002202213C2015
:1027600000F013FB08BD08B5FFF75AFFFFF7EAFFBB
:1027700008BD00000F4A136B43F0010313630E4BB7
:102780001A6822F440621A601A6842F480621A6081
:102790005A6822F020025A609A6822F440629A60D5
:1027A0009A6842F480629A60DA6822F44062DA60E1
:1027B000704700BF0038024000000240024A5369DF
:1027C00043F020035361704700000240024B5A69F6
:1027D00000225A61704700BF000002402DE9F04F0F
:1027E0002DED028B85B002908A4691469DF840609F
:1027F0009DF844B00021039334E095ED008B08FB75
:1028000006410AEBC10104FB0B7309EBC303D3E9D7
:102810000023D1E90001FDF73BFF02460B4651ECD6
:10282000180BFDF77FFDC5E900010134E4B2B442A5
:10283000E3D3009901F1010E5FFA8EF159450ED2F2
:10284000019B98460F460BFB0315029B03EBC50546
:1028500000220023C5E9002300240091E7E7019945
:102860004B1CD9B2039B994204D24FF0000E019148
:102870007146E3E705B0BDEC028BBDE8F08F2DE9B2
:10288000F84F8146884617469A469DF828500026FC
:1028900015E005FB064C08EBCC0107EBCC0309EB7C
:1028A000CC0BD3E90023D1E90001FDF73BFDCBE9D7
:1028B00000010134E4B2AC42EBD30136F6B2564526
:1028C00001D20024F7E7BDE8F88F2DE9F04F83B07F
:1028D000814657EC106B4FF0000A0192D3468A46AE
:1028E000984615E008FB0B430AEBC30109EBC3054F
:1028F00032463B46D1E90001FDF7CAFEC5E90001B9
:102900000134E4B24445EDD30BF101025FFA82FBDE
:10291000019B9B4501D20024F4E703B0BDE8F08F92
:1029200070B58AB001210420FFF772FB012102205B
:10293000FFF77CFB4023089302238DF825308DF8A8
:1029400024301A4C08A92046FFF710FB236A43F0F5
:102950000073236244F61F6306935323ADF81430CB
:102960000025ADF81C50ADF81650A4F5013405A9AA
:102970002046FFF769FB6023ADF800300126ADF873
:102980000260ADF80C5069462046FFF7A9FB08210C
:102990002046FFF7E3FB31462046FFF793FB2388F1
:1029A0009BB243F0800323800AB070BD0008024050
:1029B0001B4B1A6822F440321A601A6822F4402233
:1029C0001A601A6842F400321A601A6842F400224F
:1029D0001A605A6842F480725A605A6842F400726F
:1029E0005A604FF440329A604FF440229A60DA689D
:1029F00022F44032DA60DA6822F44022DA60DA68DF
:102A000042F48032DA60DA6842F48022DA605A6A8C
:102A100042F004025A625A6A42F040025A62704717
:102A2000000402401F4B9A8892B222F03F0292B2F9
:102A30009A809A8892B242F004029A801A8C92B2DA
:102A400022F03F0292B21A841A8C92B242F480525F
:102A500042F001021A841A8892B242F001021A80EE
:102A60001A8892B222F0200292B21A801A8992B287
:102A700022F07F0292B21A811A8992B242F00102C8
:102A80001A819A8BC2F30E029A839A8B02F47042D7
:102A90009A839A8B92B242F42B5242F038029A8374
:102AA000704700BF00540040012807D0074A138830
:102AB0009BB223F480739BB213807047034A138840
:102AC0009BB243F480731380704700BF00540040F2
:102AD000012807D0074A13889BB223F400739BB2E6
:102AE00013807047034A13889BB243F4007313802A
:102AF000704700BF00540040012807D0074A1388E0
:102B00009BB223F480639BB213807047034A1388FF
:102B10009BB243F480631380704700BF00540040B1
:102B2000014B1882704700BF00540040014B188AC7
:102B3000C0B2704700540040012904D000F0FE00EC
:102B4000024B1882704740F00100F9E70054004042
:102B5000044B1B8B13F0020F01D1012070470020A2
:102B6000704700BF005400400B4B9B8A13F0010FCD
:102B70000BD0094B1B8B13F0010F08D0064B1B8B9E
:102B800013F0020F05D1002070470020704700208D
:102B900070470120704700BF00540040144B9A8AD0
:102BA00091B21B8B9BB212F0020F18D011F0800F64
:102BB00017D013F0010F16D013F0020F15D013F039
:102BC000040F01D10020704711F4007F05D0084A9E
:102BD000938A9BB243F48063938201207047002064
:102BE000704700207047002070470020704700BFEA
:102BF00000540040124B9B8A13F0040F15D0104B69
:102C00009B8A13F0800F12D00D4B1B8B13F0010F1A
:102C10000FD00B4B1B8B13F0020F0CD0084B1B8BF0
:102C200013F0040F09D100207047002070470020E6
:102C3000704700207047002070470120704700BF98
:102C4000005400400B4B9B8A13F0020F0BD0094B32
:102C50001B8B13F0010F08D0064B1B8B13F0020FD8
:102C600005D10020704700207047002070470120E8
:102C7000704700BF00540040044B9B8A13F0400F84
:102C800001D1002070470120704700BF0054004070
:102C9000044B9B8A13F0800F01D100207047012064
:102CA000704700BF00540040F8B504460F46164672
:102CB0001D46FFF74DFF0028FBD00120FFF7F4FE73
:102CC000FFF752FF0028FBD000212046FFF734FF1A
:102CD000FFF764FF0028FBD03846FFF721FFFFF71E
:102CE00089FF0028FBD00120FFF7DEFEFFF73CFF45
:102CF0000028FBD001212046FFF71EFFFFF7A2FFAF
:102D00000028FBD00020FFF7E3FE0120FFF7F4FED0
:102D1000002408E0FFF7B0FF0028FBD0FFF706FF14
:102D200030550134E4B2AC42F4D30020FFF7E4FEA6
:102D30000120FFF7CDFEF8BD70B506460D461446DE
:102D4000FFF706FF0028FBD00120FFF7ADFEFFF7DD
:102D50000BFF0028FBD000213046FFF7EDFEFFF708
:102D60001DFF0028FBD02846FFF7DAFEFFF742FFE1
:102D70000028FBD02046FFF7D3FEFFF73BFF0028DB
:102D8000FBD00120FFF7A4FE70BD70B506460D46CE
:102D900014460120FFF7B0FEFFF7DAFE0028FBD053
:102DA0000120FFF781FEFFF7DFFE0028FBD00021A6
:102DB0003046FFF7C1FEFFF7F1FE0028FBD02846A2
:102DC000FFF7AEFEFFF764FF0028FBD02046FFF7B9
:102DD000A7FEFFF70FFF0028FBD00120FFF778FECA
:102DE0000020FFF789FE70BD08B5074B1A6B42F053
:102DF00002021A631A6C42F400121A64FFF7D8FD3B
:102E0000FFF710FE08BD00BF0038024010B582B0C9
:102E10005E4A536C43F0010353645D4C0023E3624C
:102E200023889BB223F010039BB22380238D9BB297
:102E300043F053032385E36A43F49C4343F01F03A9
:102E4000E362A38A9BB243F00203A38223889BB26E
:102E500043F080032380136B43F0010313634D4B56
:102E60005A6A42F001025A621A6822F440321A6029
:102E70001A6842F400321A605A6822F480725A606A
:102E80009A6842F400329A60DA6822F44032DA60DA
:102E9000238B9BB243F001032383238B9BB223F04C
:102EA0000C039BB22383238B9BB223F0F0039BB2D2
:102EB0002383238C9BB243F001032384238C9BB296
:102EC00023F002039BB22384238C9BB223F00803DC
:102ED0009BB22384238B9BB243F400732383238B05
:102EE0009BB223F440639BB22383238BC3F30B0376
:102EF0002383238C9BB243F010032384238C9BB247
:102F000043F020032384238C9BB243F0800323846B
:102F100023899BB223F00A039BB2238123899BB2AE
:102F200043F00403238123899BB223F070039BB2F7
:102F3000238123899BB243F05003238123899BB2D1
:102F400043F080032381012202212046FFF70FF97D
:102F50004FF4A060FEF7CEFF1B238DF80430012351
:102F60008DF8073002228DF805208DF8063001A873
:102F7000FEF7CAFFA3899BB243F00203A381238813
:102F80009BB243F00103238002B010BD0038024021
:102F90000000014000000240084BD8684FF47A73EB
:102FA00003FB00F0A0F57420A0F5C560044BA3FB63
:102FB0000030800900F57A70704700BF080A0020D1
:102FC000D34D621008B502211748FFF7DCF801283D
:102FD00004D0FFF7E1FF154B186008BD1248FFF75A
:102FE000C4F80130B0F5805F02D9114B01221A609C
:102FF0000F4B1B68012B04D002210B48FFF7CFF8C1
:10300000E7E70948FFF7B1F80A490A68531C0B6063
:103010000130094941F82200082BEDD90023054A67
:103020001360034A1360E7E700000140300A002004
:10303000000A0020040A0020080A002008B5FFF753
:10304000BDFB4FF47A7000F07BFEF8E708B5FFF7A0
:10305000BDFB4FF4FA6000F073FEF8E710B5FFF720
:10306000D9FA114800F0EEFF104C23880133238079
:10307000FFF7BAFE0E4800F0E5FF238801332380F6
:10308000FFF771FB0B4800F0DDFF2388013323803D
:10309000FFF7BCFEFFF744FC074800F0D3FFFF201A
:1030A00000F00AFD10BD00BFA88E0008340A002001
:1030B000C48E0008D88E0008EC8E000800000000C6
:1030C00000B5A3B00022264BCDE91A23002200232D
:1030D000CDE91C23CDE91E23CDE92023CDE90C2326
:1030E000CDE90E23CDE9102306A8FFF7BFFA9FED27
:1030F0001A0B06AB0CAA12A91AA8FFF75DF80DF17E
:10310000680C0DF1480EBEE80F00ACE80F009EE819
:103110000F008CE80F000DF1300E0DF1180CBCE81B
:103120000F00AEE80F009CE803008EE80300642067
:1031300000F006FEDDE92023CDE90423DDE91E23AE
:10314000CDE90223DDE91C23CDE90023DDE91A23C3
:10315000044800F017FFC7E79A9999999999B93FE0
:103160000000F03F048F000808B51E4800F076F814
:10317000FFF700FB06231C4A00211C4800F054FC0A
:103180001B4A1C49062000F03BFD07231A4A002178
:103190001A4800F049FC1A4A1A49072000F030FD8D
:1031A0000823194A0021194800F03EFC184A194921
:1031B000082000F025FD40F6B83000F0C1FD41F2D6
:1031C000883000F0BDFD0A23134A0021134800F0A7
:1031D0002BFC134A13490A2000F012FDFF2000F0D7
:1031E0006BFC08BD40D10C00348A00203D30000843
:1031F000188F0008248F0008346A00204D30000822
:103200002C8F0008388F0008344A00205D300008F9
:10321000408F0008548F0008342A0020C130000875
:10322000648F0008748F000808B500F08FFA02233D
:10323000064A0021064800F0F7FB064A064902202C
:1032400000F0DEFC00F07CF9002008BD34AA00206C
:1032500069310008808F0008908F00084FF0E0234C
:103260005A69013802435A6159699A690A439A6155
:103270001A6942F004021A611A6942F002021A61E4
:103280001A6942F001021A6170470000094B4FF4BD
:10329000807203E0013A002143F8041B002AF9D1AF
:1032A000054A064B136023F007031360044B4022CA
:1032B0001A60704740AA00203CAA002040AE0020BF
:1032C00038AA002070477047704770477047000069
:1032D000131D23F007034FF0807243F8042C43F8CA
:1032E000080C1E4A43F80C2C4FF0123243F8102CF5
:1032F0004FF0033243F8142C4FF0023243F8182CED
:103300004FF0013243F81C2C43F8201C6FF00202EE
:1033100043F8242C4FF0113243F8282C4FF0103290
:1033200043F82C2C4FF0093243F8302C4FF0083280
:1033300043F8342C4FF0073243F8382C4FF0063264
:1033400043F83C2C4FF0053243F8402C4FF0043248
:1033500043F8442CA3F14400704700BF613C0008CF
:10336000704710B54020FCF73AFF044600F094F88F
:103370002046FCF742FF00F005F900F09FF810BD71
:103380000023084A1360084A1370084A1370084A59
:103390001370084A1370084A1360084A1360084AF9
:1033A0001370704740AE002034B9002033B90020BC
:1033B00024B9002025B9002080BA002020B90020BF
:1033C00044AE002000230A4A137004E0094A002199
:1033D000D1540133DBB2072BF8D90023064A13700E
:1033E000064A1370064A1360064A1360704700BF0E
:1033F00030B9002028B9002032B9002031B90020AE
:1034000014B700201CB70020064B1B78064AD15C7D
:10341000CB00DBB20548415C525C1344044A137094
:10342000704700BF30B90020F490000828B9002090
:1034300031B9002000B589B00C4A03230493002160
:10344000039180230293A2F5FE7301934FF6FF735D
:1034500000933F23064800F01DFC0DF11F020549B3
:103460003F2000F0CDFB09B05DF804FB1CB9002043
:10347000793400089C8F000808B54020FCF7AFFEA7
:10348000044A136801331360FCF7B7FEFFF71DFF12
:10349000F3E700BF20B90020064B1B78012B00D0BA
:1034A0007047054B1B78FF2BFAD00133024A13708B
:1034B000F6E700BF25B9002034B90020184B1B786F
:1034C000012B00D0704710B54020FCF788FE044661
:1034D000144B1B7813B1013B124A1370114B1B782C
:1034E00013B9114B1B781BB12046FCF786FE10BDAB
:1034F000FFF78AFF0D4B1B780D4A52F823200D4928
:103500000A600D4909788B42EED0936B01339363C7
:103510000A4A136801331360FCF7B6FEE4E700BF04
:1035200025B9002034B9002033B9002031B900207A
:1035300010B6002014B7002032B9002080BA002055
:1035400008B50A4B1B7803B108BDFFF75DFF084BB8
:103550001B78084A1370084A52F82330074A136050
:10356000074A1360FCF752FEEEE700BF25B90020C2
:1035700031B9002032B9002010B6002014B7002065
:103580001CB7002010B54020FCF729FE284A13681C
:1035900001331360FCF731FE264B1B78012B00D062
:1035A00010BD254B1B78012BFAD0022B04D033B170
:1035B000214B00221A7002E01F4B01221A701F4B90
:1035C0001C6806E0002384F831301CE06469FCF7D5
:1035D00014FE94F832303F2BE2D04020FCF7FFFD80
:1035E000E36A002BF2D0013BE362002BEED194F8AA
:1035F000303013F0370FE5D023F0370384F8303044
:10360000012384F8313094F8303013F0080FDDD105
:1036100094F836300A4A11780B43137094F834202A
:1036200008498B5C94F835C043EA0C038B54CDE712
:1036300040AE002025B9002028AF002010B70020A0
:1036400030B9002028B90020704790F834200A448F
:10365000D37A90F835C023EA0C03D3722BB98B7A56
:1036600090F8362023EA02038B720023C36170476F
:1036700004E0002300F8013B013989B20029F8D1A8
:103680007047000010B540F2E4611248FFF7F0FF08
:103690004FF480711048FFF7EBFF00210BE04A1C4C
:1036A000D2B254200B4B00FB023400FB01335C61AF
:1036B0000A49D96411461329F1D9064B542202FB59
:1036C000013100224A610548C86405490A60054A7B
:1036D000136010BD2CAF002010B60020AC8F000886
:1036E00010B7002018B7002010B5F0211448FFF7DC
:1036F000BFFF002315E0591C89B201EB4102D00045
:103700000F4A104403EB430E4FEACE0C02EB0C0EB3
:10371000002402F80C40CEF804000A4BCEF8143016
:103720000B46082BE7D9064A03EB4300C1005418A7
:10373000002050546060034B6361034B1A6010BD5E
:103740008CB90020AC8F00087CBA002008B5FFF7C8
:103750009DFDFFF715FEFFF735FEFFF793FFFFF71F
:10376000C3FF00F0CDF800F009F900F03BF9FFF7D6
:1037700061FEFFF7A7FD00F0C1F808BD10B54020BD
:10378000FCF72DFD0446104B1B7813B90F4B1B782B
:103790001BB12046FCF731FD10BDFFF735FE0C4B89
:1037A0001B780C4A52F823200B490A600B49097810
:1037B0008B42EED0936B01339363094A1368013354
:1037C0001360FCF761FDE4E734B9002033B9002051
:1037D00031B9002010B6002014B7002032B9002003
:1037E00080BA00202DE9F0410546884617461E465E
:1037F0004020FCF7F4FC3A4B1C68002C6BD062694B
:103800001A60FCF7FAFCC4F8008084F832500021FA
:1038100084F8301084F83110E162079B6360069BE6
:10382000E360A760BDF820302382668284F83710F9
:10383000EA0884F8342005F0070084F833000123F7
:1038400003FA02F284F83620834084F83530E161CF
:1038500061622162A1632164E1636164A164214B1F
:10386000E36481B32046FFF77BFD4020FCF7B7FC03
:103870001D4B43F82540FCF7C0FC2046FFF723FD15
:103880004020FCF7ACFC194B1B6863610022A2616D
:1038900003B19C61154B1C6094F83630144A1178C2
:1038A0000B43137094F8342012498B5C94F8354024
:1038B00023438B54104A137801331370FCF79DFC9B
:1038C0000020BDE8F08101F11403002244F8232018
:1038D0000131C9B2C5E7FCF790FC4220F1E700BF17
:1038E00018B70020AC8F000810B6002010B70020D9
:1038F00030B9002028B9002024B90020704700000A
:1039000008B550211148FFF7B3FE002310E05A1C00
:1039100092B20E4901EB02104FEA031C01EB0313B4
:103920004FF0000E01F80CE058600949D9601346C9
:10393000032BECD9054A180102EB031300211154A3
:1039400059600349D960034B1A6008BD3CB9002097
:10395000AC8F000838B900204268036832B11360A8
:1039600003B15A60836800225A627047C26853608C
:10397000002BF7D000225A60F4E7000008B5782148
:103980001548FFF775FE002313E003F1010C0CEB63
:103990004C02D100104A881803EB430E4FEACE01C7
:1039A000114448607346D9000A440C4B53611FFA16
:1039B0008CF3032BE9D9084903EB4300C2000A4406
:1039C0000020506003EB4303DA000A44034B5361C9
:1039D000034B196008BD00BFACAE0020AC8F0008DF
:1039E00024AF002010B560210D48FFF741FE0023F1
:1039F0000BE05A1C92B202EB4200C100084C214479
:103A000003EB4303D80021501346022BF1D9044A9B
:103A100003EB4303D90000235350024B1A6010BD3F
:103A200048AE0020A8AE0020F0B585B005460E4691
:103A300017461C464020FCF7D2FB1C4B1B784BB9A9
:103A40001B4B53F824304BB1FCF7D7FB28252846F5
:103A500005B0F0BDFCF7D1FB3C25F8E7144B012283
:103A600043F82420FCF7C9FB00233A463146284698
:103A7000FFF72EFC014600220292019200921346AB
:103A80002046FFF7AFFE054630B90A4B1B78012BE5
:103A9000DDD1FFF773FEDAE74020FCF7A0FB044B13
:103AA000002243F82420FCF7A8FBD0E734B900201B
:103AB00010B6002025B90020F8B5464B1D78002D22
:103AC00040F0838004463F2800F081804020FCF7CE
:103AD00086FB0646FF2C60D027463F4B53F8244018
:103AE000002C5FD0012C62D094F834103B4B5A5C10
:103AF00094F8350022EA00025A5494F834209B5C72
:103B000033B994F83610364A137823EA0103137058
:103B1000E16911B12046FFF798FD606A08B1FFF72F
:103B20001BFF0023E36284F8303084F831302D4BE2
:103B30001B78FF2B02D001332A4A13703046FCF762
:103B40005CFBFFF781FD4020FCF749FB0646254B57
:103B50001B7813B1013B234A13702046FFF7B4FBD7
:103B6000214A1378013B13701B4B002243F8272096
:103B7000A3690BB362695A61A36993611B4B1A680D
:103B800062611C601A4BE3643046FCF736FB194B4C
:103B90001B78012B16D02846F8BD174B1B6893F8ED
:103BA000324099E73046FCF728FB4325F3E73046DF
:103BB000FCF723FB3D25EEE763699A6162690F4BD1
:103BC0001A60DBE7FFF7DAFDE5E74025E3E73E258E
:103BD000E1E700BF34B9002010B6002028B900206A
:103BE00030B9002033B9002024B9002018B70020D4
:103BF000AC8F000825B900201CB7002010B70020AA
:103C000070B51546134B1B7813B11223137070BD9A
:103C100004460E464020FCF7E2FAFF2C0BD00E4B78
:103C200053F8243063B1012B0FD0DE64FCF7E5FAC2
:103C300000232B70EBE7094B1B6893F83240EEE74B
:103C4000FCF7DBFA43232B70E1E7FCF7D6FA4323BA
:103C50002B70DCE734B9002010B600201CB7002020
:103C600008B5044B1868FFF731FBFF20FFF724FF6E
:103C700008BD00BF1CB7002012F0010F09D012F0E0
:103C8000020F04D170470139002340F8043B00299A
:103C9000F9D170472DE9F04184B005460E4617462C
:103CA0001C46BDF838804020FCF799FA214B1B7860
:103CB00053B9214B53F8243053B1FCF79EFA282511
:103CC000284604B0BDE8F081FCF797FA3C25F7E7F9
:103CD000194B012243F82420FCF78FFA42460C9935
:103CE0000B98FFF7C9FF43463A4631462846FFF78F
:103CF000EFFA0146CDF808800D9B01930C9B0093D1
:103D0000BDF828300B9A2046FFF76CFD054630B908
:103D10000A4B1B78012BD3D1FFF730FDD0E74020B1
:103D2000FCF75DFA044B002243F82420FCF765FA07
:103D3000C6E700BF34B9002010B6002025B9002026
:103D400038B5144BA3FB0023DC08134B1B7823B9B5
:103D5000124B1B780BB9092800D838BD4020FCF75E
:103D60003EFA0F4B1A6892F834100E4D6B5C92F8C5
:103D700035C023EA0C036B5433B992F836500A4924
:103D80000B7823EA05030B70D462FCF736FAFFF7D1
:103D9000F5FCE2E7CDCCCCCC34B9002033B900201F
:103DA0001CB7002028B9002030B90020DFF834D03B
:103DB0000D480E490E4A002302E0D458C450043383
:103DC000C4188C42F9D30B4A0B4C002301E013605A
:103DD0000432A242FBD300F073F8FDF795FAFFF727
:103DE00023FA70470080012000000020B406002064
:103DF00048940008B806002088BA0020FEE70000BA
:103E000082B0002301930093294A136843F480335E
:103E10001360274B1B6803F400330093019B0133AD
:103E20000193009B1BB9019BB3F5A04FF1D1204B2F
:103E30001B6813F4003F06D001230093009B012B65
:103E400004D002B0704700230093F7E7184B1A6CB8
:103E500042F080521A6417490A6842F440420A60EC
:103E60009A689A609A689A609A6842F480529A6056
:103E7000114A5A601A6842F080721A600C4B1B6833
:103E800013F0007FFAD00D4B40F205721A60A3F5D3
:103E900080639A6822F003029A609A6842F00202F4
:103EA0009A60034B9B6803F00C03082BF9D1C8E719
:103EB000003802400070004008544107003C0240B6
:103EC00010B5104CD4F8883043F47003C4F888302F
:103ED0000D4B1A6842F001021A60002199601A68BD
:103EE00022F0847222F480321A60084A5A601A68FA
:103EF00022F480221A60D960FFF782FF4FF000633E
:103F0000A36010BD00ED00E0003802401030002436
:103F10004FF400534B6000207047012070474FF072
:103F2000FF3070470020704770B50C4616460025DC
:103F300004E014F8010BFEF761FB0135B542F8DB34
:103F4000304670BD002070470346064A126822B111
:103F5000044A1068034413607047024A0249116022
:103F6000F6E700BF84BA002088BA0020024B162270
:103F70001A604FF0FF307047100800200120704792
:103F8000FEE700000FB400B5074983B004AB086832
:103F900053F8042B8168019300F05EF803B05DF8DC
:103FA00004EB04B0704700BF0C00002070B505465C
:103FB00088B008460C46FCF7A3FE214E6A6B0590BC
:103FC00001214318CDE9066104A80221049403935A
:103FD000AC6801900291002A2ED0626EB4F90C30C8
:103FE000D60701D4980521D5990406D4626E43F40E
:103FF000005322F40052A3816266284601AA21469A
:1040000002F00AFD636E00280CBF0A254FF0FF3551
:10401000DA0702D4A3899B0502D5284608B070BDF3
:10402000A06DFDF7B3F9284608B070BDA06DFDF78F
:10403000ABF9B4F90C30D7E72846FDF729F8CCE7FF
:10404000B08F0008024B01461868FFF7AFBF00BFF2
:104050000C000020000000002DE9F04F2DED028B38
:10406000D3B01C46CDE906109246054602F0DCFFAF
:104070000368139318460B94FCF742FE12901DB18F
:104080006B6B002B01F08380069A536EB2F90C2003
:10409000DE0702D4950540F1BE86900407D4069948
:1040A0004B6E42F4005223F400538A814B66110791
:1040B00040F1CA80069B1B69002B00F0C58002F00E
:1040C0001A030A2B00F0CF800023CDF810A0CDE911
:1040D0002733CDE91533CDE917330E9314930993A4
:1040E000049B9FED8B7B1B7829AA8DED107B26927C
:1040F0009346002B00F09A81DDF810A004E01AF836
:10410000013F002B00F0C680252BF8D1049BBAEBB1
:10411000030540F0C4809AF80030002B00F086813F
:1041200000239AF801508DF87B3008930AF1010AB8
:104130004FF0FF3903930AF1010AA5F120035A2B2E
:1041400000F2EA80DFE813F0CE02E800E800C702E0
:10415000E800E800E8006A00E800E8007002A10258
:10416000E8007B02AE02E800A7025B005B005B0098
:104170005B005B005B005B005B005B00E800E8004D
:10418000E800E800E800E800E8007901E800FC0148
:10419000D301790179017901E800E800E800E8003D
:1041A000FE02E800E8002E02E800E800E80006024F
:1041B000E800E302E800E8002F07E800E800E80074
:1041C000E800E800E800E800E8007901E800FC0108
:1041D000D701790179017901D902D701CC01E80031
:1041E0000503E800820232029002CC01E8000602D8
:1041F0007D002C07E800E8005207E8007D00A5F1EB
:10420000300300221AF8015B02EB820203EB420248
:10421000A5F13003092BF5D908928EE7079D2846B2
:1042200002F002FF436817931846FCF769FD1890E7
:104230000446284602F0F8FE83681593002C40F0EF
:104240008D869AF8005076E7069D0798294602F079
:1042500063FD002841F04483B5F90C2002F01A03F5
:104260000A2B7FF431AF0699B1F90E30002BFFF61F
:104270002BAF4B6EDE0702D4950541F17C81DDE961
:1042800006102346524653B0BDEC028BBDE8F04FFA
:1042900001F054BC049BBAEB030500F0C780049BFB
:1042A000289FCBE90035279B01332F44072B289704
:1042B000279305DC0BF1080B099B2B4409932AE794
:1042C000DDE9061026AA01F0B5FC80B90DF1A40BBA
:1042D000F2E7DDE9061026AA01F0ACFC002800F0A8
:1042E00094800A9B1BB107981946FDF7F7F8069BC7
:1042F0005A6EB3F90C30D40740F1E880590601F149
:10430000FB82099853B0BDEC028BBDE8F08F00BF73
:104310000000000000000000002D00F08780002257
:104320008DF8E4508DF87B200123CDE90C22059314
:104330001E4639AB0A9291460F920493039B13F0E9
:10434000020302D0059902310591039911F084040A
:1043500005D1089905980F1A002F00F38583289F2F
:104360008AB1279A0DF17B0101320137CBF8001099
:10437000072A4FF0010128972792CBF8041000F389
:10438000D7830BF1080B83B1279B1FAA0133023798
:10439000CBF80020072B4FF0020228972793CBF889
:1043A000042000F3D3830BF1080B802C00F054821F
:1043B000A9EB0608B8F1000F00F39A82039BDC0515
:1043C00000F1D181049BCBF80030279BCBF804602F
:1043D0000133F519072B2895279300F3E9820BF198
:1043E000080B039B5E0705D5089B059A9C1A002CB9
:1043F00000F3B883DDE9082305998A42ACBF9B1816
:104400005B180993002D7FF464AF002327930A9B68
:104410001BB10A990798FDF761F80DF1A40BCDF8CF
:1044200010A0049B1B78002B7FF466AE289B002B0A
:1044300041F023820023279359E70B9B073323F096
:104440000703B3EC027B57EC176B0B9327F0004389
:104450001B938DED1A7ADDE91A01B64B4FF0FF324E
:104460008DED107BFCF70CFD002840F01A85DDE98E
:104470001A01B04B4FF0FF32FCF786FB002840F0EA
:1044800010850022002330463946FCF773FB0028D4
:1044900040F015879DF87B20039BA74C23F08003F9
:1044A0000393A64B472DC8BF1C460023CDE90C3310
:1044B000032104940A9305910E4699460F93002A0E
:1044C0003FF43CAF059B0133059337E798053FF573
:1044D00015AF069CA06DFCF759FFB4F90C300DE741
:1044E000039B9AF8005043F02003039323E6039BB9
:1044F00043F010030393039B9C0640F153840B9BF2
:10450000073323F007031A46596852F8083B0B9209
:104510000A460029C0F27784B9F1FF3F00F0F98222
:10452000039921F0800653EA020140F0F382B9F1C9
:10453000000F40F0F482039652AB4E46049365E0C0
:104540000B9B002253F8041B8DF87B208DF8E410A0
:104550000B93E9E60B9F57F8043B049300268DF874
:104560007B60002B00F07785B9F1FF3F00F05C869F
:1045700004984A463146FCF733FC0A90002801F0C3
:1045800060810A9B049A0B97B1469E1A26EAE6734D
:10459000CDE90C999DF87B200593CDF82890CDF8B6
:1045A0003C908CE7039B43F010030393039B13F0B1
:1045B000200200F016840B9B073323F007031946F3
:1045C0005A6851F8083B0B91039921F48066002149
:1045D0000020B9F1FF3F8DF87B0000F0218126F02B
:1045E0008000039053EA020040F01981B9F1000FF6
:1045F00040F0D28500299FD116F001061BBF302361
:104600008DF8473152AB0DF2471304934E454FF0EE
:1046100000033146B8BF4946CDE90C339DF87B20F5
:104620000A9305910F934AE70B9B53F8042B0892CA
:10463000002A80F2F883089A0B9352420892039B57
:104640009AF8005043F00403039374E5039B9E061D
:1046500040F194840B9B099A1B681A60D2175A6028
:104660000B9B04330B93DAE60B9A039B43F0020691
:1046700052F8043B0B9247F63002ADF87C20304AEA
:104680001492022100227825A2E72B239AF80050E9
:104690008DF87B304FE5039B9AF8005043F0800380
:1046A000039348E5524612F8015B2A2D01F022825D
:1046B000A5F13003092B92464FF000093FF63DADBE
:1046C0001AF8015B09EB890903EB4909A5F13003ED
:1046D000092BF5D931E5039B9AF8005043F001030B
:1046E000039328E59DF87B309AF80050002B7FF467
:1046F00022AD20238DF87B301DE59AF80050039BF6
:10470000682D00F0898443F04003039313E5039B75
:1047100043F0100616F0200200F054830B9B073381
:1047200023F0070319465A6851F8083B0B91012101
:104730004EE700BFFFFFEF7FB48F0008B88F00087F
:10474000C48F0008039B9AF8005043F008030393BA
:10475000F1E49AF80050039B6C2D00F0738443F051
:1047600010030393E7E4652D40F32E81DDE910018A
:1047700000220023FCF7F4F9002800F02F82279B89
:10478000B74ACBF80020013301370122072B2897C5
:104790002793CBF8042000F304850BF1080B209B32
:1047A0000E9A934204DB039BD80701D43D4618E6DA
:1047B000129B139ADD19CBE90023279B289501331F
:1047C000072B279300F331840BF1080B0E9B5C1E23
:1047D000002C7FF706AE102C279BA24F40F3EE84EF
:1047E000DDE90698102605E00BF1080B103C102CB3
:1047F00040F3E48401331035072BCBE90076CDE993
:104800002735F1DD26AA4946404601F013FA002873
:104810007FF467ADDDE927350DF1A40BE6E7039ED4
:10482000012900F07781022900F0608152AC03F089
:104830000701DB0843EA4273D208303153EA02072A
:10484000204604F8011DF2D1F707049400F14782D5
:1048500052AB03961E1BD9E6089B059AA3EB0208F0
:10486000B8F1000F7FF7A4ADB8F1100F3A46279BBF
:104870007C4F29DD19961C951024DDE90656194652
:1048800006E0A8F11008B8F1100F0BF1080B18DDC5
:10489000013110320729CBE90074CDE92712F0DD90
:1048A00026AA294630460DF1A40B01F0C3F90028D1
:1048B0007FF417ADA8F11008B8F1100FDDE9271249
:1048C000E6DC199E1C9D0B460133CBF80070072BCC
:1048D00008EB0207CDE92737CBF8048000F38F837C
:1048E000A9EB0608B8F1000F0BF1080B7FF766ADD6
:1048F000B8F1100F3A46279B5A4F2CDD5946079CBA
:10490000C3464FF01009B8462F46069D06E0ABF1AE
:10491000100BBBF1100F01F1080118DD01335148F4
:104920001032072BC1E90009CDE92732EFDD26AAB5
:104930002946204601F07EF900287FF4D2ACABF185
:10494000100BBBF1100FDDE9273229A9E6DC3D464B
:104950004746D8468B460133CBF80070072B08EB4F
:104960000207CDE92737CBF8048000F30E820BF164
:10497000080B23E5129B13985919CBE90003279BD9
:1049800028910133072B279300F3E6850BF1080BE1
:10499000002AC0F28387049ACBF800200E9ACBF845
:1049A000042001335518072BCDE927357FF717ADC4
:1049B000DDE9061026AA01F03DF900287FF491AC4C
:1049C000289D0DF1A40B0CE50E9B012B0BF10806A5
:1049D00040F39281049BCBF80030279B01330137D1
:1049E0000122072B28972793CBF8042000F3538349
:1049F000129A03F10108139BD519B8F1070FC6E904
:104A00000032CDE9278500F3528308360E9BDDE99D
:104A1000100103F1FF3900220023FCF7A1F8002860
:104A200040F08B81049CC6F8049008F10108013421
:104A30004D44B8F1070FCDE92785346000F371814B
:104A40000836169A726008F101031544072B22AA52
:104A5000CDE927353260ABDC06F1080BC1E400BFBD
:104A6000F48F0008F4910008102FDDE92721DFF80A
:104A7000E8842BDDCDE91C341996079C4646A846F0
:104A8000069D04E0103F102F0BF1080B19DD0132D9
:104A900010311023072ACDE92721CBF80060CBF88D
:104AA0000430EFDD26AA294620460DF1A40B01F0C3
:104AB000C1F800287FF415AC103F102FDDE9272145
:104AC000E5DCDDE91C344546B046199ECBF8008094
:104AD00001323944072ACBF804702891279200F359
:104AE00046839DF87B200BF1080B38E4149C52A9F7
:104AF00003F00F001B09205C01F8010D43EA02736B
:104B0000120953EA0200F3D152ABCDE903615E1AF8
:104B10007CE5039E0A2B72F1000180F0D4823033D1
:104B20008DF847310DF247130396049301266DE586
:104B3000DDE9061026AA199301F07CF800287FF41D
:104B4000D0AB289F199B0DF1A40B1CE4DDE90610E6
:104B500026AA01F06FF800287FF4C3AB289F0DF15F
:104B6000A40B22E4102C279BDFF8EC8323DD4746BF
:104B7000DDF81890DDF81C80102604E0103C102CA5
:104B80000BF1080B16DD01331035072BCBE900764E
:104B9000CDE92735F2DD26AA494640460DF1A40BA2
:104BA00001F048F800287FF49CAB103C102CDDE9A4
:104BB0002735E8DCB84601332544072BCBE90084D0
:104BC000CDE927357FF716ACDDE9061026AA01F0FE
:104BD00031F800287FF485AB289D0BE4209A002A49
:104BE00040F326810C9E0E9B049A9E42A8BF1E464F
:104BF000002E134419930BDD279B01333744072BF9
:104C0000CBE900262897279300F3EE850BF1080BDC
:104C10000C9D002EA8BFAD1B002D00F3E282049B6B
:104C20000C9A13449946039B590500F10585209C75
:104C30000E9B9C4203DB039AD20740F1DE83129B5A
:104C4000139ADD19CBE90023279B28950133072B05
:104C5000279300F3E8850BF1080B0E9B1C1B199B97
:104C6000A3EB0906A642A8BF2646002E0DDD279B12
:104C7000CBF8009001333544072BCBF8046028951E
:104C8000279300F3EA850BF1080B002EA8BFA41BA5
:104C9000002C7FF7A6AB102C279BAD4F40F38E82E4
:104CA000DDE90698102605E00BF1080B103C102CEE
:104CB00040F3848201331035072BCBE90076CDE930
:104CC0002735F1DD26AA4946404600F0B3FF00280B
:104CD0007FF407ABDDE927350DF1A40BE6E73029BA
:104CE00000F08781049A03963023023802F8013CD1
:104CF00052AB1E1A049089E4039BDB073FF56AAEB2
:104D0000049BCBF80030279B03F101087D1C012395
:104D1000B8F1070F2895CDF89C80CBF804307FF7C9
:104D200090AEDDE9061026AA00F084FF00287FF48B
:104D3000D8AADDE9278529AE83E60E9B012B7FF7F4
:104D400080AE112B824F40F3788243461024DDE978
:104D500006B806E00836A9F11009B9F1100F40F3C2
:104D60006B8201331035072BC6E90074CDE9273576
:104D7000F0DD26AA5946404600F05CFF00287FF48B
:104D8000B0AADDE9273529AEE5E7DDE9061026AA58
:104D900000F050FF00287FF4A4AA289F0DF1A40B77
:104DA000FFF70CBB0B9A52F8043B0B92039AD00608
:104DB00073D4039A51066CD543F3C03211461BB22B
:104DC000FFF7A7BB0B9951F8043B0B9116F01001AC
:104DD0005CD116F0400054D00A469BB20121FFF787
:104DE000F7BB0B9951F8043B0B91039911F010019B
:104DF0007FF4EAAB039A12F0400000F032829BB2DB
:104E00000A46FFF7E1BB5B42039E62EB42022D20A4
:104E10000121FFF7DEBB069DA86DFCF7B5FAB5F9D9
:104E20000C20FFF73AB99AF800500B93FFF783B9BB
:104E3000279B4849CBF8001001337D1C0121072B2B
:104E400028952793CBF8041000F3C0840BF1080BCE
:104E5000002A7FF48FAD039B0E9A03F001031343E6
:104E60003FF4BFAA129B139A5919CBE90023279B41
:104E700028910133072B279300F36E830BF1080B66
:104E800089E516F400721CBFDBB202460121FFF770
:104E90009FBB039A920500F1B982DA171146FFF71A
:104EA00038BBDDE9100102460B46FBF7E9FF00289D
:104EB00040F0D985612D00F0B484412D00F0B2821C
:104EC000B9F1FF3F00F0988525F02003472B04D16E
:104ED000B9F1000F08BF4FF00109DDE91001039C93
:104EE000002944F480720592C0F26284002341ECF0
:104EF000180B19930A93A5F14103252B00F2E481C5
:104F0000DFE813F05203E201E201E2014B034F0339
:104F1000E201E201E201E201E201E201E201E20179
:104F2000E201E201E201E201E201E201E201E20169
:104F3000E201E201E201E201E201E201E201E20159
:104F4000E201E201E201E201E201E2014B034F036F
:104F5000F4910008F48F000804920008159B9AF859
:104F60000050002B3FF4E7A81B78002B3FF4E3A888
:104F7000039B43F480630393FFF7DDB8039BDD06D7
:104F800000F12981039B5C0600F14682039B980592
:104F900040F121810B9B099A1B681A70FFF760BBD7
:104FA000039EFFF7B7BBBA4B1493039B13F0200289
:104FB00061D00B9B073323F0070319465A6851F859
:104FC000083B0B910398C1070AD553EA020107D0A9
:104FD00040F00201039130218DF87D508DF87C1056
:104FE000039921F480660221FFF7F2BAA94B1493CA
:104FF000DBE7049A039652AB9E1AFFF707BBDDE985
:10500000061026AA00F016FE00287FF46AA9289F41
:105010000DF1A40BFFF7CCB943F400739AF80150DB
:1050200003930AF1010AFFF786B8DDE9061026AA04
:1050300000F000FE00287FF454A9289D0DF1A40B78
:10504000FFF7C4BB43F020039AF8015003930AF121
:10505000010AFFF770B84E46062E1A4628BF0626EC
:1050600099460A938C4B0596CDE90C220B97049335
:105070000F92FFF724BA0B9951F8043B0B91039957
:1050800011F010019ED1039A12F0400000F0E2806E
:105090009BB20A4696E7DDE9061026AA00F0CAFD93
:1050A00000287FF41EA9DDE9273729AEA0E4DDE959
:1050B000061026AA00F0BEFD00287FF412A9DDE943
:1050C000278529AEA2E40021CDE9045606F48067C5
:1050D000DFF8CC81159ECDF80CA052AC8C4605E0D3
:1050E0000A2B72F1000235D353462A46991841F132
:1050F0000001A8FB010525F0030000EB9500091A4B
:10510000581A4FF0CC3562F1000E05FB00F508FB94
:105110000E55A0FB08A005440AF0010E0520AEFBC9
:10512000000E40184FEA5A0A303004F8010C4AEADF
:10513000C57A0CF1010C013C6D08002FD0D03178FC
:105140008C45CDD1BCF1FF0FCAD00A2B72F1000201
:1051500080F0A8801596059EDDF80CA0049DCDF882
:1051600038C052ABCDE903641E1BFFF74FBADDE92F
:10517000061026AA199300F05DFD00287FF4B1A85F
:105180009DF87B20199B0DF1A40BFFF7E8B8079859
:10519000FBF77EFFFEF778BF0129039E7FF443AB48
:1051A000BDE4DDE9061026AA00F044FD00287FF4E6
:1051B00098A8289F0DF1A40BFFF7F1BA01332544FD
:1051C000072BCBF80070CBF80440CDE927357FF7EB
:1051D00006A9FFF7EDBB0B9B099A1B681A60FFF746
:1051E0003FBA102D3A46279B2C4F42DDDDE906845D
:1051F000102604E00BF1080B103D102D39DD0133B2
:105200001032072BCBE90076CDE92732F2DD26AA52
:105210004146204600F00EFD00287FF462A8DDE93B
:1052200027320DF1A40BE7E704980B97FBF768FD15
:10523000B1460646FFF7AAB9984608F101084D4461
:10524000B8F1070FCDE927853760C6F804907FF7DE
:10525000F7AB66E5039A12F400721CBFDBB202469C
:10526000B0E6039A12F400721CBFDBB20246FFF7ED
:10527000ABB90133CBF80070072B05EB0207CDE982
:105280002737CBF8045000F37B810BF1080BC6E401
:10529000D88F0008C48F0008EC8F0008F491000834
:1052A000CDCCCCCC189B1799E41A1A46204601F0B5
:1052B00081FE737803B101364FF0000C14E72D2204
:1052C0008DF87B20FFF7E8B84F46022124AB01930D
:1052D00021AB00930798B0EE480AF0EE680A20ABC5
:1052E0003A4601F071FF672D049000F0D082472DFF
:1052F00000F08683049B25F02008B8F1460F03EBED
:10530000070605D11B78302B00F0BF83209F3E4459
:1053100051EC180B00220023FBF722FC002800F0C0
:1053200075813346049A9B1A0E93209A0C92B8F119
:10533000470F00F05881B8F1460F00F0F582531E78
:10534000612D209300F0C283412D40F05581502102
:105350000120002BB6BFC2F101032B222D22092B05
:105360008DF888108DF8892040F311830DF1970690
:10537000AC4F32461046A7FB0312D20802EB820163
:10538000A3EB4101303100F8011C19466329134693
:1053900000F1FF32EEDC303302F8013C831EB342F1
:1053A00080F0B3830DF1890213F8011B02F8011F8D
:1053B000B342F9D152AB181AA0F1AD0316930E9B6C
:1053C000169A012B03EB020640F32183129B1E4425
:1053D00024F4806343F4807303930023CDE90C33FA
:1053E00026EAE6720F930592199B002B40F0078185
:1053F0009DF87B209946FFF762B8199A1C1BA2EB17
:105400000906A6423D46A8BF26463EE443F3C01225
:1054100011465BB2FFF77DB80B9B099A1B681A8097
:10542000FFF71EB958238DF87D3030238DF87C307E
:10543000039BB9F1630F43F0020400F3838200235E
:105440000A9339AB0493039B43F481730593119B37
:10545000002BC0F2B0819DED108B00231993612DBC
:105460007FF449ADB0EE480AF0EE680A20A801F0DA
:10547000DFFD00224FF07F5351EC100BFBF708F9D2
:105480000022002306460F46FBF76AFB002840F087
:10549000AA82654B039309F1FF33CDE91C9B0D955F
:1054A000CDE90E4ADDF81080DDF80CB01D4605E0B0
:1054B00000220023FBF754FBF0B94D465B4B002262
:1054C00030463946FBF7E4F80F460646FBF7EEFC9C
:1054D0000446FBF773F80B46024639463046FAF7A6
:1054E0001FFF1BF80430C24608F8013B6B1C05F196
:1054F000FF3906460F46DBD14D4B0C950022304656
:1055000039460D9D0D94DDE91C9B0E9CCDF838A00D
:10551000DDF83CA0FBF74CFB002840F04782444BF1
:10552000304639460022FBF71BFB18B10D9BDF0705
:1055300000F13C820C9B002BC0F253820C9B013388
:105540004344302208F8012B4345FBD1049A9B1AAF
:105550000E9325F02008E8E6DDE9061026AA00F003
:1055600069FB00287EF4BDAEDDE92731209A0DF1FC
:10557000A40BFFF70DBA886DFBF708FFFEF77FBE9F
:10558000DDE9061026AA00F055FB00287EF4A9AE3E
:10559000289F0DF1A40BFFF742BB09F1010702217F
:1055A00094E64F46032191E620A8B0EE480AF0EEBB
:1055B000680A01F03DFD00224FF07F5351EC100BC3
:1055C000FBF766F80022002306460F46FBF7C8FAF1
:1055D000002840F00882174B03935CE7049A249B51
:1055E0009B1A209A0E93D31C0C9202DB914580F2F9
:1055F000C780531E023D2093E9B20020A9E62D2268
:105600008DF87B204FF00009FEF75CBF249BB3426E
:10561000BFF488AE30215A1C24921970249B9E42FC
:10562000F9D87FE6CDCCCCCCC48F00080000304048
:105630000000E03FD88F00080D99CDF870A05A46C1
:105640003846B04E189BDDF854A0DDF818B04F4630
:105650004FF01008DDF83C9071B3B9F1000F7AD02B
:1056600009F1FF391799C2E900132799013118444C
:1056700007292890279161DC0832199C9AF80010BC
:10568000E51B8D42A8BF0D46002D0BDD279901318A
:1056900028440729C2E900752890279161DC9AF80F
:1056A00000100832002DACBF4C1B0C46002C13DC44
:1056B0000F440D990029D0D1B9F1000FD0D1199B19
:1056C000CDF854A0B9469945DDF870A09346074639
:1056D00028BF9946FFF7ABBA102C279940F3F48105
:1056E000079D04930C9604E0103C102C02F1080274
:1056F00015DD013110300729C2E90068CDE9271016
:10570000F2DD26AA5946284600F094FA00287EF4D5
:10571000E8AD103C102CDDE9271029AAE9DC049B38
:105720000C9D1560013120440729CDE927105460F4
:1057300067DC9AF8001008320F44BAE70798049320
:1057400026AA594600F076FA00287EF4CAAD2898B9
:10575000049B29AA91E70D9901390AF1FF3A0D91AD
:1057600080E70798049326AA594600F063FA0028B8
:105770007EF4B7AD9AF800102898049B29AA91E707
:105780000E9B934200F3C080E30740F16A81129BB5
:10579000D618670502D5002A00F33D81059B0393C7
:1057A00026EAE6730593672500230F930D931BE606
:1057B0000023039C0A93DDE9102303F1004308EE64
:1057C000903A2D2308EE102A199348E6DDE90610D9
:1057D00026AA00F02FFA00287EF483AD209A289D97
:1057E0000DF1A40BFFF734BBDDE9061026AA00F08B
:1057F00021FA00287EF475AD289F0DF1A40BFFF768
:1058000007BA0798049326AA594600F013FA00280D
:105810007EF467AD9AF800102898049B29AA0F44DB
:1058200047E77823FFE5DDE9061026AA00F002FA33
:1058300000287EF456AD209C289D0DF1A40BFFF7A7
:105840000CBA4E46CDF81490CDE90C009DF87B20A3
:105850000B9781460F90FEF732BEDDE9061026AAAF
:1058600000F0E8F900287EF43CAD209C0E9B289DBA
:105870001C1B0DF1A40BFFF708BADDE9061026AAE0
:1058800000F0D8F900283EF4D5ADFEF730BDE607AC
:105890007FF5A4AEC6194FF0470839E556421032DD
:1058A000184F5BDADDE90684102504E00BF1080BE4
:1058B000103E102E52DD01331031072BCBE900755D
:1058C000CDE92731F2DD26AA4146204600F0B2F9A3
:1058D00000287EF406ADDDE927310DF1A40BE7E7E2
:1058E000069B5B6EDB0707D4069B9B899F0503D451
:1058F000069B986DFBF74AFD4FF0FF330993FEF7C7
:1059000000BD00BFF49100080E9B129A9E180C9BDC
:10591000002B40F3CC80672562057DD4059B039363
:1059200026EAE67305933FE70C9A04F00103002A88
:1059300043EA090340F3CC80002B40F0B3800C9E77
:105940006625E9E7079809F10101FBF7C5FE049018
:10595000002800F0DD80049B0A9374E50133314494
:10596000072BCDE92731CBF80070CBF804607FF727
:1059700085AADDE9061026AA00F05CF900287EF46D
:10598000B0ACDDE927310DF1A40BFFF704B8002816
:1059900040F0978030228DF88A200DF18B02303351
:1059A00002F8013B22ABD31A169308E50E9B039A2B
:1059B0002493D17B18F8013C9942424609D130200A
:1059C00002F8010C249A531E249312F8013C9942C8
:1059D000F6D0392B0BBF039B01339B7ADBB202F865
:1059E000013C4346B2E5504B504A612D18BF1A4660
:1059F0000123039220934EE54FF00609FFF76DBA9D
:105A0000E1077FF5EBAD049BA846DE1980E4E207D1
:105A10007FF5DEACDAE4672515990B78FF2B7ED095
:105A200000240C9A204603E001300131FF2B08D0FE
:105A3000934206DAD21A4B78002BF5D10B78013459
:105A4000F4E70C9215910D900F94059B0F9A039318
:105A50000D9B1344189A02FB036626EAE67305932E
:105A6000C2E4164695E6119B314C002B039BA8BF60
:105A70009DF87B2023F08003B8BF2D220393B8BF8D
:105A80008DF87B202B4BFEF70DBD51EC180B00223F
:105A90000023FBF765F800287FF438ACC7F1010755
:105AA000209734E4129BD6184E44662534E7C3F1A0
:105AB00001031E44059A039226EAE67305936725BF
:105AC00072E60DF18A026AE71B4D2AE670213FE477
:105AD00033B9059B03930123059366251E4663E6B0
:105AE000059B0393129B5E1C4E4426EAE6730593C6
:105AF000662559E60B9B9AF80150924653F8042B01
