:020000040800F2
:100000000080012011490008614900086149000889
:1000100061490008614900086149000800000000CA
:10002000000000000000000000000000614900081E
:10003000614900080000000093020008B93C000874
:1000400061490008614900086149000861490008E8
:1000500061490008614900086149000861490008D8
:1000600061490008614900086149000861490008C8
:1000700061490008614900086149000861490008B8
:10008000614900086149000861490008000000005A
:1000900000000000000000000000000061490008AE
:1000A000614900086149000861490008AD35000850
:1000B0006149000861490008614900086149000878
:1000C0006149000861490008614900086149000868
:1000D000614900086149000861490008000000000A
:1000E00061490008614900086149000800000000FA
:1000F000000000000000000000000000614900084E
:1001000000000000614900086149000861490008D9
:1001100000000000000000000000000000000000DF
:100120006149000861490008614900086149000807
:10013000614900080000000000000000000000000D
:1001400000000000000000000000000061490008FD
:1001500061490008614900086149000861490008D7
:10016000614900086149000800000000000000002B
:10017000000000000000000000000000000000007F
:1001800000000000614900080000000000000000BD
:0401900061490008B9
:1001C000EFF3098121B120ED108A4F490A681060D0
:1001D0007047B0EC108A4D490A681060704772B6DB
:1001E00002B4EFF3118180F31188BFF34F8FBFF397
:1001F0006F8F084602BC62B6704772B680F31188F2
:10020000BFF34F8FBFF36F8F62B6704772B64EF673
:100210002250CEF2000040F2FF01C0F20001017056
:10022000002080F3098846F61C10C2F20000016825
:1002300081F3088836480121017047F66600C2F252
:10024000000047F66501C2F200010A78027047F229
:100250005060C2F2000047F24861C2F200010A6831
:100260000260106880F30988EFF3148040F0020008
:1002700080F31488BFF36F8FBDE8F04F0FBCBDE86B
:10028000005006BC62B6084722484FF0805101601A
:10029000704772B646F61812C2F20002116881F376
:1002A0001188BFF34F8FBFF36F8F62B6EFF30980F2
:1002B00020E9F04F47F25065C2F200052968086056
:1002C000744647F66600C2F2000047F66501C2F2C6
:1002D00000010A78027047F24861C2F200010A6820
:1002E0002A6044F0040E1068B0E8F04F80F30988EB
:1002F0004FF0000272B682F31188BFF34F8FBFF345
:100300006F8F62B67047000050760020487600205C
:100310005978002004ED00E081F0004102E000BFC8
:1003200083F0004330B54FEA41044FEA430594EAB5
:10033000050F08BF90EA020F1FBF54EA000C55EAF0
:10034000020C7FEA645C7FEA655C00F0E2804FEAC1
:100350005454D4EB5555B8BF6D420CDD2C4480EAA3
:10036000020281EA030382EA000083EA010180EAD3
:10037000020281EA0303362D88BF30BD11F0004F21
:100380004FEA01314FF4801C4CEA113102D0404257
:1003900061EB410113F0004F4FEA03334CEA133392
:1003A00002D0524263EB430394EA050F00F0A780AA
:1003B000A4F10104D5F1200E0DDB02FA0EFC22FAA5
:1003C00005F2801841F1000103FA0EF2801843FA99
:1003D00005F359410EE0A5F120050EF1200E012A8A
:1003E00003FA0EFC28BF4CF0020C43FA05F3C018C8
:1003F00051EBE37101F0004507D54FF0000EDCF141
:10040000000C7EEB00006EEB0101B1F5801F1BD3E9
:10041000B1F5001F0CD349085FEA30004FEA3C0CED
:1004200004F101044FEA445212F5800F80F09A80E3
:10043000BCF1004F08BF5FEA500C50F1000041EBE7
:10044000045141EA050130BD5FEA4C0C404141EBEB
:100450000101013C28BFB1F5801FE9D291F0000FE6
:1004600004BF01460020B1FA81F308BF2033A3F195
:100470000B03B3F120020CDA0C3208DD02F1140C8C
:10048000C2F10C0201FA0CF021FA02F10CE002F1C7
:100490001402D8BFC2F1200C01FA02F120FA0CFCC0
:1004A000DCBF41EA0C019040E41AA2BF01EB045109
:1004B000294330BD6FEA04041F3C1CDA0C340EDC07
:1004C00004F11404C4F1200220FA04F001FA02F34A
:1004D00040EA030021FA04F345EA030130BDC4F108
:1004E0000C04C4F1200220FA02F001FA04F340EAFD
:1004F0000300294630BD21FA04F0294630BD94F0AE
:10050000000F83F4801306BF81F480110134013D94
:100510004EE77FEA645C18BF7FEA655C29D094EA05
:10052000050F08BF90EA020F05D054EA000C04BF83
:100530001946104630BD91EA030F1EBF002100206E
:1005400030BD5FEA545C05D14000494128BF41F00D
:10055000004130BD14F580043CBF01F5801130BD71
:1005600001F0004545F0FE4141F470014FF00000FC
:1005700030BD7FEA645C1ABF194610467FEA655CAD
:100580001CBF0B46024650EA013406BF52EA03354F
:1005900091EA030F41F4002130BD00BF90F0000F3D
:1005A00004BF0021704730B54FF4806404F1320479
:1005B0004FF000054FF0000150E700BF90F0000F32
:1005C00004BF0021704730B54FF4806404F1320459
:1005D00010F0004548BF40424FF000013EE700BF29
:1005E00042004FEAE2014FEA31014FEA02701FBFB9
:1005F00012F07F4393F07F4F81F06051704732F0EB
:100600007F4208BF704793F07F4F04BF41F4002141
:10061000704730B54FF4607401F0004521F000419F
:100620001CE700BF50EA010208BF704730B54FF029
:1006300000050AE050EA010208BF704730B511F02A
:10064000004502D5404261EB41014FF4806404F162
:1006500032045FEA915C3FF4D8AE4FF003025FEAE8
:10066000DC0C18BF03325FEADC0C18BF033202EB6C
:10067000DC02C2F1200300FA03FC20FA02F001FAC6
:1006800003FE40EA0E0021FA02F11444BDE600BF69
:1006900070B54FF0FF0C4CF4E06C1CEA11541DBF18
:1006A0001CEA135594EA0C0F95EA0C0F00F0DEF8E3
:1006B0002C4481EA030621EA4C5123EA4C5350EAC8
:1006C000013518BF52EA033541F4801143F4801319
:1006D00038D0A0FB02CE4FF00005E1FB02E506F0AA
:1006E0000042E0FB03E54FF00006E1FB03569CF0FF
:1006F000000F18BF4EF0010EA4F1FF04B6F5007F05
:1007000064F5407404D25FEA4E0E6D4146EB060676
:1007100042EAC62141EA55514FEAC52040EA5E50FF
:100720004FEACE2EB4F1FD0C88BFBCF5E06F1ED8A9
:10073000BEF1004F08BF5FEA500E50F1000041EBE0
:10074000045170BD06F0004646EA010140EA02008D
:1007500081EA0301B4EB5C04C2BFD4EB0C0541EAAF
:10076000045170BD41F480114FF0000E013C00F3C4
:10077000AB8014F1360FDEBF002001F0004170BDE8
:10078000C4F10004203C35DA0C341BDC04F1140401
:10079000C4F1200500FA05F320FA04F001FA05F28D
:1007A00040EA020001F0004221F0004110EBD3705A
:1007B00021FA04F642EB06015EEA430E08BF20EA86
:1007C000D37070BDC4F10C04C4F1200500FA04F329
:1007D00020FA05F001FA04F240EA020001F00041BB
:1007E00010EBD37041F100015EEA430E08BF20EA2E
:1007F000D37070BDC4F1200500FA05F24EEA020E76
:1008000020FA04F301FA05F243EA020321FA04F0A4
:1008100001F0004121FA04F220EA020000EBD3705B
:100820005EEA430E08BF20EAD37070BD94F0000F5B
:100830000FD101F00046400041EB010111F4801F8F
:1008400008BF013CF7D041EA060195F0000F18BF40
:10085000704703F00046520043EB030313F4801F7C
:1008600008BF013DF7D043EA0603704794EA0C0F36
:100870000CEA135518BF95EA0C0F0CD050EA41064C
:1008800018BF52EA4306D1D181EA030101F00041C9
:100890004FF0000070BD50EA410606BF10461946F1
:1008A00052EA430619D094EA0C0F02D150EA0136FD
:1008B00013D195EA0C0F05D152EA03361CBF10463E
:1008C00019460AD181EA030101F0004141F0FE41DD
:1008D00041F470014FF0000070BD41F0FE4141F461
:1008E000780170BD70B54FF0FF0C4CF4E06C1CEA61
:1008F00011541DBF1CEA135594EA0C0F95EA0C0F16
:1009000000F0A7F8A4EB050481EA030E52EA0335D0
:100910004FEA013100F088804FEA03334FF08055F1
:1009200045EA131343EA12634FEA022245EA11151E
:1009300045EA10654FEA00260EF000419D4208BFCF
:10094000964244F1FD0404F5407402D25B084FEA7C
:100950003202B61A65EB03055B084FEA32024FF428
:1009600080104FF4002CB6EB020E75EB030E22BF85
:10097000B61A754640EA0C005B084FEA3202B6EB45
:10098000020E75EB030E22BFB61A754640EA5C00F4
:100990005B084FEA3202B6EB020E75EB030E22BF84
:1009A000B61A754640EA9C005B084FEA3202B6EB85
:1009B000020E75EB030E22BFB61A754640EADC0044
:1009C00055EA060E18D04FEA051545EA16754FEAA6
:1009D00006164FEAC30343EA52734FEAC2025FEAC4
:1009E0001C1CC0D111F4801F0BD141EA00014FF053
:1009F00000004FF0004CB6E711F4801F04BF014324
:100A00000020B4F1FD0C88BFBCF5E06F3FF6AFAE3F
:100A1000B5EB030C04BFB6EB020C5FEA500C50F1CF
:100A2000000041EB045170BD0EF0004E4EEA113152
:100A300014EB5C04C2BFD4EB0C0541EA045170BD59
:100A400041F480114FF0000E013C90E645EA060E9D
:100A50008DE60CEA135594EA0C0F08BF95EA0C0FCB
:100A60003FF43BAF94EA0C0F0AD150EA01347FF413
:100A700034AF95EA0C0F7FF425AF104619462CE7EA
:100A800095EA0C0F06D152EA03353FF4FDAE10464D
:100A9000194622E750EA410618BF52EA43067FF49E
:100AA000C5AE50EA41047FF40DAF52EA43057FF42E
:100AB000EBAE12E74FF0FF3C06E000BF4FF0010C39
:100AC00002E000BF4FF0010C4DF804CD4FEA410C9D
:100AD0007FEA6C5C4FEA430C18BF7FEA6C5C1BD06A
:100AE00001B050EA410C0CBF52EA430C91EA030FEB
:100AF00002BF90EA020F0020704710F1000F91EA48
:100B0000030F58BF994208BF90422CBFD8176FEA15
:100B1000E37040F0010070474FEA410C7FEA6C5CE3
:100B200002D150EA013C07D14FEA430C7FEA6C5CEA
:100B3000D6D152EA033CD3D05DF8040B704700BF16
:100B40008446104662468C461946634600E000BF64
:100B500001B5FFF7B7FF002848BF10F1000F01BD36
:100B60004DF808EDFFF7F4FF0CBF012000205DF801
:100B700008FB00BF4DF808EDFFF7EAFF34BF012086
:100B800000205DF808FB00BF4DF808EDFFF7E0FF1F
:100B900094BF012000205DF808FB00BF4DF808ED70
:100BA000FFF7CEFF94BF012000205DF808FB00BFD7
:100BB0004DF808EDFFF7C4FF34BF012000205DF8B9
:100BC00008FB00BF4FEA4102B2F1E04324BFB3F596
:100BD000001CDCF1FE5C0DD901F0004C4FEAC002B4
:100BE0004CEA5070B2F1004F40EB830008BF20F098
:100BF0000100704711F0804F21D113F13872BCBF52
:100C000001F00040704741F480114FEA5252C2F1A6
:100C10001802C2F1200C10FA0CF320FA02F018BFEF
:100C200040F001004FEAC1234FEAD32303FA0CFC42
:100C300040EA0C0023FA02F34FEA4303CCE77FEAD1
:100C4000625307D150EA01331EBF4FF0FE4040F41B
:100C50004000704701F0004040F0FE4040F40000CA
:100C6000704700BF844641EA000313F003036DD1CF
:100C7000403A41D351F8043B40F8043B51F8043B5F
:100C800040F8043B51F8043B40F8043B51F8043B66
:100C900040F8043B51F8043B40F8043B51F8043B56
:100CA00040F8043B51F8043B40F8043B51F8043B46
:100CB00040F8043B51F8043B40F8043B51F8043B36
:100CC00040F8043B51F8043B40F8043B51F8043B26
:100CD00040F8043B51F8043B40F8043B51F8043B16
:100CE00040F8043B51F8043B40F8043B51F8043B06
:100CF00040F8043B403ABDD2303211D351F8043BA6
:100D000040F8043B51F8043B40F8043B51F8043BE5
:100D100040F8043B51F8043B40F8043B103AEDD254
:100D20000C3205D351F8043B40F8043B043AF9D2A5
:100D3000043208D0D2071CBF11F8013B00F8013B78
:100D400001D30B8803806046704700BF082A13D385
:100D50008B078DD010F003038AD0C3F10403D21A9D
:100D6000DB071CBF11F8013B00F8013B80D331F8D1
:100D7000023B20F8023B7BE7043AD9D3013A11F851
:100D8000013B00F8013BF9D20B7803704B784370BC
:100D90008B78837060467047000000000000000000
:100DA0000000000000000000000000000000000043
:100DB0000000000000000000000000000000000033
:100DC00030B490F800F020F007016FF0000C10F044
:100DD000070491F820F040F048804FF000046FF0D5
:100DE0000700D1E9002391F840F000F1080082FAF1
:100DF0004CF2A4FA8CF283FA4CF3A2FA8CF34BBBBC
:100E0000D1E9022382FA4CF200F10800A4FA8CF234
:100E100083FA4CF3A2FA8CF3E3B9D1E9042382FA02
:100E20004CF200F10800A4FA8CF283FA4CF3A2FA17
:100E30008CF37BB9D1E9062301F1200182FA4CF24F
:100E400000F10800A4FA8CF283FA4CF3A2FA8CF3B6
:100E5000002BC6D0002A04BF04301A4612BAB2FAD8
:100E600082F200EBD20030BC7047D1E9002304F0DD
:100E70000305C4F100004FEAC50514F0040F91F812
:100E800040F00CFA05F562EA05021CBF63EA0503AF
:100E900062464FF00004AAE70000000000000000D6
:100EA00001F0FF01102A2BDB10F0070F08D010F81B
:100EB000013B013A8B422DD010F0070F42B3F6D11F
:100EC000F0B441EA012141EA014122F007047FF038
:100ED00000070023F0E80256083C85EA010586EA8F
:100EE000010685FA47F5A3FA87F586FA47F6A5FACB
:100EF00087F68EB9EED1F0BC01F0FF0102F00702D7
:100F000032B110F8013B013A83EA010313B1F8D181
:100F10000020704701387047002D06BF3546033862
:100F2000073815F0010F07D1013015F4807F02BF9B
:100F3000013015F4C03F0130F0BC0138704700BFEC
:100F40004FEA410C7FEA6C5C02D150EA013C0AD1C5
:100F50004FEA430C7FEA6C5C02D152EA033C02D1B7
:100F60004FF0000070474FF00100704710B5054C7E
:100F7000237833B9044B13B10448AFF30080012345
:100F8000237010BDB005002000000000F8590008D3
:100F900008B5034B1BB103490348AFF3008008BDFC
:100FA00000000000B4050020F859000800230146A5
:100FB0001A46184600F024BA024A0349034800F0D2
:100FC000C9B800BF00000020CD1C000810000020A0
:100FD0000C4B4168994210B5044601D000F076FEF2
:100FE000A168094B994202D0204600F06FFEE168EB
:100FF000064B994204D02046BDE8104000F066BE82
:1010000010BD00BFCC050020340600209C06002047
:101010002DE9F843314C324B3248DFF8DC90DFF8F1
:10102000DC80314F1860002529460423082204F192
:101030005C002E4EE360C4E90055C4E90455A56088
:101040006566A56100F0F2F804F15800C4E90749AB
:10105000C4E90987E66200F0CBF92946244B6367AF
:10106000082204F1C400C4E91A55C4E91E552567D5
:10107000C4F8CC50C4F8805000F0D8F804F16803EC
:1010800004F1C000C4F88430C4E92298C4E924768D
:1010900000F0AEF9174BC4F8DC30294604F5967021
:1010A0000822C4E93455C4E93855C4F8D850C4F806
:1010B0003451C4F8E85000F0B9F804F1D003C4E9A1
:1010C0003D87C4F8F09004F59470C4F8FC60C4F84F
:1010D000EC30BDE8F84300F08BB900BFCC05002030
:1010E00004070020B90F00080112000825120008AB
:1010F00009000100120002009D110008C111000842
:1011000010B504460A4800F077F9636B23B9094B20
:10111000094A1B68626323B1BDE81040044800F02F
:101120006DB9FFF775FFBDE81040014800F066B9E2
:101130001407002004070020D10F0008014800F028
:101140005BB900BF14070020014800F057B900BF89
:10115000140700202DE9F84380460F4616464FF04D
:101160000009D6E90154013D11D4A389012B05F1F1
:10117000FF3508D9B4F90E300133214603D040467B
:10118000B84749EA00096B1C04F16804EDD13668E0
:10119000002EE6D14846BDE8F88300BF10B50C46E6
:1011A000B1F90E1000F0BCF8002803DB236D0344F6
:1011B000236510BDA38923F48053A38110BD00BF14
:1011C0002DE9F0410C46B1F90C101F46CB05054640
:1011D00016460BD421F48051A1813B46B4F90E1080
:1011E00032462846BDE8F04100F0B0B8B4F90E1020
:1011F0000223002200F07EF8B4F90C10EAE700BFE9
:1012000010B50C46B1F90E1000F074F8B4F90C30BA
:10121000421C0EBF23F4805343F480532065A38106
:1012200010BD00BFB1F90E1000F052B8830730B501
:1012300047D0541E002A3ED0CAB2034601E0013C0A
:1012400039D303F8012B9D07F9D1032C2CD9CDB24A
:1012500005EB05250F2C05EB054535D9A4F110024A
:1012600022F00F0C03F1100EE6444FEA121C1A464E
:10127000156055609560D56010327245F8D10CF15B
:10128000010214F00C0F03EB021204F00F0C13D048
:10129000ACF1040323F003030433134442F8045B6A
:1012A0009A42FBD10CF003042CB1C9B21C4403F8E0
:1012B000011B9C42FBD130BD64461346002CF4D187
:1012C000F9E703461446C0E71A46A446E0E700BF24
:1012D00038B5074D0022044608462A6003F0C6FBD5
:1012E000431C00D038BD2B68002BFBD0236038BDD9
:1012F0000807002038B50C46084D844611462046A4
:101300001A4600232B60644603F0B4FB431C00D054
:1013100038BD2B68002BFBD0236038BD08070020A8
:1013200038B50C46084D8446114620461A4600231F
:101330002B60644603F0AEFB431C00D038BD2B6825
:10134000002BFBD0236038BD0807002038B50C46C1
:10135000084D8446114620461A4600232B606446F9
:1013600003F08AFB431C00D038BD2B68002BFBD058
:10137000236038BD0807002070B50F4B0F4DAB42FE
:10138000A3EB050607D0B610002455F8043B013442
:101390009847A642F9D804F02FFB094D094B5E1B74
:1013A000AB424FEAA60606D0002455F8043B0134B0
:1013B0009847A642F9D870BD605C0008605C0008E0
:1013C000605C0008685C000838B5074D074C2C1BB2
:1013D000A41005D0013C55F8043D9847002CF9D1E4
:1013E000BDE8384004F00EBB6C5C0008685C000887
:1013F000704700BF704700BF704700BF704700BF15
:101400002DE9F8431B4D0646286898460F4691463D
:10141000FFF7F2FF184B1C681CB3286865681F2D86
:1014200022DC4EB96B1C0235636044F82570FFF76F
:10143000E5FF0020BDE8F88304EB85010123C1F836
:101440008890D4F88821AB401A43022EC4F8882132
:10145000C1F80881E6D1D4F88C211A43C4F88C2154
:10146000E0E7064C1C60D8E7FFF7C8FF4FF0FF30FD
:10147000E0E700BF30010020A80800201807002086
:10148000024B13B10248FFF791BD70470000000006
:10149000C91300082DE9F84306460820894600F0E4
:1014A0004DFDDFF8A4800546304600F003FCD8F877
:1014B00008305F6827F00307A7F11104A4EB0904C3
:1014C0002C44B4FBF5F4013C05FB04F4A54208DC14
:1014D0000021304600F020FDD8F808303B44984207
:1014E00005D0304600F0ECFB0020BDE8F8836142F7
:1014F000304600F011FD01300FD0114AD8F8083005
:101500003F1B47F001075F60136830461B1B1360E9
:1015100000F0D6FB0120BDE8F8830021304600F042
:10152000FBFCD8F80820831A0F2BDADD43F0010307
:101530005360044B02491B68C01A0860D1E700BF22
:10154000AC080020340100204001002000297CD09C
:101550002DE9F0410C46804600F0ACFB54F8043C09
:10156000764FA4F1080523F001016818BE684268AF
:10157000864222F0030200F08380DE07426000EB27
:10158000020C33D454F8084CDCF804302D1B2144F1
:10159000AC6807F1080C644503F0010364D0D5F88A
:1015A0000CE0C4F80CE0CEF80840002B00F081807D
:1015B00041F001036B600160B1F5007F22D27868D1
:1015C000CB080122490901338A40024357F83310FE
:1015D0007A6007EBC302083AC5E9021247F83350B4
:1015E000CD604046BDE8F04100F06ABBDCF8043055
:1015F000DB072BD541F00103B1F5007F44F8043C33
:101600000160DCD3B1F5206F4FEA512353D28B092F
:1016100003F1390003F13802C300F818FB58083809
:10162000984203D163E09B68984204D05A6822F044
:1016300003028A42F7D8D868C5E902308560DD60C8
:101640004046BDE8F04100F03BBB7047114407F154
:10165000080C836863453FD0C268DA60936041F04C
:1016600001036B606950A7E7002B61D10A44D0E900
:101670000213CB60996042F001036B60AA50B0E79F
:10168000DB070A4407D454F8083CED1A1A44D5E99C
:101690000213CB60996042F001036B60284BBD6080
:1016A0001B6893429DD8274B40461968FFF7F2FE0E
:1016B00097E71144CDE7142B08D9542B1FD80B0BF7
:1016C00003F16F0003F16E02C300A6E703F15C00B3
:1016D00003F15B02C300A0E741F001033D617D61BE
:1016E000C5F808C0C5F80CC06B60695079E7796827
:1016F0009210012404FA02F20A437A609CE7B3F5DF
:10170000AA7F06D8CB0B03F1780003F17702C30060
:1017100083E740F25452934206D88B0C03F17D00CC
:1017200003F17C02C30078E74FF47E737E2274E7F6
:1017300041F001036B60016053E700BF40010020EE
:1017400038010020DC0800202DE9F04F01F10B05E5
:10175000162D85B0064623D8102900F2B08000F07F
:10176000A9FA102518230220B74F3B44A3F1080221
:101770005C68944200F01E816368E26823F0030312
:101780002344A168CA6091605A6842F00102304661
:101790005A60083400F094FA204605B0BDE8F08F96
:1017A00035F0070500F18B80A94200F2888000F037
:1017B00081FAB5F5FC7FC0F06E816B0A00F0838082
:1017C000042B00F21D81AB0903F1390003F1380C41
:1017D000C3009D4F3B44A3F108015C68A14206D1C0
:1017E0000CE0002A80F2E380E468A14206D063683E
:1017F00023F003035A1B0F2AF3DD6046DFF85CE297
:101800003C69744500F0C080636823F00308A8EBCE
:1018100005030F2B00F34381002BC7E904EE80F290
:101820002E81B8F5007FD7F804C080F0C9804FEA58
:10183000D80101314FEA5818012303FA08F357F889
:101840003120A2604CEA030C07EBC103083BE360C4
:10185000C7F804C047F83140D46083104FF0010846
:1018600008FA03F8E04534D818EA0C0F08D120F044
:1018700003004FEA480818EA0C0F00F10400F8D002
:1018800007EBC00A52468146D1680EE04B6823F050
:101890000303A3EB050CBCF10F0F0C46C96800F362
:1018A000BB80BCF1000F80F2DD808A42EED109F1ED
:1018B000010919F0030F02F10802E5D11AE10C2326
:1018C0003360002468E74FF4007340204FF03F0C72
:1018D0007FE7BC68636823F00309A94503D3A9EB3C
:1018E00005030F2B53DC594BDFF874B11B6808203C
:1018F00003F1100800F022FBDBF800300190013307
:10190000A84404EB090205D008F1FF3880444342A3
:1019100003EA080841463046029200F0FDFAB0F1B1
:10192000FF3F029A824600F0D780824200F2D280C6
:10193000474B01991868404401F1FF311860844613
:1019400040F0FB801AEA010F40F0F780D7F808A0BA
:10195000C84448F00102CAF804203E4B196881428D
:1019600038BF18603C4B1968814238BF1860544634
:1019700022F00308A845A8EB050301D30F2B06DCD2
:10198000304600F09DF99CE7D7F804C065E762197E
:1019900043F0010345F0010565603046BA605360CD
:1019A00000F08EF90834204605B0BDE8F08FE268FB
:1019B0002344E6E6DC68A3427FF4DEAE02301DE796
:1019C000B8F5206F4FEA58227DD3142A00F219810E
:1019D00002F15C03DB005B32F918FB5808399942CD
:1019E00003D1F3E09B68994204D05A6822F00302C5
:1019F0004245F7D8D968C4E902318C60DC602CE735
:101A0000142B6CD9542B00F205812B0B03F16F00C2
:101A100003F16E0CC300DCE63046A668621945F09F
:101A200001056560F1608E604CF00101C7E9042298
:101A3000C2F808E0C2F80CE0516044F803C000F0BE
:101A40003FF90834A8E600BF40010020DC08002070
:101A5000AC080020D8080020D4080020480100204D
:101A600034010020234430465A6842F001025A6093
:101A700054F8083FD9608B6000F022F98CE6A0444E
:101A80003046D8F8043043F00103C8F80430083475
:101A900000F016F980E6E80805F1080364E662192B
:101AA00043F0010145F0010565603046C7E90422B5
:101AB000C2F808E0C2F80CE0516044F8083000F0C9
:101AC000FFF8083468E64FEA981202F13903DB00A8
:101AD000383281E7BC4228D0BC68626848E703F12D
:101AE0005C0003F15B0CC30073E65AF808395345F8
:101AF00040F0DB8010F0030F00F1FF30F5D17B6880
:101B000023EA08037B604FEA480898453FF6E1AEB8
:101B1000B8F1000F04D1DCE64FEA480809F10409E6
:101B200018EA030FF8D04846AAE6614B01991868F5
:101B300008EB000C0139C3F800C0DBF800000130ED
:101B40001BBFAAEB02026244CBF800A01A601AF095
:101B50000702CDE9022343D0C2F10802019B92445F
:101B6000D044134408EA01001A1A02EA010B59464C
:101B7000304600F0D1F9421C039B79D0A0EB0A005B
:101B800000EB0B081868C7F808A048F00102584499
:101B9000BC42CAF8042018603FF4DFAEB9F10F0F61
:101BA00042D96168A9F10C0222F0070201F001019B
:101BB00011436160A1184FF0050C0F2AC1F804C051
:101BC000C1F808C049D8DAF80420C6E692104FF0F0
:101BD000010808FA02F24CEA020CC7F804C00AE74E
:101BE000019B0AEB08020A409A1A02EA010B5946C5
:101BF000304600F091F9431C039BBFD1DDF808B0DB
:101C0000C0E7542A14D84FEA183202F16F03DB0000
:101C10006E32E1E6B3F5AA7F14D8EB0B03F178003E
:101C200003F1770CC300D4E50123CAF80430A7E61A
:101C3000B2F5AA7F24D84FEAD83202F17803DB004C
:101C40007732C9E640F25452934224D8AB0C03F1E8
:101C50007D0003F17C0CC300BBE5304604F10801B4
:101C60000193FFF773FC019BD7F808A01868AAE757
:101C7000029A083A9044A8EB0A084FF0000B81E75B
:101C800040F254539A420CD84FEA984202F17D0335
:101C9000DB007C32A0E64FF47E737F204FF07E0C99
:101CA00097E54FF47E737E2296E67B682BE700BFB4
:101CB000AC0800200148FFF79FBB00BF0C070020C5
:101CC0000148FFF79BBB00BF0C07002070B500293F
:101CD0003FD005460C4610B1436B002B3CD0636EE1
:101CE000B4F90C20DE0732D4900538D521462846B9
:101CF00000F04CF8E36A064633B1E169284698479C
:101D00000028B8BF4FF0FF36A3891A0639D4216BDB
:101D100041B104F14003994202D02846FFF716FC76
:101D200000232363616C21B12846FFF70FFC0023D9
:101D30006364FFF703FA636E0022DB07A2811CD500
:101D4000A06DFFF757FBFFF7FFF9304670BD002A83
:101D5000CCD10026304670BDFFF7D2F9BFE7A06DA9
:101D6000FFF74AFBB4F90C30002BBFD1636ED907E3
:101D7000EFD4A06DFFF742FBEBE7A06DFFF73EFB52
:101D8000DEE721692846FFF7E1FBC0E7B1F90C2047
:101D90002DE9F0410C46110780464BD4616842F4AE
:101DA00000630029A38160DDA56A002D3FD00021DA
:101DB00012F48052D8F80060C8F80010E16961D1CF
:101DC00001234046A847431C02466BD0B4F90C30AF
:101DD000A56AE1695F0705D56368D21A236B0BB169
:101DE000E36BD21A00234046A847451C4CD1D8F8D3
:101DF00000101D293DD8324AB4F90C300A4112F0C6
:101E0000010238D162602269226023F40062A2815B
:101E1000DA0452D4216BC8F8006041B104F14003E8
:101E2000994202D04046FFF791FB00232363002034
:101E3000BDE8F0812669002EF9D02568266091075B
:101E40000CBF63690023AD1BA3600BE02B46324639
:101E5000E169676A4046B847B0F1000CA5EB0C0594
:101E6000664406DD002DF1DCE1E7E16B00299BDC37
:101E7000DDE7B4F90C3043F04003A3814FF0FF30AD
:101E8000BDE8F081226DA5E7B4F90C30226922602B
:101E900023F40062A281DB044FF000026260B9D536
:101EA0002065B7E7D8F80030002B8FD01D2B01D06C
:101EB000162BDED1C8F80060B9E70029AAD1EFE7F8
:101EC000FEFFBFDF38B50C46054608B1436B03B3D0
:101ED000B4F90C0088B1636EDB0701D481050FD51E
:101EE00028462146FFF752FF636EDA07054602D403
:101EF000A3899B0508D5284638BD0546284638BD28
:101F0000A06DFFF779FAEBE7A06DFFF777FA2846A7
:101F100038BDFFF7F5F8DBE738B5074D002204467A
:101F200008462A6002F0B8FD431C00D038BD2B687B
:101F3000002BFBD0236038BD08070020082802D101
:101F40004FF48050704708B500F006F81623036080
:101F50004FF0FF3008BD00BF014B1868704700BF4D
:101F60000C000020034B40F0BF6040F40030D8600C
:101F7000704700BF00ED00E010B50278C378012182
:101F800002F01F044FEA521EA140DBB1104B44780F
:101F9000DB686FEA030CCCF3022C8378CCF10400ED
:101FA000C0B204FA00F00F2444FA0CF4C0B223408B
:101FB000034308481B010244DBB282F8003340F8B7
:101FC0002E1010BD034B0EF1200E43F82E1010BD45
:101FD00000ED00E000E100E000222DE9F0471346AB
:101FE0000D684FF0010E032604E00133102B02F1BF
:101FF000020239D00EFA03FC3CEA0504F5D1076869
:1020000006FA02F427EA040707600F79D0F800A067
:1020100007FA02F9013F49EA0A09012FA046C0F870
:1020200000906FEA040411D887683C4084604C79C2
:10203000876894403C438460446824EA0C0444600C
:102040008C7947689C40A4B23C434460C46824EA4D
:102050000804C460CC79C768944001333C43102B1A
:10206000C46002F10202C5D1BDE8F087044A136BD7
:1020700011B103431363704723EA000313637047EE
:1020800000380240044A136C11B1034313647047D3
:1020900023EA0003136470470038024030B4274D30
:1020A00003884C680A88A8429BB23BD0244DA842C2
:1020B00018D0B0F1804F27D0A5F58035A84223D0A5
:1020C00005F58065A8421FD005F58065A8422CD093
:1020D0001C4DA8422ED10380C4620285012330BC6E
:1020E0008382704723F070039BB24D882B430D8988
:1020F00023F440732B430380C46202858B7A0386EA
:10210000012330BC838270474D8823F070039BB25B
:102110002B43098923F440739BB20B430380C462B1
:102120000285DBE723F07003DFE74D8823F07003BF
:102130002B43EEE7044DA842CDD0EAE70000014072
:10214000000401400010004000140040038821B149
:102150009BB243F001030380704723F001031B048B
:102160001B0C0380704700BF038C23F001031B048A
:102170001B0C0384038CB0F804C0028B10B54C8890
:10218000B1F80CE022F073024EEA040E12040C883F
:1021900023F00203120C1B042243144C1B0C43EAD1
:1021A0000E03A0421FFA8CFC9BB20AD004F5806497
:1021B000A04206D08968A0F804C00283416303846A
:1021C00010BDCC89B1F810E023F0080323434C8AFA
:1021D0002CF4407C4EEA040E8C8823F004034CEA75
:1021E0000E0C1FFA8CFC2343E4E700BF0000014003
:1021F000038B23F008031B041B0C0B430383704762
:10220000406B704783899BB212B10B438381704747
:1022100023EA010383817047038A828911EA03005C
:1022200092B203D00A4214BF01200020704700BFC1
:10223000C94389B2018270470388194214BF012043
:10224000002070472DE9F04F2DED108BD0ED028A64
:1022500068EEA87A8BB0074617EE900A15460C4632
:10226000FEF7BEF997ED039A249E69EE097A82463D
:1022700017EE900A8B46FEF7B3F952468046894620
:102280005B46E7490020FEF74BF842464B46FEF717
:1022900047F8D6ED00DACDE900011DEE900AFEF711
:1022A0009FF9CDE90201DDE9000102460B46FEF788
:1022B00039F8DDE90223FEF7EBF997ED00BAD7ED27
:1022C00001AAD6ED01BA29EE0B8A29EE2ADAB0EE80
:1022D00048FA98EEAAFA02460B46F0EE4DEA7FEE77
:1022E0000F7AE8EE8BEACDE9042367EEAB7AA8EE2D
:1022F000AA8A17EE900AFEF773F9DDE90423FEF7C8
:1023000011F896ED02CA7EEEAE7A064667EE8C7A3A
:102310000F4617EE900AFEF763F932463B46FEF78A
:1023200001F8FEF74FFC6AEEAA7A0CEE900A17EE5F
:10233000900AFEF755F902460B460020B849FDF712
:10234000EFFF42464B4606460F46FDF7E9FF0246C1
:102350000B46FDF7E7FF80461BEE900A8946FEF725
:102360003FF938EE088A02460B4640464946FEF7DA
:102370008FF968EE2D7A804617EE900A8946FEF7AF
:102380002FF96AEE8B9A02460B4640464946FDF706
:10239000C9FFF0EE697AD8EE897A80468946E8EE80
:1023A000899A77EEA77AA8EECBDA67EE8C7A39EEC7
:1023B000A98A17EE900AFEF713F942464B46FDF73D
:1023C000B1FFFEF7FFFB52465B460AEE100A3946A4
:1023D0003046FDF7A5FF02460B4682468B46FDF7C9
:1023E000A1FF80461CEE100A8946FEF7F9F87DEE43
:1023F0000DFA2BEE88EA06460F46ADEEAFEA3246FE
:102400003B4640464946CDE90467FEF741F906469A
:102410001EEE100A0F46FEF7E3F82AEE0AAA02465D
:102420000B4630463946FDF77DFFACEEACAAFEF711
:10243000C9FB0CEE100A1AEE100AFEF7D1F841ECB7
:10244000100B03F023F851EC100BFEF7BBFB95EDDE
:10245000007AD5ED017A0CEE900AA8687FEEC7FAF3
:1024600038EE678AFEF7BCF802460B4640464946FE
:10247000FDF756FFFEF7A6FB7CEEACDA0EEE100A77
:102480001DEE900AFEF7ACF83CEE0CAADDE9002345
:10249000FEF7FEF86DEE0A7A064617EE900A0F4632
:1024A000FEF79EF802460B4630463946FDF73AFFE6
:1024B000DDE90223FDF734FFFEF784FB6EEEAD7A13
:1024C0000DEE100A17EE900AFEF78AF806461AEE8D
:1024D000100A0F46FEF784F852465B46FEF7D8F81E
:1024E00069EE8A9A02460B4630463946FDF71AFFD6
:1024F000EFEE2D9ADDE90423FDF712FFFEF762FBF4
:1025000079EE097A79EEEBBA3AEEAA6A7BEE0B0A1B
:1025100068EE279AB8EE007A28EE877AE0EEEF9A16
:1025200068EE066A68EE200A27EE488AEFEEA70AF0
:10253000EFEE876AF9EE007AB1EE007A6CEEA77AD8
:102540006AEE874AAFEE868A2CEE076A28EE877A13
:102550002AEE8A5AEEEE479A28EEA77AEEEE640A41
:10256000F0EE454AE9EE274AF0EE477AEBEE4A7A7A
:10257000ADEEC95AEDEE279ADFED2A7A76EEA76A1C
:1025800038EE278A68EE8A7AADEE248AEDEE676A25
:10259000EBEE6D7AEBEE856AB0EE675A66EE687A1E
:1025A00026EE6A6A68EEAD4AADEE896A29EE0A9AAD
:1025B000B0EE644AABEE0A4AEDEE090A2AEEAD7AB5
:1025C000EBEE840A39EE079AEBEE2D7AABEE858AB4
:1025D000EBEE899A05EE900AB0EE609AE5EEA46AF9
:1025E000A5EE878AE5EEA79AA5EE869AB0EE660A72
:1025F000F0EE481AB0EE691AF0EE490AF0EE668A7B
:1026000000F0E0FBC4ED008A84ED019AC4ED029A6B
:1026100084ED038A0BB0BDEC108BBDE8F08F00BFDA
:102620000000E03F0000000070B52DED028B82B08D
:102630000546089C00941E460C46B0EE408AFFF703
:1026400001FEDFED1D7A96ED000AD6ED010A96ED4A
:10265000021A28EE278A00F09BFBDFED187AD5EDF1
:10266000006AD5ED015A95ED026A95ED037AD4ED35
:10267000003A94ED014AD4ED024A94ED035A104B0E
:10268000E8EE007A2046E7EEE36AE7EEC45AA7EEEA
:10269000E46AA7EEC57AC3ED007AC4ED015A84ED71
:1026A000026AC4ED006A84ED037A02B0BDEC028BCD
:1026B000BDE8704000F0D4BB0AD7233C9A99993EFC
:1026C000E008002000000000D0B52DED0A8B90B08E
:1026D00003AB044609AA00930CA906AB8DED072AAB
:1026E000CDED082A8DED033ACDED043A8DED054A86
:1026F0008DED090ACDED0A0A8DED0B1ACDED061A06
:10270000FFF7A0FDDDED079A94ED02BADDED068A34
:1027100094ED018A9DED089A94ED03CA69EECB7A97
:10272000E8EE687AECEE497A17EE900AFDF758FF6A
:102730008B4B0022FDF7ACFF83A3D3E90023FDF709
:10274000A7FFFEF73FFAD4ED00BA6BEE097A0AEE66
:10275000900AE8EEAB7AE9EECC7A17EE900AFDF734
:102760003FFF7F4B0022FDF793FF77A3D3E90023C0
:10277000FDF78EFFFEF726FA69EE487A28EE298AE1
:10278000E9EEAB7AA9EE2B8AE8EE8C7A0AEE100A13
:1027900017EE900AFDF724FF714B0022FDF778FF3A
:1027A00069A3D3E90023FDF773FFA8EECB8AFEF7F8
:1027B00009FA09EE900A18EE100AFDF711FF684BAE
:1027C0000022FDF765FF60A3D3E90023FDF760FF5A
:1027D000FEF7F8F9DDED0D0A9DED0E1ADDED0F1A8D
:1027E0009DED0C0A08EE900A00F0ECFA10EE100ACB
:1027F000B0EE408AFDF7F4FE55A3D3E90023FEF7BF
:10280000D7F99FED587ADFED587A002808BFF0EE2F
:10281000477AC7EE887A17EE900AFDF7E1FE4EA3DD
:10282000D3E90023FDF77EFD4D4B0022FDF730FF7D
:10283000FEF7C8F9D4ED007A7AEEA77A08EE100A0E
:1028400017EE900AFDF7CCFEDDED0C7A68EE277AE4
:10285000064617EE900A0F46FDF7C2FE3AA3D3E9EB
:102860000023FDF715FF02460B4630463946FDF7BB
:1028700057FDFEF7A7F9D4ED017A20607AEE277AAA
:1028800017EE900AFDF7ACFEDDED0D7A68EE277AC3
:10289000064617EE900A0F46FDF7A2FE2AA3D3E9DB
:1028A0000023FDF7F5FE02460B4630463946FDF79C
:1028B00037FDFEF787F9D4ED027A606079EEA77AEA
:1028C00017EE900AFDF78CFEDDED0E7A68EE277AA2
:1028D000064617EE900A0F46FDF782FE1AA3D3E9CB
:1028E0000023FDF7D5FE02460B4630463946FDF77C
:1028F00017FDFEF767F9D4ED037AA06078EEA77AAA
:1029000017EE900AFDF76CFEDDED0F7A68EE277A80
:10291000064617EE900A0F46FDF762FE0AA3D3E9BA
:102920000023FDF7B5FE02460B4630463946FDF75B
:10293000F7FCFEF747F90346E360204600F090FA03
:1029400010B0BDEC0A8BD0BDC7BAB88D06F0463FBB
:102950009A9999999999B93F7B14AE47E17A843F46
:102960000000E03F022B073DCB212042254A264BA9
:10297000116B41F002011163516C41F0100151647F
:102980001A6822F440521A601A6822F440421A600F
:102990001A6842F400521A601A6842F400421A603F
:1029A0005A6842F040025A605A6842F080025A6007
:1029B0009A6822F440529A609A6822F440429A60DF
:1029C0009A6842F400529A609A6842F400429A600F
:1029D000DA6822F44052DA60DA6822F44042DA60BF
:1029E0001A6A22F060621A621A6A22F060421A625F
:1029F0001A6A42F0E0621A621A6A42F0E0421A620F
:102A0000704700BF003802400004024010B5044C7B
:102A1000A08080212046FFF70FFC0028F9D010BDD0
:102A20000010014008B5FFF7A1FF124B9A8992B23E
:102A300042F4005242F22E219A8119819A8922F49D
:102A400080521204120C9A819A8922F48062120434
:102A5000120C9A819A8992B242F020029A819A8944
:102A600092B242F008029A819A8992B242F004022C
:102A70009A8108BD0010014008B501226B21D020C9
:102A800000F0D8FB00221921D02000F0D3FB062251
:102A90001A21D02000F0CEFB18221B21D02000F0FC
:102AA000C9FB18221C21D02000F0C4FB02223721D0
:102AB000D02000F0BFFB00226A21D02000F0BAFB3A
:102AC000702200213C2000F00FFC202201213C203C
:102AD00000F00AFCBDE80840002202213C2000F082
:102AE00003BC00BF10B582B006236A463B210446F2
:102AF000D02000F013FBBDF80010BDF80220BDF897
:102B0000043022489FED226ADBBAC9BAD2BA07EE76
:102B1000903A06EE901A07EE102AF8EEE66AB8EE42
:102B2000C77AF8EEE77AF3EE005A66EEA56A27EE6A
:102B3000257A67EEA57A037866EE866A27EE067A2E
:102B400067EE867ACBB1134A134B92ED005AD2ED61
:102B5000015A92ED026A76EEC56A37EE657A77EE33
:102B6000C67A93ED005AD3ED015A93ED026A66EEF0
:102B7000856A27EE257A67EE867AC4ED006A84EDD1
:102B8000017AC4ED027A02B010BD00BF85050020B5
:102B900000000038940500208805002010B582B0A0
:102BA00006236A4643210446D02000F0B7FABDF858
:102BB0000010BDF80220BDF80430DFED345A34486F
:102BC0009FED346ADBBAC9BAD2BA07EE903A06EE84
:102BD000901A07EE102AF8EEE66AB8EEC77AF8EE19
:102BE000E77A66EEA56A27EE257A67EEA57A03787E
:102BF00066EE866A27EE067A67EE867AEBB3264A99
:102C0000264B92ED006A92ED015AD2ED025A76EE11
:102C1000C66A93ED006AB4EEE66AF1EE10FA37EE9A
:102C2000457A77EEE57A08D893ED036AB4EEE66A62
:102C3000F1EE10FAA8BFDFED1A6A93ED016AB4EE67
:102C4000C76AF1EE10FA08D893ED046AB4EEC76AC9
:102C5000F1EE10FAA8BF9FED127A93ED026AB4EE7E
:102C6000E76AF1EE10FA08D893ED056AB4EEE76A68
:102C7000F1EE10FAA8BFDFED0A7AC4ED006A84ED28
:102C8000017AC4ED027A02B010BD00BF0000FA4420
:102C90008405002000000038780500206005002031
:102CA0000000000010B582B004466A4606230321E6
:102CB0003C2000F033FABDF80210BDF80420BDF846
:102CC0000030DFED1E5A1E48C9BA07EE901AD2BA7C
:102CD000F8EEE76A07EE902ADBBAB8EEE77A07EE7D
:102CE000903AF8EEE77A86EEA56A164BC7EE256AAB
:102CF00087EEA57AD0ED013AD0ED027A90ED004A48
:102D0000D3ED025AD3ED014A93ED005A76EE677A7D
:102D100076EEE36A37EE447A86EEA46A2046C7EE82
:102D2000056A87EEA57A84ED016AC4ED006A84ED38
:102D3000027A00F063F802B010BD00BF0040884482
:102D400054050020480500200F49104B0A6B42F043
:102D500001020A631A6822F440621A601A6842F497
:102D600080621A605A6822F020025A609A6822F43F
:102D700040629A609A6842F480629A60DA6822F44B
:102D80004062DA60704700BF003802400000024035
:102D900060EEA00A00B5E0EE000A85B0E1EE010A9F
:102DA00010EE900AFDF71CFC41EC100B02F06EFBDC
:102DB00051EC100BFDF706FF00EE100A05B05DF8B0
:102DC00004FB00BF60EEA00A00B5E0EE000A85B08B
:102DD000E1EE010AE1EEA10A10EE900AFDF700FC17
:102DE00041EC100B02F052FB51EC100BFDF7EAFE28
:102DF00000EE100A05B05DF804FB00BF10B52DED24
:102E0000048BD0ED018A90ED009A90ED028A68EE75
:102E1000A87A0446E9EE097AE8EE087A17EE900AF5
:102E2000FDF7DEFB41EC100B02F030FB51EC100B18
:102E3000FDF7C8FE07EE900AF5EE407AF1EE10FAC3
:102E40000BD089EE276AC8EEA76A88EE277A84ED50
:102E5000006AC4ED016A84ED027ABDEC048B10BDFA
:102E600010B52DED048B90ED019AD0ED009AD0EDC8
:102E7000028A90ED038A69EE097A0446E9EEA97A9E
:102E8000E8EEA87AE8EE087A17EE900AFDF7A8FBBC
:102E900041EC100B02F0FAFA51EC100BFDF792FE28
:102EA00007EE900AF5EE407AF1EE10FA0FD0C9EE77
:102EB000A75A89EE276AC8EEA76A88EE277AC4ED7A
:102EC000005A84ED016AC4ED026A84ED037ABDEC18
:102ED000048B10BD0000000010B504460068FDF72B
:102EE0007FFB11A3D3E90023FDF7D2FBFDF76AFEB8
:102EF000034623606068FDF773FB0BA3D3E900234F
:102F0000FDF7C6FBFDF75EFE03466360A068FDF7B4
:102F100067FB05A3D3E90023FDF7BAFBFDF752FEDB
:102F2000A06010BDAFF30080F8C1631ADCA54C406F
:102F300010B52DED088B90ED029AD0ED038A90ED3F
:102F4000018AD0ED00BA69EE09AA29EE280AF0EE4E
:102F50006A7AE8EE087A0C46ABEE880A28EEC8BA20
:102F6000F7EE009AABEE89BAB0EE00AAF0EE690A6D
:102F7000E7EECA0A30EE000A02F0BCFAF0EE697A17
:102F8000EBEE0A7A84ED000A17EE900AFDF728FBB3
:102F900041EC100B02F07AFA51EC100BFDF712FE27
:102FA000F0EE697AEBEE4A7A03460BEE103A17EE32
:102FB000900AFDF715FB41EC100B02F067FA51EC9B
:102FC000100BFDF7FFFDB0EE4B0A00EE900A02F089
:102FD00091FA70EE007AE8EEA8AA17EE900AFDF7D3
:102FE000FFFA0DA3D3E90023FDF79AF9FDF7EAFDF7
:102FF00028EE090AF0EE690AABEEA80A6060EAEE74
:10300000CA0A30EE000A02F075FABDEC088BB1EE88
:10301000400A84ED020A10BD182D4454FB21F93FEB
:1030200070B501218AB01D4D1D4C0420FFF71EF81C
:1030300001210220FFF726F8012640F2022369460B
:103040002846ADF804300096FEF7C6FF2B6A43F021
:10305000007344F61F622B6202A900255323204609
:1030600003920293ADF81050FFF718F80D4B05933B
:1030700005A92046ADF82050FFF776F82046082134
:10308000FFF7B6F831462046FFF760F823889BB279
:1030900043F0800323800AB070BD00BF00080240E7
:1030A00000040040600001001B4B1A6822F440320B
:1030B0001A601A6822F440221A601A6842F4003238
:1030C0001A601A6842F400221A605A6842F4807248
:1030D0005A605A684FF4403042F400724FF4402175
:1030E0005A6098609960DA6822F44032DA60DA68EF
:1030F00022F44022DA60DA6842F48032DA60DA6878
:1031000042F48022DA605A6A42F004025A625A6A31
:1031100042F040025A6270470004024030B5444C0D
:103120000D46218B8907FCD4B4F800C040491FFA32
:103130008CFC4CF4807CA4F800C08C8AE407FCD59D
:103140000C8BE407F9D50C8BA407F6D500F0FE0430
:103150000C82374CB4F814E0B4F818C01EF0020F1B
:103160001FFA8EF11FFA8CFCF4D011F0800F0CF0D6
:10317000030EEFD0BEF1030FECD11CF0040FE9D029
:10318000890504D5A18A89B241F48061A182284CC5
:103190002582A18A4D07FCD5A18A0906F9D5218B84
:1031A000CD07F6D5218B8907F3D5218B4D07F0D5B7
:1031B000218889B241F4807121801D4CA18AC90700
:1031C000FCD5218BCD07F9D5218B8907F6D540F0A9
:1031D000010017492082888A8507FCD5088BC4071F
:1031E000F9D5088B8007F6D5088820F40070000414
:1031F000000C0880088880B240F4806008804BB1E1
:103200000B481344818A4906FCD5018A02F8011B48
:103210009A42F7D1064A138823F480631B041B0CDF
:10322000138013889BB243F40073138030BD00BF3A
:103230000054004030B42B4D2B8B9B07FCD42B88C3
:10324000284C9BB243F480732B80A38ADD07FCD506
:10325000238BDB07F9D5238B9D07F6D500F0FE0005
:10326000204D2082A88A2B8B84B280079BB2F9D58F
:1032700014F0800F03F00300F4D00328F2D15B07B1
:10328000F0D5A00504D5AB8A9BB243F48063AB8232
:1032900014480182838A5B07FCD5838A1D06F9D511
:1032A000038BDC07F6D5038B9907F3D5038B5B07FC
:1032B000F0D50C4B02829A8A5507FCD59A8A1406DF
:1032C000F9D51A8BD007F6D51A8B9107F3D51A8B3F
:1032D0005207F0D51A8892B242F4007230BC1A80BC
:1032E000704700BF0054004030B42A4C23889BB282
:1032F00043F480632380238B9D07FCD42388254DD2
:103300009BB243F480732380AB8ADC07FCD52B8B04
:10331000DB07F9D52B8B9C07F6D500F0FE001D4C82
:103320002882A08A238B85B280079BB2F9D515F03D
:10333000800F03F00300F4D00328F2D15B07F0D52F
:10334000A80504D5A38A9BB243F48063A3821148E5
:103350000182838A1B06FCD50E4B02829A8A55078E
:10336000FCD59A8A1406F9D51A8BD007F6D51A8B94
:103370009107F3D51A8B5207F0D51A8892B242F40E
:1033800000721A801A8822F480621204120C30BC77
:103390001A8070470054004008B5244B1A6B42F065
:1033A00002021A631A6C42F400121A64FFF77CFEE0
:1033B0001F4B9A8822F03F021204120C9A809A88BE
:1033C00092B242F02A029A801A8C22F03F02120432
:1033D000120C1A841A8C92B242F4805242F001020A
:1033E0001A841A8892B242F001021A801A8822F0D6
:1033F00020021204120C1A801A8922F07F02120491
:10340000120C1A811A8992B242F001021A819A8B27
:10341000C2F30E029A839A8B02F470429A839A8BBB
:1034200092B242F4D2729A8308BD00BF00380240C3
:1034300000540040594A5A4B116B41F0010110B53C
:103440001163506C574C40F0010050645A6A42F0CE
:1034500001025A621A6822F440321A601A6842F471
:1034600000321A605A6822F480725A609A6842F4F4
:1034700000329A60DA68002122F44032DA60E162B8
:10348000238823F010031B041B0C2380238D9BB285
:1034900043F053032385E36A43F49C4343F01F0343
:1034A000E362A38A02219BB20B43A38223889BB2CF
:1034B00043F080032380238B01229BB21343238399
:1034C000238B23F00C031B041B0C2383238B23F07F
:1034D000F0031B041B0C2383238C9BB21343238414
:1034E000238C23F002031B041B0C2384238C23F066
:1034F00008031B041B0C2384238B9BB243F400732F
:103500002383238B23F440631B041B0C2383238B13
:10351000C3F30B032383238C9BB243F01003238458
:10352000238C9BB243F020032384238C9BB243F073
:1035300080032384238923F00A031B041B0C2381AB
:1035400023899BB243F004032381238923F0700372
:103550001B041B0C238123899BB243F0500323815E
:1035600023899BB243F0800382B023812046FEF77B
:1035700049FE4FF4A060FEF7F5FC0B4B019301A848
:10358000FEF7FAFCA3899BB243F00203A3812388D0
:103590009BB243F00103238002B010BD003802400B
:1035A00000000240000001401B02010138B5314813
:1035B0000221FEF731FE012838D02F4CD4E900015A
:1035C000D4E902234FF47A7505FB00F005FB01F105
:1035D00005FB02F205FB03F3A0F57420274DA1F5CE
:1035E0007421A2F57422A3F57423A0F5C560A1F59A
:1035F000C561A2F5C562A3F5C563A5FB00C0A5FB27
:1036000001C1A5FB02C2A5FB0353800989099209E8
:103610009B0900F57A7001F57A7102F57A7203F56B
:103620007A73C4E901122060E36038BD0446114892
:10363000134DFEF7E5FD0130B0F5805F08D82B682B
:10364000012B06D00C4C0B480221FEF7F1FDB5E72B
:103650002C600848084CFEF7D3FD0A4A431C10684A
:10366000411C082944F820301160ECD90023136074
:103670002B60E8E700000140EC080020D34D621009
:10368000E4080020E808002010B5184CFFF7CAF93C
:10369000174801F05BFA238801332380FFF77CFE93
:1036A000144801F053FA238801332380FFF7E4F92B
:1036B000114801F04BFA238801332380FFF7BAFE4B
:1036C0000E4801F043FA238801332380FFF7A8FC5A
:1036D0000B4801F03BFA23880A480133238001F0AC
:1036E00035FABDE81040FF2001F002B814090020AF
:1036F000105A00082C5A0008405A0008545A000872
:103700006C5A0008845A000870B51B4886B000F057
:1037100059FAFFF719FB194B194A1A4800240825D2
:103720004FF40066CDE9013600952B462146CDE9E0
:10373000034400F079FF144A1449284600F0E6FFDC
:1037400040F6B83001F0A0F8114B124A12480C258F
:10375000CDE9013621462B46CDE90344009500F022
:1037600063FF28460D4A0E4900F0D0FFFF2006B047
:10377000BDE8704000F0BCBF40D10C00182900200B
:1037800014490020893600089C5A0008B05A0008E5
:1037900018090020142900202D3A0008C05A0008FA
:1037A000D05A0008F0B52DED0C8B95B020220021E9
:1037B0000CA8B0EE40DAF0EE60BAF0EE41CAB0EE1E
:1037C00061BAB0EE42CAF0EE62AAB0EE43AAF0EEE1
:1037D000639AB0EE449AF0EE648AF0EE45DAB0EE09
:1037E000658A8DED090ACDED0A0A8DED0B1ACDED36
:1037F000061A8DED072ACDED082A8DED033ACDEDA1
:10380000043A8DED054ACDED004A8DED015ACDED1E
:10381000025AFDF70BFDDFED847A2DEE27DA6BEE11
:10382000A7BABDEECD7A6CEEA7CA17EE105A2CEEF1
:1038300027CABDEEEB7A2BEE27BA6AEEA7AA2AEECC
:1038400027AA29EE279A69EEA79A68EEA78A6DEE55
:10385000A7DAF2EE047A17EE104A28EE278ABDEEB8
:10386000EC7AFDEECC7A1C232EB217EE102A45F32B
:1038700007258DF832304FF0000C17EE903AFDEE30
:10388000CB7A65F3070C17EE900A42F3072544F351
:103890000727FDEEEA7A66F30F2C00264AF68871B8
:1038A00065F3070612B267F3174C24B264F31F6C7A
:1038B000ADF8301040F3072417EE901A62F30F268C
:1038C000FDEECA7A43F30722002562F307051BB217
:1038D00064F3174600B217EE902A60F31F66FDEE00
:1038E000C97A41F3072063F30F2509B260F3174546
:1038F00017EE903A61F31F65FDEEE97A42F3072176
:103900000020044612B261F3070062F30F2017EEA5
:10391000902AFDEEE87A11B242F3072262F31740D3
:1039200043F3072262F3070417EE902A1BB2CDF887
:103930003760FDEEED7A42F3072663F30F2466F35A
:10394000174412B217EE903ACDF833C0CDF83B5081
:1039500062F31F64CDF843400C9F0E9C43F307268F
:10396000002561F31F6066F3070504F07F367C4095
:1039700007F07F373E44CDF83F0004F080347440B8
:1039800006F07F3CFDEEC87A109E0D990F9817EE59
:10399000902A744006F07F36664404F08034744008
:1039A0001BB242F3072612B263F30F25134466F3EA
:1039B0001745334462F31F652344C4F307221344BD
:1039C000C4F30742CDF84750134401F07F32414021
:1039D00000F07F30024401F08031119851404140A5
:1039E00002F07F3200F07F3001F0803102444A4023
:1039F00003EB1463C2F3072113440B44C2F30741E2
:103A00000B4403EB12630DF12F040DF14F058DF8FC
:103A10004F3014F8010FFEF7F9FFA542F9D115B0A8
:103A2000BDEC0C8BF0BD00BF0000C84270B52DEDA1
:103A3000028B9CB000234FF07E529FED548A0F9270
:103A4000109311931293322613AD0FAC03A8FFF716
:103A500049F809A8FFF7A2F806A8FFF723F906AB73
:103A6000B0EE480A009303AA09AB29462046FEF7A8
:103A7000DBFD95E80F0084E80F000CA92046FFF756
:103A800057FA0CA8FFF728FADDED0C4A9DED0D5A08
:103A9000DDED0E5A9DED063ADDED073A9DED084A43
:103AA000DDED091A9DED0A2ADDED0B2A9DED030AD5
:103AB000DDED040A9DED051AFFF774FE731E13F089
:103AC000FF06C3D100F018FF03B209A8ADF85C30BF
:103AD000FFF764F800F010FF03B203A8ADF85E3002
:103AE000FFF700F800F008FF03B206A8ADF8603059
:103AF000FFF7D8F800F000FF9DED063ADDED073A3C
:103B00009DED084ADDED091A9DED0A2ADDED0B2A2F
:103B10009DED030ADDED040A9DED051A03B2204672
:103B2000ADF86230FEF7D0FD00F0E6FE0CA903B25E
:103B30002046ADF86430FFF7FBF90CA8FFF7CCF98D
:103B400000F0DAFEDDED0C4A9DED0D5ADDED0E5A6A
:103B50009DED063ADDED073A9DED084ADDED091AC7
:103B60009DED0A2ADDED0B2A9DED030ADDED040A29
:103B70009DED051A00B2ADF86600FFF713FE00F0E8
:103B8000BBFE00B2ADF868009CE700BF6F12833A3D
:103B900008B500F02FF90223064A0748002100F07B
:103BA000F7FC064A0649022000F0B0FD00F078FA62
:103BB000002008BD1469002009370008DC5A0008FD
:103BC000EC5A00084FF0E02301385A69104358615D
:103BD00059699A690A439A611A6942F004021A61A2
:103BE0001A6942F002021A611A6942F001021A616E
:103BF000704700BF08B5094B4FF48062002118469A
:103C0000FDF714FB0346064A064803F5806323F0DC
:103C1000070340210360116008BD00BF2069002038
:103C2000186900201C690020704700BF704700BF62
:103C3000704700BF704700BF704700BF704700BFAC
:103C4000131D1B4A30B423F0070343E903204FF050
:103C500080744FF012354FF0033243E905254FF0E1
:103C600001306FF0020243F8044C4FF0023443E994
:103C7000070443E909214FF004344FF005304FF0B9
:103C800006314FF0073243E9114043E90F124FF07C
:103C900008344FF009304FF010314FF0113243E942
:103CA0000D4043E90B12A3F1440030BC704700BF44
:103CB00065480008704700BF10B54020FCF78FFA38
:103CC000044600F08BF92046FCF797FA00F018FA4A
:103CD000BDE8104000F092B910B5064C4020FCF74A
:103CE0007EFA236801332360FCF787FAFFF7A2FF0F
:103CF000F4E700BF547800202DE9F047364C2378D4
:103D000082B02BB9142000F0BFFD2378002BF9D02E
:103D1000DFF8D880314BD8F80020DFF8D490A3FB2F
:103D200002135B09632AC8F800304DD94020FCF724
:103D300056FAD8F800302A4E2A4F2B4DDFF89CA0B7
:103D4000642202FB03F33360FCF757FA012000F012
:103D50009BFD4020FCF743FA00243460FCF74DFA49
:103D60000A2000F091FD4020FCF739FA33683B60EF
:103D7000FCF743FA3A68D8F80030B2FBF3F3C3F12A
:103D80006403D9B21B0605D5AAFB02235B09C8F858
:103D90000030214689F80010FFF750FF00246946E3
:103DA000E0B200F0DDFC58B955F8240040B101281C
:103DB00006D0D0E90231019A03EB8103C0E9113248
:103DC0000134402CEBD1C1E70023FF2089F80030FB
:103DD00000F0FEFCAAE700BF6C7A00201F85EB51C3
:103DE00054780020707A002044750020747A0020F6
:103DF000787A002070B588B0FFF7FCFE584A594920
:103E000059485A4B00241470594A0C60147059498F
:103E1000594A04700C7014605848594A5949046052
:103E200014600C60584A59485949147004700C7059
:103E3000584A594859491470C3E90044584B047012
:103E40000C604FF4E762214656481C60FDF7EEF91E
:103E50004FF4807221465448544CFDF7E7F9544B17
:103E600003F2E46243F8084C43F8403C54339A426E
:103E7000F8D15049504B4B4A00250D604F49C2F8CC
:103E8000304718460A602946EC22FDF7CFF900F1C9
:103E90001801416000F13001C16100F14801416346
:103EA00000F16001C16400F17801416600F1900108
:103EB000C16700F1A801424AC0F8941000F1C001A6
:103EC000C0F8AC1000F1D8014461C4624464C46518
:103ED0004467C0F88C40C0F8A440C0F8BC40C0F8AB
:103EE000C410C0F8D440C0F8EC40106000F04AFAAA
:103EF00000F084FA00F0A6FA324A33480326802400
:103F00004FF6FF73CDE90124009329463F23CDE905
:103F1000035602F5FE7200F087FB0DF11F022B49DC
:103F20003F2000F0F3FB2A4A02944FF6FE73CDE9DE
:103F3000003229463E23CDE9035602F5FE7225489C
:103F400000F072FB24490DF11F023E2000F0DEFB61
:103F5000FFF76AFE08B0BDE8704000F011BA00BF7C
:103F600068780020206D0020677800205C780020B1
:103F70005878002059780020C47B00205478002015
:103F8000707A0020747A00206C7A0020246D002062
:103F9000647800206678002065780020487600204C
:103FA000507600200C6E002044750020F85A00085E
:103FB000606E002044760020D07A00204C760020ED
:103FC000C07B002054760020D93C0008FC5A000831
:103FD0006C780020F93C00080C5B0008054B1B784E
:103FE000012B05D1044A1378FF2B1CBF013313703A
:103FF000704700BF59780020687800201D4B1B785F
:10400000012B00D0704710B5402082B0FCF7E7F8D4
:10401000194A137843B1013BDBB2137023B102B0EC
:10402000BDE81040FCF7E9B8144B1B78002BF6D123
:10403000134A144B127814499A5C144C895C5B5CEB
:10404000134903EBC203DBB2124A09782370124C06
:1040500052F8232022609942E1D0104C916B2368E2
:1040600001900131013391632360FCF70DF9019850
:10407000D5E700BF597800206878002067780020D5
:1040800064780020205B00085C78002065780020C0
:10409000667800204475002048760020C47B00200C
:1040A0000E4B1B7803B1704730B40D4A0D4B12789C
:1040B0000D499A5C0D4C885C0D491B5C0D4D0E48FA
:1040C00003EBC203DBB20B7023700C4955F82320BD
:1040D000026030BC0A60FCF799B800BF5978002034
:1040E00064780020205B00085C780020667800205F
:1040F0006578002044750020487600205076002026
:1041000070B54020FCF76BF8224A13680133136046
:10411000FCF773F8204B1B78012B00D070BD1F49B2
:104120000A78012AFAD0022A01D00AB100230B70C2
:104130001B4B1C6894F832303F2BEFD0194E1A4DB0
:104140004020FCF74CF8E36A5A1EDBB1E262CAB9C0
:1041500094F8303013F0370204D003F0C80384F829
:10416000303001221B0784F831200BD4327894F8C8
:10417000363094F83510134394F834203370AB5C28
:104180000B43AB546469FCF738F894F832303F2B9A
:10419000D6D170BD206D002059780020086E002017
:1041A00044760020647800205C780020704700BFCF
:1041B00090F8342090F835C00A44D37A23EA0C03EF
:1041C000D3722BB990F836208B7A23EA02038B72D4
:1041D0000023C361704700BF0A4611B10021FDF7FB
:1041E00025B8704710B5402082B0FBF7F8FF184B98
:1041F000184A1B781278134314D1174A174B1278B8
:1042000017499A5C174C895C5B5C174903EBC20346
:10421000DBB2164A09782370154C52F8232022602D
:10422000994204D102B0BDE81040FBF7E6BF114C43
:10423000916B236801900131013391632360FCF796
:1042400023F8019802B0BDE81040FBF7D6BF00BFCD
:10425000687800206778002064780020205B0008E0
:104260005C78002065780020667800204475002086
:1042700048760020C47B00202DE9F047394DBDF879
:10428000288006464020894692461F46FBF7A7FF36
:104290002C68002C61D063692B60FBF7AEFF099B93
:1042A00063600025089BE3602B4606F0070166F378
:1042B0000703F008012261F30F2360F3174302FAAA
:1042C00001F161F31F638240C4F83230264B84F859
:1042D0003620E3642046C4E90855C4E90F55C4E913
:1042E0001155C4F80090C4F808A0A4F810806782A3
:1042F0002586E56284F83750E561A5632565FFF7FB
:10430000D9FC4020FBF76BFF184B43F82640FBF726
:1043100074FF2046FFF78AFC4020FBF760FF144A39
:104320001368C4E9053503B19C61124D94F8363029
:104330002F7894F83410146094F835600E4C0F4ABE
:104340003B432B70635C3343635413780133137026
:10435000FBF753FF0020BDE8F087FBF74EFF42203C
:10436000BDE8F0874C760020F85A0008447500201C
:1043700044760020647800205C7800205878002083
:10438000704700BF10B5124C50212046FFF724FFA4
:104390002146002301F8103B04F1200061606061B8
:1043A0000C490D4AE26004F13000606204F1400003
:1043B0002374E26184F82030E26284F83030606374
:1043C000E26384F840306364E2640C6010BD00BFB7
:1043D000807A00207C7A0020F85A0008D0E9003268
:1043E00032B1136003B15A60836800225A62704789
:1043F000C1684B60002BF6D1F6E700BF10B50E4C3C
:1044000078212046FFF7E8FE04F1300104F118009E
:104410000A4AE16104F16001094B6060E16404F162
:10442000480000216361E36260636364E365616681
:104430006367146010BD00BF8C6D0020046E002007
:10444000F85A000810B5094C60212046FFF7C4FE59
:10445000234604F1180043F8300B054AA3610021FC
:1044600004F148002063A164146010BD286D002091
:10447000886D00202DE9F04105464020FBF7AFFE96
:10448000FF2D064603D1384B1B6893F83250DFF8F6
:10449000FC8058F82540002C5CD0012C5FD0334BB9
:1044A00094F8341094F835005A5C22EA00025A5409
:1044B00094F834209B5C33B92D4A94F83610137865
:1044C00023EA01031370E16911B12046FFF770FE82
:1044D000606A08B1FFF782FF264F0023E36223865C
:1044E0003B78FF2B18BF0133304618BF3B70FBF7FA
:1044F00084FEFFF75BFE4020FBF771FE3B7806462B
:10450000F3B92046FFF794FB1B49002348F82530F8
:104510000B78A269013B0B706369A2B153619A6188
:10452000164B174A19686161E26430461C60FBF75C
:1045300064FE144B1B78012B09D00020BDE8F081EC
:10454000013B3B70DDE710499A610B60E8E7FFF73C
:1045500049FEF2E73046FBF750FE4320EEE73046D7
:10456000FBF74BFE3D20E9E7507600205C78002009
:104570006478002067780020587800204C7600206E
:10458000F85A00085978002044760020447500202D
:104590002DE9F043064685B040201C460F46904664
:1045A000FBF71DFE1D4B1B7883BBDFF8789059F895
:1045B000245035B1FBF721FE2826304605B0BDE872
:1045C000F083012349F82430FBF717FE2B464246BF
:1045D00039463046FFF734FBCDE9015501460095D9
:1045E0002B462A462046FFF747FE064630B90C4BBD
:1045F0001B78012BE1D1FFF7F5FDDEE74020FBF74B
:10460000EEFD49F82450FBF7F8FDD6E7FBF7F5FD82
:104610003C26304605B0BDE8F08300BF6878002036
:1046200059780020447500202DE9F04F85B00546EB
:1046300040201C46BDF838A0BDF848900E461746ED
:10464000FBF7CDFD274B1B78002B43D1DFF89C8077
:1046500058F824B0BBF1000F06D0FBF7CEFD28259B
:10466000284605B0BDE8F08F012348F82430FBF759
:10467000C4FD09F00303032B23D03A4631462846F4
:104680004B46FFF7DDFA119B0193109B0093014607
:104690000F9ACDF8089053462046FFF7EDFD0546EA
:1046A00030B9114B1B78012BDAD1FFF79BFDD7E70F
:1046B0004020FBF794FD002348F82430FBF79DFDD4
:1046C000CEE7109B002BD8D00F9859469A00FCF7E4
:1046D000ADFDD2E7FBF791FD3C25284605B0BDE8CE
:1046E000F08F00BF687800205978002044750020C2
:1046F000054B1A781AB93F2803D0FFF7BBBE4020FC
:1047000070473E20704700BF68780020F8B5114B15
:104710001E78154616B112262E70F8BD04464020AC
:104720000F46FBF75CFDFF2C03D10B4B1B6893F886
:1047300032400A4B53F8243033B1012B04D0DF64EC
:10474000FBF75BFD2E70F8BD4326FBF756FD2E7080
:10475000F8BD00BF68780020507600204475002026
:10476000002370B5C1E90033044640200D46FBF735
:1047700036FDFF2C03D1144B1B6893F83240134BCA
:1047800053F82430D3B1012B18D01A8AD20711D58F
:10479000D3E90246FBF731FD234653F8042B8AB9CF
:1047A00053F8040B01320028FAD0B61AC5E90026E6
:1047B000002070BDFBF721FD452070BDFBF71DFDFE
:1047C000432070BD0022F1E75076002044750020A0
:1047D00038B504464020FBF702FDFF2C1D4B29D0C5
:1047E0001B6893F832502D1BB5FA85F56D091A4BED
:1047F00053F8243033B3012B28D093F83410174CDE
:1048000093F835C0625C22EA0C02625452B193F80C
:10481000302042F0080283F83020FBF7EEFC75B937
:10482000002038BD0E4993F836400A7822EA040287
:104830000A70ECE71B68012593F83240D7E7FFF7D1
:10484000D1FCEDE7FBF7D9FC482038BDFBF7D5FCE0
:10485000432038BD50760020447500205C7800204D
:104860006478002008B5064B1868FFF7E5F9054B9A
:104870001B7823B9BDE80840FF20FFF7FBBD08BD4A
:10488000507600206878002038B5154A154B12780C
:104890001B78134302D10928044600D838BD4020B4
:1048A000FBF79DFC104B114D1A6892F8341092F8EA
:1048B00035C06B5C23EA0C036B5433B90C4992F896
:1048C00036500B7823EA05030B700A4BA3FB041345
:1048D000DB08D362FBF791FCBDE83840FFF782BCF0
:1048E0006778002068780020507600205C780020EF
:1048F00064780020CDCCCCCC10B54020FBF76FFC09
:10490000024B1C68FBF779FC204610BD206D00208F
:10491000DFF834D00D480E490E4A002302E0D45887
:10492000C4500433C4188C42F9D30B4A0B4C0023F7
:1049300001E013600432A242FBD300F013F8FCF74D
:104940001BFDFFF725F970470080012000000020C3
:10495000B00500206C5C0008B0050020CC7B002076
:10496000FEE700003848394AD0F8883043F4700335
:10497000C0F888301368002143F001031360916090
:104980001368A0F1BC2023F0847323F48033F03843
:1049900013605060136882B023F480231360D160E9
:1049A00000910191136843F48033136003E0009B8E
:1049B000B3F5A04F09D0136803F400330193009BB3
:1049C00001330093019B002BF1D0204B1B6813F4A3
:1049D000003318BF01230193019B012B05D01A4B13
:1049E0004FF000629A6002B07047184B18491A6C79
:1049F000184842F080521A640A6842F440420A6041
:104A00009A689A609A689A609A6842F480529A60AA
:104A100058601A6842F080721A601A689201FCD5D8
:104A20000D4A40F205711160996821F00301996007
:104A3000996841F00201A2F580629960936803F0E1
:104A40000C03082BFAD1CAE700ED00E00038024061
:104A50000070004008544107003C02404FF40053EE
:104A60004B600020704700BF012070474FF0FF30BF
:104A7000704700BF0020704770B5161E07DD0C465A
:104A80008D1914F8010BFDF7C1FFA542F9D130468D
:104A900070BD00BF00207047044A05491368002B11
:104AA00008BF0B461844106018467047C87B0020AA
:104AB000D07B002070B5054688B008460C46FCF750
:104AC0007FF9214E6A6B059001214318CDE90661FB
:104AD00004A8022104940393AC6801900291002A77
:104AE0002ED0626EB4F90C30D60701D4980521D5CA
:104AF000990406D4626E43F4005322F40052A38159
:104B00006266284601AA214600F028F8636E002854
:104B10000CBF0A254FF0FF35DA0702D4A3899B05A5
:104B200002D5284608B070BDA06DFCF767FC28468A
:104B300008B070BDA06DFCF75FFCB4F90C30D7E78E
:104B40002846FCF7DDFACCE71C5B0008024B014667
:104B50001868FFF7AFBF00BF0C0000209368002B60
:104B600000F0F8802DE9F04FB1F90CC01CF0080FEF
:104B700083B0904681460C4631D00B697BB31CF064
:104B80000207D8F8006038D00027D4F824B0E169D3
:104B9000DFF8C4A23D4655452B463A4628BF53464A
:104BA0004846C5B1D847002840F3CA80D8F8083035
:104BB0001B1A07442D1AC8F80830002B00F0B680E5
:104BC00055452B46D4F824B0E16928BF53463A46F0
:104BD0004846002DE6D1D6E900750836DBE72146C8
:104BE000484600F03BF9002840F0AF80B4F90CC013
:104BF000D8F800601CF00207C6D11CF0010A63D18E
:104C00002368A168574618468B46002F58D01CF4DD
:104C1000007F00F0B580B9420A4600F2E1801CF442
:104C2000906F2FD0216962695D1A02EB420202EB9C
:104C3000D2726B1C52103B44934292BF93469B46E8
:104C40001A461CF4806F00F0EA8011464846FCF7D3
:104C50007BFD002800F0F9802A4621690090FCF7CE
:104C600001F8A289009B22F4906242F08002A281A6
:104C70005819ABEB0505C4F814B02361A56020609A
:104C8000BB463A465146009200F048F9A1682368B5
:104C9000009AA1EB0B011A443D46A1602260002757
:104CA000D8F808305B1BAA44C8F80830002B3DD068
:104CB0002368A168B4F90CC018468B46002FA6D112
:104CC000D6E900A708369EE73846BB463D46009722
:104CD000002D41D0002846D0009A2068A168D4E970
:104CE0000473AA4228BF2A46B84204D901EB030A3A
:104CF000524500F38580934275DCE169676A5A4644
:104D00004846B847B0F1000A1ADD009BB3EB0A032E
:104D100000930FD00120D8F80830A3EB0A03D34446
:104D2000A5EB0A05C8F80830002BD1D1002003B04C
:104D3000BDE8F08F21464846FDF7C4F80028EAD0C8
:104D4000B4F90C3043F04003A3814FF0FF3003B0BF
:104D5000BDE8F08F00207047756833460836002D97
:104D6000FAD0D3F800B02A460A215846FCF798F842
:104D7000002867D00130A0EB0B0300931A46ACE784
:104D800022699A4214D36269BA4211D86FF0004383
:104D9000BB4228BF3B46656A93FBF2F3E16902FB25
:104DA00003F348465246A847051EC9DD7F1B77E737
:104DB000B94228BF39460D4618460A46514600F00A
:104DC000ADF8A1682368491B2B44A160236000292A
:104DD000ECD121464846FDF775F80028E6D0AFE74C
:104DE000BB463A464EE75946019200F097F8019AC1
:104DF000A3689B1AA360236813442360924684E748
:104E00005946524600F08AF82368534423602146ED
:104E10004846FDF757F800283FF477AF90E748463B
:104E200000F0FCF8034600287FF422AF21694846D1
:104E3000FCF78CFBB4F90C300C2223F08003C9F88A
:104E400000207FE76A1C009247E70C22B4F90C307F
:104E5000C9F8002076E700BF00FCFF7F38B52E4B75
:104E60001B6805460C4613B15A6B002A4BD0B4F9A7
:104E70000C3018071CD5226922B313F0010107D0AA
:104E8000616900204942A060A1613AB1002038BDAB
:104E9000980758BF6169A160002AF7D1190658BF69
:104EA0001046F4D543F04003A3814FF0FF3038BDE6
:104EB000D9062CD55A0712D4226943F00803A381DE
:104EC000002ADAD103F42071B1F5007FD5D0214654
:104ED000284600F045FAB4F90C302269CDE7216B81
:104EE00051B104F14002914204D02846FCF72EFB58
:104EF000B4F90C300022226322690021C4E90021A8
:104F000023F02403D9E71846FCF7FAF8AFE70922A3
:104F10002A6043F04003C7E70C00002088420ED906
:104F20008B1883420BD900EB020C002A6ED062462C
:104F300013F801CD02F801CD9942F9D170470F2A3B
:104F40000FD8034602F1FF3C002A5FD00CF1010CA0
:104F5000013B8C4411F8012B03F8012F6145F9D175
:104F6000704740EA01039B0751D1A2F1100370B5CD
:104F700001F1200C23F00F0501F1100E00F11004D7
:104F8000AC441B095EF8105C44F8105C5EF80C5CE5
:104F900044F80C5C5EF8085C44F8085C5EF8045C5D
:104FA00044F8045C0EF1100EE64504F11004E9D15A
:104FB000013312F00C0F01EB031102F00F0400EBB0
:104FC000031328D0043C24F003064FEA940C1E443B
:104FD0001C1F8E465EF8045B44F8045FB442F9D1AE
:104FE0000CF1010402F0030203EB840301EB8401E2
:104FF00002F1FF3C4AB10CF1010C013B8C4411F869
:10500000012B03F8012F6145F9D170BD704702F102
:10501000FF3C03469AE72246EAE700BF2DE9F84F36
:105020001646002900F096800C46804606F10B05D6
:10503000FCF740FE54F8041C162DA4F1080921F0D9
:10504000030758D81025AE4258D8AF4260DABE4B9D
:105050009A6809EB070C6245DCF8040000F09080C8
:1050600020F0010363445B68DA0768D420F0030092
:105070003B189D4247DDCB0712D454F8083CA9EBFE
:10508000030BDBF8043023F00302104400EB070AA3
:10509000554540F3F68007EB020A554540F3CC80B6
:1050A00031464046FCF750FB0646002800F02081C0
:1050B00054F8043C23F001034B44A0F1080293424E
:1050C00000F0B4803A1F242A00F2D780132A00F29D
:1050D000A28003462246116819605168596092689F
:1050E0009A6021464046FCF731FA4046FCF7E8FD5D
:1050F0003046BDE8F88F35F00705A4D50C23C8F875
:105100000030002618E01F46DCE90223D3609A60D5
:10511000D9F804307A1B0F2A03F0010309EB0700CA
:105120001DD83B43C9F80430436843F00103436092
:105130004046FCF7C5FD26463046BDE8F88FC90756
:10514000AED454F8083CA9EB030BDBF8043023F091
:105150000302A0E7BDE8F84F1146FCF7F5BA09EBEA
:1051600005012B4342F00102C9F804304A6043684C
:1051700043F00103436008314046FCF7E7F9D7E705
:1051800020F00300C21905F1100C624580F29180F5
:10519000CA0785D454F8082CA9EB020BDBF80420CD
:1051A00022F00302104400EB070AD4453FF773AF27
:1051B0005E46DBF80C1056F8080F3A1F242AC1602F
:1051C000886000F2AE80132A40F2A9802168CBF8F3
:1051D00008106168CBF80C101B2A00F2A880083474
:1051E0000BF110022168116061685160A168916043
:1051F0000BEB0501AAEB050242F0010299604A603F
:10520000DBF8043003F001032B434046CBF80430B5
:10521000FCF756FD90E723680360636843601B2A30
:105220003CD804F1080200F1080354E750F8043CAC
:1052300023F003031F446BE73A1F5E46DBF80C3094
:1052400056F8081F242ACB60996022D8132A1ED949
:105250002368CBF808306368CBF80C301B2A3BD8A6
:1052600008340BF1100322681A6062685A60A26861
:105270009A6034465746D9464AE72146FFF74EFE24
:105280002FE7DCE902133A1FCB609960D5E733467C
:10529000E9E721463046FFF741FEEAE7A36883606D
:1052A000E368C360242A27D004F1100200F1100340
:1052B00011E709EB05019960531B43F001034B60B3
:1052C00054F8043C03F001032B43404644F8043CEB
:1052D000FCF7F6FC26462FE7A368CBF81030E3680E
:1052E000CBF81430242A10D010340BF11803BAE78D
:1052F0004046FCF7E5FC04E723690361616941610D
:1053000004F1180200F11803E5E62369CBF8183020
:105310006369CBF81C3018340BF12003A3E7324645
:1053200060E721463046FFF7F9FD074B60E7A168CB
:10533000CBF81010E168CBF81410242A06D01034F2
:105340000BF118024EE700BF400100202269CBF8A4
:1053500018206269CBF81C2018340BF1200241E7B9
:105360002DE9F041B1F90C300C46990796B008D5FB
:1053700004F143030122C4E90432236016B0BDE8FE
:10538000F081B4F90E100029064626DB6A4600F0CB
:1053900055F800281FDB019D05F47045A5F5005563
:1053A000B5FA85F54FF480686D094FF40067414602
:1053B0003046FCF7C9F9E8B1B4F90C30C4F81480F0
:1053C00043F0800320602061A3813DBB3B43A38168
:1053D00016B0BDE8F081B4F90C3013F0800519D097
:1053E0004FF040080025414630462F46FCF7ACF907
:1053F0000028E1D1B4F90C309A05BFD423F003039F
:1054000004F1430243F002030121C4E90421A38112
:105410002260B3E74FF480682F46C8E7B4F90E1056
:10542000304600F021F810B9B4F90C30CEE7A3896A
:1054300023F0030343F001031BB2C7E770B50C462A
:10544000084D03460026204611461C462E60FFF7F5
:1054500005FB431C00D070BD2B68002BFBD02360E4
:1054600070BD00BF0807002038B5074D0022044674
:1054700008462A60FFF7F8FA431C00D038BD2B68B5
:10548000002BFBD0236038BD0807002038B52DED78
:10549000028B55EC104B00F037F822462B46204685
:1054A0002946B0EE408AF0EE608AFBF749FD30B93C
:1054B0000022002320462946FBF75CFB30B9B0EE02
:1054C000480AF0EE680ABDEC028B38BDFCF744FDDB
:1054D000002200232121016010461946FBF702FA41
:1054E00041EC180BB0EE480AF0EE680ABDEC028BF6
:1054F00038BD00BF00F002B910EE103A23F00043AF
:1055000000EE103A704700BF2DE9F84F784855EC8F
:10551000104BA84300F0A880002D21462B462246C0
:1055200055DD2C1500F0D280C3F31303E107A4F27C
:10553000FF3743F4801303D4D10F01EB4303520030
:105540005B00002603EBD2737F1052001624B44692
:105550004FF400110CEB0100984203DC1B1A01EB25
:10556000000C0E445B00013C03EBD2734FEA510187
:105570004FEA4202EED1A04620254FF000400AE05B
:105580003CD0590001EBD271013D0B464FEA42027B
:105590004FEA50003ED09C4508EB000EF0DABEF119
:1055A000000F0EEB00080CDBE146A3EB0C01964567
:1055B00088BF01F1FF314900CC46A2EB0E02044442
:1055C000E0E7B8F1000FEFDB0CF10109EDE725F0A2
:1055D0000040204342D0002D6DD1D10A153B520529
:1055E0000029FAD0CE021C4610460B466FD5202566
:1055F0004FF0FF31E840641A034395E7964502D91E
:105600004FEA4C01BEE7BEF1000F0EEB000827DBAE
:105610000021D2E7114312D0DFF8D8A0DFF8D8B0CC
:10562000DAE90001DBE90023FAF77AFEDAE900891A
:1056300002460B4640464946FBF7A6FA10BB6508F2
:105640007110F30701F17F5101F5001148BF45F0DA
:10565000004501EB07532A4643EC102BBDE8F88FB9
:10566000B8F1000FB0DAD3E722462B462046294690
:10567000FBF70EF822462B46FAF754FE41EC100BCE
:10568000BDE8F88FB4F1FF3FDAE90001DBE9002360
:1056900029D0FAF747FEDAE9008902460B46404670
:1056A0004946FBF767FA00B3A21C04F1020508BFE4
:1056B00001366D08C4E720462946FAF731FE024656
:1056C0000B46FBF70FF941EC100BC7E70846002229
:1056D0005B00DD02114602F10102F9D5C2F120059D
:1056E00000FA02F286E70136AAE70134A7E700BF15
:1056F0000000F07FA8050020A005002010B582B0B2
:10570000CDED010A019B23F00042B2F1FF4FF0EE14
:10571000407A30D810EE100A20F00041B1F1FF4F6E
:1057200029D8B3F17E5F42D09C1704F0020444EA0A
:10573000D07431B37AB3B2F1FF4F40D0B1F1FF4F23
:1057400029D0891AB1F1F45F4FEAE15234DA002B23
:1057500042DA3C3240DA9FED340A012C4ED0022C62
:1057600043D064B19FED317ADFED317A30EE070A34
:1057700030EE670A03E09DED017A37EE270A02B0AA
:1057800010BD022C10D09FED2B7A032C08BFB0EE79
:10579000470A02B010BD9FED280ADFED287A0028E5
:1057A000B8BFB0EE670AEAE79FED210AE7E702B06B
:1057B000BDE8104000F04AB89FED1F0ACDE7B1F1F7
:1057C000FF4F04F1FF3420D0022C26D81C4B03EBF2
:1057D000840393ED000AD2E79DED017A87EE870AF4
:1057E000FFF78AFE00F032F8B7E79FED107ADFEDA1
:1057F000107A30EE070A37EEC00AC0E710EE103A12
:1058000003F1004300EE103AB9E7022C08D80D4B23
:1058100003EB840393ED000AB1E79FED030AAEE7C3
:105820009FED090AABE700BF000000002EBDBB33AF
:10583000DB0F4940DB0F49C0DB0FC93FDB0FC9BF9E
:10584000205C00082C5C0008DB0F493F38B510EEE7
:10585000105A25F00044B4F1A14FF0EE407A0DD378
:10586000B4F1FF4F5BD8DFED517A9FED517A002DF7
:10587000CCBFB0EE470AB0EE670A38BD4D4B9C4234
:105880005CD8B4F1445F4DD34FF0FF3327EEA76AE5
:105890009FED495A9FED497ADFED495ADFED494ABC
:1058A00066EE066A5A1CA6EE857AE6EEA54A9FEDDC
:1058B000465ADFED465AA7EE265AE4EEA65A9FED69
:1058C000447ADFED444AA5EE267AE5EEA64A9FED3E
:1058D000425ADFED425AA7EE265A9FED417AA4EED6
:1058E000A67AE5EE265A27EE267AA5EE867A27EEE8
:1058F000877A38D03B493C4A01EB8301D1ED006AFD
:1059000037EE667A02EB8303D3ED006A37EE677AEF
:10591000002D36EEC70AB0DAB1EE400A38BD30EEDF
:10592000000A38BD9FED317A30EE077AF7EE006A53
:10593000B4EEE67AF1EE10FAA6DD38BDFFF7DCFD35
:105940002B4B9C4212D8A3F5D0039C4223D8F0EEF7
:10595000007ABFEE007AA0EE277A002330EE270A05
:10596000C7EE007A92E737EEC70A38BD214B9C425A
:105970000BD8F7EE087AB7EE007AA0EE277A02236A
:1059800030EE670AC0EE077A80E7BFEE007AC7EE16
:10599000007A03237AE7F7EE007A30EE677A30EE8A
:1059A000270A0123C7EE007A70E700BFDB0FC9BFEB
:1059B000DB0FC93FFFFFDF3ED769853C59DA4B3D1E
:1059C00021A215BD6BF16EBD356B883D95879DBDE0
:1059D0006E2EBA3D388EE3BD2549123EABAAAA3ED3
:1059E000CDCC4CBE385C0008485C0008CAF2497156
:1059F000FFFF973FFFFF1B40F8B500BFF8BC08BC96
:105A00009E467047F8B500BFF8BC08BC9E4670477C
:105A1000426C7565746F6F746820696E6974206676
:105A2000696E697368656421000000004932432093
:105A3000696E69742066696E697368656421000027
:105A40004759383620696E69742066696E697368D3
:105A500065642100526563656976657220696E69C7
:105A6000742066696E697368656421004D6F746F98
:105A70007220696E69742066696E69736865642155
:105A800000000000496E6974696C697A6174696F1D
:105A90006E2066696E6973686564210050455249DD
:105AA00050484552414C5F494E49545F455252005F
:105AB0005045524950484552414C5F494E49540067
:105AC00061747469747564655F455252000000002A
:105AD000617474697475646500000000464952532E
:105AE000545F5441534B5F45525200004649525354
:105AF000545F5441534B00003F00000075432F4F4B
