:020000040800F2
:1000000000800120E96600083967000839670008A8
:1000100039670008396700083967000800000000E8
:100020000000000000000000000000003967000828
:1000300039670008000000009302000861520008C0
:100040003967000839670008396700083967000810
:100050003967000839670008396700083967000800
:1000600039670008396700083967000839670008F0
:1000700039670008396700083967000839670008E0
:100080003967000839670008396700080000000078
:1000900000000000000000000000000039670008B8
:1000A0003967000839670008396700085D4C0008A7
:1000B00039670008396700083967000839670008A0
:1000C0003967000839670008396700083967000890
:1000D0003967000839670008396700080000000028
:1000E0003967000839670008396700080000000018
:1000F0000000000000000000000000003967000858
:1001000000000000396700083967000839670008F7
:1001100000000000000000000000000000000000DF
:10012000396700083967000839670008396700082F
:100130003967000800000000000000000000000017
:100140000000000000000000000000003967000807
:1001500039670008396700083967000839670008FF
:10016000396700083967000800000000000000003F
:10017000000000000000000000000000000000007F
:1001800000000000396700080000000000000000C7
:0401900039670008C3
:1001C000EFF3098121B120ED108A4F490A681060D0
:1001D0007047B0EC108A4D490A681060704772B6DB
:1001E00002B4EFF3118180F31188BFF34F8FBFF397
:1001F0006F8F084602BC62B6704772B680F31188F2
:10020000BFF34F8FBFF36F8F62B6704772B64EF673
:100210002250CEF2000040F2FF01C0F20001017056
:10022000002080F3098846F6B860C2F20000016839
:1002300081F3088836480121017047F21E20C2F27E
:10024000000047F21F21C2F200010A78027047F253
:100250003440C2F2000047F23C41C2F200010A6899
:100260000260106880F30988EFF3148040F0020008
:1002700080F31488BFF36F8FBDE8F04F0FBCBDE86B
:10028000005006BC62B6084722484FF0805101601A
:10029000704772B646F6BC62C2F20002116881F382
:1002A0001188BFF34F8FBFF36F8F62B6EFF30980F2
:1002B00020E9F04F47F23445C2F200052968086092
:1002C000744647F21E20C2F2000047F21F21C2F21C
:1002D00000010A78027047F23C41C2F200010A684C
:1002E0002A6044F0040E1068B0E8F04F80F30988EB
:1002F0004FF0000272B682F31188BFF34F8FBFF345
:100300006F8F62B670470000347400203C74002088
:100310002C72002004ED00E081F0004102E000BFFB
:1003200083F0004330B54FEA41044FEA430594EAB5
:10033000050F08BF90EA020F1FBF54EA000C55EAF0
:10034000020C7FEA645C7FEA655C00F0E2804FEAC1
:100350005454D4EB5555B8BF6D420CDD2C4480EAA3
:10036000020281EA030382EA000083EA010180EAD3
:10037000020281EA0303362D88BF30BD11F0004F21
:100380004FEA01314FF4801C4CEA113102D0404257
:1003900061EB410113F0004F4FEA03334CEA133392
:1003A00002D0524263EB430394EA050F00F0A780AA
:1003B000A4F10104D5F1200E0DDB02FA0EFC22FAA5
:1003C00005F2801841F1000103FA0EF2801843FA99
:1003D00005F359410EE0A5F120050EF1200E012A8A
:1003E00003FA0EFC28BF4CF0020C43FA05F3C018C8
:1003F00051EBE37101F0004507D54FF0000EDCF141
:10040000000C7EEB00006EEB0101B1F5801F1BD3E9
:10041000B1F5001F0CD349085FEA30004FEA3C0CED
:1004200004F101044FEA445212F5800F80F09A80E3
:10043000BCF1004F08BF5FEA500C50F1000041EBE7
:10044000045141EA050130BD5FEA4C0C404141EBEB
:100450000101013C28BFB1F5801FE9D291F0000FE6
:1004600004BF01460020B1FA81F308BF2033A3F195
:100470000B03B3F120020CDA0C3208DD02F1140C8C
:10048000C2F10C0201FA0CF021FA02F10CE002F1C7
:100490001402D8BFC2F1200C01FA02F120FA0CFCC0
:1004A000DCBF41EA0C019040E41AA2BF01EB045109
:1004B000294330BD6FEA04041F3C1CDA0C340EDC07
:1004C00004F11404C4F1200220FA04F001FA02F34A
:1004D00040EA030021FA04F345EA030130BDC4F108
:1004E0000C04C4F1200220FA02F001FA04F340EAFD
:1004F0000300294630BD21FA04F0294630BD94F0AE
:10050000000F83F4801306BF81F480110134013D94
:100510004EE77FEA645C18BF7FEA655C29D094EA05
:10052000050F08BF90EA020F05D054EA000C04BF83
:100530001946104630BD91EA030F1EBF002100206E
:1005400030BD5FEA545C05D14000494128BF41F00D
:10055000004130BD14F580043CBF01F5801130BD71
:1005600001F0004545F0FE4141F470014FF00000FC
:1005700030BD7FEA645C1ABF194610467FEA655CAD
:100580001CBF0B46024650EA013406BF52EA03354F
:1005900091EA030F41F4002130BD00BF90F0000F3D
:1005A00004BF0021704730B54FF4806404F1320479
:1005B0004FF000054FF0000150E700BF90F0000F32
:1005C00004BF0021704730B54FF4806404F1320459
:1005D00010F0004548BF40424FF000013EE700BF29
:1005E00042004FEAE2014FEA31014FEA02701FBFB9
:1005F00012F07F4393F07F4F81F06051704732F0EB
:100600007F4208BF704793F07F4F04BF41F4002141
:10061000704730B54FF4607401F0004521F000419F
:100620001CE700BF50EA010208BF704730B54FF029
:1006300000050AE050EA010208BF704730B511F02A
:10064000004502D5404261EB41014FF4806404F162
:1006500032045FEA915C3FF4D8AE4FF003025FEAE8
:10066000DC0C18BF03325FEADC0C18BF033202EB6C
:10067000DC02C2F1200300FA03FC20FA02F001FAC6
:1006800003FE40EA0E0021FA02F11444BDE600BF69
:1006900070B54FF0FF0C4CF4E06C1CEA11541DBF18
:1006A0001CEA135594EA0C0F95EA0C0F00F0DEF8E3
:1006B0002C4481EA030621EA4C5123EA4C5350EAC8
:1006C000013518BF52EA033541F4801143F4801319
:1006D00038D0A0FB02CE4FF00005E1FB02E506F0AA
:1006E0000042E0FB03E54FF00006E1FB03569CF0FF
:1006F000000F18BF4EF0010EA4F1FF04B6F5007F05
:1007000064F5407404D25FEA4E0E6D4146EB060676
:1007100042EAC62141EA55514FEAC52040EA5E50FF
:100720004FEACE2EB4F1FD0C88BFBCF5E06F1ED8A9
:10073000BEF1004F08BF5FEA500E50F1000041EBE0
:10074000045170BD06F0004646EA010140EA02008D
:1007500081EA0301B4EB5C04C2BFD4EB0C0541EAAF
:10076000045170BD41F480114FF0000E013C00F3C4
:10077000AB8014F1360FDEBF002001F0004170BDE8
:10078000C4F10004203C35DA0C341BDC04F1140401
:10079000C4F1200500FA05F320FA04F001FA05F28D
:1007A00040EA020001F0004221F0004110EBD3705A
:1007B00021FA04F642EB06015EEA430E08BF20EA86
:1007C000D37070BDC4F10C04C4F1200500FA04F329
:1007D00020FA05F001FA04F240EA020001F00041BB
:1007E00010EBD37041F100015EEA430E08BF20EA2E
:1007F000D37070BDC4F1200500FA05F24EEA020E76
:1008000020FA04F301FA05F243EA020321FA04F0A4
:1008100001F0004121FA04F220EA020000EBD3705B
:100820005EEA430E08BF20EAD37070BD94F0000F5B
:100830000FD101F00046400041EB010111F4801F8F
:1008400008BF013CF7D041EA060195F0000F18BF40
:10085000704703F00046520043EB030313F4801F7C
:1008600008BF013DF7D043EA0603704794EA0C0F36
:100870000CEA135518BF95EA0C0F0CD050EA41064C
:1008800018BF52EA4306D1D181EA030101F00041C9
:100890004FF0000070BD50EA410606BF10461946F1
:1008A00052EA430619D094EA0C0F02D150EA0136FD
:1008B00013D195EA0C0F05D152EA03361CBF10463E
:1008C00019460AD181EA030101F0004141F0FE41DD
:1008D00041F470014FF0000070BD41F0FE4141F461
:1008E000780170BD70B54FF0FF0C4CF4E06C1CEA61
:1008F00011541DBF1CEA135594EA0C0F95EA0C0F16
:1009000000F0A7F8A4EB050481EA030E52EA0335D0
:100910004FEA013100F088804FEA03334FF08055F1
:1009200045EA131343EA12634FEA022245EA11151E
:1009300045EA10654FEA00260EF000419D4208BFCF
:10094000964244F1FD0404F5407402D25B084FEA7C
:100950003202B61A65EB03055B084FEA32024FF428
:1009600080104FF4002CB6EB020E75EB030E22BF85
:10097000B61A754640EA0C005B084FEA3202B6EB45
:10098000020E75EB030E22BFB61A754640EA5C00F4
:100990005B084FEA3202B6EB020E75EB030E22BF84
:1009A000B61A754640EA9C005B084FEA3202B6EB85
:1009B000020E75EB030E22BFB61A754640EADC0044
:1009C00055EA060E18D04FEA051545EA16754FEAA6
:1009D00006164FEAC30343EA52734FEAC2025FEAC4
:1009E0001C1CC0D111F4801F0BD141EA00014FF053
:1009F00000004FF0004CB6E711F4801F04BF014324
:100A00000020B4F1FD0C88BFBCF5E06F3FF6AFAE3F
:100A1000B5EB030C04BFB6EB020C5FEA500C50F1CF
:100A2000000041EB045170BD0EF0004E4EEA113152
:100A300014EB5C04C2BFD4EB0C0541EA045170BD59
:100A400041F480114FF0000E013C90E645EA060E9D
:100A50008DE60CEA135594EA0C0F08BF95EA0C0FCB
:100A60003FF43BAF94EA0C0F0AD150EA01347FF413
:100A700034AF95EA0C0F7FF425AF104619462CE7EA
:100A800095EA0C0F06D152EA03353FF4FDAE10464D
:100A9000194622E750EA410618BF52EA43067FF49E
:100AA000C5AE50EA41047FF40DAF52EA43057FF42E
:100AB000EBAE12E74FF0FF3C06E000BF4FF0010C39
:100AC00002E000BF4FF0010C4DF804CD4FEA410C9D
:100AD0007FEA6C5C4FEA430C18BF7FEA6C5C1BD06A
:100AE00001B050EA410C0CBF52EA430C91EA030FEB
:100AF00002BF90EA020F0020704710F1000F91EA48
:100B0000030F58BF994208BF90422CBFD8176FEA15
:100B1000E37040F0010070474FEA410C7FEA6C5CE3
:100B200002D150EA013C07D14FEA430C7FEA6C5CEA
:100B3000D6D152EA033CD3D05DF8040B704700BF16
:100B40008446104662468C461946634600E000BF64
:100B500001B5FFF7B7FF002848BF10F1000F01BD36
:100B60004DF808EDFFF7F4FF0CBF012000205DF801
:100B700008FB00BF4DF808EDFFF7EAFF34BF012086
:100B800000205DF808FB00BF4DF808EDFFF7E0FF1F
:100B900094BF012000205DF808FB00BF4DF808ED70
:100BA000FFF7CEFF94BF012000205DF808FB00BFD7
:100BB0004DF808EDFFF7C4FF34BF012000205DF8B9
:100BC00008FB00BF4FEA4102B2F1E04324BFB3F596
:100BD000001CDCF1FE5C0DD901F0004C4FEAC002B4
:100BE0004CEA5070B2F1004F40EB830008BF20F098
:100BF0000100704711F0804F21D113F13872BCBF52
:100C000001F00040704741F480114FEA5252C2F1A6
:100C10001802C2F1200C10FA0CF320FA02F018BFEF
:100C200040F001004FEAC1234FEAD32303FA0CFC42
:100C300040EA0C0023FA02F34FEA4303CCE77FEAD1
:100C4000625307D150EA01331EBF4FF0FE4040F41B
:100C50004000704701F0004040F0FE4040F40000CA
:100C6000704700BF844641EA000313F003036DD1CF
:100C7000403A41D351F8043B40F8043B51F8043B5F
:100C800040F8043B51F8043B40F8043B51F8043B66
:100C900040F8043B51F8043B40F8043B51F8043B56
:100CA00040F8043B51F8043B40F8043B51F8043B46
:100CB00040F8043B51F8043B40F8043B51F8043B36
:100CC00040F8043B51F8043B40F8043B51F8043B26
:100CD00040F8043B51F8043B40F8043B51F8043B16
:100CE00040F8043B51F8043B40F8043B51F8043B06
:100CF00040F8043B403ABDD2303211D351F8043BA6
:100D000040F8043B51F8043B40F8043B51F8043BE5
:100D100040F8043B51F8043B40F8043B103AEDD254
:100D20000C3205D351F8043B40F8043B043AF9D2A5
:100D3000043208D0D2071CBF11F8013B00F8013B78
:100D400001D30B8803806046704700BF082A13D385
:100D50008B078DD010F003038AD0C3F10403D21A9D
:100D6000DB071CBF11F8013B00F8013B80D331F8D1
:100D7000023B20F8023B7BE7043AD9D3013A11F851
:100D8000013B00F8013BF9D20B7803704B784370BC
:100D90008B78837060467047000000000000000000
:100DA0000000000000000000000000000000000043
:100DB0000000000000000000000000000000000033
:100DC00030B490F800F020F007016FF0000C10F044
:100DD000070491F820F040F048804FF000046FF0D5
:100DE0000700D1E9002391F840F000F1080082FAF1
:100DF0004CF2A4FA8CF283FA4CF3A2FA8CF34BBBBC
:100E0000D1E9022382FA4CF200F10800A4FA8CF234
:100E100083FA4CF3A2FA8CF3E3B9D1E9042382FA02
:100E20004CF200F10800A4FA8CF283FA4CF3A2FA17
:100E30008CF37BB9D1E9062301F1200182FA4CF24F
:100E400000F10800A4FA8CF283FA4CF3A2FA8CF3B6
:100E5000002BC6D0002A04BF04301A4612BAB2FAD8
:100E600082F200EBD20030BC7047D1E9002304F0DD
:100E70000305C4F100004FEAC50514F0040F91F812
:100E800040F00CFA05F562EA05021CBF63EA0503AF
:100E900062464FF00004AAE70000000000000000D6
:100EA00001F0FF01102A2BDB10F0070F08D010F81B
:100EB000013B013A8B422DD010F0070F42B3F6D11F
:100EC000F0B441EA012141EA014122F007047FF038
:100ED00000070023F0E80256083C85EA010586EA8F
:100EE000010685FA47F5A3FA87F586FA47F6A5FACB
:100EF00087F68EB9EED1F0BC01F0FF0102F00702D7
:100F000032B110F8013B013A83EA010313B1F8D181
:100F10000020704701387047002D06BF3546033862
:100F2000073815F0010F07D1013015F4807F02BF9B
:100F3000013015F4C03F0130F0BC0138704700BFEC
:100F40004FEA410C7FEA6C5C02D150EA013C0AD1C5
:100F50004FEA430C7FEA6C5C02D152EA033C02D1B7
:100F60004FF0000070474FF0010070474FEA410218
:100F700012F5001215D211D56FF47873B3EB6252EB
:100F800012D94FEAC12343F0004343EA505311F012
:100F9000004F23FA02F018BF404270474FF00000A4
:100FA000704750EA013005D111F0004008BF6FF0E2
:100FB000004070474FF00000704700BF10B5054C6F
:100FC000237833B9044B13B10448AFF300800123F5
:100FD000237010BD4807002000000000BCC00008BE
:100FE00008B5034B1BB103490348AFF3008008BDAC
:100FF000000000004C070020BCC000080023014690
:101000001A46184600F024BA024A0349034800F081
:10101000C9B800BF000000201D1D000810000020FE
:101020000C4B4168994210B5044601D000F076FEA1
:10103000A168094B994202D0204600F06FFEE1689A
:10104000064B994204D02046BDE8104000F066BE31
:1010500010BD00BF64070020CC070020340800202A
:101060002DE9F843314C324B3248DFF8DC90DFF8A1
:10107000DC80314F1860002529460423082204F142
:101080005C002E4EE360C4E90055C4E90455A56038
:101090006566A56100F0F2F804F15800C4E907495B
:1010A000C4E90987E66200F0CBF92946244B63675F
:1010B000082204F1C400C4E91A55C4E91E55256785
:1010C000C4F8CC50C4F8805000F0D8F804F168039C
:1010D00004F1C000C4F88430C4E92298C4E924763D
:1010E00000F0AEF9174BC4F8DC30294604F59670D1
:1010F0000822C4E93455C4E93855C4F8D850C4F8B6
:101100003451C4F8E85000F0B9F804F1D003C4E950
:101110003D87C4F8F09004F59470C4F8FC60C4F8FE
:10112000EC30BDE8F84300F08BB900BF6407002045
:101130009C080020091000085112000875120008D0
:101140000900010012000200ED1100081112000850
:1011500010B504460A4800F077F9636B23B9094BD0
:10116000094A1B68626323B1BDE81040044800F0DF
:101170006DB9FFF775FFBDE81040014800F066B992
:10118000AC0800209C08002021100008014800F055
:101190005BB900BFAC080020014800F057B900BFA0
:1011A000AC0800202DE9F84380460F4616464FF064
:1011B0000009D6E90154013D11D4A389012B05F1A1
:1011C000FF3508D9B4F90E300133214603D040462B
:1011D000B84749EA00096B1C04F16804EDD1366890
:1011E000002EE6D14846BDE8F88300BF10B50C4696
:1011F000B1F90E1000F0BCF8002803DB236D0344A6
:10120000236510BDA38923F48053A38110BD00BFC3
:101210002DE9F0410C46B1F90C101F46CB050546EF
:1012200016460BD421F48051A1813B46B4F90E102F
:1012300032462846BDE8F04100F0B0B8B4F90E10CF
:101240000223002200F07EF8B4F90C10EAE700BF98
:1012500010B50C46B1F90E1000F074F8B4F90C306A
:10126000421C0EBF23F4805343F480532065A381B6
:1012700010BD00BFB1F90E1000F052B8830730B5B1
:1012800047D0541E002A3ED0CAB2034601E0013CBA
:1012900039D303F8012B9D07F9D1032C2CD9CDB2FA
:1012A00005EB05250F2C05EB054535D9A4F11002FA
:1012B00022F00F0C03F1100EE6444FEA121C1A46FE
:1012C000156055609560D56010327245F8D10CF10B
:1012D000010214F00C0F03EB021204F00F0C13D0F8
:1012E000ACF1040323F003030433134442F8045B1A
:1012F0009A42FBD10CF003042CB1C9B21C4403F890
:10130000011B9C42FBD130BD64461346002CF4D136
:10131000F9E703461446C0E71A46A446E0E700BFD3
:1013200038B5074D0022044608462A6005F0D1FA78
:10133000431C00D038BD2B68002BFBD0236038BD88
:10134000A008002038B50C46084D844611462046BA
:101350001A4600232B60644605F0C7FA431C00D0F0
:1013600038BD2B68002BFBD0236038BDA0080020BF
:1013700038B50C46084D8446114620461A460023CF
:101380002B60644605F0DAFA431C00D038BD2B68A8
:10139000002BFBD0236038BDA008002038B50C46D8
:1013A000084D8446114620461A4600232B606446A9
:1013B00005F0A8FA431C00D038BD2B68002BFBD0E9
:1013C000236038BDA008002070B50F4B0F4DAB4215
:1013D000A3EB050607D0B610002455F8043B0134F2
:1013E0009847A642F9D80AF069FE094D094B5E1BE1
:1013F000AB424FEAA60606D0002455F8043B013460
:101400009847A642F9D870BD4CC700084CC70008E1
:101410004CC7000854C7000838B5074D074C2C1BB3
:10142000A41005D0013C55F8043D9847002CF9D193
:10143000BDE838400AF048BE58C7000854C7000845
:10144000704700BF704700BF704700BF704700BFC4
:101450002DE9F8431B4D0646286898460F469146ED
:10146000FFF7F2FF184B1C681CB3286865681F2D36
:1014700022DC4EB96B1C0235636044F82570FFF71F
:10148000E5FF0020BDE8F88304EB85010123C1F8E6
:101490008890D4F88821AB401A43022EC4F88821E2
:1014A000C1F80881E6D1D4F88C211A43C4F88C2104
:1014B000E0E7064C1C60D8E7FFF7C8FF4FF0FF30AD
:1014C000E0E700BF30010020400A0020B008002003
:1014D000024B13B10248FFF791BD704700000000B6
:1014E000191400082DE9F84306460820894600F043
:1014F0004DFDDFF8A4800546304600F003FCD8F827
:1015000008305F6827F00307A7F11104A4EB090472
:101510002C44B4FBF5F4013C05FB04F4A54208DCC3
:101520000021304600F020FDD8F808303B449842B6
:1015300005D0304600F0ECFB0020BDE8F8836142A6
:10154000304600F011FD01300FD0114AD8F80830B4
:101550003F1B47F001075F60136830461B1B136099
:1015600000F0D6FB0120BDE8F8830021304600F0F2
:10157000FBFCD8F80820831A0F2BDADD43F00103B7
:101580005360044B02491B68C01A0860D1E700BFD2
:10159000440A0020340100204001002000297CD0B2
:1015A0002DE9F0410C46804600F0ACFB54F8043CB9
:1015B000764FA4F1080523F001016818BE6842685F
:1015C000864222F0030200F08380DE07426000EBD7
:1015D000020C33D454F8084CDCF804302D1B2144A1
:1015E000AC6807F1080C644503F0010364D0D5F83A
:1015F0000CE0C4F80CE0CEF80840002B00F081802D
:1016000041F001036B600160B1F5007F22D2786880
:10161000CB080122490901338A40024357F83310AD
:101620007A6007EBC302083AC5E9021247F8335063
:10163000CD604046BDE8F04100F06ABBDCF8043004
:10164000DB072BD541F00103B1F5007F44F8043CE2
:101650000160DCD3B1F5206F4FEA512353D28B09DF
:1016600003F1390003F13802C300F818FB580838B9
:10167000984203D163E09B68984204D05A6822F0F4
:1016800003028A42F7D8D868C5E902308560DD6078
:101690004046BDE8F04100F03BBB7047114407F104
:1016A000080C836863453FD0C268DA60936041F0FC
:1016B00001036B606950A7E7002B61D10A44D0E9B0
:1016C0000213CB60996042F001036B60AA50B0E74F
:1016D000DB070A4407D454F8083CED1A1A44D5E94C
:1016E0000213CB60996042F001036B60284BBD6030
:1016F0001B6893429DD8274B40461968FFF7F2FEBE
:1017000097E71144CDE7142B08D9542B1FD80B0BA6
:1017100003F16F0003F16E02C300A6E703F15C0062
:1017200003F15B02C300A0E741F001033D617D616D
:10173000C5F808C0C5F80CC06B60695079E77968D6
:101740009210012404FA02F20A437A609CE7B3F58E
:10175000AA7F06D8CB0B03F1780003F17702C30010
:1017600083E740F25452934206D88B0C03F17D007C
:1017700003F17C02C30078E74FF47E737E2274E7A6
:1017800041F001036B60016053E700BF400100209E
:1017900038010020740A00202DE9F04F01F10B05FB
:1017A000162D85B0064623D8102900F2B08000F02F
:1017B000A9FA102518230220B74F3B44A3F10802D1
:1017C0005C68944200F01E816368E26823F00303C2
:1017D0002344A168CA6091605A6842F00102304611
:1017E0005A60083400F094FA204605B0BDE8F08F46
:1017F00035F0070500F18B80A94200F2888000F0E7
:1018000081FAB5F5FC7FC0F06E816B0A00F0838031
:10181000042B00F21D81AB0903F1390003F1380CF0
:10182000C3009D4F3B44A3F108015C68A14206D16F
:101830000CE0002A80F2E380E468A14206D06368ED
:1018400023F003035A1B0F2AF3DD6046DFF85CE246
:101850003C69744500F0C080636823F00308A8EB7E
:1018600005030F2B00F34381002BC7E904EE80F240
:101870002E81B8F5007FD7F804C080F0C9804FEA08
:10188000D80101314FEA5818012303FA08F357F839
:101890003120A2604CEA030C07EBC103083BE36074
:1018A000C7F804C047F83140D46083104FF00108F6
:1018B00008FA03F8E04534D818EA0C0F08D120F0F4
:1018C00003004FEA480818EA0C0F00F10400F8D0B2
:1018D00007EBC00A52468146D1680EE04B6823F000
:1018E0000303A3EB050CBCF10F0F0C46C96800F312
:1018F000BB80BCF1000F80F2DD808A42EED109F19D
:10190000010919F0030F02F10802E5D11AE10C23D5
:101910003360002468E74FF4007340204FF03F0C21
:101920007FE7BC68636823F00309A94503D3A9EBEB
:1019300005030F2B53DC594BDFF874B11B680820EB
:1019400003F1100800F022FBDBF8003001900133B6
:10195000A84404EB090205D008F1FF388044434253
:1019600003EA080841463046029200F0FDFAB0F161
:10197000FF3F029A824600F0D780824200F2D28076
:10198000474B01991868404401F1FF3118608446C3
:1019900040F0FB801AEA010F40F0F780D7F808A06A
:1019A000C84448F00102CAF804203E4B196881423D
:1019B00038BF18603C4B1968814238BF18605446E4
:1019C00022F00308A845A8EB050301D30F2B06DC82
:1019D000304600F09DF99CE7D7F804C065E762192E
:1019E00043F0010345F0010565603046BA6053607D
:1019F00000F08EF90834204605B0BDE8F08FE268AB
:101A00002344E6E6DC68A3427FF4DEAE02301DE745
:101A1000B8F5206F4FEA58227DD3142A00F21981BD
:101A200002F15C03DB005B32F918FB58083999427C
:101A300003D1F3E09B68994204D05A6822F0030274
:101A40004245F7D8D968C4E902318C60DC602CE7E4
:101A5000142B6CD9542B00F205812B0B03F16F0072
:101A600003F16E0CC300DCE63046A668621945F04F
:101A700001056560F1608E604CF00101C7E9042248
:101A8000C2F808E0C2F80CE0516044F803C000F06E
:101A90003FF90834A8E600BF40010020740A002086
:101AA000440A0020700A00206C0A0020480100202F
:101AB00034010020234430465A6842F001025A6043
:101AC00054F8083FD9608B6000F022F98CE6A044FE
:101AD0003046D8F8043043F00103C8F80430083425
:101AE00000F016F980E6E80805F1080364E66219DB
:101AF00043F0010145F0010565603046C7E9042265
:101B0000C2F808E0C2F80CE0516044F8083000F078
:101B1000FFF8083468E64FEA981202F13903DB0057
:101B2000383281E7BC4228D0BC68626848E703F1DC
:101B30005C0003F15B0CC30073E65AF808395345A7
:101B400040F0DB8010F0030F00F1FF30F5D17B682F
:101B500023EA08037B604FEA480898453FF6E1AE68
:101B6000B8F1000F04D1DCE64FEA480809F1040996
:101B700018EA030FF8D04846AAE6614B01991868A5
:101B800008EB000C0139C3F800C0DBF8000001309D
:101B90001BBFAAEB02026244CBF800A01A601AF045
:101BA0000702CDE9022343D0C2F10802019B92440F
:101BB000D044134408EA01001A1A02EA010B5946FC
:101BC000304600F0D1F9421C039B79D0A0EB0A000B
:101BD00000EB0B081868C7F808A048F00102584449
:101BE000BC42CAF8042018603FF4DFAEB9F10F0F11
:101BF00042D96168A9F10C0222F0070201F001014B
:101C000011436160A1184FF0050C0F2AC1F804C000
:101C1000C1F808C049D8DAF80420C6E692104FF09F
:101C2000010808FA02F24CEA020CC7F804C00AE7FD
:101C3000019B0AEB08020A409A1A02EA010B594674
:101C4000304600F091F9431C039BBFD1DDF808B08A
:101C5000C0E7542A14D84FEA183202F16F03DB00B0
:101C60006E32E1E6B3F5AA7F14D8EB0B03F17800EE
:101C700003F1770CC300D4E50123CAF80430A7E6CA
:101C8000B2F5AA7F24D84FEAD83202F17803DB00FC
:101C90007732C9E640F25452934224D8AB0C03F198
:101CA0007D0003F17C0CC300BBE5304604F1080164
:101CB0000193FFF773FC019BD7F808A01868AAE707
:101CC000029A083A9044A8EB0A084FF0000B81E70B
:101CD00040F254539A420CD84FEA984202F17D03E5
:101CE000DB007C32A0E64FF47E737F204FF07E0C49
:101CF00097E54FF47E737E2296E67B682BE700BF64
:101D0000440A00200148FFF79FBB00BFA408002041
:101D10000148FFF79BBB00BFA408002070B5002955
:101D20003FD005460C4610B1436B002B3CD0636E90
:101D3000B4F90C20DE0732D4900538D52146284668
:101D400000F04CF8E36A064633B1E169284698474B
:101D50000028B8BF4FF0FF36A3891A0639D4216B8B
:101D600041B104F14003994202D02846FFF716FC26
:101D700000232363616C21B12846FFF70FFC002389
:101D80006364FFF703FA636E0022DB07A2811CD5B0
:101D9000A06DFFF757FBFFF7FFF9304670BD002A33
:101DA000CCD10026304670BDFFF7D2F9BFE7A06D59
:101DB000FFF74AFBB4F90C30002BBFD1636ED90793
:101DC000EFD4A06DFFF742FBEBE7A06DFFF73EFB02
:101DD000DEE721692846FFF7E1FBC0E7B1F90C20F7
:101DE0002DE9F0410C46110780464BD4616842F45E
:101DF00000630029A38160DDA56A002D3FD000218A
:101E000012F48052D8F80060C8F80010E16961D17E
:101E100001234046A847431C02466BD0B4F90C305E
:101E2000A56AE1695F0705D56368D21A236B0BB118
:101E3000E36BD21A00234046A847451C4CD1D8F882
:101E400000101D293DD8324AB4F90C300A4112F075
:101E5000010238D162602269226023F40062A2810B
:101E6000DA0452D4216BC8F8006041B104F1400398
:101E7000994202D04046FFF791FB002323630020E4
:101E8000BDE8F0812669002EF9D02568266091070B
:101E90000CBF63690023AD1BA3600BE02B463246E9
:101EA000E169676A4046B847B0F1000CA5EB0C0544
:101EB000664406DD002DF1DCE1E7E16B00299BDCE7
:101EC000DDE7B4F90C3043F04003A3814FF0FF305D
:101ED000BDE8F081226DA5E7B4F90C3022692260DB
:101EE00023F40062A281DB044FF000026260B9D5E6
:101EF0002065B7E7D8F80030002B8FD01D2B01D01C
:101F0000162BDED1C8F80060B9E70029AAD1EFE7A7
:101F1000FEFFBFDF38B50C46054608B1436B03B37F
:101F2000B4F90C0088B1636EDB0701D481050FD5CD
:101F300028462146FFF752FF636EDA07054602D4B2
:101F4000A3899B0508D5284638BD0546284638BDD7
:101F5000A06DFFF779FAEBE7A06DFFF777FA284657
:101F600038BDFFF7F5F8DBE738B5074D002204462A
:101F700008462A6004F0F0FC431C00D038BD2B68F2
:101F8000002BFBD0236038BDA0080020082802D118
:101F90004FF48050704708B500F006F81623036030
:101FA0004FF0FF3008BD00BF014B1868704700BFFD
:101FB0000C00002080B483B000AF7860064A7B68D4
:101FC00043F0BF6343F40033D36000BF0C37BD461A
:101FD0005DF8047B704700BF00ED00E080B485B081
:101FE00000AF78600023FB730023BB730F237B7368
:101FF0007B68DB78002B39D0274BDB68DB431B0A7F
:10200000DBB203F00703FB73FB7BC3F10403BB7379
:102010007A7BFB7B42FA03F37B737B685B781A461F
:10202000BB7B02FA03F3FB737B689A787B7B1340DC
:10203000DAB2FB7B1343FB73FB7B1B01FB73174A79
:102040007B681B781344FA7B83F800237B681B783A
:1020500003F01F0311497A6812785209D2B2104670
:10206000012202FA03F341F820300FE07B681B786D
:1020700003F01F0309497A6812785209D2B2104658
:1020800001229A4000F1200341F8232000BF1437B9
:10209000BD465DF8047B704700ED00E000E100E024
:1020A00080B487B000AF7860396000237B61002383
:1020B0003B610023FB6000237B6176E001227B69AA
:1020C00002FA03F33B613B681B683A691340FB600B
:1020D000FA683B699A4265D17B681A687B695B0044
:1020E000032101FA03F3DB431A407B681A607B6823
:1020F0001A683B681B7919467B695B0001FA03F398
:102100001A437B681A603B681B79012B03D03B683C
:102110001B79022B2ED17B689A687B695B000321B7
:1021200001FA03F3DB431A407B689A607B689A6884
:102130003B685B7919467B695B0001FA03F31A433C
:102140007B689A607B685A687B699BB21946012359
:102150008B40DB431A407B685A607B685B683A6857
:10216000927911467A6992B201FA02F292B21A4356
:102170007B685A607B68DA687B699BB25B000321ED
:1021800001FA03F3DB431A407B68DA607B68DA68A4
:102190003B68DB7919467B695B0001FA03F31A435C
:1021A0007B68DA607B6901337B617B690F2B85D9A2
:1021B00000BF00BF1C37BD465DF8047B70470000C0
:1021C00080B483B000AF78600B46FB70FB78002BC7
:1021D00006D00A4B1A6B09497B6813430B6306E070
:1021E000064B1A6B7B68DB43044913400B6300BF4B
:1021F0000C37BD465DF8047B704700BF00380240D5
:1022000080B483B000AF78600B46FB70FB78002B86
:1022100006D00A4B1A6C09497B6813430B6406E02D
:10222000064B1A6C7B68DB43044913400B6400BF08
:102230000C37BD465DF8047B704700BF0038024094
:1022400080B485B000AF786039600023FB817B6883
:102250001B88FB817B68294A934213D07B68284AFC
:1022600093420FD07B68B3F1804F0BD07B68254A37
:10227000934207D07B68244A934203D07B68234A69
:10228000934208D1FB8923F07003FB813B685A8895
:10229000FB891343FB817B681D4A93420CD07B680A
:1022A0001C4A934208D0FB8923F44073FB813B68AE
:1022B0001A89FB891343FB817B68FA891A803B6882
:1022C0005A687B68DA623B681A887B681A857B6883
:1022D0000A4A934203D07B68094A934204D13B687F
:1022E0009B7A1A467B681A867B6801229A8200BF15
:1022F0001437BD465DF8047B704700BF0000014005
:10230000000401400004004000080040000C0040B0
:10231000001000400014004080B483B000AF78602B
:102320000B46FB70FB78002B08D07B681B889BB2A8
:1023300043F001039AB27B681A8007E07B681B8830
:102340009BB223F001039AB27B681A8000BF0C375E
:10235000BD465DF8047B704780B485B000AF7860FF
:10236000396000237B810023FB810023BB817B68D4
:102370001B8C9BB223F001039AB27B681A847B68A2
:102380001B8CFB817B689B88BB817B681B8B7B8163
:102390007B8923F070037B817B8923F003037B819E
:1023A0003B681A887B8913437B81FB8923F00203F6
:1023B000FB813B689A89FB891343FB813B685A8800
:1023C000FB891343FB817B681E4A934203D07B68E1
:1023D0001D4A934223D1FB8923F00803FB813B680C
:1023E000DA89FB891343FB81FB8923F00403FB811A
:1023F0003B689A88FB891343FB81BB8923F4807374
:10240000BB81BB8923F40073BB813B681A8ABB89FB
:102410001343BB813B685A8ABB891343BB817B68EA
:10242000BA899A807B687A891A833B689A687B6844
:102430005A637B68FA891A8400BF1437BD465DF879
:10244000047B7047000001400004014080B485B067
:1024500000AF78600B467B800023FB817B681B8B81
:10246000FB81FB8923F00803FB81FA897B881343F6
:10247000FB817B68FA891A8300BF1437BD465DF87B
:10248000047B704780B483B000AF78607B685B6B7F
:1024900018460C37BD465DF8047B704780B483B0A6
:1024A00000AF78600B467B8013467B707B78002BF7
:1024B00008D07B689B899AB27B8813439AB27B6869
:1024C0009A8109E07B689B899AB27B88DB439BB247
:1024D00013409AB27B689A8100BF0C37BD465DF805
:1024E000047B704780B485B000AF78600B467B807A
:1024F0000023FB730023BB8100237B817B681B8A45
:102500009AB27B881340BB817B689B899AB27B8897
:1025100013407B81BB89002B05D07B89002B02D027
:102520000123FB7301E00023FB73FB7B1846143788
:10253000BD465DF8047B704780B483B000AF78601F
:102540000B467B807B88DB439AB27B681A8200BF94
:102550000C37BD465DF8047B704780B485B000AF92
:1025600078600B467B800023FB737B681B889AB2E4
:102570007B8813409BB2002B02D00123FB7301E048
:102580000023FB73FB7B18461437BD465DF8047BC4
:102590007047000000000000B0B594B000AF786153
:1025A0003961FA60BB6087ED000B7B69D3E90401F8
:1025B0004FF00002C54BFEF76BF802460B46104683
:1025C00019467B69D3E90423FEF762F802460B46FD
:1025D00014461D467B69D3E902014FF00002BB4B54
:1025E000FEF756F802460B46104619467B69D3E9BA
:1025F0000223FEF74DF802460B4620462946FDF71A
:1026000091FE02460B4614461D46FB68D3E90001C5
:102610004FF00002AE4BFEF73BF802460B46104669
:1026200019467B69D3E90423FEF732F802460B46CC
:1026300020462946FDF776FE02460B4614461D4607
:10264000FB68D3E902014FF00002A14BFEF720F82E
:1026500002460B46104619467B69D3E90223FEF772
:1026600017F802460B4620462946FDF759FE02465A
:102670000B46C7E906237B69D3E906014FF0000248
:10268000924BFEF705F802460B46104619467B6949
:10269000D3E90623FDF7FCFF02460B4614461D4610
:1026A0007B69D3E900014FF00002884BFDF7F0FF92
:1026B00002460B46104619467B69D3E90023FDF715
:1026C000E7FF02460B46104619467B69D3E9022311
:1026D000FDF7DEFF02460B4620462946FDF722FEA7
:1026E00002460B4614461D467B69D3E904014FF0B0
:1026F0000002784BFDF7CCFF02460B461046194608
:102700007B69D3E90423FDF7C3FF02460B4610465D
:1027100019467B69D3E90223FDF7BAFF02460B464F
:1027200020462946FDF7FEFD02460B4614461D468F
:102730007B69D3E906014FF00002664BFDF7A8FF65
:1027400002460B46104619467B69D3E90623FDF77E
:102750009FFF02460B4620462946FDF7E3FD024651
:102760000B4614461D46FB68D3E900014FF00002FA
:10277000574BFDF78DFF02460B46104619467B6905
:10278000D3E90623FDF784FF02460B46204629467F
:10279000FDF7C6FD02460B4614461D46FB68D3E90D
:1027A00002014FF000024A4BFDF772FF02460B4652
:1027B000104619467B69D3E90023FDF769FF0246FD
:1027C0000B4620462946FDF7ABFD02460B46144654
:1027D0001D46FB68D3E904014FF000023B4BFDF7B7
:1027E00057FF02460B46104619467B69D3E9022380
:1027F000FDF74EFF02460B4620462946FDF792FDA7
:1028000002460B4614461D467B69D3E902014FF090
:1028100000022E4BFDF73CFF02460B4620462946A0
:10282000FDF77EFD02460B46C7E908237B69D3E925
:1028300000014FF00002254BFDF72AFF02460B4630
:10284000104619467B69D3E90023FDF721FF0246B4
:102850000B46104619467B69D3E90423FDF718FFA0
:1028600002460B4614461D46FB68D3E900014FF0B3
:102870000002174BFDF70CFF02460B4610461946A7
:102880007B69D3E90023FDF703FF02460B46204690
:102890002946FDF747FD02460B4614461D467B6957
:1028A000D3E906014FF00002084BFDF7F1FE0246A6
:1028B0000B46104619467B69D3E90623FDF7E8FE6F
:1028C00002460B461046194606E000BF00002040B5
:1028D00000001040000030407B69D3E90423FDF77D
:1028E000D7FE02460B4620462946FDF71BFD024651
:1028F0000B4614461D46FB68D3E902014FF0000267
:10290000C74BFDF7C5FE02460B46104619467B69CC
:10291000D3E90623FDF7BCFE02460B4620462946B6
:10292000FDF7FEFC02460B4614461D467B69D3E9C3
:1029300004014FF00002BB4BFDF7AAFE02460B4616
:1029400020462946FDF7ECFC02460B4614461D4680
:102950007B69D3E902014FF00002B34BFDF798FE0B
:1029600002460B46104619467B69D3E90223FDF760
:102970008FFE02460B46104619467B69D3E90423B5
:10298000FDF786FE02460B4620462946FDF7CAFCA7
:1029900002460B4614461D467B69D3E904014FF0FD
:1029A0000002A14BFDF774FE02460B461046194685
:1029B0007B69D3E90423FDF76BFE02460B46104604
:1029C00019467B69D3E90423FDF762FE02460B46F4
:1029D00020462946FDF7A6FC02460B4614461D4636
:1029E000FB68D3E904014FF000028E4BFDF750FE67
:1029F00002460B46104619467B69D3E90423FDF7CE
:102A000047FE02460B4620462946FDF78BFC024650
:102A10000B46C7E90A237B69D3E902014FF00002A4
:102A2000804BFDF735FE02460B46104619467B6982
:102A3000D3E90223FDF72CFE02460B461046194649
:102A40007B69D3E90623FDF723FE02460B461446B5
:102A50001D467B69D3E904014FF00002714BFDF77D
:102A600017FE02460B46104619467B69D3E904233C
:102A7000FDF70EFE02460B46104619467B69D3E968
:102A80000623FDF705FE02460B4620462946FDF7C4
:102A900049FC02460B4614461D46FB68D3E900017B
:102AA0004FF000025E4BFDF7F3FD02460B46104669
:102AB00019467B69D3E90223FDF7EAFD02460B467E
:102AC00020462946FDF72CFC02460B4614461D46BF
:102AD000FB68D3E902014FF00002514BFDF7D8FD2E
:102AE00002460B46104619467B69D3E90423FDF7DD
:102AF000CFFD02460B4620462946FDF711FC024653
:102B00000B46C7E90C2397ED064B97ED085B97ED55
:102B10000A6B97ED0C7BB0EE440AF0EE640AB0EE5F
:102B2000451AF0EE651AB0EE462AF0EE662AB0EECF
:102B3000473AF0EE673A01F0C3F887ED120B34A381
:102B4000D3E90023C7E9102333A3D3E90023C7E95E
:102B50000E23D7E90023D7E90E01FDF799FD0246C0
:102B60000B4614461D46BB6893ED005B93ED026B6C
:102B700093ED047BB0EE450AF0EE650AB0EE461A1E
:102B8000F0EE661AB0EE472AF0EE672A01F048F838
:102B900053EC102B20462946FDF77AFD02460B46E2
:102BA00010461946D7E91023FDF7BCFB02460B4639
:102BB0001E49C1E900237B69D3E90045D7E9060135
:102BC0001A4BD3E90023FDF763FD02460B4610467E
:102BD0001946D7E91223FDF785FE02460B4620462B
:102BE0002946FDF79DFB02460B463969C1E90023E2
:102BF0007B69D3E90245D7E908010C4BD3E90023EF
:102C0000FDF746FD02460B4612E000BFAFF3008021
:102C10009A9999999999A93F000000000070A740DE
:102C2000000010400000204000003040780A0020E2
:102C300010461946D7E91223FDF754FE02460B460B
:102C400020462946FDF76CFB02460B463969C1E96F
:102C500002237B69D3E90445D7E90A011D4BD3E977
:102C60000023FDF715FD02460B4610461946D7E92D
:102C70001223FDF737FE02460B4620462946FDF794
:102C80004FFB02460B463969C1E904237B69D3E94E
:102C90000645D7E90C010F4BD3E90023FDF7F8FCFB
:102CA00002460B4610461946D7E91223FDF71AFED5
:102CB00002460B4620462946FDF732FB02460B46EC
:102CC0003969C1E90623386901F060F800BF50375F
:102CD000BD46B0BD780A00202DE9F04FADF54D7D21
:102CE00002AF07F54A74A4F53374206007F54A7003
:102CF000A0F53470016007F54A71A1F535710A60DD
:102D000007F54A72A2F53672136007F1480383EDA6
:102D1000000B4FF000024FF00003C7E9A82307F5AE
:102D20004A73A3F535731B68D3E90023904683F0FB
:102D30000049C7E9AA8907F54A73A3F535731B68EB
:102D4000D3E90223924683F0004BC7E9ACAB07F509
:102D50004A73A3F535731B68D3E90423154683F042
:102D60000046C7E9AE5607F54A73A3F535731B68ED
:102D7000D3E90023C7E9B0234FF000024FF000036E
:102D8000C7E9B22307F54A73A3F535731B68D3E986
:102D90000423C7E9B42307F54A73A3F535731B6809
:102DA000D3E902233A6483F000437B6497ED107B00
:102DB00087EDB67B07F54A73A3F535731B68D3E936
:102DC0000223C7E9B82307F54A73A3F535731B68D7
:102DD000D3E90423BA6383F00043FB6397ED0E7BD2
:102DE00087EDBA7B4FF000024FF00003C7E9BC2328
:102DF00007F54A73A3F535731B68D3E90023C7E9C8
:102E0000BE2307F54A73A3F535731B68D3E9042382
:102E1000C7E9C02307F54A73A3F535731B68D3E9E7
:102E20000223C7E9C22307F54A73A3F535731B686C
:102E3000D3E900233A6383F000437B6397ED0C7B77
:102E400087EDC47B4FF000024FF00003C7E9C623B3
:102E500007F54A73A3F584714FF000024FF00003A9
:102E6000C1E9002307F54A73A3F536731B68D3E95C
:102E70000023BA6283F00043FB6207F54A73A3F5AF
:102E8000847397ED0A7B83ED027B07F54A73A3F504
:102E900036731B68D3E902233A6283F000437B62F6
:102EA00007F54A73A3F5847397ED087B83ED047BE4
:102EB00007F54A73A3F536731B68D3E90423BA6197
:102EC00083F00043FB6107F54A73A3F5847397ED24
:102ED000067B83ED067B07F54A73A3F536731B6803
:102EE000D3E9002307F54A71A1F58471C1E90823EC
:102EF00007F54A73A3F584714FF000024FF0000309
:102F0000C1E90A2307F54A73A3F536731B68D3E9B1
:102F1000042307F54A71A1F58471C1E90C2307F573
:102F20004A73A3F536731B68D3E902233A6183F031
:102F300000437B6107F54A73A3F5847397ED047B27
:102F400083ED0E7B07F54A73A3F536731B68D3E94F
:102F5000022307F54A71A1F58471C1E9102307F531
:102F60004A73A3F536731B68D3E90423BA6083F070
:102F70000043FB6007F54A73A3F5847397ED027B6A
:102F800083ED127B07F54A73A3F584714FF00002BD
:102F90004FF00003C1E9142307F54A73A3F5367314
:102FA0001B68D3E9002307F54A71A1F58471C1E9D3
:102FB000162307F54A73A3F536731B68D3E9042378
:102FC00007F54A71A1F58471C1E9182307F54A7321
:102FD000A3F536731B68D3E9022307F54A71A1F5FF
:102FE0008471C1E91A2307F54A73A3F536731B6888
:102FF000D3E900233A6083F000437B6007F54A730E
:10300000A3F5847397ED007B83ED1C7B07F54A7372
:10301000A3F584714FF000024FF00003C1E91E23B5
:10302000002387F827334AE0002387F826333DE062
:1030300097F8272397F8263392001344DB0003F513
:10304000387307F148021344883BD3E9000197F82D
:10305000274397F8263307F54A72A2F58472A40035
:103060002344DB001344D3E90023FDF75BF9024658
:103070000B461046194697F8275397F826434FF00A
:1030800000024FF08043FDF72DFC02460B4607F58A
:103090004A71A1F5C470A9002144C9000144C1E9E5
:1030A000002397F82633013387F8263397F8263321
:1030B000032BBDD997F82733013387F8273397F8C7
:1030C0002733032BB0D907F54A73A3F533731B6875
:1030D000D3E9002307F54A71A1F5D471C1E90023B2
:1030E00007F54A73A3F533731B68D3E9022307F589
:1030F0004A71A1F5D471C1E9022307F54A73A3F51A
:1031000033731B68D3E9042307F54A71A1F5D47121
:10311000C1E9042307F54A73A3F533731B68D3E9A8
:10312000062307F54A71A1F5D471C1E9062307F515
:10313000C07207F5287107F1C00001230193042331
:103140000093042301F017F807F1C00107F5A07000
:10315000012304229FEDA00B00F0CBFF07F14803F1
:1031600019464FF000024FF08043D1E90001FDF70E
:10317000B9FB02460B4643EC172B07F5A07107F18C
:10318000C00001230422B0EE470AF0EE670A00F007
:10319000B0FF07F1C00207F5C07107F1A0000123DD
:1031A0000093042300F05CFF07F1A00207F5D07143
:1031B00007F1C0000123019304230093042300F0CE
:1031C000DAFF07F1C00107F59070012304229FED9B
:1031D000820B00F08EFF07F1480319464FF0000202
:1031E0004FF08043D1E90001FDF77CFB02460B461E
:1031F00043EC172B07F5907107F1C000012304225F
:10320000B0EE470AF0EE670A00F073FF07F1C00264
:1032100007F5C07107F1A00001230093042300F01B
:103220001FFF07F1A00207F5D07107F1C0000123CD
:10323000019304230093042300F09DFF07F1C001D4
:1032400007F58070012304229FED630B00F051FF0E
:1032500007F148031C4607F5807107F1C000012300
:10326000042294ED000B00F044FF07F1C00207F5C3
:10327000C07107F1A00001230093042300F0F0FEC9
:1032800007F1A00207F5087107F1C00001230193BF
:1032900004230093042300F06EFF07F1C00107F13F
:1032A000E000012304229FED4C0B00F022FF07F504
:1032B000907107F1C000012304229FED490B00F03B
:1032C00018FF07F5807107F1A000012304229FED8C
:1032D000440B00F00EFF07F1A00207F1C00107F157
:1032E000800001230093042300F0BAFE07F1E002FE
:1032F00007F5A07107F1600001230093042300F09B
:10330000AFFE07F1600207F1800107F1C000012361
:103310000093042300F0A4FE07F1480319464FF080
:103320000002314BD1E90001FDF7DCFA02460B4601
:1033300043EC172B07F1C00107F1A0000123042281
:10334000B0EE470AF0EE670A00F0D3FE07F1A002E4
:1033500007F5C07107F5B07001230093042300F056
:103360007FFE07F54A73A3F5E473D3E9002307F55D
:103370004A71A1F534710968C1E9002307F54A7360
:10338000A3F5E473D3E9022307F54A71A1F534717B
:103390000968C1E9022307F54A73A3F5E473D3E989
:1033A000042307F54A71A1F534710968C1E90423C2
:1033B00007F54A73A3F5E473D3E9062307F54A71C9
:1033C000A1F534710968C1E9062300BF07F54B7701
:1033D000BD46BDE8F08F00BF000000000000E03FE8
:1033E0000000000000000040000018400000000045
:1033F000B0B58EB000AF78613961FA6087ED000B2F
:103400005FA3D3E90023C7E90C23D7E90023D7E959
:103410000C01FDF73DF902460B4610461946564B86
:10342000D3E90023FCF77EFF02460B46C7E90A23D7
:10343000D7E90023D7E90C01FDF72AF902460B462C
:1034400010461946D7E90A23FDF74CFA02460B4607
:103450004FF000004949FCF763FF02460B46C7E9FD
:103460000823454BD3E90001D7E90A23FDF73AFACF
:1034700002460B464FF000004049FCF751FF024660
:103480000B46C7E90623FB68D3E90001D7E9082307
:10349000FDF7FEF802460B4614461D463B69D3E98C
:1034A0000001D7E90623FDF7F3F802460B46204654
:1034B0002946FCF737FF02460B467969C1E900232C
:1034C000FB68D3E90201D7E90823FDF7E1F80246DA
:1034D0000B4614461D463B69D3E90201D7E9062392
:1034E000FDF7D6F802460B4620462946FCF71AFFA0
:1034F00002460B467969C1E90223FB68D3E904015E
:10350000D7E90823FDF7C4F802460B4614461D46CA
:103510003B69D3E90401D7E90623FDF7B9F8024670
:103520000B4620462946FCF7FDFE02460B4679690C
:10353000C1E90423FB68D3E90601D7E90823FDF7B5
:10354000A7F802460B4614461D463B69D3E906011F
:10355000D7E90623FDF79CF802460B46204629468C
:10356000FCF7E0FE02460B467969C1E9062300BF7D
:103570003837BD46B0BD00BF780A00200000F03FDC
:10358000000000000088B34080B400AF384B1B6BD4
:10359000374A43F002031363354B5B6C344A43F004
:1035A00010035364334B1B68324A23F440531360B7
:1035B000304B1B682F4A23F4404313602D4B1B688C
:1035C0002C4A43F4005313602A4B1B68294A43F4E6
:1035D00000431360274B5B68264A43F04003536067
:1035E000244B5B68234A43F080035360214B9B6864
:1035F000204A23F4405393601E4B9B681D4A23F4DA
:10360000404393601B4B9B681A4A43F400539360FA
:10361000184B9B68174A43F400439360154BDB68D3
:10362000144A23F44053D360124BDB68114A23F44D
:103630004043D3600F4B1B6A0E4A23F06063136252
:103640000C4B1B6A0B4A23F060431362094B1B6A45
:10365000084A43F0E0631362064B1B6A054A43F0D5
:10366000E043136200BFBD465DF8047B704700BFB6
:10367000003802400004024080B400AF1C4B9B891C
:103680009BB21B4A43F400539BB29381184B42F206
:103690002E221A81164B9B899BB2154A23F4805324
:1036A0009BB29381124B9B899BB2114A23F4806396
:1036B0009BB293810E4B9B899BB20D4A43F0200332
:1036C0009BB293810A4B9B899BB2094A43F0080342
:1036D0009BB29381064B9B899BB2054A43F004033E
:1036E0009BB2938100BFBD465DF8047B704700BF6D
:1036F0000010014080B582B000AF0346FB71084B5B
:10370000FA7992B29A8000BF80210548FEF725FF22
:103710000346002BF8D000BF00BF0837BD4680BD70
:103720000010014080B500AFFFF72EFFFFF7A4FFA8
:1037300000BF80BD80B500AF00F004F800F026FAAD
:1037400000BF80BD80B500AF01226B21D02001F009
:10375000BBF809221921D02001F0B6F806221A215F
:10376000D02001F0B1F818221B21D02001F0ACF8D4
:1037700018221C21D02001F0A7F802223721D020E6
:1037800001F0A2F800226A21D02001F09DF800BFCC
:1037900080BD0000B0B586B000AF78604FF08343C5
:1037A0007B6107F10C0206233B21D02001F022F8B7
:1037B0003B7B1B029BB27A7B13449BB21BB2184625
:1037C000FCF7FCFE04460D467869FCF709FF02464B
:1037D0000B4620462946FCF75BFF02460B46104687
:1037E00019464FF000024C4BFDF77CF802460B46A1
:1037F0007968C1E90023BB7B1B029BB2FA7B1344AF
:103800009BB21BB21846FCF7D9FE04460D467869F8
:10381000FCF7E6FE02460B4620462946FCF738FF39
:1038200002460B46104619464FF000023A4BFDF790
:1038300059F802460B467968C1E902233B7C1B021A
:103840009BB27A7C13449BB21BB21846FCF7B6FEBF
:1038500004460D467869FCF7C3FE02460B46204637
:103860002946FCF715FF02460B46104619464FF055
:103870000002294BFDF736F802460B467968C1E98C
:103880000423264B1B78002B42D07B68D3E9000130
:10389000234BD3E90023FCF743FD02460B461046B9
:1038A0001946204BD3E90023FCF7F2FE02460B46F3
:1038B0007968C1E900237B68D3E90201184BD3E999
:1038C0000223FCF72DFD02460B4610461946154B08
:1038D000D3E90223FCF7DCFE02460B467968C1E916
:1038E00002237B68D3E904010D4BD3E90423FCF7E1
:1038F00017FD02460B46104619460A4BD3E904232E
:10390000FCF7C6FE02460B467968C1E9042300E0D5
:1039100000BF1837BD46B0BD0000E040780500206C
:103920004805002060050020B0B586B000AF786083
:10393000914B7B6107F10C0206234321D02000F05C
:1039400059FF3B7B1B029BB27A7B13449BB21BB299
:103950001846FCF733FE04460D467869FCF740FE36
:1039600002460B4620462946FCF792FE02460B46CD
:10397000104619464FF00002804BFCF7B3FF024699
:103980000B467968C1E90023BB7B1B029BB2FA7B23
:1039900013449BB21BB21846FCF710FE04460D46BA
:1039A0007869FCF71DFE02460B4620462946FCF7C7
:1039B0006FFE02460B46104619464FF000026F4B51
:1039C000FCF790FF02460B467968C1E902233B7C75
:1039D0001B029BB27A7C13449BB21BB21846FCF7C5
:1039E000EDFD04460D467869FCF7FAFD02460B46EC
:1039F00020462946FCF74CFE02460B461046194667
:103A00004FF000025D4BFCF76DFF02460B467968F4
:103A1000C1E904237B68D3E9000155A3D3E900235E
:103A2000FCF736FE02460B467968C1E900237B6845
:103A3000D3E902014EA3D3E90023FCF729FE024695
:103A40000B467968C1E902237B68D3E9040148A3E6
:103A5000D3E90023FCF71CFE02460B467968C1E956
:103A60000423474B1B78002B7ED07B68D3E90001F1
:103A7000444BD3E90023FCF753FC02460B4679681C
:103A8000C1E900237B68D3E902013E4BD3E902235D
:103A9000FCF746FC02460B467968C1E902237B68C5
:103AA000D3E90401374BD3E90423FCF739FC024680
:103AB0000B467968C1E904237B68D3E90001324BE6
:103AC000D3E90023FDF774F80346002B11D07B687F
:103AD000D3E900012C4BD3E90623FDF74BF803464D
:103AE000002B06D079684FF000024FF00003C1E9C7
:103AF00000237B68D3E90201234BD3E90223FDF7BE
:103B000057F80346002B11D07B68D3E902011E4B06
:103B1000D3E90823FDF72EF80346002B06D0796879
:103B20004FF000024FF00003C1E902237B68D3E9A4
:103B30000401154BD3E90423FDF73AF80346002BA3
:103B400013D07B68D3E904010F4BD3E90A23FDF7B7
:103B500011F80346002B08D079684FF000024FF0AF
:103B60000003C1E9042300E000BF1837BD46B0BD23
:103B7000399D52A246DF913F0000FA440000E04028
:103B800079050020800500209805002080B500AF51
:103B9000702200213C2000F0D5FE202201213C2093
:103BA00000F0D0FE002202213C2000F0CBFE00BF3E
:103BB00080BD000080B400AF174B1B6B164A43F06A
:103BC00001031363154B1B68144A23F4406313600D
:103BD000124B1B68114A43F4806313600F4B5B6800
:103BE0000E4A23F0200353600C4B9B680B4A23F4CE
:103BF00040639360094B9B68084A43F48063936079
:103C0000064BDB68054A23F44063D36000BFBD4622
:103C10005DF8047B704700BF00380240000002409E
:103C2000B0B586B000AFB0EE405AF0EE605AB0EEDC
:103C3000416AF0EE616AB0EE427AF0EE627A87EDA8
:103C4000005B87ED026B87ED047BD7E90001D7E9C4
:103C50000023FCF71DFD02460B4614461D46D7E91E
:103C60000201D7E90223FCF713FD02460B4620466A
:103C70002946FCF757FB02460B4614461D46D7E97A
:103C80000401D7E90423FCF703FD02460B46204656
:103C90002946FCF747FB02460B4643EC172BB0EED8
:103CA000470AF0EE670A07F01FFEB0EE407AF0EE2A
:103CB000607AB0EE470AF0EE670A1837BD46B0BD2D
:103CC000B0B588B000AFB0EE404AF0EE604AB0EE5A
:103CD000415AF0EE615AB0EE426AF0EE626AB0EE1E
:103CE000437AF0EE637A87ED004B87ED025B87ED58
:103CF000046B87ED067BD7E90001D7E90023FCF7C9
:103D0000C7FC02460B4614461D46D7E90201D7E917
:103D10000223FCF7BDFC02460B4620462946FCF771
:103D200001FB02460B4614461D46D7E90401D7E9BC
:103D30000423FCF7ADFC02460B4620462946FCF75F
:103D4000F1FA02460B4614461D46D7E90601D7E9AB
:103D50000623FCF79DFC02460B4620462946FCF74D
:103D6000E1FA02460B4643EC172BB0EE470AF0EEA1
:103D7000670A07F0B9FDB0EE407AF0EE607AB0EE77
:103D8000470AF0EE670A2037BD46B0BD80B584B063
:103D900000AF78607B6893ED004B93ED025B93ED91
:103DA000046B93ED067BB0EE440AF0EE640AB0EECD
:103DB000451AF0EE651AB0EE462AF0EE662AB0EE2D
:103DC000473AF0EE673AFFF77BFF87ED020B7B681F
:103DD000D3E90001D7E90223FCF784FD02460B4634
:103DE0007968C1E900237B68D3E90201D7E902239E
:103DF000FCF778FD02460B467968C1E902237B682F
:103E0000D3E90401D7E90223FCF76CFD02460B4617
:103E10007968C1E904237B68D3E90601D7E9022365
:103E2000FCF760FD02460B467968C1E9062300BF36
:103E30001037BD4680BD0000F0B583B000AF78609C
:103E400039607B68D3E900017B68D3E90223FCF782
:103E50001FFC02460B4614461D467B68D3E904014D
:103E60007B68D3E90623FCF713FC02460B46204689
:103E70002946FCF757FA02460B46104619460246F9
:103E80000B46FCF74FFA02460B4610461946FCF764
:103E900099FE06467B68D3E902017B68D3E90223D9
:103EA000FCF7F6FB02460B4614461D467B68D3E939
:103EB00004017B68D3E90423FCF7EAFB02460B46C6
:103EC00020462946FCF72EFA02460B4610461946B4
:103ED00002460B46FCF726FA02460B464FF000005E
:103EE0005E49FCF71DFA02460B4610461946FCF7E0
:103EF00069FE034600EE903A00EE106A07F054FDAA
:103F000010EE103A1846FCF76BFB02460B46396878
:103F1000C1E900237B68D3E900017B68D3E904236E
:103F2000FCF7B6FB02460B4614461D467B68D3E9F8
:103F300006017B68D3E90223FCF7AAFB02460B4685
:103F400020462946FCF7ECF902460B461046194676
:103F500002460B46FCF7E6F902460B4610461946A8
:103F6000FCF730FE034600EE103A07F0F1FC10EECD
:103F7000103A1846FCF734FB02460B463968C1E993
:103F800002237B68D3E900017B68D3E90623FCF7B1
:103F90007FFB02460B4614461D467B68D3E90201AF
:103FA0007B68D3E90423FCF773FB02460B462046EB
:103FB0002946FCF7B7F902460B4610461946024659
:103FC0000B46FCF7AFF902460B4610461946FCF7C4
:103FD000F9FD06467B68D3E904017B68D3E9042335
:103FE000FCF756FB02460B4614461D467B68D3E998
:103FF00006017B68D3E90623FCF74AFB02460B4621
:1040000020462946FCF78EF902460B461046194613
:1040100002460B46FCF786F902460B464FF00000BD
:104020000E49FCF77DF902460B4610461946FCF78F
:10403000C9FD034600EE903A00EE106A07F0B4FCAA
:1040400010EE103A1846FCF7CBFA02460B463968D8
:10405000C1E9042300BF0C37BD46F0BD0000F03FAE
:10406000B0B586B000AFF860B9607A60FB7000232D
:10407000FB7535E00023BB752AE0FB7D97F828200F
:1040800003FB02F2BB7D1344DB00BA681344D3E99F
:104090000001FB7D97F8282003FB02F2BB7D13444F
:1040A000DB007A681344D3E90023FC7D97F828509D
:1040B00004FB05F5BC7D2C44E400FD682C44FCF7B2
:1040C00031F902460B46C4E90023BB7D0133BB75C1
:1040D000BA7D97F828309A42CFD3FB7D0133FB7528
:1040E000FA7DFB789A42C5D300BF00BF1837BD46A2
:1040F000B0BD90B589B000AF7861396187ED020B32
:1041000011461A460B46FB711346BB710023FB7721
:1041100028E00023BB771EE0FB7FBA7903FB02F2A5
:10412000BB7F1344DB003A691344D3E90001FB7FF2
:10413000BA7903FB02F2BB7F1344DB007A69D4181F
:10414000D7E90223FCF7A4FA02460B46C4E9002390
:10415000BB7F0133BB77BA7FBB799A42DCD3FB7F4D
:104160000133FB77FA7FFB799A42D2D300BF00BFBD
:104170002437BD4690BDF0B587B000AFF860B96098
:104180007A60FB700023FB7566E00023BB755BE083
:10419000FB7D97F8342003FB02F2BB7D1344DB0068
:1041A000FA68D1184FF000024FF00003C1E9002374
:1041B00000237B7540E0FB7D97F8342003FB02F27F
:1041C000BB7D1344DB00FA681344D3E90045FB7D53
:1041D00097F8302003FB02F27B7D1344DB00BA68C2
:1041E0001344D3E900017B7D97F8342003FB02F2EE
:1041F000BB7D1344DB007A681344D3E90023FCF74A
:1042000047FA02460B4610461946FB7D97F83420C4
:1042100003FB02F2BB7D1344DB00FA68D6180246AA
:104220000B4620462946FCF77DF802460B46C6E9B8
:1042300000237B7D01337B757A7D97F830309A427D
:10424000B9D3BB7D0133BB75BA7D97F834309A4240
:104250009ED3FB7D0133FB75FA7DFB789A4294D3A4
:1042600000BF00BF1C37BD46F0BD000080B58AB05E
:1042700000AF01210420FDF7A3FF01210220FDF77B
:10428000BFFF40233B62022387F82530022387F8D3
:10429000243007F1200319461B48FDF701FF1A4B94
:1042A0001B6A194A43F00073136244F61F63BB6133
:1042B0005323BB820023BB830023FB8207F114033B
:1042C00019461248FDF7BCFF60233B8001237B8029
:1042D0000023BB813B4619460C48FEF73DF80821F8
:1042E0000A48FEF7B3F801210848FEF715F8074B16
:1042F0001B889BB2054A43F080039BB2138000BF2A
:104300002837BD4680BD00BF0008024000040040C1
:1043100080B400AF2A4B1B68294A23F44033136052
:10432000274B1B68264A23F440231360244B1B6849
:10433000234A43F400331360214B1B68204A43F4A3
:10434000002313601E4B5B681D4A43F48073536067
:104350001B4B5B681A4A43F400735360184B4FF4CD
:1043600040329A60164B4FF440229A60144BDB683F
:10437000134A23F44033D360114BDB68104A23F413
:104380004023D3600E4BDB680D4A43F48033D36087
:104390000B4BDB680A4A43F48023D360084B5B6A0B
:1043A000074A43F004035362054B5B6A044A43F037
:1043B0004003536200BFBD465DF8047B704700BFF9
:1043C0000004024080B400AF314B9B889BB2304A5E
:1043D00023F03F039BB293802D4B9B889BB22C4ACA
:1043E00043F004039BB29380294B1B8C9BB2284A59
:1043F00023F03F039BB21384254B1B8C9BB2244AB2
:1044000043F4805343F001039BB21384204B1B8879
:104410009BB21F4A43F001039BB213801C4B1B88C5
:104420009BB21B4A23F020039BB21380184B1B89BD
:104430009BB2174A23F07F039BB21381144B1B8955
:104440009BB2134A43F001039BB21381104B9B8B29
:104450009BB20F4AC3F30E039BB293830C4B9B8B0F
:104460009BB20B4A23F47F6323F00F039BB2938329
:10447000074B9B8B9BB2064A43F42B5343F0380304
:104480009BB2938300BFBD465DF8047B704700BFBD
:104490000054004080B483B000AF0346FB71FB7949
:1044A000012B08D10B4B1B889BB20A4A43F4807343
:1044B0009BB2138007E0074B1B889BB2054A23F48D
:1044C00080739BB2138000BF0C37BD465DF8047B40
:1044D000704700BF0054004080B483B000AF034673
:1044E000FB71FB79012B08D10B4B1B889BB20A4A4D
:1044F00043F400739BB2138007E0074B1B889BB209
:10450000054A23F400739BB2138000BF0C37BD46ED
:104510005DF8047B704700BF0054004080B483B056
:1045200000AF0346FB71FB79012B08D10B4B1B88B5
:104530009BB20A4A43F480639BB2138007E0074BA7
:104540001B889BB2054A23F480639BB2138000BF93
:104550000C37BD465DF8047B704700BF0054004037
:1045600080B483B000AF0346FB71054BFA7992B279
:104570001A8200BF0C37BD465DF8047B704700BF50
:104580000054004080B400AF044B1B8A9BB2DBB2E6
:104590001846BD465DF8047B704700BF00540040DC
:1045A00080B483B000AF03460A46FB711346BB716B
:1045B000BB79012B04D1FB7943F00103FB7103E0CC
:1045C000FB7923F00103FB71044BFA7992B21A8252
:1045D00000BF0C37BD465DF8047B704700540040B7
:1045E00080B483B000AF094B1B8BFB80FB885B085A
:1045F0009BB203F00103002B01D0002300E0012354
:1046000018460C37BD465DF8047B704700540040E7
:1046100080B400AF0F4B9B8A9BB203F00103012BC8
:1046200011D10C4B1B8B9BB203F00103012B0AD160
:10463000084B1B8B9BB25B089BB203F00103012B61
:1046400001D1012300E000231846BD465DF8047B3C
:10465000704700BF0054004080B483B000AF1F4BD0
:104660009B8AFB801D4B1B8BBB80FB885B089BB22E
:1046700003F00103002B2AD0FB88DB099BB203F077
:104680000103002B23D0BB8803F00103002B1ED0B5
:10469000BB885B089BB203F00103002B17D0BB88DB
:1046A0009B089BB203F00103002B10D0FB885B0A30
:1046B0009BB203F00103002B07D0084B9B8A9BB2EF
:1046C000064A43F480639BB29382012300E00023F7
:1046D00018460C37BD465DF8047B70470054004017
:1046E00080B400AF194B9B8A9BB29B089BB203F02E
:1046F0000103012B23D1154B9B8A9BB2DB099BB293
:1047000003F00103012B1AD1104B1B8B9BB203F05A
:104710000103012B13D10D4B1B8B9BB25B089BB28A
:1047200003F00103012B0AD1084B1B8B9BB29B08A2
:104730009BB203F00103012B01D1012300E0002310
:104740001846BD465DF8047B704700BF005400402A
:1047500080B400AF104B9B8A9BB25B089BB203F006
:104760000103012B11D10C4B1B8B9BB203F00103F6
:10477000012B0AD1084B1B8B9BB25B089BB203F049
:104780000103012B01D1012300E000231846BD469F
:104790005DF8047B704700BF0054004080B400AF58
:1047A000084B9B8A9BB29B099BB203F00103012B30
:1047B00001D1012300E000231846BD465DF8047BCB
:1047C000704700BF0054004080B400AF084B9B8A84
:1047D0009BB2DB099BB203F00103012B01D1012342
:1047E00000E000231846BD465DF8047B704700BF1B
:1047F0000054004090B585B000AF3A601A460346B9
:10480000FB710B46BB7113467B7100BFFFF7E8FEDF
:104810000346002BFAD00120FFF73CFE00BFFFF754
:10482000F7FE0346002BFAD0FB7900211846FFF76C
:10483000B7FE00BFFFF710FF0346002BFAD0BB798D
:104840001846FFF78DFE00BFFFF74AFF0346002B17
:10485000FAD00120FFF71EFE00BFFFF7D9FE034686
:10486000002BFAD0FB7901211846FFF799FE00BF13
:10487000FFF76EFF0346002BFAD00020FFF72CFE57
:104880000120FFF74BFE0023FB730FE000BFFFF793
:1048900085FF0346002BFAD0FB7B3A68D418FFF75C
:1048A00071FE03462370FB7B0133FB73FA7B7B793C
:1048B0009A42EBD30020FFF731FE0120FFF70CFEF8
:1048C00000BF1437BD4690BD80B582B000AF03462F
:1048D000FB710B46BB7113467B7100BFFFF780FE77
:1048E0000346002BFAD00120FFF7D4FD00BFFFF7ED
:1048F0008FFE0346002BFAD0FB7900211846FFF704
:104900004FFE00BFFFF7A8FE0346002BFAD0BB798D
:104910001846FFF725FE00BFFFF7E2FE0346002B17
:10492000FAD07B791846FFF71BFE00BFFFF7D8FED1
:104930000346002BFAD00120FFF7CEFD00BF083759
:10494000BD4680BD80B582B000AF0346FB710B460B
:10495000BB7113467B710120FFF7E0FD00BFFFF73D
:104960003FFE0346002BFAD00120FFF793FD00BF66
:10497000FFF74EFE0346002BFAD0FB7900211846C4
:10498000FFF70EFE00BFFFF767FE0346002BFAD0CD
:10499000BB791846FFF7E4FD00BFFFF715FF03469C
:1049A000002BFAD07B791846FFF7DAFD00BFFFF73E
:1049B00097FE0346002BFAD00120FFF78DFD002063
:1049C000FFF7ACFD00BF0837BD4680BD80B500AF26
:1049D000084B1B6B074A43F002031363054B1B6C28
:1049E000044A43F400131364FFF792FCFFF7EAFC58
:1049F00000BF80BD0038024080B582B000AF864B5A
:104A00005B6C854A43F001035364844B0022DA62F5
:104A1000824B1B889BB2814A23F010039BB2138008
:104A20007E4B1B8D9BB27D4A43F053039BB2138593
:104A30007A4BDB6A794A43F49C4343F01F03D36209
:104A4000764B9B8A9BB2754A43F002039BB29382DA
:104A5000724B1B889BB2714A43F080039BB2138058
:104A60006D4B1B6B6C4A43F0010313636C4B5B6A29
:104A70006B4A43F001035362694B1B68684A23F495
:104A800040331360664B1B68654A43F40033136080
:104A9000634B5B68624A23F480735360604B9B688E
:104AA0005F4A43F4003393605D4BDB685C4A23F458
:104AB0004033D360594B1B8B9BB2584A43F00103E0
:104AC0009BB21383554B1B8B9BB2544A23F00C03B0
:104AD0009BB21383514B1B8B9BB2504A23F0F003C4
:104AE0009BB213834D4B1B8C9BB24C4A43F001038A
:104AF0009BB21384494B1B8C9BB2484A23F00203A0
:104B00009BB21384454B1B8C9BB2444A23F0080391
:104B10009BB21384414B1B8B9BB2404A43F40073FE
:104B20009BB213833D4B1B8B9BB23C4A23F44063E7
:104B30009BB21383394B1B8B9BB2384AC3F30B03D5
:104B40009BB21383354B1B8C9BB2344A43F010034A
:104B50009BB21384314B1B8C9BB2304A43F0200331
:104B60009BB213842D4B1B8C9BB22C4A43F08003C9
:104B70009BB21384294B1B899BB2284A23F00A035A
:104B80009BB21381254B1B899BB2244A43F004033B
:104B90009BB21381214B1B899BB2204A23F07003E7
:104BA0009BB213811D4B1B899BB21C4A43F05003DF
:104BB0009BB21381194B1B899BB2184A43F08003A7
:104BC0009BB21381012202211448FDF767FC4FF4C8
:104BD000A060FDF7EFF91B233B710123FB7102235A
:104BE0007B710123BB713B1D1846FDF7F7F90B4B99
:104BF0009B899BB2094A43F002039BB29381074B06
:104C00001B889BB2054A43F001039BB2138000BF8F
:104C10000837BD4680BD00BF00380240000001409B
:104C20000000024080B400AF0A4BDB684FF47A7298
:104C300002FB03F3A3F57423A3F5C563064AA2FBA5
:104C400003239B0903F57A731846BD465DF8047B80
:104C5000704700BF840A0020D34D621080B582B037
:104C600000AF02211D48FDF73DFC0346012B2BD16F
:104C70001A48FDF707FC034601337B607B68B3F5F8
:104C8000805F02D9164B01221A60154B1B68012B5D
:104C900016D11248FDF7F6FB0146124B1B685A1C51
:104CA000104802604A1C104941F823200D4B1B6834
:104CB000082B05D90B4B00221A60094B00221A6001
:104CC00002210648FDF738FCFFF7ACFF0346074A10
:104CD000136000BF0837BD4680BD00BF0000014023
:104CE000B00A0020AC0A0020840A0020800A0020BC
:104CF00080B582B000AF7860FEF714FD164801F071
:104D0000CFFE164B1B8801339AB2144B1A80FFF763
:104D10005DFE134801F0C4FE104B1B8801339AB2AC
:104D20000E4B1A80FEF706FD0E4801F0B9FE0B4B44
:104D30001B8801339AB2094B1A80FFF75DFEFFF71B
:104D400095FA094801F0ACFEFF2001F025FA00BFFA
:104D50000837BD4680BD00BFD8C00008B46A002037
:104D6000F4C0000808C100081CC1000800000000D1
:104D7000B0B5CAB004AF07F58C73A3F58A73186099
:104D8000674BD3E90045664BD3E902236449D1E977
:104D90000401CDE90201CDE9002322462B466148FA
:104DA00001F01EFE4FF000025F4BC7E93C234FF0BD
:104DB00000024FF00003C7E93E234FF000024FF01E
:104DC0000003C7E940234FF000024FF00003C7E99A
:104DD00042234FF000024FF00003C7E91E234FF0BB
:104DE00000024FF00003C7E920234FF000024FF00C
:104DF0000003C7E922230023C7F8143101F05EFC49
:104E0000024607F58C73A3F588731A6007F16003F7
:104E10001846FEF789FD07F148031846FEF7BAFC6D
:104E200001F04CFC024607F58C73A3F588735A60B9
:104E300007F1780307F1480207F1900107F1F0004C
:104E40009FED350BFDF7A8FB07F190031846FEF721
:104E50009DFF01F033FC024607F58C73A3F58873C0
:104E6000DA6007F1600307F1780207F1B00107F19A
:104E7000F0009FED290BFDF72FFF07F1B003184657
:104E8000FEF784FF07F1780407F160050FCD0FC42A
:104E900095E8030084E8030001F010FC024607F5E2
:104EA0008C73A3F588739A6007F1B00207F1900143
:104EB00007F1D0039FED180B1846FEF799FA07F19A
:104EC000F00407F1D0050FCD0FC495E80F0084E87A
:104ED0000F0007F1300207F1F00311461846FEF704
:104EE000ABFFD7E90C45D7E90E23D7E91001CDE98F
:104EF0000201CDE9002322462B460C4801F070FD4B
:104F000001F0DCFB024607F58C73A3F588731A6188
:104F100000BF73E7AFF30080FCA9F1D24D62503FB0
:104F20008005002034C100080000F03F50C1000897
:104F300080B588B006AF78601D4800F06BF8FEF7CA
:104F400039FE00230493002303934FF4006302937C
:104F5000184B0193082300930823174A0021174890
:104F600001F0B4F8164A1749082001F0FBF940F6A1
:104F7000B83001F047FB00230493002303934FF460
:104F800000630293104B01930C2300930C230F4AF0
:104F900000210F4801F09AF80E4A0F490C2001F049
:104FA000E1F9FF2001F0F8F800BF0837BD4680BDE9
:104FB00040D10C00B42A0020B04A0020F14C000877
:104FC00098C10008ACC10008B44A0020B06A0020B3
:104FD000714D0008BCC10008CCC1000880B500AF0D
:104FE00000F052F90223074A0021074801F00EF8A9
:104FF000064A0749022001F0B5F900F0CDF9002377
:10500000184680BDB02A0020314F0008D8C10008E2
:10501000E8C1000880B483B000AF7860124B5A68D2
:105020007B68013B104913434B600F4B5A680E4B92
:105030009B680D4913438B600B4B1B680A4A43F076
:1050400004031360084B1B68074A43F00203136014
:10505000054B1B68044A43F00103136000BF0C3783
:10506000BD465DF8047B704710E000E080B483B07B
:1050700000AF124B3B604FF480737B6007E07B68AE
:10508000013B7B603B681A1D3A6000221A607B6816
:10509000002BF4D10A4B0B4A1A60094B1B6823F012
:1050A00007031A46064B1A60074B40221A6000BFDE
:1050B0000C37BD465DF8047B704700BFB86A00201E
:1050C000B86E0020B86E0020BC6E002080B400AF27
:1050D00000BFBD465DF8047B704780B483B000AF6D
:1050E000786000BF0C37BD465DF8047B704780B424
:1050F00083B000AF786000BF0C37BD465DF8047B1D
:10510000704780B400AF00BFBD465DF8047B7047B8
:1051100080B483B000AF786000BF0C37BD465DF847
:10512000047B704780B400AF00BFBD465DF8047BD0
:105130007047000080B487B000AFF860B9607A6053
:105140007B807B6804337B617B6923F007037B6191
:105150007B69043B7B617B694FF080721A607B69DD
:10516000043B7B61FA687B691A607B69043B7B6165
:10517000354A7B691A607B69043B7B617B694FF030
:1051800012321A607B69043B7B617B694FF003320A
:105190001A607B69043B7B617B694FF002321A60C5
:1051A0007B69043B7B617B694FF001321A607B694C
:1051B000043B7B61BA687B691A607B69043B7B6155
:1051C0007B696FF002021A607B69043B7B617B693B
:1051D0004FF011321A607B69043B7B617B694FF0B1
:1051E00010321A607B69043B7B617B694FF00932A6
:1051F0001A607B69043B7B617B694FF008321A605F
:105200007B69043B7B617B694FF007321A607B69E5
:10521000043B7B617B694FF006321A607B69043B7B
:105220007B617B694FF005321A607B69043B7B61CF
:105230007B694FF004321A607B6918461C37BD4603
:105240005DF8047B704700BFA165000880B483B09F
:1052500000AF786000BF0C37BD465DF8047B704737
:1052600080B582B000AF4020FAF7B9FF786000F057
:1052700027F87868FAF7C1FF00F0B6F800F03AF8BE
:1052800000BF0837BD4680BD80B500AFFFF7EEFE1A
:1052900000F0CEF900F00AFA00F086FA00F07EF98C
:1052A00000F0C6FD00F036FE00F074FE00F030FAAB
:1052B00000F054FAFFF70AFF00F0F8FC00BF80BDD1
:1052C00080B400AF094B1B78012B09D1084B1B7828
:1052D000FF2B05D0064B1B780133DAB2044B1A7052
:1052E00000BFBD465DF8047B704700BF2C720020F4
:1052F0001C72002080B582B000AF00237B601E4B83
:105300001B78012B34D14020FAF769FF78601B4BE2
:105310001B78002B05D0194B1B78013BDAB2174BD9
:105320001A70164B1B78002B1FD1154B1B78002BC6
:105330001BD100F0E3FA134B1B781A46124B53F8BB
:105340002230124A13600F4B1A78114B1B789A4285
:105350000BD00E4B1B689A6B01329A630D4B1B6886
:1053600001330C4A1360FAF78FFF7868FAF745FFAC
:1053700000BF0837BD4680BD2C7200201C72002083
:105380001D7200201F720020447400203C74002015
:105390001E720020C06E002080B500AF0C4B1B7841
:1053A000002B13D100F0AAFA0A4B1A780A4B1A7094
:1053B000084B1B781A46094B53F82230084A1360F1
:1053C000074B1B68074A1360FAF720FF00BF80BD38
:1053D0002C7200201F7200201E72002044740020D6
:1053E0003C7400203474002080B584B000AF0023EA
:1053F0007B604020FAF7F3FE7860454B1B68013371
:10540000434A13607868FAF7F8FE424B1B78012B89
:105410007AD1414B1B78022B0CD0022B10DC002BD5
:1054200002D0012B03D00BE00123FB720EE000231E
:10543000FB720BE00123FB72374B01221A7005E06F
:105440000123FB72344B00221A7000BFFB7A002B41
:1054500059D0324B1B68FB604FE04020FAF7BFFE8B
:105460007860FB68DB6A002B41D0FB68DB6A5A1E60
:10547000FB68DA62FB68DB6A002B38D1FB6893F8C3
:10548000303003F03703002B0DD0FB6893F8303039
:1054900023F03703DAB2FB6883F83020FB6801227F
:1054A00083F8312003E0FB68002283F83120FB6899
:1054B00093F8303003F00803002B18D1FB6893F801
:1054C0003620174B1B781343DAB2154B1A70FB6862
:1054D00093F834301A46134B9A5CFB6893F83530D6
:1054E000F96891F834101343DAB20E4B5A54FB6842
:1054F0005B69FB607868FAF780FEFB6893F83230EE
:105500003F2BAAD100E000BF1037BD4680BD00BFD1
:10551000647D00202C7200207C7C002040740020E0
:10552000207200202472002080B400AF00BFBD466E
:105530005DF8047B704780B485B000AF7860396057
:105540007B6893F83430FB73FB7B3A681344D97A59
:105550007B6893F83530DB43DAB2FB7B0A40D1B28B
:105560003A6813440A46DA72FB7B3A681344DB7AE2
:10557000002B0AD13B689A7A7B6893F83630DB437C
:10558000DBB21340DAB23B689A727B680022DA61C0
:1055900000BF1437BD465DF8047B704780B584B00A
:1055A00000AFF0211F4800F04DF90023FB811EE001
:1055B000FB890133FB80FA8913465B001344DB004F
:1055C000184A1344BB60FA8813465B001344DB009F
:1055D000144A13443B60BB6800221A70BB683A68E7
:1055E0005A60BB68104A5A61FB890133FB81FB8911
:1055F000082BDDD9FA8913465B001344DB00094A06
:105600001344BB60BB6800221A70BB6800225A605A
:10561000BB68054A5A61054B024A1A6000BF103741
:10562000BD4680BDC86E0020F4C10008C46E0020D5
:1056300080B400AF124B00221A60124B00221A7085
:10564000114B00221A70114B00221A70104B0022CD
:105650001A70104B00221A600F4B00221A600F4B79
:1056600000221A600E4B00221A600E4B00221A70A4
:105670000D4B00221A7000BFBD465DF8047B7047D9
:10568000647D00201C7200201D7200202D720020FD
:105690002C720020C06E0020307200201470002098
:1056A0001070002018700020607D002080B483B04E
:1056B00000AF114B00221A700023FB7106E0FB794A
:1056C0000E4A0021D154FB790133FB71FB79072B82
:1056D000F5D90B4B00221A700A4B00221A700A4BA4
:1056E00000221A60094B00221A6000BF0C37BD4629
:1056F0005DF8047B704700BF2072002024720020F8
:105700001E7200201F7200203C74002034740020A0
:1057100080B588B006AF032304930023039380234E
:1057200002930A4B01934FF6FF7300933F23084AFD
:105730000021084800F0CAFCFB1D1A4606493F201C
:1057400000F010FE00BF0837BD4680BD3472002057
:105750003074002045590008F8C1000880B588B0B1
:1057600006AF0323049300230393802302930A4B81
:1057700001934FF6FE7300933E23084A0021084828
:1057800000F0A4FCFB1D1A4606493E2000F0EAFD8D
:1057900000BF0837BD4680BD1C7000201872002075
:1057A0007559000808C2000880B584B000AF4FF4F6
:1057B000E7611F4800F046F84FF480711D4800F083
:1057C00041F80023FB7319E0FB7B0133FB71FB7B8A
:1057D000542202FB03F3164A1344BB60FB795422A4
:1057E00002FB03F3124A13443B60BB683A685A61F8
:1057F000BB68114ADA64FB7B0133FB73FB7B142B20
:10580000E2D9FB7B542202FB03F3094A1344BB6039
:10581000BB6800225A61BB68074ADA64074B002262
:105820001A60074B024A1A6000BF1037BD4680BDA0
:105830004475002044740020F4C100084074002026
:105840003874002080B483B000AF78600B467B8052
:1058500007E07B685A1C7A6000221A707B88013B43
:105860007B807B88002BF4D100BF00BF0C37BD4686
:105870005DF8047B7047000080B582B000AF002364
:105880007B604020FAF7ABFC7860154B1B78002B4F
:105890001FD1144B1B78002B1BD100F02FF8124B9B
:1058A0001B781A46114B53F82230114A13600E4BE5
:1058B0001A78104B1B789A420BD00D4B1B689A6BD1
:1058C00001329A630C4B1B6801330B4A1360FAF7E1
:1058D000DBFC7868FAF791FC00BF0837BD4680BD55
:1058E0001C7200201D7200201F72002044740020D2
:1058F0003C7400201E720020C06E002080B483B073
:1059000000AF0C4B1B781A460B4B9B5CFB71FB7971
:10591000DB00DAB2FB790949CB5C1946064B5B5CCC
:105920001344DAB2064B1A7000BF0C37BD465DF85F
:10593000047B70472072002024C2000824720020DB
:105940001F72002080B584B000AF78600023FB6038
:105950004020FAF744FCF860054B1B680133044A09
:105960001360F868FAF749FCFFF7CBFB00BFEFE7DD
:105970003072002080B584B000AF78600023FB60F7
:1059800002E0142000F03EFE304B1B78002BF8D0D4
:105990002F4B1B682F4AA2FB03235B092C4A136081
:1059A0002B4B1B68002B05D12B4B00221A70FF20BC
:1059B00000F080FD4020FAF712FCF860244B1B68D1
:1059C000642202FB03F3254A1360F868FAF715FC1A
:1059D000012000F017FE4020FAF701FCF8601F4B91
:1059E00000221A60F868FAF708FC0A2000F00AFEA4
:1059F0004020FAF7F4FBF860184B1B68184A136054
:105A0000F868FAF7FAFB164B1A68114B1B68B2FBE1
:105A1000F3F3DBB2C3F16403DBB2FB7297F90B3033
:105A2000002B03DBFA7A0C4B1A700AE00A4B0022B7
:105A30001A700B4B1B68074AA2FB03235B09044A3D
:105A40001360FFF76FFB00F00DF8C1E7187000203E
:105A5000107000201F85EB510C7000203072002068
:105A60001470002080B584B000AF0023FB7323E0E6
:105A70003A46FB7B1146184600F0BCFC0346BB735C
:105A8000BB7B002B15D1FB7B0F4A52F82330BB6048
:105A9000BB68002B0DD0BB68012B0AD0BB689A688D
:105AA000BB68DB689B001A44BB685A647A68BB68B1
:105AB0009A64FB7B0133FB73FB7B3F2BD8D900BF80
:105AC00000BF1037BD4680BD4474002080B588B04B
:105AD00000AFB9607A601A460346FB731346BB8178
:105AE0000023BB614020FAF77AFBB861684B1B6862
:105AF0007B617B69002B00F0C3807B695B69644A32
