:020000040800F2
:100000000080012075420008C5420008C542000872
:10001000C5420008C5420008C542000800000000B3
:10002000000000000000000000000000C5420008C1
:10003000C54200080000000093020008793600085D
:10004000C5420008C5420008C5420008C542000874
:10005000C5420008C5420008C5420008C542000864
:10006000C5420008C5420008C5420008C542000854
:10007000C5420008C5420008C5420008C542000844
:10008000C5420008C5420008C54200080000000043
:10009000000000000000000000000000C542000851
:1000A000C5420008C5420008C54200080D320008DC
:1000B000C5420008C5420008C5420008C542000804
:1000C000C5420008C5420008C5420008C5420008F4
:1000D000C5420008C5420008C542000800000000F3
:1000E000C5420008C5420008C542000800000000E3
:1000F000000000000000000000000000C5420008F1
:1001000000000000C5420008C5420008C5420008C2
:1001100000000000000000000000000000000000DF
:10012000C5420008C5420008C5420008C542000893
:10013000C5420008000000000000000000000000B0
:10014000000000000000000000000000C5420008A0
:10015000C5420008C5420008C5420008C542000863
:10016000C5420008C5420008000000000000000071
:10017000000000000000000000000000000000007F
:1001800000000000C5420008000000000000000060
:04019000C54200085C
:1001C000EFF3098121B120ED108A4F490A681060D0
:1001D0007047B0EC108A4D490A681060704772B6DB
:1001E00002B4EFF3118180F31188BFF34F8FBFF397
:1001F0006F8F084602BC62B6704772B680F31188F2
:10020000BFF34F8FBFF36F8F62B6704772B64EF673
:100210002250CEF2000040F2FF01C0F20001017056
:10022000002080F309884CF23C20C2F200000168F3
:1002300081F308883648012101704DF28610C2F220
:1002400000004DF28511C2F200010A7802704CF6EE
:100250007070C2F200004CF66871C2F200010A68C8
:100260000260106880F30988EFF3148040F0020008
:1002700080F31488BFF36F8FBDE8F04F0FBCBDE86B
:10028000005006BC62B6084722484FF0805101601A
:10029000704772B64CF23822C2F20002116881F344
:1002A0001188BFF34F8FBFF36F8F62B6EFF30980F2
:1002B00020E9F04F4CF67075C2F20005296808601D
:1002C00074464DF28610C2F200004DF28511C2F262
:1002D00000010A7802704CF66871C2F200010A68E7
:1002E0002A6044F0040E1068B0E8F04F80F30988EB
:1002F0004FF0000272B682F31188BFF34F8FBFF345
:100300006F8F62B67047000070CF002068CF00206A
:1003100079D1002004ED00E081F0004102E000BF4F
:1003200083F0004330B54FEA41044FEA430594EAB5
:10033000050F08BF90EA020F1FBF54EA000C55EAF0
:10034000020C7FEA645C7FEA655C00F0E2804FEAC1
:100350005454D4EB5555B8BF6D420CDD2C4480EAA3
:10036000020281EA030382EA000083EA010180EAD3
:10037000020281EA0303362D88BF30BD11F0004F21
:100380004FEA01314FF4801C4CEA113102D0404257
:1003900061EB410113F0004F4FEA03334CEA133392
:1003A00002D0524263EB430394EA050F00F0A780AA
:1003B000A4F10104D5F1200E0DDB02FA0EFC22FAA5
:1003C00005F2801841F1000103FA0EF2801843FA99
:1003D00005F359410EE0A5F120050EF1200E012A8A
:1003E00003FA0EFC28BF4CF0020C43FA05F3C018C8
:1003F00051EBE37101F0004507D54FF0000EDCF141
:10040000000C7EEB00006EEB0101B1F5801F1BD3E9
:10041000B1F5001F0CD349085FEA30004FEA3C0CED
:1004200004F101044FEA445212F5800F80F09A80E3
:10043000BCF1004F08BF5FEA500C50F1000041EBE7
:10044000045141EA050130BD5FEA4C0C404141EBEB
:100450000101013C28BFB1F5801FE9D291F0000FE6
:1004600004BF01460020B1FA81F308BF2033A3F195
:100470000B03B3F120020CDA0C3208DD02F1140C8C
:10048000C2F10C0201FA0CF021FA02F10CE002F1C7
:100490001402D8BFC2F1200C01FA02F120FA0CFCC0
:1004A000DCBF41EA0C019040E41AA2BF01EB045109
:1004B000294330BD6FEA04041F3C1CDA0C340EDC07
:1004C00004F11404C4F1200220FA04F001FA02F34A
:1004D00040EA030021FA04F345EA030130BDC4F108
:1004E0000C04C4F1200220FA02F001FA04F340EAFD
:1004F0000300294630BD21FA04F0294630BD94F0AE
:10050000000F83F4801306BF81F480110134013D94
:100510004EE77FEA645C18BF7FEA655C29D094EA05
:10052000050F08BF90EA020F05D054EA000C04BF83
:100530001946104630BD91EA030F1EBF002100206E
:1005400030BD5FEA545C05D14000494128BF41F00D
:10055000004130BD14F580043CBF01F5801130BD71
:1005600001F0004545F0FE4141F470014FF00000FC
:1005700030BD7FEA645C1ABF194610467FEA655CAD
:100580001CBF0B46024650EA013406BF52EA03354F
:1005900091EA030F41F4002130BD00BF90F0000F3D
:1005A00004BF0021704730B54FF4806404F1320479
:1005B0004FF000054FF0000150E700BF90F0000F32
:1005C00004BF0021704730B54FF4806404F1320459
:1005D00010F0004548BF40424FF000013EE700BF29
:1005E00042004FEAE2014FEA31014FEA02701FBFB9
:1005F00012F07F4393F07F4F81F06051704732F0EB
:100600007F4208BF704793F07F4F04BF41F4002141
:10061000704730B54FF4607401F0004521F000419F
:100620001CE700BF50EA010208BF704730B54FF029
:1006300000050AE050EA010208BF704730B511F02A
:10064000004502D5404261EB41014FF4806404F162
:1006500032045FEA915C3FF4D8AE4FF003025FEAE8
:10066000DC0C18BF03325FEADC0C18BF033202EB6C
:10067000DC02C2F1200300FA03FC20FA02F001FAC6
:1006800003FE40EA0E0021FA02F11444BDE600BF69
:1006900070B54FF0FF0C4CF4E06C1CEA11541DBF18
:1006A0001CEA135594EA0C0F95EA0C0F00F0DEF8E3
:1006B0002C4481EA030621EA4C5123EA4C5350EAC8
:1006C000013518BF52EA033541F4801143F4801319
:1006D00038D0A0FB02CE4FF00005E1FB02E506F0AA
:1006E0000042E0FB03E54FF00006E1FB03569CF0FF
:1006F000000F18BF4EF0010EA4F1FF04B6F5007F05
:1007000064F5407404D25FEA4E0E6D4146EB060676
:1007100042EAC62141EA55514FEAC52040EA5E50FF
:100720004FEACE2EB4F1FD0C88BFBCF5E06F1ED8A9
:10073000BEF1004F08BF5FEA500E50F1000041EBE0
:10074000045170BD06F0004646EA010140EA02008D
:1007500081EA0301B4EB5C04C2BFD4EB0C0541EAAF
:10076000045170BD41F480114FF0000E013C00F3C4
:10077000AB8014F1360FDEBF002001F0004170BDE8
:10078000C4F10004203C35DA0C341BDC04F1140401
:10079000C4F1200500FA05F320FA04F001FA05F28D
:1007A00040EA020001F0004221F0004110EBD3705A
:1007B00021FA04F642EB06015EEA430E08BF20EA86
:1007C000D37070BDC4F10C04C4F1200500FA04F329
:1007D00020FA05F001FA04F240EA020001F00041BB
:1007E00010EBD37041F100015EEA430E08BF20EA2E
:1007F000D37070BDC4F1200500FA05F24EEA020E76
:1008000020FA04F301FA05F243EA020321FA04F0A4
:1008100001F0004121FA04F220EA020000EBD3705B
:100820005EEA430E08BF20EAD37070BD94F0000F5B
:100830000FD101F00046400041EB010111F4801F8F
:1008400008BF013CF7D041EA060195F0000F18BF40
:10085000704703F00046520043EB030313F4801F7C
:1008600008BF013DF7D043EA0603704794EA0C0F36
:100870000CEA135518BF95EA0C0F0CD050EA41064C
:1008800018BF52EA4306D1D181EA030101F00041C9
:100890004FF0000070BD50EA410606BF10461946F1
:1008A00052EA430619D094EA0C0F02D150EA0136FD
:1008B00013D195EA0C0F05D152EA03361CBF10463E
:1008C00019460AD181EA030101F0004141F0FE41DD
:1008D00041F470014FF0000070BD41F0FE4141F461
:1008E000780170BD70B54FF0FF0C4CF4E06C1CEA61
:1008F00011541DBF1CEA135594EA0C0F95EA0C0F16
:1009000000F0A7F8A4EB050481EA030E52EA0335D0
:100910004FEA013100F088804FEA03334FF08055F1
:1009200045EA131343EA12634FEA022245EA11151E
:1009300045EA10654FEA00260EF000419D4208BFCF
:10094000964244F1FD0404F5407402D25B084FEA7C
:100950003202B61A65EB03055B084FEA32024FF428
:1009600080104FF4002CB6EB020E75EB030E22BF85
:10097000B61A754640EA0C005B084FEA3202B6EB45
:10098000020E75EB030E22BFB61A754640EA5C00F4
:100990005B084FEA3202B6EB020E75EB030E22BF84
:1009A000B61A754640EA9C005B084FEA3202B6EB85
:1009B000020E75EB030E22BFB61A754640EADC0044
:1009C00055EA060E18D04FEA051545EA16754FEAA6
:1009D00006164FEAC30343EA52734FEAC2025FEAC4
:1009E0001C1CC0D111F4801F0BD141EA00014FF053
:1009F00000004FF0004CB6E711F4801F04BF014324
:100A00000020B4F1FD0C88BFBCF5E06F3FF6AFAE3F
:100A1000B5EB030C04BFB6EB020C5FEA500C50F1CF
:100A2000000041EB045170BD0EF0004E4EEA113152
:100A300014EB5C04C2BFD4EB0C0541EA045170BD59
:100A400041F480114FF0000E013C90E645EA060E9D
:100A50008DE60CEA135594EA0C0F08BF95EA0C0FCB
:100A60003FF43BAF94EA0C0F0AD150EA01347FF413
:100A700034AF95EA0C0F7FF425AF104619462CE7EA
:100A800095EA0C0F06D152EA03353FF4FDAE10464D
:100A9000194622E750EA410618BF52EA43067FF49E
:100AA000C5AE50EA41047FF40DAF52EA43057FF42E
:100AB000EBAE12E74FF0FF3C06E000BF4FF0010C39
:100AC00002E000BF4FF0010C4DF804CD4FEA410C9D
:100AD0007FEA6C5C4FEA430C18BF7FEA6C5C1BD06A
:100AE00001B050EA410C0CBF52EA430C91EA030FEB
:100AF00002BF90EA020F0020704710F1000F91EA48
:100B0000030F58BF994208BF90422CBFD8176FEA15
:100B1000E37040F0010070474FEA410C7FEA6C5CE3
:100B200002D150EA013C07D14FEA430C7FEA6C5CEA
:100B3000D6D152EA033CD3D05DF8040B704700BF16
:100B40008446104662468C461946634600E000BF64
:100B500001B5FFF7B7FF002848BF10F1000F01BD36
:100B60004DF808EDFFF7F4FF0CBF012000205DF801
:100B700008FB00BF4DF808EDFFF7EAFF34BF012086
:100B800000205DF808FB00BF4DF808EDFFF7E0FF1F
:100B900094BF012000205DF808FB00BF4DF808ED70
:100BA000FFF7CEFF94BF012000205DF808FB00BFD7
:100BB0004DF808EDFFF7C4FF34BF012000205DF8B9
:100BC00008FB00BF4FEA4102B2F1E04324BFB3F596
:100BD000001CDCF1FE5C0DD901F0004C4FEAC002B4
:100BE0004CEA5070B2F1004F40EB830008BF20F098
:100BF0000100704711F0804F21D113F13872BCBF52
:100C000001F00040704741F480114FEA5252C2F1A6
:100C10001802C2F1200C10FA0CF320FA02F018BFEF
:100C200040F001004FEAC1234FEAD32303FA0CFC42
:100C300040EA0C0023FA02F34FEA4303CCE77FEAD1
:100C4000625307D150EA01331EBF4FF0FE4040F41B
:100C50004000704701F0004040F0FE4040F40000CA
:100C6000704700BF844641EA000313F003036DD1CF
:100C7000403A41D351F8043B40F8043B51F8043B5F
:100C800040F8043B51F8043B40F8043B51F8043B66
:100C900040F8043B51F8043B40F8043B51F8043B56
:100CA00040F8043B51F8043B40F8043B51F8043B46
:100CB00040F8043B51F8043B40F8043B51F8043B36
:100CC00040F8043B51F8043B40F8043B51F8043B26
:100CD00040F8043B51F8043B40F8043B51F8043B16
:100CE00040F8043B51F8043B40F8043B51F8043B06
:100CF00040F8043B403ABDD2303211D351F8043BA6
:100D000040F8043B51F8043B40F8043B51F8043BE5
:100D100040F8043B51F8043B40F8043B103AEDD254
:100D20000C3205D351F8043B40F8043B043AF9D2A5
:100D3000043208D0D2071CBF11F8013B00F8013B78
:100D400001D30B8803806046704700BF082A13D385
:100D50008B078DD010F003038AD0C3F10403D21A9D
:100D6000DB071CBF11F8013B00F8013B80D331F8D1
:100D7000023B20F8023B7BE7043AD9D3013A11F851
:100D8000013B00F8013BF9D20B7803704B784370BC
:100D90008B78837060467047000000000000000000
:100DA0000000000000000000000000000000000043
:100DB0000000000000000000000000000000000033
:100DC00030B490F800F020F007016FF0000C10F044
:100DD000070491F820F040F048804FF000046FF0D5
:100DE0000700D1E9002391F840F000F1080082FAF1
:100DF0004CF2A4FA8CF283FA4CF3A2FA8CF34BBBBC
:100E0000D1E9022382FA4CF200F10800A4FA8CF234
:100E100083FA4CF3A2FA8CF3E3B9D1E9042382FA02
:100E20004CF200F10800A4FA8CF283FA4CF3A2FA17
:100E30008CF37BB9D1E9062301F1200182FA4CF24F
:100E400000F10800A4FA8CF283FA4CF3A2FA8CF3B6
:100E5000002BC6D0002A04BF04301A4612BAB2FAD8
:100E600082F200EBD20030BC7047D1E9002304F0DD
:100E70000305C4F100004FEAC50514F0040F91F812
:100E800040F00CFA05F562EA05021CBF63EA0503AF
:100E900062464FF00004AAE70000000000000000D6
:100EA00001F0FF01102A2BDB10F0070F08D010F81B
:100EB000013B013A8B422DD010F0070F42B3F6D11F
:100EC000F0B441EA012141EA014122F007047FF038
:100ED00000070023F0E80256083C85EA010586EA8F
:100EE000010685FA47F5A3FA87F586FA47F6A5FACB
:100EF00087F68EB9EED1F0BC01F0FF0102F00702D7
:100F000032B110F8013B013A83EA010313B1F8D181
:100F10000020704701387047002D06BF3546033862
:100F2000073815F0010F07D1013015F4807F02BF9B
:100F3000013015F4C03F0130F0BC0138704700BFEC
:100F40004FEA410C7FEA6C5C02D150EA013C0AD1C5
:100F50004FEA430C7FEA6C5C02D152EA033C02D1B7
:100F60004FF0000070474FF0010070474FEA410218
:100F700012F5001215D211D56FF47873B3EB6252EB
:100F800012D94FEAC12343F0004343EA505311F012
:100F9000004F23FA02F018BF404270474FF00000A4
:100FA000704750EA013005D111F0004008BF6FF0E2
:100FB000004070474FF00000704700BF10B5054C6F
:100FC000237833B9044B13B10448AFF300800123F5
:100FD000237010BDB806002000000000B098000883
:100FE00008B5034B1BB103490348AFF3008008BDAC
:100FF00000000000BC060020B09800080023014655
:101000001A46184600F024BA024A0349034800F081
:10101000C9B800BF000000201D1D000810000020FE
:101020000C4B4168994210B5044601D000F076FEA1
:10103000A168094B994202D0204600F06FFEE1689A
:10104000064B994204D02046BDE8104000F066BE31
:1010500010BD00BFD40600203C070020A4070020DC
:101060002DE9F843314C324B3248DFF8DC90DFF8A1
:10107000DC80314F1860002529460423082204F142
:101080005C002E4EE360C4E90055C4E90455A56038
:101090006566A56100F0F2F804F15800C4E907495B
:1010A000C4E90987E66200F0CBF92946244B63675F
:1010B000082204F1C400C4E91A55C4E91E55256785
:1010C000C4F8CC50C4F8805000F0D8F804F168039C
:1010D00004F1C000C4F88430C4E92298C4E924763D
:1010E00000F0AEF9174BC4F8DC30294604F59670D1
:1010F0000822C4E93455C4E93855C4F8D850C4F8B6
:101100003451C4F8E85000F0B9F804F1D003C4E950
:101110003D87C4F8F09004F59470C4F8FC60C4F8FE
:10112000EC30BDE8F84300F08BB900BFD4060020D6
:101130000C08002009100008511200087512000860
:101140000900010012000200ED1100081112000850
:1011500010B504460A4800F077F9636B23B9094BD0
:10116000094A1B68626323B1BDE81040044800F0DF
:101170006DB9FFF775FFBDE81040014800F066B992
:101180001C0800200C08002021100008014800F075
:101190005BB900BF1C080020014800F057B900BF30
:1011A0001C0800202DE9F84380460F4616464FF0F4
:1011B0000009D6E90154013D11D4A389012B05F1A1
:1011C000FF3508D9B4F90E300133214603D040462B
:1011D000B84749EA00096B1C04F16804EDD1366890
:1011E000002EE6D14846BDE8F88300BF10B50C4696
:1011F000B1F90E1000F0BCF8002803DB236D0344A6
:10120000236510BDA38923F48053A38110BD00BFC3
:101210002DE9F0410C46B1F90C101F46CB050546EF
:1012200016460BD421F48051A1813B46B4F90E102F
:1012300032462846BDE8F04100F0B0B8B4F90E10CF
:101240000223002200F07EF8B4F90C10EAE700BF98
:1012500010B50C46B1F90E1000F074F8B4F90C306A
:10126000421C0EBF23F4805343F480532065A381B6
:1012700010BD00BFB1F90E1000F052B8830730B5B1
:1012800047D0541E002A3ED0CAB2034601E0013CBA
:1012900039D303F8012B9D07F9D1032C2CD9CDB2FA
:1012A00005EB05250F2C05EB054535D9A4F11002FA
:1012B00022F00F0C03F1100EE6444FEA121C1A46FE
:1012C000156055609560D56010327245F8D10CF10B
:1012D000010214F00C0F03EB021204F00F0C13D0F8
:1012E000ACF1040323F003030433134442F8045B1A
:1012F0009A42FBD10CF003042CB1C9B21C4403F890
:10130000011B9C42FBD130BD64461346002CF4D136
:10131000F9E703461446C0E71A46A446E0E700BFD3
:1013200038B5074D0022044608462A6003F050F8FD
:10133000431C00D038BD2B68002BFBD0236038BD88
:101340001008002038B50C46084D8446114620464A
:101350001A4600232B60644603F03EF8431C00D07D
:1013600038BD2B68002BFBD0236038BD100800204F
:1013700038B50C46084D8446114620461A460023CF
:101380002B60644603F038F8431C00D038BD2B684E
:10139000002BFBD0236038BD1008002038B50C4668
:1013A000084D8446114620461A4600232B606446A9
:1013B00003F014F8431C00D038BD2B68002BFBD081
:1013C000236038BD1008002070B50F4B0F4DAB42A5
:1013D000A3EB050607D0B610002455F8043B0134F2
:1013E0009847A642F9D808F063FA094D094B5E1BED
:1013F000AB424FEAA60606D0002455F8043B013460
:101400009847A642F9D870BD649F0008649F000801
:10141000649F00086C9F000838B5074D074C2C1BD3
:10142000A41005D0013C55F8043D9847002CF9D193
:10143000BDE8384008F042BA709F00086C9F000871
:10144000704700BF704700BF704700BF704700BFC4
:101450002DE9F8431B4D0646286898460F469146ED
:10146000FFF7F2FF184B1C681CB3286865681F2D36
:1014700022DC4EB96B1C0235636044F82570FFF71F
:10148000E5FF0020BDE8F88304EB85010123C1F8E6
:101490008890D4F88821AB401A43022EC4F88821E2
:1014A000C1F80881E6D1D4F88C211A43C4F88C2104
:1014B000E0E7064C1C60D8E7FFF7C8FF4FF0FF30AD
:1014C000E0E700BF30010020B00900202008002024
:1014D000024B13B10248FFF791BD704700000000B6
:1014E000191400082DE9F84306460820894600F043
:1014F0004DFDDFF8A4800546304600F003FCD8F827
:1015000008305F6827F00307A7F11104A4EB090472
:101510002C44B4FBF5F4013C05FB04F4A54208DCC3
:101520000021304600F020FDD8F808303B449842B6
:1015300005D0304600F0ECFB0020BDE8F8836142A6
:10154000304600F011FD01300FD0114AD8F80830B4
:101550003F1B47F001075F60136830461B1B136099
:1015600000F0D6FB0120BDE8F8830021304600F0F2
:10157000FBFCD8F80820831A0F2BDADD43F00103B7
:101580005360044B02491B68C01A0860D1E700BFD2
:10159000B4090020340100204001002000297CD043
:1015A0002DE9F0410C46804600F0ACFB54F8043CB9
:1015B000764FA4F1080523F001016818BE6842685F
:1015C000864222F0030200F08380DE07426000EBD7
:1015D000020C33D454F8084CDCF804302D1B2144A1
:1015E000AC6807F1080C644503F0010364D0D5F83A
:1015F0000CE0C4F80CE0CEF80840002B00F081802D
:1016000041F001036B600160B1F5007F22D2786880
:10161000CB080122490901338A40024357F83310AD
:101620007A6007EBC302083AC5E9021247F8335063
:10163000CD604046BDE8F04100F06ABBDCF8043004
:10164000DB072BD541F00103B1F5007F44F8043CE2
:101650000160DCD3B1F5206F4FEA512353D28B09DF
:1016600003F1390003F13802C300F818FB580838B9
:10167000984203D163E09B68984204D05A6822F0F4
:1016800003028A42F7D8D868C5E902308560DD6078
:101690004046BDE8F04100F03BBB7047114407F104
:1016A000080C836863453FD0C268DA60936041F0FC
:1016B00001036B606950A7E7002B61D10A44D0E9B0
:1016C0000213CB60996042F001036B60AA50B0E74F
:1016D000DB070A4407D454F8083CED1A1A44D5E94C
:1016E0000213CB60996042F001036B60284BBD6030
:1016F0001B6893429DD8274B40461968FFF7F2FEBE
:1017000097E71144CDE7142B08D9542B1FD80B0BA6
:1017100003F16F0003F16E02C300A6E703F15C0062
:1017200003F15B02C300A0E741F001033D617D616D
:10173000C5F808C0C5F80CC06B60695079E77968D6
:101740009210012404FA02F20A437A609CE7B3F58E
:10175000AA7F06D8CB0B03F1780003F17702C30010
:1017600083E740F25452934206D88B0C03F17D007C
:1017700003F17C02C30078E74FF47E737E2274E7A6
:1017800041F001036B60016053E700BF400100209E
:1017900038010020E40900202DE9F04F01F10B058C
:1017A000162D85B0064623D8102900F2B08000F02F
:1017B000A9FA102518230220B74F3B44A3F10802D1
:1017C0005C68944200F01E816368E26823F00303C2
:1017D0002344A168CA6091605A6842F00102304611
:1017E0005A60083400F094FA204605B0BDE8F08F46
:1017F00035F0070500F18B80A94200F2888000F0E7
:1018000081FAB5F5FC7FC0F06E816B0A00F0838031
:10181000042B00F21D81AB0903F1390003F1380CF0
:10182000C3009D4F3B44A3F108015C68A14206D16F
:101830000CE0002A80F2E380E468A14206D06368ED
:1018400023F003035A1B0F2AF3DD6046DFF85CE246
:101850003C69744500F0C080636823F00308A8EB7E
:1018600005030F2B00F34381002BC7E904EE80F240
:101870002E81B8F5007FD7F804C080F0C9804FEA08
:10188000D80101314FEA5818012303FA08F357F839
:101890003120A2604CEA030C07EBC103083BE36074
:1018A000C7F804C047F83140D46083104FF00108F6
:1018B00008FA03F8E04534D818EA0C0F08D120F0F4
:1018C00003004FEA480818EA0C0F00F10400F8D0B2
:1018D00007EBC00A52468146D1680EE04B6823F000
:1018E0000303A3EB050CBCF10F0F0C46C96800F312
:1018F000BB80BCF1000F80F2DD808A42EED109F19D
:10190000010919F0030F02F10802E5D11AE10C23D5
:101910003360002468E74FF4007340204FF03F0C21
:101920007FE7BC68636823F00309A94503D3A9EBEB
:1019300005030F2B53DC594BDFF874B11B680820EB
:1019400003F1100800F022FBDBF8003001900133B6
:10195000A84404EB090205D008F1FF388044434253
:1019600003EA080841463046029200F0FDFAB0F161
:10197000FF3F029A824600F0D780824200F2D28076
:10198000474B01991868404401F1FF3118608446C3
:1019900040F0FB801AEA010F40F0F780D7F808A06A
:1019A000C84448F00102CAF804203E4B196881423D
:1019B00038BF18603C4B1968814238BF18605446E4
:1019C00022F00308A845A8EB050301D30F2B06DC82
:1019D000304600F09DF99CE7D7F804C065E762192E
:1019E00043F0010345F0010565603046BA6053607D
:1019F00000F08EF90834204605B0BDE8F08FE268AB
:101A00002344E6E6DC68A3427FF4DEAE02301DE745
:101A1000B8F5206F4FEA58227DD3142A00F21981BD
:101A200002F15C03DB005B32F918FB58083999427C
:101A300003D1F3E09B68994204D05A6822F0030274
:101A40004245F7D8D968C4E902318C60DC602CE7E4
:101A5000142B6CD9542B00F205812B0B03F16F0072
:101A600003F16E0CC300DCE63046A668621945F04F
:101A700001056560F1608E604CF00101C7E9042248
:101A8000C2F808E0C2F80CE0516044F803C000F06E
:101A90003FF90834A8E600BF40010020E409002017
:101AA000B4090020E0090020DC09002048010020E2
:101AB00034010020234430465A6842F001025A6043
:101AC00054F8083FD9608B6000F022F98CE6A044FE
:101AD0003046D8F8043043F00103C8F80430083425
:101AE00000F016F980E6E80805F1080364E66219DB
:101AF00043F0010145F0010565603046C7E9042265
:101B0000C2F808E0C2F80CE0516044F8083000F078
:101B1000FFF8083468E64FEA981202F13903DB0057
:101B2000383281E7BC4228D0BC68626848E703F1DC
:101B30005C0003F15B0CC30073E65AF808395345A7
:101B400040F0DB8010F0030F00F1FF30F5D17B682F
:101B500023EA08037B604FEA480898453FF6E1AE68
:101B6000B8F1000F04D1DCE64FEA480809F1040996
:101B700018EA030FF8D04846AAE6614B01991868A5
:101B800008EB000C0139C3F800C0DBF8000001309D
:101B90001BBFAAEB02026244CBF800A01A601AF045
:101BA0000702CDE9022343D0C2F10802019B92440F
:101BB000D044134408EA01001A1A02EA010B5946FC
:101BC000304600F0D1F9421C039B79D0A0EB0A000B
:101BD00000EB0B081868C7F808A048F00102584449
:101BE000BC42CAF8042018603FF4DFAEB9F10F0F11
:101BF00042D96168A9F10C0222F0070201F001014B
:101C000011436160A1184FF0050C0F2AC1F804C000
:101C1000C1F808C049D8DAF80420C6E692104FF09F
:101C2000010808FA02F24CEA020CC7F804C00AE7FD
:101C3000019B0AEB08020A409A1A02EA010B594674
:101C4000304600F091F9431C039BBFD1DDF808B08A
:101C5000C0E7542A14D84FEA183202F16F03DB00B0
:101C60006E32E1E6B3F5AA7F14D8EB0B03F17800EE
:101C700003F1770CC300D4E50123CAF80430A7E6CA
:101C8000B2F5AA7F24D84FEAD83202F17803DB00FC
:101C90007732C9E640F25452934224D8AB0C03F198
:101CA0007D0003F17C0CC300BBE5304604F1080164
:101CB0000193FFF773FC019BD7F808A01868AAE707
:101CC000029A083A9044A8EB0A084FF0000B81E70B
:101CD00040F254539A420CD84FEA984202F17D03E5
:101CE000DB007C32A0E64FF47E737F204FF07E0C49
:101CF00097E54FF47E737E2296E67B682BE700BF64
:101D0000B40900200148FFF79FBB00BF1408002062
:101D10000148FFF79BBB00BF1408002070B50029E5
:101D20003FD005460C4610B1436B002B3CD0636E90
:101D3000B4F90C20DE0732D4900538D52146284668
:101D400000F04CF8E36A064633B1E169284698474B
:101D50000028B8BF4FF0FF36A3891A0639D4216B8B
:101D600041B104F14003994202D02846FFF716FC26
:101D700000232363616C21B12846FFF70FFC002389
:101D80006364FFF703FA636E0022DB07A2811CD5B0
:101D9000A06DFFF757FBFFF7FFF9304670BD002A33
:101DA000CCD10026304670BDFFF7D2F9BFE7A06D59
:101DB000FFF74AFBB4F90C30002BBFD1636ED90793
:101DC000EFD4A06DFFF742FBEBE7A06DFFF73EFB02
:101DD000DEE721692846FFF7E1FBC0E7B1F90C20F7
:101DE0002DE9F0410C46110780464BD4616842F45E
:101DF00000630029A38160DDA56A002D3FD000218A
:101E000012F48052D8F80060C8F80010E16961D17E
:101E100001234046A847431C02466BD0B4F90C305E
:101E2000A56AE1695F0705D56368D21A236B0BB118
:101E3000E36BD21A00234046A847451C4CD1D8F882
:101E400000101D293DD8324AB4F90C300A4112F075
:101E5000010238D162602269226023F40062A2810B
:101E6000DA0452D4216BC8F8006041B104F1400398
:101E7000994202D04046FFF791FB002323630020E4
:101E8000BDE8F0812669002EF9D02568266091070B
:101E90000CBF63690023AD1BA3600BE02B463246E9
:101EA000E169676A4046B847B0F1000CA5EB0C0544
:101EB000664406DD002DF1DCE1E7E16B00299BDCE7
:101EC000DDE7B4F90C3043F04003A3814FF0FF305D
:101ED000BDE8F081226DA5E7B4F90C3022692260DB
:101EE00023F40062A281DB044FF000026260B9D5E6
:101EF0002065B7E7D8F80030002B8FD01D2B01D01C
:101F0000162BDED1C8F80060B9E70029AAD1EFE7A7
:101F1000FEFFBFDF38B50C46054608B1436B03B37F
:101F2000B4F90C0088B1636EDB0701D481050FD5CD
:101F300028462146FFF752FF636EDA07054602D4B2
:101F4000A3899B0508D5284638BD0546284638BDD7
:101F5000A06DFFF779FAEBE7A06DFFF777FA284657
:101F600038BDFFF7F5F8DBE738B5074D002204462A
:101F700008462A6002F042FA431C00D038BD2B68A4
:101F8000002BFBD0236038BD10080020082802D1A8
:101F90004FF48050704708B500F006F81623036030
:101FA0004FF0FF3008BD00BF014B1868704700BFFD
:101FB0000C000020034B40F0BF6040F40030D860BC
:101FC000704700BF00ED00E010B50278C378012132
:101FD00002F01F044FEA521EA140DBB1104B4478BF
:101FE000DB686FEA030CCCF3022C8378CCF104009D
:101FF000C0B204FA00F00F2444FA0CF4C0B223403B
:10200000034308481B010244DBB282F8003340F866
:102010002E1010BD034B0EF1200E43F82E1010BDF4
:1020200000ED00E000E100E000222DE9F04713465A
:102030000D684FF0010E032604E00133102B02F16E
:10204000020239D00EFA03FC3CEA0504F5D1076818
:1020500006FA02F427EA040707600F79D0F800A017
:1020600007FA02F9013F49EA0A09012FA046C0F820
:1020700000906FEA040411D887683C4084604C7972
:10208000876894403C438460446824EA0C044460BC
:102090008C7947689C40A4B23C434460C46824EAFD
:1020A0000804C460CC79C768944001333C43102BCA
:1020B000C46002F10202C5D1BDE8F087044A136B87
:1020C00011B103431363704723EA0003136370479E
:1020D00000380240044A136C11B103431364704783
:1020E00023EA0003136470470038024030B4274DE0
:1020F00003884C680A88A8429BB23BD0244DA84272
:1021000018D0B0F1804F27D0A5F58035A84223D054
:1021100005F58065A8421FD005F58065A8422CD042
:102120001C4DA8422ED10380C4620285012330BC1D
:102130008382704723F070039BB24D882B430D8937
:1021400023F440732B430380C46202858B7A038699
:10215000012330BC838270474D8823F070039BB20B
:102160002B43098923F440739BB20B430380C46261
:102170000285DBE723F07003DFE74D8823F070036F
:102180002B43EEE7044DA842CDD0EAE70000014022
:10219000000401400010004000140040038821B1F9
:1021A0009BB243F001030380704723F001031B043B
:1021B0001B0C0380704700BF038C23F001031B043A
:1021C0001B0C0384038CB0F804C0028B10B54C8840
:1021D000B1F80CE022F073024EEA040E12040C88EF
:1021E00023F00203120C1B042243144C1B0C43EA81
:1021F0000E03A0421FFA8CFC9BB20AD004F5806447
:10220000A04206D08968A0F804C002834163038419
:1022100010BDCC89B1F810E023F0080323434C8AA9
:102220002CF4407C4EEA040E8C8823F004034CEA24
:102230000E0C1FFA8CFC2343E4E700BF00000140B2
:10224000038B23F008031B041B0C0B430383704711
:10225000406B704783899BB212B10B4383817047F7
:1022600023EA010383817047038A828911EA03000C
:1022700092B203D00A4214BF01200020704700BF71
:10228000C94389B2018270470388194214BF0120F3
:1022900000207047000000002DE9F04F2DED028B6B
:1022A00092ED047BADF53D7D8DED067B8DED687B7C
:1022B0008DED747B93ED007B80468DED027B0C46AB
:1022C0008DED847BD2E9000193ED027BD2E90267B8
:1022D0008DED047B0246CDE96401CDE972018DEDFF
:1022E0008C7B93ED047B01F10043DDE90601CDE930
:1022F0005E23CDE97823324607F10043CDE9602320
:10230000CDE96A23024601F10043CDE96C67CDE9CE
:102310007667CDE96223DDE90456CDE96E23DDE978
:102320000223104603F100412A4606F100438DEDD9
:10233000087B57EC176B8DED887B8DED0A0BCDE993
:102340007E01CDE980239DED027B8DED927B9DED9D
:10235000047BCDE98A23324607F10043CDE982238D
:10236000CDE98E2300220023CDE95C23CDE966234D
:10237000CDE97023CDE97A23CDE97C23CDE986230D
:10238000CDE990238DED967BCDE99801CDE99A2397
:10239000CDE994670DF51C7B0DF5F87A0DF5C8793C
:1023A0008D4FCDF808800494D8460026CB4654467D
:1023B000ABF12005C246A146F9E80223F5E8020187
:1023C000FDF7B0FF32463B46FEF762F95D45EAE8AD
:1023D0000201F1D120349CAB9C4208F1200805F1A8
:1023E000200BE5D104250126CDE90056DDF8088053
:1023F000049CD8E900ABCDE90CABD8E902ABCDE940
:102400000EABD8E904ABD8E90689CDE91289D4E945
:102410000089CDE91489D4E90289CDE91689D4E986
:102420000489CDE91889D4E906895CA92B460CAA50
:102430003CA8CDE91A89CDE910AB00F0E1FB9FED96
:10244000620B33462A463CA91CA800F09BFBDDE941
:102450000A78614B002238464146FEF719F941ECF3
:10246000180B3346B0EE480AF0EE680A2A461CA95B
:102470003CA800F087FB2B463CAA0CA944A8009678
:1024800000F044FB2B4644AA9CA93CA8CDE9005689
:1024900000F0B6FB33462A463CA924A89FED4A0B20
:1024A00000F070FBB0EE480AF0EE680A33462A46A8
:1024B00024A93CA800F066FB2B463CAA0CA944A822
:1024C000009600F023FB9CA92B4644AA3CA8CDE92A
:1024D000005600F095FB33462A463CA92CA89FEDF8
:1024E0003A0B00F04FFB48EC107B33462A462CA9F0
:1024F0003CA800F047FB2B463CAA0CA944A8009638
:1025000000F004FB7CA92B4644AA3CA8CDE9005668
:1025100000F076FB33462A463CA934A89FED2A0BEF
:1025200000F030FB33462A4624A93CA89FED280B37
:1025300000F028FB9FED260B33462A462CA944A821
:1025400000F020FB2B4644AA3CA94CA8009600F0C2
:10255000DDFA34AA1CA92B4654A8009600F0D6FA3E
:1025600054AA4CA92B463CA8009600F0CFFA1B4B6E
:10257000384641460022FEF7B5F9334641EC100BD0
:102580002A463CA944A800F0FDFA2B4644AA0CA90F
:1025900014A8009600F0BAFADDE91423C4E9002378
:1025A000DDE91623DDE91801C4E90223DDE91A2378
:1025B000C4E90401C4E906230DF53D7DBDEC028BA1
:1025C000BDE8F08FAFF30080000000000000E03FA6
:1025D00000000000000000400000E03F0000184044
:1025E000254A264B116B41F002011163516C41F0F9
:1025F000100151641A6822F440521A601A6822F4D9
:1026000040421A601A6842F400521A601A6842F492
:1026100000421A605A6842F040025A605A6842F01A
:1026200080025A609A6822F440529A609A6822F4B2
:1026300040429A609A6842F400529A609A6842F462
:1026400000429A60DA6822F44052DA60DA6822F4D2
:102650004042DA601A6A22F060621A621A6A22F054
:1026600060421A621A6A42F0E0621A621A6A42F022
:10267000E0421A62704700BF003802400004024086
:10268000124B9A8992B242F4005242F22E219A8160
:1026900019819A8922F480521204120C9A819A8923
:1026A00022F480621204120C9A819A8992B242F04A
:1026B00020029A819A8992B242F008029A819A89FC
:1026C00092B242F004029A81704700BF00100140AC
:1026D00010B5044CA08080212046FFF7D5FD0028CE
:1026E000F9D010BD00100140037883B170B5084CDB
:1026F00006460025A38080212046FFF7C5FD00285F
:10270000F9D00135EDB2735D002BF3D170BD704788
:102710000010014008B5FFF763FFBDE80840FFF770
:10272000AFBF00BF08B501226B21D02000F032FC02
:1027300009221921D02000F02DFC06221A21D020D8
:1027400000F028FC18221B21D02000F023FC1822C6
:102750001C21D02000F01EFC02223721D02000F0E6
:1027600019FCBDE8084000226A21D02000F012BC0C
:1027700008B5FFF7D7FF702200213C2000F03CFC99
:10278000202201213C2000F037FCBDE80840002257
:1027900002213C2000F030BC2DE9F04782B0824697
:1027A0006A4606234321D02000F088FBBDF80000D4
:1027B000C0BAFDF703FF274B0022FDF769FF002297
:1027C0004FF07C53FDF764FFBDF802308046894628
:1027D000CAE90089D8BAFDF7F1FE1E4B0022FDF7C9
:1027E00057FF00224FF07C53FDF752FF0646BDF81D
:1027F00004000F46CAE90267C0BAFDF7DFFE154BB9
:102800000022FDF745FF00224FF07C53FDF740FF0B
:1028100004464046DFF840800D46D8E90023CAE967
:1028200004454946FDF77CFDD8E90223CAE90001C9
:1028300030463946FDF774FDD8E90423CAE90201A0
:1028400020462946FDF76CFDCAE9040102B0BDE847
:10285000F08700BF00409F40E80900202DE9F04FBD
:10286000834687B02B48FFF73FFF2B48FFF73CFF1D
:1028700040F6B83001F0C6FC002400254FF0640A91
:10288000A046A94626462F466846FFF785FFDDE9A4
:10289000002340464946FDF745FDDDE90223804619
:1028A000894630463946FDF73DFDDDE904230646FD
:1028B0000F4620462946FDF735FD04460A200D4601
:1028C00001F0A0FC0AF1FF3313F0FF0ADCD1134B37
:1028D000404649460022FEF705F8104BCBE90001BF
:1028E000002230463946FDF7FDFF02460B46CBE994
:1028F00002232046094B29460022FDF7F3FF02463A
:1029000007480B46CBE9042307B0BDE8F04FFFF7BB
:10291000EBBE00BF24990008409900080000594010
:102920001C9900080F49104B0A6B42F001020A6320
:102930001A6822F440621A601A6842F480621A60CF
:102940005A6822F020025A609A6822F440629A6023
:102950009A6842F480629A60DA6822F44062DA602F
:10296000704700BF0038024000000240024A53692D
:1029700043F020035361704700000240024B0022E5
:1029800059695A61704700BF000002402DE9D04FDD
:10299000D0E904AB2DED028B90ED007B86B0D0E941
:1029A0000667D0E902890C4652465B4650465946B6
:1029B0008DED007BFDF76CFE4246CDE902014B46F2
:1029C00040464946FDF764FEDDE90223FDF7AAFC17
:1029D00002460B46FDF7A6FC02460B4600204A497C
:1029E000FDF79EFCFEF7EEF8424608EE100A4B4655
:1029F000DDE90001FDF74CFE3246CDE904013B461E
:102A000050465946FDF744FE02460B46DDE90401F7
:102A1000FDF788FC02460B46FDF784FCFEF7D2F872
:102A2000F0EE480A00EE100A06F0B2FC10EE100AB2
:102A3000FDF7D6FD5246C4E900015B46DDE9000121
:102A4000FDF726FE3246CDE904013B4640464946A5
:102A5000FDF71EFE02460B46DDE90401FDF760FCB2
:102A600002460B46FDF75EFCFEF7ACF800EE100ADE
:102A700006F062FC10EE100AFDF7B2FD3246C4E922
:102A800002013B4630463946FDF702FEDDE90223EE
:102A9000FDF748FC02460B46FDF744FC02460B4698
:102AA00000201949FDF73CFCFEF78CF8324608EE91
:102AB000100A3B46DDE90001FDF7EAFD52460646F5
:102AC0000F465B4640464946FDF7E2FD02460B468F
:102AD00030463946FDF726FC02460B46FDF722FC40
:102AE000FEF770F8F0EE480A00EE100A06F050FC0F
:102AF00010EE100AFDF774FDC4E9040106B0BDEC48
:102B0000028BBDE8D08F00BF0000F03F2DE9F04FF1
:102B100083B09DF830A043B39B460027BAF1000F65
:102B200026D0CDE9000253469946BA460F46019B8E
:102B30001AFB09F503EBC506009B09EB050807EB3B
:102B4000C50407EBC80803EBC505F4E80201F6E885
:102B50000223FDF7E7FB4445E5E80201F5D10AF160
:102B6000010A5FFA8AFADA45E1D303B0BDE8F08FD3
:102B70000137FFB2BB45F8D90137FFB2BB45F7D8E3
:102B8000F3E700BF002A38D02DE9F04F9A4683B012
:102B90004FF0000923B357EC106BCB460090019225
:102BA00089461BFB0AF5009B0AEB050809EBC504E7
:102BB00009EBC80803EBC505F4E8020132463B46C1
:102BC000FDF766FD4445E5E80201F5D1019B0BF1F7
:102BD000010B5FFA8BFB5B45E3D803B0BDE8F08FD8
:102BE00009F101095FFA89F94A45F6D909F10109A4
:102BF0005FFA89F94A45F3D8EFE770470000000013
:102C00002DE9F04F89B003929DF848C09DF84C2003
:102C10000690002B4AD00F464FEAC20919460026FB
:102C2000002A46D007930192019ACDF800C01CFB00
:102C300006F316FB02FBCDE90467069A0CEB0308CA
:102C400007EBC30302EBCB0B029307EBC8084FF073
:102C5000000A9FED1D7B009BABEC027BC3B1039B85
:102C6000029E03EBCA0700240025D7E90023F6E8FB
:102C70000201FDF70DFD02460B4620462946FDF7F1
:102C800051FBB04504460D464BE902454F44ECD19B
:102C9000019B0AF1010A9A45DBD1DDE90467731C47
:102CA000DEB2079BDDF800C0B342BDD809B0BDE875
:102CB000F08F0136F6B2B142F8D90136F6B2B14220
:102CC000F7D8F3E7AFF30080000000000000000039
:102CD00070B501218AB01D4D1D4C0420FFF7EEF99F
:102CE00001210220FFF7F6F9402240F20223694653
:102CF00028460092ADF80430FFF796F92B6A43F0AE
:102D0000007344F61F622B620026532302A920465B
:102D100003920293ADF81060FFF7E8F90D4B0593AD
:102D200005A92046ADF82060FFF746FA20460821A5
:102D3000FFF786FA01212046FFF730FA23889BB27D
:102D400043F0800323800AB070BD00BF000802403A
:102D500000040040600001001B4B1A6822F440325E
:102D60001A601A6822F440221A601A6842F400328B
:102D70001A601A6842F400221A605A6842F480729B
:102D80005A605A684FF4403042F400724FF44021C8
:102D90005A6098609960DA6822F44032DA60DA6842
:102DA00022F44022DA60DA6842F48032DA60DA68CB
:102DB00042F48022DA605A6A42F004025A625A6A85
:102DC00042F040025A627047000402401F4B9A884A
:102DD00022F03F021204120C9A809A8892B242F0BA
:102DE00004029A801A8C22F03F021204120C1A84F8
:102DF0001A8C92B242F4805242F001021A841A886C
:102E000092B242F001021A801A8822F020021204C3
:102E1000120C1A801A8922F07F021204120C1A81F5
:102E20001A8992B242F001021A819A8BC2F30E0201
:102E30009A839A8B02F470429A839A8B92B242F4EC
:102E40002B5242F038029A83704700BF0054004072
:102E50000D498A8A0B8B02F08200822892B29BB2C3
:102E600001D00020704703F003000328F9D113F0CC
:102E70000400F7D0930504D58B8A9BB243F480639A
:102E80008B820120704700BF005400400A4B988A93
:102E900010F004000ED0988A10F080000AD0188B31
:102EA00010F0010006D0188B10F002001CBF188B28
:102EB000C0F38000704700BF00540040DFF8D0C06E
:102EC000F8B506460F4614461D46BCF818309B0759
:102ED000FBD4BCF800202E4B92B242F48072ACF8C6
:102EE00000209A8AD007FCD51A8BD107F9D51A8B06
:102EF0009207F6D506F0FE021A82FFF7A9FF002816
:102F0000FBD0234B1F82FFF7C1FF0028FBD0204AD4
:102F100013889BB243F480731380938AD807FCD53F
:102F2000138BD907F9D5138B9B07F6D546F001060D
:102F3000174B16829A8A9707FCD51A8BD607F9D5B4
:102F40001A8B9007F6D51A8822F400721204120C1C
:102F50001A801A8892B242F480621A8055B10C48E5
:102F600022466319818A4906FCD5018A02F8011BB1
:102F70009342F7D1064A138823F480631B041B0C89
:102F8000138013889BB243F400731380F8BD00BF15
:102F900000540040F8B5174D0F4616462B8B9C0782
:102FA000FCD42B88134C9BB243F480732B80A38AF0
:102FB000D907FCD5238BDA07F9D5238B9B07F6D5E8
:102FC00000F0FE002082FFF743FF0028FBD0094BF2
:102FD0001F82FFF75BFF0028FBD0064B1E82FFF726
:102FE00055FF0028FBD0034A13889BB243F40073BB
:102FF0001380F8BD00540040F8B51C4C23889BB2E8
:1030000043F480630F4616462380238B9D07FCD430
:103010002388164D9BB243F480732380AB8ADC0770
:10302000FCD52B8BD907F9D52B8B9A07F6D500F059
:10303000FE002882FFF70CFF0028FBD00B4A178206
:10304000938A1B06FCD51682FFF720FF0028FBD0D1
:10305000064A13889BB243F400731380138823F449
:1030600080631B041B0C1380F8BD00BF005400409C
:1030700008B5074B1A6B42F002021A631A6C42F44D
:1030800000121A64FFF768FEBDE80840FFF79EBE15
:103090000038024059494B6C10B5594C002243F09E
:1030A00001034B64E2622288564B22F010021204A4
:1030B000120C2280228D92B242F053022285E26AE3
:1030C00042F49C4242F01F02E262A28A92B242F0B3
:1030D0000202A282228892B242F0800222800A6B0F
:1030E00042F001020A63596A0122114359621868C9
:1030F00020F440301860186840F4003018605868B8
:1031000020F480705860986840F400309860D86867
:1031100020F44030D860238B9BB213432383238B4E
:1031200023F00C031B041B0C2383238B23F0F003DD
:103130001B041B0C2383238C9BB213432384238CFB
:1031400023F002031B041B0C2384238C23F00803AD
:103150001B041B0C2384238B9BB243F40073238337
:10316000238B23F440631B041B0C2383238BC3F3A7
:103170000B032383238C9BB243F010032384238C03
:103180009BB243F020032384238C9BB243F0800343
:103190002384238923F00A031B041B0C2381238926
:1031A0009BB243F004032381238923F070031B04A3
:1031B0001B0C238123899BB243F050032381238975
:1031C0009BB243F0800382B0022123812046FFF7A7
:1031D00041F84FF4A060FEF7EDFE0B4B019301A800
:1031E000FEF7F2FEA3899BB243F00203A38123887A
:1031F0009BB243F00103238002B010BD00380240AF
:1032000000000140000002401B02010138B51E48C9
:103210000221FFF729F8012812D01C4CE3684FF473
:103220007A7202FB03F3A3F57423194AA3F5C5636D
:10323000A2FB03239B09174A03F57A73136038BD79
:1032400004461148144DFFF703F80130B0F5805FD4
:1032500008D82B68012B06D00C4C0B480221FFF735
:103260000FF8DBE72C600848084CFEF7F1FF0B4B2A
:1032700019684A1C0130082A44F821001A60ECD968
:1032800000221A602A60E8E700000140080A0020D6
:10329000D34D6210300A0020000A0020040A0020EA
:1032A00008B5FFF763FB4FF47A7000F0ABFFF8E767
:1032B00008B5642000F0A6FFFBE700BF08B5FFF7E4
:1032C0005DFB4FF4FA6000F09DFFF8E710B5124C7B
:1032D000FFF720FA114801F00BF92388013323800E
:1032E000FFF7C6FE0E4801F003F92388013323805F
:1032F000FFF73EFA0B4801F0FBF8238801332380E7
:10330000FFF7C8FEFFF7E4FC074801F0F1F8BDE85D
:103310001040FF2000F0AABE340A00206099000887
:103320007C99000890990008A4990008000000000A
:1033300000B5334C334EA7B02046FFF78FFAD4E9DF
:103340000423CDE9022394ED027BD4E900232E4827
:103350008DED007B01F06CF82C4900220023002049
:103360009FED258BCDE91823CDE91601CDE91A2370
:10337000CDE91C23CDE90423CDE90623CDE90823BB
:10338000CDE91023CDE91223CDE914230AA8FFF7D4
:1033900003FAB0EE480AF0EE680A0AAB04AA1EA9C6
:1033A00016A8FEF779FF0DF1780EBEE80F000DF1BB
:1033B000580CACE80F009EE80F000AAD8CE80F0037
:1033C0000FCD04AC0FC495E8030084E8030010A9F6
:1033D00016A8FFF7DBFADDE91201DDE91445CDE9B6
:1033E0000001DDE91023CDE90245304601F020F867
:1033F000642000F007FFC9E79A9999999999B93F14
:10340000E8090020D8990008BC9900080000F03FA6
:1034100070B5364886B000F0B5F8FFF783FA344B44
:10342000344A3548002406254FF40066CDE90136BC
:1034300000952B462146CDE9034400F0B3FD284614
:103440002E4A2F4900F020FE2E4B2F4A2F480725E9
:10345000CDE9013600952B462146CDE9034400F025
:10346000A1FD28462A4A2B4900F00EFE2A4B2B4A82
:103470002B480825CDE9013600952B462146CDE99C
:10348000034400F08FFD274A2749284600F0FCFD41
:1034900040F6B83000F0B6FE244B254A25480925F1
:1034A0004FF4C061CDE90131CDE903442B462146FB
:1034B000009500F077FD204A2049284600F0E4FD01
:1034C00041F2883000F09EFE0A2321461C4A1D4826
:1034D00000F01CFD1C4A1D490A2000F0D5FDFF200C
:1034E00006B0BDE8704000F0C1BD00BF40D10C0087
:1034F0003882002034A20020A1320008EC99000894
:10350000F89900083862002034820020BD3200089B
:10351000009A00080C9A000838420020346200200B
:10352000CD320008149A0008289A0008382A002092
:1035300034420020B1320008389A0008449A00084A
:10354000342A0020313300084C9A00085C9A0008A5
:1035500008B500F0B1F80223064A0748002100F040
:10356000D5FC064A0649022000F08EFD00F0E6F97F
:10357000002008BD34C2002011340008689A0008F9
:10358000789A00084FF0E02301385A6910435861D7
:1035900059699A690A439A611A6942F004021A61E8
:1035A0001A6942F002021A611A6942F001021A61B4
:1035B000704700BF08B5094B4FF4806200211846E0
:1035C000FDF75CFE0346064A064803F5806323F0D8
:1035D000070340210360116008BD00BF40C2002006
:1035E00038C200203CC20020704700BF704700BFB7
:1035F000704700BF704700BF704700BF704700BFF3
:10360000131D1B4A30B423F0070343E903204FF096
:1036100080744FF012354FF0033243E905254FF027
:1036200001306FF0020243F8044C4FF0023443E9DA
:10363000070443E909214FF004344FF005304FF0FF
:1036400006314FF0073243E9114043E90F124FF0C2
:1036500008344FF009304FF010314FF0113243E988
:103660000D4043E90B12A3F1440030BC704700BF8A
:10367000E1410008704700BF10B54020FCF7AFFDE6
:10368000044600F0F5F82046FCF7B7FD00F086F997
:10369000BDE8104000F0FCB810B5064C4020FCF727
:1036A0009EFD236801332360FCF7A7FDFFF7A2FF0F
:1036B000F4E700BF74D1002070B588B0FFF77AFF3F
:1036C0004B4A4C494C484D4B002414704C4A0C60FA
:1036D00014704C494C4A04700C7014604B484C4AAE
:1036E0004C49046014600C604B4A4C484C491470BF
:1036F00004700C704B4A4C484C491470C3E90044A8
:103700004B4B04700C604FF4E762214649481C6043
:10371000FDF7B4FD4FF4807221464748474CFDF752
:10372000ADFD474B03F2E46243F8084C43F8403CDC
:1037300054339A42F8D14349434A3E4B1360002523
:103740000D60EC224148C3F8F8562946C3F83047CB
:10375000FDF794FD3E4B03F1D80203F8185C43F8E3
:10376000044C43F8143C18339A42F6D1374B394A8B
:1037700083F8D850C3F8DC50C3F8EC40136000F075
:10378000C7FA00F0F9FA00F01BFB334A334803266E
:1037900080244FF6FF73CDE901240093CDE9035651
:1037A0003F2302F5FE72002100F0FCFB0DF11F0229
:1037B0002B493F2000F068FC2A4A2B484FF6FE7345
:1037C000CDE901240093CDE903563E2302F5FE72B4
:1037D000002100F0E7FB25490DF11F023E2000F01B
:1037E00053FCFFF701FF08B0BDE8704000F08EBA4F
:1037F00088D1002040C6002087D100207CD1002045
:1038000078D1002079D10020E4D4002074D10020A8
:1038100090D3002094D300208CD3002044C60020F5
:1038200084D1002086D1002085D1002068CF0020DF
:1038300070CF00202CC7002064CE0020849A00089E
:1038400080C7002064CF00206CCF0020F0D3002080
:1038500008D40020E0D4002074CF0020993600085E
:10386000889A00088CD10020453B0008989A0008EF
:10387000054B1B78012B05D1044A1378FF2B1CBF85
:1038800001331370704700BF79D1002088D1002028
:103890001F4B1B78012B00D0704710B5402082B021
:1038A000FCF79DFC1B4A13783BB91B4B1B7873B18B
:1038B00002B0BDE81040FCF7A0BC013BDBB21370C6
:1038C000002BF2D002B0BDE81040FCF796BC134AC2
:1038D000134B127813499A5C134C895C5B5C134957
:1038E00003EBC203DBB2124A09782370114C52F881
:1038F000232022609942DBD00F4C916B236801900A
:103900000131013391632360FCF7BEFC0198CFE7DE
:1039100079D1002088D1002087D1002084D10020D7
:10392000E49B00087CD1002085D1002086D10020B6
:1039300064CE002068CF0020E4D400200E4B1B781A
:1039400003B1704730B40D4A0D4B12780D499A5CA3
:103950000D4C885C0D491B5C0D4D0E4803EBC203FA
:10396000DBB20B7023700C4955F82320026030BC89
:103970000A60FCF74BBC00BF79D1002084D1002045
:10398000E49B00087CD1002086D1002085D1002056
:1039900064CE002068CF002070CF002070B540209A
:1039A000FCF71DFC224A136801331360FCF725FC69
:1039B000204B1B78012B00D070BD1F490A78012ACB
:1039C000FAD0022A01D00AB100230B701B4B1C68ED
:1039D00094F832303F2BEFD0194E1A4D4020FCF7AF
:1039E000FEFBE36A5A1EDBB1E262CAB994F83030DA
:1039F00013F0370204D003F0C80384F830300122FA
:103A00001B0784F831200BD4327894F8363094F8C0
:103A10003510134394F834203370AB5C0B43AB5434
:103A20006469FCF7EAFB94F832303F2BD6D170BDC5
:103A300040C6002079D1002028C7002064CF002094
:103A400084D100207CD10020704700BF90F8342042
:103A500090F835C00A44D37A23EA0C03D3722BB909
:103A600090F836208B7A23EA02038B720023C3611D
:103A7000704700BF0A4611B10021FDF7FFBB704738
:103A800010B5402082B0FCF7AAFB164B164A1B78F3
:103A90001278134304D002B0BDE81040FCF7ADBB70
:103AA000124A134B127813499A5C134C895C5B5C85
:103AB000124903EBC203DBB2114A09782370114C9F
:103AC00052F8232022609942E5D00F4C916B236875
:103AD00001900131013391632360FCF7D5FB01981C
:103AE000D9E700BF88D1002087D1002084D10020F1
:103AF000E49B00087CD1002085D1002086D10020E5
:103B000064CE002068CF0020E4D4002030B50C4DF6
:103B100083B000246946E0B200F0E0FA58B955F8E5
:103B2000243043B1012B06D0D3E90220019902EBE6
:103B30008002C3E911210134402CEBD103B030BD28
:103B400064CE00202DE9F843284C23782BB91420AB
:103B500000F058FB2378002BF9D0254E254B326816
:103B6000254FA3FB02135B09632A336037D940203A
:103B7000FCF735FB3368214C214DDFF87880642257
:103B800002FB03F32360FCF738FB012000F03AFB53
:103B90004020FCF724FB4FF00009C4F80090FCF72C
:103BA0002CFB0A2000F02EFB4020FCF718FB2368BA
:103BB0002B60FCF722FB2A683368B2FBF3F3C3F1F6
:103BC0006403D9B21B0604D5A8FB02325209494648
:103BD00032603970FFF712FDFFF798FFD5E7002339
:103BE000FF203B7000F0B2FAC1E700BF8CD3002089
:103BF00094D300201F85EB5198D3002074D100206E
:103C000090D300202DE9F047394DBDF828800646B5
:103C10004020894692461F46FCF7E1FA2C68002CAA
:103C200061D063692B60FCF7E8FA099B63600025AB
:103C3000089BE3602B4606F0070166F30703F008D4
:103C4000012261F30F2360F3174302FA01F161F3DC
:103C50001F638240C4F83230264B84F83620E36478
:103C60002046C4E90855C4E90F55C4E91155C4F804
:103C70000090C4F808A0A4F8108067822586E56249
:103C800084F83750E561A5632565FFF7F3FC402014
:103C9000FCF7A5FA184B43F82640FCF7AEFA20468D
:103CA000FFF7A4FC4020FCF79AFA144A1368C4E911
:103CB000053503B19C61124D94F836302F7894F895
:103CC0003410146094F835600E4C0F4A3B432B704F
:103CD000635C33436354137801331370FCF78DFA3C
:103CE0000020BDE8F087FCF788FA4220BDE8F087A5
:103CF0006CCF0020849A000864CE002064CF00209E
:103D000084D100207CD1002078D10020704700BFF2
:103D100008B50D485021FFF7ADFE0C4B0C4903F1DF
:103D20004000002203F8102C43F8041C43F80C3C1C
:103D300010338342F6D1044B064883F840205A647E
:103D4000D964036008BD00BFA0D30020B0D3002019
:103D5000849A00089CD30020D0E9003232B113606D
:103D600003B15A60836800225A627047C1684B6091
:103D7000002BF6D1F6E700BF10B50E4C7821204697
:103D8000FFF778FE04F1300104F118000A4AE161FE
:103D900004F16001094B6060E16404F14800002116
:103DA0006361E36260636364E36561666367146033
:103DB00010BD00BFACC6002024C70020849A0008B4
:103DC00010B5094C60212046FFF754FE234604F14C
:103DD000180043F8300B054AA361002104F14800A4
:103DE0002063A164146010BD48C60020A8C600204E
:103DF0002DE9F04105464020FCF7F1F9FF2D06467C
:103E000003D1384B1B6893F83250DFF8FC8058F828
:103E10002540002C5CD0012C5FD0334B94F834103B
:103E200094F835005A5C22EA00025A5494F834207F
:103E30009B5C33B92D4A94F83610137823EA0103BA
:103E40001370E16911B12046FFF700FE606A08B106
:103E5000FFF782FF264F0023E36223863B78FF2B88
:103E600018BF0133304618BF3B70FCF7C6F9FFF7A7
:103E7000EBFD4020FCF7B3F93B780646F3B920464A
:103E8000FFF7B6FB1B49002348F825300B78A269E1
:103E9000013B0B706369A2B153619A61164B174ADB
:103EA00019686161E26430461C60FCF7A6F9144BA6
:103EB0001B78012B09D00020BDE8F081013B3B704D
:103EC000DDE710499A610B60E8E7FFF7D9FDF2E7FB
:103ED0003046FCF792F94320EEE73046FCF78DF9C7
:103EE0003D20E9E770CF00207CD1002084D1002064
:103EF00087D1002078D100206CCF0020849A000860
:103F000079D1002064CF002064CE00202DE9F04359
:103F1000064685B040201C460F469046FCF75FF9E8
:103F20001D4B1B7883BBDFF8789059F8245035B1CE
:103F3000FCF763F92826304605B0BDE8F08301237D
:103F400049F82430FCF759F92B46424639463046A9
:103F5000FFF756FBCDE90155014600952B462A4651
:103F60002046FFF74FFE064630B90C4B1B78012B5D
:103F7000E1D1FFF785FDDEE74020FCF730F949F895
:103F80002450FCF73AF9D6E7FCF737F93C263046DF
:103F900005B0BDE8F08300BF88D1002079D10020B2
:103FA00064CE00202DE9F04F85B0054640201C4628
:103FB000BDF838A0BDF848900E461746FCF70FF93B
:103FC000274B1B78002B43D1DFF89C8058F824B096
:103FD000BBF1000F06D0FCF710F92825284605B0E4
:103FE000BDE8F08F012348F82430FCF706F909F00A
:103FF0000303032B23D03A46314628464B46FFF7AE
:10400000FFFA119B0193109B009301460F9ACDF884
:10401000089053462046FFF7F5FD054630B9114B91
:104020001B78012BDAD1FFF72BFDD7E74020FCF7F7
:10403000D6F8002348F82430FCF7DFF8CEE7109BD1
:10404000002BD8D00F9859469A00FDF717F9D2E700
:10405000FCF7D3F83C25284605B0BDE8F08F00BF3B
:1040600088D1002079D1002064CE0020054B1A7839
:104070001AB93F2803D0FFF7BBBE402070473E204F
:10408000704700BF88D10020F8B5114B1E78154647
:1040900016B112262E70F8BD044640200F46FCF7DC
:1040A0009EF8FF2C03D10B4B1B6893F832400A4B50
:1040B00053F8243033B1012B04D0DF64FCF79DF8B2
:1040C0002E70F8BD4326FCF798F82E70F8BD00BF9F
:1040D00088D1002070CF002064CE0020002370B56E
:1040E000C1E90033044640200D46FCF778F8FF2C68
:1040F00003D1144B1B6893F83240134B53F8243010
:10410000D3B1012B18D01A8AD20711D5D3E90246B0
:10411000FCF773F8234653F8042B8AB953F8040BC1
:1041200001320028FAD0B61AC5E90026002070BD79
:10413000FCF763F8452070BDFCF75FF8432070BDC5
:104140000022F1E770CF002064CE002038B504468D
:104150004020FCF744F8FF2C1D4B29D01B6893F836
:1041600032502D1BB5FA85F56D091A4B53F82430E2
:1041700033B3012B28D093F83410174C93F835C083
:10418000625C22EA0C02625452B193F8302042F091
:10419000080283F83020FCF730F875B9002038BDEC
:1041A0000E4993F836400A7822EA04020A70ECE7D6
:1041B0001B68012593F83240D7E7FFF761FCEDE774
:1041C000FCF71BF8482038BDFCF717F8432038BD32
:1041D00070CF002064CE00207CD1002084D100204C
:1041E00008B5064B1868FFF707FA054B1B7823B98B
:1041F000BDE80840FF20FFF7FBBD08BD70CF0020E1
:1042000088D1002038B5154A154B12781B78134316
:1042100002D10928044600D838BD4020FBF7DFFF53
:10422000104B114D1A6892F8341092F835C06B5C3F
:1042300023EA0C036B5433B90C4992F836500B78CF
:1042400023EA05030B700A4BA3FB0413DB08D362BC
:10425000FBF7D3FFBDE83840FFF712BC87D1002041
:1042600088D1002070CF00207CD1002084D1002094
:10427000CDCCCCCCDFF834D00D480E490E4A00230B
:1042800002E0D458C4500433C4188C42F9D30B4A0A
:104290000B4C002301E013600432A242FBD300F078
:1042A00013F8FDF791F8FFF753F9704700800120EC
:1042B00000000020B4060020709F0008B80600200F
:1042C000ECD40020FEE700003848394AD0F88830A6
:1042D00043F47003C0F888301368002143F00103F1
:1042E000136091601368A0F1BC2023F0847323F461
:1042F0008033F03813605060136882B023F4802359
:104300001360D16000910191136843F4803313600E
:1043100003E0009BB3F5A04F09D0136803F400330A
:104320000193009B01330093019B002BF1D0204BA4
:104330001B6813F4003318BF01230193019B012B69
:1043400005D01A4B4FF000629A6002B07047184BCC
:1043500018491A6C184842F080521A640A6842F4EC
:1043600040420A609A689A609A689A609A6842F431
:1043700080529A6058601A6842F080721A601A6817
:104380009201FCD50D4A40F205711160996821F047
:1043900003019960996841F00201A2F58062996079
:1043A000936803F00C03082BFAD1CAE700ED00E094
:1043B000003802400070004008544107003C0240B1
:1043C0004FF400534B600020704700BF012070473E
:1043D0004FF0FF30704700BF0020704770B5161EC9
:1043E00007DD0C468D1914F8010BFEF771F9A54293
:1043F000F9D1304670BD00BF00207047044A05491E
:104400001368002B08BF0B4618441060184670470D
:10441000E8D40020F0D40020024B16221A604FF09E
:10442000FF3070471008002001207047FEE700BFF2
:104430000FB400B5074983B004AB086853F8042BE8
:104440008168019300F05CF803B05DF804EB04B000
:10445000704700BF0C00002070B5054688B00846C4
:104460000C46FCF7ADFC214E6A6B05900121431808
:10447000CDE9066104A8022104940393AC6801907D
:104480000291002A2ED0626EB4F90C30D60701D406
:10449000980521D5990406D4626E43F4005322F4A2
:1044A0000052A3816266284601AA214602F008FD57
:1044B000636E00280CBF0A254FF0FF35DA0702D4DF
:1044C000A3899B0502D5284608B070BDA06DFCF7F6
:1044D000BDFF284608B070BDA06DFCF7B5FFB4F96C
:1044E0000C30D7E72846FCF733FECCE708990008E4
:1044F000024B01461868FFF7AFBF00BF0C00002059
:104500002DE9F04F2DED028BD3B01C46CDE90610FE
:104510009246054602F0DCFF0368139318460B949D
:10452000FCF74EFC12901DB16B6B002B01F08380E9
:10453000069A536EB2F90C20DE0702D4950540F1BD
:10454000BE86900407D406994B6E42F4005223F4C1
:1045500000538A814B66110740F1CA80069B1B6994
:10456000002B00F0C58002F01A030A2B00F0CF8068
:104570000023CDF810A0CDE92733CDE91533CDE9DF
:1045800017330E9314930993049B9FED8B7B1B7839
:1045900029AA8DED107B26929346002B00F09A817C
:1045A000DDF810A004E01AF8013F002B00F0C680EF
:1045B000252BF8D1049BBAEB030540F0C4809AF890
:1045C0000030002B00F0868100239AF801508DF80E
:1045D0007B3008930AF1010A4FF0FF3903930AF187
:1045E000010AA5F120035A2B00F2EA80DFE813F05C
:1045F000CE02E800E800C702E800E800E8006A0030
:10460000E800E8007002A102E8007B02AE02E800C8
:10461000A7025B005B005B005B005B005B005B0074
:104620005B005B00E800E800E800E800E800E80064
:10463000E8007901E800FC01D301790179017901F1
:10464000E800E800E800E800FE02E800E8002E02CA
:10465000E800E800E8000602E800E302E800E800FD
:104660002F07E800E800E800E800E800E800E800BC
:10467000E8007901E800FC01D701790179017901AD
:10468000D902D701CC01E8000503E800820232021A
:104690009002CC01E80006027D002C07E800E8004B
:1046A0005207E8007D00A5F1300300221AF8015BF3
:1046B00002EB820203EB4202A5F13003092BF5D98C
:1046C00008928EE7079D284602F002FF4368179381
:1046D0001846FCF775FB18900446284602F0F8FED1
:1046E00083681593002C40F08D869AF8005076E789
:1046F000069D0798294602F063FD002841F0448397
:10470000B5F90C2002F01A030A2B7FF431AF069999
:10471000B1F90E30002BFFF62BAF4B6EDE0702D443
:10472000950541F17C81DDE906102346524653B0E0
:10473000BDEC028BBDE8F04F01F054BC049BBAEB1A
:10474000030500F0C780049B289FCBE90035279B19
:1047500001332F44072B2897279305DC0BF1080B17
:10476000099B2B4409932AE7DDE9061026AA01F0EC
:10477000B5FC80B90DF1A40BF2E7DDE9061026AA1D
:1047800001F0ACFC002800F094800A9B1BB1079854
:104790001946FCF703FF069B5A6EB3F90C30D40799
:1047A00040F1E880590601F1FB82099853B0BDEC55
:1047B000028BBDE8F08F00BF000000000000000089
:1047C000002D00F0878000228DF8E4508DF87B20CA
:1047D0000123CDE90C2205931E4639AB0A9291467E
:1047E0000F920493039B13F0020302D00599023148
:1047F0000591039911F0840405D1089905980F1AC1
:10480000002F00F38583289F8AB1279A0DF17B0141
:1048100001320137CBF80010072A4FF00101289729
:104820002792CBF8041000F3D7830BF1080B83B168
:10483000279B1FAA01330237CBF80020072B4FF02C
:10484000020228972793CBF8042000F3D3830BF1BF
:10485000080B802C00F05482A9EB0608B8F1000F79
:1048600000F39A82039BDC0500F1D181049BCBF815
:104870000030279BCBF804600133F519072B2895EE
:10488000279300F3E9820BF1080B039B5E0705D524
:10489000089B059A9C1A002C00F3B883DDE90823D5
:1048A00005998A42ACBF9B185B180993002D7FF4D1
:1048B00064AF002327930A9B1BB10A990798FCF762
:1048C0006DFE0DF1A40BCDF810A0049B1B78002BFE
:1048D0007FF466AE289B002B41F0238200232793B0
:1048E00059E70B9B073323F00703B3EC027B57EC2C
:1048F000176B0B9327F000431B938DED1A7ADDE9BC
:104900001A01B64B4FF0FF328DED107BFCF718FB10
:10491000002840F01A85DDE91A01B04B4FF0FF3254
:10492000FCF732F9002840F01085002200233046C1
:104930003946FCF71FF9002840F015879DF87B20C9
:10494000039BA74C23F080030393A64B472DC8BFBE
:104950001C460023CDE90C33032104940A930591EE
:104960000E4699460F93002A3FF43CAF059B013356
:10497000059337E798053FF515AF069CA06DFCF74A
:1049800065FDB4F90C300DE7039B9AF8005043F035
:104990002003039323E6039B43F010030393039B3D
:1049A0009C0640F153840B9B073323F007031A4600
:1049B000596852F8083B0B920A460029C0F27784E6
:1049C000B9F1FF3F00F0F982039921F0800653EA24
:1049D000020140F0F382B9F1000F40F0F482039637
:1049E00052AB4E46049365E00B9B002253F8041B28
:1049F0008DF87B208DF8E4100B93E9E60B9F57F8B8
:104A0000043B049300268DF87B60002B00F0778533
:104A1000B9F1FF3F00F05C8604984A463146FCF746
:104A20003FFA0A90002801F060810A9B049A0B97D4
:104A3000B1469E1A26EAE673CDE90C999DF87B20D3
:104A40000593CDF82890CDF83C908CE7039B43F07C
:104A500010030393039B13F0200200F016840B9BBA
:104A6000073323F0070319465A6851F8083B0B91A6
:104A7000039921F4806600210020B9F1FF3F8DF8F1
:104A80007B0000F0218126F08000039053EA0200B1
:104A900040F01981B9F1000F40F0D28500299FD173
:104AA00016F001061BBF30238DF8473152AB0DF2D3
:104AB000471304934E454FF000033146B8BF4946B3
:104AC000CDE90C339DF87B200A9305910F934AE7BB
:104AD0000B9B53F8042B0892002A80F2F883089A63
:104AE0000B9352420892039B9AF8005043F0040340
:104AF000039374E5039B9E0640F194840B9B099AF3
:104B00001B681A60D2175A600B9B04330B93DAE6CA
:104B10000B9A039B43F0020652F8043B0B9247F6B4
:104B20003002ADF87C20304A149202210022782510
:104B3000A2E72B239AF800508DF87B304FE5039BBA
:104B40009AF8005043F08003039348E5524612F868
:104B5000015B2A2D01F02282A5F13003092B924638
:104B60004FF000093FF63DAD1AF8015B09EB8909EA
:104B700003EB4909A5F13003092BF5D931E5039B76
:104B80009AF8005043F00103039328E59DF87B3029
:104B90009AF80050002B7FF422AD20238DF87B3053
:104BA0001DE59AF80050039B682D00F0898443F0BE
:104BB0004003039313E5039B43F0100616F0200215
:104BC00000F054830B9B073323F0070319465A6800
:104BD00051F8083B0B9101214EE700BFFFFFEF7F2B
:104BE000A89A0008AC9A0008B89A0008039B9AF8A3
:104BF000005043F008030393F1E49AF80050039B3C
:104C00006C2D00F0738443F010030393E7E4652DEB
:104C100040F32E81DDE9100100220023FBF7A0FF05
:104C2000002800F02F82279BB74ACBF800200133E1
:104C300001370122072B28972793CBF8042000F394
:104C400004850BF1080B209B0E9A934204DB039B17
:104C5000D80701D43D4618E6129B139ADD19CBE91B
:104C60000023279B28950133072B279300F33184DA
:104C70000BF1080B0E9B5C1E002C7FF706AE102C70
:104C8000279BA24F40F3EE84DDE90698102605E04D
:104C90000BF1080B103C102C40F3E4840133103569
:104CA000072BCBE90076CDE92735F1DD26AA494669
:104CB000404601F013FA00287FF467ADDDE927359F
:104CC0000DF1A40BE6E7039E012900F0778102298C
:104CD00000F0608152AC03F00701DB0843EA427345
:104CE000D208303153EA0207204604F8011DF2D100
:104CF000F707049400F1478252AB03961E1BD9E6D6
:104D0000089B059AA3EB0208B8F1000F7FF7A4AD4A
:104D1000B8F1100F3A46279B7C4F29DD19961C9558
:104D20001024DDE90656194606E0A8F11008B8F18E
:104D3000100F0BF1080B18DD013110320729CBE9F8
:104D40000074CDE92712F0DD26AA294630460DF180
:104D5000A40B01F0C3F900287FF417ADA8F11008E7
:104D6000B8F1100FDDE92712E6DC199E1C9D0B46F9
:104D70000133CBF80070072B08EB0207CDE927378A
:104D8000CBF8048000F38F83A9EB0608B8F1000F7D
:104D90000BF1080B7FF766ADB8F1100F3A46279B71
:104DA0005A4F2CDD5946079CC3464FF01009B846B0
:104DB0002F46069D06E0ABF1100BBBF1100F01F181
:104DC000080118DD013351481032072BC1E90009F1
:104DD000CDE92732EFDD26AA2946204601F07EF9EB
:104DE00000287FF4D2ACABF1100BBBF1100FDDE962
:104DF000273229A9E6DC3D464746D8468B46013393
:104E0000CBF80070072B08EB0207CDE92737CBF86A
:104E1000048000F30E820BF1080B23E5129B13981C
:104E20005919CBE90003279B28910133072B2793BE
:104E300000F3E6850BF1080B002AC0F28387049A81
:104E4000CBF800200E9ACBF8042001335518072B1D
:104E5000CDE927357FF717ADDDE9061026AA01F069
:104E60003DF900287FF491AC289D0DF1A40B0CE5D1
:104E70000E9B012B0BF1080640F39281049BCBF8AB
:104E80000030279B013301370122072B28972793F6
:104E9000CBF8042000F35383129A03F10108139B0B
:104EA000D519B8F1070FC6E90032CDE9278500F31F
:104EB000528308360E9BDDE9100103F1FF39002211
:104EC0000023FBF74DFE002840F08B81049CC6F8C0
:104ED000049008F1010801344D44B8F1070FCDE901
:104EE0002785346000F371810836169A726008F1E4
:104EF00001031544072B22AACDE927353260ABDC2C
:104F000006F1080BC1E400BFE89A0008E49C000821
:104F1000102FDDE92721DFF8E8842BDDCDE91C34F3
:104F20001996079C4646A846069D04E0103F102FA0
:104F30000BF1080B19DD013210311023072ACDE9DE
:104F40002721CBF80060CBF80430EFDD26AA2946F4
:104F500020460DF1A40B01F0C1F800287FF415AC38
:104F6000103F102FDDE92721E5DCDDE91C34454643
:104F7000B046199ECBF8008001323944072ACBF89D
:104F800004702891279200F346839DF87B200BF153
:104F9000080B38E4149C52A903F00F001B09205C95
:104FA00001F8010D43EA0273120953EA0200F3D13A
:104FB00052ABCDE903615E1A7CE5039E0A2B72F1C8
:104FC000000180F0D48230338DF847310DF2471361
:104FD0000396049301266DE5DDE9061026AA1993D0
:104FE00001F07CF800287FF4D0AB289F199B0DF1CD
:104FF000A40B1CE4DDE9061026AA01F06FF80028D6
:105000007FF4C3AB289F0DF1A40B22E4102C279B47
:10501000DFF8EC8323DD4746DDF81890DDF81C80CF
:10502000102604E0103C102C0BF1080B16DD0133A8
:105030001035072BCBE90076CDE92735F2DD26AA1E
:10504000494640460DF1A40B01F048F800287FF4D2
:105050009CAB103C102CDDE92735E8DCB846013369
:105060002544072BCBE90084CDE927357FF716AC23
:10507000DDE9061026AA01F031F800287FF485AB9F
:10508000289D0BE4209A002A40F326810C9E0E9B5B
:10509000049A9E42A8BF1E46002E134419930BDDAE
:1050A000279B01333744072BCBE90026289727930A
:1050B00000F3EE850BF1080B0C9D002EA8BFAD1B75
:1050C000002D00F3E282049B0C9A13449946039B43
:1050D000590500F10585209C0E9B9C4203DB039A39
:1050E000D20740F1DE83129B139ADD19CBE900232E
:1050F000279B28950133072B279300F3E8850BF1B5
:10510000080B0E9B1C1B199BA3EB0906A642A8BF0C
:105110002646002E0DDD279BCBF800900133354449
:10512000072BCBF804602895279300F3EA850BF151
:10513000080B002EA8BFA41B002C7FF7A6AB102CD9
:10514000279BAD4F40F38E82DDE90698102605E0DF
:105150000BF1080B103C102C40F384820133103506
:10516000072BCBE90076CDE92735F1DD26AA4946A4
:10517000404600F0B3FF00287FF407ABDDE9273598
:105180000DF1A40BE6E7302900F08781049A03961D
:105190003023023802F8013C52AB1E1A049089E415
:1051A000039BDB073FF56AAE049BCBF80030279BDF
:1051B00003F101087D1C0123B8F1070F2895CDF8F4
:1051C0009C80CBF804307FF790AEDDE9061026AA6C
:1051D00000F084FF00287FF4D8AADDE9278529AEF6
:1051E00083E60E9B012B7FF780AE112B824F40F39D
:1051F000788243461024DDE906B806E00836A9F1B6
:105200001009B9F1100F40F36B8201331035072BF1
:10521000C6E90074CDE92735F0DD26AA5946404697
:1052200000F05CFF00287FF4B0AADDE9273529AE45
:10523000E5E7DDE9061026AA00F050FF00287FF41C
:10524000A4AA289F0DF1A40BFFF70CBB0B9A52F8F0
:10525000043B0B92039AD00673D4039A51066CD583
:1052600043F3C03211461BB2FFF7A7BB0B9951F8AD
:10527000043B0B9116F010015CD116F0400054D0A5
:105280000A469BB20121FFF7F7BB0B9951F8043B8B
:105290000B91039911F010017FF4EAAB039A12F01D
:1052A000400000F032829BB20A46FFF7E1BB5B424E
:1052B000039E62EB42022D200121FFF7DEBB069D1B
:1052C000A86DFCF7C1F8B5F90C20FFF73AB99AF8C8
:1052D00000500B93FFF783B9279B4849CBF8001088
:1052E00001337D1C0121072B28952793CBF804104F
:1052F00000F3C0840BF1080B002A7FF48FAD039BF1
:105300000E9A03F0010313433FF4BFAA129B139AB2
:105310005919CBE90023279B28910133072B2793A9
:1053200000F36E830BF1080B89E516F400721CBFC5
:10533000DBB202460121FFF79FBB039A920500F101
:10534000B982DA171146FFF738BBDDE910010246D2
:105350000B46FBF7F5FD002840F0D985612D00F0E4
:10536000B484412D00F0B282B9F1FF3F00F098857E
:1053700025F02003472B04D1B9F1000F08BF4FF0EF
:105380000109DDE91001039C002944F480720592B3
:10539000C0F26284002341EC180B19930A93A5F123
:1053A0004103252B00F2E481DFE813F05203E20110
:1053B000E201E2014B034F03E201E201E201E201FB
:1053C000E201E201E201E201E201E201E201E201C5
:1053D000E201E201E201E201E201E201E201E201B5
:1053E000E201E201E201E201E201E201E201E201A5
:1053F000E201E2014B034F03E49C0008E89A000835
:10540000F49C0008159B9AF80050002B3FF4E7A885
:105410001B78002B3FF4E3A8039B43F480630393C2
:10542000FFF7DDB8039BDD0600F12981039B5C06D5
:1054300000F14682039B980540F121810B9B099A5C
:105440001B681A70FFF760BB039EFFF7B7BBBA4B30
:105450001493039B13F0200261D00B9B073323F0BE
:10546000070319465A6851F8083B0B910398C10786
:105470000AD553EA020107D040F00201039130211E
:105480008DF87D508DF87C10039921F480660221FF
:10549000FFF7F2BAA94B1493DBE7049A039652ABD9
:1054A0009E1AFFF707BBDDE9061026AA00F016FEDC
:1054B00000287FF46AA9289F0DF1A40BFFF7CCB94F
:1054C00043F400739AF8015003930AF1010AFFF7BD
:1054D00086B8DDE9061026AA00F000FE00287FF459
:1054E00054A9289D0DF1A40BFFF7C4BB43F0200382
:1054F0009AF8015003930AF1010AFFF770B84E467B
:10550000062E1A4628BF062699460A938C4B059606
:10551000CDE90C220B9704930F92FFF724BA0B9955
:1055200051F8043B0B91039911F010019ED1039A9D
:1055300012F0400000F0E2809BB20A4696E7DDE9F7
:10554000061026AA00F0CAFD00287FF41EA9DDE996
:10555000273729AEA0E4DDE9061026AA00F0BEFD3B
:1055600000287FF412A9DDE9278529AEA2E40021F5
:10557000CDE9045606F48067DFF8CC81159ECDF89E
:105580000CA052AC8C4605E00A2B72F1000235D318
:1055900053462A46991841F10001A8FB010525F060
:1055A000030000EB9500091A581A4FF0CC3562F150
:1055B000000E05FB00F508FB0E55A0FB08A00544F6
:1055C0000AF0010E0520AEFB000E40184FEA5A0A01
:1055D000303004F8010C4AEAC57A0CF1010C013CA8
:1055E0006D08002FD0D031788C45CDD1BCF1FF0FA4
:1055F000CAD00A2B72F1000280F0A8801596059E91
:10560000DDF80CA0049DCDF838C052ABCDE90364A1
:105610001E1BFFF74FBADDE9061026AA199300F00A
:105620005DFD00287FF4B1A89DF87B20199B0DF14A
:10563000A40BFFF7E8B80798FBF78AFDFEF778BFE1
:105640000129039E7FF443ABBDE4DDE9061026AAE1
:1056500000F044FD00287FF498A8289F0DF1A40BCA
:10566000FFF7F1BA01332544072BCBF80070CBF8D4
:105670000440CDE927357FF706A9FFF7EDBB0B9B6B
:10568000099A1B681A60FFF73FBA102D3A46279B0C
:105690002C4F42DDDDE90684102604E00BF1080BF7
:1056A000103D102D39DD01331032072BCBE9007688
:1056B000CDE92732F2DD26AA4146204600F00EFD54
:1056C00000287FF462A8DDE927320DF1A40BE7E79B
:1056D00004980B97FBF774FBB1460646FFF7AAB98F
:1056E000984608F101084D44B8F1070FCDE9278528
:1056F0003760C6F804907FF7F7AB66E5039A12F4BB
:1057000000721CBFDBB20246B0E6039A12F40072CC
:105710001CBFDBB20246FFF7ABB90133CBF8007018
:10572000072B05EB0207CDE92737CBF8045000F330
:105730007B810BF1080BC6E4CC9A0008B89A0008EC
:10574000E09A0008E49C0008CDCCCCCC189B1799BB
:10575000E41A1A46204601F081FE737803B101363F
:105760004FF0000C14E72D228DF87B20FFF7E8B8EE
:105770004F46022124AB019321AB00930798B0EE72
:10578000480AF0EE680A20AB3A4601F071FF672D37
:10579000049000F0D082472D00F08683049B25F012
:1057A0002008B8F1460F03EB070605D11B78302B14
:1057B00000F0BF83209F3E4451EC180B00220023D1
:1057C000FBF7CEF9002800F075813346049A9B1A46
:1057D0000E93209A0C92B8F1470F00F05881B8F15F
:1057E000460F00F0F582531E612D209300F0C28316
:1057F000412D40F0558150210120002BB6BFC2F150
:1058000001032B222D22092B8DF888108DF8892079
:1058100040F311830DF19706AC4F32461046A7FBBB
:105820000312D20802EB8201A3EB4101303100F8F0
:10583000011C19466329134600F1FF32EEDC3033B8
:1058400002F8013C831EB34280F0B3830DF189025C
:1058500013F8011B02F8011FB342F9D152AB181A19
:10586000A0F1AD0316930E9B169A012B03EB0206D3
:1058700040F32183129B1E4424F4806343F480731D
:1058800003930023CDE90C3326EAE6720F930592C9
:10589000199B002B40F007819DF87B209946FFF76C
:1058A00062B8199A1C1BA2EB0906A6423D46A8BF86
:1058B00026463EE443F3C01211465BB2FFF77DB8C3
:1058C0000B9B099A1B681A80FFF71EB958238DF8A5
:1058D0007D3030238DF87C30039BB9F1630F43F0AA
:1058E000020400F3838200230A9339AB0493039BE1
:1058F00043F481730593119B002BC0F2B0819DEDA1
:10590000108B00231993612D7FF449ADB0EE480A46
:10591000F0EE680A20A801F0DFFD00224FF07F536F
:1059200051EC100BFAF7B4FE0022002306460F4696
:10593000FBF716F9002840F0AA82654B039309F1A2
:10594000FF33CDE91C9B0D95CDE90E4ADDF81080A3
:10595000DDF80CB01D4605E000220023FBF700F93E
:10596000F0B94D465B4B002230463946FAF790FEBF
:105970000F460646FBF7FAFA0446FAF71FFE0B46F7
:10598000024639463046FAF7CBFC1BF80430C246D3
:1059900008F8013B6B1C05F1FF3906460F46DBD1C9
:1059A0004D4B0C950022304639460D9D0D94DDE996
:1059B0001C9B0E9CCDF838A0DDF83CA0FBF7F8F856
:1059C000002840F04782444B304639460022FBF71E
:1059D000C7F818B10D9BDF0700F13C820C9B002B30
:1059E000C0F253820C9B01334344302208F8012B50
:1059F0004345FBD1049A9B1A0E9325F02008E8E654
:105A0000DDE9061026AA00F069FB00287EF4BDAE91
:105A1000DDE92731209A0DF1A40BFFF70DBA886D4F
:105A2000FBF714FDFEF77FBEDDE9061026AA00F0A5
:105A300055FB00287EF4A9AE289F0DF1A40BFFF7BB
:105A400042BB09F10107022194E64F46032191E68A
:105A500020A8B0EE480AF0EE680A01F03DFD0022F1
:105A60004FF07F5351EC100BFAF712FE0022002387
:105A700006460F46FBF774F8002840F00882174BE3
:105A800003935CE7049A249B9B1A209A0E93D31CE1
:105A90000C9202DB914580F2C780531E023D209399
:105AA000E9B20020A9E62D228DF87B204FF00009F5
:105AB000FEF75CBF249BB342BFF488AE30215A1C72
:105AC00024921970249B9E42F9D87FE6CDCCCCCC91
:105AD000B89A0008000030400000E03FCC9A00086F
:105AE0000D99CDF870A05A463846B04E189BDDF897
:105AF00054A0DDF818B04F464FF01008DDF83C9088
