:020000040800F2
:100000000080012065550008B5550008B555000869
:10001000B5550008B5550008B555000800000000AA
:10002000000000000000000000000000B5550008BE
:10003000B555000800000000230300081B4B000812
:10004000B5550008B5550008B5550008B555000868
:10005000B5550008B5550008B5550008B555000858
:10006000B5550008B5550008B5550008B555000848
:10007000B5550008B5550008B5550008B555000838
:10008000B5550008B5550008B5550008000000003A
:10009000000000000000000000000000B55500084E
:1000A000B5550008B5550008B55500088947000842
:1000B000B5550008B5550008B5550008B5550008F8
:1000C000B5550008B5550008B5550008B5550008E8
:1000D000B5550008B5550008B555000800000000EA
:1000E000B5550008B5550008B555000800000000DA
:1000F000000000000000000000000000B5550008EE
:1001000000000000B5550008B5550008B5550008B9
:1001100000000000000000000000000000000000DF
:10012000B5550008B5550008B5550008B555000887
:10013000B5550008000000000000000000000000AD
:10014000000000000000000000000000B55500089D
:10015000B5550008B5550008B5550008B555000857
:10016000B5550008B555000800000000000000006B
:10017000000000000000000000000000000000007F
:1001800000000000B555000800000000000000005D
:04019000B555000859
:1001A00001F0FF01102A2BDB10F0070F08D010F828
:1001B000013B013A8B422DD010F0070F42B3F6D12C
:1001C000F0B441EA012141EA014122F007047FF045
:1001D00000070023F0E80256083C85EA010586EA9C
:1001E000010685FA47F5A3FA87F586FA47F6A5FAD8
:1001F00087F68EB9EED1F0BC01F0FF0102F00702E4
:1002000032B110F8013B013A83EA010313B1F8D18E
:100210000020704701387047002D06BF354603386F
:10022000073815F0010F07D1013015F4807F02BFA8
:10023000013015F4C03F0130F0BC0138704700BFF9
:10024000034613F8012B002AFBD1181A0138704716
:10025000EFF3098121B120ED108A4F490A6810603F
:100260007047B0EC108A4D490A681060704772B64A
:1002700002B4EFF3118180F31188BFF34F8FBFF306
:100280006F8F084602BC62B6704772B680F3118861
:10029000BFF34F8FBFF36F8F62B6704772B64EF6E3
:1002A0002250CEF2000040F2FF01C0F200010170C6
:1002B000002080F309884AF26C30C2F20000016825
:1002C00081F308883648012101704BF26220C2F2A6
:1002D00000004BF26121C2F200010A7802704BF279
:1002E0004C00C2F200004BF24401C2F200010A6865
:1002F0000260106880F30988EFF3148040F0020078
:1003000080F31488BFF36F8FBDE8F04F0FBCBDE8DA
:10031000005006BC62B6084722484FF08051016089
:10032000704772B64AF26832C2F20002116881F375
:100330001188BFF34F8FBFF36F8F62B6EFF3098061
:1003400020E9F04F4BF24C05C2F200052968086025
:1003500074464BF26220C2F200004BF26121C2F2FD
:1003600000010A7802704BF24401C2F200010A68EF
:100370002A6044F0040E1068B0E8F04F80F309885A
:100380004FF0000272B682F31188BFF34F8FBFF3B4
:100390006F8F62B6704700004CB0002044B0002060
:1003A00055B2002004ED00E081F0004102E000BF02
:1003B00083F0004330B54FEA41044FEA430594EA25
:1003C000050F08BF90EA020F1FBF54EA000C55EA60
:1003D000020C7FEA645C7FEA655C00F0E2804FEA31
:1003E0005454D4EB5555B8BF6D420CDD2C4480EA13
:1003F000020281EA030382EA000083EA010180EA43
:10040000020281EA0303362D88BF30BD11F0004F90
:100410004FEA01314FF4801C4CEA113102D04042C6
:1004200061EB410113F0004F4FEA03334CEA133301
:1004300002D0524263EB430394EA050F00F0A78019
:10044000A4F10104D5F1200E0DDB02FA0EFC22FA14
:1004500005F2801841F1000103FA0EF2801843FA08
:1004600005F359410EE0A5F120050EF1200E012AF9
:1004700003FA0EFC28BF4CF0020C43FA05F3C01837
:1004800051EBE37101F0004507D54FF0000EDCF1B0
:10049000000C7EEB00006EEB0101B1F5801F1BD359
:1004A000B1F5001F0CD349085FEA30004FEA3C0C5D
:1004B00004F101044FEA445212F5800F80F09A8053
:1004C000BCF1004F08BF5FEA500C50F1000041EB57
:1004D000045141EA050130BD5FEA4C0C404141EB5B
:1004E0000101013C28BFB1F5801FE9D291F0000F56
:1004F00004BF01460020B1FA81F308BF2033A3F105
:100500000B03B3F120020CDA0C3208DD02F1140CFB
:10051000C2F10C0201FA0CF021FA02F10CE002F136
:100520001402D8BFC2F1200C01FA02F120FA0CFC2F
:10053000DCBF41EA0C019040E41AA2BF01EB045178
:10054000294330BD6FEA04041F3C1CDA0C340EDC76
:1005500004F11404C4F1200220FA04F001FA02F3B9
:1005600040EA030021FA04F345EA030130BDC4F177
:100570000C04C4F1200220FA02F001FA04F340EA6C
:100580000300294630BD21FA04F0294630BD94F01D
:10059000000F83F4801306BF81F480110134013D04
:1005A0004EE77FEA645C18BF7FEA655C29D094EA75
:1005B000050F08BF90EA020F05D054EA000C04BFF3
:1005C0001946104630BD91EA030F1EBF00210020DE
:1005D00030BD5FEA545C05D14000494128BF41F07D
:1005E000004130BD14F580043CBF01F5801130BDE1
:1005F00001F0004545F0FE4141F470014FF000006C
:1006000030BD7FEA645C1ABF194610467FEA655C1C
:100610001CBF0B46024650EA013406BF52EA0335BE
:1006200091EA030F41F4002130BD00BF90F0000FAC
:1006300004BF0021704730B54FF4806404F13204E8
:100640004FF000054FF0000150E700BF90F0000FA1
:1006500004BF0021704730B54FF4806404F13204C8
:1006600010F0004548BF40424FF000013EE700BF98
:1006700042004FEAE2014FEA31014FEA02701FBF28
:1006800012F07F4393F07F4F81F06051704732F05A
:100690007F4208BF704793F07F4F04BF41F40021B1
:1006A000704730B54FF4607401F0004521F000410F
:1006B0001CE700BF50EA010208BF704730B54FF099
:1006C00000050AE050EA010208BF704730B511F09A
:1006D000004502D5404261EB41014FF4806404F1D2
:1006E00032045FEA915C3FF4D8AE4FF003025FEA58
:1006F000DC0C18BF03325FEADC0C18BF033202EBDC
:10070000DC02C2F1200300FA03FC20FA02F001FA35
:1007100003FE40EA0E0021FA02F11444BDE600BFD8
:1007200070B54FF0FF0C4CF4E06C1CEA11541DBF87
:100730001CEA135594EA0C0F95EA0C0F00F0DEF852
:100740002C4481EA030621EA4C5123EA4C5350EA37
:10075000013518BF52EA033541F4801143F4801388
:1007600038D0A0FB02CE4FF00005E1FB02E506F019
:100770000042E0FB03E54FF00006E1FB03569CF06E
:10078000000F18BF4EF0010EA4F1FF04B6F5007F74
:1007900064F5407404D25FEA4E0E6D4146EB0606E6
:1007A00042EAC62141EA55514FEAC52040EA5E506F
:1007B0004FEACE2EB4F1FD0C88BFBCF5E06F1ED819
:1007C000BEF1004F08BF5FEA500E50F1000041EB50
:1007D000045170BD06F0004646EA010140EA0200FD
:1007E00081EA0301B4EB5C04C2BFD4EB0C0541EA1F
:1007F000045170BD41F480114FF0000E013C00F334
:10080000AB8014F1360FDEBF002001F0004170BD57
:10081000C4F10004203C35DA0C341BDC04F1140470
:10082000C4F1200500FA05F320FA04F001FA05F2FC
:1008300040EA020001F0004221F0004110EBD370C9
:1008400021FA04F642EB06015EEA430E08BF20EAF5
:10085000D37070BDC4F10C04C4F1200500FA04F398
:1008600020FA05F001FA04F240EA020001F000412A
:1008700010EBD37041F100015EEA430E08BF20EA9D
:10088000D37070BDC4F1200500FA05F24EEA020EE5
:1008900020FA04F301FA05F243EA020321FA04F014
:1008A00001F0004121FA04F220EA020000EBD370CB
:1008B0005EEA430E08BF20EAD37070BD94F0000FCB
:1008C0000FD101F00046400041EB010111F4801FFF
:1008D00008BF013CF7D041EA060195F0000F18BFB0
:1008E000704703F00046520043EB030313F4801FEC
:1008F00008BF013DF7D043EA0603704794EA0C0FA6
:100900000CEA135518BF95EA0C0F0CD050EA4106BB
:1009100018BF52EA4306D1D181EA030101F0004138
:100920004FF0000070BD50EA410606BF1046194660
:1009300052EA430619D094EA0C0F02D150EA01366C
:1009400013D195EA0C0F05D152EA03361CBF1046AD
:1009500019460AD181EA030101F0004141F0FE414C
:1009600041F470014FF0000070BD41F0FE4141F4D0
:10097000780170BD70B54FF0FF0C4CF4E06C1CEAD0
:1009800011541DBF1CEA135594EA0C0F95EA0C0F85
:1009900000F0A7F8A4EB050481EA030E52EA033540
:1009A0004FEA013100F088804FEA03334FF0805561
:1009B00045EA131343EA12634FEA022245EA11158E
:1009C00045EA10654FEA00260EF000419D4208BF3F
:1009D000964244F1FD0404F5407402D25B084FEAEC
:1009E0003202B61A65EB03055B084FEA32024FF498
:1009F00080104FF4002CB6EB020E75EB030E22BFF5
:100A0000B61A754640EA0C005B084FEA3202B6EBB4
:100A1000020E75EB030E22BFB61A754640EA5C0063
:100A20005B084FEA3202B6EB020E75EB030E22BFF3
:100A3000B61A754640EA9C005B084FEA3202B6EBF4
:100A4000020E75EB030E22BFB61A754640EADC00B3
:100A500055EA060E18D04FEA051545EA16754FEA15
:100A600006164FEAC30343EA52734FEAC2025FEA33
:100A70001C1CC0D111F4801F0BD141EA00014FF0C2
:100A800000004FF0004CB6E711F4801F04BF014393
:100A90000020B4F1FD0C88BFBCF5E06F3FF6AFAEAF
:100AA000B5EB030C04BFB6EB020C5FEA500C50F13F
:100AB000000041EB045170BD0EF0004E4EEA1131C2
:100AC00014EB5C04C2BFD4EB0C0541EA045170BDC9
:100AD00041F480114FF0000E013C90E645EA060E0D
:100AE0008DE60CEA135594EA0C0F08BF95EA0C0F3B
:100AF0003FF43BAF94EA0C0F0AD150EA01347FF483
:100B000034AF95EA0C0F7FF425AF104619462CE759
:100B100095EA0C0F06D152EA03353FF4FDAE1046BC
:100B2000194622E750EA410618BF52EA43067FF40D
:100B3000C5AE50EA41047FF40DAF52EA43057FF49D
:100B4000EBAE12E74FF0FF3C06E000BF4FF0010CA8
:100B500002E000BF4FF0010C4DF804CD4FEA410C0C
:100B60007FEA6C5C4FEA430C18BF7FEA6C5C1BD0D9
:100B700001B050EA410C0CBF52EA430C91EA030F5A
:100B800002BF90EA020F0020704710F1000F91EAB7
:100B9000030F58BF994208BF90422CBFD8176FEA85
:100BA000E37040F0010070474FEA410C7FEA6C5C53
:100BB00002D150EA013C07D14FEA430C7FEA6C5C5A
:100BC000D6D152EA033CD3D05DF8040B704700BF86
:100BD0008446104662468C461946634600E000BFD4
:100BE00001B5FFF7B7FF002848BF10F1000F01BDA6
:100BF0004DF808EDFFF7F4FF0CBF012000205DF871
:100C000008FB00BF4DF808EDFFF7EAFF34BF0120F5
:100C100000205DF808FB00BF4DF808EDFFF7E0FF8E
:100C200094BF012000205DF808FB00BF4DF808EDDF
:100C3000FFF7CEFF94BF012000205DF808FB00BF46
:100C40004DF808EDFFF7C4FF34BF012000205DF828
:100C500008FB00BF4FEA410C7FEA6C5C02D150EA0E
:100C6000013C0AD14FEA430C7FEA6C5C02D152EAA4
:100C7000033C02D14FF0000070474FF00100704775
:100C80004FEA410212F5001215D211D56FF47873B4
:100C9000B3EB625212D94FEAC12343F0004343EA57
:100CA000505311F0004F23FA02F018BF4042704732
:100CB0004FF00000704750EA013005D111F00040BC
:100CC00008BF6FF0004070474FF00000704700BF52
:100CD00010B5054C237833B9044B13B10448AFF376
:100CE00000800123237010BDC80100200000000017
:100CF0001C58000808B5034B1BB103490348AFF368
:100D0000008008BD00000000CC0100201C58000835
:100D10002DE9F04F85B057EC106BDDE90E9B002FED
:100D20000C4690461946B8BF32463B462BF0200A87
:100D3000BBBF07F100431F4600232D23B8BF164653
:100D4000BAF1460F0B7005D0BAF1450F00D101344E
:100D5000022100E0032103AB019302AB009347ECB7
:100D6000106B4B46224600F04FFEBBF1670F054665
:100D700019D118F0010F0ED005EB04080022002352
:100D800030463946FFF734FF08B1CDF80C803022E9
:100D9000039B434521D3039B109A5B1B284613609A
:100DA00005B0BDE8F08FBBF1470FE2D0BAF1460FB6
:100DB00000EB0408E2D10378302B0AD10022002393
:100DC00030463946FFF714FF18B9C4F10104C9F8D9
:100DD0000040D9F800309844D0E7591C03911A70AC
:100DE000D6E7F7B50029BABF49422D232B2309299D
:100DF0000270437029DD0DF107031D460A271A46CC
:100E0000B1FBF7F607FB1614303402F8014C0C4620
:100E1000632C03F1FF333146F1DC3031941E03F8CB
:100E2000011C411C2346AB420AD30DF109039B1A56
:100E3000AC4288BF002302330344181A03B0F0BD4C
:100E400013F8016B01F8016FEDE730233031837047
:100E5000C170031DF1E700002DE9F04F8DB00C4685
:100E6000DDF8588016461F46054600F0D1FC0368A1
:100E700004931846FFF7E4F900230A93D8F80030EA
:100E80000590073323F0070303F1080294F818A034
:100E9000D4F800B0C8F80020D3E9008929F0004355
:100EA0000793CDF81880C4E91289DDE90601A04B4B
:100EB0004FF0FF32FFF7CEFE70BBDDE906019C4B21
:100EC0004FF0FF32FFF7A8FE30BB00220023404660
:100ED0004946FFF797FE10B12D2384F84330954A19
:100EE000954BBAF1470F94BF904698460323236170
:100EF0002BF0040323604FF00009009733460BAA40
:100F00002146284600F0DAF9013040F096804FF093
:100F1000FF300DB0BDE8F08F42464B464046494693
:100F2000FFF798FE40B14B46002BBCBF2D2384F841
:100F30004330824A824BD4E763685A1C26D1062389
:100F400063604BF480620023226003930AABCDE917
:100F500001A309AB0093616849EC108B0DF12303E9
:100F60002846FFF7D5FEBAF1670F0999804615D1DB
:100F7000CB1C3BDB6368994238DC0A9B994255DB0A
:100F800023682161D80745D54B1C42E00AF0DF02F7
:100F9000472AD6D1002BD4D10123D1E7BAF1470F8C
:100FA00007D1C81C25DB63688B4222DB4FF0670A40
:100FB000E3E7BAF1650F1FD80139524604F150003A
:100FC0000991FFF70EFF0A9A1318012A814623613F
:100FD00002DC2268D20701D5013323619DF823305A
:100FE000002B8AD02D2384F8433086E74FF0650A22
:100FF000E2E74FF0450ADFE7BAF1660FBDD10029FD
:1010000063680BDD216113B92268D00702D5013373
:101010000B442361A1654FF00009DFE713B9226893
:10102000D20701D50233F4E70123F2E70029D4BF48
:10103000C1F1020201221344EBE723685A0507D4E9
:101040002369424631462846B84701302BD15EE736
:10105000BAF1650F40F2DC80D4E9120100220023CE
:10106000FFF7C6FD002833D0364A01233146284613
:10107000B84701303FF44BAFDDE90938434502DBA7
:101080002368D8070FD5DDE9042331462846B84741
:1010900001303FF43CAF4FF0000908F1FF3804F194
:1010A0001A0AC84509DC23689B0700F10281E06841
:1010B0000B9B9842B8BF18462BE701235246314696
:1010C0002846B84701303FF422AF09F10109E8E7AB
:1010D000099B002B38DC1B4A012331462846B847C0
:1010E00001303FF414AFDDE9093959EA030302D1B5
:1010F0002368D907D7D5DDE9042331462846B84708
:1011000001303FF404AF4FF0000A04F11A0B099BC1
:101110005B42534501DC4B4693E701235A46314677
:101120002846B84701303FF4F2AE0AF1010AEEE773
:10113000FFFFEF7F385800083C580008405800086F
:101140004458000848580008A36DDDF828A053450E
:10115000A8BF5346002B994636DC4FF0000B29EA16
:10116000E97904F11A02A36D0693A3EB09035B4529
:1011700031DC099B9A453ADC2368DA0737D4099BAE
:10118000AAEB0309069BAAEB03039945A8BF99465E
:10119000B9F1000F33DC4FF0000829EAE97904F1D6
:1011A0001A0B099BAAEB0303A3EB090343457FF743
:1011B0007AAF01235A4631462846B84701303FF4FA
:1011C000A6AE08F10108ECE7424631462846B8478A
:1011D0000130C2D19BE60123314628460692B8472A
:1011E00001303FF494AE069A0BF1010BBBE7DDE949
:1011F000042331462846B8470130C0D187E6069A15
:101200004B46424431462846B8470130C3D17EE6BA
:10121000DDF828A0BAF1010F01DCDB0736D5012388
:10122000424631462846B84701303FF470AEDDE90A
:10123000042331462846B84701303FF468AED4E96C
:101240001201002200230AF1FF3AFFF7D1FCC0B9D6
:10125000534608F1010231462846B84701300CD107
:1012600055E601235A4631462846B84701303FF437
:101270004EAE08F10108D045F3DB4B4604F15002B5
:10128000E0E64FF0000804F11A0BF4E701234246B0
:10129000E1E701234A4631462846B84701303FF48A
:1012A00036AE08F10108E3680B995B1A4345F0DCA0
:1012B000FDE64FF0000804F11909F4E72DE9F047C5
:1012C000164698468A680B69DDF820909342B8BFAD
:1012D0001346336091F8432007460C460AB10133A8
:1012E00033602368990642BF336802333360256850
:1012F00015F0060506D104F1190AE36832689B1A55
:10130000AB4226DC94F843302268003B18BF01232F
:1013100092062BD404F1430241463846C8470130B7
:101320001ED02368226903F00603042B02BFE56880
:101330003368ED1AA3680CBF25EAE57500259342D2
:10134000C4BF9B1AED1800261A34B5421AD10020EA
:1013500008E00123524641463846C847013003D1D0
:101360004FF0FF30BDE8F0870135C6E7E1185A1CA1
:10137000302081F84300224494F8451082F843104D
:101380000233C7E70123224641463846C8470130A9
:10139000E6D00136D9E700002DE9FF470F7E0C9D0E
:1013A000782F914680460C469A4601F1430207D8B1
:1013B000622F0AD8002F00F0E080582F00F0BB8089
:1013C00004F1420684F842703AE0A7F16303152B5A
:1013D000F6D801A151F823F0311400084514000893
:1013E000C1130008C1130008C1130008C11300088D
:1013F00045140008C1130008C1130008C1130008F8
:10140000C113000861150008D5140008171500085D
:10141000C1130008C113000883150008C113000898
:10142000D5140008C1130008C11300081F150008D7
:101430002B681A1D1B682A6004F1420684F84230AA
:101440000123ABE0236829681F0601F1040028602E
:1014500001D50D6803E05E06FBD5B1F90050616867
:10146000002D7ADA2D20002984F84300A1602DDABE
:101470005E486D420A231646B5FBF3F103FB115794
:10148000C75D06F8017D2F46BB420D46F4D9082BF7
:101490000BD12368DF0708D5236961689942DEBF55
:1014A000302306F8013C06F1FF36921B2261CDF88D
:1014B00000A04B4603AA21464046FFF7FFFE01303D
:1014C00071D14FF0FF3004B0BDE8F08723F0040382
:1014D0002360CDE72B682068191D2960050601D51A
:1014E0001D6802E04106FBD51D8840486F2F14BFE0
:1014F0000A230823002184F843106668A660002EA2
:10150000B9DB216821F004012160002DB3D1002E48
:10151000B1D11646BBE7236843F02003236034486B
:10152000782784F84570296823680E1D2E601E06F2
:1015300003D50D6804E02D48F3E75D06F9D50D8865
:10154000D90744BF43F0200323600DB11023D1E736
:10155000236823F020032360F8E724480A23CCE71C
:101560002B6826686169181D286035061B6801D53F
:10157000196002E07006FBD519800023236116462E
:1015800095E72B681A1D2A601E68626800213046A4
:10159000FEF706FE08B1801B6060636823610023CC
:1015A00084F8433083E72369324649464046D047B2
:1015B000013086D023689B0714D4E068039B9842CF
:1015C000B8BF18467FE70123324649464046D04718
:1015D00001303FF476AF0135E36803995B1AAB4203
:1015E000F1DCEAE7002504F11906F5E74A5800089E
:1015F0005B580008002310B50446C0E90033C0E979
:101600000433836081814366C28183611946082265
:101610005C3000F0F4F80D4B63620D4BA3620D4B90
:10162000E3620D4B23630D4B24629C4206D003F111
:101630006802944202D0D0339C4205D104F1580094
:10164000BDE8104000F052B910BD00BF7917000886
:101650009B170008D3170008F7170008E4010020C3
:10166000024A0349034800F069B800BF00000020A7
:10167000653000081000002041680C4B994210B5FD
:10168000044601D001F0EEFCA168094B994202D05A
:10169000204601F0E7FCE168064B994204D0204661
:1016A000BDE8104001F0DEBC10BD00BFE401002029
:1016B0004C020020B402002010B50B4B0B4C0C4A1E
:1016C0001A60204600220421FFF794FF04F168000D
:1016D00001220921FFF78EFF04F1D0000222BDE8AC
:1016E00010401221FFF786BF1C030020E4010020F8
:1016F00061160008014800F0FAB800BF2503002079
:10170000014800F0F5B800BF2503002010B50446DD
:10171000FFF7F0FF236A1BB1BDE81040FFF7F0BFF1
:10172000044B2362044B1B68002BF5D1FFF7C4FF69
:10173000F2E700BF791600081C0300202DE9F843EA
:101740000746884614460026D4E90195B9F10109F7
:1017500005D52468002CF7D13046BDE8F883AB8965
:10176000012B07D9B5F90E30013303D0294638468D
:10177000C04706436835E9E710B50C46B1F90E10CD
:1017800000F06CF80028ABBF636DA3891B1823F42D
:101790008053ACBF6365A38110BD2DE9F0411F46A6
:1017A0008B89DB0505460C46164605D5B1F90E10AA
:1017B0000223002200F040F8A389B4F90E1023F4AC
:1017C0008053A38132463B462846BDE8F04100F0F5
:1017D00057B810B50C46B1F90E1000F02DF8431CA7
:1017E000A38915BF606523F4805343F48053A3811C
:1017F00018BFA38110BDB1F90E1000F00DB802445E
:101800000346934200D1704703F8011BF9E700003B
:10181000004870474C01002038B5064D00230446AF
:1018200008462B6003F057FF431C02D12B6803B11D
:10183000236038BD2003002038B5074D0446084614
:10184000114600222A601A4603F048FF431C02D1C9
:101850002B6803B1236038BD2003002038B5074D45
:1018600004460846114600222A601A4603F046FF45
:10187000431C02D12B6803B1236038BD2003002034
:1018800038B5074D04460846114600222A601A461C
:1018900003F026FF431C02D12B6803B1236038BD3F
:1018A0002003002070B50D4D0D4C641BA4100026C4
:1018B000A64209D10B4D0C4C03F0B0FF641BA410E1
:1018C0000026A64205D170BD55F8043B9847013665
:1018D000EEE755F8043B98470136F2E7945D0008BF
:1018E000945D0008945D0008985D0008704770479B
:1018F00070472DE9F74F03690C69A34207467EDB69
:10190000013C01F11408A30000F11405009305EB5C
:101910008403019358F8243055F8242001339A4267
:1019200008EB8409B2FBF3F62ED34FF0000AC4464D
:10193000AE46D3465CF8043B98B206FB00A0020C0E
:101940001B0C06FB0323DEF8002080B292B2121AB1
:101950005A44DEF800004FEA134A9BB2C3EB22431D
:1019600003EB104392B242EA0342E1454EF8042BE6
:101970004FEA234BDED2009BEB582BB9019B043B73
:101980009D421A462FD33C61384601F0DFF900280A
:1019900025DB2946002058F8042BD1F800C01FFA97
:1019A00082FE1FFA8CF3A3EB0E030344120CC2EB6E
:1019B000234202EB1C429BB243EA0243C14541F879
:1019C000043B4FEA2240E6D255F8242005EB84037D
:1019D00022B9043B9D421A460BD33C610136304686
:1019E00003B0BDE8F08F1268043B002ACBD1013C64
:1019F000C6E71268043B002AEFD1013CEAE7002069
:101A0000EEE70000000000002DE9F04FC76997B035
:101A10008DED000B55EC104B209E089183460C92E7
:101A200012937FB9102000F065FE0246CBF81C002F
:101A300020B9A74BEF21A74801F05AFBC0E9017775
:101A40000760C760DBF81C30196859B15A684A60F2
:101A5000012393408B60584600F03AFFDBF81C30BE
:101A600000221A602B1EB9BF23F00043019300230C
:101A70003360019F984BBCBF01223260BB4319D138
:101A8000129A42F20F731360C7F31303234300F05B
:101A9000DD85219B53B9914B21E0914B0393083392
:101AA000219A1360039817B0BDE8F08F8B4B039316
:101AB0000333F5E79DED007B002251EC170B00236B
:101AC0008DED0A7BFFF794F8804650B1129A0123FE
:101AD0001360219B13B1219A824B1360824B0393B5
:101AE000E0E79DED0A0B14AA15A9584601F0DEF9AE
:101AF000C7F30A560290002E78D00B9BCDF84C808D
:101B0000C3F31303DDE90A0143F07F5343F44013A9
:101B1000A6F2FF3619460022744BFEF749FC66A375
:101B2000D3E90023FEF7FCFD65A3D3E90023FEF70C
:101B300041FC044630460D46FEF788FD62A3D3E91A
:101B40000023FEF7EDFD02460B4620462946FEF730
:101B500031FC04460D46FFF793F8002207460023A8
:101B600020462946FFF74EF840B13846FEF76EFD95
:101B700022462B46FFF73CF800B9013F162F52D8FA
:101B80005B4B03EBC703D3E90023DDE90A01FFF751
:101B900039F8002849D0013F00231193149B9B1B67
:101BA0005A1E45BFC3F10103069300230023079289
:101BB00054BF06930793002F39DB079B10973B44D4
:101BC000079300230993089B092B66D8052BC4BFF4
:101BD000043B0893089BA3F10203CCBF002401241B
:101BE000032B65D8DFE803F02B383657DDE91463A3
:101BF0001E4406F23243202BC1BFC3F140039F4075
:101C000006F2124324FA03F3D6BFC3F1200347EAD6
:101C1000030004FA03F0FEF709FD0122A1F1F873B5
:101C2000013E139276E70123B7E71190B6E7069BD2
:101C3000DB1B06937B42099300231093C3E7002329
:101C40000D930C9B002B57DC0123049399461A46F5
:101C50000C920CE00123F3E700230D930C9BFB187F
:101C600003F1010904934B46012BB8BF0123DBF8B4
:101C70001C000021042202F114059D4240D941605C
:101C8000584600F0E5FD039000283CD1194B024670
:101C900040F2AF11CFE60123DFE7012400230893D0
:101CA0000D944FF0FF330493994600221223CFE79F
:101CB00001230D93F5E700BF61436F63A787D23F10
:101CC000B3C8608B288AC63FFB799F501344D33F2B
:101CD00079580008905800080000F07F75580008F7
:101CE0006C58000849580008485800080000F83FA0
:101CF000B8590008D25800080C9B04939946B6E7DF
:101D000001315200B7E7DBF81C30039A1A60B9F1D1
:101D10000E0F6FD8002C6DD0002F36DDA14B07F0D1
:101D20000F0203EBC20393ED007BF8058DED0E7BF4
:101D30004FEA271417D59C4BDDE90A01D3E90823A4
:101D4000FEF718FECDE9000104F00F044FF0030880
:101D5000954D5CB9DDE90E23DDE90001FEF70AFED1
:101D6000CDE900012BE04FF00208F1E7E10709D5CA
:101D7000DDE90E01D5E90023FEF7D2FCCDE90E0125
:101D800008F1010864100835E3E700F007817C42A0
:101D9000844B854D04F00F0203EBC203D3E900230B
:101DA000DDE90A01FEF7BCFCCDE9000124110023A6
:101DB0004FF00208002C40F0E580002BD0D1119BA1
:101DC000DDE90045002B00F04C81784B00222046D5
:101DD0002946FEF717FF002800F04381B9F1000FF4
:101DE00000F03F81049B002B00F3E480DDE90A341E
:101DF000CDE90034159B002B02DB0E2F40F342820D
:101E00000D9A002A40F06782099CDDF818800025B1
:101E1000B8F1000F0DD0079B002B0ADD4345069A51
:101E2000A8BF4346D21A0692079AA8EB0308D31A12
:101E30000793099B0BB30D9B002B00F0A682002C8F
:101E400000F0A18229462246584600F0B9FE029AC7
:101E500001460546584600F009FE029906465846D6
:101E600000F036FD099B1B1B099300F09182099A33
:101E70003146584600F0A4FE02900121584600F079
:101E8000DFFD109B0446002B00F084821A460146B9
:101E9000584600F095FE089B012B044603DC009B8E
:101EA000002B00F07C820026236904EB8303186971
:101EB00000F076FD1096C0F12000079B184410F04A
:101EC0001F0000F09182C0F12003042B40F38182B7
:101ED000069BC0F11C0003440693079B0344804407
:101EE0000793069B002B05DD02991A46584600F021
:101EF000C1FE0290079B002B05DD21461A4658467D
:101F000000F0B8FE0446119B002B00F07682029888
:101F1000214600F01BFF002880F26F820023029907
:101F20000A22584600F0F6FC0D9B02907E1E002B04
:101F300000F05C82002329460A22584600F0EAFCA1
:101F4000049B002B054603DC089B022B00F35E82FA
:101F5000B8F1000F05DD29464246584600F08AFEDA
:101F60000546109B002B00F0D0826968584600F0AF
:101F70006FFC0746002840F07F820D4B024640F27E
:101F8000EF2158E5E20706D5D5E90023FEF7C8FBA7
:101F900008F101080123641008350BE74FF002082F
:101FA0000DE700BFB8590008905900080000F03F45
:101FB000D25800082046AD4B00222946FEF7B0FB60
:101FC000CDE90001049C7E1E08F101084046FEF7A1
:101FD0003DFBDDE90023FEF7A3FBA54B0022FEF746
:101FE000E9F9A1F15073CDE90E010F93002C3BD11B
:101FF000DDE900019F4B0022FEF7DAF902460B46AD
:10200000CDE90023DDE90E23FEF71AFE002840F09B
:102010005781DDE90E2101F10043DDE90001FEF702
:10202000F1FD00283FF4E2AE002425460C9BDDF8CC
:102030000CA0DE434FF000082146584600F048FC53
:10204000002D00F0A980B8F1000F05D0A84503D0FD
:102050004146584600F03CFC2946584600F038FC02
:102060009AE03E464C46B1E7834B03EBC40353E989
:102070000201039B1C440D9B002B4AD002460B46D9
:1020800000207E49FEF776FCDDE90E23FEF790F98D
:10209000CDE90E01DDF80CA0DDE90001FEF7F0FD51
:1020A0000546FEF7D3FA02460B46DDE90001FEF7CE
:1020B0007FF93035CDE9000102460B460AF8015B95
:1020C000DDE90E01FEF7BCFD002865D1DDE9002346
:1020D0006B490020FEF76CF902460B46DDE90E0164
:1020E000FEF7AEFD002840F00D81A24500F0EA8029
:1020F000DDE90E015D4B0022FEF712FB5B4BCDE9E3
:102100000E010022DDE90001FEF70AFBCDE9000126
:10211000C2E7DDE90E23FEF703FBCDE90E01DDF892
:102120000CA0A046DDE90001FEF7AAFD0546FEF77A
:102130008DFA02460B46DDE90001FEF739F930352C
:102140000AF8015B02460B46A245CDE900234FF099
:10215000000223D1494BDDE90E01FEF72BF90246BF
:102160000B46DDE90001FEF76BFD002840F0CA8058
:10217000DDE90E2341490020FEF71AF902460B461D
:10218000DDE90001FEF73EFD70B1C24608F1FF38FF
:102190001AF8013C302BF8D0374655E0334BFEF7A8
:1021A000BFFACDE90001BDE7DDE90A34CDE900342D
:1021B000159B002BFFF628AE0E2F3FF725AE2E4BBA
:1021C00003EBC70393ED007B0C9B002B8DED047B91
:1021D00002DAB9F1000F64D0DDE90045DDF80CA0AA
:1021E000DDE9042320462946FEF7C4FBFEF748FD3F
:1021F0000646FEF72BFADDE90423FEF791FA0246C4
:102200000B462046294606F13004FEF7D1F80AF8BD
:10221000014B039CAAEB0404A14502460B4640F087
:102220008280FEF7C7F8DDE9042304460D46FEF779
:1022300007FD002865D1DDE9042320462946FEF785
:10224000D7FC08B1F3075CD40299584600F040FB74
:1022500000238AF80030129B01371F60219B002B5E
:102260003FF420ACC3F800A01CE400BF00002440F1
:1022700000001C4000001440B85900080000E03F76
:102280000000F03FA24B03EBC70393ED007B0C9BD8
:10229000002B8DED047B9FDAB9F1000F9CDC7FF4FD
:1022A000C3AE9C4B0022DDE90401FEF739FADDE9FB
:1022B0000023FEF7BBFC044600287FF4B5AE3E4683
:1022C0002546B4E0DDE90A34CDE90034159B002B46
:1022D00001DB0E2FD6DD089A012A36DC139A82B371
:1022E00003F23343099CDDF81880069A1A440692DB
:1022F000079A01211A445846079200F0A1FB0546AF
:1023000086E53E4653469A4613F8012D392A06D1F2
:10231000039A9A42F7D10399302201360A701A784B
:1023200001321A7038E77C4B0022FEF7F9F90022DF
:10233000002304460D46FEF75BFC00283FF450AF37
:1023400082E7149BC3F13603CCE7099B09F1FF3404
:10235000A34208DBB9F1000FA3EB04040EDBDDF8A8
:1023600018804B46C1E7099B109A0994E31A1A4456
:10237000DDF8188010924B460024B6E7069BA3EBCD
:1023800009080023B1E7029E71E5099A029970E5F8
:10239000029672E5089B012B17DC009BABB9019BF1
:1023A000C3F313039BB9019B23F00046360D36059A
:1023B00036B1069B01330693079B01330793012631
:1023C000109B002B7FF470AD1096012075E5002660
:1023D000F6E73FF486AD069A1C331A440692079A34
:1023E0001A44984407927CE50346F4E7049B002BCB
:1023F0002BDC089B022B09DC27E0B9F1000F1DDC68
:10240000089B022B1ADDCDF810903E46049B002B52
:102410007FF40CAE21460522584600F07BFA0146B7
:102420000446029800F092FC00287FF7FFADDDF82B
:102430000CA031230AF8013B0136FBE50D9BCDF8DA
:1024400010903E46002B7FF483AD039F02982146F7
:10245000FFF74FFA00F1300907F8019B039B049A3C
:10246000FB1A9A4240F3CB80029900230A22584675
:1024700000F050FA0290E9E72A690232920005F171
:102480000C010C3000F026FE01223946584600F0BF
:10249000F1FB039B03F1010ADDE9032313440793D6
:1024A000009B03F00103A846099305460AF1FF3398
:1024B000214602980493FFF71CFA4146069000F16A
:1024C0003009029800F042FC2A4621460746584649
:1024D00000F058FCC268014602B3584600F0F8F913
:1024E000002F3ADA02990122584600F0C3FB214638
:1024F000029000F02BFC002803DC29D119F0010F19
:1025000026D0B9F1390F1DD132E02846C1E700BF0E
:10251000B859000800001440000024400A900298B6
:1025200000F014FC0A990C90584600F0D1F90C9A6E
:102530005ABB089B53B9099B43B9B9F1390F17D05E
:10254000002F05DD069B03F1310901E0002F2ADA97
:10255000DDF810A00AF8019B6EE5089B3B4304D10F
:10256000009B03F00103002BBCD0B9F1390F36D129
:10257000049F392307F8013BBA46013F1AF8013C92
:10258000392B5BD001333B7056E5002F06DB089BEF
:102590003B4306D1009B03F0010313B9002AA1DCE1
:1025A000D6E7002AE1DC079B0AF8019C5345574611
:1025B0002FD0029900230A22584600F0ABF9A84513
:1025C00002904FF000034FF00A02414658460BD1EB
:1025D00000F0A0F9804605460AF1010A66E7DDF839
:1025E00010A009F10109B5E700F094F929468046E9
:1025F00000230A22584600F08DF90546ECE7049BBB
:10260000002BC8BF1F46039BD8BF01271F444FF0B4
:10261000000802990122584600F02CFB2146029046
:1026200000F094FB0028A7DC02D119F0010FA3D120
:10263000BA4617F8013D302BFAD0FDE4039BBB42AC
:102640009AD1039A312301361370F5E4219B002BB4
:102650007FF423AA014BFFF742BA00BF6C58000871
:1026600038B50546002941D051F8043C0C1F002B19
:10267000B8BFE41800F0E0F81D4A136833B963608E
:1026800014602846BDE8384000F0DCB8A34208D901
:10269000206821188B4201BF19685B680918216006
:1026A000EDE71A465B680BB1A342FAD911685018DE
:1026B000A0420BD120680144501883421160E0D140
:1026C00018685B68536008441060DAE702D90C238D
:1026D0002B60D6E7206821188B4204BF19685B681D
:1026E000636004BF091821605460CAE738BD00BFA9
:1026F0002C030020024B0146186800F025B800BFEB
:102700000C00002070B50F4E0C463168054611B91B
:1027100000F0D0FC30602146284600F0CBFC431C82
:1027200003D14FF0FF34204670BDC41C24F00304D5
:10273000A042F8D0211A284600F0BCFC0130F2D1AA
:10274000EFE700BF280300202DE9F041CD1C25F064
:10275000030508350C2D38BF0C25002D064601DB7E
:10276000A94204D90C2333600020BDE8F081314F29
:1027700000F062F83B681C4644BB29463046FFF730
:10278000C1FF431C044650D13C682146002941D179
:10279000002C44D02368304604EB030800F08AFC88
:1027A00080453CD121686D1A29463046FFF7AAFFC3
:1027B000013034D023682B4423603B68002B36D093
:1027C0005A68A24229D100225A600EE02268521BA8
:1027D0001DD40B2A16D96119A342256018BF596070
:1027E000636808BF396062514B60304600F02AF8D8
:1027F00004F10B00231D20F00700C21AB5D01B1AEC
:10280000A350B2E7A3426268DED13A60EDE7234607
:102810006468B1E70C464968B8E71346CEE70C2375
:102820003360304600F00EF89EE70560DDE75B6040
:10283000FFDE00BF2C0300200148FFF758B800BF9F
:10284000240300200148FFF753B800BF24030020F1
:1028500070B5C66904460D4676B91020FFF74AFFE9
:102860000246E06120B9184B18486B2100F040FC8B
:10287000C0E901660660C660E669F36883B1E36992
:10288000DB6853F82500B8B9012101FA05F6721D7D
:102890009200204600F04AFC60B1C0E901560EE00B
:1028A00021220421204600F041FCE369F060DB684E
:1028B000002BE4D1002070BD026843F825200023DE
:1028C000C0E90333F7E700BF79580008E358000870
:1028D00070B5C66905460C4676B91020FFF70AFFA9
:1028E0000246E86120B9094B09488F2100F000FC3D
:1028F000C0E901660660C6603CB1EB696268DB68EE
:1029000053F82210216043F8224070BD7958000826
:10291000E35800082DE9F0410D6907460C461E46B4
:1029200001F1140C0020DCF8003099B202FB0161C7
:102930001E0C0B0C02FB063389B2013001EB034184
:1029400085424CF8041B4FEA1346ECDC0EB3A36837
:10295000AB4219DC616838460131FFF779FF8046E8
:1029600028B902460C4B0D48BA2100F0C1FB226980
:10297000023204F10C0192000C3000F0ABFB214656
:102980003846FFF7A5FF444604EB850301355E6139
:1029900025612046BDE8F081D2580008E3580008C0
:1029A000B0F5803F034636BF030400201020B3F18A
:1029B000807F3CBF1B020830B3F1805F3CBF1B012E
:1029C0000430B3F1804F03D3002B0ADB0130704792
:1029D0009B0001D5023070475B0001D50330704782
:1029E000202070470368024613F007000BD0D90778
:1029F00021D4980749BF5B089B08012013605CBF86
:102A000013600220704799B209B91B0C1020D9B28B
:102A100009B908301B0A190704BF1B0904309907BC
:102A200004BF9B080230D90703D45B0800F1010002
:102A300003D01360704700207047202070470000CB
:102A400010B50C460121FFF703FF024628B9054BDC
:102A5000054840F2451100F04BFB0123446103613E
:102A600010BD00BFD2580008E35800082DE9F04F10
:102A700014460A6923699A42A8BF23460F46A4BF99
:102A80000C461F46D4F810A0D7F81090A3686168D0
:102A90000AEB0906B34285B0B8BF0131FFF7D8FE93
:102AA00030B90246444B45484FF4B17100F020FB69
:102AB00000F1140505EB86082B460022434521D37F
:102AC00007F1140104F1140202EB8A0201EB8903FD
:102AD0000293131B153B23F00303043304F1150782
:102AE000BA4238BF04230193029B03918B420CD856
:102AF000002E03DD58F8043D002B5BD0066105B0C5
:102B0000BDE8F08F43F8042BD8E7B1F800A0BAF184
:102B1000000F24D004F1140EA9464FF0000C5EF80B
:102B2000047BD9F800301FFA87FB9BB20AFB0B33FA
:102B30004FEA174BD9F8007063444FEA174C0AFB71
:102B40000BC707EB13479BB243EA0743724549F8AB
:102B5000043B4FEA174CE2D8019B45F803C0039BA6
:102B6000B3F802900431B9F1000F21D02B6804F1C1
:102B7000140CAE464FF0000ABCF800B0BEF802706C
:102B800009FB0B7757449BB243EA07434EF8043BDB
:102B90005CF8043B4FEA134ABEF8003009FB0A33E5
:102BA00003EB174362454FEA134AE5D8019FEB5107
:102BB000043599E7013E9BE7D2580008E358000826
:102BC0002DE9F843154612F0030207460E4607D0DA
:102BD000254C013A002354F82220FFF79BFE0646BD
:102BE000AD103DD0FC697CB91020FFF783FD024693
:102BF000F86128B91D4B1E4840F2B31100F078FA75
:102C0000C0E901440460C460D7F81C80D8F80840CB
:102C10004CB940F271213846FFF712FF0023C8F883
:102C20000800044603604FF00009EB070AD531465F
:102C300022463846FFF71AFF314680463846FFF7EE
:102C400047FE46466D100BD0206838B92246214613
:102C50003846FFF70BFF2060C0F800900446E4E719
:102C60003046BDE8F88300BF805900087958000855
:102C7000E35800082DE9F0470C464968236903EB47
:102C80006218A368074691464FEA621A08F10106E6
:102C9000B3420BDB3846FFF7DBFD054648B9024679
:102CA000284B29484FF4EF7100F022FA01315B0004
:102CB000EEE7002300F1140100F11002184653451D
:102CC00033DB20692AEAEA7A04F1140319F01F09B8
:102CD00001EB8A0103EB800C2BD0C9F1200E8A4650
:102CE0000022186800FA09F010434AF8040B53F860
:102CF000042B9C4522FA0EF2F3D8ACEB0403153BEF
:102D000023F00303043304F11500844538BF042382
:102D1000CA500AB108F10206013E38462E6121462A
:102D2000FFF7D6FD2846BDE8F08742F8040F0133CF
:102D3000C5E7043953F8042B41F8042F9C45F9D812
:102D4000EAE700BFD2580008E35800080A690346C2
:102D50000069801A30B50ED11433143103EB8204AC
:102D600001EB820154F8045D51F8042D954203D023
:102D700005D24FF0FF3030BDA342F3D3FBE7012073
:102D8000F9E700002DE9F74F894606461146484607
:102D90001446FFF7DBFF051E12D129463046FFF728
:102DA00057FD024628B93F4B40F237213E4800F01C
:102DB0009FF90123C0E90435104603B0BDE8F08F48
:102DC000BCBF4B46A1463046D9F80410BABF1C46DA
:102DD00001250025FFF73CFD024618B9314B40F2B2
:102DE0004521E3E7D9F810702669C56009F11003A1
:102DF00009F1140504F1140E00F1140B05EB87081A
:102E00000EEB86060193D9464FF0000C019B5EF84D
:102E1000040B53F804AF01931FFA8AF3194683B2E7
:102E2000CB1A000C6344C0EB1A4000EB23409BB26A
:102E300043EA0043764549F8043B4FEA204CE5D885
:102E4000331B153B23F0030315340433A64238BF6C
:102E500004231D445B441E462C4644450ED308F112
:102E60000301491B21F00301033DA84538BF0021A0
:102E70000B4453F8041D91B117619DE754F8041BEE
:102E8000E646080C1CFA81FC714400EB2C4089B228
:102E900041EA004146F8041B4FEA204CDDE7013FC0
:102EA000E7E700BFD2580008E35800082DE9F743D0
:102EB0000F46012159EC108B1646FFF7C9FC04465A
:102EC00030B90246234B244840F20F3100F010F98C
:102ED000C9F30A55C9F313030DB143F480130193E9
:102EE000B8F1000323D068460093FFF77BFDDDE9CE
:102EF0000012D0B1C0F1200302FA03F30B43C24029
:102F000063610192019BA361002B0CBF012202228D
:102F10002261A5B1A5F2334505443D60C0F13500FD
:102F20003060204603B0BDE8F0836161EAE701A8A4
:102F3000FFF758FD019B636120300122E8E704EBB5
:102F40008203A0F2324038601869FFF729FDC0EB18
:102F50004210E5E7D2580008E3580008B1F90C2008
:102F60002DE9F041170705460C4656D44B68002B57
:102F700002DC0B6C002B3DDDE66A002E3AD000230C
:102F800012F480522F68216A2B6025D0626DA389CC
:102F9000580705D56368D21A636B0BB1236CD21A3C
:102FA000216AE66A00232846B047411C24D000234A
:102FB000636023692360A389DA0400D56065616BCF
:102FC0002F60B9B104F14403994202D02846FFF7BB
:102FD00047FB002363630DE001232846B047461CEE
:102FE0000246D4D12B68002BD1D01D2B01D0162B3B
:102FF0002BD12F6000202FE02A68B4F90C3042B1A9
:103000001D2A01D0162A22D1002363602369236080
:10301000D5E7626022692260CEE70F69002FE9D010
:1030200093070E6808BF4B690F6018BF0023A6EB1B
:1030300007088B60B8F1000FDCDD216AA66A434601
:103040003A462846B047002808DCB4F90C3043F073
:103050004003A3814FF0FF30BDE8F0810744A8EBA7
:103060000008E7E738B50B6905460C4613B900259B
:10307000284638BD18B1036A0BB9FEF747FBB4F90F
:103080000C30002BF3D0626ED00704D4990502D423
:10309000A06DFEF72CFC28462146FFF75FFF636E0C
:1030A000DA070546E4D4A3899B05E1D4A06DFEF7B9
:1030B0001FFCDDE738B5064D0023044608462B60AB
:1030C00002F01EFB431C02D12B6803B1236038BD04
:1030D000200300200A44914200F1FF3300D17047E1
:1030E00010B511F8014B03F8014F9142F9D110BD11
:1030F0001FB514461A46094B1B680546D86854B9D3
:10310000074B1C46CDE9013400912B46054900F0E0
:1031100041F800F051F8044BF4E700BF0C00002028
:103120006B5900083D5900083059000870B5A1FBE3
:1031300002543CB92946FFF707FB064628B900268A
:10314000304670BD0C220260F9E72A462146FEF7A0
:1031500056FBF5E782B001B901A942B14BB1137832
:103160000B601278101E18BF012002B07047104685
:10317000FBE76FF00100F8E70346084641B1FF2A7C
:1031800004D98A221A604FF0FF3070470A7001207C
:10319000704700000EB403B5014603AB054853F871
:1031A000042B0068019300F037F802B05DF804EBDF
:1031B00003B070470C00002008B5062000F000FAAC
:1031C000012002F0B9FA9368013B002B10B4936020
:1031D00008DA9469A34201DB0A2903D15DF8044BA4
:1031E00000F032B91368581C1060197008465DF879
:1031F000044B7047F8B506460F461446D518AC4246
:1032000001D1002007E014F8011B3A463046FFF7D1
:10321000DAFF431CF3D1F8BD2DE9F04F0D469DB008
:1032200014469846064618B1036A0BB9FEF76EFAC3
:103230006B6ED90705D4AB899A0502D4A86DFEF749
:1032400056FBAB891B0701D52B699BB92946304634
:1032500000F038F970B16B6EDC0704D54FF0FF3029
:103260001DB0BDE8F08FAB899805F7D4A86DFEF7C7
:103270003FFBF3E70023099320238DF82930CDF895
:103280000C803023DFF8AC818DF82A304FF0010933
:1032900023469A4613F8012B0AB1252AF9D1BAEB35
:1032A000040B0BD05B46224629463046FFF7A2FFAF
:1032B000013000F0A780099A5A4409929AF8003028
:1032C000002B00F09F8000234FF0FF32CDE9052353
:1032D0000AF1010A049307938DF853301A93544668
:1032E000052214F8011B5348FCF75AFF049AD8B979
:1032F000D10644BF20238DF85330130744BF2B233E
:103300008DF853309AF800302A2B15D0079A54467E
:1033100000204FF00A0C214611F8013B303B092BED
:103320004BD9B0B1079214E0A0EB080309FA03F3FC
:1033300013430493A246D2E7039B191D1B68039114
:10334000002BBBBF5B4242F0020207930793B8BF5A
:10335000049223782E2B0AD163782A2B32D1039B37
:103360001A1D1B68039243EAE37302340593DFF8E6
:10337000D4A0217803225046FCF712FF38B1049BF9
:10338000A0EB0A004022824013430134049314F856
:10339000011B29488DF828100622FCF701FF0028A0
:1033A0003FD0264B1BBB039B073323F00703083397
:1033B0000393099B3B4409936AE70CFB02320C46DA
:1033C0000120A8E700230134059319464FF00A0CA9
:1033D000204610F8012B303A092A03D9002BC6D019
:1033E0000591C4E70CFB012104460123F0E703AB80
:1033F00000932A46124B04A93046FDF72DFD0746DF
:10340000781CD6D16B6ED90705D4AB899A0502D446
:10341000A86DFEF76DFAAB895B063FF51FAF099803
:103420001EE703AB00932A46054B04A93046FDF77F
:10343000B3FFE4E76C59000876590008590E0008FC
:10344000F531000872590008F8B50E4614460546D5
:1034500018B1036A0BB9FEF759F9A369A360A389F0
:103460001A0701D5236943B92146284600F02AF8F6
:1034700018B14FF0FF373846F8BD23682269981A13
:103480006369F6B28342374605DC21462846FFF7DA
:10349000E9FD0028EDD1A368013BA36023685A1C15
:1034A00022601E706269431C9A4204D0A389DB0724
:1034B000E1D50A2EDFD121462846FFF7D3FD0028AB
:1034C000D9D0D6E738B5294B054618680C4618B14F
:1034D000036A0BB9FEF71AF9B4F90C30190722D4B4
:1034E000DA0607D409222A6043F04003A3814FF093
:1034F000FF3033E0580712D5616B41B104F144034A
:10350000994202D02846FFF7ABF800236363A389F2
:1035100023F02403A3810023636023692360A3892C
:1035200043F00803A38123694BB9A38903F42073F3
:10353000B3F5007F03D02146284600F083F8B4F9A4
:103540000C3013F001020AD00022A26062695242DC
:10355000A261226942B913F08000C5D138BD990734
:1035600058BF6269A260F4E70020F7E70C00002072
:103570001F2938B505460C4604D9162303604FF0C1
:10358000FF3038BDC26B12B152F821304BB928461A
:1035900000F030F8224601462846BDE8384000F0E9
:1035A00017B8012B0AD0591C03D116230360012040
:1035B000E7E7002142F82410204698470020E0E782
:1035C000024B01461868FFF7D3BF00BF0C00002074
:1035D00038B5074D00230446084611462B6002F01B
:1035E000A1F8431C02D12B6803B1236038BD00BF92
:1035F0002003002002F09EB870B50C46B1F90E1001
:10360000002996B015461E460DDAA38913F0800FE7
:103610004FF0000114BF40234FF48063002031605D
:103620002B6016B070BD6A4600F048F80028ECDB4D
:10363000019901F47041A1F50053594259414FF4E9
:103640008063EBE78B89F7B59D0706460C4607D5E7
:1036500004F14703236023610123636103B0F0BDDC
:1036600001AB6A46FFF7C8FF009F05463946304662
:10367000FFF76AF848B9B4F90C309A05EED423F094
:10368000030343F00203A381E2E7A389206043F030
:103690008003A381019BC4E904075BB1B4F90E1058
:1036A000304600F01DF828B1A38923F0030343F04E
:1036B0000103A381A3891D43A581CFE738B5074D39
:1036C00000230446084611462B6001F0FDFF431C11
:1036D00002D12B6803B1236038BD00BF2003002056
:1036E00038B5064D0023044608462B6001F0F1FF73
:1036F000431C02D12B6803B1236038BD2003002096
:1037000040F0BF6040F40030014BD860704700BF0C
:1037100000ED00E0C378FBB1154BDA68D243C2F389
:103720000222C2F10401C9B20F23134142788A4038
:10373000D2B281780B4013431B01DBB202780D49F2
:103740000A4482F80033037803F01F005B0901226A
:10375000824041F823207047037803F01F015B0982
:1037600001228A402033034941F82320704700BFDB
:1037700000ED00E000E100E000220F2A4DD810B576
:1037800014E0C36894B264004FF0030E0EFA04FE16
:1037900023EA0E03C360C36891F807E00EFA0CFC3D
:1037A00043EA0C03C36001320F2A35D8012393404A
:1037B0000C68A343F7D104684FEA420C032303FAD1
:1037C0000CF36FEA030E24EA0303036003680C7929
:1037D00004FA0CF4234303600B79013BDBB2012BA9
:1037E000CFD883680EEA0303836083684C7904FAB8
:1037F0000CF42343836043681FFA82FE012404FA19
:103800000EF423EA0403436044688B7903FA0EF351
:103810009BB223434360B4E710BD704721B1054A12
:10382000136B034313637047024A136B23EA0003CD
:10383000136370470038024021B1054A136C0343FB
:1038400013647047024A136C23EA00031364704741
:103850000038024003889BB21B4A904212D002F506
:10386000806290420ED0B0F1804F0BD0A2F5803232
:10387000904207D002F58062904203D002F5806248
:10388000904203D123F070034A8813430F4A9042B9
:1038900008D002F58062904204D023F440739BB2BA
:1038A0000A89134303804B68C3620B880385064B68
:1038B000984203D003F58063984201D18B7A038646
:1038C00001238382704700BF0000014000100040C8
:1038D00029B103889BB243F001030380704703883A
:1038E0009BB223F001039BB20380704710B5038C99
:1038F0009BB223F001039BB20384B0F820C01FFAEF
:103900008CFCB0F804E01FFA8EFE028B92B222F01B
:1039100073020B881A432CF0020C8B894CEA030CBF
:103920004B8843EA0C030F4CA04203D004F580649B
:10393000A0420FD123F00803CC89234323F00403D2
:103940008C8823432EF4407E0C8A4EEA040E4C8A67
:1039500044EA0E0EA0F804E002838A6842630384FE
:1039600010BD00BF00000140038B9BB223F0080391
:103970000B4303837047406B704722B183899BB22E
:103980000B43838170478389C94389B21940818180
:103990007047028A83890B40114202D01BB9002074
:1039A00070470020704701207047C94389B20182E7
:1039B00070470388194201D00120704700207047EA
:1039C0002DE9F04F2DED048BADF51D7D8146884628
:1039D0009C468DED020B00200021CDE97C01D2E94F
:1039E0000045A24605F1004BCDE97EABD2E902AB22
:1039F00056460BF10047CDE98067D2E9042316460D
:103A000003F10047CDE98267CDE98445CDE9860120
:103A1000CDE9882356460BF10047CDE98A67CDE909
:103A20008CAB164603F10047CDE98E67CDE99001D6
:103A3000CDE99245CDE99423CDE996AB224605F137
:103A40000043CDE99823CDE99A01CDE95C01DCE999
:103A50000045224605F10043CDE95E23DCE902ABD7
:103A600052460BF10043CDE96023DCE904231646FE
:103A700003F10047CDE96267CDE96445CDE9660110
:103A8000CDE9682356460BF10047CDE96A67CDE9D9
:103A90006CAB164603F10047CDE96E67CDE97001C6
:103AA000CDE97245CDE97423CDE976AB224605F127
:103AB0000043CDE97823CDE97A0100251CE004EB31
:103AC0008503DE009CAA02EBC3015CAA02EBC303E0
:103AD000D3E9002351E92001FCF76CFC00228C4B58
:103AE000FCF71EFE3CAB3344C3E900010134E4B2F1
:103AF000032CE4D90135EDB2032D01D80024F7E7FA
:103B0000D9E90023CDE93423D9E90223CDE93623CD
:103B1000D9E90423CDE93823D9E90623CDE93A23AD
:103B2000D8E90023CDE92C23D8E90223CDE92E23BF
:103B3000D8E90423CDE93023D8E90623CDE932239F
:103B40000125019504240094234634AA7CA924A8C5
:103B500000F026FA9FED6A8B2B462246B0EE480A0B
:103B6000F0EE680A24A9084600F091FA53EC182BED
:103B7000DDE9026730463946FCF7D2FD41EC190B0E
:103B80002B462246B0EE490AF0EE690A24A904A8A1
:103B900000F07DFA0095234604AA34A9104600F0EF
:103BA00050FA01950094234604AA3CA91CA800F0F1
:103BB000F7F92B462246B0EE480AF0EE680A1CA937
:103BC000084600F064FA2B462246B0EE490AF0EEB1
:103BD000690A1CA904A800F05AFA0095234604AA11
:103BE00034A9104600F02DFA01950094234604AA4A
:103BF0003CA914A800F0D4F92B462246B0EE480A9E
:103C0000F0EE680A14A9084600F041FA2B46224655
:103C100047EC106B14A904A800F039FA009523466C
:103C200004AA34A9104600F00CFA0195009423462A
:103C300004AA5CA90CA800F0B3F92B462246B0EE0A
:103C4000480AF0EE680A0CA9084600F020FA9FED39
:103C50002E8B2B462246B0EE480AF0EE680A1CA9CD
:103C6000084600F014FA2B462246B0EE480AF0EE61
:103C7000680A14A9084600F00AFA009523461CAA0F
:103C800024A9084600F0DDF90095234614AA24A9CA
:103C9000084600F0D6F9009523460CAA24A9084648
:103CA00000F0CFF900221B4B30463946FCF762FE8C
:103CB0002B46224641EC100B24A9084600F0E7F9F8
:103CC0000095234624AA34A92CA800F0BAF9DDE90E
:103CD0002C23C8E90023DDE92E23C8E90223DDE90E
:103CE0003023C8E90423DDE93223C8E906230DF5B2
:103CF0001D7DBDEC048BBDE8F08F00BFAFF30080ED
:103D0000000000000000E03F000000000000004054
:103D10000000E03F00001840254B1A6B42F0020201
:103D20001A635A6C42F010025A64A3F550531A6891
:103D300022F440521A601A6822F440421A601A684B
:103D400042F400521A601A6842F400421A605A683B
:103D500042F040025A605A6842F080025A609A6803
:103D600022F440529A609A6822F440429A609A681B
:103D700042F400529A609A6842F400429A60DA680B
:103D800022F44052DA60DA6822F44042DA601A6AB9
:103D900022F060621A621A6A22F060421A621A6A9B
:103DA00042F0E0621A621A6A42F0E0421A62704718
:103DB00000380240124B9A8992B242F400529A8122
:103DC00042F22E221A819A8992B222F4805292B241
:103DD0009A819A8992B222F4806292B29A819A89E7
:103DE00092B242F020029A819A8992B242F008027D
:103DF0009A819A8992B242F004029A81704700BF78
:103E00000010014008B5044B988080210248FFF75C
:103E1000D0FD0028F9D008BD0010014008B5FFF71B
:103E20007BFFFFF7C7FF08BD08B501226B21D0203B
:103E300000F064FB09221921D02000F05FFB06226C
:103E40001A21D02000F05AFB18221B21D02000F0AC
:103E500055FB18221C21D02000F050FB02223721F4
:103E6000D02000F04BFB00226A21D02000F046FB5E
:103E700008BD000010B582B0044606236A464321FF
:103E8000D02000F0F3FA9DF800309DF8010000EB1F
:103E9000032000B2FCF7DAFB00221A4BFCF740FCCF
:103EA00000224FF07C53FCF73BFCC4E900019DF875
:103EB00002309DF8030000EB032000B2FCF7C6FBC4
:103EC0000022104BFCF72CFC00224FF07C53FCF737
:103ED00027FCC4E902019DF804309DF8050000EBC1
:103EE000032000B2FCF7B2FB0022064BFCF718FCE3
:103EF00000224FF07C53FCF713FCC4E9040102B02C
:103F000010BD00BF00409F4008B5702200213C203A
:103F100000F01DFB202201213C2000F018FB0022B4
:103F200002213C2000F013FB08BD08B5FFF77CFF21
:103F3000FFF7EAFF08BD00000F4A136B43F00103CF
:103F400013630E4B1A6822F440621A601A6842F436
:103F500080621A605A6822F020025A609A6822F43D
:103F600040629A609A6842F480629A60DA6822F449
:103F70004062DA60704700BF003802400000024033
:103F8000024A536943F02003536170470000024026
:103F9000024B5A6900225A61704700BF000002407C
:103FA0002DE9F04F2DED028B85B002908A469146A7
:103FB0009DF840609DF844B00021039334E095EDF6
:103FC000008B08FB06410AEBC10104FB0B7309EBF4
:103FD000C303D3E90023D1E90001FCF7A1FB0246AA
:103FE0000B4651EC180BFCF7E5F9C5E9000101346B
:103FF000E4B2B442E3D3009901F1010E5FFA8EF10D
:1040000059450ED2019B98460F460BFB0315029BA8
:1040100003EBC50500220023C5E90023002400911D
:10402000E7E701994B1CD9B2039B994204D24FF0A8
:10403000000E01917146E3E705B0BDEC028BBDE8CF
:10404000F08F2DE9F84F8146884617469A469DF82D
:104050002850002615E005FB064C08EBCC0107EBC9
:10406000CC0309EBCC0BD3E90023D1E90001FCF729
:10407000A1F9CBE900010134E4B2AC42EBD3013643
:10408000F6B2564501D20024F7E7BDE8F88F2DE9D6
:10409000F04F83B0814657EC106B4FF0000A01924D
:1040A000D3468A46984615E008FB0B430AEBC3014A
:1040B00009EBC30532463B46D1E90001FCF730FB72
:1040C000C5E900010134E4B24445EDD30BF101022E
:1040D0005FFA82FB019B9B4501D20024F4E703B009
:1040E000BDE8F08F70B58AB001210420FFF796FB80
:1040F00001210220FFF7A0FB4023089302238DF843
:1041000025308DF824301A4C08A92046FFF734FBDF
:10411000236A43F00073236244F61F63069353231C
:10412000ADF814300025ADF81C50ADF81650A4F5CC
:10413000013405A92046FFF78DFB6023ADF8003060
:104140000126ADF80260ADF80C5069462046FFF735
:10415000CDFB08212046FFF707FC31462046FFF73C
:10416000B7FB23889BB243F0800323800AB070BD65
:10417000000802401B4B1A6822F440321A601A6889
:1041800022F440221A601A6842F400321A601A6857
:1041900042F400221A605A6842F480725A605A68E7
:1041A00042F400725A604FF440329A604FF4402259
:1041B0009A60DA6822F44032DA60DA6822F4402247
:1041C000DA60DA6842F48032DA60DA6842F4802237
:1041D000DA605A6A42F004025A625A6A42F04002B5
:1041E0005A627047000402401F4B9A8892B222F034
:1041F0003F0292B29A809A8892B242F004029A8068
:104200001A8C92B222F03F0292B21A841A8C92B2A5
:1042100042F4805242F001021A841A8892B242F0AB
:1042200001021A801A8892B222F0200292B21A80F9
:104230001A8992B222F07F0292B21A811A8992B23E
:1042400042F001021A819A8BC2F30E029A839A8B72
:1042500002F470429A839A8B92B242F42B5242F04B
:1042600038029A83704700BF00540040012807D0ED
:10427000074A13889BB223F480739BB21380704764
:10428000034A13889BB243F480731380704700BFC6
:1042900000540040012807D0074A13889BB223F43A
:1042A00000739BB213807047034A13889BB243F498
:1042B00000731380704700BF00540040012807D0EE
:1042C000074A13889BB223F480639BB21380704724
:1042D000034A13889BB243F480631380704700BF86
:1042E00000540040014B1882704700BF005400404A
:1042F000014B188AC0B2704700540040012904D015
:1043000000F0FE00024B1882704740F00100F9E710
:1043100000540040044B1B8B13F0020F01D101200D
:1043200070470020704700BF005400400B4B9B8A31
:1043300013F0010F0BD0094B1B8B13F0010F08D0AA
:10434000064B1B8B13F0020F05D100207047002095
:104350007047002070470120704700BF00540040A4
:10436000144B9A8A91B21B8B9BB212F0020F18D099
:1043700011F0800F17D013F0010F16D013F0020FB9
:1043800015D013F0040F01D10020704711F4007F05
:1043900005D0084A938A9BB243F48063938201203C
:1043A00070470020704700207047002070470020B1
:1043B000704700BF00540040124B9B8A13F0040F5B
:1043C00015D0104B9B8A13F0800F12D00D4B1B8B16
:1043D00013F0010F0FD00B4B1B8B13F0020F0CD0FF
:1043E000084B1B8B13F0040F09D1002070470020ED
:1043F0007047002070470020704700207047012060
:10440000704700BF005400400B4B9B8A13F0020F13
:104410000BD0094B1B8B13F0010F08D0064B1B8BE5
:1044200013F0020F05D100207047002070470020D4
:1044300070470120704700BF00540040044B9B8A26
:1044400013F0400F01D1002070470120704700BFDA
:1044500000540040044B9B8A13F0800F01D10020D0
:1044600070470120704700BF00540040F8B5044673
:104470000F4616461D46FFF74DFF0028FBD00120D2
:10448000FFF7F4FEFFF752FF0028FBD00021204683
:10449000FFF734FFFFF764FF0028FBD03846FFF733
:1044A00021FFFFF789FF0028FBD00120FFF7DEFE88
:1044B000FFF73CFF0028FBD001212046FFF71EFF3D
:1044C000FFF7A2FF0028FBD00020FFF7E3FE01204A
:1044D000FFF7F4FE002408E0FFF7B0FF0028FBD050
:1044E000FFF706FF30550134E4B2AC42F4D30020AC
:1044F000FFF7E4FE0120FFF7CDFEF8BD70B50646DC
:104500000D461446FFF706FF0028FBD00120FFF7F9
:10451000ADFEFFF70BFF0028FBD000213046FFF770
:10452000EDFEFFF71DFF0028FBD02846FFF7DAFE5F
:10453000FFF742FF0028FBD02046FFF7D3FEFFF72E
:104540003BFF0028FBD00120FFF7A4FE70BD70B533
:1045500006460D4614460120FFF7B0FEFFF7DAFECF
:104560000028FBD00120FFF781FEFFF7DFFE0028C7
:10457000FBD000213046FFF7C1FEFFF7F1FE002817
:10458000FBD02846FFF7AEFEFFF764FF0028FBD004
:104590002046FFF7A7FEFFF70FFF0028FBD0012002
:1045A000FFF778FE0020FFF789FE70BD08B5074BC6
:1045B0001A6B42F002021A631A6C42F400121A6477
:1045C000FFF7D8FDFFF710FE08BD00BF003802401E
:1045D00010B582B05E4A536C43F0010353645D4CE6
:1045E0000023E36223889BB223F010039BB2238055
:1045F000238D9BB243F053032385E36A43F49C432A
:1046000043F01F03E362A38A9BB243F00203A38239
:1046100023889BB243F080032380136B43F0010394
:1046200013634D4B5A6A42F001025A621A6822F42F
:1046300040321A601A6842F400321A605A6822F452
:1046400080725A609A6842F400329A60DA6822F402
:104650004032DA60238B9BB243F001032383238B28
:104660009BB223F00C039BB22383238B9BB223F0DA
:10467000F0039BB22383238C9BB243F0010323847A
:10468000238C9BB223F002039BB22384238C9BB226
:1046900023F008039BB22384238B9BB243F4007363
:1046A0002383238B9BB223F440639BB22383238B0E
:1046B000C3F30B032383238C9BB243F010032384A7
:1046C000238C9BB243F020032384238C9BB243F0C2
:1046D0008003238423899BB223F00A039BB22381A6
:1046E00023899BB243F00403238123899BB223F0E7
:1046F00070039BB2238123899BB243F05003238133
:1047000023899BB243F080032381012202212046AA
:10471000FFF733F94FF4A060FEF7F2FF1B238DF88B
:10472000043001238DF8073002228DF805208DF822
:10473000063001A8FEF7EEFFA3899BB243F0020307
:10474000A38123889BB243F00103238002B010BDF4
:10475000003802400000014000000240084BD868C9
:104760004FF47A7303FB00F0A0F57420A0F5C56048
:10477000044BA3FB0030800900F57A70704700BF3E
:1047800038030020D34D621008B502211748FFF707
:1047900000F9012804D0FFF7E1FF154B186008BDB0
:1047A0001248FFF7E8F80130B0F5805F02D9114BED
:1047B00001221A600F4B1B68012B04D002210B4809
:1047C000FFF7F3F8E7E70948FFF7D5F80A490A6861
:1047D000531C0B600130094941F82200082BEDD928
:1047E0000023054A1360034A1360E7E70000014015
:1047F0006003002030030020340300203803002031
:1048000008B5FFF7BDFB4FF47A7000F075FEF8E7CE
:1048100008B5FFF7BDFB4FF4FA6000F06DFEF8E756
:1048200010B5FFF7FBFA114800F0F0FF104C238899
:1048300001332380FFF7BAFE0E4800F0E7FF23881C
:1048400001332380FFF771FB0B4800F0DFFF238863
:1048500001332380FFF7BCFEFFF744FC074800F05C
:10486000D5FFFF2000F004FD10BD00BF845B0008F1
:1048700064030020A05B0008B45B0008C85B00086C
:1048800000B5A3B00022264BCDE91A230022002355
:10489000CDE91C23CDE91E23CDE92023CDE90C234E
:1048A000CDE90E23CDE9102306A8FFF7E3FA9FED2B
:1048B0001A0B06AB0CAA12A91AA8FFF781F80DF182
:1048C000680C0DF1480EBEE80F00ACE80F009EE842
:1048D0000F008CE80F000DF1300E0DF1180CBCE844
:1048E0000F00AEE80F009CE803008EE80300642090
:1048F00000F002FEDDE92023CDE90423DDE91E23DB
:10490000CDE90223DDE91C23CDE90023DDE91A23EB
:10491000044800F013FFC7E79A9999999999B93F0C
:104920000000F03FE05B000808B51C4800F072F89A
:10493000FFF702FB06231A4A00211A4800F050FC38
:10494000194A1A49062000F037FD0723184A0021AA
:10495000184800F045FC184A1849072000F02CFDC3
:104960000823174A0021174800F03AFC164A174955
:10497000082000F021FD40F6B83000F0BDFD0A230C
:10498000134A0021134800F02BFC134A13490A2054
:1049900000F012FDFF2000F06BFC08BD40D10C00C0
:1049A0006483002001480008F45B0008005C0008F4
:1049B0006463002011480008085C0008145C0008CB
:1049C00064430020214800081C5C0008305C00089B
:1049D0006423002081480008405C0008505C000807
:1049E00008B500F08FFA0223064A0021064800F0BD
:1049F000F7FB064A0649022000F0DEFC00F07CF9D5
:104A0000002008BD64A30020294900085C5C000860
:104A10006C5C00084FF0E0235A69013802435A6188
:104A200059699A690A439A611A6942F004021A6143
:104A30001A6942F002021A611A6942F001021A610F
:104A400070470000094B4FF4807203E0013A0021E7
:104A500043F8041B002AF9D1054A064B136023F0E2
:104A600007031360044B40221A60704770A30020B4
:104A70006CA3002070A7002068A300207047704737
:104A80007047704770470000131D23F007034FF075
:104A9000807243F8042C43F8080C1E4A43F80C2C8F
:104AA0004FF0123243F8102C4FF0033243F8142C1D
:104AB0004FF0023243F8182C4FF0013243F81C2C0F
:104AC00043F8201C6FF0020243F8242C4FF01132FF
:104AD00043F8282C4FF0103243F82C2C4FF00932B9
:104AE00043F8302C4FF0083243F8342C4FF00732A3
:104AF00043F8382C4FF0063243F83C2C4FF0053287
:104B000043F8402C4FF0043243F8442CA3F1440006
:104B1000704700BF19540008704710B54020FBF7DC
:104B2000A6FB044600F094F82046FBF7AEFB00F02D
:104B300005F900F09FF810BD0023084A1360084AE9
:104B40001370084A1370084A1370084A1370084A11
:104B50001360084A1360084A1370704770A700205A
:104B600064B2002063B2002054B2002055B200208D
:104B7000B0B3002050B2002074A7002000230A4ADE
:104B8000137004E0094A0021D1540133DBB2072B32
:104B9000F8D90023064A1370064A1370064A1360B8
:104BA000064A1360704700BF60B2002058B2002070
:104BB00062B2002061B2002044B000204CB000205E
:104BC000064B1B78064AD15CCB00DBB20548415C42
:104BD000525C1344044A1370704700BF60B2002057
:104BE0008C5C000858B2002061B2002000B589B08A
:104BF0000C4A032304930021039180230293A2F51E
:104C0000FE7301934FF6FF7300933F23064800F0B5
:104C10001DFC0DF11F0205493F2000F0CDFB09B03E
:104C20005DF804FB4CB20020314C0008785C0008B1
:104C300008B54020FBF71BFB044A136801331360DF
:104C4000FBF723FBFFF71DFFF3E700BF50B2002087
:104C5000064B1B78012B00D07047054B1B78FF2BB0
:104C6000FAD00133024A1370F6E700BF55B20020B4
:104C700064B20020184B1B78012B00D0704710B590
:104C80004020FBF7F4FA0446144B1B7813B1013BA8
:104C9000124A1370114B1B7813B9114B1B781BB1BF
:104CA0002046FBF7F2FA10BDFFF78AFF0D4B1B7889
:104CB0000D4A52F823200D490A600D4909788B42AC
:104CC000EED0936B013393630A4A13680133136088
:104CD000FBF722FBE4E700BF55B2002064B20020DE
:104CE00063B2002061B2002040AF002044B0002039
:104CF00062B20020B0B3002008B50A4B1B7803B1A4
:104D000008BDFFF75DFF084B1B78084A1370084A7F
:104D100052F82330074A1360074A1360FBF7BEFAC4
:104D2000EEE700BF55B2002061B2002062B2002061
:104D300040AF002044B000204CB0002010B540200F
:104D4000FBF795FA284A136801331360FBF79DFAC5
:104D5000264B1B78012B00D010BD254B1B78012B57
:104D6000FAD0022B04D033B1214B00221A7002E09A
:104D70001F4B01221A701F4B1C6806E0002384F8A9
:104D800031301CE06469FBF780FA94F832303F2B35
:104D9000E2D04020FBF76BFAE36A002BF2D0013B34
:104DA000E362002BEED194F8303013F0370FE5D0EA
:104DB00023F0370384F83030012384F8313094F83D
:104DC000303013F0080FDDD194F836300A4A1178EC
:104DD0000B43137094F8342008498B5C94F835C069
:104DE00043EA0C038B54CDE770A7002055B2002096
:104DF00058A8002040B0002060B2002058B2002027
:104E0000704790F834200A44D37A90F835C023EAEA
:104E10000C03D3722BB98B7A90F8362023EA020365
:104E20008B720023C361704704E0002300F8013B4C
:104E3000013989B20029F8D17047000010B540F25D
:104E4000E4611248FFF7F0FF4FF480711048FFF75C
:104E5000EBFF00210BE04A1CD2B254200B4B00FBAD
:104E6000023400FB01335C610A49D96411461329FD
:104E7000F1D9064B542202FB013100224A61054858
:104E8000C86405490A60054A136010BD5CA800208B
:104E900040AF0020885C000840B0002048B00020EF
:104EA00010B5F0211448FFF7BFFF002315E0591C8F
:104EB00089B201EB4102D0000F4A104403EB430ECC
:104EC0004FEACE0C02EB0C0E002402F80C40CEF898
:104ED00004000A4BCEF814300B46082BE7D9064ADB
:104EE00003EB4300C1005418002050546060034B92
:104EF0006361034B1A6010BDBCB20020885C0008DF
:104F0000ACB3002008B5FFF79DFDFFF715FEFFF7D6
:104F100035FEFFF793FFFFF7C3FF00F0CDF800F079
:104F200009F900F03BF9FFF761FEFFF7A7FD00F07C
:104F3000C1F808BD10B54020FBF799F90446104BA5
:104F40001B7813B90F4B1B781BB12046FBF79DF95B
:104F500010BDFFF735FE0C4B1B780C4A52F823208E
:104F60000B490A600B4909788B42EED0936B0133F1
:104F70009363094A136801331360FBF7CDF9E4E743
:104F800064B2002063B2002061B2002040AF002074
:104F900044B0002062B20020B0B300202DE9F041FF
:104FA0000546884617461E464020FBF760F93A4BF7
:104FB0001C68002C6BD062691A60FBF766F9C4F8B4
:104FC000008084F83250002184F8301084F83110C9
:104FD000E162079B6360069BE360A760BDF8203039
:104FE0002382668284F83710EA0884F8342005F0BA
:104FF000070084F83300012303FA02F284F8362014
:10500000834084F83530E16161622162A1632164EB
:10501000E1636164A164214BE36481B32046FFF73F
:105020007BFD4020FBF723F91D4B43F82540FBF7A0
:105030002CF92046FFF723FD4020FBF718F9194B08
:105040001B6863610022A26103B19C61154B1C6067
:1050500094F83630144A11780B43137094F83420C6
:1050600012498B5C94F8354023438B54104A1378D3
:1050700001331370FBF709F90020BDE8F08101F15D
:105080001403002244F823200131C9B2C5E7FBF71D
:10509000FCF84220F1E700BF48B00020885C00081F
:1050A00040AF002040B0002060B2002058B2002085
:1050B00054B200207047000008B550211148FFF796
:1050C000B3FE002310E05A1C92B20E4901EB02100D
:1050D0004FEA031C01EB03134FF0000E01F80CE044
:1050E00058600949D9601346032BECD9054A1801C9
:1050F00002EB03130021115459600349D960034B9B
:105100001A6008BD6CB20020885C000868B20020FC
:105110004268036832B1136003B15A6083680022A9
:105120005A627047C2685360002BF7D000225A6061
:10513000F4E7000008B578211548FFF775FE002355
:1051400013E003F1010C0CEB4C02D100104A88185B
:1051500003EB430E4FEACE01114448607346D90079
:105160000A440C4B53611FFA8CF3032BE9D908490D
:1051700003EB4300C2000A440020506003EB4303EA
:10518000DA000A44034B5361034B196008BD00BFAA
:10519000DCA70020885C000854A8002010B560211E
:1051A0000D48FFF741FE00230BE05A1C92B202EBC0
:1051B0004200C100084C214403EB4303D8002150B6
:1051C0001346022BF1D9044A03EB4303D900002311
:1051D0005350024B1A6010BD78A70020D8A70020BA
:1051E000F0B585B005460E4617461C464020FBF735
:1051F0003EF81C4B1B784BB91B4B53F824304BB17A
:10520000FBF743F82825284605B0F0BDFBF73DF82D
:105210003C25F8E7144B012243F82420FBF735F82E
:1052200000233A4631462846FFF72EFC014600226D
:1052300002920192009213462046FFF7AFFE054608
:1052400030B90A4B1B78012BDDD1FFF773FEDAE78B
:105250004020FBF70CF8044B002243F82420FBF716
:1052600014F8D0E764B2002040AF002055B200200F
:10527000F8B5464B1D78002D40F0838004463F284A
:1052800000F081804020FAF7F2FF0646FF2C60D044
:1052900027463F4B53F82440002C5FD0012C62D0AE
:1052A00094F834103B4B5A5C94F8350022EA000223
:1052B0005A5494F834209B5C33B994F83610364A2B
:1052C000137823EA01031370E16911B12046FFF757
:1052D00098FD606A08B1FFF71BFF0023E36284F8C2
:1052E000303084F831302D4B1B78FF2B02D0013346
:1052F0002A4A13703046FAF7C8FFFFF781FD4020B5
:10530000FAF7B5FF0646254B1B7813B1013B234A3C
:1053100013702046FFF7B4FB214A1378013B13704A
:105320001B4B002243F82720A3690BB362695A6123
:10533000A36993611B4B1A6862611C601A4BE3649A
:105340003046FAF7A2FF194B1B78012B16D02846DE
:10535000F8BD174B1B6893F8324099E73046FAF7CF
:1053600094FF4325F3E73046FAF78FFF3D25EEE73C
:1053700063699A6162690F4B1A60DBE7FFF7DAFD38
:10538000E5E74025E3E73E25E1E700BF64B2002002
:1053900040AF002058B2002060B2002063B200206D
:1053A00054B2002048B00020885C000855B20020AC
:1053B0004CB0002040B0002070B51546134B1B7850
:1053C00013B11223137070BD04460E464020FAF745
:1053D0004EFFFF2C0BD00E4B53F8243063B1012B42
:1053E0000FD0DE64FAF751FF00232B70EBE7094B77
:1053F0001B6893F83240EEE7FAF747FF43232B7020
:10540000E1E7FAF742FF43232B70DCE764B20020A8
:1054100040AF00204CB0002008B5044B1868FFF7DF
:1054200031FBFF20FFF724FF08BD00BF4CB0002078
:1054300012F0010F09D012F0020F04D170470139A8
:10544000002340F8043B0029F9D170472DE9F041D1
:1054500084B005460E4617461C46BDF838804020ED
:10546000FAF705FF214B1B7853B9214B53F8243031
:1054700053B1FAF70AFF2825284604B0BDE8F081A9
:10548000FAF703FF3C25F7E7194B012243F82420E4
:10549000FAF7FBFE42460C990B98FFF7C9FF43460B
:1054A0003A4631462846FFF7EFFA0146CDF8088024
:1054B0000D9B01930C9B0093BDF828300B9A20465E
:1054C000FFF76CFD054630B90A4B1B78012BD3D191
:1054D000FFF730FDD0E74020FAF7C9FE044B002269
:1054E00043F82420FAF7D1FEC6E700BF64B20020DB
:1054F00040AF002055B2002038B5144BA3FB002369
:10550000DC08134B1B7823B9124B1B780BB9092805
:1055100000D838BD4020FAF7AAFE0F4B1A6892F85F
:1055200034100E4D6B5C92F835C023EA0C036B54BB
:1055300033B992F836500A490B7823EA05030B7009
:10554000D462FAF7A2FEFFF7F5FCE2E7CDCCCCCCB3
:1055500064B2002063B200204CB0002058B200209A
:1055600060B20020DFF834D00D480E490E4A002307
:1055700002E0D458C4500433C4188C42F9D30B4A07
:105580000B4C002301E013600432A242FBD300F075
:1055900073F8FCF787F9FFF723FA704700800120C2
:1055A00000000020C80100209C5D0008C801002008
:1055B000B8B30020FEE7000082B0002301930093FF
:1055C000294A136843F480331360274B1B6803F4A4
:1055D00000330093019B01330193009B1BB9019B96
:1055E000B3F5A04FF1D1204B1B6813F4003F06D058
:1055F00001230093009B012B04D002B070470023CD
:105600000093F7E7184B1A6C42F080521A6417495E
:105610000A6842F440420A609A689A609A689A60FE
:105620009A6842F480529A60114A5A601A6842F0AD
:1056300080721A600C4B1B6813F0007FFAD00D4B80
:1056400040F205721A60A3F580639A6822F00302A3
:105650009A609A6842F002029A60034B9B6803F0DA
:105660000C03082BF9D1C8E7003802400070004055
:1056700008544107003C024010B5104CD4F8883063
:1056800043F47003C4F888300D4B1A6842F00102ED
:105690001A60002199601A6822F0847222F4803224
:1056A0001A60084A5A601A6822F480221A60D96087
:1056B000FFF782FF4FF00063A36010BD00ED00E034
:1056C00000380240103000244FF400534B6000209B
:1056D0007047012070474FF0FF307047002070473F
:1056E00070B50C461646002504E014F8010BFEF7D1
:1056F00089FB0135B542F8DB304670BD00207047AC
:105700000346064A126822B1044A10680344136033
:105710007047024A02491160F6E700BFB4B30020A7
:10572000B8B30020024B16221A604FF0FF307047CA
:105730002003002001207047FEE700000FB407B5EA
:10574000064904AB086853F8042B81680193FDF700
:1057500063FD03B05DF804EB04B070470C0000205B
:10576000036A70B5846805460E460BB9FBF7CEFF99
:10577000636EDB0705D4A389980502D4A06DFCF7FE
:10578000B6F8A389190702D52369002B35D1214624
:105790002846FDF797FE80B34FF0FF35636EDA07BA
:1057A00005D4A3899B0502D4A06DFCF7A1F8284677
:1057B00070BD002B15DB23685A1C22601970A3688A
:1057C00016F8011F013BA3600029F2D1002B16DA65
:1057D00022460A212846FDF737FE0130DCD00A2593
:1057E000DCE7A2699A4201DC0A29E4D12246284674
:1057F000FDF72AFE0130E2D1CEE7013EDFE7236864
:105800005A1C22600A221A70E9E70000024B014686
:105810001868FFF7A5BF00BF0C000020F8B500BF57
:10582000F8BC08BC9E467047F8B500BFF8BC08BC81
:045830009E467047D9
:10583800494E4600696E66004E414E006E616E002C
:105848003000303132333435363738394142434409
:105858004546003031323334353637383961626382
:1058680064656600496E66696E697479004E614EBA
:10587800005245454E54206D616C6C6F6320737502
:1058880063636565646564002E2E2F2E2E2F2E2EE1
:105898002F2E2E2F2E2E2F2E2E2F6E65776C6962AF
:1058A8002D342E332E302E32303233303132302FE9
:1058B8006E65776C69622F6C6962632F7374646CB0
:1058C80069622F64746F612E630042616C6C6F6350
:1058D80020737563636565646564002E2E2F2E2E14
:1058E8002F2E2E2F2E2E2F2E2E2F2E2E2F6E65770B
:1058F8006C69622D342E332E302E323032333031F3
:1059080032302F6E65776C69622F6C6962632F7312
:1059180074646C69622F6D707265632E6300430056
:10592800504F534958002E002C2066756E637469D9
:105938006F6E3A2000617373657274696F6E20220E
:10594800257322206661696C65643A2066696C6516
:1059580020222573222C206C696E6520256425730E
:1059680025730A00232D302B2000686C4C006566D7
:1059780067454647000000000500000019000000C8
:105988007D000000000000000080E03779C341433B
:10599800176E05B5B5B89346F5F93FE9034F384D8D
:1059A800321D30F94877825A3CBF737FDD4F157539
:1059B800000000000000F03F00000000000024404C
:1059C80000000000000059400000000000408F4027
:1059D800000000000088C34000000000006AF84092
:1059E8000000000080842E4100000000D0126341B6
:1059F8000000000084D797410000000065CDCD412C
:105A0800000000205FA00242000000E8764837420C
:105A1800000000A2941A6D42000040E59C30A242AA
:105A28000000901EC4BCD64200003426F56B0C431F
:105A38000080E03779C3414300A0D88557347643C6
:105A480000C84E676DC1AB43003D9160E458E14327
:105A5800408CB5781DAF154450EFE2D6E41A4B449C
:105A680092D54D06CFF08044F64AE1C7022DB544E1
:105A7800B49DD9794378EA440020202020202020B2
:105A880020202828282828202020202020202020E6
:105A980020202020202020202088101010101010F6
:105AA8001010101010101010100404040404040442
:105AB80004040410101010101010414141414141DC
:105AC80001010101010101010101010101010101BE
:105AD80001010101101010101010424242424242CE
