:020000040800F2
:1000000000800120FD6100084D6200084D6200087B
:100010004D6200084D6200084D62000800000000BB
:100020000000000000000000000000004D62000819
:100030004D6200080000000093020008254D0008F2
:100040004D6200084D6200084D6200084D620008D4
:100050004D6200084D6200084D6200084D620008C4
:100060004D6200084D6200084D6200084D620008B4
:100070004D6200084D6200084D6200084D620008A4
:100080004D6200084D6200084D620008000000004B
:100090000000000000000000000000004D620008A9
:1000A0004D6200084D6200084D6200087548000866
:1000B0004D6200084D6200084D6200084D62000864
:1000C0004D6200084D6200084D6200084D62000854
:1000D0004D620008593100084D6200080000000020
:1000E0004D6200084D6200084D62000800000000EB
:1000F0000000000000000000000000004D62000849
:10010000000000004D6200084D6200084D620008CA
:1001100000000000000000000000000000000000DF
:100120004D6200084D6200084D6200084D620008F3
:100130004D62000800000000000000000000000008
:100140000000000000000000000000004D620008F8
:100150004D6200084D6200084D6200084D620008C3
:100160004D6200084D620008000000000000000021
:10017000000000000000000000000000000000007F
:10018000000000004D6200080000000000000000B8
:040190004D620008B4
:1001C000EFF3098121B120ED108A4F490A681060D0
:1001D0007047B0EC108A4D490A681060704772B6DB
:1001E00002B4EFF3118180F31188BFF34F8FBFF397
:1001F0006F8F084602BC62B6704772B680F31188F2
:10020000BFF34F8FBFF36F8F62B6704772B64EF673
:100210002250CEF2000040F2FF01C0F20001017056
:10022000002080F309884BF23C20C2F200000168F4
:1002300081F308883648012101704CF25260C2F205
:1002400000004CF25161C2F200010A7802704CF2D7
:100250003C40C2F200004CF23441C2F200010A6894
:100260000260106880F30988EFF3148040F0020008
:1002700080F31488BFF36F8FBDE8F04F0FBCBDE86B
:10028000005006BC62B6084722484FF0805101601A
:10029000704772B64BF23422C2F20002116881F349
:1002A0001188BFF34F8FBFF36F8F62B6EFF30980F2
:1002B00020E9F04F4CF23C45C2F200052968086085
:1002C00074464CF25260C2F200004CF25161C2F22C
:1002D00000010A7802704CF23441C2F200010A684F
:1002E0002A6044F0040E1068B0E8F04F80F30988EB
:1002F0004FF0000272B682F31188BFF34F8FBFF345
:100300006F8F62B6704700003CC4002034C40020E8
:1003100045C6002004ED00E081F0004102E000BF8E
:1003200083F0004330B54FEA41044FEA430594EAB5
:10033000050F08BF90EA020F1FBF54EA000C55EAF0
:10034000020C7FEA645C7FEA655C00F0E2804FEAC1
:100350005454D4EB5555B8BF6D420CDD2C4480EAA3
:10036000020281EA030382EA000083EA010180EAD3
:10037000020281EA0303362D88BF30BD11F0004F21
:100380004FEA01314FF4801C4CEA113102D0404257
:1003900061EB410113F0004F4FEA03334CEA133392
:1003A00002D0524263EB430394EA050F00F0A780AA
:1003B000A4F10104D5F1200E0DDB02FA0EFC22FAA5
:1003C00005F2801841F1000103FA0EF2801843FA99
:1003D00005F359410EE0A5F120050EF1200E012A8A
:1003E00003FA0EFC28BF4CF0020C43FA05F3C018C8
:1003F00051EBE37101F0004507D54FF0000EDCF141
:10040000000C7EEB00006EEB0101B1F5801F1BD3E9
:10041000B1F5001F0CD349085FEA30004FEA3C0CED
:1004200004F101044FEA445212F5800F80F09A80E3
:10043000BCF1004F08BF5FEA500C50F1000041EBE7
:10044000045141EA050130BD5FEA4C0C404141EBEB
:100450000101013C28BFB1F5801FE9D291F0000FE6
:1004600004BF01460020B1FA81F308BF2033A3F195
:100470000B03B3F120020CDA0C3208DD02F1140C8C
:10048000C2F10C0201FA0CF021FA02F10CE002F1C7
:100490001402D8BFC2F1200C01FA02F120FA0CFCC0
:1004A000DCBF41EA0C019040E41AA2BF01EB045109
:1004B000294330BD6FEA04041F3C1CDA0C340EDC07
:1004C00004F11404C4F1200220FA04F001FA02F34A
:1004D00040EA030021FA04F345EA030130BDC4F108
:1004E0000C04C4F1200220FA02F001FA04F340EAFD
:1004F0000300294630BD21FA04F0294630BD94F0AE
:10050000000F83F4801306BF81F480110134013D94
:100510004EE77FEA645C18BF7FEA655C29D094EA05
:10052000050F08BF90EA020F05D054EA000C04BF83
:100530001946104630BD91EA030F1EBF002100206E
:1005400030BD5FEA545C05D14000494128BF41F00D
:10055000004130BD14F580043CBF01F5801130BD71
:1005600001F0004545F0FE4141F470014FF00000FC
:1005700030BD7FEA645C1ABF194610467FEA655CAD
:100580001CBF0B46024650EA013406BF52EA03354F
:1005900091EA030F41F4002130BD00BF90F0000F3D
:1005A00004BF0021704730B54FF4806404F1320479
:1005B0004FF000054FF0000150E700BF90F0000F32
:1005C00004BF0021704730B54FF4806404F1320459
:1005D00010F0004548BF40424FF000013EE700BF29
:1005E00042004FEAE2014FEA31014FEA02701FBFB9
:1005F00012F07F4393F07F4F81F06051704732F0EB
:100600007F4208BF704793F07F4F04BF41F4002141
:10061000704730B54FF4607401F0004521F000419F
:100620001CE700BF50EA010208BF704730B54FF029
:1006300000050AE050EA010208BF704730B511F02A
:10064000004502D5404261EB41014FF4806404F162
:1006500032045FEA915C3FF4D8AE4FF003025FEAE8
:10066000DC0C18BF03325FEADC0C18BF033202EB6C
:10067000DC02C2F1200300FA03FC20FA02F001FAC6
:1006800003FE40EA0E0021FA02F11444BDE600BF69
:1006900070B54FF0FF0C4CF4E06C1CEA11541DBF18
:1006A0001CEA135594EA0C0F95EA0C0F00F0DEF8E3
:1006B0002C4481EA030621EA4C5123EA4C5350EAC8
:1006C000013518BF52EA033541F4801143F4801319
:1006D00038D0A0FB02CE4FF00005E1FB02E506F0AA
:1006E0000042E0FB03E54FF00006E1FB03569CF0FF
:1006F000000F18BF4EF0010EA4F1FF04B6F5007F05
:1007000064F5407404D25FEA4E0E6D4146EB060676
:1007100042EAC62141EA55514FEAC52040EA5E50FF
:100720004FEACE2EB4F1FD0C88BFBCF5E06F1ED8A9
:10073000BEF1004F08BF5FEA500E50F1000041EBE0
:10074000045170BD06F0004646EA010140EA02008D
:1007500081EA0301B4EB5C04C2BFD4EB0C0541EAAF
:10076000045170BD41F480114FF0000E013C00F3C4
:10077000AB8014F1360FDEBF002001F0004170BDE8
:10078000C4F10004203C35DA0C341BDC04F1140401
:10079000C4F1200500FA05F320FA04F001FA05F28D
:1007A00040EA020001F0004221F0004110EBD3705A
:1007B00021FA04F642EB06015EEA430E08BF20EA86
:1007C000D37070BDC4F10C04C4F1200500FA04F329
:1007D00020FA05F001FA04F240EA020001F00041BB
:1007E00010EBD37041F100015EEA430E08BF20EA2E
:1007F000D37070BDC4F1200500FA05F24EEA020E76
:1008000020FA04F301FA05F243EA020321FA04F0A4
:1008100001F0004121FA04F220EA020000EBD3705B
:100820005EEA430E08BF20EAD37070BD94F0000F5B
:100830000FD101F00046400041EB010111F4801F8F
:1008400008BF013CF7D041EA060195F0000F18BF40
:10085000704703F00046520043EB030313F4801F7C
:1008600008BF013DF7D043EA0603704794EA0C0F36
:100870000CEA135518BF95EA0C0F0CD050EA41064C
:1008800018BF52EA4306D1D181EA030101F00041C9
:100890004FF0000070BD50EA410606BF10461946F1
:1008A00052EA430619D094EA0C0F02D150EA0136FD
:1008B00013D195EA0C0F05D152EA03361CBF10463E
:1008C00019460AD181EA030101F0004141F0FE41DD
:1008D00041F470014FF0000070BD41F0FE4141F461
:1008E000780170BD70B54FF0FF0C4CF4E06C1CEA61
:1008F00011541DBF1CEA135594EA0C0F95EA0C0F16
:1009000000F0A7F8A4EB050481EA030E52EA0335D0
:100910004FEA013100F088804FEA03334FF08055F1
:1009200045EA131343EA12634FEA022245EA11151E
:1009300045EA10654FEA00260EF000419D4208BFCF
:10094000964244F1FD0404F5407402D25B084FEA7C
:100950003202B61A65EB03055B084FEA32024FF428
:1009600080104FF4002CB6EB020E75EB030E22BF85
:10097000B61A754640EA0C005B084FEA3202B6EB45
:10098000020E75EB030E22BFB61A754640EA5C00F4
:100990005B084FEA3202B6EB020E75EB030E22BF84
:1009A000B61A754640EA9C005B084FEA3202B6EB85
:1009B000020E75EB030E22BFB61A754640EADC0044
:1009C00055EA060E18D04FEA051545EA16754FEAA6
:1009D00006164FEAC30343EA52734FEAC2025FEAC4
:1009E0001C1CC0D111F4801F0BD141EA00014FF053
:1009F00000004FF0004CB6E711F4801F04BF014324
:100A00000020B4F1FD0C88BFBCF5E06F3FF6AFAE3F
:100A1000B5EB030C04BFB6EB020C5FEA500C50F1CF
:100A2000000041EB045170BD0EF0004E4EEA113152
:100A300014EB5C04C2BFD4EB0C0541EA045170BD59
:100A400041F480114FF0000E013C90E645EA060E9D
:100A50008DE60CEA135594EA0C0F08BF95EA0C0FCB
:100A60003FF43BAF94EA0C0F0AD150EA01347FF413
:100A700034AF95EA0C0F7FF425AF104619462CE7EA
:100A800095EA0C0F06D152EA03353FF4FDAE10464D
:100A9000194622E750EA410618BF52EA43067FF49E
:100AA000C5AE50EA41047FF40DAF52EA43057FF42E
:100AB000EBAE12E74FF0FF3C06E000BF4FF0010C39
:100AC00002E000BF4FF0010C4DF804CD4FEA410C9D
:100AD0007FEA6C5C4FEA430C18BF7FEA6C5C1BD06A
:100AE00001B050EA410C0CBF52EA430C91EA030FEB
:100AF00002BF90EA020F0020704710F1000F91EA48
:100B0000030F58BF994208BF90422CBFD8176FEA15
:100B1000E37040F0010070474FEA410C7FEA6C5CE3
:100B200002D150EA013C07D14FEA430C7FEA6C5CEA
:100B3000D6D152EA033CD3D05DF8040B704700BF16
:100B40008446104662468C461946634600E000BF64
:100B500001B5FFF7B7FF002848BF10F1000F01BD36
:100B60004DF808EDFFF7F4FF0CBF012000205DF801
:100B700008FB00BF4DF808EDFFF7EAFF34BF012086
:100B800000205DF808FB00BF4DF808EDFFF7E0FF1F
:100B900094BF012000205DF808FB00BF4DF808ED70
:100BA000FFF7CEFF94BF012000205DF808FB00BFD7
:100BB0004DF808EDFFF7C4FF34BF012000205DF8B9
:100BC00008FB00BF4FEA4102B2F1E04324BFB3F596
:100BD000001CDCF1FE5C0DD901F0004C4FEAC002B4
:100BE0004CEA5070B2F1004F40EB830008BF20F098
:100BF0000100704711F0804F21D113F13872BCBF52
:100C000001F00040704741F480114FEA5252C2F1A6
:100C10001802C2F1200C10FA0CF320FA02F018BFEF
:100C200040F001004FEAC1234FEAD32303FA0CFC42
:100C300040EA0C0023FA02F34FEA4303CCE77FEAD1
:100C4000625307D150EA01331EBF4FF0FE4040F41B
:100C50004000704701F0004040F0FE4040F40000CA
:100C6000704700BF0000000000000000000000000E
:100C70000000000000000000000000000000000074
:100C800002780B78012A28BF9A4240F0D8806DE99B
:100C9000044540EA0104CDE902676FF0000C4FEA19
:100CA00044721AB380EA010414F0070F6BD100F00C
:100CB000070420F0070004F0030521F007014FEAC4
:100CC000C505F0E8042314F0040FF1E804670CFAFA
:100CD00005F462EA040266EA04060BD063EA040340
:100CE000624667EA0407664604E000BFF0E80423B2
:100CF000F1E8046782FA4CF582EA0604A4FA8CF45F
:100D00006CBB83FA4CF583EA0705A5FA8CF595B917
:100D100050E9022351E9026782FA4CF582EA06049F
:100D2000A4FA8CF483FA4CF583EA0705A5FA8CF54E
:100D30002543DBD09CB92DBAB5FA85F424F007041D
:100D400027FA04F1DDE9026723FA04F303F0FF0058
:100D500001F0FF01FDE80445A0EB0100704724BA53
:100D6000B4FA84F424F0070426FA04F1DDE90267FA
:100D700022FA04F202F0FF0001F0FF01FDE8044551
:100D8000A0EB0100704714F0030F3CD110F00304F6
:100D900028D150F8082B51F8083B82FA4CF582EA2A
:100DA0000305A5FA8CF55DB950F8042C51F8043C04
:100DB00082FA4CF582EA0305A5FA8CF5002DE8D0FD
:100DC0002DBAB5FA85F424F0070423FA04F122FAC7
:100DD00004F202F0FF0001F0FF01FDE80445A0EB82
:100DE000010070474FEAC40420F0030050F8082BBC
:100DF00021F0030151F8083B0CFA04F462EA040202
:100E000063EA0403C9E710F003041DD0A1EB040159
:100E100020F00300E40750F8042B06D012D28B78A0
:100E20005FFAA2F4E41A06D12BB1CB785FFAB2F4E0
:100E3000E41A00D133B920465DF8104B7047A2EB9D
:100E40000300704701F1040150F8042BCC0721F096
:100E5000030151F8043B48D824D222F07F4482FA9F
:100E60004CF594EA1325A5FA8CF50AD165B951F829
:100E7000043B84EA0204B4EB036F0ED150F8042B58
:100E8000EBE74FEA132355E035F07F454DD1087865
:100E9000FDE80445C0F1000070474FEA126203F01C
:100EA000FF0347E002EA1C4482FA4CF594EA13453A
:100EB000A5FA8CF50AD165B951F8043B84EA02041D
:100EC000B4EB034F0CD150F8042BEBE74FEA13437C
:100ED00030E015EA1C4528D10B884FEA124229E080
:100EE0004FEA124203EA1C4324E002F0FF0482FAB4
:100EF0004CF594EA1365A5FA8CF50AD165B951F859
:100F0000043B84EA0204B4EB032F09D150F8042B0C
:100F1000EBE74FEA13630DE015F0FF0F05D10B6807
:100F20004FEA122223F07F4304E04FF00000FDE877
:100F30000445704712BA1BBA82FA4CF482EA0304E1
:100F4000A4FA8CF5B5FA85F402FA04F203FA04F374
:100F50004FEA1260FDE80445A0EB1360704700BF44
:100F6000844641EA000313F003036DD1403A41D3B4
:100F700051F8043B40F8043B51F8043B40F8043B73
:100F800051F8043B40F8043B51F8043B40F8043B63
:100F900051F8043B40F8043B51F8043B40F8043B53
:100FA00051F8043B40F8043B51F8043B40F8043B43
:100FB00051F8043B40F8043B51F8043B40F8043B33
:100FC00051F8043B40F8043B51F8043B40F8043B23
:100FD00051F8043B40F8043B51F8043B40F8043B13
:100FE00051F8043B40F8043B51F8043B40F8043B03
:100FF000403ABDD2303211D351F8043B40F8043BA3
:1010000051F8043B40F8043B51F8043B40F8043BE2
:1010100051F8043B40F8043B103AEDD20C3205D3B2
:1010200051F8043B40F8043B043AF9D2043208D0AA
:10103000D2071CBF11F8013B00F8013B01D30B881C
:1010400003806046704700BF082A13D38B078DD0FA
:1010500010F003038AD0C3F10403D21ADB071CBFCC
:1010600011F8013B00F8013B80D331F8023B20F836
:10107000023B7BE7043AD9D3013A11F8013B00F86F
:10108000013BF9D20B7803704B7843708B788370F7
:1010900060467047000000000000000000000000F3
:1010A0000000000000000000000000000000000040
:1010B0000000000000000000000000000000000030
:1010C00030B490F800F020F007016FF0000C10F041
:1010D000070491F820F040F048804FF000046FF0D2
:1010E0000700D1E9002391F840F000F1080082FAEE
:1010F0004CF2A4FA8CF283FA4CF3A2FA8CF34BBBB9
:10110000D1E9022382FA4CF200F10800A4FA8CF231
:1011100083FA4CF3A2FA8CF3E3B9D1E9042382FAFF
:101120004CF200F10800A4FA8CF283FA4CF3A2FA14
:101130008CF37BB9D1E9062301F1200182FA4CF24C
:1011400000F10800A4FA8CF283FA4CF3A2FA8CF3B3
:10115000002BC6D0002A04BF04301A4612BAB2FAD5
:1011600082F200EBD20030BC7047D1E9002304F0DA
:101170000305C4F100004FEAC50514F0040F91F80F
:1011800040F00CFA05F562EA05021CBF63EA0503AC
:1011900062464FF00004AAE70000000000000000D3
:1011A00001F0FF01102A2BDB10F0070F08D010F818
:1011B000013B013A8B422DD010F0070F42B3F6D11C
:1011C000F0B441EA012141EA014122F007047FF035
:1011D00000070023F0E80256083C85EA010586EA8C
:1011E000010685FA47F5A3FA87F586FA47F6A5FAC8
:1011F00087F68EB9EED1F0BC01F0FF0102F00702D4
:1012000032B110F8013B013A83EA010313B1F8D17E
:101210000020704701387047002D06BF354603385F
:10122000073815F0010F07D1013015F4807F02BF98
:10123000013015F4C03F0130F0BC0138704700BFE9
:101240004FEA410C7FEA6C5C02D150EA013C0AD1C2
:101250004FEA430C7FEA6C5C02D152EA033C02D1B4
:101260004FF0000070474FF0010070474FEA410215
:1012700012F5001215D211D56FF47873B3EB6252E8
:1012800012D94FEAC12343F0004343EA505311F00F
:10129000004F23FA02F018BF404270474FF00000A1
:1012A000704750EA013005D111F0004008BF6FF0DF
:1012B000004070474FF00000704700BF4A0011D255
:1012C00012F5001211D20DD56FF47873B3EB6252A0
:1012D0000ED44FEAC12343F0004343EA505323FAAC
:1012E00002F070474FF00000704750EA013002D121
:1012F0004FF0FF3070474FF00000704710B5054CBD
:10130000237833B9044B13B10448AFF300800123B1
:10131000237010BD680A0020000000009CF0000847
:1013200008B5034B1BB103490348AFF3008008BD68
:10133000000000006C0A00209CF000080023014619
:101340001A46184600F024BA024A0349034800F03E
:10135000C9B800BF000000205D2000081000002078
:101360000C4B4168994210B5044601D000F076FE5E
:10137000A168094B994202D0204600F06FFEE16857
:10138000064B994204D02046BDE8104000F066BEEE
:1013900010BD00BF840A0020EC0A0020540B00207E
:1013A0002DE9F843314C324B3248DFF8DC90DFF85E
:1013B000DC80314F1860002529460423082204F1FF
:1013C0005C002E4EE360C4E90055C4E90455A560F5
:1013D0006566A56100F0F2F804F15800C4E9074918
:1013E000C4E90987E66200F0CBF92946244B63671C
:1013F000082204F1C400C4E91A55C4E91E55256742
:10140000C4F8CC50C4F8805000F0D8F804F1680358
:1014100004F1C000C4F88430C4E92298C4E92476F9
:1014200000F0AEF9174BC4F8DC30294604F596708D
:101430000822C4E93455C4E93855C4F8D850C4F872
:101440003451C4F8E85000F0B9F804F1D003C4E90D
:101450003D87C4F8F09004F59470C4F8FC60C4F8BB
:10146000EC30BDE8F84300F08BB900BF840A0020DF
:10147000BC0B00204913000891150008B5150008A1
:1014800009000100120002002D1500085115000886
:1014900010B504460A4800F077F9636B23B9094B8D
:1014A000094A1B68626323B1BDE81040044800F09C
:1014B0006DB9FFF775FFBDE81040014800F066B94F
:1014C000CC0B0020BC0B002061130008014800F089
:1014D0005BB900BFCC0B0020014800F057B900BF3A
:1014E000CC0B00202DE9F84380460F4616464FF0FE
:1014F0000009D6E90154013D11D4A389012B05F15E
:10150000FF3508D9B4F90E300133214603D04046E7
:10151000B84749EA00096B1C04F16804EDD136684C
:10152000002EE6D14846BDE8F88300BF10B50C4652
:10153000B1F90E1000F0BCF8002803DB236D034462
:10154000236510BDA38923F48053A38110BD00BF80
:101550002DE9F0410C46B1F90C101F46CB050546AC
:1015600016460BD421F48051A1813B46B4F90E10EC
:1015700032462846BDE8F04100F0B0B8B4F90E108C
:101580000223002200F07EF8B4F90C10EAE700BF55
:1015900010B50C46B1F90E1000F074F8B4F90C3027
:1015A000421C0EBF23F4805343F480532065A38173
:1015B00010BD00BFB1F90E1000F052B8830730B56E
:1015C00047D0541E002A3ED0CAB2034601E0013C77
:1015D00039D303F8012B9D07F9D1032C2CD9CDB2B7
:1015E00005EB05250F2C05EB054535D9A4F11002B7
:1015F00022F00F0C03F1100EE6444FEA121C1A46BB
:10160000156055609560D56010327245F8D10CF1C7
:10161000010214F00C0F03EB021204F00F0C13D0B4
:10162000ACF1040323F003030433134442F8045BD6
:101630009A42FBD10CF003042CB1C9B21C4403F84C
:10164000011B9C42FBD130BD64461346002CF4D1F3
:10165000F9E703461446C0E71A46A446E0E700BF90
:1016600038B5074D0022044608462A6004F07FFE84
:10167000431C00D038BD2B68002BFBD0236038BD45
:10168000C00B002038B50C46084D84461146204654
:101690001A4600232B60644604F06CFE431C00D005
:1016A00038BD2B68002BFBD0236038BDC00B002059
:1016B00038B50C46084D8446114620461A4600238C
:1016C0002B60644604F066FE431C00D038BD2B68D6
:1016D000002BFBD0236038BDC00B002038B50C4672
:1016E000084D8446114620461A4600232B60644666
:1016F00004F042FE431C00D038BD2B68002BFBD009
:10170000236038BDC00B002070B50F4B0F4DAB42AE
:10171000A3EB050607D0B610002455F8043B0134AE
:101720009847A642F9D80DF0B9FC094D094B5E1B4C
:10173000AB424FEAA60606D0002455F8043B01341C
:101740009847A642F9D870BDF4F90008F4F90008EA
:10175000F4F90008FCF9000838B5074D074C2C1BBC
:10176000A41005D0013C55F8043D9847002CF9D150
:10177000BDE838400DF098BC00FA0008FCF90008FC
:10178000704700BF704700BF704700BF704700BF81
:101790002DE9F8431B4D0646286898460F469146AA
:1017A000FFF7F2FF184B1C681CB3286865681F2DF3
:1017B00022DC4EB96B1C0235636044F82570FFF7DC
:1017C000E5FF0020BDE8F88304EB85010123C1F8A3
:1017D0008890D4F88821AB401A43022EC4F888219F
:1017E000C1F80881E6D1D4F88C211A43C4F88C21C1
:1017F000E0E7064C1C60D8E7FFF7C8FF4FF0FF306A
:10180000E0E700BF30010020600D0020D00B002079
:10181000024B13B10248FFF791BD70470000000072
:10182000591700082DE9F84306460820894600F0BC
:101830004DFDDFF8A4800546304600F003FCD8F8E3
:1018400008305F6827F00307A7F11104A4EB09042F
:101850002C44B4FBF5F4013C05FB04F4A54208DC80
:101860000021304600F020FDD8F808303B44984273
:1018700005D0304600F0ECFB0020BDE8F883614263
:10188000304600F011FD01300FD0114AD8F8083071
:101890003F1B47F001075F60136830461B1B136056
:1018A00000F0D6FB0120BDE8F8830021304600F0AF
:1018B000FBFCD8F80820831A0F2BDADD43F0010374
:1018C0005360044B02491B68C01A0860D1E700BF8F
:1018D000640D0020340100204001002000297CD04C
:1018E0002DE9F0410C46804600F0ACFB54F8043C76
:1018F000764FA4F1080523F001016818BE6842681C
:10190000864222F0030200F08380DE07426000EB93
:10191000020C33D454F8084CDCF804302D1B21445D
:10192000AC6807F1080C644503F0010364D0D5F8F6
:101930000CE0C4F80CE0CEF80840002B00F08180E9
:1019400041F001036B600160B1F5007F22D278683D
:10195000CB080122490901338A40024357F833106A
:101960007A6007EBC302083AC5E9021247F8335020
:10197000CD604046BDE8F04100F06ABBDCF80430C1
:10198000DB072BD541F00103B1F5007F44F8043C9F
:101990000160DCD3B1F5206F4FEA512353D28B099C
:1019A00003F1390003F13802C300F818FB58083876
:1019B000984203D163E09B68984204D05A6822F0B1
:1019C00003028A42F7D8D868C5E902308560DD6035
:1019D0004046BDE8F04100F03BBB7047114407F1C1
:1019E000080C836863453FD0C268DA60936041F0B9
:1019F00001036B606950A7E7002B61D10A44D0E96D
:101A00000213CB60996042F001036B60AA50B0E70B
:101A1000DB070A4407D454F8083CED1A1A44D5E908
:101A20000213CB60996042F001036B60284BBD60EC
:101A30001B6893429DD8274B40461968FFF7F2FE7A
:101A400097E71144CDE7142B08D9542B1FD80B0B63
:101A500003F16F0003F16E02C300A6E703F15C001F
:101A600003F15B02C300A0E741F001033D617D612A
:101A7000C5F808C0C5F80CC06B60695079E7796893
:101A80009210012404FA02F20A437A609CE7B3F54B
:101A9000AA7F06D8CB0B03F1780003F17702C300CD
:101AA00083E740F25452934206D88B0C03F17D0039
:101AB00003F17C02C30078E74FF47E737E2274E763
:101AC00041F001036B60016053E700BF400100205B
:101AD00038010020940D00202DE9F04F01F10B0595
:101AE000162D85B0064623D8102900F2B08000F0EC
:101AF000A9FA102518230220B74F3B44A3F108028E
:101B00005C68944200F01E816368E26823F003037E
:101B10002344A168CA6091605A6842F001023046CD
:101B20005A60083400F094FA204605B0BDE8F08F02
:101B300035F0070500F18B80A94200F2888000F0A3
:101B400081FAB5F5FC7FC0F06E816B0A00F08380EE
:101B5000042B00F21D81AB0903F1390003F1380CAD
:101B6000C3009D4F3B44A3F108015C68A14206D12C
:101B70000CE0002A80F2E380E468A14206D06368AA
:101B800023F003035A1B0F2AF3DD6046DFF85CE203
:101B90003C69744500F0C080636823F00308A8EB3B
:101BA00005030F2B00F34381002BC7E904EE80F2FD
:101BB0002E81B8F5007FD7F804C080F0C9804FEAC5
:101BC000D80101314FEA5818012303FA08F357F8F6
:101BD0003120A2604CEA030C07EBC103083BE36031
:101BE000C7F804C047F83140D46083104FF00108B3
:101BF00008FA03F8E04534D818EA0C0F08D120F0B1
:101C000003004FEA480818EA0C0F00F10400F8D06E
:101C100007EBC00A52468146D1680EE04B6823F0BC
:101C20000303A3EB050CBCF10F0F0C46C96800F3CE
:101C3000BB80BCF1000F80F2DD808A42EED109F159
:101C4000010919F0030F02F10802E5D11AE10C2392
:101C50003360002468E74FF4007340204FF03F0CDE
:101C60007FE7BC68636823F00309A94503D3A9EBA8
:101C700005030F2B53DC594BDFF874B11B680820A8
:101C800003F1100800F022FBDBF800300190013373
:101C9000A84404EB090205D008F1FF388044434210
:101CA00003EA080841463046029200F0FDFAB0F11E
:101CB000FF3F029A824600F0D780824200F2D28033
:101CC000474B01991868404401F1FF311860844680
:101CD00040F0FB801AEA010F40F0F780D7F808A027
:101CE000C84448F00102CAF804203E4B19688142FA
:101CF00038BF18603C4B1968814238BF18605446A1
:101D000022F00308A845A8EB050301D30F2B06DC3E
:101D1000304600F09DF99CE7D7F804C065E76219EA
:101D200043F0010345F0010565603046BA60536039
:101D300000F08EF90834204605B0BDE8F08FE26867
:101D40002344E6E6DC68A3427FF4DEAE02301DE702
:101D5000B8F5206F4FEA58227DD3142A00F219817A
:101D600002F15C03DB005B32F918FB580839994239
:101D700003D1F3E09B68994204D05A6822F0030231
:101D80004245F7D8D968C4E902318C60DC602CE7A1
:101D9000142B6CD9542B00F205812B0B03F16F002F
:101DA00003F16E0CC300DCE63046A668621945F00C
:101DB00001056560F1608E604CF00101C7E9042205
:101DC000C2F808E0C2F80CE0516044F803C000F02B
:101DD0003FF90834A8E600BF40010020940D002020
:101DE000640D0020900D00208C0D00204801002083
:101DF00034010020234430465A6842F001025A6000
:101E000054F8083FD9608B6000F022F98CE6A044BA
:101E10003046D8F8043043F00103C8F804300834E1
:101E200000F016F980E6E80805F1080364E6621997
:101E300043F0010145F0010565603046C7E9042221
:101E4000C2F808E0C2F80CE0516044F8083000F035
:101E5000FFF8083468E64FEA981202F13903DB0014
:101E6000383281E7BC4228D0BC68626848E703F199
:101E70005C0003F15B0CC30073E65AF80839534564
:101E800040F0DB8010F0030F00F1FF30F5D17B68EC
:101E900023EA08037B604FEA480898453FF6E1AE25
:101EA000B8F1000F04D1DCE64FEA480809F1040953
:101EB00018EA030FF8D04846AAE6614B0199186862
:101EC00008EB000C0139C3F800C0DBF8000001305A
:101ED0001BBFAAEB02026244CBF800A01A601AF002
:101EE0000702CDE9022343D0C2F10802019B9244CC
:101EF000D044134408EA01001A1A02EA010B5946B9
:101F0000304600F0D1F9421C039B79D0A0EB0A00C7
:101F100000EB0B081868C7F808A048F00102584405
:101F2000BC42CAF8042018603FF4DFAEB9F10F0FCD
:101F300042D96168A9F10C0222F0070201F0010107
:101F400011436160A1184FF0050C0F2AC1F804C0BD
:101F5000C1F808C049D8DAF80420C6E692104FF05C
:101F6000010808FA02F24CEA020CC7F804C00AE7BA
:101F7000019B0AEB08020A409A1A02EA010B594631
:101F8000304600F091F9431C039BBFD1DDF808B047
:101F9000C0E7542A14D84FEA183202F16F03DB006D
:101FA0006E32E1E6B3F5AA7F14D8EB0B03F17800AB
:101FB00003F1770CC300D4E50123CAF80430A7E687
:101FC000B2F5AA7F24D84FEAD83202F17803DB00B9
:101FD0007732C9E640F25452934224D8AB0C03F155
:101FE0007D0003F17C0CC300BBE5304604F1080121
:101FF0000193FFF773FC019BD7F808A01868AAE7C4
:10200000029A083A9044A8EB0A084FF0000B81E7C7
:1020100040F254539A420CD84FEA984202F17D03A1
:10202000DB007C32A0E64FF47E737F204FF07E0C05
:1020300097E54FF47E737E2296E67B682BE700BF20
:10204000640D00200148FFF79FBB00BFC40B0020B8
:102050000148FFF79BBB00BFC40B002070B50029EF
:102060003FD005460C4610B1436B002B3CD0636E4D
:10207000B4F90C20DE0732D4900538D52146284625
:1020800000F04CF8E36A064633B1E1692846984708
:102090000028B8BF4FF0FF36A3891A0639D4216B48
:1020A00041B104F14003994202D02846FFF716FCE3
:1020B00000232363616C21B12846FFF70FFC002346
:1020C0006364FFF703FA636E0022DB07A2811CD56D
:1020D000A06DFFF757FBFFF7FFF9304670BD002AF0
:1020E000CCD10026304670BDFFF7D2F9BFE7A06D16
:1020F000FFF74AFBB4F90C30002BBFD1636ED90750
:10210000EFD4A06DFFF742FBEBE7A06DFFF73EFBBE
:10211000DEE721692846FFF7E1FBC0E7B1F90C20B3
:102120002DE9F0410C46110780464BD4616842F41A
:1021300000630029A38160DDA56A002D3FD0002146
:1021400012F48052D8F80060C8F80010E16961D13B
:1021500001234046A847431C02466BD0B4F90C301B
:10216000A56AE1695F0705D56368D21A236B0BB1D5
:10217000E36BD21A00234046A847451C4CD1D8F83F
:1021800000101D293DD8324AB4F90C300A4112F032
:10219000010238D162602269226023F40062A281C8
:1021A000DA0452D4216BC8F8006041B104F1400355
:1021B000994202D04046FFF791FB002323630020A1
:1021C000BDE8F0812669002EF9D0256826609107C8
:1021D0000CBF63690023AD1BA3600BE02B463246A6
:1021E000E169676A4046B847B0F1000CA5EB0C0501
:1021F000664406DD002DF1DCE1E7E16B00299BDCA4
:10220000DDE7B4F90C3043F04003A3814FF0FF3019
:10221000BDE8F081226DA5E7B4F90C302269226097
:1022200023F40062A281DB044FF000026260B9D5A2
:102230002065B7E7D8F80030002B8FD01D2B01D0D8
:10224000162BDED1C8F80060B9E70029AAD1EFE764
:10225000FEFFBFDF38B50C46054608B1436B03B33C
:10226000B4F90C0088B1636EDB0701D481050FD58A
:1022700028462146FFF752FF636EDA07054602D46F
:10228000A3899B0508D5284638BD0546284638BD94
:10229000A06DFFF779FAEBE7A06DFFF777FA284614
:1022A00038BDFFF7F5F8DBE738B5074D00220446E7
:1022B00008462A6004F070F8431C00D038BD2B6833
:1022C000002BFBD0236038BDC00B0020082802D1B2
:1022D0004FF48050704708B500F006F816230360ED
:1022E0004FF0FF3008BD00BF014B1868704700BFBA
:1022F0000C00002040F0BF6040F40030014BD8607B
:10230000704700BF00ED00E0C378FBB1154BDA6801
:10231000D243C2F30222C2F10401C9B20F23134116
:1023200042788A40D2B281780B4013431B01DBB262
:1023300002780D490A4482F80033037803F01F0045
:102340005B090122824041F823207047037803F0A3
:102350001F015B0901228A402033034941F82320F1
:10236000704700BF00ED00E000E100E000220F2A0E
:102370004DD810B514E0C36894B264004FF0030E5A
:102380000EFA04FE23EA0E03C360C36891F807E067
:102390000EFA0CFC43EA0C03C36001320F2A35D855
:1023A000012393400C68A343F7D104684FEA420C21
:1023B000032303FA0CF36FEA030E24EA030303601A
:1023C00003680C7904FA0CF4234303600B79013B96
:1023D000DBB2012BCFD883680EEA030383608368E6
:1023E0004C7904FA0CF42343836043681FFA82FE9D
:1023F000012404FA0EF423EA0403436044688B7951
:1024000003FA0EF39BB223434360B4E710BD704759
:1024100021B1054A136B034313637047024A136BE0
:1024200023EA0003136370470038024021B1054AD4
:10243000136C034313647047024A136C23EA0003CE
:10244000136470470038024003889BB21B4A9042D5
:1024500012D002F5806290420ED0B0F1804F0BD0C6
:10246000A2F58032904207D002F58062904203D0FC
:1024700002F58062904203D123F070034A8813432F
:102480000F4A904208D002F58062904204D023F4B3
:1024900040739BB20A89134303804B68C3620B8865
:1024A0000385064B984203D003F58063984201D11F
:1024B0008B7A038601238382704700BF00000140AE
:1024C0000010004029B103889BB243F00103038050
:1024D000704703889BB223F001039BB203807047CF
:1024E00010B5038C9BB223F001039BB20384B0F8B8
:1024F00020C01FFA8CFCB0F804E01FFA8EFE028B9D
:1025000092B222F073020B881A432CF0020C8B89D2
:102510004CEA030C4B8843EA0C030F4CA04203D057
:1025200004F58064A0420FD123F00803CC89234333
:1025300023F004038C8823432EF4407E0C8A4EEA59
:10254000040E4C8A44EA0E0EA0F804E002838A6866
:102550004263038410BD00BF0000014000B5038C3E
:102560009BB223F010039BB20384028C92B2B0F8AA
:1025700004E01FFA8EFEB0F818C01FFA8CFC2CF491
:10258000E64C0B881B029BB24CEA030C22F02002A3
:102590008B891B019BB21A434B881B019BB21343CF
:1025A000134A904203D002F58062904217D123F083
:1025B0008003CA89120192B2134323F040038A8830
:1025C000120192B213432EF4406E0A8A920092B224
:1025D0004EEA020E4A8A920092B242EA0E0EA0F829
:1025E00004E0A0F818C08A68826303845DF804FBE5
:1025F0000000014000B5038C9BB223F480739BB2B2
:102600000384028C92B2B0F804E01FFA8EFEB0F898
:102610001CC01FFA8CFC2CF0730C0B884CEA030CCA
:1026200022F400728B891B029BB21A434B881B0257
:102630009BB21343134A904203D002F5806290424A
:1026400017D123F40063CA89120292B2134323F410
:1026500080638A88120292B213432EF4405E0A8A83
:10266000120192B24EEA020E4A8A120192B242EA74
:102670000E0EA0F804E0A0F81CC08A68C2630384B0
:102680005DF804FB0000014010B5038C9BB223F4FD
:1026900080539BB20384B0F820C01FFA8CFCB0F8C2
:1026A00004E01FFA8EFE828B92B222F4E6420B887F
:1026B0001B029BB21A432CF4005C8B891B039BB258
:1026C0004CEA030C4B881B039BB243EA0C030C4CF3
:1026D000A04203D004F58064A04209D12EF4804EBC
:1026E000B1F810C04FEA8C1C1FFA8CFC4EEA0C0E9D
:1026F000A0F804E082838A680264038410BD00BFEE
:1027000000000140038B9BB223F008030B430383BB
:102710007047038B9BB223F40063090289B20B4319
:1027200003837047838B9BB223F008030B4383839F
:102730007047838B9BB223F40063090289B20B4379
:1027400083837047406B704722B183899BB20B43F0
:10275000838170478389C94389B219408181704759
:10276000028A83890B40114202D01BB900207047B6
:102770000020704701207047C94389B20182704729
:10278000C1F3421C01F01F0101238B40BCF1010F7A
:1027900008D0BCF1020F07D014303AB102681343DD
:1027A000036070470C30F8E71030F6E7026822EA61
:1027B0000303036070470388194201D0012070476A
:1027C00000207047C1F3421201F01F0C012303FAED
:1027D0000CF3012A0FD0022A11D0828A92B2134040
:1027E000090A012202FA01F1028892B20A4053B1A9
:1027F0005AB900207047828992B21340F0E7028AEA
:1028000092B21340ECE70020704701207047090A9C
:1028100001238B409BB2DB439BB2038070470000D7
:102820002DE9F04F2DED108B9BB005460C4616465A
:10283000349FD0ED028A68EEA87A17EE900AFDF771
:10284000CFFECDE9000102460B460020EB49FDF723
:1028500067FD8046894695ED03AA6AEE0A7A17EE6F
:10286000900AFDF7BDFE82468B4602460B46404667
:102870004946FDF755FD02460B46CDE90623FDF717
:1028800051FD8046894697ED00BA1BEE100AFDF710
:10289000A7FE0A460146CDE902121346024640460B
:1028A0004946FDF7F5FE8046894695ED019A28EEEA
:1028B000898AD5ED00AA6AEE2ABA78EE6B9A79EE8B
:1028C000A97AD7ED01EA67EEAE7A17EE900AFDF726
:1028D00087FE02460B4640464946FDF723FD8046EB
:1028E000894628EEAAFA2AEE09CA7FEE0CFA7FEE94
:1028F000AF7A97ED02EA67EE8E7A17EE900AFDF74F
:102900006FFE02460B4640464946FDF70BFDFEF7BB
:1029100059F90DEE900A119038EE2B8A38EE088A9C
:102920006BEE087A17EE900AFDF75AFECDE9040126
:1029300069EE097A17EE900AFDF752FE02460B4641
:102940000020AE49FDF7ECFC02460B46CDE908231A
:1029500052465B46FDF7E4FC02460B46FDF7E2FCFF
:10296000804689461EEE900AFDF73AFE02460B4667
:1029700040464946FDF78CFE02460B46DDE9040160
:10298000FDF7D0FC8046894628EE8ADA69EE2ACA2D
:102990007DEE6C7A77EEA77A6EEE277A17EE900AC4
:1029A000FDF71EFE02460B4640464946FDF7BAFCBF
:1029B000FEF708F90BEE900A12903CEE4FCA3CEE7F
:1029C0000C8A2BEE08BA3DEE2CDA7DEE0DCA6EEEC7
:1029D000AC7A7BEE277A17EE900AFDF701FECDE97F
:1029E0000401DDE90023DDE90801FDF799FC024659
:1029F0000B46CDE90823FDF795FC82468B461EEE7B
:102A0000100AFDF7EDFD8046894602460B4650460A
:102A10005946FDF73DFE02460B46DDE90401FDF790
:102A200081FCFEF7CFF80BEE100A13906DEEADDAD5
:102A30006BEEABBA7DEEAB7A17EE900AFDF7D0FDE8
:102A400041EC100B0CF074F851EC100BFEF7BAF8D7
:102A50000EEE100A0E909FED6AFA8DED0FFA8DEDD5
:102A600010BAD6ED007A38EE678A8DED148AD6ED6D
:102A7000017A7CEEE7CACDED15CAB068FDF7B0FD6E
:102A800002460B4650465946FDF74AFCFEF79AF8B7
:102A9000009016907EEE0EDA1DEE900AFDF7A0FD76
:102AA00002460B46DDE90601FDF7F2FD06460F463C
:102AB0007BEE0BBA6CEE2B7A17EE900AFDF790FDC9
:102AC00002460B4630463946FDF72CFCDDE9022371
:102AD000FDF726FCFEF776F80CEE100A179069EE6B
:102AE000AD9A2DEE2BDA79EE8D9A79EEEE9ACDED48
:102AF000189A6FEEAD7A17EE900AFDF771FD064653
:102B00000F461BEE900AFDF76BFD02460B46DDE912
:102B10000801FDF7BDFD02460B4630463946FDF77C
:102B200001FC42464B46FDF7FBFBFEF74BF807EE78
:102B3000100A1990F8EE005A68EEA55A28EE25DA28
:102B400039EE095A6CEE857A3DEE27DA3DEE0FDA62
:102B500068EEAB6A6CEE267A3DEE67DA2DEECA3A85
:102B600029EE2B6A73EE067A69EEA77A3DEE27DA34
:102B700068EEAD2A67EE227A3DEE27DA8DED0ADAAD
:102B80007AEE0A3A68EE23EA7AEEAA7A6CEEA74A5F
:102B90007EEEA4EAB1EE004A69EE044ADDED001AC9
:102BA00061EEA44A7EEEE4EA6AEE2B4A2CEE242A79
:102BB0007EEE82EA6AEEABBA72EEAB2A69EEA22A28
:102BC0007EEEA2EA2BEE04BA69EE0B2AB1EE433A8E
:102BD00033EE623A27EE033A7EEE83EACDED0BEA5E
:102BE00067EEC87A6CEEA33A77EEA37A28EE844AB1
:102BF00021EE844A77EEC47A04E000BF0000E03F93
:102C000000000000B9EE004A2EEE044A68EE843A55
:102C100073EEEB3A6CEE233A77EEA37A29EE2D9A17
:102C200074EE894A69EEA44A77EEA47A6AEEADAAF8
:102C300068EE8B8A7AEEE88A67EE288A77EEA88AB1
:102C4000CDED0C8A28EE058A65EEEC5A38EE258A21
:102C500038EE0F8A2AEE04AA36EE0A6A2CEE06CA6D
:102C600038EE0C8A76EEEA6A66EEA96A38EE268AB3
:102C700027EE097A38EE078A8DED0D8AB0EE4D0AFF
:102C8000F0EE6E0AB0EE681AF0EE481A01F0ABF8FA
:102C900084ED00DAC4ED01EAC4ED028A84ED038A12
:102CA0001BB0BDEC108BBDE8F08F00BF0000000032
:102CB000D0B52DED0A8B94B004468DED090ACDED0B
:102CC0000A0A8DED0B1ACDED061A8DED072ACDED12
:102CD000082A8DED033ACDED043A8DED054A03AB9C
:102CE000009306AB09AA10A9FFF79AFD94ED019A8B
:102CF000DDED068A69EE687AD4ED02BA9DED07BA79
:102D00002BEE8B7A77EEC77AD4ED039A9DED088A85
:102D100029EE887A77EEC77A17EE900AFDF760FC05
:102D20000022994BFDF7B4FC91A3D3E90023FDF7F2
:102D3000AFFCFDF747FF0AEE900A0C9094ED00CA35
:102D400068EE8C7A2BEE887A77EE877A2BEE297AEA
:102D500077EEC77A17EE900AFDF742FC00228A4B05
:102D6000FDF796FC82A3D3E90023FDF791FCFDF764
:102D700029FF0AEE100A0D906BEE0C7A29EE087A04
:102D800077EEC77A68EEA99A77EEA97A17EE900ADD
:102D9000FDF726FC00227C4BFDF77AFC74A3D3E9F7
:102DA0000023FDF775FCFDF70DFF09EE900A0E906C
:102DB00028EE0C8A29EE0B9A38EE098A68EEAB8A67
:102DC00078EE687A17EE900AFDF70AFC00226E4B47
:102DD000FDF75EFC66A3D3E90023FDF759FCFDF780
:102DE000F1FE08EE900A0F909DED100ADDED110A3C
:102DF0009DED121ADDED131A00F0F5FFB0EE408ADA
:102E000010EE100AFDF7ECFB5BA3D3E90023FDF7FE
:102E1000CFFE002800F0A680F3EE047A68EE277A51
:102E2000B3EE0E7A67EE877A9FED587A77EE877A5F
:102E3000C7EE887A17EE900AFDF7D2FB50A3D3E9CC
:102E40000023FDF76FFA00224F4BFDF721FCFDF741
:102E5000B9FE08EE100AD4ED007A7AEEA77A17EEE2
:102E6000900AFDF7BDFB06460F46DDED107A67EED2
:102E7000887A17EE900AFDF7B3FB3DA3D3E9002350
:102E8000FDF706FC02460B4630463946FDF748FA88
:102E9000FDF798FE2060D4ED017A7AEE277A17EEDE
:102EA000900AFDF79DFB06460F46DDED117A67EEB1
:102EB000887A17EE900AFDF793FB2DA3D3E9002340
:102EC000FDF7E6FB02460B4630463946FDF728FA89
:102ED000FDF778FE6060D4ED027A79EEA77A17EEFE
:102EE000900AFDF77DFB06460F46DDED127A67EE90
:102EF000887A17EE900AFDF773FB1DA3D3E9002330
:102F0000FDF7C6FB02460B4630463946FDF708FA88
:102F1000FDF758FEA060D4ED037A78EEA77A17EE9D
:102F2000900AFDF75DFB06460F46DDED137A67EE6E
:102F3000887A17EE900AFDF753FB0DA3D3E900231F
:102F4000FDF7A6FB02460B4630463946FDF7E8F989
:102F5000FDF738FEE060204600F090FF14B0BDECB5
:102F60000A8BD0BDDFED097A62E700BFAFF30080C6
:102F70002D431CEBE2362A3F9A9999999999B93FCA
:102F80007B14AE47E17A843F0000E03F022B073D0F
:102F9000254B1A6B42F002021A635A6C42F010027F
:102FA0005A64A3F550531A6822F440521A601A6802
:102FB00022F440421A601A6842F400521A601A68F9
:102FC00042F400421A605A6842F040025A605A685D
:102FD00042F080025A609A6822F440529A609A68DD
:102FE00022F440429A609A6842F400529A609A68C9
:102FF00042F400429A60DA6822F44052DA60DA68F9
:1030000022F44042DA601A6A22F060621A621A6A96
:1030100022F060421A621A6A42F0E0621A621A6A88
:1030200042F0E0421A6270470038024010B582B0A8
:103030001F4C40F2D9232381A3899BB223F48053F0
:103040009BB2A381A3899BB223F480639BB2A3812B
:10305000A3899BB243F02003A381A3899BB243F0D1
:103060000803A381A3899BB243F00403A381A3892E
:103070009BB243F40053A381012240F22551204624
:10308000FFF77EFB25238DF8043001238DF80730F0
:103090008DF8053002238DF8063001A8FFF734F9CA
:1030A000A3899BB243F02003A38102B010BD00BFEF
:1030B0000010014008B5044B988080210248FFF7BA
:1030C0007AFB0028F9D008BD0010014038B505464C
:1030D000002403E0FFF7EEFF0134E4B2285D00288E
:1030E000F8D138BD08B5FFF753FFFFF79FFF08BDC4
:1030F000144B1B785BB9144B1B78242B00D0704702
:10310000104B01221A70114B00221A707047012BCC
:10311000F5D10D4B1B780D2B08D00A2B06D00B498F
:103120000A78501C08700A498B54E8E7094B0122C1
:103130001A70064B1A78002305498B54014A137004
:10314000704700BFC80D0020F60D0020F50D0020CF
:10315000F80D0020F40D002010B540F225510A486A
:10316000FFF730FB78B1084B1B8813F0200FFAD023
:10317000054CA288054B1A70FFF7BAFF40F22551A3
:103180002046FFF744FB10BD00100140F60D002063
:1031900008B56422024B02FB0030FFF797FF08BD21
:1031A000480500202DE9F04F2DED049BE5B00229E4
:1031B00068D138494068FDF763FD002866D1364B79
:1031C0005E689F68D3F82C80D3F83090D3F834A091
:1031D000D3F838B0DC6B1D6C93ED199AD3ED1A9AC5
:1031E00093ED1BAA1868FDF7FBF9CDE916011AEE5D
:1031F000100AFDF7F5F9CDE9140119EE900AFDF773
:10320000EFF9CDE9120119EE100AFDF7E9F9CDE960
:1032100010012846FDF7E4F9CDE90E012046FDF73F
:10322000DFF9CDE90C015846FDF7DAF9CDE90A01DD
:103230005046FDF7D5F9CDE908014846FDF7D0F92C
:10324000CDE906014046FDF7CBF9CDE9040138464A
:10325000FDF7C6F9CDE902013046FDF7C1F9CDE928
:103260000001DDE916230D4919A804F045F919A854
:10327000FFF72CFF0220FFF78BFF65B0BDEC049B2E
:10328000BDE8F08F0020FFF783FFF6E70020FFF78F
:103290007FFFF2E7B8F000081C080020BCF000082F
:1032A0002DE9F04105460C468B1F012B4DD9032912
:1032B00016D14468AB492046FDF7E2FCF8B9AC688A
:1032C000A9492046FDF7DCFC78B1A8492046FDF766
:1032D000D7FC80B90120A64B1870FFF759FF02E018
:1032E0000020FFF755FFBDE8F0810120A14B1870C9
:1032F000FFF74EFFF7E70020FFF74AFFF3E79E498D
:103300002046FDF7BDFCE0B9AC6897492046FDF7C3
:10331000B7FC58B195492046FDF7B2FC68B9944B0B
:1033200000221A700120FFF733FFDCE7914B0022E7
:103330001A700120FFF72CFFD5E70020FFF728FFC8
:10334000D1E70020FFF724FFCDE746688B493046E0
:10335000FDF796FC50B184493046FDF791FC08B961
:10336000012704E00020FFF713FFBCE70027EE6809
:1033700083493046FDF784FC10B1062C06D008B90D
:10338000072C78D00020FFF703FFACE7AC687D493D
:103390002046FDF775FC60B37B492046FDF770FCC5
:1033A000002847D079492046FDF76AFC00289AD1C9
:1033B000304603F00FF851EC100BFDF703FC744C92
:1033C000C7EBC70604EBC6063060286903F002F8B5
:1033D00051EC100BFDF7F6FB7060686902F0FAFF24
:1033E00051EC100BFDF7EEFBB0600120FFF7D0FEB3
:1033F00079E7304602F0EEFF51EC100BFDF7E2FBEF
:10340000644CC7EBC70604EBC6063060286902F0BF
:10341000E1FF51EC100BFDF7D5FB7060686902F01D
:10342000D9FF51EC100BFDF7CDFBB0600120FFF789
:10343000AFFE58E7304602F0CDFF51EC100BFDF720
:10344000C1FB554CC7EBC70604EBC60630602869C4
:1034500002F0C0FF51EC100BFDF7B4FB706068691F
:1034600002F0B8FF51EC100BFDF7ACFBB06001208F
:10347000FFF78EFE37E7AC6842492046FDF700FCB7
:1034800068B341492046FDF7FBFB002848D03F497F
:103490002046FDF7F5FB00287FF425AF286902F0F0
:1034A00099FF51EC100BFDF78DFB394CC7EBC706AC
:1034B00004EBC606F062686902F08CFF51EC100B59
:1034C000FDF780FB3063A86902F084FF51EC100B1C
:1034D000FDF778FB70630120FFF75AFE03E72869C8
:1034E00002F078FF51EC100BFDF76CFB294CC7EB99
:1034F000C70604EBC606F062686902F06BFF51EC88
:10350000100BFDF75FFB3063A86902F063FF51EC1D
:10351000100BFDF757FB70630120FFF739FEE2E661
:10352000286902F057FF51EC100BFDF74BFB1A4CCA
:10353000C7EBC70604EBC606F062686902F04AFFF3
:1035400051EC100BFDF73EFB3063A86902F042FF1F
:1035500051EC100BFDF736FB70630120FFF718FEEE
:10356000C1E600BF20F1000828F100082CF1000896
:103570008C0800208D08002030F1000838F1000888
:103580003CF1000844F100084CF1000854F1000837
:103590003C0700201C080020AC07002038B51C4B5D
:1035A0001B78012B00D038BD0024194B1C70194921
:1035B000194804F003F8194B186008E00134E4B22C
:1035C0001449002003F0FAFF144B43F82400254669
:1035D000124B53F82430002BF0D1104B1C681049CB
:1035E0002046FDF74DFB48B10E492046FDF748FB4C
:1035F00048B929460948FFF7D5FDD4E729460748C9
:10360000FFF74EFECFE70020FFF7C2FDCBE700BF7C
:10361000F40D002058F10008F80D0020CC0D00201A
:10362000B8F000085CF1000890ED087AD0ED0C7A53
:10363000B4EEE77AF1EE10FA02DDC0ED087A7047D9
:10364000F1EE677AB4EEE77AF1EE10FA01D5C0ED4B
:10365000087A704790ED0A7AD0ED0D7AB4EEE77AE9
:10366000F1EE10FA02DDC0ED0A7A7047F1EE677AEA
:10367000B4EEE77AF1EE10FA01D5C0ED0A7A7047A0
:1036800010B52DED028B0446B0EE408AD0ED057AE0
:1036900090ED067A77EEC77AC0ED037A90ED007A66
:1036A00027EE877A80ED077A234B1B78012B17D002
:1036B00000232362214B1B78012B36D0D4ED077AEF
:1036C00094ED087A77EE877A94ED097A77EE877A27
:1036D000C4ED0A7A2046FFF7BDFFBDEC028B10BD9A
:1036E000174BDA6840F2DC539A42E1D9BDEEE77A33
:1036F00017EE103A002BB8BF5B4207EE103AB8EE57
:10370000C77AD0ED0B6AB4EEE67AF1EE10FAD1D5B5
:1037100090ED087AD0ED016A67EEA67A77EE277A07
:10372000C0ED087AFFF780FFC4E7D4ED027A67EEB8
:10373000887AC4ED097AC1E78D0800208C08002042
:103740000812002010B50446D0ED057A90ED067AF7
:1037500077EEC77AC0ED037A90ED007A27EE877A8C
:1037600080ED077A264B1B78012B17D000232362AC
:10377000244B1B78012B36D0E3682361D4ED077A04
:1037800094ED087A77EE877A94ED097A77EE877A66
:10379000C4ED0A7A2046FFF75DFF10BD1A4BDA68C8
:1037A00040F2DC539A42E1D9BDEEE77A17EE103AC7
:1037B000002BB8BF5B4207EE103AB8EEC77AD0EDE7
:1037C0000B6AB4EEE67AF1EE10FAD1D590ED087AF4
:1037D000D0ED016A67EEA67A77EE277AC0ED087A17
:1037E000FFF722FFC4E7D4ED027A94ED037AD4ED1B
:1037F000046A37EE667A67EE877AC4ED097ABBE72A
:103800008D0800208C0800200812002038B50546DD
:103810000C46FFF735FFAB6A63612046FFF792FF66
:1038200038BD0000F0B52DED028B87B0B0EE428AB6
:103830008DED030ACDED040A8DED051ACDED001ACC
:103840008DED012ACDED022A414FD7ED017AF8EE38
:10385000677A9FED407A77EEC77ADFED3F6A87EEB1
:10386000A66AF3EE045A66EE257A3C4CC4ED057A5E
:1038700084ED060AC4ED141AD7ED027AF8EE677AE1
:1038800077EEC77A87EEA66A66EE257A344DC5EDE7
:10389000057AC5ED060A85ED142AD7ED047AF8EE0F
:1038A000677A77EEC77AF1EE677A87EEA67AF3EE5B
:1038B0000E7A67EE277A2B4EC6ED137AC6ED142AE0
:1038C000B0EE610A04F138012046FFF79FFFB0EE29
:1038D000480A05F138012846FFF798FF06F138003D
:1038E000FFF730FFD7ED037AF8EE677A95ED185AB7
:1038F00037EEC57AD4ED185A77EE256A96ED186A38
:1039000076EEC66A184BFCEEE66AC3ED006A37EE47
:10391000657A36EE077ABCEEC77A83ED017A77EEE8
:10392000857A35EEA77A36EE077ABCEEC77A83ED54
:10393000027A77EEE57A77EEC67AFCEEE77AC3EDA7
:10394000037A00F0ADFC07B0BDEC028BF0BD00BF08
:10395000081200200080BB440000FA431C0800202D
:10396000AC0700203C070020E81100202DE9F04FB3
:103970002DED029B95B0274B274A5668DF69D3F897
:103980002080D3F82490D3F84CA0244AD2F804B075
:103990005C6D9D6D93ED179A5869FCF721FECDE99A
:1039A000120119EE100AFCF71BFECDE910012846A2
:1039B000FCF716FECDE90E012046FCF711FECDE91D
:1039C0000C015846FCF70CFECDE90A015046FCF705
:1039D00007FECDE908014846FCF702FECDE90601E5
:1039E0004046FCF7FDFDCDE904013846FCF7F8FD43
:1039F000CDE902013046FCF7F3FDCDE90001DDE938
:103A00001223074803F010FD15B0BDEC029BBDE882
:103A1000F08F00BFAC070020980D0020A40D0020FF
:103A200064F1000808B5FFF7A1FF08BD08B5012241
:103A30006B21D02000F00EFE00221921D02000F0D2
:103A400009FE06221A21D02000F004FE18221B21B4
:103A5000D02000F0FFFD18221C21D02000F0FAFD3C
:103A600002223721D02000F0F5FD00226A21D0206B
:103A700000F0F0FD08BD000010B582B0044606233A
:103A80006A463B21D02000F09DFD9DF800209DF866
:103A9000013003EB02231BB206EE903AF8EEE66A21
:103AA000F3EE005A66EEA56A9FED236A66EE866A1B
:103AB0009DF802209DF8033003EB02231BB207EEB2
:103AC000103AB8EEC77A27EE257A27EE067A9DF8E7
:103AD00004209DF8053003EB02231BB207EE903A59
:103AE000F8EEE77A67EEA57A67EE867A134B1B78D5
:103AF000CBB1134A92ED006A76EEC66A114B93ED94
:103B0000006A66EE866A92ED016A37EE467A93EDB8
:103B1000016A27EE067A92ED026A77EEC67A93ED95
:103B2000026A67EE867AC4ED006A84ED017AC4ED1C
:103B3000027A02B010BD00BF00000038CD0800209E
:103B4000DC080020D008002010B582B0044606230F
:103B50006A464321D02000F035FD9DF800209DF8F5
:103B6000013003EB02231BB206EE903AF8EEE66A50
:103B7000DFED385A66EEA56A9FED376A66EE866A13
:103B80009DF802209DF8033003EB02231BB207EEE1
:103B9000103AB8EEC77A27EE257A27EE067A9DF816
:103BA00004209DF8053003EB02231BB207EE903A88
:103BB000F8EEE77A67EEA57A67EE867A274B1B78F0
:103BC000002B3FD0264B93ED006A76EEC66A93ED4C
:103BD000016A37EE467A93ED026A77EEC67A214B98
:103BE00093ED006AB4EEE66AF1EE10FA08D893EDB0
:103BF000036AB4EEE66AF1EE10FA01DBDFED1A6A51
:103C0000184B93ED016AB4EEC76AF1EE10FA08D8CA
:103C100093ED046AB4EEC76AF1EE10FA01DB9FED92
:103C2000127A104B93ED026AB4EEE76AF1EE10FAE5
:103C300008D893ED056AB4EEE76AF1EE10FA01DBFD
:103C4000DFED097AC4ED006A84ED017AC4ED027AF1
:103C500002B010BD0000FA4400000038CC0800207B
:103C6000C0080020A80800200000000008B570224D
:103C700000213C2000F017FD202201213C2000F013
:103C800012FD002202213C2000F00DFD08BD08B508
:103C9000FFF7CCFEFFF7EAFF08BD000010B582B0C9
:103CA000044606236A4603213C2000F08BFC9DF865
:103CB00000209DF8013003EB02231BB207EE903A7F
:103CC000F8EEE77ADFED215A87EEA56A9DF802202B
:103CD0009DF8033003EB02231BB207EE903AF8EE97
:103CE000E77A87EEA57A9DF804209DF8053003EB6E
:103CF00002231BB207EE903AF8EEE77AC7EEA56A08
:103D0000134AD2ED007A76EE677A124BD3ED005A61
:103D100087EEA56A84ED006AD2ED017A76EEE77A45
:103D200093ED016AC7EE866AC4ED016AD2ED027AAC
:103D300077EE677AD3ED026A87EEA67A84ED027A8F
:103D4000204600F079F802B010BD00BF0040884462
:103D50009C080020900800200F4A136B43F00103D9
:103D600013630E4B1A6822F440621A601A6842F418
:103D700080621A605A6822F020025A609A6822F41F
:103D800040629A609A6842F480629A60DA6822F42B
:103D90004062DA60704700BF003802400000024015
:103DA00000B585B08DED010ACDED020A8DED031A47
:103DB00020EE000A60EEA00A30EE200A21EE011A81
:103DC00070EE017A17EE900AFCF70AFC41EC100B3A
:103DD0000AF0AEFE51EC100BFCF7F4FE00EE100AF8
:103DE00005B05DF804FB00B585B08DED000ACDEDA2
:103DF000010A8DED021ACDED031A20EE000A60EEE5
:103E0000A00A30EE200A21EE011A30EE010A61EE1E
:103E1000A11A70EE217A17EE900AFCF7E1FB41EC53
:103E2000100B0AF085FE51EC100BFCF7CBFE00EEF8
:103E3000100A05B05DF804FB10B5044690ED000AC9
:103E4000D0ED010A90ED021AFFF7AAFFB5EE400A85
:103E5000F1EE10FA11D094ED007AC7EE007AC4EDBD
:103E6000007A94ED017AC7EE007AC4ED017A94ED00
:103E7000027AC7EE007AC4ED027A10BD10B504468E
:103E800090ED000AD0ED010A90ED021AD0ED031A70
:103E9000FFF7A9FFB5EE400AF1EE10FA17D094ED46
:103EA000007AC7EE007AC4ED007A94ED017AC7EE8D
:103EB000007AC4ED017A94ED027AC7EE007AC4ED7F
:103EC000027A94ED037AC7EE007AC4ED037A10BD4E
:103ED00010B504460068FCF783FB0FA3D3E9002369
:103EE000FCF7D6FBFCF76EFE20606068FCF778FB01
:103EF00009A3D3E90023FCF7CBFBFCF763FE60606A
:103F0000A068FCF76DFB04A3D3E90023FCF7C0FB1A
:103F1000FCF758FEA06010BDF8C1631ADCA54C4048
:103F2000F8B52DED028B04460D4690ED000AD0ED5C
:103F3000010A20EE200AD0ED027A90ED037A27EEF6
:103F4000877A30EE070A60EEA00A67EEA77A70EE75
:103F5000A70A70EEA00AF7EE008A78EEE00A30EECB
:103F6000000A0AF019FE85ED000A94ED008AD4EDEE
:103F7000027A28EE278AD4ED037A94ED017A67EE6F
:103F8000877A38EE678A38EE088A78EE287A17EE54
:103F9000900AFCF725FB41EC100B0AF0C9FD57EC29
:103FA000106B78EEC87A17EE900AFCF719FB41EC1B
:103FB000100B0AF0BDFD51EC100BFCF703FE08EEF0
:103FC000100A30463946FCF7FDFDF0EE480A00EED7
:103FD000100A0AF0E1FD70EE007A17EE900AFCF785
:103FE000FFFA15A3D3E90023FCF79AF9FCF7EAFDE1
:103FF000686094ED000AD4ED037A20EE270A94ED70
:10400000017AD4ED020A27EE207A30EE070A60EE3C
:10401000A00A67EEA77A70EEA70A70EEA00A78EE03
:10402000E00A30EE000A0AF0B7FDB1EE400A85ED75
:10403000020ABDEC028BF8BD182D4454FB21F93F58
:1040400008B5044B01221A700348FFF73FF800201F
:1040500008BD00BF0012002098F1000810B5002430
:10406000034B1C700348FFF731F8204610BD00BF1A
:1040700000120020A8F1000870B58AB001210420C8
:10408000FEF7C6F901210220FEF7D0F94FF4707354
:10409000089302238DF825308DF824302F4C08A981
:1040A0002046FEF763F9236A43F000732362236A14
:1040B00043F000532362636A43F002036362636A5E
:1040C00043F02003636244F61F6306935323ADF865
:1040D00014300025ADF81C50ADF81650A4F501348D
:1040E00005A92046FEF7B0F96023ADF8003001269F
:1040F000ADF80260ADF80C5069462046FEF7F0F9C5
:1041000069462046FEF72AFA69462046FEF772FA0B
:1041100069462046FEF7B8FA08212046FEF7F2FA73
:1041200008212046FEF7F5FA08212046FEF7FAFAA4
:1041300008212046FEF7FDFA4FF47A736363A36308
:10414000E363236431462046FEF7BCF923889BB223
:1041500043F0800323800AB070BD00BF0008024016
:1041600010B586B00DF1170302930E4B0193002496
:1041700000940D4B01222146052001F0CDFE0B4B92
:1041800018600DF116030293094B01930094094B3B
:1041900001222146052001F0BFFE074B186006B042
:1041A00010BD00BFBCF1000841400008FC11002018
:1041B000C8F100085D400008F811002008B5FFF7BD
:1041C0005BFFFFF7CDFF08BD074BDB69B3F5F86F69
:1041D00006D9064B01221A70054B00221A7070474F
:1041E000024B00221A70704708120020E8080020D5
:1041F0000012002008B5204BDA6840F2F6339A42EC
:1042000005D81D4B1A6940F2C1739A421AD800238F
:104210001A4619461948006801F01AFF164BDA6869
:1042200040F2F6339A4205D8134B1A6940F2F6333E
:104230009A4214D900231A4619461148006801F021
:1042400007FF08BD00210D4B186801F09DFE0328F3
:10425000E4D00021094B186801F0B8FEDEE7002128
:10426000074B186801F090FE0328EAD00021044BA8
:10427000186801F0ABFEE4E708120020FC110020F2
:10428000F8110020B0F5FA6F06D8B0F57A7F00D3A8
:1042900070474FF47A7070474FF4FA60F8E7000007
:1042A00038B5094D2868FFF7EDFF084CE0636868F2
:1042B000FFF7E8FF6063A868FFF7E4FFA063E86822
:1042C000FFF7E0FF206438BDE81100200004004043
:1042D0001B4B1A6822F440321A601A6822F44022FA
:1042E0001A601A6842F400321A601A6842F4002216
:1042F0001A605A6842F480725A605A6842F4007236
:104300005A604FF440329A604FF440229A60DA6863
:1043100022F44032DA60DA6822F44022DA60DA68A5
:1043200042F48032DA60DA6842F48022DA605A6A53
:1043300042F004025A625A6A42F040025A627047DE
:10434000000402401E4B9A8892B222F03F0292B2C1
:104350009A809A8892B242F02A029A801A8C92B27B
:1043600022F03F0292B21A841A8C92B242F4805226
:1043700042F001021A841A8892B242F001021A80B5
:104380001A8892B222F0200292B21A801A8992B24E
:1043900022F07F0292B21A811A8992B242F001028F
:1043A0001A819A8BC2F30E029A839A8B02F470429E
:1043B0009A839A8B92B242F02A029A83704700BF86
:1043C00000540040012807D0074A13889BB223F409
:1043D00080739BB213807047034A13889BB243F4E7
:1043E00080731380704700BF00540040012807D03D
:1043F000074A13889BB223F400739BB21380704763
:10440000034A13889BB243F400731380704700BFC4
:1044100000540040012807D0074A13889BB223F4B8
:1044200080639BB213807047034A13889BB243F4A6
:1044300080631380704700BF00540040014B188216
:10444000704700BF00540040014B188AC0B270474B
:1044500000540040012904D000F0FE00024B1882F5
:10446000704740F00100F9E700540040044B1B8BFB
:1044700013F0020F01D1012070470020704700BFE8
:10448000005400400B4B9B8A13F0010F0BD0094BDB
:104490001B8B13F0010F08D0064B1B8B13F0020F80
:1044A00005D1002070470020704700207047012090
:1044B000704700BF00540040144B9A8A91B21B8B86
:1044C0009BB212F0020F18D011F0800F17D013F02A
:1044D000010F16D013F0020F15D013F0040F01D105
:1044E0000020704711F4007F05D0084A938A9BB2E0
:1044F00043F48063938201207047002070470020BE
:104500007047002070470020704700BF00540040F3
:10451000124B9B8A13F0040F15D0104B9B8A13F09B
:10452000800F12D00D4B1B8B13F0010F0FD00B4BD4
:104530001B8B13F0020F0CD0084B1B8B13F0040FD6
:1045400009D10020704700207047002070470020EC
:104550007047002070470120704700BF00540040A2
:104560000B4B9B8A13F0020F0BD0094B1B8B13F0E4
:10457000010F08D0064B1B8B13F0020F05D1002052
:10458000704700207047002070470120704700BF2F
:1045900000540040044B9B8A13F0400F01D10020CF
:1045A00070470120704700BF00540040044B9B8AB5
:1045B00013F0800F01D1002070470120704700BF29
:1045C00000540040F8B504460F4616461D46FFF756
:1045D0004DFF0028FBD00120FFF7F4FEFFF752FF4C
:1045E0000028FBD000212046FFF734FFFFF764FFCF
:1045F0000028FBD03846FFF721FFFFF789FF00288E
:10460000FBD00120FFF7DEFEFFF73CFF0028FBD0C8
:1046100001212046FFF71EFFFFF7A2FF0028FBD075
:104620000020FFF7E3FE0120FFF7F4FE002408E07E
:10463000FFF7B0FF0028FBD0FFF706FF305501342D
:10464000E4B2AC42F4D30020FFF7E4FE0120FFF710
:10465000CDFEF8BD70B506460D461446FFF706FFC1
:104660000028FBD00120FFF7ADFEFFF70BFF00286D
:10467000FBD000213046FFF7EDFEFFF71DFF0028BD
:10468000FBD02846FFF7DAFEFFF742FF0028FBD0F9
:104690002046FFF7D3FEFFF73BFF0028FBD00120A9
:1046A000FFF7A4FE70BD70B506460D461446012006
:1046B000FFF7B0FEFFF7DAFE0028FBD00120FFF77E
:1046C00081FEFFF7DFFE0028FBD000213046FFF718
:1046D000C1FEFFF7F1FE0028FBD02846FFF7AEFE33
:1046E000FFF764FF0028FBD02046FFF7A7FEFFF787
:1046F0000FFF0028FBD00120FFF778FE0020FFF716
:1047000089FE70BD08B5074B1A6B42F002021A63AE
:104710001A6C42F400121A64FFF7DAFDFFF712FE7A
:1047200008BD00BF0038024070B582B04D4B1A6B17
:1047300042F001021A635A6C42F001025A64A3F576
:1047400060535A6A42F001025A621A6822F44032F7
:104750001A601A6842F400321A605A6822F48072B1
:104760005A609A6842F400329A60DA6822F4403261
:10477000DA603D4C0023E36223889BB223F01003F0
:104780009BB22380238D9BB243F053032385E36ABE
:1047900043F49C4343F01F03E362A38A9BB243F0BC
:1047A0000203A38223889BB243F080032380238BE0
:1047B0009BB243F001032383238B9BB223F00C03B2
:1047C0009BB22383238B9BB223F0F0039BB2238302
:1047D000238C9BB243F001032384238C9BB223F0F0
:1047E00002039BB22384238C9BB223F008039BB269
:1047F000238423899BB223F00A039BB2238123895C
:104800009BB243F00403238123899BB223F07003FE
:104810009BB2238123899BB243F0500323812389D8
:104820009BB243F0800323811B238DF804300125C4
:104830008DF8075002268DF805608DF8065001A806
:10484000FDF762FD2A4631462046FDF77DFFA3892C
:104850009BB23343A38123889BB22B43238002B0B6
:1048600070BD00BF003802400000014008B5FFF7EE
:104870005BFF08BD08B502212848FDF771FF01283C
:1048800000D008BD2548FDF75DFFB0F5FA6F0BD9E4
:10489000A0F2D17242F20F739A420ED8204B01223D
:1048A0001A70204B00221A701D4B1B78012B0AD066
:1048B00002211A48FDF760FFE3E70123194A13704C
:1048C000194A1370F0E7194B1B68194A42F8230084
:1048D0004BB1B0F5FA6F06D8B0F57A7F03D315491E
:1048E0000A7801320A700133104A1360082BDFD9AD
:1048F000002313600A4A13700E4B1B78082B03D059
:104900000C4B00221A70D3E7FFF75EFC064B1B78B6
:10491000002BF5D1FFF76EFCF2E700BF000001406D
:104920000312002002120020E808002004120020D8
:10493000081200200112002010B5FEF7D3FB174823
:1049400002F0D2FD164C238801332380FFF7DAFEF4
:10495000144802F0C9FD238801332380FFF797F93B
:10496000114802F0C1FD238801332380FFF77EFF49
:104970000E4802F0B9FD238801332380FFF71EFCA7
:104980000B4802F0B1FD238801332380094802F06F
:10499000ABFDFF2000F0CEFF10BD00BFD8F1000836
:1049A00030120020F4F1000808F2000820F200089C
:1049B0003CF2000854F2000800B585B04FF07E5379
:1049C00000930023019302930393164D2846FFF7AB
:1049D000BBF8154C2046FFF74FF8144E3046FFF752
:1049E0005DF996ED003AD6ED013A96ED024AD5ED25
:1049F000001A95ED012AD5ED022A94ED000AD4EDB6
:104A0000010A94ED021A6846FEF752F9084C214655
:104A10006846FFF785FA2046FFF75AFA032001F0AF
:104A200057F9D2E7A40D0020BC0D0020B00D0020E6
:104A3000980D002008B509E0FEF7F4FF052001F00D
:104A400047F9FEF7ABFD052001F042F9024B1B7858
:104A5000002BF1D0F5E700BFE808002008B514E00E
:104A60001A4B4FF47A721A605A609A60DA60FFF754
:104A700017FC174B1A78174B1B7823EA0203012BFC
:104A80000FD0154B1B78012B1CD0032001F020F90F
:104A90000F4B1B78012BE3D00E4B1B78002BE8D17A
:104AA000DEE70E4A0E4BD2ED001A92ED012AD2ED4E
:104AB000022A93ED000AD3ED010A93ED021AFEF7E4
:104AC000B1FEDEE70748FEF701FBDEE7E811002054
:104AD000E80800200012002002120020A40D00208F
:104AE000980D002070F2000870B586B02A4800F0DA
:104AF0003DF94FF4A060FDF7FDFBFFF72DF9002411
:104B0000049403944FF400650295244B0193082606
:104B100000963346224A2146224801F083F8224A71
:104B20002249304600F0AAFF049403940295204BDA
:104B300001930A2300931F4A21461F4801F072F88F
:104B40001E4A1F490C2000F099FF0494039402951B
:104B50001C4B0193092300931B4A21461B4801F07B
:104B600061F81B4A1B490D2000F088FF0494039450
:104B70000295194B01930B230093184A21461848BC
:104B800001F050F817490A460E2000F077FFFF2089
:104B900000F0D0FE06B070BD00BD010534720020EB
:104BA000309200203949000884F2000898F2000889
:104BB0003452002030720020B9490008A8F20008E1
:104BC000B8F2000834320020305200205D4A00085C
:104BD000C4F20008D8F2000834120020303200205D
:104BE000354A0008E8F2000808B500F089FB022306
:104BF000064A0021064800F055FE064A06490220F2
:104C000000F03CFF00F002FA002008BD30B20020A6
:104C1000E94A0008ECF20008FCF200080B4B4FF4E4
:104C2000807203E0013A002143F8041B002AF9D105
:104C3000074A084B136023F007031360064B00225A
:104C40001A80064B40221A60704700BF40B2002015
:104C50003CB2002040B6002038B2002034B2002020
:104C6000704770477047704770477047131D23F0B7
:104C700007034FF0807243F8042C43F8080C1E4AD7
:104C800043F80C2C4FF0123243F8102C4FF0033243
:104C900043F8142C4FF0023243F8182C4FF0013235
:104CA00043F81C2C43F8201C6FF0020243F8242C1C
:104CB0004FF0113243F8282C4FF0103243F82C2CCF
:104CC0004FF0093243F8302C4FF0083243F8342CBF
:104CD0004FF0073243F8382C4FF0063243F83C2CA3
:104CE0004FF0053243F8402C4FF0043243F8442C87
:104CF000A3F14400704700BFF15B0008704700005B
:104D000008B5074A138801339BB21380632B00D880
:104D100008BD134600221A8001F0F8F9F8E700BF39
:104D200038B2002010B54020FBF759FA044600F0D5
:104D3000FDF82046FBF761FA00F08AF900F008F967
:104D400010BD01384FF0E0235861D3F8202D22F038
:104D50007F4242F08042C3F8202D1A6942F00502DA
:104D60001A611A6942F002021A61704708B5034BD2
:104D7000A3FB00308009FFF7E4FF08BDD34D6210AC
:104D800000230B4A13600B4A13700B4A13700B4A33
:104D900013700B4A13700B4A13600B4A13600B4AD3
:104DA00013600B4A13600B4A13700B4A1370704761
:104DB0000CBB002054C6002053C6002044C600206F
:104DC00045C60020B0C9002040C600205CC80020B5
:104DD00060C8002058C8002010BB002000230A4AE9
:104DE000137004E0094A0021D1540133DBB2072BD0
:104DF000F8D90023064A1370064A1370064A136056
:104E0000064A1360704700BF50C6002048C6002005
:104E100052C6002051C6002034C400203CC40020EB
:104E2000064B1B78064AD15CCB00DBB20548415CDF
:104E3000525C1344044A1370704700BF50C60020F0
:104E400000F5000848C6002051C6002000B589B012
:104E50000C4A032304930021039180230293A2F5BB
:104E6000FE7301934FF6FF7300933F23064800F053
:104E7000D9FE0DF11F0205493F2000F0FFFD09B0EA
:104E80005DF804FB3CC60020D54E000808F300087E
:104E900000B589B00C4A03230493002103918023B9
:104EA0000293A2F5FE7301934FF6FE7300933E2327
:104EB000064800F0B7FE0DF11F0205493E2000F044
:104EC000DDFD09B05DF804FB54C80020355400082E
:104ED00018F3000808B54020FBF781F9044A13686D
:104EE00001331360FBF789F9FFF7BDFEF3E700BF5D
:104EF00040C6002070B516460B4B1B7843B90546DB
:104F00000C460378013B032B05D90123137070BDB8
:104F100012231370FBE74020FBF761F96C61FBF78C
:104F20006CF900233370F2E754C60020064B1B785F
:104F3000012B00D07047054B1B78FF2BFAD00133B3
:104F4000024A1370F6E700BF45C6002054C6002091
:104F5000184B1B78012B00D0704710B54020FBF791
:104F60003EF90446144B1B7813B1013B124A1370EF
:104F7000114B1B7813B9114B1B781BB12046FBF763
:104F80003CF910BDFFF74CFF0D4B1B780D4A52F852
:104F900023200D490A600D4909788B42EED0936BAE
:104FA000013393630A4A136801331360FBF76CF90A
:104FB000E4E700BF45C6002054C6002053C60020C9
:104FC00051C6002030C3002034C4002052C6002047
:104FD000B0C9002008B50A4B1B78012B00D008BDD2
:104FE0004020FBF7FCF8074B1B7833B9064B1B78C6
:104FF000FF2B02D00133044A1370FBF7FEF8EEE7F3
:1050000045C6002054C6002053C6002008B50A4BF0
:105010001B7803B108BDFFF703FF084B1B78084A54
:105020001370084A52F82330074A1360074A136086
:10503000FBF7ECF8EEE700BF45C6002051C60020A4
:1050400052C6002030C3002034C400203CC40020DD
:1050500010B5FFF755FE4020FBF7C1F8284A13684A
:1050600001331360FBF7C9F8264B1B78012B00D0E6
:1050700010BD254B1B78012BFAD0022B04D033B185
:10508000214B00221A7002E01F4B01221A701F4BA5
:105090001C6806E0002384F831301CE06469FBF7EB
:1050A000ACF894F832303F2BE2D04020FBF797F871
:1050B000E36A002BF2D0013BE362002BEED194F8BF
:1050C000303013F0370FE5D023F0370384F8303059
:1050D000012384F8313094F8303013F0080FDDD11B
:1050E00094F836300A4A11780B43137094F8342040
:1050F00008498B5C94F835C043EA0C038B54CDE728
:105100000CBB002045C60020F4BB002030C40020AA
:1051100050C6002048C6002070470000114B1B6895
:10512000D86193F834200244D17A93F835C041EA2B
:105130000C01D172827A93F836100A43827293F886
:1051400034100948425C93F835C022EA0C024254FC
:1051500032B993F83610054A137823EA0103137025
:10516000704700BF3CC4002048C6002050C6002045
:1051700090F834200A44D37A90F835C023EA0C031F
:10518000D3722BB98B7A90F8362023EA02038B7204
:105190000023C3617047000038B58446847A1848FC
:1051A00010F804E00CEB0E04E47A005D4FEACE0444
:1051B000E4B20444E4B2134850F824000025C56268
:1051C000016290F8301021EA020280F8302080F865
:1051D000313012F0080F0DD190F836300A4A1178AC
:1051E0000B431370094A12F80E3090F835100B4338
:1051F00002F80E306146FFF7BBFF204638BD00BF06
:1052000000F5000830C3002050C6002048C600202A
:105210000023837204E0C2180021D1720133DBB293
:10522000072BF8D9704704E0002300F8013B01394F
:1052300089B20029F8D1704710B54FF4E7611248E0
:10524000FFF7F1FF4FF480711048FFF7ECFF0021EA
:105250000BE04A1CD2B254200B4B00FB023400FB83
:1052600001335C610A49D96411461429F1D9064B0E
:10527000542202FB013100224A610548C8640549F5
:105280000A60054A136010BDF8BB002030C300203F
:1052900028F3000830C4002038C4002010B5F021E5
:1052A0001448FFF7C0FF002315E0591C89B201EB39
:1052B0004102D0000F4A104403EB430E4FEACE0CDC
:1052C00002EB0C0E002402F80C40CEF804000A4B4E
:1052D000CEF814300B46082BE7D9064A03EB4300FF
:1052E000C1005418002050546060034B6361034BAD
:1052F0001A6010BDBCC8002028F30008ACC900200B
:1053000008B5FFF78BFCFFF73BFDFFF767FDFFF7E5
:1053100093FFFFF7C3FF00F07FF900F0BBF900F047
:10532000EDF9FFF793FDFFF7B3FD00F0F7FEFFF790
:1053300097FC00F06FF908BD10B54020FAF74FFF59
:105340000446104B1B7813B90F4B1B781BB120463A
:10535000FAF753FF10BDFFF763FD0C4B1B780C4AA7
:1053600052F823200B490A600B4909788B42EED092
:10537000936B01339363094A136801331360FAF79F
:1053800083FFE4E754C6002053C6002051C6002026
:1053900030C3002034C4002052C60020B0C9002011
:1053A00008B5104B1B78012B00D008BD4020FAF740
:1053B00016FF0D4B1B7893B90C4B1B7863B1013B67
:1053C000DBB20A4A137023B9FAF717FFFFF7B4FFED
:1053D000EBE7FAF712FFE8E7FAF70FFFE5E7FAF76E
:1053E0000CFFE2E745C6002054C6002053C600204B
:1053F00010B582B0002401E00134E4B23F2C14D88F
:105400006946204600F06AFB0028F5D1084B53F8A6
:105410002430002BF0D0012BEED09A68D96802EB33
:1054200081025A64019A9A64E6E702B010BD00BF97
:1054300030C3002010B502E0C82000F049FC294B21
:105440001B78002BF8D028490A68284BA3FB0203DD
:105450005B090B60632A0CD94020FAF7C0FE224B8F
:105460001B68642202FB03F3214A1360FAF7C5FEAE
:105470000CE0204B00221A70FF2000F06BFBEBE7E2
:105480001C4B1970FFF7F1FBFFF7B2FF012000F092
:105490001FFC4020FAF7A3FE154C00232360FAF707
:1054A000ACFE642000F014FC4020FAF798FE23685C
:1054B000114C2360FAF7A1FE22680B4B1B68B2FB6C
:1054C000F3F3DBB2C3F16403D9B213F0800FD7D08A
:1054D000084B00211970054BA3FB02325209024B05
:1054E0001A60CFE758C8002060C800201F85EB5124
:1054F00040C6002064C800205CC800202DE9F041AF
:105500000546884617461E464020FAF768FE3A4B85
:105510001C68002C6BD062691A60FAF76EFEC4F842
:10552000008084F83250002184F8301084F8311063
:10553000E162079B6360069BE360A760BDF82030D3
:105540002382668284F83710EA0884F8342005F054
:10555000070084F83300012303FA02F284F83620AE
:10556000834084F83530E16161622162A163216486
:10557000E1636164A164214BE36481B32046FFF7DA
:10558000BDFB4020FAF72BFE1D4B43F82540FAF7F0
:1055900034FE2046FFF765FB4020FAF720FE194B4A
:1055A0001B6863610022A26103B19C61154B1C6002
:1055B00094F83630144A11780B43137094F8342061
:1055C00012498B5C94F8354023438B54104A13786E
:1055D00001331370FAF711FE0020BDE8F08101F1EC
:1055E0001403002244F823200131C9B2C5E7FAF7B9
:1055F00004FE4220F1E700BF38C4002028F3000871
:1056000030C3002030C4002050C6002048C600200F
:1056100044C600207047000008B550211148FFF72C
:1056200002FE002310E05A1C92B20E4901EB021058
:105630004FEA031C01EB03134FF0000E01F80CE0DE
:1056400058600949D9601346032BECD9054A180163
:1056500002EB03130021115459600349D960034B35
:105660001A6008BD6CC8002028F3000868C8002034
:105670004268036832B1136003B15A608368002244
:105680005A627047C2685360002BF7D000225A60FC
:10569000F4E7000008B578211548FFF7C4FD0023A2
:1056A00013E003F1010C0CEB4C02D100104A8818F6
:1056B00003EB430E4FEACE01114448607346D90014
:1056C0000A440C4B53611FFA8CF3032BE9D90849A8
:1056D00003EB4300C2000A440020506003EB430385
:1056E000DA000A44034B5361034B196008BD00BF45
:1056F00078BB002028F30008F0BB002010B5602123
:105700000D48FFF790FD00230BE05A1C92B202EB0C
:105710004200C100084C214403EB4303D800215050
:105720001346022BF1D9044A03EB4303D9000023AB
:105730005350024B1A6010BD14BB002074BB0020F4
:1057400038B50E4B1B78BBB905464020FAF747FD2C
:105750000B4B1C680CB162681A60FAF74EFD4CB135
:1057600003232370258100236360064B6361204679
:10577000FFF74EFD204638BD0024FBE754C600204D
:10578000ACC9002028F300082DE9F0411546037844
:10579000032B03D001231370BDE8F08104460E46AD
:1057A000284B1B782BB9284B1B782BB10D2313707A
:1057B000F2E702231370EFE74020FAF710FD0746E7
:1057C000238933BBDFF88480D8F8003093F8302089
:1057D00042F0010283F83020002283F83120DE629B
:1057E0002046FFF79BFC3846FAF707FDFFF7A4FDBC
:1057F0004020FAF7F4FC0646D8F8000090F8313063
:1058000073B1022B1AD02146FFF7B2FC0A232B708A
:1058100008E0013B2381FAF7F0FC00232B70BBE783
:1058200000232B70094B1B68002283F8302083F87B
:105830003120DA613046FAF7E0FCADE70E232B7039
:10584000F0E700BF54C6002053C600203CC400202F
:1058500070B50378032B02D00125284670BD04469D
:105860004020FAF7BCFC0646A57A4DB923894FF6CD
:10587000FF72934211D001332381FAF7BEFCECE7AB
:105880000023012219462046FFF786FC3046FAF72E
:10589000B4FCFFF751FD0025DFE7FAF7AEFC332536
:1058A000DBE70000F0B585B005460E4617461C46FE
:1058B0004020FAF794FC1C4B1B784BB91B4B53F858
:1058C00024304BB1FAF799FC2825284605B0F0BDE5
:1058D000FAF793FC3C25F8E7144B012243F8242007
:1058E000FAF78BFC00233A4631462846FFF7BEF90B
:1058F0000146002202920192009213462046FFF7D1
:10590000FDFD054630B90A4B1B78012BDDD1FFF7B1
:1059100013FDDAE74020FAF762FC044B002243F85B
:105920002420FAF76AFCD0E754C6002030C30020D8
:1059300045C60020F8B5464B1D78002D40F0838009
:1059400004463F2800F081804020FAF748FC0646D4
:10595000FF2C60D027463F4B53F82440002C5FD0EB
:10596000012C62D094F834103B4B5A5C94F835000B
:1059700022EA00025A5494F834209B5C33B994F81C
:105980003610364A137823EA01031370E16911B126
:105990002046FFF7EDFB606A08B1FFF769FE0023C0
:1059A000E36284F8303084F831302D4B1B78FF2BC4
:1059B00002D001332A4A13703046FAF71EFCFFF773
:1059C000ABFB4020FAF70BFC0646254B1B7813B1C6
:1059D000013B234A13702046FFF744F9214A13780C
:1059E000013B13701B4B002243F82720A3690BB324
:1059F00062695A61A36993611B4B1A6862611C60FA
:105A00001A4BE3643046FAF7F8FB194B1B78012B6D
:105A100016D02846F8BD174B1B6893F8324099E71B
:105A20003046FAF7EAFB4325F3E73046FAF7E5FBA1
:105A30003D25EEE763699A6162690F4B1A60DBE707
:105A4000FFF77AFCE5E74025E3E73E25E1E700BF05
:105A500054C6002030C3002048C6002050C6002095
:105A600053C6002044C6002038C4002028F3000894
:105A700045C600203CC4002030C4002070B5154647
:105A8000134B1B7813B11223137070BD04460E46DE
:105A90004020FAF7A4FBFF2C0BD00E4B53F8243018
:105AA00063B1012B0FD0DE64FAF7A7FB00232B7044
:105AB000EBE7094B1B6893F83240EEE7FAF79DFBE2
:105AC00043232B70E1E7FAF798FB43232B70DCE7C5
:105AD00054C6002030C300203CC4002070B50446EA
:105AE0000D4600230B604B604020FAF778FBFF2C3B
:105AF0000FD0164B53F8243083B1012B12D01A8AE1
