:020000040800F2
:1000000000800120E9230008392400083924000871
:1000100039240008392400083924000800000000B1
:10002000000000000000000000000000392400086B
:100030003924000800000000392400083924000891
:10004000392400083924000839240008392400081C
:10005000392400083924000839240008392400080C
:1000600039240008392400083924000839240008FC
:1000700039240008392400083924000839240008EC
:100080003924000839240008392400080000000041
:1000900000000000000000000000000039240008FB
:1000A000392400083924000839240008C91B000835
:1000B00039240008392400083924000839240008AC
:1000C000392400083924000839240008392400089C
:1000D00039240008392400083924000800000000F1
:1000E00039240008392400083924000800000000E1
:1000F000000000000000000000000000392400089B
:1001000000000000392400083924000839240008C0
:1001100000000000000000000000000000000000DF
:10012000392400083924000839240008392400083B
:10013000392400080000000000000000000000005A
:10014000000000000000000000000000392400084A
:10015000392400083924000839240008392400080B
:1001600039240008392400080000000000000000C5
:10017000000000000000000000000000000000007F
:10018000000000003924000800000000000000000A
:040190003924000806
:1001A00081F0004102E000BF83F0004330B54FEA28
:1001B00041044FEA430594EA050F08BF90EA020F95
:1001C0001FBF54EA000C55EA020C7FEA645C7FEA28
:1001D000655C00F0E2804FEA5454D4EB5555B8BF4B
:1001E0006D420CDD2C4480EA020281EA030382EABC
:1001F000000083EA010180EA020281EA0303362D4E
:1002000088BF30BD11F0004F4FEA01314FF4801C20
:100210004CEA113102D0404261EB410113F0004F32
:100220004FEA03334CEA133302D0524263EB4303E9
:1002300094EA050F00F0A780A4F10104D5F1200E87
:100240000DDB02FA0EFC22FA05F2801841F10001E2
:1002500003FA0EF2801843FA05F359410EE0A5F1B6
:1002600020050EF1200E012A03FA0EFC28BF4CF0E7
:10027000020C43FA05F3C01851EBE37101F000459D
:1002800007D54FF0000EDCF1000C7EEB00006EEBAA
:100290000101B1F5801F1BD3B1F5001F0CD3490834
:1002A0005FEA30004FEA3C0C04F101044FEA44528B
:1002B00012F5800F80F09A80BCF1004F08BF5FEA12
:1002C000500C50F1000041EB045141EA050130BDF2
:1002D0005FEA4C0C404141EB0101013C28BFB1F504
:1002E000801FE9D291F0000F04BF01460020B1FA4F
:1002F00081F308BF2033A3F10B03B3F120020CDA22
:100300000C3208DD02F1140CC2F10C0201FA0CF0FF
:1003100021FA02F10CE002F11402D8BFC2F1200C64
:1003200001FA02F120FA0CFCDCBF41EA0C0190401A
:10033000E41AA2BF01EB0451294330BD6FEA040463
:100340001F3C1CDA0C340EDC04F11404C4F120024E
:1003500020FA04F001FA02F340EA030021FA04F360
:1003600045EA030130BDC4F10C04C4F1200220FAB7
:1003700002F001FA04F340EA0300294630BD21FAF5
:1003800004F0294630BD94F0000F83F4801306BFBB
:1003900081F480110134013D4EE77FEA645C18BFAF
:1003A0007FEA655C29D094EA050F08BF90EA020F46
:1003B00005D054EA000C04BF1946104630BD91EA3E
:1003C000030F1EBF0021002030BD5FEA545C05D141
:1003D0004000494128BF41F0004130BD14F5800480
:1003E0003CBF01F5801130BD01F0004545F0FE41F4
:1003F00041F470014FF0000030BD7FEA645C1ABF29
:10040000194610467FEA655C1CBF0B46024650EA5F
:10041000013406BF52EA033591EA030F41F400218B
:1004200030BD00BF90F0000F04BF0021704730B511
:100430004FF4806404F132044FF000054FF00001E6
:1004400050E700BF90F0000F04BF0021704730B5A7
:100450004FF4806404F1320410F0004548BF40427C
:100460004FF000013EE700BF42004FEAE2014FEAD1
:1004700031014FEA02701FBF12F07F4393F07F4FAC
:1004800081F06051704732F07F4208BF704793F0AF
:100490007F4F04BF41F40021704730B54FF46074C2
:1004A00001F0004521F000411CE700BF50EA0102C5
:1004B00008BF704730B54FF000050AE050EA01026E
:1004C00008BF704730B511F0004502D5404261EBDE
:1004D00041014FF4806404F132045FEA915C3FF41F
:1004E000D8AE4FF003025FEADC0C18BF03325FEABC
:1004F000DC0C18BF033202EBDC02C2F1200300FA6D
:1005000003FC20FA02F001FA03FE40EA0E0021FA91
:1005100002F11444BDE600BF70B54FF0FF0C4CF47F
:10052000E06C1CEA11541DBF1CEA135594EA0C0F31
:1005300095EA0C0F00F0DEF82C4481EA030621EA6C
:100540004C5123EA4C5350EA013518BF52EA0335A7
:1005500041F4801143F4801338D0A0FB02CE4FF059
:100560000005E1FB02E506F00042E0FB03E54FF089
:100570000006E1FB03569CF0000F18BF4EF0010E81
:10058000A4F1FF04B6F5007F64F5407404D25FEA7D
:100590004E0E6D4146EB060642EAC62141EA555130
:1005A0004FEAC52040EA5E504FEACE2EB4F1FD0C72
:1005B00088BFBCF5E06F1ED8BEF1004F08BF5FEAF0
:1005C000500E50F1000041EB045170BD06F00046A2
:1005D00046EA010140EA020081EA0301B4EB5C044F
:1005E000C2BFD4EB0C0541EA045170BD41F4801147
:1005F0004FF0000E013C00F3AB8014F1360FDEBF6C
:10060000002001F0004170BDC4F10004203C35DA47
:100610000C341BDC04F11404C4F1200500FA05F3CA
:1006200020FA04F001FA05F240EA020001F000426B
:1006300021F0004110EBD37021FA04F642EB0601E1
:100640005EEA430E08BF20EAD37070BDC4F10C040B
:10065000C4F1200500FA04F320FA05F001FA04F2CF
:1006600040EA020001F0004110EBD37041F10001BB
:100670005EEA430E08BF20EAD37070BDC4F12005C6
:1006800000FA05F24EEA020E20FA04F301FA05F22E
:1006900043EA020321FA04F001F0004121FA04F2D6
:1006A00020EA020000EBD3705EEA430E08BF20EAA6
:1006B000D37070BD94F0000F0FD101F000464000E0
:1006C00041EB010111F4801F08BF013CF7D041EA62
:1006D000060195F0000F18BF704703F00046520066
:1006E00043EB030313F4801F08BF013DF7D043EA37
:1006F0000603704794EA0C0F0CEA135518BF95EAED
:100700000C0F0CD050EA410618BF52EA4306D1D173
:1007100081EA030101F000414FF0000070BD50EA92
:10072000410606BF1046194652EA430619D094EA1C
:100730000C0F02D150EA013613D195EA0C0F05D106
:1007400052EA03361CBF104619460AD181EA03015A
:1007500001F0004141F0FE4141F470014FF0000012
:1007600070BD41F0FE4141F4780170BD70B54FF0AD
:10077000FF0C4CF4E06C1CEA11541DBF1CEA13552D
:1007800094EA0C0F95EA0C0F00F0A7F8A4EB05040F
:1007900081EA030E52EA03354FEA013100F0888006
:1007A0004FEA03334FF0805545EA131343EA1263CF
:1007B0004FEA022245EA111545EA10654FEA002684
:1007C0000EF000419D4208BF964244F1FD0404F53D
:1007D000407402D25B084FEA3202B61A65EB030599
:1007E0005B084FEA32024FF480104FF4002CB6EB56
:1007F000020E75EB030E22BFB61A754640EA0C00D6
:100800005B084FEA3202B6EB020E75EB030E22BF15
:10081000B61A754640EA5C005B084FEA3202B6EB56
:10082000020E75EB030E22BFB61A754640EA9C0015
:100830005B084FEA3202B6EB020E75EB030E22BFE5
:10084000B61A754640EADC0055EA060E18D04FEAA3
:10085000051545EA16754FEA06164FEAC30343EA43
:1008600052734FEAC2025FEA1C1CC0D111F4801F10
:100870000BD141EA00014FF000004FF0004CB6E709
:1008800011F4801F04BF01430020B4F1FD0C88BFA8
:10089000BCF5E06F3FF6AFAEB5EB030C04BFB6EBB3
:1008A000020C5FEA500C50F1000041EB045170BDA6
:1008B0000EF0004E4EEA113114EB5C04C2BFD4EBD3
:1008C0000C0541EA045170BD41F480114FF0000E57
:1008D000013C90E645EA060E8DE60CEA135594EAD3
:1008E0000C0F08BF95EA0C0F3FF43BAF94EA0C0FD6
:1008F0000AD150EA01347FF434AF95EA0C0F7FF44B
:1009000025AF104619462CE795EA0C0F06D152EA9E
:1009100003353FF4FDAE1046194622E750EA410682
:1009200018BF52EA43067FF4C5AE50EA41047FF493
:100930000DAF52EA43057FF4EBAE12E74FF0FF3CF8
:1009400006E000BF4FF0010C02E000BF4FF0010CC9
:100950004DF804CD4FEA410C7FEA6C5C4FEA430C42
:1009600018BF7FEA6C5C1BD001B050EA410C0CBF91
:1009700052EA430C91EA030F02BF90EA020F0020F3
:10098000704710F1000F91EA030F58BF994208BF5A
:1009900090422CBFD8176FEAE37040F00100704717
:1009A0004FEA410C7FEA6C5C02D150EA013C07D16E
:1009B0004FEA430C7FEA6C5CD6D152EA033CD3D0B9
:1009C0005DF8040B704700BF8446104662468C46B3
:1009D0001946634600E000BF01B5FFF7B7FF0028E6
:1009E00048BF10F1000F01BD4DF808EDFFF7F4FF0F
:1009F0000CBF012000205DF808FB00BF4DF808ED9A
:100A0000FFF7EAFF34BF012000205DF808FB00BFBC
:100A10004DF808EDFFF7E0FF94BF012000205DF8DE
:100A200008FB00BF4DF808EDFFF7CEFF94BF012093
:100A300000205DF808FB00BF4DF808EDFFF7C4FF8C
:100A400034BF012000205DF808FB00BF4FEA4102DF
:100A500012F5001215D211D56FF47873B3EB625210
:100A600012D94FEAC12343F0004343EA505311F037
:100A7000004F23FA02F018BF404270474FF00000C9
:100A8000704750EA013005D111F0004008BF6FF007
:100A9000004070474FF00000704700BF00000000AA
:100AA00001F0FF01102A2BDB10F0070F08D010F81F
:100AB000013B013A8B422DD010F0070F42B3F6D123
:100AC000F0B441EA012141EA014122F007047FF03C
:100AD00000070023F0E80256083C85EA010586EA93
:100AE000010685FA47F5A3FA87F586FA47F6A5FACF
:100AF00087F68EB9EED1F0BC01F0FF0102F00702DB
:100B000032B110F8013B013A83EA010313B1F8D185
:100B10000020704701387047002D06BF3546033866
:100B2000073815F0010F07D1013015F4807F02BF9F
:100B3000013015F4C03F0130F0BC0138704700BFF0
:100B400010B5054C237833B9044B13B10448AFF307
:100B500000800123237010BD500000200000000021
:100B6000542C000808B5034B1BB103490348AFF3ED
:100B7000008008BD0000000054000020542C000834
:100B800070B50D4D0D4C641BA4100026A64209D172
:100B90000B4D0C4C02F05EF8641BA4100026A6421C
:100BA00005D170BD55F8043B98470136EEE755F87E
:100BB000043B98470136F2E7302E0008302E00083B
:100BC000302E0008342E00087047704738B50546AF
:100BD000002941D051F8043C0C1F002BB8BFE41889
:100BE00000F0D8F81D4A136833B9636014602846D2
:100BF000BDE8384000F0D4B8A34208D920682118D5
:100C00008B4201BF19685B6809182160EDE71A463D
:100C10005B680BB1A342FAD911685018A0420BD1FE
:100C200020680144501883421160E0D118685B6865
:100C3000536008441060DAE702D90C232B60D6E732
:100C4000206821188B4204BF19685B68636004BF89
:100C5000091821605460CAE738BD00BFB001002008
:100C600070B50F4E0C463168054611B900F09EF87C
:100C700030602146284600F099F8431C03D14FF01C
:100C8000FF34204670BDC41C24F00304A042F8D0F9
:100C9000211A284600F08AF80130F2D1EFE700BFB0
:100CA000AC0100202DE9F041CD1C25F003050835ED
:100CB0000C2D38BF0C25002D064601DBA94204D9B6
:100CC0000C2333600020BDE8F081314F00F062F862
:100CD0003B681C4644BB29463046FFF7C1FF431C16
:100CE000044650D13C682146002941D1002C44D013
:100CF0002368304604EB030800F058F880453CD1E7
:100D000021686D1A29463046FFF7AAFF013034D01A
:100D100023682B4423603B68002B36D05A68A242DC
:100D200029D100225A600EE02268521B1DD40B2AE2
:100D300016D96119A342256018BF5960636808BFBE
:100D4000396062514B60304600F02AF804F10B0024
:100D5000231D20F00700C21AB5D01B1AA350B2E71A
:100D6000A3426268DED13A60EDE723466468B1E7EA
:100D70000C464968B8E71346CEE70C23336030468B
:100D800000F00EF89EE70560DDE75B60FFDE00BF68
:100D9000B00100200148FFF717BF00BFA8010020E5
:100DA0000148FFF712BF00BFA801002038B5064D6B
:100DB0000023044608462B6001F0C8FB431C02D107
:100DC0002B6803B1236038BDA401002040F0BF6050
:100DD00040F40030014BD860704700BF00ED00E0E8
:100DE000C378FBB1154BDA68D243C2F30222C2F1D9
:100DF0000401C9B20F23134142788A40D2B28178EC
:100E00000B4013431B01DBB202780D490A4482F800
:100E10000033037803F01F005B090122824041F890
:100E200023207047037803F01F015B0901228A40E9
:100E30002033034941F82320704700BF00ED00E054
:100E400000E100E000220F2A4DD810B514E0C3687D
:100E500094B264004FF0030E0EFA04FE23EA0E0370
:100E6000C360C36891F807E00EFA0CFC43EA0C0378
:100E7000C36001320F2A35D8012393400C68A34385
:100E8000F7D104684FEA420C032303FA0CF36FEA2C
:100E9000030E24EA0303036003680C7904FA0CF4DC
:100EA000234303600B79013BDBB2012BCFD883686E
:100EB0000EEA0303836083684C7904FA0CF423433D
:100EC000836043681FFA82FE012404FA0EF423EAC9
:100ED0000403436044688B7903FA0EF39BB2234307
:100EE0004360B4E710BD704721B1054A136B03435B
:100EF00013637047024A136B23EA000313637047BE
:100F00000038024021B1054A136C03431364704753
:100F1000024A136C23EA000313647047003802404E
:100F200003889BB21B4A904212D002F58062904225
:100F30000ED0B0F1804F0BD0A2F58032904207D096
:100F400002F58062904203D002F58062904203D1A4
:100F500023F070034A8813430F4A904208D002F5E9
:100F60008062904204D023F440739BB20A891343F9
:100F700003804B68C3620B880385064B984203D0FD
:100F800003F58063984201D18B7A03860123838223
:100F9000704700BF000001400010004029B10388E5
:100FA0009BB243F001030380704703889BB223F098
:100FB00001039BB20380704710B5038C9BB223F0F2
:100FC00001039BB20384B0F820C01FFA8CFCB0F878
:100FD00004E01FFA8EFE028B92B222F073020B889D
:100FE0001A432CF0020C8B894CEA030C4B8843EA21
:100FF0000C030F4CA04203D004F58064A0420FD133
:1010000023F00803CC89234323F004038C88234373
:101010002EF4407E0C8A4EEA040E4C8A44EA0E0EF0
:10102000A0F804E002838A684263038410BD00BF15
:1010300000000140038B9BB223F008030B430383A2
:101040007047406B704722B183899BB20B43838109
:1010500070478389C94389B2194081817047028AE8
:1010600083890B40114202D01BB900207047002039
:10107000704701207047C94389B2018270470388D5
:10108000194201D00120704700207047254B1A6B90
:1010900042F002021A635A6C42F010025A64A3F53D
:1010A00050531A6822F440521A601A6822F44042DF
:1010B0001A601A6842F400521A601A6842F4004238
:1010C0001A605A6842F040025A605A6842F0800240
:1010D0005A609A6822F440529A609A6822F4404218
:1010E0009A609A6842F400529A609A6842F4004208
:1010F0009A60DA6822F44052DA60DA6822F44042F8
:10110000DA601A6A22F060621A621A6A22F0604299
:101110001A621A6A42F0E0621A621A6A42F0E04207
:101120001A62704700380240124B9A8992B242F418
:1011300000529A8142F22E221A819A8992B222F4A6
:10114000805292B29A819A8992B222F4806292B2CB
:101150009A819A8992B242F020029A819A8992B237
:1011600042F008029A819A8992B242F004029A816E
:10117000704700BF0010014008B5044B98808021E3
:101180000248FFF77CFF0028F9D008BD001001409D
:1011900038B50546002403E0FFF7EEFF0134E4B262
:1011A000285D0028F8D138BD38B5041E09DB084D8C
:1011B00022460849284601F0DBF92846FFF7E8FFF8
:1011C00038BD2D20FFF7D8FF604204B2EFE700BF23
:1011D000B4010020402D000808B5FFF757FFFFF7C6
:1011E000A3FF08BD08B501226B21D02000F0D4FB7D
:1011F00009221921D02000F0CFFB06221A21D0208D
:1012000000F0CAFB18221B21D02000F0C5FB1822D9
:101210001C21D02000F0C0FB08BD00000000000031
:1012200010B586B004460E2301AA3B21D02000F061
:101230006BFB9DF804309DF8050000EB032000B225
:10124000FFF700F90022444BFFF766F900224FF048
:101250007C53FFF761F9C4E900019DF806309DF861
:10126000070000EB032000B2FFF7ECF800223A4B36
:10127000FFF752F900224FF07C53FFF74DF9C4E914
:1012800002019DF808309DF8090000EB032000B230
:10129000FFF7D8F80022304BFFF73EF900224FF05D
:1012A0007C53FFF739F9C4E904019DF80A309DF831
:1012B0000B0000EB032000B2FFF7C4F80022274B1D
:1012C000FFF754FA22A3D3E90023FEF76FFFC4E926
:1012D0000C019DF80C309DF80D0000EB032000B2CE
:1012E000FFF7B0F800221E4BFFF716F900224FF06F
:1012F0007C53FFF711F9C4E906019DF80E309DF803
:101300000F0000EB032000B2FFF79CF80022144B03
:10131000FFF702F900224FF07C53FFF7FDF8C4E914
:1013200008019DF810309DF8110000EB032000B279
:10133000FFF788F800220A4BFFF7EEF800224FF083
:101340007C53FFF7E9F8C4E90A0106B010BD00BFFD
:10135000A4703D0AD7434240000030400040754031
:1013600000409F4010B582B0044606236A463B21E8
:10137000D02000F0C9FA9DF800309DF8010000EB84
:10138000032000B2FFF75EF800221A4BFFF7C4F803
:1013900000224FF07C53FFF7BFF8C4E900019DF82D
:1013A00002309DF8030000EB032000B2FFF74AF87B
:1013B0000022104BFFF7B0F800224FF07C53FFF7EC
:1013C000ABF8C4E902019DF804309DF8050000EB7C
:1013D000032000B2FFF736F80022064BFFF79CF817
:1013E00000224FF07C53FFF797F8C4E9040102B0E4
:1013F00010BD00BF000030402DE9F043B5B080467D
:1014000089464C48FFF7C4FE4B48FFF7C1FE40F643
:10141000B83000F0FEF8002313E003EB430234A9D8
:1014200001EBC2020020002142E9240142E922012D
:1014300003EB430234AC04EBC20242E92001013366
:10144000DBB2052BE9D901AC3C4D0FCD0FC40FCD5C
:101450000FC40FCD0FC495E8070084E807000027EC
:101460004CE0740006EB460010AB03EBC000FFF746
:1014700079FF344434AB03EBC40454E9240102463D
:101480000B46FEF793FE44E9240154E9220102468B
:101490000B46FEF78BFE44E9220154E92001024687
:1014A0000B46FEF783FE44E920010A2000F0B1F864
:1014B0000135EDB2632DD4D906EB460434AB03EB12
:1014C000C40400221E4B54E92401FFF74FF944E9FC
:1014D000240100221A4B54E92201FFF747F944E99D
:1014E00022010022164B54E92001FFF73FF944E99D
:1014F00020011448FFF74CFE0137FFB2052F10D82A
:101500003E4607EB870001AB03EB4000FFF740FED0
:1015100040F6B83000F07DF80B48FFF739FE0025A3
:10152000C8E74A46414610A800F08AFB35B0BDE83E
:10153000F08300BF442D00085C2D0008702C0008CB
:1015400000005940982D0008882D000870B58AB019
:1015500001210420FFF7C8FC01210220FFF7D2FC83
:101560004023089302238DF825308DF824301A4C3F
:1015700008A92046FFF766FC236A43F00073236244
:1015800044F61F6306935323ADF814300025ADF8DD
:101590001C50ADF81650A4F5013405A92046FFF7FC
:1015A000BFFC6023ADF800300126ADF80260ADF855
:1015B0000C5069462046FFF7FFFC08212046FFF744
:1015C00039FD31462046FFF7E9FC23889BB243F002
:1015D000800323800AB070BD00080240014B5863AD
:1015E000704700BF0004004000EBC000C0004FF097
:1015F000E023586100229A6105221A614FF0E0232E
:101600001B6913F4803FF9D04FF0E02304221A61E4
:10161000704710B504E04FF47A70FFF7E5FF2046FD
:10162000441E0028F7D110BD1B4B1A6822F440322B
:101630001A601A6822F440221A601A6842F40032D2
:101640001A601A6842F400221A605A6842F48072E2
:101650005A605A6842F400725A604FF440329A60FD
:101660004FF440229A60DA6822F44032DA60DA6895
:1016700022F44022DA60DA6842F48032DA60DA6812
:1016800042F48022DA605A6A42F004025A625A6ACC
:1016900042F040025A627047000402401F4B9A8891
:1016A00092B222F03F0292B29A809A8892B242F0AD
:1016B00004029A801A8C92B222F03F0292B21A84EB
:1016C0001A8C92B242F4805242F001021A841A88B3
:1016D00092B242F001021A801A8892B222F02002DD
:1016E00092B21A801A8992B222F07F0292B21A81C3
:1016F0001A8992B242F001021A819A8BC2F30E0249
:101700009A839A8B02F470429A839A8B92B242F433
:101710002B5242F038029A83704700BF00540040B9
:10172000012807D0074A13889BB223F480739BB229
:1017300013807047034A13889BB243F4807313806D
:10174000704700BF00540040012807D0074A1388A3
:101750009BB223F400739BB213807047034A138833
:101760009BB243F400731380704700BF00540040E5
:10177000012807D0074A13889BB223F480639BB2E9
:1017800013807047034A13889BB243F4806313802D
:10179000704700BF00540040014B1882704700BFE3
:1017A00000540040014B188AC0B2704700540040FA
:1017B000012904D000F0FE00024B1882704740F06F
:1017C0000100F9E700540040044B1B8B13F0020F9B
:1017D00001D1012070470020704700BF0054004035
:1017E0000B4B9B8A13F0010F0BD0094B1B8B13F093
:1017F000010F08D0064B1B8B13F0020F05D1002000
:10180000704700207047002070470120704700BFDC
:1018100000540040144B9A8A91B21B8B9BB212F079
:10182000020F18D011F0800F17D013F0010F16D04F
:1018300013F0020F15D013F0040F01D100207047F0
:1018400011F4007F05D0084A938A9BB243F4806369
:1018500093820120704700207047002070470020CD
:1018600070470020704700BF00540040124B9B8A15
:1018700013F0040F15D0104B9B8A13F0800F12D079
:101880000D4B1B8B13F0010F0FD00B4B1B8B13F069
:10189000020F0CD0084B1B8B13F0040F09D1002052
:1018A00070470020704700207047002070470020DC
:1018B00070470120704700BF005400400B4B9B8ACB
:1018C00013F0020F0BD0094B1B8B13F0010F08D044
:1018D000064B1B8B13F0020F05D100207047002030
:1018E0007047002070470120704700BF005400403F
:1018F000044B9B8A13F0400F01D100207047012058
:10190000704700BF00540040F8B504460F46164625
:101910001D46FFF759FF0028FBD00120FFF700FF0D
:10192000FFF75EFF0028FBD000212046FFF740FFB5
:10193000FFF770FF0028FBD03846FFF72DFFFFF7B9
:1019400095FF0028FBD00120FFF7EAFEFFF748FFD4
:101950000028FBD001212046FFF72AFFFFF7AEFF4A
:101960000028FBD00020FFF7EFFE0120FFF700FF6B
:10197000002408E0FFF7BCFF0028FBD0FFF712FFB0
:1019800030550134E4B2AC42F4D30020FFF7F0FE4E
:101990000120FFF7D9FEF8BD70B506460D46144686
:1019A000FFF712FF0028FBD00120FFF7B9FEFFF779
:1019B00017FF0028FBD000213046FFF7F9FEFFF7A4
:1019C00029FF0028FBD02846FFF7E6FEFFF74EFF71
:1019D0000028FBD02046FFF7DFFEFFF747FF002877
:1019E000FBD00120FFF7B0FE70BD000008B5074B2B
:1019F0001A6B42F002021A631A6C42F400121A6463
:101A0000FFF712FEFFF74AFE08BD00BF0038024094
:101A100010B582B05E4A536C43F0010353645D4CD1
:101A20000023E36223889BB223F010039BB2238040
:101A3000238D9BB243F053032385E36A43F49C4315
:101A400043F01F03E362A38A9BB243F00203A38225
:101A500023889BB243F080032380136B43F0010380
:101A600013634D4B5A6A42F001025A621A6822F41B
:101A700040321A601A6842F400321A605A6822F43E
:101A800080725A609A6842F400329A60DA6822F4EE
:101A90004032DA60238B9BB243F001032383238B14
:101AA0009BB223F00C039BB22383238B9BB223F0C6
:101AB000F0039BB22383238C9BB243F00103238466
:101AC000238C9BB223F002039BB22384238C9BB212
:101AD00023F008039BB22384238B9BB243F400734F
:101AE0002383238B9BB223F440639BB22383238BFA
:101AF000C3F30B032383238C9BB243F01003238493
:101B0000238C9BB243F020032384238C9BB243F0AD
:101B10008003238423899BB223F00A039BB2238191
:101B200023899BB243F00403238123899BB223F0D2
:101B300070039BB2238123899BB243F0500323811E
:101B400023899BB243F08003238101220221204696
:101B5000FFF779FA4FF4A060FFF738F91B238DF8EF
:101B6000043001238DF8073002228DF805208DF80E
:101B7000063001A8FFF734F9A3899BB243F00203B2
:101B8000A38123889BB243F00103238002B010BDE0
:101B9000003802400000014000000240084BD868B5
:101BA0004FF47A7303FB00F0A0F57420A0F5C56034
:101BB000044BA3FB0030800900F57A70704700BF2A
:101BC000E0050020D34D621008B502211748FFF749
:101BD00046FA012804D0FFF7E1FF154B186008BD55
:101BE0001248FFF72EFA0130B0F5805F02D9114B91
:101BF00001221A600F4B1B68012B04D002210B48F5
:101C0000FFF739FAE7E70948FFF71BFA0A490A68BC
:101C1000531C0B600130094941F82200082BEDD913
:101C20000023054A1360034A1360E7E70000014000
:101C300008060020D8050020DC050020E005002073
:101C40002DE9F04F2DED028BADF5657D1646002296
:101C50000023CDE9DC23CDE9DA23CDE9D823002226
:101C6000B34BCDE9E223CDE9E023CDE9DE239FEDBF
:101C7000AE7B8DED067B0024AE4D4FF0000AD146C1
:101C800082460B913746C0E204EB440203EB42026A
:101C900018A901EBC20200200021C2E900010133B2
:101CA000DBB2052BF0D906EB46080AEBC808DDE9E4
:101CB000D823D8E90001FEF777FA04EB4405E4AB3A
:101CC00003EBC50545E93C01DDE9DA23D8E902016A
:101CD000FEF76AFA45E93A01DDE9DC23D8E90401B7
:101CE000FEF762FA45E9380100209149E4AB03EBC5
:101CF000C40343E9180100250096CDF814A0089705
:101D00002AE0E4AB03EBC40858E918AB04EB440346
:101D10002B44E4AA02EBC30353E93C0102460B4601
:101D2000FEF7FAFBEB1CE4AA02EBC30353E90C67D2
:101D300032463B46FEF7F0FB02460B46304639463C
:101D4000FEF7EAFB02460B4650465946FEF72CFAD0
:101D500048E918010135EDB2022DD2D9009EDDF817
:101D600014A0089F0136F6B2052E09D834460CABF4
:101D700003EBC60300200021C3E90001002390E724
:101D80004FF0000CCDF814906646CDF820A049E045
:101D9000E51CE4AB03EBC50353E90C8942464B4613
:101DA00040464946FEF702FACDE9000102460B46DD
:101DB00040464946FEF7B0FB06EB460A0AEB040331
:101DC000E4AA02EBC30353E93C8942464B46FEF7C3
:101DD000A3FB4FEA4A0B04EB4A0A60AB03EBCA0AC7
:101DE000CAE90001DDE90012029102F10043039308
:101DF00042464B46DDE90201FEF78EFB02460B46EA
:101E000040464946FEF788FBAB4460AB03EBCB038F
:101E1000C3E900010134E4B2022CB9D906F1010C86
:101E20005FFA8CF6052E01D80024F5E7DDF8149052
:101E3000DDF820A000252E46CDF814A008975CE020
:101E400008EB48030BEB430318AA02EBC306D6E9E1
:101E5000009A04EB440108EB410160AB03EBC101C4
:101E600004EB44030BEB430360AA02EBC303D3E987
:101E70000023D1E90001FEF74FFB02460B4648461E
:101E80005146FEF793F9C6E900010134E4B2052C8E
:101E9000D6D9B9460CAB03EBC804D4E900670BEB09
:101EA0004B0308EB430360AA02EBC301E4AB03EB73
:101EB000CB0B5BE91823D1E90001FEF72DFB0246AD
:101EC0000B4630463946FEF771F9C4E90001013589
:101ED000EDB2052D0ED8AB4608EB480305EB4303E6
:101EE00018AA02EBC30300200021C3E9000100246B
:101EF0004F46CCE7009E0136F6B2052E0AD8B04612
:101F00000CAB03EBC60300200021C3E90001002550
:101F10000096DEE7DDF814A0089F0024B846DDE94E
:101F2000066717E0AFF30080FCA9F1D24D62503F85
:101F30000000F03F00005940C4EBC40318AA02EBB4
:101F4000C30532463B46D5E90001FEF72FF9C5E946
:101F500000010134052CEFDD0025CDF824902E463C
:101F6000CDF828A0C3466AE009EB490804EB48080D
:101F700018AB03EBC808D8E900670AEB4A0304EB87
:101F8000430318AA02EBC301DDE90023D1E90001F4
:101F9000FEF7C2FA02460B4630463946FEF704F910
:101FA000C8E900010134E4B2052CDDD9059E089F83
:101FB0000CAB03EBC90999ED008B03EBCA01DDE91A
:101FC0000023D1E90001FEF7A7FA02460B4651ECC7
:101FD000180BFEF7E9F8C9E900010137FFB2052F38
:101FE0002CD8B946B24607EB470106EB410118ABC6
:101FF00003EBC101C6EBC60318AA02EBC303D3E986
:102000000023D1E90001FEF7B1FB02460B46CDE902
:10201000002300220023FEF7E7FC0028DDD107EBB8
:10202000470306EB430318AA02EBC3030020002179
:10203000C3E900012C4605960897B5E72E46052E04
:1020400003D8731CDDB22F46C9E7DDF82490DDF814
:1020500028A00523CDF8149057E008EB480305EBC2
:10206000430318AA02EBC30432463B46D4E90001FD
:10207000FEF77CFBC4E900010135EDB2052DECD97A
:102080004446DA46DDF800B00CAB03EBC805324637
:102090003B46D5E90001FEF769FBC5E900010025D3
:1020A000CDF8009029E00CAB03EBC507D7E9008918
:1020B0006E0005EB450104EB410118AB03EBC101D8
:1020C0000CAB03EBC403D3E90023D1E90001FEF715
:1020D00023FA02460B4640464946FEF765F8C7E933
:1020E00000012E4404EB460618AB03EBC6030020A8
:1020F0000021C3E900010135EDB2AC42D3DCDDF8CB
:10210000009009F1FF394FFA89F3002B14DBC3EB80
:10211000C30218A901EBC202D2E9006700205A49A4
:10212000C2E900015FFA83F909F10105EDB29846B1
:10213000CDF800B0D346A1E7DDF814904FF00008C9
:1021400000240025CDF8009035E04FEAC8090CAB1B
:1021500003EBC803D3E9000102460B46FEF7DCF9A6
:1021600006460F4609F564736B4453E90C010246B9
:102170000B46FEF7D1F902460B4630463946FEF7CC
:10218000F5FA02460B4620462946FEF70FF80446AC
:102190000D46E4AB03EBC8060CAB03EBC803D3E975
:1021A000002356E90C01FDF7FFFF46E90C0108F199
:1021B00001085FFA88F8B8F1050F14D8B8F1020FDA
:1021C000C3D80CAB03EBC803D3E9000102460B46AE
:1021D000FEF7A2F902460B4620462946FDF7E6FF28
:1021E00004460D46D5E7DDF800905F460022002347
:1021F00020462946FEF720FCC0B1DDE90601024673
:102200000B46FDF7D3FFCDE90601B9F1630F16D8F0
:102210001BA3D3E9002320462946FEF70DFC70B12D
:1022200009F101035FFA83F900269DE50022174BAF
:10223000DDE90601FEF79AFACDE90601E5E73E463B
:102240000B9FDDE9D823C7E90023DDE9DA23C7E9DD
:102250000223DDE9DC23C7E90423DDE9DE23C6E947
:102260000023DDE9E023C6E90223DDE9E223C6E934
:1022700004230DF5657DBDEC028BBDE8F08F00BF3A
:1022800095D626E80B2E113E0000F03F00000840D6
:1022900070B5B6B04FF47A70FFF7BBF9FFF7A6FB45
:1022A000464C238801332380FEF79CFF23885A1C69
:1022B000228002332380FEF78FFFFFF7A9FBFFF791
:1022C00045F94FF47A70FFF7A4F93D48FEF760FF37
:1022D00030A8FFF747F890223A490CA800F068F9B7
:1022E0006A4606A90CA8FFF7ABFC00242AE004EB21
:1022F000440536AB03EBC505DDE9062355E92A01A4
:10230000FDF752FFDDE90023FEF706F945E92A0152
:10231000DDE9082355E92801FDF746FFDDE9022341
:10232000FEF7FAF845E92801DDE90A2355E9260117
:10233000FDF73AFFDDE90423FEF7EEF845E9260153
:102340000134E4B2052CD2D91F492048FFF754F8D4
:102350003220FFF75EF91E4B1868FFF73FF91D4C5E
:102360002046FEF75DFF1C48FEF712FF1B48FEF7F4
:102370000FFFD4E90001FEF769FB00B2FEF714FF7E
:102380000A20FEF7F9FE1648FEF702FFD4E9020123
:10239000FEF75CFB00B2FEF707FF0A20FEF7ECFE3B
:1023A0001048FEF7F5FED4E90401FEF74FFB00B23A
:1023B000FEF7FAFE0A20FEF7DFFEC9E70C06002052
:1023C000A02D0008B02C0008A8050020C0050020A2
:1023D0000806002010060020BC2D0008C82D0008AB
:1023E000D82D0008E82D0008DFF834D00D480E493C
:1023F0000E4A002302E0D458C4500433C4188C425F
:10240000F9D30B4A0B4C002301E013600432A242C3
:10241000FBD300F073F8FEF7B3FBFFF739FF70470B
:10242000008001200000002050000020382E00080D
:102430005000002064060020FEE7000082B0002368
:1024400001930093294A136843F480331360274BA8
:102450001B6803F400330093019B01330193009B3D
:102460001BB9019BB3F5A04FF1D1204B1B6813F4AE
:10247000003F06D001230093009B012B04D002B043
:10248000704700230093F7E7184B1A6C42F0805214
:102490001A6417490A6842F440420A609A689A60CE
:1024A0009A689A609A6842F480529A60114A5A6017
:1024B0001A6842F080721A600C4B1B6813F0007FA0
:1024C000FAD00D4B40F205721A60A3F580639A684A
:1024D00022F003029A609A6842F002029A60034B6B
:1024E0009B6803F00C03082BF9D1C8E700380240C1
:1024F0000070004008544107003C024010B5104CE9
:10250000D4F8883043F47003C4F888300D4B1A684F
:1025100042F001021A60002199601A6822F0847268
:1025200022F480321A60084A5A601A6822F4802223
:102530001A60D960FFF782FF4FF00063A36010BDFF
:1025400000ED00E000380240103000240346064A47
:10255000126822B1044A1068034413607047024AAB
:1025600002491160F6E700BF6006002068060020FF
:102570000EB400B59CB01DAB029006906FF0004108
:10258000094807910491094953F8042B0591006803
:10259000019302A900F076F8029B00221A701CB089
:1025A0005DF804EB03B07047000000200802FFFF55
:1025B0000A44914200F1FF3300D1704710B511F881
:1025C000014B03F8014F9142F9D110BD2DE9F047BD
:1025D0008E681F46BE420B6882460C4690462DD838
:1025E000B1F90C2012F4906F26D06569096905EBEA
:1025F0004505A3EB010905EBD5757B1C4B446D101C
:102600009D4238BF1D46530527D52946FEF74AFB94
:10261000064660B321694A46FFF7CAFFA38923F43F
:10262000906343F08003A381266165614E44A5EB6E
:1026300009052660A5603E46BE4200D93E46206898
:102640003246414600F0B6FAA3689B1BA36023689C
:10265000334423600020BDE8F0872A4600F0C4FA26
:1026600006460028E0D121695046FEF7AFFA0C2358
:10267000CAF80030A38943F04003A3814FF0FF3034
:10268000E9E700002DE9F04F98468B891B069DB0C5
:1026900007460D46144610D50B6973B94021FEF765
:1026A00001FB2860286130B90C233B604FF0FF30FC
:1026B0001DB0BDE8F08F40236B61002309932023F8
:1026C0008DF82930CDF80C803023DFF89C818DF80F
:1026D0002A304FF0010923469A4613F8012B0AB11C
:1026E000252AF9D1BAEB040B0BD05B4622462946CA
:1026F0003846FFF76BFF013000F0A780099A5A4473
:1027000009929AF80030002B00F09F8000234FF0D0
:10271000FF32CDE905230AF1010A049307938DF8EE
:1027200053301A935446052214F8011B4E48FEF705
:10273000B7F9049AD8B9D00644BF20238DF8533096
:10274000110744BF2B238DF853309AF800302A2B01
:1027500015D0079A544600204FF00A0C214611F874
:10276000013B303B092B4BD9B0B1079214E0A0EBF1
:10277000080309FA03F313430493A246D2E7039B29
:10278000191D1B680391002BBBBF5B4242F0020284
:1027900007930793B8BF049223782E2B0AD163784E
:1027A0002A2B32D1039B1A1D1B68039243EAE37361
:1027B00002340593DFF8C0A0217803225046FEF7CB
:1027C0006FF938B1049BA0EB0A004022824013430A
:1027D0000134049314F8011B24488DF828100622B4
:1027E000FEF75EF9002836D0214B1BBB039B073355
:1027F00023F0070308330393099B334409936AE7E3
:102800000CFB02320C460120A8E70023013405939B
:1028100019464FF00A0C204610F8012B303A092ACD
:1028200003D9002BC6D00591C4E70CFB0121044657
:102830000123F0E703AB00932A460E4B04A9384668
:10284000AFF30080421C0646D6D1AB895B063FF54C
:102850002DAF09982CE703AB00932A46054B04A93A
:10286000384600F079F8EDE7F52D0008FF2D000857
:1028700000000000CD250008FB2D00082DE9F047E1
:10288000164698468A680B69DDF820909342B8BFD7
:102890001346336091F8432007460C460AB10133D2
:1028A00033602368990642BF33680233336025687A
:1028B00015F0060506D104F1190AE36832689B1A7F
:1028C000AB4226DC94F843302268003B18BF01235A
:1028D00092062BD404F1430241463846C8470130E2
:1028E0001ED02368226903F00603042B02BFE568AB
:1028F0003368ED1AA3680CBF25EAE57500259342FD
:10290000C4BF9B1AED1800261A34B5421AD1002014
:1029100008E00123524641463846C847013003D1FA
:102920004FF0FF30BDE8F0870135C6E7E1185A1CCB
:10293000302081F84300224494F8451082F8431077
:102940000233C7E70123224641463846C8470130D3
:10295000E6D00136D9E700002DE9FF470F7E0C9D38
:10296000782F914680460C469A4601F1430207D8DB
:10297000622F0AD8002F00F0E080582F00F0BB80B3
:1029800004F1420684F842703AE0A7F16303152B84
:10299000F6D801A151F823F0F1290008052A000812
:1029A000812900088129000881290008812900085F
:1029B000052A0008812900088129000881290008CA
:1029C00081290008212B0008952A0008D72A000831
:1029D0008129000881290008432B0008812900086B
:1029E000952A00088129000881290008DF2A0008AB
:1029F0002B681A1D1B682A6004F1420684F84230D5
:102A00000123ABE0236829681F0601F10400286058
:102A100001D50D6803E05E06FBD5B1F90050616891
:102A2000002D7ADA2D20002984F84300A1602DDAE8
:102A30005E486D420A231646B5FBF3F103FB1157BE
:102A4000C75D06F8017D2F46BB420D46F4D9082B21
:102A50000BD12368DF0708D5236961689942DEBF7F
:102A6000302306F8013C06F1FF36921B2261CDF8B7
:102A700000A04B4603AA21464046FFF7FFFE013067
:102A800071D14FF0FF3004B0BDE8F08723F00403AC
:102A90002360CDE72B682068191D2960050601D544
:102AA0001D6802E04106FBD51D8840486F2F14BF0A
:102AB0000A230823002184F843106668A660002ECC
:102AC000B9DB216821F004012160002DB3D1002E73
:102AD000B1D11646BBE7236843F020032360344896
:102AE000782784F84570296823680E1D2E601E061D
:102AF00003D50D6804E02D48F3E75D06F9D50D8890
:102B0000D90744BF43F0200323600DB11023D1E760
:102B1000236823F020032360F8E724480A23CCE746
:102B20002B6826686169181D286035061B6801D569
:102B3000196002E07006FBD5198000232361164658
:102B400095E72B681A1D2A601E68626800213046CE
:102B5000FDF7A6FF08B1801B606063682361002356
:102B600084F8433083E72369324649464046D047DC
:102B7000013086D023689B0714D4E068039B9842F9
:102B8000B8BF18467FE70123324649464046D04742
:102B900001303FF476AF0135E36803995B1AAB422D
:102BA000F1DCEAE7002504F11906F5E7062E000836
:102BB000172E0008884210B501EB020402D98442A6
:102BC000234607D8431EA14208D011F8012B03F871
:102BD000012FF8E7024401468A4200D110BD13F8E4
:102BE000014D02F8014DF7E72DE9F0418046154609
:102BF0000C4621B9BDE8F0411146FEF753B82AB999
:102C0000FDF7E4FF00242046BDE8F08100F01AF84B
:102C10008542064602D8B5EB500FF4D82946404607
:102C2000FEF740F807460028ECD0B5422A46214678
:102C300028BF3246FFF7BCFC21464046FDF7C6FFE1
:102C40003C46E0E751F8043C181F002BBCBF0B5872
:102C5000C0187047F8B500BFF8BC08BC9E46704766
:0C2C6000F8B500BFF8BC08BC9E467047E9
:102C700066726F6E7400000000006261636B00009A
:102C8000000000006C6566740000000000007269BE
:102C9000676874000000000075700000000000000C
:102CA0000000646F776E000000000000000000006C
:102CB0005B26C3F17C0694BFA54BFF9254A6883FC8
:102CC000280F0BB5A6F9FA3F52D66F26A64BF03F58
:102CD000BF1072DEFFC7B13F87342A70B20DE73FE5
:102CE000F1BC546CCC6BEFBFBB2BBB6070CD5D3FB8
:102CF00050C58D5BCCCFDC3F132D793C2D3FB03FD1
:102D00007E3B8908FFA2EEBFBE16F4DE1882E03FCC
:102D10006C223317B83C96BF53D0ED258D11F03F90
:102D200012859675FFD8E63F892991442FA3A03FCD
:102D3000DE3D40F7E5CC96BF7B4CA4349BC7D8BFA3
:102D4000256400004163632043616C6962726174B1
:102D5000696F6E2073746172742E0A00506C656125
:102D6000736520707574207468652073656E736F69
:102D700072206F6E206120666C61742073757266BC
:102D80006163652E0A0000006D6561737572696E7E
:102D9000672E2E2E00000000646F6E652E0A000064
:102DA000496E6974696C697A6174696F6E206669CD
:102DB0006E6973686564210A000000004143432086
:102DC000446174613A0A00006D70755F6163635F0E
:102DD00078203A20000000006D70755F6163635FCA
:102DE00079203A20000000006D70755F6163635FB9
:102DF0007A203A2000232D302B2000686C4C00658F
:102E00006667454647003031323334353637383916
:102E10004142434445460030313233343536373849
:082E200039616263646566001C
:082E280078DCFF7F01000000CF
:042E3000650B000826
:042E3400410B000846
:102E380004000020000000006C000020D4000020E6
:102E48003C0100200000000000000000000000001D
:102E5800000000000000000000000000000000006A
:102E6800000000000000000000000000000000005A
:102E7800000000000000000000000000000000004A
:04000005080023E9E3
:00000001FF
