:020000040800F2
:100000000080012061340008B1340008B1340008D8
:10001000B1340008B1340008B13400080000000019
:10002000000000000000000000000000B1340008E3
:10003000B134000800000000B1340008B1340008F9
:10004000B1340008B1340008B1340008B1340008FC
:10005000B1340008B1340008B1340008B1340008EC
:10006000B1340008B1340008B1340008B1340008DC
:10007000B1340008B1340008B1340008B1340008CC
:10008000B1340008B1340008B134000800000000A9
:10009000000000000000000000000000B134000873
:1000A000B1340008B1340008B1340008E925000873
:1000B000B1340008B1340008B1340008B13400088C
:1000C000B1340008B1340008B1340008B13400087C
:1000D000B1340008B1340008B13400080000000059
:1000E000B1340008B1340008B13400080000000049
:1000F000000000000000000000000000B134000813
:1001000000000000B1340008B1340008B134000828
:1001100000000000000000000000000000000000DF
:10012000B1340008B1340008B1340008B13400081B
:10013000B1340008000000000000000000000000D2
:10014000000000000000000000000000B1340008C2
:10015000B1340008B1340008B1340008B1340008EB
:10016000B1340008B13400080000000000000000B5
:10017000000000000000000000000000000000007F
:1001800000000000B1340008000000000000000082
:04019000B13400087E
:1001A00081F0004102E000BF83F0004330B54FEA28
:1001B00041044FEA430594EA050F08BF90EA020F95
:1001C0001FBF54EA000C55EA020C7FEA645C7FEA28
:1001D000655C00F0E2804FEA5454D4EB5555B8BF4B
:1001E0006D420CDD2C4480EA020281EA030382EABC
:1001F000000083EA010180EA020281EA0303362D4E
:1002000088BF30BD11F0004F4FEA01314FF4801C20
:100210004CEA113102D0404261EB410113F0004F32
:100220004FEA03334CEA133302D0524263EB4303E9
:1002300094EA050F00F0A780A4F10104D5F1200E87
:100240000DDB02FA0EFC22FA05F2801841F10001E2
:1002500003FA0EF2801843FA05F359410EE0A5F1B6
:1002600020050EF1200E012A03FA0EFC28BF4CF0E7
:10027000020C43FA05F3C01851EBE37101F000459D
:1002800007D54FF0000EDCF1000C7EEB00006EEBAA
:100290000101B1F5801F1BD3B1F5001F0CD3490834
:1002A0005FEA30004FEA3C0C04F101044FEA44528B
:1002B00012F5800F80F09A80BCF1004F08BF5FEA12
:1002C000500C50F1000041EB045141EA050130BDF2
:1002D0005FEA4C0C404141EB0101013C28BFB1F504
:1002E000801FE9D291F0000F04BF01460020B1FA4F
:1002F00081F308BF2033A3F10B03B3F120020CDA22
:100300000C3208DD02F1140CC2F10C0201FA0CF0FF
:1003100021FA02F10CE002F11402D8BFC2F1200C64
:1003200001FA02F120FA0CFCDCBF41EA0C0190401A
:10033000E41AA2BF01EB0451294330BD6FEA040463
:100340001F3C1CDA0C340EDC04F11404C4F120024E
:1003500020FA04F001FA02F340EA030021FA04F360
:1003600045EA030130BDC4F10C04C4F1200220FAB7
:1003700002F001FA04F340EA0300294630BD21FAF5
:1003800004F0294630BD94F0000F83F4801306BFBB
:1003900081F480110134013D4EE77FEA645C18BFAF
:1003A0007FEA655C29D094EA050F08BF90EA020F46
:1003B00005D054EA000C04BF1946104630BD91EA3E
:1003C000030F1EBF0021002030BD5FEA545C05D141
:1003D0004000494128BF41F0004130BD14F5800480
:1003E0003CBF01F5801130BD01F0004545F0FE41F4
:1003F00041F470014FF0000030BD7FEA645C1ABF29
:10040000194610467FEA655C1CBF0B46024650EA5F
:10041000013406BF52EA033591EA030F41F400218B
:1004200030BD00BF90F0000F04BF0021704730B511
:100430004FF4806404F132044FF000054FF00001E6
:1004400050E700BF90F0000F04BF0021704730B5A7
:100450004FF4806404F1320410F0004548BF40427C
:100460004FF000013EE700BF42004FEAE2014FEAD1
:1004700031014FEA02701FBF12F07F4393F07F4FAC
:1004800081F06051704732F07F4208BF704793F0AF
:100490007F4F04BF41F40021704730B54FF46074C2
:1004A00001F0004521F000411CE700BF50EA0102C5
:1004B00008BF704730B54FF000050AE050EA01026E
:1004C00008BF704730B511F0004502D5404261EBDE
:1004D00041014FF4806404F132045FEA915C3FF41F
:1004E000D8AE4FF003025FEADC0C18BF03325FEABC
:1004F000DC0C18BF033202EBDC02C2F1200300FA6D
:1005000003FC20FA02F001FA03FE40EA0E0021FA91
:1005100002F11444BDE600BF70B54FF0FF0C4CF47F
:10052000E06C1CEA11541DBF1CEA135594EA0C0F31
:1005300095EA0C0F00F0DEF82C4481EA030621EA6C
:100540004C5123EA4C5350EA013518BF52EA0335A7
:1005500041F4801143F4801338D0A0FB02CE4FF059
:100560000005E1FB02E506F00042E0FB03E54FF089
:100570000006E1FB03569CF0000F18BF4EF0010E81
:10058000A4F1FF04B6F5007F64F5407404D25FEA7D
:100590004E0E6D4146EB060642EAC62141EA555130
:1005A0004FEAC52040EA5E504FEACE2EB4F1FD0C72
:1005B00088BFBCF5E06F1ED8BEF1004F08BF5FEAF0
:1005C000500E50F1000041EB045170BD06F00046A2
:1005D00046EA010140EA020081EA0301B4EB5C044F
:1005E000C2BFD4EB0C0541EA045170BD41F4801147
:1005F0004FF0000E013C00F3AB8014F1360FDEBF6C
:10060000002001F0004170BDC4F10004203C35DA47
:100610000C341BDC04F11404C4F1200500FA05F3CA
:1006200020FA04F001FA05F240EA020001F000426B
:1006300021F0004110EBD37021FA04F642EB0601E1
:100640005EEA430E08BF20EAD37070BDC4F10C040B
:10065000C4F1200500FA04F320FA05F001FA04F2CF
:1006600040EA020001F0004110EBD37041F10001BB
:100670005EEA430E08BF20EAD37070BDC4F12005C6
:1006800000FA05F24EEA020E20FA04F301FA05F22E
:1006900043EA020321FA04F001F0004121FA04F2D6
:1006A00020EA020000EBD3705EEA430E08BF20EAA6
:1006B000D37070BD94F0000F0FD101F000464000E0
:1006C00041EB010111F4801F08BF013CF7D041EA62
:1006D000060195F0000F18BF704703F00046520066
:1006E00043EB030313F4801F08BF013DF7D043EA37
:1006F0000603704794EA0C0F0CEA135518BF95EAED
:100700000C0F0CD050EA410618BF52EA4306D1D173
:1007100081EA030101F000414FF0000070BD50EA92
:10072000410606BF1046194652EA430619D094EA1C
:100730000C0F02D150EA013613D195EA0C0F05D106
:1007400052EA03361CBF104619460AD181EA03015A
:1007500001F0004141F0FE4141F470014FF0000012
:1007600070BD41F0FE4141F4780170BD70B54FF0AD
:10077000FF0C4CF4E06C1CEA11541DBF1CEA13552D
:1007800094EA0C0F95EA0C0F00F0A7F8A4EB05040F
:1007900081EA030E52EA03354FEA013100F0888006
:1007A0004FEA03334FF0805545EA131343EA1263CF
:1007B0004FEA022245EA111545EA10654FEA002684
:1007C0000EF000419D4208BF964244F1FD0404F53D
:1007D000407402D25B084FEA3202B61A65EB030599
:1007E0005B084FEA32024FF480104FF4002CB6EB56
:1007F000020E75EB030E22BFB61A754640EA0C00D6
:100800005B084FEA3202B6EB020E75EB030E22BF15
:10081000B61A754640EA5C005B084FEA3202B6EB56
:10082000020E75EB030E22BFB61A754640EA9C0015
:100830005B084FEA3202B6EB020E75EB030E22BFE5
:10084000B61A754640EADC0055EA060E18D04FEAA3
:10085000051545EA16754FEA06164FEAC30343EA43
:1008600052734FEAC2025FEA1C1CC0D111F4801F10
:100870000BD141EA00014FF000004FF0004CB6E709
:1008800011F4801F04BF01430020B4F1FD0C88BFA8
:10089000BCF5E06F3FF6AFAEB5EB030C04BFB6EBB3
:1008A000020C5FEA500C50F1000041EB045170BDA6
:1008B0000EF0004E4EEA113114EB5C04C2BFD4EBD3
:1008C0000C0541EA045170BD41F480114FF0000E57
:1008D000013C90E645EA060E8DE60CEA135594EAD3
:1008E0000C0F08BF95EA0C0F3FF43BAF94EA0C0FD6
:1008F0000AD150EA01347FF434AF95EA0C0F7FF44B
:1009000025AF104619462CE795EA0C0F06D152EA9E
:1009100003353FF4FDAE1046194622E750EA410682
:1009200018BF52EA43067FF4C5AE50EA41047FF493
:100930000DAF52EA43057FF4EBAE12E74FF0FF3CF8
:1009400006E000BF4FF0010C02E000BF4FF0010CC9
:100950004DF804CD4FEA410C7FEA6C5C4FEA430C42
:1009600018BF7FEA6C5C1BD001B050EA410C0CBF91
:1009700052EA430C91EA030F02BF90EA020F0020F3
:10098000704710F1000F91EA030F58BF994208BF5A
:1009900090422CBFD8176FEAE37040F00100704717
:1009A0004FEA410C7FEA6C5C02D150EA013C07D16E
:1009B0004FEA430C7FEA6C5CD6D152EA033CD3D0B9
:1009C0005DF8040B704700BF8446104662468C46B3
:1009D0001946634600E000BF01B5FFF7B7FF0028E6
:1009E00048BF10F1000F01BD4DF808EDFFF7F4FF0F
:1009F0000CBF012000205DF808FB00BF4DF808ED9A
:100A0000FFF7EAFF34BF012000205DF808FB00BFBC
:100A10004DF808EDFFF7E0FF94BF012000205DF8DE
:100A200008FB00BF4DF808EDFFF7CEFF94BF012093
:100A300000205DF808FB00BF4DF808EDFFF7C4FF8C
:100A400034BF012000205DF808FB00BF4FEA4102DF
:100A500012F5001215D211D56FF47873B3EB625210
:100A600012D94FEAC12343F0004343EA505311F037
:100A7000004F23FA02F018BF404270474FF00000C9
:100A8000704750EA013005D111F0004008BF6FF007
:100A9000004070474FF00000704700BF00000000AA
:100AA00001F0FF01102A2BDB10F0070F08D010F81F
:100AB000013B013A8B422DD010F0070F42B3F6D123
:100AC000F0B441EA012141EA014122F007047FF03C
:100AD00000070023F0E80256083C85EA010586EA93
:100AE000010685FA47F5A3FA87F586FA47F6A5FACF
:100AF00087F68EB9EED1F0BC01F0FF0102F00702DB
:100B000032B110F8013B013A83EA010313B1F8D185
:100B10000020704701387047002D06BF3546033866
:100B2000073815F0010F07D1013015F4807F02BF9F
:100B3000013015F4C03F0130F0BC0138704700BFF0
:100B400010B5054C237833B9044B13B10448AFF307
:100B500000800123237010BD500000200000000021
:100B6000F83C000808B5034B1BB103490348AFF339
:100B7000008008BD0000000054000020F83C000880
:100B800070B50D4D0D4C641BA4100026A64209D172
:100B90000B4D0C4C03F0B0F8641BA4100026A642C9
:100BA00005D170BD55F8043B98470136EEE755F87E
:100BB000043B98470136F2E7643F0008643F0008B1
:100BC000643F0008683F00087047704738B5054625
:100BD000002941D051F8043C0C1F002BB8BFE41889
:100BE00000F0D8F81D4A136833B9636014602846D2
:100BF000BDE8384000F0D4B8A34208D920682118D5
:100C00008B4201BF19685B6809182160EDE71A463D
:100C10005B680BB1A342FAD911685018A0420BD1FE
:100C200020680144501883421160E0D118685B6865
:100C3000536008441060DAE702D90C232B60D6E732
:100C4000206821188B4204BF19685B68636004BF89
:100C5000091821605460CAE738BD00BFB001002008
:100C600070B50F4E0C463168054611B900F09EF87C
:100C700030602146284600F099F8431C03D14FF01C
:100C8000FF34204670BDC41C24F00304A042F8D0F9
:100C9000211A284600F08AF80130F2D1EFE700BFB0
:100CA000AC0100202DE9F041CD1C25F003050835ED
:100CB0000C2D38BF0C25002D064601DBA94204D9B6
:100CC0000C2333600020BDE8F081314F00F062F862
:100CD0003B681C4644BB29463046FFF7C1FF431C16
:100CE000044650D13C682146002941D1002C44D013
:100CF0002368304604EB030800F058F880453CD1E7
:100D000021686D1A29463046FFF7AAFF013034D01A
:100D100023682B4423603B68002B36D05A68A242DC
:100D200029D100225A600EE02268521B1DD40B2AE2
:100D300016D96119A342256018BF5960636808BFBE
:100D4000396062514B60304600F02AF804F10B0024
:100D5000231D20F00700C21AB5D01B1AA350B2E71A
:100D6000A3426268DED13A60EDE723466468B1E7EA
:100D70000C464968B8E71346CEE70C23336030468B
:100D800000F00EF89EE70560DDE75B60FFDE00BF68
:100D9000B00100200148FFF717BF00BFA8010020E5
:100DA0000148FFF712BF00BFA801002038B5064D6B
:100DB0000023044608462B6000F008F8431C02D1CB
:100DC0002B6803B1236038BDA4010020044A054903
:100DD0001368002B08BF0B46184410601846704774
:100DE000B40100206806002080B483B000AF7860B2
:100DF000064A7B6843F0BF6343F40033D36000BF0F
:100E00000C37BD465DF8047B704700BF00ED00E085
:100E100080B485B000AF78600023FB730023BB7300
:100E20000F237B737B68DB78002B39D0274BDB6883
:100E3000DB431B0ADBB203F00703FB73FB7BC3F14D
:100E40000403BB737A7BFB7B42FA03F37B737B68FF
:100E50005B781A46BB7B02FA03F3FB737B689A78D4
:100E60007B7B1340DAB2FB7B1343FB73FB7B1B01E1
:100E7000FB73174A7B681B781344FA7B83F80023C3
:100E80007B681B7803F01F0311497A6812785209B6
:100E9000D2B21046012202FA03F341F820300FE0EB
:100EA0007B681B7803F01F0309497A68127852099E
:100EB000D2B2104601229A4000F1200341F82320CB
:100EC00000BF1437BD465DF8047B704700ED00E0BD
:100ED00000E100E080B487B000AF786039600023A3
:100EE0007B6100233B610023FB6000237B6176E094
:100EF00001227B6902FA03F33B613B681B683A6994
:100F00001340FB60FA683B699A4265D17B681A68B6
:100F10007B695B00032101FA03F3DB431A407B6822
:100F20001A607B681A683B681B7919467B695B000D
:100F300001FA03F31A437B681A603B681B79012BA3
:100F400003D03B681B79022B2ED17B689A687B69A2
:100F50005B00032101FA03F3DB431A407B689A60CC
:100F60007B689A683B685B7919467B695B0001FA8C
:100F700003F31A437B689A607B685A687B699BB26B
:100F8000194601238B40DB431A407B685A607B681B
:100F90005B683A68927911467A6992B201FA02F274
:100FA00092B21A437B685A607B68DA687B699BB2AD
:100FB0005B00032101FA03F3DB431A407B68DA602C
:100FC0007B68DA683B68DB7919467B695B0001FA6C
:100FD00003F31A437B68DA607B6901337B617B69C9
:100FE0000F2B85D900BF00BF1C37BD465DF8047BC1
:100FF0007047000080B483B000AF78600B46FB7090
:10100000FB78002B06D00A4B1A6B09497B68134307
:101010000B6306E0064B1A6B7B68DB430449134005
:101020000B6300BF0C37BD465DF8047B704700BF03
:101030000038024080B483B000AF78600B46FB708C
:10104000FB78002B06D00A4B1A6C09497B681343C6
:101050000B6406E0064B1A6C7B68DB4304491340C3
:101060000B6400BF0C37BD465DF8047B704700BFC2
:101070000038024080B485B000AF7860396000234A
:10108000FB817B681B88FB817B68294A934213D0D4
:101090007B68284A93420FD07B68B3F1804F0BD016
:1010A0007B68254A934207D07B68244A934203D049
:1010B0007B68234A934208D1FB8923F07003FB81AC
:1010C0003B685A88FB891343FB817B681D4A934226
:1010D0000CD07B681C4A934208D0FB8923F44073F0
:1010E000FB813B681A89FB891343FB817B68FA8982
:1010F0001A803B685A687B68DA623B681A887B68AA
:101100001A857B680A4A934203D07B68094A934256
:1011100004D13B689B7A1A467B681A867B68012259
:101120009A8200BF1437BD465DF8047B704700BF4C
:10113000000001400004014000040040000800409D
:10114000000C0040001000400014004080B483B048
:1011500000AF78600B46FB70FB78002B08D07B68F3
:101160001B889BB243F001039AB27B681A8007E0A8
:101170007B681B889BB223F001039AB27B681A80BC
:1011800000BF0C37BD465DF8047B704780B485B066
:1011900000AF7860396000237B810023FB8100234E
:1011A000BB817B681B8C9BB223F001039AB27B68E6
:1011B0001A847B681B8CFB817B689B88BB817B6866
:1011C0001B8B7B817B8923F070037B817B8923F0E0
:1011D00003037B813B681A887B8913437B81FB89EE
:1011E00023F00203FB813B689A89FB891343FB814F
:1011F0003B685A88FB891343FB817B681E4A9342F4
:1012000003D07B681D4A934223D1FB8923F0080356
:10121000FB813B68DA89FB891343FB81FB8923F05F
:101220000403FB813B689A88FB891343FB81BB89DC
:1012300023F48073BB81BB8923F40073BB813B68BB
:101240001A8ABB891343BB813B685A8ABB89134303
:10125000BB817B68BA899A807B687A891A833B68EC
:101260009A687B685A637B68FA891A8400BF1437CE
:10127000BD465DF8047B704700000140000401405A
:1012800080B485B000AF78600B467B800023FB8183
:101290007B681B8BFB81FB8923F00803FB81FA89A8
:1012A0007B881343FB817B68FA891A8300BF14375C
:1012B000BD465DF8047B704780B483B000AF7860B2
:1012C0007B685B6B18460C37BD465DF8047B704746
:1012D00080B483B000AF78600B467B8013467B7090
:1012E0007B78002B08D07B689B899AB27B8813435C
:1012F0009AB27B689A8109E07B689B899AB27B8865
:10130000DB439BB213409AB27B689A8100BF0C37D3
:10131000BD465DF8047B704780B485B000AF78604F
:101320000B467B800023FB730023BB8100237B8162
:101330007B681B8A9AB27B881340BB817B689B8940
:101340009AB27B8813407B81BB89002B05D07B89B7
:10135000002B02D00123FB7301E00023FB73FB7B16
:1013600018461437BD465DF8047B704780B483B0DF
:1013700000AF78600B467B807B88DB439AB27B684A
:101380001A8200BF0C37BD465DF8047B704780B4FD
:1013900085B000AF78600B467B800023FB737B68D1
:1013A0001B889AB27B8813409BB2002B02D001238A
:1013B000FB7301E00023FB73FB7B18461437BD462B
:1013C0005DF8047B7047000080B400AF384B1B6BA6
:1013D000374A43F002031363354B5B6C344A43F0E6
:1013E00010035364334B1B68324A23F44053136099
:1013F000304B1B682F4A23F4404313602D4B1B686E
:101400002C4A43F4005313602A4B1B68294A43F4C7
:1014100000431360274B5B68264A43F04003536048
:10142000244B5B68234A43F080035360214B9B6845
:10143000204A23F4405393601E4B9B681D4A23F4BB
:10144000404393601B4B9B681A4A43F400539360DC
:10145000184B9B68174A43F400439360154BDB68B5
:10146000144A23F44053D360124BDB68114A23F42F
:101470004043D3600F4B1B6A0E4A23F06063136234
:101480000C4B1B6A0B4A23F060431362094B1B6A27
:10149000084A43F0E0631362064B1B6A054A43F0B7
:1014A000E043136200BFBD465DF8047B704700BF98
:1014B000003802400004024080B400AF1C4B9B89FE
:1014C0009BB21B4A43F400539BB29381184B42F2E8
:1014D0002E221A81164B9B899BB2154A23F4805306
:1014E0009BB29381124B9B899BB2114A23F4806378
:1014F0009BB293810E4B9B899BB20D4A43F0200314
:101500009BB293810A4B9B899BB2094A43F0080323
:101510009BB29381064B9B899BB2054A43F004031F
:101520009BB2938100BFBD465DF8047B704700BF4E
:101530000010014080B582B000AF0346FB71084B3C
:10154000FA7992B29A8000BF80210548FFF71FFF09
:101550000346002BF8D000BF00BF0837BD4680BD52
:101560000010014080B584B000AF78600023FB73A9
:1015700009E0FB7B7A6813441B781846FFF7DAFF13
:10158000FB7B0133FB73FB7B7A6813441B78002BD6
:10159000EFD100BF00BF1037BD4680BD80B582B01F
:1015A00000AF0346FB80B7F90630002B06DA2D208A
:1015B000FFF7C0FFFB885B429BB2FB80B7F90630A8
:1015C0001A460549054802F025F80448FFF7CAFF06
:1015D00000BF0837BD4680BD103D0008B80100209F
:1015E00080B500AFFFF7F0FEFFF766FF00BF80BDDC
:1015F00080B500AF01226B21D02000F06FFE0922E0
:101600001921D02000F06AFE06221A21D02000F015
:1016100065FE18221B21D02000F060FE18221C213C
:10162000D02000F05BFE00BF80BD00000000000085
:10163000B0B58AB000AF78604FF083437B62804BD7
:101640003B6207F10C020E233B21D02000F0DCFDB1
:101650003B7B1B029BB27A7B13449BB21BB21846A6
:10166000FEF7F0FE04460D46786AFEF7FDFE0246E0
:101670000B4620462946FEF74FFF02460B46104612
:1016800019464FF000026F4BFFF770F802460B4609
:101690007968C1E90023BB7B1B029BB2FA7B134430
:1016A0009BB21BB21846FEF7CDFE04460D46786A83
:1016B000FEF7DAFE02460B4620462946FEF72CFFCF
:1016C00002460B46104619464FF000025D4BFFF7ED
:1016D0004DF802460B467968C1E902233B7C1B02A8
:1016E0009BB27A7C13449BB21BB21846FEF7AAFE4B
:1016F00004460D46786AFEF7B7FE02460B462046C2
:101700002946FEF709FF02460B46104619464FF0E0
:1017100000024C4BFFF72AF802460B467968C1E9F4
:101720000423BB7C1B029BB2FA7C13449BB21BB20A
:101730001846FEF787FE4FF00002434BFFF716F8FE
:1017400002460B46104619463BA3D3E90023FEF799
:101750002DFD02460B467968C1E90C233B7D1B0237
:101760009BB27A7D13449BB21BB21846FEF76AFE09
:1017700004460D46386AFEF777FE02460B462046C1
:101780002946FEF7C9FE02460B46104619464FF0A1
:1017900000022C4BFEF7EAFF02460B467968C1E9CE
:1017A0000623BB7D1B029BB2FA7D13449BB21BB286
:1017B0001846FEF747FE04460D46386AFEF754FE0B
:1017C00002460B4620462946FEF7A6FE02460B4679
:1017D000104619464FF000021A4BFEF7C7FF0246AB
:1017E0000B467968C1E908233B7E1B029BB27A7ED7
:1017F00013449BB21BB21846FEF724FE04460D4666
:10180000386AFEF731FE02460B4620462946FEF7AF
:1018100083FE02460B46104619464FF00002094B64
:10182000FEF7A4FF02460B467968C1E90A2300BF10
:101830002837BD46B0BD00BFA4703D0AD743424023
:101840000000FA440000E04000407540B0B586B0AA
:1018500000AF78604FF083437B6107F10C020623F1
:101860003B21D02000F0D0FC3B7B1B029BB27A7B5B
:1018700013449BB21BB21846FEF7E4FD04460D4626
:101880007869FEF7F1FD02460B4620462946FEF731
:1018900043FE02460B46104619464FF00002294B04
:1018A000FEF764FF02460B467968C1E90023BB7B63
:1018B0001B029BB2FA7B13449BB21BB21846FEF785
:1018C000C1FD04460D467869FEF7CEFD02460B4683
:1018D00020462946FEF720FE02460B4610461946D2
:1018E0004FF00002174BFEF741FF02460B467968A6
:1018F000C1E902233B7C1B029BB27A7C13449BB25E
:101900001BB21846FEF79EFD04460D467869FEF7A9
:10191000ABFD02460B4620462946FEF7FDFD02467A
:101920000B46104619464FF00002064BFEF71EFF0D
:1019300002460B467968C1E9042300BF1837BD464B
:10194000B0BD00BF0000E040B0B5B8B000AF7860F7
:101950003960AC48FFF706FEAB48FFF703FE40F6E0
:10196000B83000F0E1F9002387F8DF3034E097F871
:10197000DF2013465B001344DB00E0333B44A3F15C
:1019800098014FF000024FF00003C1E9002397F8DF
:10199000DF2013465B001344DB00E0333B44A3F13C
:1019A00090014FF000024FF00003C1E9002397F8C7
:1019B000DF2013465B001344DB00E0333B44A3F11C
:1019C00088014FF000024FF00003C1E9002397F8AF
:1019D000DF30013387F8DF3097F8DF30052BC6D9C9
:1019E0008A4B07F10C041D460FCD0FC40FCD0FC459
:1019F0000FCD0FC495E8070084E80700002387F89F
:101A0000DE30EDE097F8DE2007F10C0113469B0075
:101A100013445B000B441846FFF7A4FD4FF4FA6033
:101A200000F082F97A48FFF79DFD002387F8DD304A
:101A30006DE097F8DE2007F1480113465B00134480
:101A4000DB000B441846FFF701FF97F8DE20134632
:101A50005B001344DB00E0333B44983BD3E90001D7
:101A600097F8DE4002460B46FEF7A0FB02460B4607
:101A70001046194623465B002344DB00E0333B4419
:101A8000983BC3E9000197F8DE2013465B0013443E
:101A9000DB00E0333B44903BD3E9000197F8DE40A4
:101AA00002460B46FEF782FB02460B4610461946DD
:101AB00023465B002344DB00E0333B44903BC3E917
:101AC000000197F8DE2013465B001344DB00E0338F
:101AD0003B44883BD3E9000197F8DE4002460B46C1
:101AE000FEF764FB02460B461046194623465B0090
:101AF0002344DB00E0333B44883BC3E900010A2078
:101B000000F012F997F8DD30013387F8DD3097F8EF
:101B1000DD30632B8DD997F8DE2013465B0013442C
:101B2000DB00E0333B44983BD3E9000197F8DE400B
:101B30004FF00002374BFEF719FE02460B461046E7
:101B4000194623465B002344DB00E0333B44983BCB
:101B5000C3E9000197F8DE2013465B001344DB0065
:101B6000E0333B44903BD3E9000197F8DE404FF06F
:101B70000002284BFEF7FAFD02460B4610461946B6
:101B800023465B002344DB00E0333B44903BC3E946
:101B9000000197F8DE2013465B001344DB00E033BE
:101BA0003B44883BD3E9000197F8DE404FF0000248
:101BB000184BFEF7DBFD02460B461046194623463E
:101BC0005B002344DB00E0333B44883BC3E9000176
:101BD0001148FFF7C7FC97F8DE30013387F8DE3095
:101BE00097F8DE30052B7FF60DAF07F148033A6812
:101BF0007968184600F044FD00BF1846E037BD463E
:101C0000B0BD00BF143D00082C3D0008703D000829
:101C1000583D000800005940683D000880B58AB072
:101C200000AF01210420FFF7E5F901210220FFF7B1
:101C300001FA40233B62022387F82530022387F80C
:101C4000243007F1200319461B48FFF743F91A4BCC
:101C50001B6A194A43F00073136244F61F63BB61A9
:101C60005323BB820023BB830023FB8207F11403B1
:101C700019461248FFF7FEF960233B8001237B8061
:101C80000023BB813B4619460C48FFF77FFA082129
:101C90000A48FFF7F5FA01210848FFF757FA074B02
:101CA0001B889BB2054A43F080039BB2138000BFA0
:101CB0002837BD4680BD00BF000802400004004038
:101CC00080B483B000AF7860044A7B68536300BF80
:101CD0000C37BD465DF8047B704700BF0004004030
:101CE00080B483B000AF78600E497A681346DB0099
:101CF0001344DB004B600B4B00229A60094B05221A
:101D00001A6000BF074B1B6803F48033002BF9D027
:101D1000044B04221A6000BF0C37BD465DF8047BFB
:101D2000704700BF10E000E080B582B000AF78607F
:101D300003E04FF47A70FFF7D3FF7B685A1E7A6096
:101D4000002BF6D100BF00BF0837BD4680BD0000A4
:101D500080B400AF2A4B1B68294A23F44033136038
:101D6000274B1B68264A23F440231360244B1B682F
:101D7000234A43F400331360214B1B68204A43F489
:101D8000002313601E4B5B681D4A43F4807353604D
:101D90001B4B5B681A4A43F400735360184B4FF4B3
:101DA00040329A60164B4FF440229A60144BDB6825
:101DB000134A23F44033D360114BDB68104A23F4F9
:101DC0004023D3600E4BDB680D4A43F48033D3606D
:101DD0000B4BDB680A4A43F48023D360084B5B6AF1
:101DE000074A43F004035362054B5B6A044A43F01D
:101DF0004003536200BFBD465DF8047B704700BFDF
:101E00000004024080B400AF314B9B889BB2304A43
:101E100023F03F039BB293802D4B9B889BB22C4AAF
:101E200043F004039BB29380294B1B8C9BB2284A3E
:101E300023F03F039BB21384254B1B8C9BB2244A97
:101E400043F4805343F001039BB21384204B1B885F
:101E50009BB21F4A43F001039BB213801C4B1B88AB
:101E60009BB21B4A23F020039BB21380184B1B89A3
:101E70009BB2174A23F07F039BB21381144B1B893B
:101E80009BB2134A43F001039BB21381104B9B8B0F
:101E90009BB20F4AC3F30E039BB293830C4B9B8BF5
:101EA0009BB20B4A23F47F6323F00F039BB293830F
:101EB000074B9B8B9BB2064A43F42B5343F03803EA
:101EC0009BB2938300BFBD465DF8047B704700BFA3
:101ED0000054004080B483B000AF0346FB71FB792F
:101EE000012B08D10B4B1B889BB20A4A43F4807329
:101EF0009BB2138007E0074B1B889BB2054A23F473
:101F000080739BB2138000BF0C37BD465DF8047B25
:101F1000704700BF0054004080B483B000AF034658
:101F2000FB71FB79012B08D10B4B1B889BB20A4A32
:101F300043F400739BB2138007E0074B1B889BB2EE
:101F4000054A23F400739BB2138000BF0C37BD46D3
:101F50005DF8047B704700BF0054004080B483B03C
:101F600000AF0346FB71FB79012B08D10B4B1B889B
:101F70009BB20A4A43F480639BB2138007E0074B8D
:101F80001B889BB2054A23F480639BB2138000BF79
:101F90000C37BD465DF8047B704700BF005400401D
:101FA00080B483B000AF0346FB71054BFA7992B25F
:101FB0001A8200BF0C37BD465DF8047B704700BF36
:101FC0000054004080B400AF044B1B8A9BB2DBB2CC
:101FD0001846BD465DF8047B704700BF00540040C2
:101FE00080B483B000AF03460A46FB711346BB7151
:101FF000BB79012B04D1FB7943F00103FB7103E0B2
:10200000FB7923F00103FB71044BFA7992B21A8237
:1020100000BF0C37BD465DF8047B7047005400409C
:1020200080B483B000AF094B1B8BFB80FB885B083F
:102030009BB203F00103002B01D0002300E0012339
:1020400018460C37BD465DF8047B704700540040CD
:1020500080B400AF0F4B9B8A9BB203F00103012BAE
:1020600011D10C4B1B8B9BB203F00103012B0AD146
:10207000084B1B8B9BB25B089BB203F00103012B47
:1020800001D1012300E000231846BD465DF8047B22
:10209000704700BF0054004080B483B000AF1F4BB6
:1020A0009B8AFB801D4B1B8BBB80FB885B089BB214
:1020B00003F00103002B2AD0FB88DB099BB203F05D
:1020C0000103002B23D0BB8803F00103002B1ED09B
:1020D000BB885B089BB203F00103002B17D0BB88C1
:1020E0009B089BB203F00103002B10D0FB885B0A16
:1020F0009BB203F00103002B07D0084B9B8A9BB2D5
:10210000064A43F480639BB29382012300E00023DC
:1021100018460C37BD465DF8047B704700540040FC
:1021200080B400AF194B9B8A9BB29B089BB203F013
:102130000103012B23D1154B9B8A9BB2DB099BB278
:1021400003F00103012B1AD1104B1B8B9BB203F040
:102150000103012B13D10D4B1B8B9BB25B089BB270
:1021600003F00103012B0AD1084B1B8B9BB29B0888
:102170009BB203F00103012B01D1012300E00023F6
:102180001846BD465DF8047B704700BF0054004010
:1021900080B400AF104B9B8A9BB25B089BB203F0EC
:1021A0000103012B11D10C4B1B8B9BB203F00103DC
:1021B000012B0AD1084B1B8B9BB25B089BB203F02F
:1021C0000103012B01D1012300E000231846BD4685
:1021D0005DF8047B704700BF0054004080B400AF3E
:1021E000084B9B8A9BB29B099BB203F00103012B16
:1021F00001D1012300E000231846BD465DF8047BB1
:10220000704700BF0054004090B585B000AF3A6001
:102210001A460346FB710B46BB7113467B7100BF28
:10222000FFF7FEFE0346002BFAD00120FFF752FE17
:1022300000BFFFF70DFF0346002BFAD0FB7900210A
:102240001846FFF7CDFE00BFFFF726FF0346002B21
:10225000FAD0BB791846FFF7A3FE00BFFFF760FF77
:102260000346002BFAD00120FFF734FE00BFFFF732
:10227000EFFE0346002BFAD0FB7901211846FFF749
:10228000AFFE00BFFFF784FF0346002BFAD000200B
:10229000FFF742FE0120FFF761FE0023FB730FE012
:1022A00000BFFFF79BFF0346002BFAD0FB7B3A6889
:1022B000D418FFF787FE03462370FB7B0133FB73C3
:1022C000FA7B7B799A42EBD30020FFF747FE01208F
:1022D000FFF722FE00BF1437BD4690BD80B582B027
:1022E00000AF0346FB710B46BB7113467B7100BF09
:1022F000FFF796FE0346002BFAD00120FFF7EAFD18
:1023000000BFFFF7A5FE0346002BFAD0FB790021A2
:102310001846FFF765FE00BFFFF7BEFE0346002B21
:10232000FAD0BB791846FFF73BFE00BFFFF7F8FE77
:102330000346002BFAD07B791846FFF731FE00BF29
:10234000FFF7EEFE0346002BFAD00120FFF7E4FD75
:1023500000BF0837BD4680BD80B500AF084B1B6B82
:10236000074A43F002031363054B1B6C044A43F412
:1023700000131364FFF7ECFCFFF744FD00BF80BDC2
:102380000038024080B582B000AF864B5B6C854A56
:1023900043F001035364844B0022DA62824B1B88B2
:1023A0009BB2814A23F010039BB213807E4B1B8D9E
:1023B0009BB27D4A43F053039BB213857A4BDB6A91
:1023C000794A43F49C4343F01F03D362764B9B8AC4
:1023D0009BB2754A43F002039BB29382724B1B88F7
:1023E0009BB2714A43F080039BB213806D4B1B6B11
:1023F0006C4A43F0010313636C4B5B6A6B4A43F016
:1024000001035362694B1B68684A23F4403313602D
:10241000664B1B68654A43F400331360634B5B688B
:10242000624A23F480735360604B9B685F4A43F4B5
:10243000003393605D4BDB685C4A23F44033D36028
:10244000594B1B8B9BB2584A43F001039BB2138339
:10245000554B1B8B9BB2544A23F00C039BB2138346
:10246000514B1B8B9BB2504A23F0F0039BB213835A
:102470004D4B1B8C9BB24C4A43F001039BB213841F
:10248000494B1B8C9BB2484A23F002039BB2138436
:10249000454B1B8C9BB2444A23F008039BB2138428
:1024A000414B1B8B9BB2404A43F400739BB2138396
:1024B0003D4B1B8B9BB23C4A23F440639BB213837E
:1024C000394B1B8B9BB2384AC3F30B039BB213836C
:1024D000354B1B8C9BB2344A43F010039BB21384E0
:1024E000314B1B8C9BB2304A43F020039BB21384C8
:1024F0002D4B1B8C9BB22C4A43F080039BB2138460
:10250000294B1B899BB2284A23F00A039BB21381F3
:10251000254B1B899BB2244A43F004039BB21381D1
:10252000214B1B899BB2204A23F070039BB213817D
:102530001D4B1B899BB21C4A43F050039BB2138175
:10254000194B1B899BB2184A43F080039BB213813D
:10255000012202211448FEF7BBFE4FF4A060FEF7F3
:1025600043FC1B233B710123FB7102237B7101237D
:10257000BB713B1D1846FEF74BFC0B4B9B899BB276
:10258000094A43F002039BB29381074B1B889BB21D
:10259000054A43F001039BB2138000BF0837BD46D4
:1025A00080BD00BF00380240000001400000024032
:1025B00080B400AF0A4BDB684FF47A7202FB03F37E
:1025C000A3F57423A3F5C563064AA2FB03239B0965
:1025D00003F57A731846BD465DF8047B704700BF6B
:1025E000DC050020D34D621080B582B000AF02211F
:1025F0001D48FEF791FE0346012B2BD11A48FEF72A
:102600005BFE034601337B607B68B3F5805F02D9D4
:10261000164B01221A60154B1B68012B16D112486C
:10262000FEF74AFE0146124B1B685A1C1048026016
:102630004A1C104941F823200D4B1B68082B05D973
:102640000B4B00221A60094B00221A600221064837
:10265000FEF78CFEFFF7ACFF0346074A136000BF8E
:102660000837BD4680BD00BF0000014008060020BD
:1026700004060020DC050020D80500200000000032
:102680002DE9F043ADF56B7D00AF07F56A73A3F557
:102690006773186007F56A73A3F56873196007F527
:1026A0006A73A3F569731A60002387F8A733B0A390
:1026B000D3E90023C7E9E0234FF00002AA4BC7E9A2
:1026C000E6234FF000024FF00003C7E9D423D7E917
:1026D000D423C7E9D223D7E9D223C7E9D0234FF0C7
:1026E0000002A24BC7E9DA23D7E9DA23C7E9D823E6
:1026F000D7E9D823C7E9D62300F022BD97F8A7333E
:10270000013387F8A7334FF000024FF00003C7E909
:10271000E623002387F8973318E197F8973307F5F6
:102720006A72A2F56672DB00D1184FF000024FF01A
:102730000003C1E90023002387F8963319E097F8D6
:10274000972397F8960307F56A73A3F55A71134612
:102750005B0013445B000344DB0019444FF00002AC
:102760004FF00003C1E9002397F89633013387F84F
:10277000963397F89633052BE1D997F897231346AC
:102780005B001344DB001A4607F56A73A3F5677311
:102790001B681344D3E90001D7E9D02397F8974386
:1027A000FDF702FD02460B461046194607F56A730F
:1027B000A3F5947223465B002344DB001344C3E972
:1027C000000197F8972313465B001344DB001A4679
:1027D00007F56A73A3F567731B681344D3E9020115
:1027E000D7E9D22397F89743FDF7DEFC02460B4664
:1027F0001046194607F56A73A3F5947223465B00E9
:102800002344DB0013440833C3E9000197F89723FE
:1028100013465B001344DB001A4607F56A73A3F501
:1028200067731B681344D3E90401D7E9D42397F8ED
:102830009743FDF7B9FC02460B461046194607F5CB
:102840006A73A3F5947223465B002344DB001344B0
:102850001033C3E9000197F89733DB0003F56A737F
:102860003B44A3F198014FF00002404BC1E9002323
:10287000002387F8953360E097F89733DB0003F582
:102880006A733B44983BD3E9004597F8972397F840
:10289000950307F56A73A3F5947113465B0013441F
:1028A0000344DB000B44D3E9000197F8972397F822
:1028B00095C307F56A73A3F5947613465B0013443A
:1028C0006344DB003344D3E90023FDF725FE0246D1
:1028D0000B461046194697F895330333DB0003F592
:1028E0006A733B44683BD3E90023FDF715FE0246BB
:1028F0000B461046194697F895330333DB0003F572
:102900006A733B44683BD3E90023FDF705FE0246AA
:102910000B4697F8976320462946FDF745FC02468B
:102920000B46F10001F56A7139449839C1E9002379
:1029300097F89533013387F8953397F89533022B41
:102940009AD997F89733013387F8973397F89733E5
:10295000052B7FF6E2AE002387F89433BCE000231A
:1029600087F89333AEE000BF000059400000F03F0D
:1029700095D626E80B2E113E97F893330333DB00F0
:1029800003F56A733B44683BD3E9000102460B46FA
:10299000FDF70CFC02460B461046194697F8933398
:1029A0000333DB0003F56A733B44683BD3E9002340
:1029B000FDF7B2FD02460B469046994697F89423E0
:1029C00097F8930307F56A73A3F5947113465B00B8
:1029D00013440344DB000B44D3E9002397F89443EA
:1029E00097F8935340464946FDF796FD02460B463D
:1029F0001046194607F56A73A3F5127223465B0069
:102A000023445B002B44DB001344C3E9000197F827
:102A100093330333DB0003F56A733B44683BD3E92C
:102A200000014FF000024FF04043FDF775FD0246F4
:102A30000B4614461D4697F8942397F8930307F521
:102A40006A73A3F5947113465B0013440344DB00DF
:102A50000B44D3E9002320462946FDF75DFD0246DD
:102A60000B469046994697F8942397F8930307F5F9
:102A70006A73A3F5947113465B0013440344DB00AF
:102A80000B44D3E9002397F8944397F89313CD1C94
:102A900040464946FDF740FD02460B4610461946A2
:102AA00007F56A73A3F5127223465B0023445B00AB
:102AB0002B44DB001344C3E9000197F8933301333F
:102AC00087F8933397F89333022B7FF655AF97F837
:102AD0009433013387F8943397F89433052B7FF6BA
:102AE0003EAF002387F89233CAE097F8923307F598
:102AF0006A72A2F56672DB00D1184FF000024FF047
:102B00000003C1E90023002387F89133AEE097F872
:102B1000922397F8910307F56A73A3F55A71134648
:102B20005B0013445B000344DB0019444FF00002D8
:102B30004FF00003C1E90023002387F8903354E0ED
:102B400097F8922397F8910307F56A73A3F55A71E2
:102B500013465B0013445B000344DB000B44D3E9E2
:102B6000004597F8902397F8920307F56A73A3F549
:102B7000127113465B0013445B000344DB000B44FB
:102B8000D3E9000197F8902397F891C307F56A738A
:102B9000A3F5127613465B0013445B006344DB002D
:102BA0003344D3E90023FDF7B7FC02460B4697F800
:102BB000926397F8918320462946FDF7F7FA02467B
:102BC0000B461046194607F56A73A3F55A72334649
:102BD0005B0033445B004344DB001344C3E9000162
:102BE00097F89033013387F8903397F89033052B9B
:102BF000A6D997F8923307F56A72A2F56672DB00E0
:102C00001344D3E9004597F8912397F8920307F509
:102C10006A73A3F5127113465B0013445B0003440F
:102C2000DB000B44D3E9000197F89133DB0003F597
:102C30006A733B44983BD3E90023FDF76DFC0246E1
:102C40000B4697F8926320462946FDF7AFFA0246F5
:102C50000B4607F56A71A1F56670F1000144C1E900
:102C6000002397F89133013387F8913397F8913324
:102C7000052B7FF64CAF97F89233013387F89233E8
:102C800097F89233052B7FF630AF002387F88F3308
:102C9000D7E097F88F33013387F88E33C7E097F882
:102CA0008E2397F88F0307F56A73A3F55A711346BD
:102CB0005B0013445B000344DB000B44D3E90001D9
:102CC00097F88F2397F88F5307F56A73A3F55A7413
:102CD00013465B0013445B002B44DB002344D3E921
:102CE0000023FDF743FD02460B46C7E9DC234FF006
:102CF00000024FF00003D7E9DC01FDF775FE034643
:102D0000002B40F08F8097F88E2397F88F0307F5FC
:102D10006A73A3F55A7113465B0013445B000344C6
:102D2000DB0019444FF000024FF00003C1E900231B
:102D300097F88F33013387F88D3345E097F88E236A
:102D400097F88D0307F56A73A3F55A7113465B0074
:102D500013445B000344DB000B44D3E9004597F8C0
:102D60008F2397F88D0307F56A73A3F55A711346FD
:102D70005B0013445B000344DB000B44D3E9000118
:102D8000D7E9DC23FDF7C8FB02460B4697F88E63B4
:102D900097F88D8320462946FDF706FA02460B4632
:102DA0001046194607F56A73A3F55A7233465B005D
:102DB00033445B004344DB001344C3E9000197F84C
:102DC0008D33013387F88D3397F88D33052BB5D9C3
:102DD00097F88E3307F56A72A2F56672DB0013442A
:102DE000D3E9004597F88F3307F56A72A2F566724A
:102DF000DB001344D3E90001D7E9DC23FDF78CFBAA
:102E000002460B4697F88E6320462946FDF7CCF91B
:102E100002460B4607F56A71A1F56670F1000144A0
:102E2000C1E9002397F88E33013387F88E3397F882
:102E30008E33052B7FF633AF97F88F33013387F846
:102E40008F3397F88F33052B7FF623AF052387F851
:102E50008C33DDE097F98C2397F98C0307F56A73BF
:102E6000A3F55A7113465B0013445B000344DB0077
:102E70000B44D3E90023C7E9DE2397F98C2397F9A4
:102E80008C0307F56A73A3F55A7113465B0013446C
:102E90005B000344DB0019444FF00002734BC1E9AF
:102EA000002397F88C33013387F88B332EE097F9A2
:102EB0008C2397F88B0307F56A73A3F55A711346B1
:102EC0005B0013445B000344DB000B44D3E90001C7
:102ED00097F98C4397F88B53D7E9DE23FDF746FC2F
:102EE00002460B461046194607F56A73A3F55A7257
:102EF00023465B0023445B002B44DB001344C3E9FF
:102F0000000197F88B33013387F88B3397F88B33B5
:102F1000052BCCD997F98C3307F56A72A2F5667246
:102F2000DB001344D3E9000197F98C43D7E9DE2392
:102F3000FDF71CFC02460B4607F56A71A1F56670A9
:102F4000E1000144C1E90023002387F88A3352E0FD
:102F500097F88A3307F56A72A2F56672DB001344AC
:102F6000D3E9004597F88A2397F98C0307F56A732C
:102F7000A3F55A7113465B0013445B000344DB0066
:102F80000B44D3E9000197F98C3307F56A72A2F577
:102F90006672DB001344D3E90023FDF7BDFA024655
:102FA0000B4697F88A6320462946FDF7FDF802464E
:102FB0000B4607F56A71A1F56670F1000144C1E99D
:102FC000002397F88A2397F98C0307F56A73A3F512
:102FD0005A7113465B0013445B000344DB00194441
:102FE0004FF000024FF00003C1E9002397F88A3345
:102FF000013387F88A3397F88A2397F98C339A42FA
:10300000A6DB97F98C33DBB2013BDBB287F88C335C
:1030100097F98C33002BBFF61DAF002387F8893357
:1030200089E097F88933022B22D897F8893307F57E
:103030006A72A2F56672DB001344D3E9000197F8C7
:10304000893307F56A72A2F56672DB001344D3E98F
:103050000023FDF761FA02460B46D7E9E601FDF7CA
:10306000A5F802460B46C7E9E6233FE00000F03F23
:1030700097F8893307F56A72A2F56672DB0013448C
:10308000D3E9000197F8893307F56A72A2F56672F1
:10309000DB001344D3E90023FDF73EFA02460B465A
:1030A00014461D4697F88933DB0003F56A733B44E9
:1030B000683BD3E9000197F88933DB0003F56A73B5
:1030C0003B44683BD3E90023FDF726FA02460B4652
:1030D00020462946FDF74AFB02460B46D7E9E601A2
:1030E000FDF764F802460B46C7E9E62397F88933F3
:1030F000DB0003F56A733B44683BD3E9000197F8B2
:10310000893307F56A72A2F56672DB001344D3E9CE
:10311000002397F88943FDF747F802460B46E10084
:1031200001F56A7139446839C1E9002397F8893398
:10313000013387F8893397F88933052B7FF671AF10
:1031400097F8A733632B09D8D7E9E023D7E9E6013D
:10315000FDF772FC0346002B7FF4D0AAD7E9D023F9
:1031600007F56A71A1F568710968C1E90023D7E91B
:10317000D22307F56A71A1F568710968C1E90223D4
:10318000D7E9D42307F56A71A1F568710968C1E927
:103190000423D7E9D62307F56A71A1F56971096897
:1031A000C1E90023D7E9D82307F56A71A1F5697150
:1031B0000968C1E90223D7E9DA2307F56A71A1F5A5
:1031C00069710968C1E9042300BF07F56B77BD4643
:1031D000BDE8F08390B5D7B000AF4FF47A70FEF73A
:1031E000A3FDFFF7B9F8924B1B8801339AB2904BBD
:1031F0001A80FEF7FDF98E4B1B8801339AB28C4B77
:103200001A808B4B1B8801339AB2894B1A80FEF7C8
:10321000E7F9FFF7B7F8FEF701FD4FF47A60FEF724
:1032200083FD8448FEF79EF9834A07F1C0031146E7
:103230009022184600F00EFA07F5AC73A3F59473CC
:103240007E4A1846114690231A4600F003FA3A4681
:1032500007F1180107F1C0031846FFF711FA002320
:1032600087F8573194E097F8572113465B001344D1
:10327000DB0003F5AC733B44983BD3E9000107F551
:10328000AC73A3F5A073D3E90023FCF78DFF0246CE
:103290000B461046194607F5AC73A3F5AC73D3E99A
:1032A000002397F85741FDF737F902460B461046C1
:1032B000194623465B002344DB0003F5AC733B4413
:1032C000983BC3E9000197F8572113465B0013446C
:1032D000DB0003F5AC733B44903BD3E9000107F5F9
:1032E000AC73A3F5A073D3E90223FCF75DFF02469C
:1032F0000B461046194607F5AC73A3F5AC73D3E93A
:10330000022397F85741FDF707F902460B4610468E
:10331000194623465B002344DB0003F5AC733B44B2
:10332000903BC3E9000197F8572113465B00134413
:10333000DB0003F5AC733B44883BD3E9000107F5A0
:10334000AC73A3F5A073D3E90423FCF72DFF024669
:103350000B461046194607F5AC73A3F5AC73D3E9D9
:10336000042397F85741FDF7D7F802460B4610465D
:10337000194623465B002344DB0003F5AC733B4452
:10338000883BC3E9000197F85731013387F857317B
:1033900097F85731052B7FF666AF29492948FEF784
:1033A000D3FA3220FEF7C0FC274B1B681846FEF705
:1033B00087FC2648FEF73CF92548FEF7D3F8254858
:1033C000FEF7D0F8214BD3E9002310461946FDF74C
:1033D0003DFB03461BB21846FEF7E0F80A20FEF755
:1033E000A9F81D48FEF7BEF8184BD3E90223104692
:1033F0001946FDF72BFB03461BB21846FEF7CEF825
:103400000A20FEF797F81548FEF7ACF80F4BD3E902
:10341000042310461946FDF719FB03461BB2184654
:10342000FEF7BCF80A20FEF785F800BFB9E700BF39
:1034300060060020B03D0008083E0008983E0008E5
:10344000C0050020A8050020D80500201006002097
:10345000CC3D0008D83D0008E83D0008F83D0008D4
:10346000DFF834D00D480E490E4A002302E0D4584C
:10347000C4500433C4188C42F9D30B4A0B4C0023BC
:1034800001E013600432A242FBD300F013F8FDF711
:1034900077FBFFF79FFE70470080012000000020AF
:1034A000500000206C3F00085000002064060020FF
:1034B000FEE7000080B500AF164BD3F88830154A00
:1034C00043F47003C2F88830134B1B68124A43F070
:1034D00001031360104B00229A600F4B1B680E4AC9
:1034E00023F0847323F4803313600B4B0B4A5A6030
:1034F000094B1B68084A23F480231360064B002203
:10350000DA6000F00DF8034B4FF000629A6000BFE4
:1035100080BD00BF00ED00E0003802401030002404
:1035200080B483B000AF00237B6000233B60354B49
:103530001B68344A43F480331360324B1B6803F436
:1035400000333B607B6801337B603B68002B03D119
:103550007B68B3F5A04FF0D12A4B1B6803F400330E
:10356000002B02D001233B6001E000233B603B685D
:10357000012B40D1234B1B6C224A43F08053136430
:10358000214B1B68204A43F4404313601D4B1D4AE6
:103590009B6893601B4B1B4A9B689360194B9B680D
:1035A000184A43F480539360164B184A5A60154BDF
:1035B0001B68144A43F08073136000BF114B1B68F3
:1035C00003F00073002BF9D0114B40F205721A6022
:1035D0000C4B9B680B4A23F003039360094B9B68D9
:1035E000084A43F00203936000BF064B9B6803F058
:1035F0000C03082BF9D100BF0C37BD465DF8047BE6
:10360000704700BF00380240007000400854410776
:10361000003C02400EB400B59CB01DAB0290069079
:103620006FF00041094807910491094953F8042BB0
:1036300005910068019302A900F076F8029B002230
:103640001A701CB05DF804EB03B070470000002056
:103650000802FFFF0A44914200F1FF3300D1704796
:1036600010B511F8014B03F8014F9142F9D110BD8B
:103670002DE9F0478E681F46BE420B6882460C4615
:1036800090462DD8B1F90C2012F4906F26D06569C0
:10369000096905EB4505A3EB010905EBD5757B1C15
:1036A0004B446D109D4238BF1D46530527D5294612
:1036B000FDF7F8FA064660B321694A46FFF7CAFFEC
:1036C000A38923F4906343F08003A381266165619D
:1036D0004E44A5EB09052660A5603E46BE4200D9D2
:1036E0003E4620683246414600F0B6FAA3689B1B6E
:1036F000A3602368334423600020BDE8F0872A4696
:1037000000F0C4FA06460028E0D121695046FDF7D2
:103710005DFA0C23CAF80030A38943F04003A3816B
:103720004FF0FF30E9E700002DE9F04F98468B8914
:103730001B069DB007460D46144610D50B6973B99C
:103740004021FDF7AFFA2860286130B90C233B60B7
:103750004FF0FF301DB0BDE8F08F40236B610023B8
:10376000099320238DF82930CDF80C803023DFF821
:103770009C818DF82A304FF0010923469A4613F8B0
:10378000012B0AB1252AF9D1BAEB040B0BD05B4609
:10379000224629463846FFF76BFF013000F0A7802C
:1037A000099A5A4409929AF80030002B00F09F8041
:1037B00000234FF0FF32CDE905230AF1010A0493FB
:1037C00007938DF853301A935446052214F8011BC1
:1037D0004E48FDF765F9049AD8B9D00644BF2023B6
:1037E0008DF85330110744BF2B238DF853309AF8CE
:1037F00000302A2B15D0079A544600204FF00A0CAF
:10380000214611F8013B303B092B4BD9B0B107924F
:1038100014E0A0EB080309FA03F313430493A24650
:10382000D2E7039B191D1B680391002BBBBF5B42B2
:1038300042F0020207930793B8BF049223782E2B1D
:103840000AD163782A2B32D1039B1A1D1B6803927D
:1038500043EAE37302340593DFF8C0A02178032222
:103860005046FDF71DF938B1049BA0EB0A00402239
:10387000824013430134049314F8011B24488DF84B
:1038800028100622FDF70CF9002836D0214B1BBB6F
:10389000039B073323F0070308330393099B334447
:1038A00009936AE70CFB02320C460120A8E70023CB
:1038B0000134059319464FF00A0C204610F8012BED
:1038C000303A092A03D9002BC6D00591C4E70CFB76
:1038D000012104460123F0E703AB00932A460E4B77
:1038E00004A93846AFF30080421C0646D6D1AB8906
:1038F0005B063FF52DAF09982CE703AB00932A46F2
:10390000054B04A9384600F079F8EDE7283F000898
:10391000323F000800000000713600082E3F00080A
:103920002DE9F047164698468A680B69DDF8209025
:103930009342B8BF1346336091F8432007460C46C4
:103940000AB1013333602368990642BF33680233FA
:103950003360256815F0060506D104F1190AE368FD
:1039600032689B1AAB4226DC94F843302268003B55
:1039700018BF012392062BD404F143024146384676
:10398000C84701301ED02368226903F00603042BC8
:1039900002BFE5683368ED1AA3680CBF25EAE57538
:1039A00000259342C4BF9B1AED1800261A34B54275
:1039B0001AD1002008E00123524641463846C84744
:1039C000013003D14FF0FF30BDE8F0870135C6E785
:1039D000E1185A1C302081F84300224494F8451025
:1039E00082F843100233C7E7012322464146384696
:1039F000C8470130E6D00136D9E700002DE9FF477E
:103A00000F7E0C9D782F914680460C469A4601F118
:103A1000430207D8622F0AD8002F00F0E080582F09
:103A200000F0BB8004F1420684F842703AE0A7F14E
:103A30006303152BF6D801A151F823F0953A00083D
:103A4000A93A0008253A0008253A0008253A000856
:103A5000253A0008A93A0008253A0008253A000846
:103A6000253A0008253A0008C53B0008393B000804
:103A70007B3B0008253A0008253A0008E73B000890
:103A8000253A0008393B0008253A0008253A000885
:103A9000833B00082B681A1D1B682A6004F142064C
:103AA00084F842300123ABE0236829681F0601F146
:103AB0000400286001D50D6803E05E06FBD5B1F96E
:103AC00000506168002D7ADA2D20002984F8430027
:103AD000A1602DDA5E486D420A231646B5FBF3F16C
:103AE00003FB1157C75D06F8017D2F46BB420D460B
:103AF000F4D9082B0BD12368DF0708D52369616847
:103B00009942DEBF302306F8013C06F1FF36921BD6
:103B10002261CDF800A04B4603AA21464046FFF79C
:103B2000FFFE013071D14FF0FF3004B0BDE8F087E7
:103B300023F004032360CDE72B682068191D29605A
:103B4000050601D51D6802E04106FBD51D884048E9
:103B50006F2F14BF0A230823002184F843106668DE
:103B6000A660002EB9DB216821F004012160002D40
:103B7000B3D1002EB1D11646BBE7236843F0200332
:103B800023603448782784F84570296823680E1D1F
:103B90002E601E0603D50D6804E02D48F3E75D0690
:103BA000F9D50D88D90744BF43F0200323600DB138
:103BB0001023D1E7236823F020032360F8E724488B
:103BC0000A23CCE72B6826686169181D2860350632
:103BD0001B6801D5196002E07006FBD5198000232F
:103BE0002361164695E72B681A1D2A601E686268D5
:103BF00000213046FCF754FF08B1801B6060636809
:103C00002361002384F8433083E723693246494621
:103C10004046D047013086D023689B0714D4E06823
:103C2000039B9842B8BF18467FE7012332464946B6
:103C30004046D04701303FF476AF0135E368039941
:103C40005B1AAB42F1DCEAE7002504F11906F5E75F
:103C5000393F00084A3F0008884210B501EB0204D2
:103C600002D98442234607D8431EA14208D011F846
:103C7000012B03F8012FF8E7024401468A4200D1E4
:103C800010BD13F8014D02F8014DF7E72DE9F041A1
:103C9000804615460C4621B9BDE8F0411146FDF7B6
:103CA00001B82AB9FCF792FF00242046BDE8F08154
:103CB00000F01AF88542064602D8B5EB500FF4D84A
:103CC00029464046FCF7EEFF07460028ECD0B542F7
:103CD0002A46214628BF3246FFF7BCFC2146404613
:103CE000FCF774FF3C46E0E751F8043C181F002B3A
:103CF000BCBF0B58C0187047F8B500BFF8BC08BC73
:103D00009E467047F8B500BFF8BC08BC9E46704799
:103D1000256400004163632043616C6962726174D1
:103D2000696F6E2073746172742E0A00506C656145
:103D3000736520707574207468652073656E736F89
:103D400072206F6E206120666C61742073757266DC
:103D50006163652E0A0000006D6561737572696E9E
:103D6000672E2E2E00000000646F6E652E0A000084
:103D700066726F6E7400000000006261636B000089
:103D8000000000006C6566740000000000007269AD
:103D900067687400000000007570000000000000FB
:103DA0000000646F776E000000000000000000005B
:103DB000496E6974696C697A6174696F6E206669AD
:103DC0006E6973686564210A000000004143432066
:103DD000446174613A0A00006D70755F6163635FEE
:103DE00078203A20000000006D70755F6163635FAA
:103DF00079203A20000000006D70755F6163635F99
:103E00007A203A20000000009A9999999999C93F1F
:103E1000333333333333D33F9A9999999999E93F9F
:103E20009A9999999999B93FCDCCCCCCCCCCEC3F0F
:103E30009A9999999999B93F333333333333F33F8F
:103E40009A9999999999C9BF000000000000000053
:103E50009A9999999999B93F9A9999999999C93F34
:103E60009A9999999999F1BF9A9999999999B93F7C
:103E7000333333333333F3BF333333333333D33F1A
:103E8000000000000000F0BF9A9999999999B9BF74
:103E90009A9999999999C93F9A9999999999C93FE4
:103EA000333333333333D33F333333333333F33F6A
:103EB0009A9999999999B93F9A9999999999F13FAC
:103EC0009A9999999999B93F333333333333F33FFF
:103ED00000000000000000000000000000000000E2
:103EE0009A9999999999B93F9A9999999999C93FA4
:103EF0009A9999999999F1BF9A9999999999B93FEC
:103F0000333333333333F3BF333333333333D33F89
:103F1000000000000000F0BF9A9999999999B9BFE3
:103F20009A9999999999C93F232D302B2000686C53
:103F30004C006566674546470030313233343536CC
:103F40003738394142434445460030313233343505
:0C3F500036373839616263646566000032
:083F5C0044CBFF7F01000000CF
:043F6400650B0008E1
:043F6800410B000801
:103F6C0004000020000000006C000020D4000020A1
:103F7C003C010020000000000000000000000000D8
:103F8C000000000000000000000000000000000025
:103F9C000000000000000000000000000000000015
:103FAC000000000000000000000000000000000005
:04000005080034615A
:00000001FF
