:020000040800F2
:1000000000800120292F0008792F0008792F00088F
:10001000792F0008792F0008792F000800000000D0
:10002000000000000000000000000000792F000820
:10003000792F000800000000792F0008792F0008B0
:10004000792F0008792F0008792F0008792F0008F0
:10005000792F0008792F0008792F0008792F0008E0
:10006000792F0008792F0008792F0008792F0008D0
:10007000792F0008792F0008792F0008792F0008C0
:10008000792F0008792F0008792F00080000000060
:10009000000000000000000000000000792F0008B0
:1000A000792F0008792F0008792F00085D200008BB
:1000B000792F0008792F0008792F0008792F000880
:1000C000792F0008792F0008792F0008792F000870
:1000D000792F0008792F0008792F00080000000010
:1000E000792F0008792F0008792F00080000000000
:1000F000000000000000000000000000792F000850
:1001000000000000792F0008792F0008792F0008DF
:1001100000000000000000000000000000000000DF
:10012000792F0008792F0008792F0008792F00080F
:10013000792F00080000000000000000000000000F
:10014000000000000000000000000000792F0008FF
:10015000792F0008792F0008792F0008792F0008DF
:10016000792F0008792F000800000000000000002F
:10017000000000000000000000000000000000007F
:1001800000000000792F00080000000000000000BF
:04019000792F0008BB
:1001980081F0004102E000BF83F0004330B54FEA30
:1001A80041044FEA430594EA050F08BF90EA020F9D
:1001B8001FBF54EA000C55EA020C7FEA645C7FEA30
:1001C800655C00F0E2804FEA5454D4EB5555B8BF53
:1001D8006D420CDD2C4480EA020281EA030382EAC4
:1001E800000083EA010180EA020281EA0303362D56
:1001F80088BF30BD11F0004F4FEA01314FF4801C29
:100208004CEA113102D0404261EB410113F0004F3A
:100218004FEA03334CEA133302D0524263EB4303F1
:1002280094EA050F00F0A780A4F10104D5F1200E8F
:100238000DDB02FA0EFC22FA05F2801841F10001EA
:1002480003FA0EF2801843FA05F359410EE0A5F1BE
:1002580020050EF1200E012A03FA0EFC28BF4CF0EF
:10026800020C43FA05F3C01851EBE37101F00045A5
:1002780007D54FF0000EDCF1000C7EEB00006EEBB2
:100288000101B1F5801F1BD3B1F5001F0CD349083C
:100298005FEA30004FEA3C0C04F101044FEA445293
:1002A80012F5800F80F09A80BCF1004F08BF5FEA1A
:1002B800500C50F1000041EB045141EA050130BDFA
:1002C8005FEA4C0C404141EB0101013C28BFB1F50C
:1002D800801FE9D291F0000F04BF01460020B1FA57
:1002E80081F308BF2033A3F10B03B3F120020CDA2A
:1002F8000C3208DD02F1140CC2F10C0201FA0CF008
:1003080021FA02F10CE002F11402D8BFC2F1200C6C
:1003180001FA02F120FA0CFCDCBF41EA0C01904022
:10032800E41AA2BF01EB0451294330BD6FEA04046B
:100338001F3C1CDA0C340EDC04F11404C4F1200256
:1003480020FA04F001FA02F340EA030021FA04F368
:1003580045EA030130BDC4F10C04C4F1200220FABF
:1003680002F001FA04F340EA0300294630BD21FAFD
:1003780004F0294630BD94F0000F83F4801306BFC3
:1003880081F480110134013D4EE77FEA645C18BFB7
:100398007FEA655C29D094EA050F08BF90EA020F4E
:1003A80005D054EA000C04BF1946104630BD91EA46
:1003B800030F1EBF0021002030BD5FEA545C05D149
:1003C8004000494128BF41F0004130BD14F5800488
:1003D8003CBF01F5801130BD01F0004545F0FE41FC
:1003E80041F470014FF0000030BD7FEA645C1ABF31
:1003F800194610467FEA655C1CBF0B46024650EA68
:10040800013406BF52EA033591EA030F41F4002193
:1004180030BD00BF90F0000F04BF0021704730B519
:100428004FF4806404F132044FF000054FF00001EE
:1004380050E700BF90F0000F04BF0021704730B5AF
:100448004FF4806404F1320410F0004548BF404284
:100458004FF000013EE700BF42004FEAE2014FEAD9
:1004680031014FEA02701FBF12F07F4393F07F4FB4
:1004780081F06051704732F07F4208BF704793F0B7
:100488007F4F04BF41F40021704730B54FF46074CA
:1004980001F0004521F000411CE700BF50EA0102CD
:1004A80008BF704730B54FF000050AE050EA010276
:1004B80008BF704730B511F0004502D5404261EBE6
:1004C80041014FF4806404F132045FEA915C3FF427
:1004D800D8AE4FF003025FEADC0C18BF03325FEAC4
:1004E800DC0C18BF033202EBDC02C2F1200300FA75
:1004F80003FC20FA02F001FA03FE40EA0E0021FA9A
:1005080002F11444BDE600BF70B54FF0FF0C4CF487
:10051800E06C1CEA11541DBF1CEA135594EA0C0F39
:1005280095EA0C0F00F0DEF82C4481EA030621EA74
:100538004C5123EA4C5350EA013518BF52EA0335AF
:1005480041F4801143F4801338D0A0FB02CE4FF061
:100558000005E1FB02E506F00042E0FB03E54FF091
:100568000006E1FB03569CF0000F18BF4EF0010E89
:10057800A4F1FF04B6F5007F64F5407404D25FEA85
:100588004E0E6D4146EB060642EAC62141EA555138
:100598004FEAC52040EA5E504FEACE2EB4F1FD0C7A
:1005A80088BFBCF5E06F1ED8BEF1004F08BF5FEAF8
:1005B800500E50F1000041EB045170BD06F00046AA
:1005C80046EA010140EA020081EA0301B4EB5C0457
:1005D800C2BFD4EB0C0541EA045170BD41F480114F
:1005E8004FF0000E013C00F3AB8014F1360FDEBF74
:1005F800002001F0004170BDC4F10004203C35DA50
:100608000C341BDC04F11404C4F1200500FA05F3D2
:1006180020FA04F001FA05F240EA020001F0004273
:1006280021F0004110EBD37021FA04F642EB0601E9
:100638005EEA430E08BF20EAD37070BDC4F10C0413
:10064800C4F1200500FA04F320FA05F001FA04F2D7
:1006580040EA020001F0004110EBD37041F10001C3
:100668005EEA430E08BF20EAD37070BDC4F12005CE
:1006780000FA05F24EEA020E20FA04F301FA05F236
:1006880043EA020321FA04F001F0004121FA04F2DE
:1006980020EA020000EBD3705EEA430E08BF20EAAE
:1006A800D37070BD94F0000F0FD101F000464000E8
:1006B80041EB010111F4801F08BF013CF7D041EA6A
:1006C800060195F0000F18BF704703F0004652006E
:1006D80043EB030313F4801F08BF013DF7D043EA3F
:1006E8000603704794EA0C0F0CEA135518BF95EAF5
:1006F8000C0F0CD050EA410618BF52EA4306D1D17C
:1007080081EA030101F000414FF0000070BD50EA9A
:10071800410606BF1046194652EA430619D094EA24
:100728000C0F02D150EA013613D195EA0C0F05D10E
:1007380052EA03361CBF104619460AD181EA030162
:1007480001F0004141F0FE4141F470014FF000001A
:1007580070BD41F0FE4141F4780170BD70B54FF0B5
:10076800FF0C4CF4E06C1CEA11541DBF1CEA135535
:1007780094EA0C0F95EA0C0F00F0A7F8A4EB050417
:1007880081EA030E52EA03354FEA013100F088800E
:100798004FEA03334FF0805545EA131343EA1263D7
:1007A8004FEA022245EA111545EA10654FEA00268C
:1007B8000EF000419D4208BF964244F1FD0404F545
:1007C800407402D25B084FEA3202B61A65EB0305A1
:1007D8005B084FEA32024FF480104FF4002CB6EB5E
:1007E800020E75EB030E22BFB61A754640EA0C00DE
:1007F8005B084FEA3202B6EB020E75EB030E22BF1E
:10080800B61A754640EA5C005B084FEA3202B6EB5E
:10081800020E75EB030E22BFB61A754640EA9C001D
:100828005B084FEA3202B6EB020E75EB030E22BFED
:10083800B61A754640EADC0055EA060E18D04FEAAB
:10084800051545EA16754FEA06164FEAC30343EA4B
:1008580052734FEAC2025FEA1C1CC0D111F4801F18
:100868000BD141EA00014FF000004FF0004CB6E711
:1008780011F4801F04BF01430020B4F1FD0C88BFB0
:10088800BCF5E06F3FF6AFAEB5EB030C04BFB6EBBB
:10089800020C5FEA500C50F1000041EB045170BDAE
:1008A8000EF0004E4EEA113114EB5C04C2BFD4EBDB
:1008B8000C0541EA045170BD41F480114FF0000E5F
:1008C800013C90E645EA060E8DE60CEA135594EADB
:1008D8000C0F08BF95EA0C0F3FF43BAF94EA0C0FDE
:1008E8000AD150EA01347FF434AF95EA0C0F7FF453
:1008F80025AF104619462CE795EA0C0F06D152EAA7
:1009080003353FF4FDAE1046194622E750EA41068A
:1009180018BF52EA43067FF4C5AE50EA41047FF49B
:100928000DAF52EA43057FF4EBAE12E74FF0FF3C00
:1009380006E000BF4FF0010C02E000BF4FF0010CD1
:100948004DF804CD4FEA410C7FEA6C5C4FEA430C4A
:1009580018BF7FEA6C5C1BD001B050EA410C0CBF99
:1009680052EA430C91EA030F02BF90EA020F0020FB
:10097800704710F1000F91EA030F58BF994208BF62
:1009880090422CBFD8176FEAE37040F0010070471F
:100998004FEA410C7FEA6C5C02D150EA013C07D176
:1009A8004FEA430C7FEA6C5CD6D152EA033CD3D0C1
:1009B8005DF8040B704700BF8446104662468C46BB
:1009C8001946634600E000BF01B5FFF7B7FF0028EE
:1009D80048BF10F1000F01BD4DF808EDFFF7F4FF17
:1009E8000CBF012000205DF808FB00BF4DF808EDA2
:1009F800FFF7EAFF34BF012000205DF808FB00BFC5
:100A08004DF808EDFFF7E0FF94BF012000205DF8E6
:100A180008FB00BF4DF808EDFFF7CEFF94BF01209B
:100A280000205DF808FB00BF4DF808EDFFF7C4FF94
:100A380034BF012000205DF808FB00BF10B5054C4D
:100A4800237833B9044B13B10448AFF30080012372
:100A5800237010BD0000002000000000F8300008DE
:100A680008B5034B1BB103490348AFF3008008BD29
:100A78000000000004000020F830000870B50D4D9B
:100A88000D4C641BA4100026A64209D10B4D0C4C3A
:100A980002F02EFB641BA4100026A64205D170BDEF
:100AA80055F8043B98470136EEE755F8043B98475C
:100AB8000136F2E758320008583200085832000868
:100AC8005C32000880B483B000AF7860064A7B6867
:100AD80043F0BF6343F40033D36000BF0C37BD4617
:100AE8005DF8047B704700BF00ED00E080B485B07E
:100AF80000AF78600023FB730023BB730F237B7365
:100B08007B68DB78002B39D0274BDB68DB431B0A7B
:100B1800DBB203F00703FB73FB7BC3F10403BB7376
:100B28007A7BFB7B42FA03F37B737B685B781A461C
:100B3800BB7B02FA03F3FB737B689A787B7B1340D9
:100B4800DAB2FB7B1343FB73FB7B1B01FB73174A76
:100B58007B681B781344FA7B83F800237B681B7837
:100B680003F01F0311497A6812785209D2B210466D
:100B7800012202FA03F341F820300FE07B681B786A
:100B880003F01F0309497A6812785209D2B2104655
:100B980001229A4000F1200341F8232000BF1437B6
:100BA800BD465DF8047B704700ED00E000E100E021
:100BB80080B487B000AF7860396000237B61002380
:100BC8003B610023FB6000237B6176E001227B69A7
:100BD80002FA03F33B613B681B683A691340FB6008
:100BE800FA683B699A4265D17B681A687B695B0041
:100BF800032101FA03F3DB431A407B681A607B6820
:100C08001A683B681B7919467B695B0001FA03F394
:100C18001A437B681A603B681B79012B03D03B6839
:100C28001B79022B2ED17B689A687B695B000321B4
:100C380001FA03F3DB431A407B689A607B689A6881
:100C48003B685B7919467B695B0001FA03F31A4339
:100C58007B689A607B685A687B699BB21946012356
:100C68008B40DB431A407B685A607B685B683A6854
:100C7800927911467A6992B201FA02F292B21A4353
:100C88007B685A607B68DA687B699BB25B000321EA
:100C980001FA03F3DB431A407B68DA607B68DA68A1
:100CA8003B68DB7919467B695B0001FA03F31A4359
:100CB8007B68DA607B6901337B617B690F2B85D99F
:100CC80000BF00BF1C37BD465DF8047B70470000BD
:100CD80080B483B000AF78600B46FB70FB78002BC4
:100CE80006D00A4B1A6B09497B6813430B6306E06D
:100CF800064B1A6B7B68DB43044913400B6300BF48
:100D08000C37BD465DF8047B704700BF00380240D1
:100D180080B483B000AF78600B46FB70FB78002B83
:100D280006D00A4B1A6C09497B6813430B6406E02A
:100D3800064B1A6C7B68DB43044913400B6400BF05
:100D48000C37BD465DF8047B704700BF0038024091
:100D580080B485B000AF786039600023FB817B6880
:100D68001B88FB817B68294A934213D07B68284AF9
:100D780093420FD07B68B3F1804F0BD07B68254A34
:100D8800934207D07B68244A934203D07B68234A66
:100D9800934208D1FB8923F07003FB813B685A8892
:100DA800FB891343FB817B681D4A93420CD07B6807
:100DB8001C4A934208D0FB8923F44073FB813B68AB
:100DC8001A89FB891343FB817B68FA891A803B687F
:100DD8005A687B68DA623B681A887B681A857B6880
:100DE8000A4A934203D07B68094A934204D13B687C
:100DF8009B7A1A467B681A867B6801229A8200BF12
:100E08001437BD465DF8047B704700BF0000014001
:100E1800000401400004004000080040000C0040AD
:100E2800001000400014004080B483B000AF786028
:100E38000B46FB70FB78002B08D07B681B889BB2A5
:100E480043F001039AB27B681A8007E07B681B882D
:100E58009BB223F001039AB27B681A8000BF0C375B
:100E6800BD465DF8047B704780B485B000AF7860FC
:100E7800396000237B810023FB810023BB817B68D1
:100E88001B8C9BB223F001039AB27B681A847B689F
:100E98001B8CFB817B689B88BB817B681B8B7B8160
:100EA8007B8923F070037B817B8923F003037B819B
:100EB8003B681A887B8913437B81FB8923F00203F3
:100EC800FB813B689A89FB891343FB813B685A88FD
:100ED800FB891343FB817B681E4A934203D07B68DE
:100EE8001D4A934223D1FB8923F00803FB813B6809
:100EF800DA89FB891343FB81FB8923F00403FB8117
:100F08003B689A88FB891343FB81BB8923F4807370
:100F1800BB81BB8923F40073BB813B681A8ABB89F8
:100F28001343BB813B685A8ABB891343BB817B68E7
:100F3800BA899A807B687A891A833B689A687B6841
:100F48005A637B68FA891A8400BF1437BD465DF876
:100F5800047B7047000001400004014080B485B064
:100F680000AF78600B467B800023FB817B681B8B7E
:100F7800FB81FB8923F00803FB81FA897B881343F3
:100F8800FB817B68FA891A8300BF1437BD465DF878
:100F9800047B704780B483B000AF78607B685B6B7C
:100FA80018460C37BD465DF8047B704780B483B0A3
:100FB80000AF78600B467B8013467B707B78002BF4
:100FC80008D07B689B899AB27B8813439AB27B6866
:100FD8009A8109E07B689B899AB27B88DB439BB244
:100FE80013409AB27B689A8100BF0C37BD465DF802
:100FF800047B704780B485B000AF78600B467B8077
:101008000023FB730023BB8100237B817B681B8A41
:101018009AB27B881340BB817B689B899AB27B8894
:1010280013407B81BB89002B05D07B89002B02D024
:101038000123FB7301E00023FB73FB7B1846143785
:10104800BD465DF8047B704780B483B000AF78601C
:101058000B467B807B88DB439AB27B681A8200BF91
:101068000C37BD465DF8047B704780B485B000AF8F
:1010780078600B467B800023FB737B681B889AB2E1
:101088007B8813409BB2002B02D00123FB7301E045
:101098000023FB73FB7B18461437BD465DF8047BC1
:1010A8007047000080B400AF384B1B6B374A43F0E1
:1010B80002031363354B5B6C344A43F010035364EB
:1010C800334B1B68324A23F440531360304B1B6880
:1010D8002F4A23F4404313602D4B1B682C4A43F4DA
:1010E800005313602A4B1B68294A43F400431360DA
:1010F800274B5B68264A43F040035360244B5B68E8
:10110800234A43F080035360214B9B68204A23F411
:10111800405393601E4B9B681D4A23F440439360E1
:101128001B4B9B681A4A43F400539360184B9B6807
:10113800174A43F400439360154BDB68144A23F4C1
:101148004053D360124BDB68114A23F44043D36009
:101158000F4B1B6A0E4A23F0606313620C4B1B6A29
:101168000B4A23F060431362094B1B6A084A43F099
:10117800E0631362064B1B6A054A43F0E0431362BF
:1011880000BFBD465DF8047B704700BF00380240D1
:101198000004024080B400AF1C4B9B899BB21B4AE1
:1011A80043F400539BB29381184B42F22E221A81CA
:1011B800164B9B899BB2154A23F480539BB29381AB
:1011C800124B9B899BB2114A23F480639BB2938193
:1011D8000E4B9B899BB20D4A43F020039BB293812F
:1011E8000A4B9B899BB2094A43F008039BB293813F
:1011F800064B9B899BB2054A43F004039BB293813B
:1012080000BFBD465DF8047B704700BF0010014079
:1012180080B582B000AF0346FB71084BFA7992B2F1
:101228009A8000BF80210548FFF71FFF0346002B67
:10123800F8D000BF00BF0837BD4680BD0010014090
:1012480080B584B000AF78600023FB7309E0FB7BB6
:101258007A6813441B781846FFF7DAFFFB7B0133E3
:10126800FB73FB7B7A6813441B78002BEFD100BF1C
:1012780000BF1037BD4680BD80B500AFFFF712FF35
:10128800FFF788FF00BF80BD80B500AF01226B214A
:10129800D02000F059FD09221921D02000F054FD7A
:1012A80006221A21D02000F04FFD18221B21D02041
:1012B80000F04AFD18221C21D02000F045FD00BF97
:1012C80080BD0000B0B586B000AF78604FF08343B2
:1012D8007B6107F10C0206233B21D02000F0CAFCF9
:1012E8003B7B1B029BB27A7B13449BB21BB2184612
:1012F800FFF7A0F804460D467869FFF7ADF80246F7
:101308000B4620462946FFF7FFF802460B461046D3
:1013180019464FF00002294BFFF720FA02460B4608
:101328007968C1E90023BB7B1B029BB2FA7B13449B
:101338009BB21BB21846FFF77DF804460D46786944
:10134800FFF78AF802460B4620462946FFF7DCF8E5
:1013580002460B46104619464FF00002174BFFF79E
:10136800FDF902460B467968C1E902233B7C1B0262
:101378009BB27A7C13449BB21BB21846FFF75AF80B
:1013880004460D467869FFF767F802460B46204683
:101398002946FFF7B9F802460B46104619464FF0A2
:1013A8000002064BFFF7DAF902460B467968C1E9F5
:1013B800042300BF1837BD46B0BD00BF0000E040A1
:1013C800B0B5BEB000AF78603960B148FFF738FFFC
:1013D800B048FFF735FF40F6B83000F0DBF90023DE
:1013E80087F8F73034E097F8F72013465B0013448A
:1013F800DB00F8333B44A3F198014FF000024FF0B3
:101408000003C1E9002397F8F72013465B00134453
:10141800DB00F8333B44A3F190014FF000024FF09A
:101428000003C1E9002397F8F72013465B00134433
:10143800DB00F8333B44A3F188014FF000024FF082
:101448000003C1E9002397F8F730013387F8F73034
:1014580097F8F730052BC6D98F4B07F124041D46A2
:101468000FCD0FC40FCD0FC40FCD0FC495E80700E3
:1014780084E80700002387F8F630F8E097F8F620AC
:1014880007F1240113469B0013445B000B441846E4
:10149800FFF7D6FE40F6B83000F07CF97F48FFF73A
:1014A800CFFE4FF000024FF00003C7E902234FF0D0
:1014B80000024FF00003C7E904234FF000024FF089
:1014C8000003C7E90623002387F8F53066E007F133
:1014D80008031846FFF7F6FE97F8F62013465B0058
:1014E8001344DB00F8333B44983BD3E90001D7E9C8
:1014F800022397F8F640FEF751FE02460B461046C7
:10150800194623465B002344DB00F8333B44983BF1
:10151800C3E9000197F8F62013465B001344DB008B
:10152800F8333B44903BD3E90001D7E9042397F80B
:10153800F640FEF733FE02460B4610461946234690
:101548005B002344DB00F8333B44903BC3E90001D4
:1015580097F8F62013465B001344DB00F8333B444E
:10156800883BD3E90001D7E9062397F8F640FEF750
:1015780015FE02460B461046194623465B002344D7
:10158800DB00F8333B44883BC3E900010A2000F044
:1015980001F997F8F530013387F8F53097F8F53009
:1015A800632B94D997F8F62013465B001344DB00AD
:1015B800F8333B44983BD3E9000197F8F6404FF0E5
:1015C8000002374BFFF7CAF802460B461046194689
:1015D80023465B002344DB00F8333B44983BC3E9D4
:1015E800000197F8F62013465B001344DB00F8333C
:1015F8003B44903BD3E9000197F8F6404FF00002D6
:10160800274BFFF7ABF802460B4610461946234610
:101618005B002344DB00F8333B44903BC3E9000103
:1016280097F8F62013465B001344DB00F8333B447D
:10163800883BD3E9000197F8F6404FF00002184BB9
:10164800FFF78CF802460B461046194623465B0006
:101658002344DB00F8333B44883BC3E900011148CD
:10166800FFF7EEFD97F8F630013387F8F63097F874
:10167800F630052B7FF602AF07F160033A68796808
:10168800184600F031FD00BF1846F837BD46B0BD1A
:1016980010310008283100086C3100085431000866
:1016A800000059406431000880B58AB000AF0121BC
:1016B8000420FFF70DFB01210220FFF729FB40233F
:1016C8003B62022387F82530022387F8243007F18C
:1016D800200319461B48FFF76BFA1A4B1B6A194A75
:1016E80043F00073136244F61F63BB615323BB824C
:1016F8000023BB830023FB8207F114031946124819
:10170800FFF726FB60233B8001237B800023BB81FE
:101718003B4619460C48FFF7A7FB08210A48FFF784
:101728001DFC01210848FFF77FFB074B1B889BB274
:10173800054A43F080039BB2138000BF2837BD469B
:1017480080BD00BF000802400004004080B483B0A0
:1017580000AF78600E497A681346DB001344DB005B
:101768004B600B4B00229A60094B05221A6000BFA0
:10177800074B1B6803F48033002BF9D0044B042279
:101788001A6000BF0C37BD465DF8047B704700BF88
:1017980010E000E080B582B000AF786003E04FF45D
:1017A8007A70FFF7D3FF7B685A1E7A60002BF6D158
:1017B80000BF00BF0837BD4680BD000080B400AF41
:1017C8002A4B1B68294A23F440331360274B1B68B4
:1017D800264A23F440231360244B1B68234A43F40E
:1017E80000331360214B1B68204A43F40023136025
:1017F8001E4B5B681D4A43F4807353601B4B5B6848
:101808001A4A43F400735360184B4FF440329A60FD
:10181800164B4FF440229A60144BDB68134A23F4AA
:101828004033D360114BDB68104A23F44023D36064
:101838000E4BDB680D4A43F48033D3600B4BDB68F7
:101848000A4A43F48023D360084B5B6A074A43F093
:1018580004035362054B5B6A044A43F04003536236
:1018680000BFBD465DF8047B704700BF000402401E
:1018780080B400AF314B9B889BB2304A23F03F03C2
:101888009BB293802D4B9B889BB22C4A43F0040358
:101898009BB29380294B1B8C9BB2284A23F03F03B1
:1018A8009BB21384254B1B8C9BB2244A43F4805370
:1018B80043F001039BB21384204B1B889BB21F4A41
:1018C80043F001039BB213801C4B1B889BB21B4A3D
:1018D80023F020039BB21380184B1B899BB2174A35
:1018E80023F07F039BB21381144B1B899BB2134ACD
:1018F80043F001039BB21381104B9B8B9BB20F4AA1
:10190800C3F30E039BB293830C4B9B8B9BB20B4A86
:1019180023F47F6323F00F039BB29383074B9B8BC6
:101928009BB2064A43F42B5343F038039BB293838C
:1019380000BFBD465DF8047B704700BF00540040FF
:1019480080B483B000AF0346FB71FB79012B08D14B
:101958000B4B1B889BB20A4A43F480739BB21380DB
:1019680007E0074B1B889BB2054A23F480739BB2A0
:10197800138000BF0C37BD465DF8047B704700BF7D
:101988000054004080B483B000AF0346FB71FB797C
:10199800012B08D10B4B1B889BB20A4A43F40073F6
:1019A8009BB2138007E0074B1B889BB2054A23F4C0
:1019B80000739BB2138000BF0C37BD465DF8047BF3
:1019C800704700BF0054004080B483B000AF0346A6
:1019D800FB71FB79012B08D10B4B1B889BB20A4A80
:1019E80043F480639BB2138007E0074B1B889BB2CC
:1019F800054A23F480639BB2138000BF0C37BD46B1
:101A08005DF8047B704700BF0054004080B483B089
:101A180000AF0346FB71054BFA7992B21A8200BFF8
:101A28000C37BD465DF8047B704700BF005400408A
:101A380080B400AF044B1B8A9BB2DBB21846BD468C
:101A48005DF8047B704700BF0054004080B483B049
:101A580000AF03460A46FB711346BB71BB79012BE5
:101A680004D1FB7943F00103FB7103E0FB7923F018
:101A78000103FB71044BFA7992B21A8200BF0C374A
:101A8800BD465DF8047B70470054004080B483B0C5
:101A980000AF094B1B8BFB80FB885B089BB203F0F4
:101AA8000103002B01D0002300E0012318460C3766
:101AB800BD465DF8047B70470054004080B400AF19
:101AC8000F4B9B8A9BB203F00103012B11D10C4BE6
:101AD8001B8B9BB203F00103012B0AD1084B1B8B14
:101AE8009BB25B089BB203F00103012B01D10123D8
:101AF80000E000231846BD465DF8047B704700BF30
:101B08000054004080B483B000AF1F4B9B8AFB8019
:101B18001D4B1B8BBB80FB885B089BB203F001034A
:101B2800002B2AD0FB88DB099BB203F00103002BB2
:101B380023D0BB8803F00103002B1ED0BB885B08B1
:101B48009BB203F00103002B17D0BB889B089BB204
:101B580003F00103002B10D0FB885B0A9BB203F053
:101B68000103002B07D0084B9B8A9BB2064A43F41B
:101B780080639BB29382012300E0002318460C3750
:101B8800BD465DF8047B70470054004080B400AF48
:101B9800194B9B8A9BB29B089BB203F00103012B54
:101BA80023D1154B9B8A9BB2DB099BB203F001033F
:101BB800012B1AD1104B1B8B9BB203F00103012B95
:101BC80013D10D4B1B8B9BB25B089BB203F0010337
:101BD800012B0AD1084B1B8B9BB29B089BB203F0CD
:101BE8000103012B01D1012300E000231846BD4663
:101BF8005DF8047B704700BF0054004080B400AF1C
:101C0800104B9B8A9BB25B089BB203F00103012B2C
:101C180011D10C4B1B8B9BB203F00103012B0AD192
:101C2800084B1B8B9BB25B089BB203F00103012B93
:101C380001D1012300E000231846BD465DF8047B6E
:101C4800704700BF0054004080B400AF084B9B8A27
:101C58009BB29B099BB203F00103012B01D1012325
:101C680000E000231846BD465DF8047B704700BFBE
:101C78000054004090B585B000AF3A601A4603465C
:101C8800FB710B46BB7113467B7100BFFFF7FEFE6D
:101C98000346002BFAD00120FFF752FE00BFFFF7E2
:101CA8000DFF0346002BFAD0FB7900211846FFF7F9
:101CB800CDFE00BFFFF726FF0346002BFAD0BB7905
:101CC8001846FFF7A3FE00BFFFF760FF0346002B8F
:101CD800FAD00120FFF734FE00BFFFF7EFFE0346FE
:101CE800002BFAD0FB7901211846FFF7AFFE00BFA1
:101CF800FFF784FF0346002BFAD00020FFF742FECF
:101D08000120FFF761FE0023FB730FE000BFFFF720
:101D18009BFF0346002BFAD0FB7B3A68D418FFF7E9
:101D280087FE03462370FB7B0133FB73FA7B7B79C9
:101D38009A42EBD30020FFF747FE0120FFF722FE6F
:101D480000BF1437BD4690BD80B582B000AF0346D2
:101D5800FB710B46BB7113467B7100BFFFF796FE04
:101D68000346002BFAD00120FFF7EAFD00BFFFF77A
:101D7800A5FE0346002BFAD0FB7900211846FFF791
:101D880065FE00BFFFF7BEFE0346002BFAD0BB7905
:101D98001846FFF73BFE00BFFFF7F8FE0346002B8F
:101DA800FAD07B791846FFF731FE00BFFFF7EEFE49
:101DB8000346002BFAD00120FFF7E4FD00BF0837E7
:101DC800BD4680BD80B500AF084B1B6B074A43F08A
:101DD80002031363054B1B6C044A43F4001313649A
:101DE800FFF7ECFCFFF744FD00BF80BD0038024060
:101DF80080B582B000AF864B5B6C854A43F0010327
:101E08005364844B0022DA62824B1B889BB2814A5E
:101E180023F010039BB213807E4B1B8D9BB27D4A2F
:101E280043F053039BB213857A4BDB6A794A43F438
:101E38009C4343F01F03D362764B9B8A9BB2754A3F
:101E480043F002039BB29382724B1B889BB2714A88
:101E580043F080039BB213806D4B1B6B6C4A43F0BD
:101E6800010313636C4B5B6A6B4A43F001035362D3
:101E7800694B1B68684A23F440331360664B1B6840
:101E8800654A43F400331360634B5B68624A23F48A
:101E980080735360604B9B685F4A43F400339360E0
:101EA8005D4BDB685C4A23F44033D360594B1B8B92
:101EB8009BB2584A43F001039BB21383554B1B8BCB
:101EC8009BB2544A23F00C039BB21383514B1B8BD8
:101ED8009BB2504A23F0F0039BB213834D4B1B8CEB
:101EE8009BB24C4A43F001039BB21384494B1B8CB1
:101EF8009BB2484A23F002039BB21384454B1B8CC8
:101F08009BB2444A23F008039BB21384414B1B8BBA
:101F18009BB2404A43F400739BB213833D4B1B8B27
:101F28009BB23C4A23F440639BB21383394B1B8B0F
:101F38009BB2384AC3F30B039BB21383354B1B8CFC
:101F48009BB2344A43F010039BB21384314B1B8C71
:101F58009BB2304A43F020039BB213842D4B1B8C59
:101F68009BB22C4A43F080039BB21384294B1B89F4
:101F78009BB2284A23F00A039BB21381254B1B8985
:101F88009BB2244A43F004039BB21381214B1B8963
:101F98009BB2204A23F070039BB213811D4B1B890F
:101FA8009BB21C4A43F050039BB21381194B1B8907
:101FB8009BB2184A43F080039BB21381012202218D
:101FC8001448FEF7F3FF4FF4A060FEF77BFD1B23D8
:101FD8003B710123FB7102237B710123BB713B1D04
:101FE8001846FEF783FD0B4B9B899BB2094A43F0C9
:101FF80002039BB29381074B1B889BB2054A43F0AF
:1020080001039BB2138000BF0837BD4680BD00BFE7
:1020180000380240000001400000024080B400AFD8
:102028000A4BDB684FF47A7202FB03F3A3F57423BF
:10203800A3F5C563064AA2FB03239B0903F57A733C
:102048001846BD465DF8047B704700BF5400002069
:10205800D34D621080B582B000AF02211D48FEF753
:10206800C9FF0346012B2BD11A48FEF793FF0346FD
:1020780001337B607B68B3F5805F02D9164B012280
:102088001A60154B1B68012B16D11248FEF782FF08
:102098000146124B1B685A1C104802604A1C104922
:1020A80041F823200D4B1B68082B05D90B4B002248
:1020B8001A60094B00221A6002210648FEF7C4FF85
:1020C800FFF7ACFF0346074A136000BF0837BD4659
:1020D80080BD00BF00000140800000207C0000207F
:1020E80054000020500000202DE9F043ADF5737D29
:1020F80000AF07F57273A3F56F73186007F5727375
:10210800A3F57073196007F57273A3F571731A60FC
:10211800002387F8C733B4A3D3E90023C7E9E02332
:102128004FF00002AE4BC7E9EE23ABA3D3E900237F
:10213800C7E9EC234FF000024FF00003C7E9D423AE
:10214800D7E9D423C7E9D223D7E9D223C7E9D023D3
:102158004FF00002A34BC7E9DA23D7E9DA23C7E92E
:10216800D823D7E9D823C7E9D62300F07EBD97F84E
:10217800C733013387F8C7334FF000024FF000032D
:10218800C7E9EE23002387F8AF3318E197F8AF3398
:1021980007F57272A2F56E72DB00D1184FF00002DB
:1021A8004FF00003C1E90023002387F8AE3319E09C
:1021B80097F8AF2397F8AE0307F57273A3F562712A
:1021C80013465B0013445B000344DB0019444FF0E3
:1021D80000024FF00003C1E9002397F8AE33013342
:1021E80087F8AE3397F8AE33052BE1D997F8AF23CC
:1021F80013465B001344DB001A4607F57273A3F518
:102208006F731B681344D3E90001D7E9D02397F80B
:10221800AF43FDF7C1FF02460B461046194607F5C6
:102228007273A3F5A47223465B002344DB001344B6
:10223800C3E9000197F8AF2313465B001344DB00A2
:102248001A4607F57273A3F56F731B681344D3E935
:102258000201D7E9D22397F8AF43FDF79DFF024665
:102268000B461046194607F57273A3F5A472234668
:102278005B002344DB0013440833C3E9000197F8EB
:10228800AF2313465B001344DB001A4607F572734D
:10229800A3F56F731B681344D3E90401D7E9D4236A
:1022A80097F8AF43FDF778FF02460B4610461946EC
:1022B80007F57273A3F5A47223465B002344DB0081
:1022C80013441033C3E9000197F8AF33DB0003F57B
:1022D80072733B44A3F1B8014FF00002414BC1E9CE
:1022E8000023002387F8AD3360E097F8AF33DB00B5
:1022F80003F572733B44B83BD3E9004597F8AF2325
:1023080097F8AD0307F57273A3F5A47113465B0044
:1023180013440344DB000B44D3E9000197F8AF23CF
:1023280097F8ADC307F57273A3F5A47613465B005F
:1023380013446344DB003344D3E90023FEF7E4F895
:1023480002460B461046194697F8AD330333DB00B7
:1023580003F572733B44883BD3E90023FEF7D4F8B6
:1023680002460B461046194697F8AD330333DB0097
:1023780003F572733B44883BD3E90023FEF7C4F8A6
:1023880002460B4697F8AF6320462946FDF704FF3F
:1023980002460B46F10001F572713944B839C1E9BA
:1023A800002397F8AD33013387F8AD3397F8AD3391
:1023B800022B9AD997F8AF33013387F8AF3397F8E0
:1023C800AF33052B7FF6E2AE002387F8AC33BFE0CE
:1023D800002387F8AB33B1E0FCA9F1D24D62503F3E
:1023E800000059400000F03F95D626E80B2E113E1C
:1023F80097F8AB330333DB0003F572733B44883B38
:10240800D3E9000102460B46FDF7C8FE02460B461B
:102418001046194697F8AB330333DB0003F57273A4
:102428003B44883BD3E90023FEF76EF802460B468F
:102438009046994697F8AC2397F8AB0307F5727363
:10244800A3F5A47113465B0013440344DB000B445B
:10245800D3E9002397F8AC4397F8AB534046494675
:10246800FEF752F802460B461046194607F57273F6
:10247800A3F51A7223465B0023445B002B44DB0060
:102488001344C3E9000197F8AB330333DB0003F5CA
:1024980072733B44883BD3E900014FF000024FF0D0
:1024A8004043FEF731F802460B4614461D4697F89E
:1024B800AC2397F8AB0307F57273A3F5A471134621
:1024C8005B0013440344DB000B44D3E9002320469C
:1024D8002946FEF719F802460B469046994697F8A2
:1024E800AC2397F8AB0307F57273A3F5A4711346F1
:1024F8005B0013440344DB000B44D3E9002397F843
:10250800AC4397F8AB13CD1C40464946FDF7FCFF9A
:1025180002460B461046194607F57273A3F51A7260
:1025280023465B0023445B002B44DB001344C3E9D0
:10253800000197F8AB33013387F8AB3397F8AB3327
:10254800022B7FF655AF97F8AC33013387F8AC33DD
:1025580097F8AC33052B7FF63BAF002387F8AA33F7
:10256800CAE097F8AA3307F57272A2F56E72DB001B
:10257800D1184FF000024FF00003C1E900230023F7
:1025880087F8A933AEE097F8AA2397F8A90307F5C7
:102598007273A3F5627113465B0013445B00034436
:1025A800DB0019444FF000024FF00003C1E900239B
:1025B800002387F8A83354E097F8AA2397F8A903CB
:1025C80007F57273A3F5627113465B0013445B0051
:1025D8000344DB000B44D3E9004597F8A82397F898
:1025E800AA0307F57273A3F51A7113465B00134427
:1025F8005B000344DB000B44D3E9000197F8A823F0
:1026080097F8A9C307F57273A3F51A7613465B000A
:1026180013445B006344DB003344D3E90023FDF734
:1026280073FF02460B4697F8AA6397F8A9832046DA
:102638002946FDF7B3FD02460B461046194607F535
:102648007273A3F5627233465B0033445B00434404
:10265800DB001344C3E9000197F8A833013387F876
:10266800A83397F8A833052BA6D997F8AA3307F506
:102678007272A2F56E72DB001344D3E9004597F835
:10268800A92397F8AA0307F57273A3F51A711346DD
:102698005B0013445B000344DB000B44D3E90001F7
:1026A80097F8A933DB0003F572733B44B83BD3E9D1
:1026B8000023FDF729FF02460B4697F8AA63204638
:1026C8002946FDF76BFD02460B4607F57271A1F529
:1026D8006E70F1000144C1E9002397F8A933013372
:1026E80087F8A93397F8A933052B7FF64CAF97F8ED
:1026F800AA33013387F8AA3397F8AA33052B7FF654
:1027080030AF0023C7F8A43326E007F57273A3F5AA
:102718006271D7F8A4231346DB009B1ADB000B4435
:10272800D3E90001D7E9EC23FDF738FD02460B4653
:102738001046194607F57273A3F56274D7F8A423F7
:102748001346DB009B1ADB002344C3E90001D7F8DA
:10275800A4330133C7F8A433D7F8A433052BD4DD49
:10276800002387F8A333D7E097F8A333013387F81A
:10277800A233C7E097F8A22397F8A30307F572736B
:10278800A3F5627113465B0013445B000344DB004E
:102798000B44D3E9000197F8A32397F8A35307F54F
:1027A8007273A3F5627413465B0013445B002B44F9
:1027B800DB002344D3E90023FDF7D0FF02460B4694
:1027C800C7E9DC234FF000024FF00003D7E9DC0132
:1027D800FEF702F90346002B40F08F8097F8A223FA
:1027E80097F8A30307F57273A3F5627113465B00AC
:1027F80013445B000344DB0019444FF000024FF020
:102808000003C1E9002397F8A333013387F8A13304
:1028180045E097F8A22397F8A10307F57273A3F58B
:10282800627113465B0013445B000344DB000B44F6
:10283800D3E9004597F8A32397F8A10307F5727326
:10284800A3F5627113465B0013445B000344DB008D
:102858000B44D3E90001D7E9DC23FDF755FE024616
:102868000B4697F8A26397F8A18320462946FDF7FF
:1028780093FC02460B461046194607F57273A3F5FA
:10288800627233465B0033445B004344DB0013440D
:10289800C3E9000197F8A133013387F8A13397F80A
:1028A800A133052BB5D997F8A23307F57272A2F5B3
:1028B8006E72DB001344D3E9004597F8A33307F59C
:1028C8007272A2F56E72DB001344D3E90001D7E9F6
:1028D800DC23FDF719FE02460B4697F8A263204653
:1028E8002946FDF759FC02460B4607F57271A1F51A
:1028F8006E70F1000144C1E9002397F8A233013357
:1029080087F8A23397F8A233052B7FF633AF97F8F1
:10291800A333013387F8A33397F8A333052B7FF646
:1029280023AF052387F8A033DDE097F9A02397F9B3
:10293800A00307F57273A3F5627113465B00134495
:102948005B000344DB000B44D3E90023C7E9DE2323
:1029580097F9A02397F9A00307F57273A3F562719D
:1029680013465B0013445B000344DB0019444FF03B
:102978000002B54BC1E9002397F8A033013387F86B
:102988009F332EE097F9A02397F89F0307F57273FA
:10299800A3F5627113465B0013445B000344DB003C
:1029A8000B44D3E9000197F9A04397F89F53D7E95F
:1029B800DE23FDF7D3FE02460B461046194607F5FF
:1029C8007273A3F5627223465B0023445B002B44B9
:1029D800DB001344C3E9000197F89F33013387F8FC
:1029E8009F3397F89F33052BCCD997F9A03307F578
:1029F8007272A2F56E72DB001344D3E9000197F9F5
:102A0800A043D7E9DE23FDF7A9FE02460B4607F5EA
:102A18007271A1F56E70E1000144C1E90023002341
:102A280087F89E3352E097F89E3307F57272A2F545
:102A38006E72DB001344D3E9004597F89E2397F99B
:102A4800A00307F57273A3F5627113465B00134484
:102A58005B000344DB000B44D3E9000197F9A03382
:102A680007F57272A2F56E72DB001344D3E90023F6
:102A7800FDF74AFD02460B4697F89E632046294615
:102A8800FDF78AFB02460B4607F57271A1F56E70D9
:102A9800F1000144C1E9002397F89E2397F9A003A8
:102AA80007F57273A3F5627113465B0013445B006C
:102AB8000344DB0019444FF000024FF00003C1E962
:102AC800002397F89E33013387F89E3397F89E23A7
:102AD80097F9A0339A42A6DB97F9A033DBB2013B02
:102AE800DBB287F8A03397F9A033002BBFF61DAFF0
:102AF8004FF000024FF00003C7E9E423002387F8F2
:102B08008F3387E097F88F33022B20D897F88F33CD
:102B180007F57272A2F56E72DB001344D3E9000167
:102B280097F88F3307F57272A2F56E72DB001344C3
:102B3800D3E90023FDF7E8FC02460B46D7E9E40198
:102B4800FDF72CFB02460B46C7E9E4233DE097F866
:102B58008F3307F57272A2F56E72DB001344D3E966
:102B6800000197F88F3307F57272A2F56E72DB00D9
:102B78001344D3E90023FDF7C7FC02460B4614466D
:102B88001D4697F88F33DB0003F572733B44883B8F
:102B9800D3E9000197F88F33DB0003F572733B44E8
:102BA800883BD3E90023FDF7AFFC02460B462046DD
:102BB8002946FDF7D3FD02460B46D7E9E401FDF7A8
:102BC800EDFA02460B46C7E9E42397F88F33DB009A
:102BD80003F572733B44883BD3E9000197F88F33C0
:102BE80007F57272A2F56E72DB001344D3E9002375
:102BF80097F88F43FDF7D0FA02460B46E10001F53E
:102C0800727139448839C1E9002397F88F33013349
:102C180087F88F3397F88F33052B7FF673AFD7E993
:102C2800EE23D7E9E401FDF7FFFE0346002B0DD0A4
:102C3800D7E9EC0102460B46FDF7B0FA02460B460F
:102C4800C7E9EC230DE000BF0000F03F4FF00002A1
:102C58002B4BD7E9EC01FDF781FD02460B46C7E98E
:102C6800EC23D7E9E423C7E9EE2397F8C733632BAE
:102C780009D8D7E9E023D7E9EE01FDF7D5FE0346E9
:102C8800002B7FF474AAD7E9D02307F57271A1F558
:102C980070710968C1E90023D7E9D22307F5727179
:102CA800A1F570710968C1E90223D7E9D42307F5B2
:102CB8007271A1F570710968C1E90423D7E9D623B7
:102CC80007F57271A1F571710968C1E90023D7E9A7
:102CD800D82307F57271A1F571710968C1E902235A
:102CE800D7E9DA2307F57271A1F571710968C1E9AD
:102CF800042300BF07F57377BD46BDE8F08300BF26
:102D08000000084090B5B9B000AF4FF47A70FEF7F4
:102D180041FDFFF757F87D4B1B8801339AB27B4B77
:102D28001A80FEF7B1FA794B1B8801339AB2774BB8
:102D38001A80764B1B8801339AB2744B1A80FEF7BF
:102D48009BFAFFF755F8FEF7AFFC4FF47A70FEF7E1
:102D580021FD6F48FEF774FA6E4A07F148031146E1
:102D68009022184600F0B6F907F1180207F1300171
:102D780007F148031846FFF7B7F9002387F8DF3053
:102D880076E097F8DF2013465B001344DB00E0335E
:102D98003B44983BD3E90001D7E90C23FDF7FCF944
:102DA80002460B4610461946D7E9062397F8DF4036
:102DB800FDF7AAFB02460B461046194623465B0060
:102DC8002344DB00E0333B44983BC3E9000197F818
:102DD800DF2013465B001344DB00E0333B44903BA9
:102DE800D3E90001D7E90E23FDF7D6F902460B46D1
:102DF80010461946D7E9082397F8DF40FDF784FB0A
:102E080002460B461046194623465B002344DB0066
:102E1800E0333B44903BC3E9000197F8DF201346B9
:102E28005B001344DB00E0333B44883BD3E90001FB
:102E3800D7E91023FDF7B0F902460B4610461946AC
:102E4800D7E90A2397F8DF40FDF75EFB02460B46F9
:102E58001046194623465B002344DB00E0333B441D
:102E6800883BC3E9000197F8DF30013387F8DF308A
:102E780097F8DF30052B84D927492848FEF7A0FAB0
:102E88003B461846FEF71EFAD7E90001234BD3E963
:102E98000023FDF781F902460B46104619461E4BE2
:102EA800D3E90023FDF730FB02460B46C7E90023B0
:102EB800D7E90201194BD3E90223FDF76DF9024660
:102EC8000B4610461946144BD3E90223FDF71CFBA9
:102ED80002460B46C7E90223D7E904010F4BD3E9A1
:102EE8000423FDF759F902460B46104619460A4BCA
:102EF800D3E90423FDF708FB02460B46C7E9042380
:102F0800012387F8DE3000BFBAE700BF8400002045
:102F1800A8310008C831000838000020200000202F
:102F2800DFF834D00D480E490E4A002302E0D45889
:102F3800C4500433C4188C42F9D30B4A0B4C0023F9
:102F480001E013600432A242FBD300F013F8FDF74E
:102F580095FDFFF7D7FE7047008001200000002094
:102F680000000020603200080000002088000020D7
:102F7800FEE7000080B500AF164BD3F88830154A3D
:102F880043F47003C2F88830134B1B68124A43F0AD
:102F980001031360104B00229A600F4B1B680E4A06
:102FA80023F0847323F4803313600B4B0B4A5A606D
:102FB800094B1B68084A23F480231360064B002240
:102FC800DA6000F00DF8034B4FF000629A6000BF22
:102FD80080BD00BF00ED00E0003802401030002442
:102FE80080B483B000AF00237B6000233B60354B87
:102FF8001B68344A43F480331360324B1B6803F474
:1030080000333B607B6801337B603B68002B03D156
:103018007B68B3F5A04FF0D12A4B1B6803F400334B
:10302800002B02D001233B6001E000233B603B689A
:10303800012B40D1234B1B6C224A43F0805313646D
:10304800214B1B68204A43F4404313601D4B1D4A23
:103058009B6893601B4B1B4A9B689360194B9B684A
:10306800184A43F480539360164B184A5A60154B1C
:103078001B68144A43F08073136000BF114B1B6830
:1030880003F00073002BF9D0114B40F205721A605F
:103098000C4B9B680B4A23F003039360094B9B6816
:1030A800084A43F00203936000BF064B9B6803F095
:1030B8000C03082BF9D100BF0C37BD465DF8047B23
:1030C800704700BF003802400070004008544107B4
:1030D800003C02400A44914200F1FF3300D170479E
:1030E80010B511F8014B03F8014F9142F9D110BD09
:1030F800F8B500BFF8BC08BC9E467047F8B500BFDD
:08310800F8BC08BC9E467047AC
:103110004163632043616C6962726174696F6E2000
:1031200073746172742E0A00506C6561736520704F
:103130007574207468652073656E736F72206F6E8E
:10314000206120666C617420737572666163652E00
:103150000A0000006D6561737572696E672E2E2E10
:1031600000000000646F6E652E0A000066726F6ECC
:103170007400000000006261636B0000000000004A
:103180006C65667400000000000072696768740076
:103190000000000075700000000000000000646F77
:1031A000776E000000000000496E6974696C697AEE
:1031B0006174696F6E2066696E6973686564210A5F
:1031C00000000000000000005B26C3F17C0694BFF5
:1031D000A54BFF9254A6883F280F0BB5A6F9FA3FDE
:1031E00052D66F26A64BF03FBF1072DEFFC7B13F2D
:1031F00087342A70B20DE73FF1BC546CCC6BEFBF43
:10320000BB2BBB6070CD5D3F50C58D5BCCCFDC3F31
:10321000132D793C2D3FB03F7E3B8908FFA2EEBFC6
:10322000BE16F4DE1882E03F6C223317B83C96BF1E
:1032300053D0ED258D11F03F12859675FFD8E63FEE
:10324000892991442FA3A03FDE3D40F7E5CC96BFEE
:083250007B4CA4349BC7D8BFDE
:04325800690A0008F7
:04325C00450A000817
:0400000508002F2997
:00000001FF
