:020000040800F2
:1000000000800120295A0008795A0008795A00080E
:10001000795A0008795A0008795A0008000000004F
:10002000000000000000000000000000795A0008F5
:10003000795A000800000000795A0008795A00082F
:10004000795A0008795A0008795A0008795A000844
:10005000795A0008795A0008795A0008795A000834
:10006000795A0008795A0008795A0008795A000824
:10007000795A0008795A0008795A0008795A000814
:10008000795A0008795A0008795A000800000000DF
:10009000000000000000000000000000795A000885
:1000A000795A0008795A0008795A0008394B000833
:1000B000795A0008795A0008795A0008795A0008D4
:1000C000795A0008795A0008795A0008795A0008C4
:1000D000795A0008795A0008795A0008000000008F
:1000E000795A0008795A0008795A0008000000007F
:1000F000000000000000000000000000795A000825
:1001000000000000795A0008795A0008795A00085E
:1001100000000000000000000000000000000000DF
:10012000795A0008795A0008795A0008795A000863
:10013000795A0008000000000000000000000000E4
:10014000000000000000000000000000795A0008D4
:10015000795A0008795A0008795A0008795A000833
:10016000795A0008795A00080000000000000000D9
:10017000000000000000000000000000000000007F
:1001800000000000795A0008000000000000000094
:04019000795A000890
:1001A00001F0FF01102A2BDB10F0070F08D010F828
:1001B000013B013A8B422DD010F0070F42B3F6D12C
:1001C000F0B441EA012141EA014122F007047FF045
:1001D00000070023F0E80256083C85EA010586EA9C
:1001E000010685FA47F5A3FA87F586FA47F6A5FAD8
:1001F00087F68EB9EED1F0BC01F0FF0102F00702E4
:1002000032B110F8013B013A83EA010313B1F8D18E
:100210000020704701387047002D06BF354603386F
:10022000073815F0010F07D1013015F4807F02BFA8
:10023000013015F4C03F0130F0BC0138704700BFF9
:10024000034613F8012B002AFBD1181A0138704716
:1002500081F0004102E000BF83F0004330B54FEA77
:1002600041044FEA430594EA050F08BF90EA020FE4
:100270001FBF54EA000C55EA020C7FEA645C7FEA77
:10028000655C00F0E2804FEA5454D4EB5555B8BF9A
:100290006D420CDD2C4480EA020281EA030382EA0B
:1002A000000083EA010180EA020281EA0303362D9D
:1002B00088BF30BD11F0004F4FEA01314FF4801C70
:1002C0004CEA113102D0404261EB410113F0004F82
:1002D0004FEA03334CEA133302D0524263EB430339
:1002E00094EA050F00F0A780A4F10104D5F1200ED7
:1002F0000DDB02FA0EFC22FA05F2801841F1000132
:1003000003FA0EF2801843FA05F359410EE0A5F105
:1003100020050EF1200E012A03FA0EFC28BF4CF036
:10032000020C43FA05F3C01851EBE37101F00045EC
:1003300007D54FF0000EDCF1000C7EEB00006EEBF9
:100340000101B1F5801F1BD3B1F5001F0CD3490883
:100350005FEA30004FEA3C0C04F101044FEA4452DA
:1003600012F5800F80F09A80BCF1004F08BF5FEA61
:10037000500C50F1000041EB045141EA050130BD41
:100380005FEA4C0C404141EB0101013C28BFB1F553
:10039000801FE9D291F0000F04BF01460020B1FA9E
:1003A00081F308BF2033A3F10B03B3F120020CDA71
:1003B0000C3208DD02F1140CC2F10C0201FA0CF04F
:1003C00021FA02F10CE002F11402D8BFC2F1200CB4
:1003D00001FA02F120FA0CFCDCBF41EA0C0190406A
:1003E000E41AA2BF01EB0451294330BD6FEA0404B3
:1003F0001F3C1CDA0C340EDC04F11404C4F120029E
:1004000020FA04F001FA02F340EA030021FA04F3AF
:1004100045EA030130BDC4F10C04C4F1200220FA06
:1004200002F001FA04F340EA0300294630BD21FA44
:1004300004F0294630BD94F0000F83F4801306BF0A
:1004400081F480110134013D4EE77FEA645C18BFFE
:100450007FEA655C29D094EA050F08BF90EA020F95
:1004600005D054EA000C04BF1946104630BD91EA8D
:10047000030F1EBF0021002030BD5FEA545C05D190
:100480004000494128BF41F0004130BD14F58004CF
:100490003CBF01F5801130BD01F0004545F0FE4143
:1004A00041F470014FF0000030BD7FEA645C1ABF78
:1004B000194610467FEA655C1CBF0B46024650EAAF
:1004C000013406BF52EA033591EA030F41F40021DB
:1004D00030BD00BF90F0000F04BF0021704730B561
:1004E0004FF4806404F132044FF000054FF0000136
:1004F00050E700BF90F0000F04BF0021704730B5F7
:100500004FF4806404F1320410F0004548BF4042CB
:100510004FF000013EE700BF42004FEAE2014FEA20
:1005200031014FEA02701FBF12F07F4393F07F4FFB
:1005300081F06051704732F07F4208BF704793F0FE
:100540007F4F04BF41F40021704730B54FF4607411
:1005500001F0004521F000411CE700BF50EA010214
:1005600008BF704730B54FF000050AE050EA0102BD
:1005700008BF704730B511F0004502D5404261EB2D
:1005800041014FF4806404F132045FEA915C3FF46E
:10059000D8AE4FF003025FEADC0C18BF03325FEA0B
:1005A000DC0C18BF033202EBDC02C2F1200300FABC
:1005B00003FC20FA02F001FA03FE40EA0E0021FAE1
:1005C00002F11444BDE600BF70B54FF0FF0C4CF4CF
:1005D000E06C1CEA11541DBF1CEA135594EA0C0F81
:1005E00095EA0C0F00F0DEF82C4481EA030621EABC
:1005F0004C5123EA4C5350EA013518BF52EA0335F7
:1006000041F4801143F4801338D0A0FB02CE4FF0A8
:100610000005E1FB02E506F00042E0FB03E54FF0D8
:100620000006E1FB03569CF0000F18BF4EF0010ED0
:10063000A4F1FF04B6F5007F64F5407404D25FEACC
:100640004E0E6D4146EB060642EAC62141EA55517F
:100650004FEAC52040EA5E504FEACE2EB4F1FD0CC1
:1006600088BFBCF5E06F1ED8BEF1004F08BF5FEA3F
:10067000500E50F1000041EB045170BD06F00046F1
:1006800046EA010140EA020081EA0301B4EB5C049E
:10069000C2BFD4EB0C0541EA045170BD41F4801196
:1006A0004FF0000E013C00F3AB8014F1360FDEBFBB
:1006B000002001F0004170BDC4F10004203C35DA97
:1006C0000C341BDC04F11404C4F1200500FA05F31A
:1006D00020FA04F001FA05F240EA020001F00042BB
:1006E00021F0004110EBD37021FA04F642EB060131
:1006F0005EEA430E08BF20EAD37070BDC4F10C045B
:10070000C4F1200500FA04F320FA05F001FA04F21E
:1007100040EA020001F0004110EBD37041F100010A
:100720005EEA430E08BF20EAD37070BDC4F1200515
:1007300000FA05F24EEA020E20FA04F301FA05F27D
:1007400043EA020321FA04F001F0004121FA04F225
:1007500020EA020000EBD3705EEA430E08BF20EAF5
:10076000D37070BD94F0000F0FD101F0004640002F
:1007700041EB010111F4801F08BF013CF7D041EAB1
:10078000060195F0000F18BF704703F000465200B5
:1007900043EB030313F4801F08BF013DF7D043EA86
:1007A0000603704794EA0C0F0CEA135518BF95EA3C
:1007B0000C0F0CD050EA410618BF52EA4306D1D1C3
:1007C00081EA030101F000414FF0000070BD50EAE2
:1007D000410606BF1046194652EA430619D094EA6C
:1007E0000C0F02D150EA013613D195EA0C0F05D156
:1007F00052EA03361CBF104619460AD181EA0301AA
:1008000001F0004141F0FE4141F470014FF0000061
:1008100070BD41F0FE4141F4780170BD70B54FF0FC
:10082000FF0C4CF4E06C1CEA11541DBF1CEA13557C
:1008300094EA0C0F95EA0C0F00F0A7F8A4EB05045E
:1008400081EA030E52EA03354FEA013100F0888055
:100850004FEA03334FF0805545EA131343EA12631E
:100860004FEA022245EA111545EA10654FEA0026D3
:100870000EF000419D4208BF964244F1FD0404F58C
:10088000407402D25B084FEA3202B61A65EB0305E8
:100890005B084FEA32024FF480104FF4002CB6EBA5
:1008A000020E75EB030E22BFB61A754640EA0C0025
:1008B0005B084FEA3202B6EB020E75EB030E22BF65
:1008C000B61A754640EA5C005B084FEA3202B6EBA6
:1008D000020E75EB030E22BFB61A754640EA9C0065
:1008E0005B084FEA3202B6EB020E75EB030E22BF35
:1008F000B61A754640EADC0055EA060E18D04FEAF3
:10090000051545EA16754FEA06164FEAC30343EA92
:1009100052734FEAC2025FEA1C1CC0D111F4801F5F
:100920000BD141EA00014FF000004FF0004CB6E758
:1009300011F4801F04BF01430020B4F1FD0C88BFF7
:10094000BCF5E06F3FF6AFAEB5EB030C04BFB6EB02
:10095000020C5FEA500C50F1000041EB045170BDF5
:100960000EF0004E4EEA113114EB5C04C2BFD4EB22
:100970000C0541EA045170BD41F480114FF0000EA6
:10098000013C90E645EA060E8DE60CEA135594EA22
:100990000C0F08BF95EA0C0F3FF43BAF94EA0C0F25
:1009A0000AD150EA01347FF434AF95EA0C0F7FF49A
:1009B00025AF104619462CE795EA0C0F06D152EAEE
:1009C00003353FF4FDAE1046194622E750EA4106D2
:1009D00018BF52EA43067FF4C5AE50EA41047FF4E3
:1009E0000DAF52EA43057FF4EBAE12E74FF0FF3C48
:1009F00006E000BF4FF0010C02E000BF4FF0010C19
:100A00004DF804CD4FEA410C7FEA6C5C4FEA430C91
:100A100018BF7FEA6C5C1BD001B050EA410C0CBFE0
:100A200052EA430C91EA030F02BF90EA020F002042
:100A3000704710F1000F91EA030F58BF994208BFA9
:100A400090422CBFD8176FEAE37040F00100704766
:100A50004FEA410C7FEA6C5C02D150EA013C07D1BD
:100A60004FEA430C7FEA6C5CD6D152EA033CD3D008
:100A70005DF8040B704700BF8446104662468C4602
:100A80001946634600E000BF01B5FFF7B7FF002835
:100A900048BF10F1000F01BD4DF808EDFFF7F4FF5E
:100AA0000CBF012000205DF808FB00BF4DF808EDE9
:100AB000FFF7EAFF34BF012000205DF808FB00BF0C
:100AC0004DF808EDFFF7E0FF94BF012000205DF82E
:100AD00008FB00BF4DF808EDFFF7CEFF94BF0120E3
:100AE00000205DF808FB00BF4DF808EDFFF7C4FFDC
:100AF00034BF012000205DF808FB00BF4FEA410C25
:100B00007FEA6C5C02D150EA013C0AD14FEA430C07
:100B10007FEA6C5C02D152EA033C02D14FF0000044
:100B200070474FF0010070474FEA410212F5001282
:100B300015D211D56FF47873B3EB625212D94FEA24
:100B4000C12343F0004343EA505311F0004F23FA0E
:100B500002F018BF404270474FF00000704750EA63
:100B6000013005D111F0004008BF6FF00040704720
:100B70004FF00000704700BF10B5054C237833B923
:100B8000044B13B10448AFF300800123237010BD60
:100B9000C801002000000000445D000808B5034BB8
:100BA0001BB103490348AFF3008008BD00000000FB
:100BB000CC010020445D00082DE9F04F85B057ECD2
:100BC000106BDDE90E9B002F0C4690461946B8BF0E
:100BD00032463B462BF0200ABBBF07F100431F46BD
:100BE00000232D23B8BF1646BAF1460F0B7005D06F
:100BF000BAF1450F00D10134022100E0032103AB1B
:100C0000019302AB009347EC106B4B46224600F079
:100C10004FFEBBF1670F054619D118F0010F0ED03A
:100C200005EB04080022002330463946FFF734FF65
:100C300008B1CDF80C803022039B434521D3039BA0
:100C4000109A5B1B2846136005B0BDE8F08FBBF11E
:100C5000470FE2D0BAF1460F00EB0408E2D1037867
:100C6000302B0AD10022002330463946FFF714FF0B
:100C700018B9C4F10104C9F80040D9F8003098440B
:100C8000D0E7591C03911A70D6E7F7B50029BABF0F
:100C900049422D232B2309290270437029DD0DF1D0
:100CA00007031D460A271A46B1FBF7F607FB161481
:100CB000303402F8014C0C46632C03F1FF3331460B
:100CC000F1DC3031941E03F8011C411C2346AB4279
:100CD0000AD30DF109039B1AAC4288BF00230233EB
:100CE0000344181A03B0F0BD13F8016B01F8016F4B
:100CF000EDE7302330318370C170031DF1E7000050
:100D00002DE9F04F8DB00C46DDF8588016461F4691
:100D1000054600F0D1FC036804931846FFF790FAEB
:100D200000230A93D8F800300590073323F0070317
:100D300003F1080294F818A0D4F800B0C8F8002015
:100D4000D3E9008929F000430793CDF81880C4E95E
:100D50001289DDE90601A04B4FF0FF32FFF7CEFE0E
:100D600070BBDDE906019C4B4FF0FF32FFF7A8FE98
:100D700030BB0022002340464946FFF797FE10B1E2
:100D80002D2384F84330954A954BBAF1470F94BF11
:100D900090469846032323612BF0040323604FF011
:100DA0000009009733460BAA2146284600F0DAF9DD
:100DB000013040F096804FF0FF300DB0BDE8F08F6D
:100DC00042464B4640464946FFF798FE40B14B46E7
:100DD000002BBCBF2D2384F84330824A824BD4E7DA
:100DE00063685A1C26D1062363604BF4806200239B
:100DF000226003930AABCDE901A309AB00936168BC
:100E000049EC108B0DF123032846FFF7D5FEBAF10C
:100E1000670F0999804615D1CB1C3BDB636899426B
:100E200038DC0A9B994255DB23682161D80745D5F8
:100E30004B1C42E00AF0DF02472AD6D1002BD4D166
:100E40000123D1E7BAF1470F07D1C81C25DB63683E
:100E50008B4222DB4FF0670AE3E7BAF1650F1FD838
:100E60000139524604F150000991FFF70EFF0A9A2A
:100E70001318012A8146236102DC2268D20701D5BA
:100E8000013323619DF82330002B8AD02D2384F871
:100E9000433086E74FF0650AE2E74FF0450ADFE7A7
:100EA000BAF1660FBDD1002963680BDD216113B96A
:100EB0002268D00702D501330B442361A1654FF0AE
:100EC0000009DFE713B92268D20701D50233F4E73E
:100ED0000123F2E70029D4BFC1F102020122134429
:100EE000EBE723685A0507D4236942463146284672
:100EF000B84701302BD15EE7BAF1650F40F2DC80D4
:100F0000D4E9120100220023FFF7C6FD002833D0E8
:100F1000364A012331462846B84701303FF44BAFEB
:100F2000DDE90938434502DB2368D8070FD5DDE941
:100F3000042331462846B84701303FF43CAF4FF018
:100F4000000908F1FF3804F11A0AC84509DC2368D2
:100F50009B0700F10281E0680B9B9842B8BF1846DE
:100F60002BE70123524631462846B84701303FF46B
:100F700022AF09F10109E8E7099B002B38DC1B4A85
:100F8000012331462846B84701303FF414AFDDE96C
:100F9000093959EA030302D12368D907D7D5DDE916
:100FA000042331462846B84701303FF404AF4FF0E0
:100FB000000A04F11A0B099B5B42534501DC4B46C6
:100FC00093E701235A4631462846B84701303FF49B
:100FD000F2AE0AF1010AEEE7FFFFEF7FA85E00081C
:100FE000AC5E0008B05E0008B45E0008B85E0008A1
:100FF000A36DDDF828A05345A8BF5346002B9946A2
:1010000036DC4FF0000B29EAE97904F11A02A36DEE
:101010000693A3EB09035B4531DC099B9A453ADC57
:101020002368DA0737D4099BAAEB0309069BAAEBCE
:1010300003039945A8BF9946B9F1000F33DC4FF07F
:10104000000829EAE97904F11A0B099BAAEB0303CA
:10105000A3EB090343457FF77AAF01235A46314694
:101060002846B84701303FF4A6AE08F10108ECE786
:10107000424631462846B8470130C2D19BE601239B
:10108000314628460692B84701303FF494AE069A9E
:101090000BF1010BBBE7DDE9042331462846B847D5
:1010A0000130C0D187E6069A4B4642443146284675
:1010B000B8470130C3D17EE6DDF828A0BAF1010FB0
:1010C00001DCDB0736D50123424631462846B847C6
:1010D00001303FF470AEDDE9042331462846B847BD
:1010E00001303FF468AED4E91201002200230AF176
:1010F000FF3AFFF7D1FCC0B9534608F1010231466F
:101100002846B84701300CD155E601235A463146EE
:101110002846B84701303FF44EAE08F10108D045EB
:10112000F3DB4B4604F15002E0E64FF0000804F117
:101130001A0BF4E701234246E1E701234A46314610
:101140002846B84701303FF436AE08F10108E3689D
:101150000B995B1A4345F0DCFDE64FF0000804F103
:101160001909F4E72DE9F047164698468A680B6995
:10117000DDF820909342B8BF1346336091F84320C6
:1011800007460C460AB1013333602368990642BF13
:10119000336802333360256815F0060506D104F183
:1011A000190AE36832689B1AAB4226DC94F8433094
:1011B0002268003B18BF012392062BD404F143029E
:1011C00041463846C84701301ED02368226903F0E3
:1011D0000603042B02BFE5683368ED1AA3680CBF51
:1011E00025EAE57500259342C4BF9B1AED18002639
:1011F0001A34B5421AD1002008E001235246414674
:101200003846C847013003D14FF0FF30BDE8F087C2
:101210000135C6E7E1185A1C302081F8430022440A
:1012200094F8451082F843100233C7E701232246A1
:1012300041463846C8470130E6D00136D9E70000BC
:101240002DE9FF470F7E0C9D782F914680460C4676
:101250009A4601F1430207D8622F0AD8002F00F006
:10126000E080582F00F0BB8004F1420684F8427001
:101270003AE0A7F16303152BF6D801A151F823F04A
:10128000D9120008ED12000869120008691200085E
:101290006912000869120008ED12000869120008BE
:1012A0006912000869120008691200080914000890
:1012B0007D130008BF1300086912000869120008B6
:1012C0002B140008691200087D1300086912000839
:1012D00069120008C71300082B681A1D1B682A60D2
:1012E00004F1420684F842300123ABE02368296808
:1012F0001F0601F10400286001D50D6803E05E06B9
:10130000FBD5B1F900506168002D7ADA2D20002953
:1013100084F84300A1602DDA5E486D420A23164628
:10132000B5FBF3F103FB1157C75D06F8017D2F46AE
:10133000BB420D46F4D9082B0BD12368DF0708D533
:10134000236961689942DEBF302306F8013C06F14B
:10135000FF36921B2261CDF800A04B4603AA21461E
:101360004046FFF7FFFE013071D14FF0FF3004B06F
:10137000BDE8F08723F004032360CDE72B682068E5
:10138000191D2960050601D51D6802E04106FBD53F
:101390001D8840486F2F14BF0A230823002184F8BA
:1013A00043106668A660002EB9DB216821F00401B5
:1013B0002160002DB3D1002EB1D11646BBE72368C2
:1013C00043F0200323603448782784F84570296867
:1013D00023680E1D2E601E0603D50D6804E02D48FF
:1013E000F3E75D06F9D50D88D90744BF43F0200324
:1013F00023600DB11023D1E7236823F0200323607D
:10140000F8E724480A23CCE72B6826686169181D91
:10141000286035061B6801D5196002E07006FBD50F
:10142000198000232361164695E72B681A1D2A6050
:101430001E68626800213046FEF7B2FE08B1801BCC
:10144000606063682361002384F8433083E7236985
:10145000324649464046D047013086D023689B0734
:1014600014D4E068039B9842B8BF18467FE7012375
:10147000324649464046D04701303FF476AF013509
:10148000E36803995B1AAB42F1DCEAE7002504F15B
:101490001906F5E7BA5E0008CB5E0008002310B518
:1014A0000446C0E90033C0E90433836081814366A8
:1014B000C2818361194608225C3000F0F4F80D4BBC
:1014C00063620D4BA3620D4BE3620D4B23630D4B27
:1014D00024629C4206D003F16802944202D0D033C9
:1014E0009C4205D104F15800BDE8104000F052B90B
:1014F00010BD00BF21160008431600087B16000827
:101500009F160008E4010020024A0349034800F046
:1015100069B800BF000000200D2F00081000002057
:1015200041680C4B994210B5044601D001F0EEFC25
:10153000A168094B994202D0204601F0E7FCE1681E
:10154000064B994204D02046BDE8104001F0DEBCB5
:1015500010BD00BFE40100204C020020B4020020B6
:1015600010B50B4B0B4C0C4A1A602046002204218C
:10157000FFF794FF04F1680001220921FFF78EFFB5
:1015800004F1D0000222BDE810401221FFF786BF0F
:101590001C030020E401002009150008014800F0A8
:1015A000FAB800BF25030020014800F0F5B800BFDD
:1015B0002503002010B50446FFF7F0FF236A1BB196
:1015C000BDE81040FFF7F0BF044B2362044B1B68DB
:1015D000002BF5D1FFF7C4FFF2E700BF211500088B
:1015E0001C0300202DE9F8430746884614460026D0
:1015F000D4E90195B9F1010905D52468002CF7D18A
:101600003046BDE8F883AB89012B07D9B5F90E3018
:10161000013303D029463846C04706436835E9E719
:1016200010B50C46B1F90E1000F06CF80028ABBFF5
:10163000636DA3891B1823F48053ACBF6365A3813A
:1016400010BD2DE9F0411F468B89DB0505460C4690
:10165000164605D5B1F90E100223002200F040F81D
:10166000A389B4F90E1023F48053A38132463B467C
:101670002846BDE8F04100F057B810B50C46B1F966
:101680000E1000F02DF8431CA38915BF606523F4EC
:10169000805343F48053A38118BFA38110BDB1F9D7
:1016A0000E1000F00DB802440346934200D170477B
:1016B00003F8011BF9E70000004870474C010020C7
:1016C00038B5064D0023044608462B6004F0A1FA05
:1016D000431C02D12B6803B1236038BD20030020D6
:1016E00038B5074D04460846114600222A601A46BE
:1016F00004F09BFA431C02D12B6803B1236038BD70
:101700002003002038B5074D044608461146002244
:101710002A601A4604F0B2FA431C02D12B6803B1C6
:10172000236038BD2003002038B5074D0446084625
:10173000114600222A601A4604F084FA431C02D1A2
:101740002B6803B1236038BD2003002070B50D4D18
:101750000D4C641BA4100026A64209D10B4D0C4C65
:1017600004F0F0FA641BA4100026A64205D170BD57
:1017700055F8043B98470136EEE755F8043B984787
:101780000136F2E7FC610008FC610008FC6100081A
:10179000006200087047704770472DE9F74F0369F2
:1017A0000C69A34207467EDB013C01F11408A3004B
:1017B00000F11405009305EB8403019358F82430DD
:1017C00055F8242001339A4208EB8409B2FBF3F662
:1017D0002ED34FF0000AC446AE46D3465CF8043B15
:1017E00098B206FB00A0020C1B0C06FB0323DEF8DC
:1017F000002080B292B2121A5A44DEF800004FEA7A
:10180000134A9BB2C3EB224303EB104392B242EA6A
:101810000342E1454EF8042B4FEA234BDED2009BF6
:10182000EB582BB9019B043B9D421A462FD33C61D8
:10183000384601F0DFF9002825DB2946002058F85A
:10184000042BD1F800C01FFA82FE1FFA8CF3A3EB21
:101850000E030344120CC2EB234202EB1C429BB268
:1018600043EA0243C14541F8043B4FEA2240E6D235
:1018700055F8242005EB840322B9043B9D421A4607
:101880000BD33C610136304603B0BDE8F08F1268DF
:10189000043B002ACBD1013CC6E71268043B002A76
:1018A000EFD1013CEAE70020EEE700000000000075
:1018B0002DE9F04FC76997B08DED000B55EC104B3B
:1018C000209E089183460C9212937FB9102000F05D
:1018D00065FE0246CBF81C0020B9A74BEF21A748B4
:1018E00001F05AFBC0E901770760C760DBF81C30E4
:1018F000196859B15A684A60012393408B60584671
:1019000000F03AFFDBF81C3000221A602B1EB9BF32
:1019100023F00043019300233360019F984BBCBF29
:1019200001223260BB4319D1129A42F20F73136045
:10193000C7F31303234300F0DD85219B53B9914B7B
:1019400021E0914B03930833219A1360039817B059
:10195000BDE8F08F8B4B03930333F5E79DED007BE0
:10196000002251EC170B00238DED0A7BFFF794F852
:10197000804650B1129A01231360219B13B1219A22
:10198000824B1360824B0393E0E79DED0A0B14AA90
:1019900015A9584601F0DEF9C7F30A560290002E49
:1019A00078D00B9BCDF84C80C3F31303DDE90A011B
:1019B00043F07F5343F44013A6F2FF36194600224A
:1019C000744BFEF749FC66A3D3E90023FEF7FCFD48
:1019D00065A3D3E90023FEF741FC044630460D46DB
:1019E000FEF788FD62A3D3E90023FEF7EDFD024672
:1019F0000B4620462946FEF731FC04460D46FFF70C
:101A000093F800220746002320462946FFF74EF8A8
:101A100040B13846FEF76EFD22462B46FFF73CF8F4
:101A200000B9013F162F52D85B4B03EBC703D3E934
:101A30000023DDE90A01FFF739F8002849D0013F0A
:101A400000231193149B9B1B5A1E45BFC3F1010336
:101A5000069300230023079254BF06930793002F99
:101A600039DB079B10973B44079300230993089B9E
:101A7000092B66D8052BC4BF043B0893089BA3F130
:101A80000203CCBF00240124032B65D8DFE803F058
:101A90002B383657DDE914631E4406F23243202BFF
:101AA000C1BFC3F140039F4006F2124324FA03F37F
:101AB000D6BFC3F1200347EA030004FA03F0FEF7A0
:101AC00009FD0122A1F1F873013E139276E701238B
:101AD000B7E71190B6E7069BDB1B06937B420993A1
:101AE00000231093C3E700230D930C9B002B57DCBE
:101AF0000123049399461A460C920CE00123F3E764
:101B000000230D930C9BFB1803F1010904934B4632
:101B1000012BB8BF0123DBF81C000021042202F1D5
:101B200014059D4240D94160584600F0E5FD039000
:101B300000283CD1194B024640F2AF11CFE60123F9
:101B4000DFE70124002308930D944FF0FF33049343
:101B5000994600221223CFE701230D93F5E700BF3A
:101B600061436F63A787D23FB3C8608B288AC63FA3
:101B7000FB799F501344D33FE95E0008005F0008E3
:101B80000000F07FE55E0008DC5E0008B95E00083A
:101B9000B85E00080000F83F28600008425F0008B7
:101BA0000C9B04939946B6E701315200B7E7DBF886
:101BB0001C30039A1A60B9F10E0F6FD8002C6DD04B
:101BC000002F36DDA14B07F00F0203EBC20393EDAC
:101BD000007BF8058DED0E7B4FEA271417D59C4B43
:101BE000DDE90A01D3E90823FEF718FECDE900017B
:101BF00004F00F044FF00308954D5CB9DDE90E23A6
:101C0000DDE90001FEF70AFECDE900012BE04FF00F
:101C10000208F1E7E10709D5DDE90E01D5E9002366
:101C2000FEF7D2FCCDE90E0108F101086410083579
:101C3000E3E700F007817C42844B854D04F00F02FE
:101C400003EBC203D3E90023DDE90A01FEF7BCFC84
:101C5000CDE90001241100234FF00208002C40F0D0
:101C6000E580002BD0D1119BDDE90045002B00F071
:101C70004C81784B002220462946FEF717FF0028AA
:101C800000F04381B9F1000F00F03F81049B002B6D
:101C900000F3E480DDE90A34CDE90034159B002B24
:101CA00002DB0E2F40F342820D9A002A40F0678239
:101CB000099CDDF818800025B8F1000F0DD0079BB6
:101CC000002B0ADD4345069AA8BF4346D21A069266
:101CD000079AA8EB0308D31A0793099B0BB30D9B34
:101CE000002B00F0A682002C00F0A182294622469B
:101CF000584600F0B9FE029A01460546584600F0E3
:101D000009FE02990646584600F036FD099B1B1B4A
:101D1000099300F09182099A3146584600F0A4FEDA
:101D200002900121584600F0DFFD109B0446002B75
:101D300000F084821A460146584600F095FE089B42
:101D4000012B044603DC009B002B00F07C82002664
:101D5000236904EB8303186900F076FD1096C0F147
:101D60002000079B184410F01F0000F09182C0F182
:101D70002003042B40F38182069BC0F11C00034426
:101D80000693079B034480440793069B002B05DDC5
:101D900002991A46584600F0C1FE0290079B002B9C
:101DA00005DD21461A46584600F0B8FE0446119B50
:101DB000002B00F076820298214600F01BFF0028DD
:101DC00080F26F82002302990A22584600F0F6FC46
:101DD0000D9B02907E1E002B00F05C8200232946A2
:101DE0000A22584600F0EAFC049B002B054603DC5F
:101DF000089B022B00F35E82B8F1000F05DD294637
:101E00004246584600F08AFE0546109B002B00F023
:101E1000D0826968584600F06FFC0746002840F001
:101E20007F820D4B024640F2EF2158E5E20706D5CE
:101E3000D5E90023FEF7C8FB08F10108012364106F
:101E400008350BE74FF002080DE700BF28600008D7
:101E5000006000080000F03F425F00082046AD4BE4
:101E600000222946FEF7B0FBCDE90001049C7E1E4E
:101E700008F101084046FEF73DFBDDE90023FEF7CF
:101E8000A3FBA54B0022FEF7E9F9A1F15073CDE9C0
:101E90000E010F93002C3BD1DDE900019F4B002286
:101EA000FEF7DAF902460B46CDE90023DDE90E2301
:101EB000FEF71AFE002840F05781DDE90E2101F1FE
:101EC0000043DDE90001FEF7F1FD00283FF4E2AE3A
:101ED000002425460C9BDDF80CA0DE434FF00008E3
:101EE0002146584600F048FC002D00F0A980B8F1CA
:101EF000000F05D0A84503D04146584600F03CFCF1
:101F00002946584600F038FC9AE03E464C46B1E778
:101F1000834B03EBC40353E90201039B1C440D9B59
:101F2000002B4AD002460B4600207E49FEF776FC85
:101F3000DDE90E23FEF790F9CDE90E01DDF80CA0E6
:101F4000DDE90001FEF7F0FD0546FEF7D3FA024693
:101F50000B46DDE90001FEF77FF93035CDE90001E0
:101F600002460B460AF8015BDDE90E01FEF7BCFDF7
:101F7000002865D1DDE900236B490020FEF76CF9EC
:101F800002460B46DDE90E01FEF7AEFD002840F0EB
:101F90000D81A24500F0EA80DDE90E015D4B0022D3
:101FA000FEF712FB5B4BCDE90E010022DDE90001DB
:101FB000FEF70AFBCDE90001C2E7DDE90E23FEF7DB
:101FC00003FBCDE90E01DDF80CA0A046DDE9000120
:101FD000FEF7AAFD0546FEF78DFA02460B46DDE93F
:101FE0000001FEF739F930350AF8015B02460B466D
:101FF000A245CDE900234FF0000223D1494BDDE992
:102000000E01FEF72BF902460B46DDE90001FEF753
:102010006BFD002840F0CA80DDE90E234149002015
:10202000FEF71AF902460B46DDE90001FEF73EFD18
:1020300070B1C24608F1FF381AF8013C302BF8D0D5
:10204000374655E0334BFEF7BFFACDE90001BDE757
:10205000DDE90A34CDE90034159B002BFFF628AEEC
:102060000E2F3FF725AE2E4B03EBC70393ED007BFE
:102070000C9B002B8DED047B02DAB9F1000F64D0CC
:10208000DDE90045DDF80CA0DDE904232046294602
:10209000FEF7C4FBFEF748FD0646FEF72BFADDE926
:1020A0000423FEF791FA02460B462046294606F124
:1020B0003004FEF7D1F80AF8014B039CAAEB0404A4
:1020C000A14502460B4640F08280FEF7C7F8DDE9E5
:1020D000042304460D46FEF707FD002865D1DDE91F
:1020E000042320462946FEF7D7FC08B1F3075CD449
:1020F0000299584600F040FB00238AF80030129BFA
:1021000001371F60219B002B3FF420ACC3F800A0D7
:102110001CE400BF0000244000001C4000001440EC
:10212000286000080000E03F0000F03FA24B03EBF6
:10213000C70393ED007B0C9B002B8DED047B9FDA96
:10214000B9F1000F9CDC7FF4C3AE9C4B0022DDE9AB
:102150000401FEF739FADDE90023FEF7BBFC044673
:1021600000287FF4B5AE3E462546B4E0DDE90A34EA
:10217000CDE90034159B002B01DB0E2FD6DD089A2C
:10218000012A36DC139A82B303F23343099CDDF84B
:102190001880069A1A440692079A01211A44584652
:1021A000079200F0A1FB054686E53E4653469A4657
:1021B00013F8012D392A06D1039A9A42F7D10399CF
:1021C000302201360A701A7801321A7038E77C4BD7
:1021D0000022FEF7F9F90022002304460D46FEF71F
:1021E0005BFC00283FF450AF82E7149BC3F1360339
:1021F000CCE7099B09F1FF34A34208DBB9F1000FDA
:10220000A3EB04040EDBDDF818804B46C1E7099B05
:10221000109A0994E31A1A44DDF8188010924B467C
:102220000024B6E7069BA3EB09080023B1E7029E52
:1022300071E5099A029970E5029672E5089B012BF7
:1022400017DC009BABB9019BC3F313039BB9019B44
:1022500023F00046360D360536B1069B0133069352
:10226000079B013307930126109B002B7FF470AD71
:102270001096012075E50026F6E73FF486AD069A34
:102280001C331A440692079A1A44984407927CE534
:102290000346F4E7049B002B2BDC089B022B09DC94
:1022A00027E0B9F1000F1DDC089B022B1ADDCDF8E9
:1022B00010903E46049B002B7FF40CAE2146052275
:1022C000584600F07BFA01460446029800F092FC62
:1022D00000287FF7FFADDDF80CA031230AF8013BA1
:1022E0000136FBE50D9BCDF810903E46002B7FF4A8
:1022F00083AD039F02982146FFF74FFA00F13009A2
:1023000007F8019B039B049AFB1A9A4240F3CB8087
:10231000029900230A22584600F050FA0290E9E799
:102320002A690232920005F10C010C3000F026FE01
:1023300001223946584600F0F1FB039B03F1010AE4
:10234000DDE9032313440793009B03F00103A84630
:10235000099305460AF1FF33214602980493FFF7DB
:102360001CFA4146069000F13009029800F042FC48
:102370002A4621460746584600F058FCC2680146E6
:1023800002B3584600F0F8F9002F3ADA0299012218
:10239000584600F0C3FB2146029000F02BFC0028B9
:1023A00003DC29D119F0010F26D0B9F1390F1DD165
:1023B00032E02846C1E700BF286000080000144052
:1023C000000024400A90029800F014FC0A990C9036
:1023D000584600F0D1F90C9A5ABB089B53B9099B97
:1023E00043B9B9F1390F17D0002F05DD069B03F172
:1023F000310901E0002F2ADADDF810A00AF8019B6C
:102400006EE5089B3B4304D1009B03F00103002BC6
:10241000BCD0B9F1390F36D1049F392307F8013BFD
:10242000BA46013F1AF8013C392B5BD001333B70AF
:1024300056E5002F06DB089B3B4306D1009B03F0CB
:10244000010313B9002AA1DCD6E7002AE1DC079BCF
:102450000AF8019C534557462FD0029900230A22BF
:10246000584600F0ABF9A84502904FF000034FF03A
:102470000A02414658460BD100F0A0F980460546B5
:102480000AF1010A66E7DDF810A009F10109B5E7D4
:1024900000F094F92946804600230A22584600F0AD
:1024A0008DF90546ECE7049B002BC8BF1F46039B34
:1024B000D8BF01271F444FF0000802990122584657
:1024C00000F02CFB2146029000F094FB0028A7DCD2
:1024D00002D119F0010FA3D1BA4617F8013D302BF4
:1024E000FAD0FDE4039BBB429AD1039A3123013613
:1024F0001370F5E4219B002B7FF423AA014BFFF717
:1025000042BA00BFDC5E000838B50546002941D05C
:1025100051F8043C0C1F002BB8BFE41800F0E0F8A1
:102520001D4A136833B9636014602846BDE838401B
:1025300000F0DCB8A34208D9206821188B4201BF03
:1025400019685B6809182160EDE71A465B680BB1F2
:10255000A342FAD911685018A0420BD12068014457
:10256000501883421160E0D118685B6853600844DA
:102570001060DAE702D90C232B60D6E72068211817
:102580008B4204BF19685B68636004BF091821604F
:102590005460CAE738BD00BF2C030020024B01463F
:1025A000186800F025B800BF0C00002070B50F4E71
:1025B0000C463168054611B900F0D0FC3060214668
:1025C000284600F0CBFC431C03D14FF0FF342046DB
:1025D00070BDC41C24F00304A042F8D0211A284680
:1025E00000F0BCFC0130F2D1EFE700BF280300206F
:1025F0002DE9F041CD1C25F0030508350C2D38BF21
:102600000C25002D064601DBA94204D90C233360BA
:102610000020BDE8F081314F00F062F83B681C46B5
:1026200044BB29463046FFF7C1FF431C044650D146
:102630003C682146002941D1002C44D02368304613
:1026400004EB030800F08AFC80453CD121686D1A38
:1026500029463046FFF7AAFF013034D023682B44C7
:1026600023603B68002B36D05A68A24229D1002251
:102670005A600EE02268521B1DD40B2A16D961192C
:10268000A342256018BF5960636808BF3960625172
:102690004B60304600F02AF804F10B00231D20F0B7
:1026A0000700C21AB5D01B1AA350B2E7A342626852
:1026B000DED13A60EDE723466468B1E70C4649682D
:1026C000B8E71346CEE70C233360304600F00EF82F
:1026D0009EE70560DDE75B60FFDE00BF2C030020A6
:1026E0000148FFF758B800BF240300200148FFF756
:1026F00053B800BF2403002070B5C66904460D46D8
:1027000076B91020FFF74AFF0246E06120B9184B66
:1027100018486B2100F040FCC0E901660660C66005
:10272000E669F36883B1E369DB6853F82500B8B95B
:10273000012101FA05F6721D9200204600F04AFCC4
:1027400060B1C0E901560EE021220421204600F0CC
:1027500041FCE369F060DB68002BE4D1002070BD30
:10276000026843F825200023C0E90333F7E700BFE0
:10277000E95E0008535F000870B5C66905460C465F
:1027800076B91020FFF70AFF0246E86120B9094B2D
:1027900009488F2100F000FCC0E901660660C660B0
:1027A0003CB1EB696268DB6853F82210216043F8A2
:1027B000224070BDE95E0008535F00082DE9F0413A
:1027C0000D6907460C461E4601F1140C0020DCF88A
:1027D000003099B202FB01611E0C0B0C02FB0633A8
:1027E00089B2013001EB034185424CF8041B4FEAEA
:1027F0001346ECDC0EB3A368AB4219DC61683846C3
:102800000131FFF779FF804628B902460C4B0D488D
:10281000BA2100F0C1FB2269023204F10C019200DE
:102820000C3000F0ABFB21463846FFF7A5FF4446CD
:1028300004EB850301355E6125612046BDE8F0812A
:10284000425F0008535F0008B0F5803F034636BF83
:10285000030400201020B3F1807F3CBF1B0208302E
:10286000B3F1805F3CBF1B010430B3F1804F03D351
:10287000002B0ADB013070479B0001D50230704706
:102880005B0001D503307047202070470368024683
:1028900013F007000BD0D90721D4980749BF5B0874
:1028A0009B08012013605CBF13600220704799B23F
:1028B00009B91B0C1020D9B209B908301B0A190735
:1028C00004BF1B090430990704BF9B080230D907D5
:1028D00003D45B0800F1010003D0136070470020AF
:1028E000704720207047000010B50C460121FFF70B
:1028F00003FF024628B9054B054840F2451100F098
:102900004BFB01234461036110BD00BF425F00081F
:10291000535F00082DE9F04F14460A6923699A4273
:10292000A8BF23460F46A4BF0C461F46D4F810A0EC
:10293000D7F81090A36861680AEB0906B34285B026
:10294000B8BF0131FFF7D8FE30B90246444B4548C5
:102950004FF4B17100F020FB00F1140505EB86087F
:102960002B460022434521D307F1140104F1140240
:1029700002EB8A0201EB89030293131B153B23F040
:102980000303043304F11507BA4238BF042301934B
:10299000029B03918B420CD8002E03DD58F8043DB6
:1029A000002B5BD0066105B0BDE8F08F43F8042B27
:1029B000D8E7B1F800A0BAF1000F24D004F1140E4A
:1029C000A9464FF0000C5EF8047BD9F800301FFADE
:1029D00087FB9BB20AFB0B334FEA174BD9F8007009
:1029E00063444FEA174C0AFB0BC707EB13479BB234
:1029F00043EA0743724549F8043B4FEA174CE2D8D3
:102A0000019B45F803C0039BB3F802900431B9F170
:102A1000000F21D02B6804F1140CAE464FF0000AD1
:102A2000BCF800B0BEF8027009FB0B7757449BB2AC
:102A300043EA07434EF8043B5CF8043B4FEA134A71
:102A4000BEF8003009FB0A3303EB174362454FEA37
:102A5000134AE5D8019FEB51043599E7013E9BE706
:102A6000425F0008535F00082DE9F843154612F055
:102A7000030207460E4607D0254C013A002354F8BE
:102A80002220FFF79BFE0646AD103DD0FC697CB9C5
:102A90001020FFF783FD0246F86128B91D4B1E4840
:102AA00040F2B31100F078FAC0E901440460C46058
:102AB000D7F81C80D8F808404CB940F2712138464C
:102AC000FFF712FF0023C8F80800044603604FF028
:102AD0000009EB070AD5314622463846FFF71AFFB0
:102AE000314680463846FFF747FE46466D100BD00C
:102AF000206838B9224621463846FFF70BFF206090
:102B0000C0F800900446E4E73046BDE8F88300BF13
:102B1000F05F0008E95E0008535F00082DE9F04708
:102B20000C464968236903EB6218A368074691467F
:102B30004FEA621A08F10106B3420BDB3846FFF791
:102B4000DBFD054648B90246284B29484FF4EF7192
:102B500000F022FA01315B00EEE7002300F11401DE
:102B600000F110021846534533DB20692AEAEA7A5D
:102B700004F1140319F01F0901EB8A0103EB800C27
:102B80002BD0C9F1200E8A460022186800FA09F0FD
:102B900010434AF8040B53F8042B9C4522FA0EF21A
:102BA000F3D8ACEB0403153B23F00303043304F127
:102BB0001500844538BF0423CA500AB108F1020643
:102BC000013E38462E612146FFF7D6FD2846BDE876
:102BD000F08742F8040F0133C5E7043953F8042B9A
:102BE00041F8042F9C45F9D8EAE700BF425F00088E
:102BF000535F00080A6903460069801A30B50ED198
:102C00001433143103EB820401EB820154F8045DA8
:102C100051F8042D954203D005D24FF0FF3030BD5E
:102C2000A342F3D3FBE70120F9E700002DE9F74FBA
:102C300089460646114648461446FFF7DBFF051E47
:102C400012D129463046FFF757FD024628B93F4BBF
:102C500040F237213E4800F09FF90123C0E90435D6
:102C6000104603B0BDE8F08FBCBF4B46A1463046CE
:102C7000D9F80410BABF1C4601250025FFF73CFD1A
:102C8000024618B9314B40F24521E3E7D9F81070FC
:102C90002669C56009F1100309F1140504F1140E49
:102CA00000F1140B05EB87080EEB86060193D9465D
:102CB0004FF0000C019B5EF8040B53F804AF019336
:102CC0001FFA8AF3194683B2CB1A000C6344C0EB97
:102CD0001A4000EB23409BB243EA0043764549F893
:102CE000043B4FEA204CE5D8331B153B23F003038C
:102CF00015340433A64238BF04231D445B441E46EA
:102D00002C4644450ED308F10301491B21F0030171
:102D1000033DA84538BF00210B4453F8041D91B171
:102D200017619DE754F8041BE646080C1CFA81FC69
:102D3000714400EB2C4089B241EA004146F8041B83
:102D40004FEA204CDDE7013FE7E700BF425F0008A4
:102D5000535F00082DE9F7430F46012159EC108B12
:102D60001646FFF7C9FC044630B90246234B2448F7
:102D700040F20F3100F010F9C9F30A55C9F31303FB
:102D80000DB143F480130193B8F1000323D06846DA
:102D90000093FFF77BFDDDE90012D0B1C0F1200305
:102DA00002FA03F30B43C24063610192019BA361EA
:102DB000002B0CBF012202222261A5B1A5F23345EE
:102DC00005443D60C0F135003060204603B0BDE8E9
:102DD000F0836161EAE701A8FFF758FD019B636199
:102DE00020300122E8E704EB8203A0F23240386091
:102DF0001869FFF729FDC0EB4210E5E7425F0008C4
:102E0000535F0008B1F90C202DE9F0411707054682
:102E10000C4656D44B68002B02DC0B6C002B3DDDBE
:102E2000E66A002E3AD0002312F480522F68216AFD
:102E30002B6025D0626DA389580705D56368D21A27
:102E4000636B0BB1236CD21A216AE66A0023284611
:102E5000B047411C24D00023636023692360A38909
:102E6000DA0400D56065616B2F60B9B104F14403E9
:102E7000994202D02846FFF747FB002363630DE029
:102E800001232846B047461C0246D4D12B68002BAC
:102E9000D1D01D2B01D0162B2BD12F6000202FE07D
:102EA0002A68B4F90C3042B11D2A01D0162A22D169
:102EB0000023636023692360D5E762602269226092
:102EC000CEE70F69002FE9D093070E6808BF4B6962
:102ED0000F6018BF0023A6EB07088B60B8F1000F46
:102EE000DCDD216AA66A43463A462846B0470028F8
:102EF00008DCB4F90C3043F04003A3814FF0FF30FD
:102F0000BDE8F0810744A8EB0008E7E738B50B6996
:102F100005460C4613B90025284638BD18B1036A8A
:102F20000BB9FEF747FBB4F90C30002BF3D0626EFF
:102F3000D00704D4990502D4A06DFEF72CFC2846D6
:102F40002146FFF75FFF636EDA070546E4D4A389E5
:102F50009B05E1D4A06DFEF71FFCDDE738B5064DFB
:102F60000023044608462B6002F096FE431C02D163
:102F70002B6803B1236038BD200300200A4491422E
:102F800000F1FF3300D1704710B511F8014B03F881
:102F9000014F9142F9D110BD1FB514461A46094B95
:102FA0001B680546D86854B9074B1C46CDE9013467
:102FB00000912B46054900F041F800F051F8044B10
:102FC000F4E700BF0C000020DB5F0008AD5F0008E5
:102FD000A05F000870B5A1FB02543CB92946FFF779
:102FE00007FB064628B90026304670BD0C22026059
:102FF000F9E72A462146FEF756FBF5E782B001B90C
:1030000001A942B14BB113780B601278101E18BFA2
:10301000012002B070471046FBE76FF00100F8E7AF
:103020000346084641B1FF2A04D98A221A604FF0AC
:10303000FF3070470A700120704700000EB403B5DE
:10304000014603AB054853F8042B0068019300F0D8
:1030500037F802B05DF804EB03B070470C000020B5
:1030600008B5062000F000FA012002F052FE936835
:10307000013B002B10B4936008DA9469A34201DB92
:103080000A2903D15DF8044B00F032B91368581CCB
:103090001060197008465DF8044B7047F8B5064695
:1030A0000F461446D518AC4201D1002007E014F8B1
:1030B000011B3A463046FFF7DAFF431CF3D1F8BD57
:1030C0002DE9F04F0D469DB014469846064618B1BE
:1030D000036A0BB9FEF76EFA6B6ED90705D4AB899C
:1030E0009A0502D4A86DFEF756FBAB891B0701D5E4
:1030F0002B699BB92946304600F038F970B16B6EE8
:10310000DC0704D54FF0FF301DB0BDE8F08FAB8970
:103110009805F7D4A86DFEF73FFBF3E7002309936A
:1031200020238DF82930CDF80C803023DFF8AC81D6
:103130008DF82A304FF0010923469A4613F8012BE7
:103140000AB1252AF9D1BAEB040B0BD05B46224613
:1031500029463046FFF7A2FF013000F0A780099A08
:103160005A4409929AF80030002B00F09F80002307
:103170004FF0FF32CDE905230AF1010A04930793CA
:103180008DF853301A935446052214F8011B534806
:10319000FDF706F8049AD8B9D10644BF20238DF86C
:1031A0005330130744BF2B238DF853309AF8003067
:1031B0002A2B15D0079A544600204FF00A0C2146BE
:1031C00011F8013B303B092B4BD9B0B1079214E009
:1031D000A0EB080309FA03F313430493A246D2E7D2
:1031E000039B191D1B680391002BBBBF5B4242F080
:1031F000020207930793B8BF049223782E2B0AD1BB
:1032000063782A2B32D1039B1A1D1B68039243EA71
:10321000E37302340593DFF8D4A0217803225046EB
:10322000FCF7BEFF38B1049BA0EB0A0040228240AD
:1032300013430134049314F8011B29488DF8281016
:103240000622FCF7ADFF00283FD0264B1BBB039B9B
:10325000073323F0070308330393099B3B44099387
:103260006AE70CFB02320C460120A8E70023013478
:10327000059319464FF00A0C204610F8012B303AFE
:10328000092A03D9002BC6D00591C4E70CFB012104
:1032900004460123F0E703AB00932A46124B04A92E
:1032A0003046FDF72DFD0746781CD6D16B6ED90749
:1032B00005D4AB899A0502D4A86DFEF76DFAAB89E7
:1032C0005B063FF51FAF09981EE703AB00932A4644
:1032D000054B04A93046FDF7B3FFE4E7DC5F0008C7
:1032E000E65F0008010D00089D300008E25F00085D
:1032F000F8B50E461446054618B1036A0BB9FEF739
:1033000059F9A369A360A3891A0701D5236943B9B1
:103310002146284600F02AF818B14FF0FF3738460A
:10332000F8BD23682269981A6369F6B2834237466A
:1033300005DC21462846FFF7E9FD0028EDD1A3680A
:10334000013BA36023685A1C22601E706269431C03
:103350009A4204D0A389DB07E1D50A2EDFD12146AA
:103360002846FFF7D3FD0028D9D0D6E738B5294B3A
:10337000054618680C4618B1036A0BB9FEF71AF92E
:10338000B4F90C30190722D4DA0607D409222A60CE
:1033900043F04003A3814FF0FF3033E0580712D5CC
:1033A000616B41B104F14403994202D02846FFF712
:1033B000ABF800236363A38923F02403A3810023D4
:1033C000636023692360A38943F00803A381236911
:1033D0004BB9A38903F42073B3F5007F03D02146D2
:1033E000284600F083F8B4F90C3013F001020AD03B
:1033F0000022A26062695242A261226942B913F0BE
:103400008000C5D138BD990758BF6269A260F4E752
:103410000020F7E70C0000201F2938B505460C46B0
:1034200004D9162303604FF0FF3038BDC26B12B1D0
:1034300052F821304BB9284600F030F822460146B8
:103440002846BDE8384000F017B8012B0AD0591CB7
:1034500003D1162303600120E7E7002142F824107E
:10346000204698470020E0E7024B01461868FFF726
:10347000D3BF00BF0C00002038B5074D0023044621
:10348000084611462B6002F027FC431C02D12B6832
:1034900003B1236038BD00BF2003002002F02EBC22
:1034A00070B50C46B1F90E10002996B015461E46AF
:1034B0000DDAA38913F0800F4FF0000114BF4023F1
:1034C0004FF48063002031602B6016B070BD6A46F7
:1034D00000F048F80028ECDB019901F47041A1F5F7
:1034E0000053594259414FF48063EBE78B89F7B59C
:1034F0009D0706460C4607D504F147032360236168
:103500000123636103B0F0BD01AB6A46FFF7C8FF5A
:10351000009F054639463046FFF76AF848B9B4F9C6
:103520000C309A05EED423F0030343F00203A38189
:10353000E2E7A389206043F08003A381019BC4E9F3
:1035400004075BB1B4F90E10304600F01DF828B145
:10355000A38923F0030343F00103A381A3891D433F
:10356000A581CFE738B5074D00230446084611462C
:103570002B6002F033FB431C02D12B6803B12360A4
:1035800038BD00BF2003002038B5064D0023044697
:1035900008462B6002F032FB431C02D12B6803B1BA
:1035A000236038BD2003002080B483B000AF786072
:1035B000064A7B6843F0BF6343F40033D36000BF27
:1035C0000C37BD465DF8047B704700BF00ED00E09E
:1035D00080B485B000AF78600023FB730023BB7319
:1035E0000F237B737B68DB78002B39D0274BDB689C
:1035F000DB431B0ADBB203F00703FB73FB7BC3F166
:103600000403BB737A7BFB7B42FA03F37B737B6817
:103610005B781A46BB7B02FA03F3FB737B689A78EC
:103620007B7B1340DAB2FB7B1343FB73FB7B1B01F9
:10363000FB73174A7B681B781344FA7B83F80023DB
:103640007B681B7803F01F0311497A6812785209CE
:10365000D2B21046012202FA03F341F820300FE003
:103660007B681B7803F01F0309497A6812785209B6
:10367000D2B2104601229A4000F1200341F82320E3
:1036800000BF1437BD465DF8047B704700ED00E0D5
:1036900000E100E080B487B000AF786039600023BB
:1036A0007B6100233B610023FB6000237B6176E0AC
:1036B00001227B6902FA03F33B613B681B683A69AC
:1036C0001340FB60FA683B699A4265D17B681A68CF
:1036D0007B695B00032101FA03F3DB431A407B683B
:1036E0001A607B681A683B681B7919467B695B0026
:1036F00001FA03F31A437B681A603B681B79012BBC
:1037000003D03B681B79022B2ED17B689A687B69BA
:103710005B00032101FA03F3DB431A407B689A60E4
:103720007B689A683B685B7919467B695B0001FAA4
:1037300003F31A437B689A607B685A687B699BB283
:10374000194601238B40DB431A407B685A607B6833
:103750005B683A68927911467A6992B201FA02F28C
:1037600092B21A437B685A607B68DA687B699BB2C5
:103770005B00032101FA03F3DB431A407B68DA6044
:103780007B68DA683B68DB7919467B695B0001FA84
:1037900003F31A437B68DA607B6901337B617B69E1
:1037A0000F2B85D900BF00BF1C37BD465DF8047BD9
:1037B0007047000080B483B000AF78600B46FB70A8
:1037C000FB78002B06D00A4B1A6B09497B68134320
:1037D0000B6306E0064B1A6B7B68DB43044913401E
:1037E0000B6300BF0C37BD465DF8047B704700BF1C
:1037F0000038024080B483B000AF78600B46FB70A5
:10380000FB78002B06D00A4B1A6C09497B681343DE
:103810000B6406E0064B1A6C7B68DB4304491340DB
:103820000B6400BF0C37BD465DF8047B704700BFDA
:103830000038024080B485B000AF78603960002362
:10384000FB817B681B88FB817B68294A934213D0EC
:103850007B68284A93420FD07B68B3F1804F0BD02E
:103860007B68254A934207D07B68244A934203D061
:103870007B68234A934208D1FB8923F07003FB81C4
:103880003B685A88FB891343FB817B681D4A93423E
:103890000CD07B681C4A934208D0FB8923F4407308
:1038A000FB813B681A89FB891343FB817B68FA899A
:1038B0001A803B685A687B68DA623B681A887B68C2
:1038C0001A857B680A4A934203D07B68094A93426F
:1038D00004D13B689B7A1A467B681A867B68012272
:1038E0009A8200BF1437BD465DF8047B704700BF65
:1038F00000000140000401400004004000080040B6
:10390000000C0040001000400014004080B483B060
:1039100000AF78600B46FB70FB78002B08D07B680B
:103920001B889BB243F001039AB27B681A8007E0C0
:103930007B681B889BB223F001039AB27B681A80D4
:1039400000BF0C37BD465DF8047B704780B485B07E
:1039500000AF7860396000237B810023FB81002366
:10396000BB817B681B8C9BB223F001039AB27B68FE
:103970001A847B681B8CFB817B689B88BB817B687E
:103980001B8B7B817B8923F070037B817B8923F0F8
:1039900003037B813B681A887B8913437B81FB8906
:1039A00023F00203FB813B689A89FB891343FB8167
:1039B0003B685A88FB891343FB817B681E4A93420C
:1039C00003D07B681D4A934223D1FB8923F008036F
:1039D000FB813B68DA89FB891343FB81FB8923F078
:1039E0000403FB813B689A88FB891343FB81BB89F5
:1039F00023F48073BB81BB8923F40073BB813B68D4
:103A00001A8ABB891343BB813B685A8ABB8913431B
:103A1000BB817B68BA899A807B687A891A833B6804
:103A20009A687B685A637B68FA891A8400BF1437E6
:103A3000BD465DF8047B7047000001400004014072
:103A400080B485B000AF78600B467B800023FB819B
:103A50007B681B8BFB81FB8923F00803FB81FA89C0
:103A60007B881343FB817B68FA891A8300BF143774
:103A7000BD465DF8047B704780B483B000AF7860CA
:103A80007B685B6B18460C37BD465DF8047B70475E
:103A900080B483B000AF78600B467B8013467B70A8
:103AA0007B78002B08D07B689B899AB27B88134374
:103AB0009AB27B689A8109E07B689B899AB27B887D
:103AC000DB439BB213409AB27B689A8100BF0C37EC
:103AD000BD465DF8047B704780B485B000AF786068
:103AE0000B467B800023FB730023BB8100237B817B
:103AF0007B681B8A9AB27B881340BB817B689B8959
:103B00009AB27B8813407B81BB89002B05D07B89CF
:103B1000002B02D00123FB7301E00023FB73FB7B2E
:103B200018461437BD465DF8047B704780B483B0F7
:103B300000AF78600B467B807B88DB439AB27B6862
:103B40001A8200BF0C37BD465DF8047B704780B415
:103B500085B000AF78600B467B800023FB737B68E9
:103B60001B889AB27B8813409BB2002B02D00123A2
:103B7000FB7301E00023FB73FB7B18461437BD4643
:103B80005DF8047B7047000080B400AF384B1B6BBE
:103B9000374A43F002031363354B5B6C344A43F0FE
:103BA00010035364334B1B68324A23F440531360B1
:103BB000304B1B682F4A23F4404313602D4B1B6886
:103BC0002C4A43F4005313602A4B1B68294A43F4E0
:103BD00000431360274B5B68264A43F04003536061
:103BE000244B5B68234A43F080035360214B9B685E
:103BF000204A23F4405393601E4B9B681D4A23F4D4
:103C0000404393601B4B9B681A4A43F400539360F4
:103C1000184B9B68174A43F400439360154BDB68CD
:103C2000144A23F44053D360124BDB68114A23F447
:103C30004043D3600F4B1B6A0E4A23F0606313624C
:103C40000C4B1B6A0B4A23F060431362094B1B6A3F
:103C5000084A43F0E0631362064B1B6A054A43F0CF
:103C6000E043136200BFBD465DF8047B704700BFB0
:103C7000003802400004024080B400AF1C4B9B8916
:103C80009BB21B4A43F400539BB29381184B42F200
:103C90002E221A81164B9B899BB2154A23F480531E
:103CA0009BB29381124B9B899BB2114A23F4806390
:103CB0009BB293810E4B9B899BB20D4A43F020032C
:103CC0009BB293810A4B9B899BB2094A43F008033C
:103CD0009BB29381064B9B899BB2054A43F0040338
:103CE0009BB2938100BFBD465DF8047B704700BF67
:103CF0000010014080B582B000AF0346FB71084B55
:103D0000FA7992B29A8000BF80210548FFF71FFF21
:103D10000346002BF8D000BF00BF0837BD4680BD6A
:103D20000010014080B584B000AF78600023FB73C1
:103D300009E0FB7B7A6813441B781846FFF7DAFF2B
:103D4000FB7B0133FB73FB7B7A6813441B78002BEE
:103D5000EFD100BF00BF1037BD4680BD80B500AFBA
:103D6000FFF712FFFFF788FF00BF80BD80B500AFEF
:103D700001226B21D02000F059FD09221921D02009
:103D800000F054FD06221A21D02000F04FFD182229
:103D90001B21D02000F04AFD18221C21D02000F069
:103DA00045FD00BF80BD0000B0B586B000AF7860B3
:103DB0004FF083437B6107F10C0206233B21D020A7
:103DC00000F0CAFC3B7B1B029BB27A7B13449BB284
:103DD0001BB21846FCF78EFB04460D467869FCF7CB
:103DE0009BFB02460B4620462946FCF7EDFB0246AC
:103DF0000B46104619464FF00002294BFCF70EFD0A
:103E000002460B467968C1E90023BB7B1B029BB2CB
:103E1000FA7B13449BB21BB21846FCF76BFB0446BB
:103E20000D467869FCF778FB02460B46204629468A
:103E3000FCF7CAFB02460B46104619464FF000023B
:103E4000174BFCF7EBFC02460B467968C1E90223ED
:103E50003B7C1B029BB27A7C13449BB21BB218467C
:103E6000FCF748FB04460D467869FCF755FB024613
:103E70000B4620462946FCF7A7FB02460B46104698
:103E800019464FF00002064BFCF7C8FC02460B46F1
:103E90007968C1E9042300BF1837BD46B0BD00BF33
:103EA0000000E040B0B5BEB000AF78603960B14806
:103EB000FFF738FFB048FFF735FF40F6B83000F0A5
:103EC000DBF9002387F8F73034E097F8F720134642
:103ED0005B001344DB00F8333B44A3F198014FF03F
:103EE00000024FF00003C1E9002397F8F7201346C2
:103EF0005B001344DB00F8333B44A3F190014FF027
:103F000000024FF00003C1E9002397F8F7201346A1
:103F10005B001344DB00F8333B44A3F188014FF00E
:103F200000024FF00003C1E9002397F8F730013396
:103F300087F8F73097F8F730052BC6D98F4B07F184
:103F400024041D460FCD0FC40FCD0FC40FCD0FC4D9
:103F500095E8070084E80700002387F8F630F8E0CA
:103F600097F8F62007F1240113469B0013445B00E9
:103F70000B441846FFF7D6FE40F6B83000F07CF947
:103F80007F48FFF7CFFE4FF000024FF00003C7E974
:103F900002234FF000024FF00003C7E904234FF063
:103FA00000024FF00003C7E90623002387F8F5302D
:103FB00066E007F108031846FFF7F6FE97F8F620CB
:103FC00013465B001344DB00F8333B44983BD3E9D2
:103FD0000001D7E9022397F8F640FCF73FF90246C3
:103FE0000B461046194623465B002344DB00F8339A
:103FF0003B44983BC3E9000197F8F62013465B0069
:104000001344DB00F8333B44903BD3E90001D7E98C
:10401000042397F8F640FCF721F902460B461046B8
:10402000194623465B002344DB00F8333B44903BB6
:10403000C3E9000197F8F62013465B001344DB0048
:10404000F8333B44883BD3E90001D7E9062397F8CE
:10405000F640FCF703F902460B4610461946234684
:104060005B002344DB00F8333B44883BC3E9000199
:104070000A2000F001F997F8F530013387F8F530A0
:1040800097F8F530632B94D997F8F62013465B0028
:104090001344DB00F8333B44983BD3E9000197F825
:1040A000F6404FF00002374BFCF7B8FB02460B46D8
:1040B0001046194623465B002344DB00F8333B449B
:1040C000983BC3E9000197F8F62013465B001344C0
:1040D000DB00F8333B44903BD3E9000197F8F6400E
:1040E0004FF00002274BFCF799FB02460B461046A7
:1040F000194623465B002344DB00F8333B44903BE6
:10410000C3E9000197F8F62013465B001344DB0077
:10411000F8333B44883BD3E9000197F8F6404FF071
:104120000002184BFCF77AFB02460B461046194674
:1041300023465B002344DB00F8333B44883BC3E960
:1041400000011148FFF7EEFD97F8F630013387F8CC
:10415000F63097F8F630052B7FF602AF07F16003D3
:104160003A687968184600F033FD00BF1846F83702
:10417000BD46B0BD605D0008785D0008BC5D00080C
:10418000A45D000800005940B45D000880B58AB005
:1041900000AF01210420FFF70DFB01210220FFF7F2
:1041A00029FB40233B62022387F82530022387F84E
:1041B000243007F1200319461B48FFF76BFA1A4B0E
:1041C0001B6A194A43F00073136244F61F63BB6114
:1041D0005323BB820023BB830023FB8207F114031C
:1041E00019461248FFF726FB60233B8001237B80A2
:1041F0000023BB813B4619460C48FFF7A7FB08216B
:104200000A48FFF71DFC01210848FFF77FFB074B19
:104210001B889BB2054A43F080039BB2138000BF0A
:104220002837BD4680BD00BF0008024000040040A2
:1042300080B483B000AF78600E497A681346DB0023
:104240001344DB004B600B4B00229A60094B0522A4
:104250001A6000BF074B1B6803F48033002BF9D0B2
:10426000044B04221A6000BF0C37BD465DF8047B86
:10427000704700BF10E000E080B582B000AF78600A
:1042800003E04FF47A70FFF7D3FF7B685A1E7A6021
:10429000002BF6D100BF00BF0837BD4680BD00002F
:1042A00080B400AF2A4B1B68294A23F440331360C3
:1042B000274B1B68264A23F440231360244B1B68BA
:1042C000234A43F400331360214B1B68204A43F414
:1042D000002313601E4B5B681D4A43F480735360D8
:1042E0001B4B5B681A4A43F400735360184B4FF43E
:1042F00040329A60164B4FF440229A60144BDB68B0
:10430000134A23F44033D360114BDB68104A23F483
:104310004023D3600E4BDB680D4A43F48033D360F7
:104320000B4BDB680A4A43F48023D360084B5B6A7B
:10433000074A43F004035362054B5B6A044A43F0A7
:104340004003536200BFBD465DF8047B704700BF69
:104350000004024080B400AF314B9B889BB2304ACE
:1043600023F03F039BB293802D4B9B889BB22C4A3A
:1043700043F004039BB29380294B1B8C9BB2284AC9
:1043800023F03F039BB21384254B1B8C9BB2244A22
:1043900043F4805343F001039BB21384204B1B88EA
:1043A0009BB21F4A43F001039BB213801C4B1B8836
:1043B0009BB21B4A23F020039BB21380184B1B892E
:1043C0009BB2174A23F07F039BB21381144B1B89C6
:1043D0009BB2134A43F001039BB21381104B9B8B9A
:1043E0009BB20F4AC3F30E039BB293830C4B9B8B80
:1043F0009BB20B4A23F47F6323F00F039BB293839A
:10440000074B9B8B9BB2064A43F42B5343F0380374
:104410009BB2938300BFBD465DF8047B704700BF2D
:104420000054004080B483B000AF0346FB71FB79B9
:10443000012B08D10B4B1B889BB20A4A43F48073B3
:104440009BB2138007E0074B1B889BB2054A23F4FD
:1044500080739BB2138000BF0C37BD465DF8047BB0
:10446000704700BF0054004080B483B000AF0346E3
:10447000FB71FB79012B08D10B4B1B889BB20A4ABD
:1044800043F400739BB2138007E0074B1B889BB279
:10449000054A23F400739BB2138000BF0C37BD465E
:1044A0005DF8047B704700BF0054004080B483B0C7
:1044B00000AF0346FB71FB79012B08D10B4B1B8826
:1044C0009BB20A4A43F480639BB2138007E0074B18
:1044D0001B889BB2054A23F480639BB2138000BF04
:1044E0000C37BD465DF8047B704700BF00540040A8
:1044F00080B483B000AF0346FB71054BFA7992B2EA
:104500001A8200BF0C37BD465DF8047B704700BFC0
:104510000054004080B400AF044B1B8A9BB2DBB256
:104520001846BD465DF8047B704700BF005400404C
:1045300080B483B000AF03460A46FB711346BB71DB
:10454000BB79012B04D1FB7943F00103FB7103E03C
:10455000FB7923F00103FB71044BFA7992B21A82C2
:1045600000BF0C37BD465DF8047B70470054004027
:1045700080B483B000AF094B1B8BFB80FB885B08CA
:104580009BB203F00103002B01D0002300E00123C4
:1045900018460C37BD465DF8047B70470054004058
:1045A00080B400AF0F4B9B8A9BB203F00103012B39
:1045B00011D10C4B1B8B9BB203F00103012B0AD1D1
:1045C000084B1B8B9BB25B089BB203F00103012BD2
:1045D00001D1012300E000231846BD465DF8047BAD
:1045E000704700BF0054004080B483B000AF1F4B41
:1045F0009B8AFB801D4B1B8BBB80FB885B089BB29F
:1046000003F00103002B2AD0FB88DB099BB203F0E7
:104610000103002B23D0BB8803F00103002B1ED025
:10462000BB885B089BB203F00103002B17D0BB884B
:104630009B089BB203F00103002B10D0FB885B0AA0
:104640009BB203F00103002B07D0084B9B8A9BB25F
:10465000064A43F480639BB29382012300E0002367
:1046600018460C37BD465DF8047B70470054004087
:1046700080B400AF194B9B8A9BB29B089BB203F09E
:104680000103012B23D1154B9B8A9BB2DB099BB203
:1046900003F00103012B1AD1104B1B8B9BB203F0CB
:1046A0000103012B13D10D4B1B8B9BB25B089BB2FB
:1046B00003F00103012B0AD1084B1B8B9BB29B0813
:1046C0009BB203F00103012B01D1012300E0002381
:1046D0001846BD465DF8047B704700BF005400409B
:1046E00080B400AF104B9B8A9BB25B089BB203F077
:1046F0000103012B11D10C4B1B8B9BB203F0010367
:10470000012B0AD1084B1B8B9BB25B089BB203F0B9
:104710000103012B01D1012300E000231846BD460F
:104720005DF8047B704700BF0054004080B400AFC8
:10473000084B9B8A9BB29B099BB203F00103012BA0
:1047400001D1012300E000231846BD465DF8047B3B
:10475000704700BF0054004090B585B000AF3A608C
:104760001A460346FB710B46BB7113467B7100BFB3
:10477000FFF7FEFE0346002BFAD00120FFF752FEA2
:1047800000BFFFF70DFF0346002BFAD0FB79002195
:104790001846FFF7CDFE00BFFFF726FF0346002BAC
:1047A000FAD0BB791846FFF7A3FE00BFFFF760FF02
:1047B0000346002BFAD00120FFF734FE00BFFFF7BD
:1047C000EFFE0346002BFAD0FB7901211846FFF7D4
:1047D000AFFE00BFFFF784FF0346002BFAD0002096
:1047E000FFF742FE0120FFF761FE0023FB730FE09D
:1047F00000BFFFF79BFF0346002BFAD0FB7B3A6814
:10480000D418FFF787FE03462370FB7B0133FB734D
:10481000FA7B7B799A42EBD30020FFF747FE012019
:10482000FFF722FE00BF1437BD4690BD80B582B0B1
:1048300000AF0346FB710B46BB7113467B7100BF93
:10484000FFF796FE0346002BFAD00120FFF7EAFDA2
:1048500000BFFFF7A5FE0346002BFAD0FB7900212D
:104860001846FFF765FE00BFFFF7BEFE0346002BAC
:10487000FAD0BB791846FFF73BFE00BFFFF7F8FE02
:104880000346002BFAD07B791846FFF731FE00BFB4
:10489000FFF7EEFE0346002BFAD00120FFF7E4FD00
:1048A00000BF0837BD4680BD80B500AF084B1B6B0D
:1048B000074A43F002031363054B1B6C044A43F49D
:1048C00000131364FFF7ECFCFFF744FD00BF80BD4D
:1048D0000038024080B582B000AF864B5B6C854AE1
:1048E00043F001035364844B0022DA62824B1B883D
:1048F0009BB2814A23F010039BB213807E4B1B8D29
:104900009BB27D4A43F053039BB213857A4BDB6A1B
:10491000794A43F49C4343F01F03D362764B9B8A4E
:104920009BB2754A43F002039BB29382724B1B8881
:104930009BB2714A43F080039BB213806D4B1B6B9B
:104940006C4A43F0010313636C4B5B6A6B4A43F0A0
:1049500001035362694B1B68684A23F440331360B8
:10496000664B1B68654A43F400331360634B5B6816
:10497000624A23F480735360604B9B685F4A43F440
:10498000003393605D4BDB685C4A23F44033D360B3
:10499000594B1B8B9BB2584A43F001039BB21383C4
:1049A000554B1B8B9BB2544A23F00C039BB21383D1
:1049B000514B1B8B9BB2504A23F0F0039BB21383E5
:1049C0004D4B1B8C9BB24C4A43F001039BB21384AA
:1049D000494B1B8C9BB2484A23F002039BB21384C1
:1049E000454B1B8C9BB2444A23F008039BB21384B3
:1049F000414B1B8B9BB2404A43F400739BB2138321
:104A00003D4B1B8B9BB23C4A23F440639BB2138308
:104A1000394B1B8B9BB2384AC3F30B039BB21383F6
:104A2000354B1B8C9BB2344A43F010039BB213846A
:104A3000314B1B8C9BB2304A43F020039BB2138452
:104A40002D4B1B8C9BB22C4A43F080039BB21384EA
:104A5000294B1B899BB2284A23F00A039BB213817E
:104A6000254B1B899BB2244A43F004039BB213815C
:104A7000214B1B899BB2204A23F070039BB2138108
:104A80001D4B1B899BB21C4A43F050039BB2138100
:104A9000194B1B899BB2184A43F080039BB21381C8
:104AA000012202211448FEF7F3FF4FF4A060FEF745
:104AB0007BFD1B233B710123FB7102237B710123CF
:104AC000BB713B1D1846FEF783FD0B4B9B899BB2C8
:104AD000094A43F002039BB29381074B1B889BB2A8
:104AE000054A43F001039BB2138000BF0837BD465F
:104AF00080BD00BF003802400000014000000240BD
:104B000080B400AF0A4BDB684FF47A7202FB03F308
:104B1000A3F57423A3F5C563064AA2FB03239B09EF
:104B200003F57A731846BD465DF8047B704700BFF5
:104B300064030020D34D621080B582B000AF022123
:104B40001D48FEF7C9FF0346012B2BD11A48FEF77B
:104B500093FF034601337B607B68B3F5805F02D926
:104B6000164B01221A60154B1B68012B16D11248F7
:104B7000FEF782FF0146124B1B685A1C1048026068
:104B80004A1C104941F823200D4B1B68082B05D9FE
:104B90000B4B00221A60094B00221A6002210648C2
:104BA000FEF7C4FFFFF7ACFF0346074A136000BFE0
:104BB0000837BD4680BD00BF0000014090030020C3
:104BC0008C0300206403002060030020000000002C
:104BD0002DE9F043ADF5737D00AF07F57273A3F5D2
:104BE0006F73186007F57273A3F57073196007F59A
:104BF0007273A3F571731A60002387F8C733B4A3E7
:104C0000D3E90023C7E9E0234FF00002AE4BC7E928
:104C1000EE23ABA3D3E90023C7E9EC234FF0000256
:104C20004FF00003C7E9D423D7E9D423C7E9D2233F
:104C3000D7E9D223C7E9D0234FF00002A34BC7E93D
:104C4000DA23D7E9DA23C7E9D823D7E9D823C7E994
:104C5000D62300F07EBD97F8C733013387F8C733FA
:104C60004FF000024FF00003C7E9EE23002387F85E
:104C7000AF3318E197F8AF3307F57272A2F56E7291
:104C8000DB00D1184FF000024FF00003C1E9002310
:104C9000002387F8AE3319E097F8AF2397F8AE03F7
:104CA00007F57273A3F5627113465B0013445B0052
:104CB0000344DB0019444FF000024FF00003C1E948
:104CC000002397F8AE33013387F8AE3397F8AE334D
:104CD000052BE1D997F8AF2313465B001344DB00A3
:104CE0001A4607F57273A3F56F731B681344D3E973
:104CF0000001D7E9D02397F8AF43FBF7ADFA02469E
:104D00000B461046194607F57273A3F5A4722346A5
:104D10005B002344DB001344C3E9000197F8AF2391
:104D200013465B001344DB001A4607F57273A3F5C4
:104D30006F731B681344D3E90201D7E9D22397F8B4
:104D4000AF43FBF789FA02460B461046194607F5B2
:104D50007273A3F5A47223465B002344DB00134463
:104D60000833C3E9000197F8AF2313465B001344EF
:104D7000DB001A4607F57273A3F56F731B681344C3
:104D8000D3E90401D7E9D42397F8AF43FBF764FADA
:104D900002460B461046194607F57273A3F5A47236
:104DA00023465B002344DB0013441033C3E90001B6
:104DB00097F8AF33DB0003F572733B44A3F1B801FE
:104DC0004FF00002414BC1E90023002387F8AD33C7
:104DD00060E097F8AF33DB0003F572733B44B83BF8
:104DE000D3E9004597F8AF2397F8AD0307F5727341
:104DF000A3F5A47113465B0013440344DB000B448A
:104E0000D3E9000197F8AF2397F8ADC307F57273A4
:104E1000A3F5A47613465B0013446344DB003344DC
:104E2000D3E90023FBF7D0FB02460B461046194698
:104E300097F8AD330333DB0003F572733B44883BD3
:104E4000D3E90023FBF7C0FB02460B461046194688
:104E500097F8AD330333DB0003F572733B44883BB3
:104E6000D3E90023FBF7B0FB02460B4697F8AF638C
:104E700020462946FBF7F0F902460B46F10001F502
:104E800072713944B839C1E9002397F8AD33013361
:104E900087F8AD3397F8AD33022B9AD997F8AF3333
:104EA000013387F8AF3397F8AF33052B7FF6E2AEC7
:104EB000002387F8AC33BFE0002387F8AB33B1E0C1
:104EC000FCA9F1D24D62503F000059400000F03F74
:104ED00095D626E80B2E113E97F8AB330333DB0053
:104EE00003F572733B44883BD3E9000102460B464D
:104EF000FBF7B4F902460B461046194697F8AB3358
:104F00000333DB0003F572733B44883BD3E9002392
:104F1000FBF75AFB02460B469046994697F8AC239E
:104F200097F8AB0307F57273A3F5A47113465B0002
:104F300013440344DB000B44D3E9002397F8AC434C
:104F400097F8AB5340464946FBF73EFB02460B46FB
:104F50001046194607F57273A3F51A7223465B00D3
:104F600023445B002B44DB001344C3E9000197F8A2
:104F7000AB330333DB0003F572733B44883BD3E967
:104F800000014FF000024FF04043FBF71DFB0246CB
:104F90000B4614461D4697F8AC2397F8AB0307F56C
:104FA0007273A3F5A47113465B0013440344DB0042
:104FB0000B44D3E9002320462946FBF705FB0246B4
:104FC0000B469046994697F8AC2397F8AB0307F544
:104FD0007273A3F5A47113465B0013440344DB0012
:104FE0000B44D3E9002397F8AC4397F8AB13CD1CDF
:104FF00040464946FBF7E8FA02460B46104619467A
:1050000007F57273A3F51A7223465B0023445B0015
:105010002B44DB001344C3E9000197F8AB330133A1
:1050200087F8AB3397F8AB33022B7FF655AF97F881
:10503000AC33013387F8AC3397F8AC33052B7FF6EC
:105040003BAF002387F8AA33CAE097F8AA3307F5E5
:105050007272A2F56E72DB00D1184FF000024FF0B1
:105060000003C1E90023002387F8A933AEE097F8D5
:10507000AA2397F8A90307F57273A3F56271134683
:105080005B0013445B000344DB0019444FF0000253
:105090004FF00003C1E90023002387F8A83354E050
:1050A00097F8AA2397F8A90307F57273A3F562711D
:1050B00013465B0013445B000344DB000B44D3E95D
:1050C000004597F8A82397F8AA0307F57273A3F58C
:1050D0001A7113465B0013445B000344DB000B446E
:1050E000D3E9000197F8A82397F8A9C307F57273CD
:1050F000A3F51A7613465B0013445B006344DB00A0
:105100003344D3E90023FBF75FFA02460B4697F8D6
:10511000AA6397F8A98320462946FBF79FF8024621
:105120000B461046194607F57273A3F562723346B3
:105130005B0033445B004344DB001344C3E90001DC
:1051400097F8A833013387F8A83397F8A833052BCD
:10515000A6D997F8AA3307F57272A2F56E72DB0032
:105160001344D3E9004597F8A92397F8AA0307F554
:105170007273A3F51A7113465B0013445B0003447A
:10518000DB000B44D3E9000197F8A933DB0003F5FA
:1051900072733B44B83BD3E90023FBF715FA024690
:1051A0000B4697F8AA6320462946FBF757F80246B4
:1051B0000B4607F57271A1F56E70F1000144C1E96B
:1051C000002397F8A933013387F8A93397F8A93357
:1051D000052B7FF64CAF97F8AA33013387F8AA3333
:1051E00097F8AA33052B7FF630AF0023C7F8A43316
:1051F00026E007F57273A3F56271D7F8A42313466E
:10520000DB009B1ADB000B44D3E90001D7E9EC2358
:10521000FBF724F802460B461046194607F5727351
:10522000A3F56274D7F8A4231346DB009B1ADB00B6
:105230002344C3E90001D7F8A4330133C7F8A433EA
:10524000D7F8A433052BD4DD002387F8A333D7E0A8
:1052500097F8A333013387F8A233C7E097F8A22366
:1052600097F8A30307F57273A3F5627113465B0009
:1052700013445B000344DB000B44D3E9000197F8BF
:10528000A32397F8A35307F57273A3F5627413462B
:105290005B0013445B002B44DB002344D3E9002371
:1052A000FBF7BCFA02460B46C7E9DC234FF00002CD
:1052B0004FF00003D7E9DC01FBF7EEFB0346002BC0
:1052C00040F08F8097F8A22397F8A30307F5727335
:1052D000A3F5627113465B0013445B000344DB00DB
:1052E00019444FF000024FF00003C1E9002397F882
:1052F000A333013387F8A13345E097F8A22397F849
:10530000A10307F57273A3F5627113465B001344A2
:105310005B000344DB000B44D3E9004597F8A3236B
:1053200097F8A10307F57273A3F5627113465B004A
:1053300013445B000344DB000B44D3E90001D7E9CD
:10534000DC23FBF741F902460B4697F8A26397F876
:10535000A18320462946FAF77FFF02460B461046F6
:10536000194607F57273A3F5627233465B00334446
:105370005B004344DB001344C3E9000197F8A13309
:10538000013387F8A13397F8A133052BB5D997F8E6
:10539000A23307F57272A2F56E72DB001344D3E9F3
:1053A000004597F8A33307F57272A2F56E72DB0021
:1053B0001344D3E90001D7E9DC23FBF705F90246E2
:1053C0000B4697F8A26320462946FAF745FF0246A6
:1053D0000B4607F57271A1F56E70F1000144C1E949
:1053E000002397F8A233013387F8A23397F8A2334A
:1053F000052B7FF633AF97F8A333013387F8A33338
:1054000097F8A333052B7FF623AF052387F8A03346
:10541000DDE097F9A02397F9A00307F57273A3F5D0
:10542000627113465B0013445B000344DB000B44D2
:10543000D3E90023C7E9DE2397F9A02397F9A00356
:1054400007F57273A3F5627113465B0013445B00AA
:105450000344DB0019444FF00002B54BC1E90023BF
:1054600097F8A033013387F89F332EE097F9A023F4
:1054700097F89F0307F57273A3F5627113465B00FB
:1054800013445B000344DB000B44D3E9000197F9AC
:10549000A04397F89F53D7E9DE23FBF7BFF90246F5
:1054A0000B461046194607F57273A3F56272234640
:1054B0005B0023445B002B44DB001344C3E9000181
:1054C00097F89F33013387F89F3397F89F33052B65
:1054D000CCD997F9A03307F57272A2F56E72DB0092
:1054E0001344D3E9000197F9A043D7E9DE23FBF782
:1054F00095F902460B4607F57271A1F56E70E10051
:105500000144C1E90023002387F89E3352E097F855
:105510009E3307F57272A2F56E72DB001344D3E975
:10552000004597F89E2397F9A00307F57273A3F53A
:10553000627113465B0013445B000344DB000B44C1
:10554000D3E9000197F9A03307F57272A2F56E72E4
:10555000DB001344D3E90023FBF736F802460B4681
:1055600097F89E6320462946FAF776FE02460B46D8
:1055700007F57271A1F56E70F1000144C1E90023D5
:1055800097F89E2397F9A00307F57273A3F562714C
:1055900013465B0013445B000344DB0019444FF0E7
:1055A00000024FF00003C1E9002397F89E33013356
:1055B00087F89E3397F89E2397F9A0339A42A6DB8B
:1055C00097F9A033DBB2013BDBB287F8A03397F940
:1055D000A033002BBFF61DAF4FF000024FF00003C9
:1055E000C7E9E423002387F88F3387E097F88F33E8
:1055F000022B20D897F88F3307F57272A2F56E72DE
:10560000DB001344D3E9000197F88F3307F572727A
:10561000A2F56E72DB001344D3E90023FAF7D4FF3E
:1056200002460B46D7E9E401FAF718FE02460B469C
:10563000C7E9E4233DE097F88F3307F57272A2F5CE
:105640006E72DB001344D3E9000197F88F3307F53E
:105650007272A2F56E72DB001344D3E90023FAF7ED
:10566000B3FF02460B4614461D4697F88F33DB0006
:1056700003F572733B44883BD3E9000197F88F33FD
:10568000DB0003F572733B44883BD3E90023FAF750
:105690009BFF02460B4620462946FBF7BFF8024611
:1056A0000B46D7E9E401FAF7D9FD02460B46C7E9F4
:1056B000E42397F88F33DB0003F572733B44883B98
:1056C000D3E9000197F88F3307F57272A2F56E7275
:1056D000DB001344D3E9002397F88F43FAF7BCFDAE
:1056E00002460B46E10001F5727139448839C1E97F
:1056F000002397F88F33013387F88F3397F88F3370
:10570000052B7FF673AFD7E9EE23D7E9E401FBF76A
:10571000EBF90346002B0DD0D7E9EC0102460B460E
:10572000FAF79CFD02460B46C7E9EC230DE000BFEB
:105730000000F03F4FF000022B4BD7E9EC01FBF7E4
:105740006DF802460B46C7E9EC23D7E9E423C7E925
:10575000EE2397F8C733632B09D8D7E9E023D7E9BD
:10576000EE01FBF7C1F90346002B7FF474AAD7E9D9
:10577000D02307F57271A1F570710968C1E90023A2
:10578000D7E9D22307F57271A1F570710968C1E9F3
:105790000223D7E9D42307F57271A1F57071096866
:1057A000C1E90423D7E9D62307F57271A1F5717118
:1057B0000968C1E90023D7E9D82307F57271A1F57B
:1057C00071710968C1E90223D7E9DA2307F572711B
:1057D000A1F571710968C1E9042300BF07F573776A
:1057E000BD46BDE8F08300BF0000084090B5BBB0E7
:1057F00000AF4FF47A70FEF73FFDFFF755F8834B8B
:105800001B8801339AB2814B1A80FEF7AFFA7F4BA7
:105810001B8801339AB27D4B1A807C4B1B88013365
:105820009AB27A4B1A80FEF799FAFFF753F8FEF70F
:10583000ADFC4FF47A70FEF71FFD7548FEF772FA63
:10584000744BC7F8E030D7F8E000FAF765FE02467F
:105850000B46714800F064FA704A07F1480311469C
:1058600090221846FDF78AFB07F1180207F1300174
:1058700007F148031846FFF7ABF9002387F8E73034
:1058800076E097F8E72013465B001344DB00E8332B
:105890003B44A03BD3E90001D7E90C23FAF7DCFC39
:1058A00002460B4610461946D7E9062397F8E7400B
:1058B000FAF78AFE02460B461046194623465B005D
:1058C0002344DB00E8333B44A03BC3E9000197F8E5
:1058D000E72013465B001344DB00E8333B44983B6E
:1058E000D3E90001D7E90E23FAF7B6FC02460B46CE
:1058F00010461946D7E9082397F8E740FAF764FEFF
:1059000002460B461046194623465B002344DB0043
:10591000E8333B44983BC3E9000197F8E72013467E
:105920005B001344DB00E8333B44903BD3E90001C8
:10593000D7E91023FAF790FC02460B4610461946A9
:10594000D7E90A2397F8E740FAF73EFE02460B46EE
:105950001046194623465B002344DB00E8333B44F2
:10596000903BC3E9000197F8E730013387F8E7304F
:1059700097F8E730052B84D929492A48FEF792FA8F
:105980003B461846FEF710FAD7E90001254BD3E94C
:105990000023FAF761FC02460B4610461946204BDD
:1059A000D3E90023FAF710FE02460B46C7E90023AD
:1059B000D7E902011B4BD3E90223FAF74DFC02465B
:1059C0000B4610461946164BD3E90223FAF7FCFDA5
:1059D00002460B46C7E90223D7E90401114BD3E97C
:1059E0000423FAF739FC02460B46104619460C4BC5
:1059F000D3E90423FAF7E8FD02460B46C7E904237E
:105A0000012387F8DF3000BFBAE700BF940300200E
:105A1000F85D00085BD3FC3D145E0008185E0008CA
:105A20004803002030030020DFF834D00D480E4931
:105A30000E4A002302E0D458C4500433C4188C42E8
:105A4000F9D30B4A0B4C002301E013600432A2424D
:105A5000FBD300F013F8FBF779FEFFF7C7FE7047A2
:105A60000080012000000020C8010020046200081E
:105A7000C80100209C030020FEE7000080B500AFB5
:105A8000164BD3F88830154A43F47003C2F88830B7
:105A9000134B1B68124A43F001031360104B0022A2
:105AA0009A600F4B1B680E4A23F0847323F48033F3
:105AB00013600B4B0B4A5A60094B1B68084A23F4CE
:105AC00080231360064B0022DA6000F00DF8034BD0
:105AD0004FF000629A6000BF80BD00BF00ED00E0A3
