:020000040800F2
:1000000000800120A9040008F9040008F904000890
:10001000F9040008F9040008F904000800000000D1
:10002000000000000000000000000000F9040008CB
:10003000F904000800000000F9040008F9040008B1
:10004000F9040008F9040008F9040008F90400089C
:10005000F9040008F9040008F9040008F90400088C
:10006000F9040008F9040008F9040008F90400087C
:10007000F9040008F9040008F9040008F90400086C
:10008000F9040008F9040008F90400080000000061
:10009000000000000000000000000000F90400085B
:1000A000F9040008F9040008F9040008E502000852
:1000B000F9040008F9040008F9040008F90400082C
:1000C000F9040008F9040008F9040008F90400081C
:1000D000F9040008F9040008F90400080000000011
:1000E000F9040008F9040008F90400080000000001
:1000F000000000000000000000000000F9040008FB
:1001000000000000F9040008F9040008F9040008E0
:1001100000000000000000000000000000000000DF
:10012000F9040008F9040008F9040008F9040008BB
:10013000F9040008000000000000000000000000BA
:10014000000000000000000000000000F9040008AA
:10015000F9040008F9040008F9040008F90400088B
:10016000F9040008F9040008000000000000000085
:10017000000000000000000000000000000000007F
:1001800000000000F904000800000000000000006A
:04019000F904000866
:1001940010B5054C237833B9044B13B10448AFF3BD
:1001A40000800123237010BD000000200000000027
:1001B4005C06000808B5034B1BB103490348AFF3C1
:1001C400008008BD00000000040000205C06000858
:1001D40070B50D4D0D4C641BA4100026A64209D128
:1001E4000B4D0C4C00F038FA641BA4100026A642F8
:1001F40005D170BD55F8043B98470136EEE755F834
:10020400043B98470136F2E77406000874060008B8
:10021400740600087806000880B483B000AF7860E4
:100224007B685B6B18460C37BD465DF8047B7047F2
:1002340080B485B000AF78600B467B800023FB73ED
:100244000023BB8100237B817B681B8A9AB27B8855
:100254001340BB817B689B899AB27B8813407B8166
:10026400BB89002B05D07B89002B02D00123FB73B3
:1002740001E00023FB73FB7B18461437BD465DF891
:10028400047B704780B483B000AF78600B467B80FA
:100294007B88DB439AB27B681A8200BF0C37BD4669
:1002A4005DF8047B7047000080B400AF0A4BDB6844
:1002B4004FF47A7202FB03F3A3F57423A3F5C56329
:1002C400064AA2FB03239B0903F57A731846BD462D
:1002D4005DF8047B704700BF20000020D34D6210FE
:1002E40080B582B000AF02211D48FFF7A1FF03468D
:1002F400012B2BD11A48FFF78FFF034601337B6094
:100304007B68B3F5805F02D9164B01221A60154B46
:100314001B68012B16D11248FFF77EFF0146124BD2
:100324001B685A1C104802604A1C104941F82320DB
:100334000D4B1B68082B05D90B4B00221A60094B87
:1003440000221A6002210648FFF79CFFFFF7ACFF6A
:100354000346074A136000BF0837BD4680BD00BF8F
:10036400000001404C000020480000202000002034
:100374001C00002080B500AF1B4B1B681A4A43F0D9
:1003840001031360194B1B68184A23F4406313607C
:10039400164B1B68154A43F480631360144B1B68A7
:1003A400134A63F020031360124B1B68114A23F4B1
:1003B400406313600F4B1B680E4A43F48063136061
:1003C4000D4B1B680C4A23F44063136000F016F8CD
:1003D4004FF47A7000F052F800F020F84FF4FA70FD
:1003E40000F04CF800BFF1E7303802400000024052
:1003F40004000240080002400C00024080B400AF38
:10040400054B1B68044A43F02003136000BFBD463C
:100414005DF8047B704700BF1400024080B400AF55
:10042400034B00221A6000BFBD465DF8047B704791
:100434001400024080B483B000AF78600E497A683B
:100444001346DB001344DB004B600B4B00229A6025
:10045400094B05221A6000BF074B1B6803F4803365
:10046400002BF9D0044B04221A6000BF0C37BD46A0
:100474005DF8047B704700BF10E000E080B582B0F7
:1004840000AF786003E04FF47A70FFF7D3FF7B6826
:100494005A1E7A60002BF6D100BF00BF0837BD4654
:1004A40080BD0000DFF834D00D480E490E4A002309
:1004B40002E0D458C4500433C4188C42F9D30B4A14
:1004C4000B4C002301E013600432A242FBD300F082
:1004D40013F8FFF77DFEFFF74DFF70470080012002
:1004E40000000020000000207C060008000000201E
:1004F40050000020FEE7000080B500AF164BD3F893
:100504008830154A43F47003C2F88830134B1B68D3
:10051400124A43F001031360104B00229A600F4B00
:100524001B680E4A23F0847323F4803313600B4B4F
:100534000B4A5A60094B1B68084A23F48023136052
:10054400064B0022DA6000F00DF8034B4FF0006216
:100554009A6000BF80BD00BF00ED00E0003802409B
:100564001030002480B483B000AF00237B600023EC
:100574003B60354B1B68344A43F480331360324B81
:100584001B6803F400333B607B6801337B603B688A
:10059400002B03D17B68B3F5A04FF0D12A4B1B6825
:1005A40003F40033002B02D001233B6001E000235D
:1005B4003B603B68012B40D1234B1B6C224A43F028
:1005C40080531364214B1B68204A43F44043136057
:1005D4001D4B1D4A9B6893601B4B1B4A9B68936091
:1005E400194B9B68184A43F480539360164B184A7E
:1005F4005A60154B1B68144A43F08073136000BFA4
:10060400114B1B6803F00073002BF9D0114B40F21F
:1006140005721A600C4B9B680B4A23F0030393602A
:10062400094B9B68084A43F00203936000BF064BE2
:100634009B6803F00C03082BF9D100BF0C37BD46AF
:100644005DF8047B704700BF003802400070004032
:1006540008544107003C0240F8B500BFF8BC08BC90
:100664009E467047F8B500BFF8BC08BC9E4670476C
:04067400B9010008C0
:0406780095010008E0
:04000005080004A942
:00000001FF
